:020000040800F2
:100000000000022009EC000811DD000813DD0008E3
:1000100015DD000817DD000819DD000800000000EC
:100020000000000000000000000000001BDD0008D0
:100030001DDD0008000000001FDD000821DD0008B4
:1000400059EC000859EC000859EC000859EC00087C
:1000500059EC000859EC000859EC000859EC00086C
:1000600059EC000859EC000859EC000859EC00085C
:1000700059EC000859EC000859EC000859EC00084C
:100080005DDD000859EC00083121000859EC00083A
:1000900059EC000859EC000859EC000823DD000871
:1000A00059EC000859EC000859EC000859EC00081C
:1000B000E599000859EC000859EC000859EC0008D3
:1000C00059EC000859EC000859EC000859EC0008FC
:1000D00059EC000859EC000895DD000859EC0008BF
:1000E00059EC000859EC000859EC000859EC0008DC
:1000F00059EC000859EC000859EC000859EC0008CC
:1001000059EC000859EC000859EC000859EC0008BB
:1001100059EC000859EC000859EC000825DD0008EE
:1001200059EC000859EC000859EC000859EC00089B
:1001300059EC000859EC000859EC000859EC00088B
:1001400059EC000859EC000859EC000859EC00087B
:1001500059EC000859EC000859EC000859EC00086B
:1001600059EC000845DD000859EC000859EC00087E
:1001700059EC000859EC000859EC000859EC00084B
:1001800059EC000859EC000859EC000859EC00083B
:1001900059EC00080000000059EC000859EC000878
:1001A00059EC000859EC000859EC000859EC00081B
:1001B00059EC000859EC000859EC000859EC00080B
:1001C00059EC000859EC000859EC000859EC0008FB
:0801D00059EC000859EC00088D
:1001D80081F0004102E000BF83F0004330B54FEAF0
:1001E80041044FEA430594EA050F08BF90EA020F5D
:1001F8001FBF54EA000C55EA020C7FEA645C7FEAF0
:10020800655C00F0E2804FEA5454D4EB5555B8BF12
:100218006D420CDD2C4480EA020281EA030382EA83
:10022800000083EA010180EA020281EA0303362D15
:1002380088BF30BD11F0004F4FEA01314FF4801CE8
:100248004CEA113102D0404261EB410113F0004FFA
:100258004FEA03334CEA133302D0524263EB4303B1
:1002680094EA050F00F0A780A4F10104D5F1200E4F
:100278000DDB02FA0EFC22FA05F2801841F10001AA
:1002880003FA0EF2801843FA05F359410EE0A5F17E
:1002980020050EF1200E012A03FA0EFC28BF4CF0AF
:1002A800020C43FA05F3C01851EBE37101F0004565
:1002B80007D54FF0000EDCF1000C7EEB00006EEB72
:1002C8000101B1F5801F1BD3B1F5001F0CD34908FC
:1002D8005FEA30004FEA3C0C04F101044FEA445253
:1002E80012F5800F80F09A80BCF1004F08BF5FEADA
:1002F800500C50F1000041EB045141EA050130BDBA
:100308005FEA4C0C404141EB010111F4801FA4F15C
:100318000104E9D191F0000F04BF01460020B1FAB1
:1003280081F308BF2033A3F10B03B3F120020CDAE9
:100338000C3208DD02F1140CC2F10C0201FA0CF0C7
:1003480021FA02F10CE002F11402D8BFC2F1200C2C
:1003580001FA02F120FA0CFCDCBF41EA0C019040E2
:10036800E41AA2BF01EB0451294330BD6FEA04042B
:100378001F3C1CDA0C340EDC04F11404C4F1200216
:1003880020FA04F001FA02F340EA030021FA04F328
:1003980045EA030130BDC4F10C04C4F1200220FA7F
:1003A80002F001FA04F340EA0300294630BD21FABD
:1003B80004F0294630BD94F0000F83F4801306BF83
:1003C80081F480110134013D4EE77FEA645C18BF77
:1003D8007FEA655C29D094EA050F08BF90EA020F0E
:1003E80005D054EA000C04BF1946104630BD91EA06
:1003F800030F1EBF0021002030BD5FEA545C05D109
:100408004000494128BF41F0004130BD14F5800447
:100418003CBF01F5801130BD01F0004545F0FE41BB
:1004280041F470014FF0000030BD7FEA645C1ABFF0
:10043800194610467FEA655C1CBF0B46024650EA27
:10044800013406BF52EA033591EA030F41F4002153
:1004580030BD00BF90F0000F04BF0021704730B5D9
:100468004FF4806404F132044FF000054FF00001AE
:1004780050E700BF90F0000F04BF0021704730B56F
:100488004FF4806404F1320410F0004548BF404244
:100498004FF000013EE700BF42004FEAE2014FEA99
:1004A80031014FEA02701FBF12F07F4393F07F4F74
:1004B80081F06051704732F07F4208BF704793F077
:1004C8007F4F04BF41F40021704730B54FF460748A
:1004D80001F0004521F000411CE700BF50EA01028D
:1004E80008BF704730B54FF000050AE050EA010236
:1004F80008BF704730B511F0004502D5404261EBA6
:1005080041014FF4806404F132045FEA915C3FF4E6
:10051800D8AE4FF003025FEADC0C18BF03325FEA83
:10052800DC0C18BF033202EBDC02C2F1200300FA34
:1005380003FC20FA02F001FA03FE40EA0E0021FA59
:1005480002F11444BDE600BF70B54FF0FF0C4CF447
:10055800E06C1CEA11541DBF1CEA135594EA0C0FF9
:1005680095EA0C0F00F0DEF82C4481EA030621EA34
:100578004C5123EA4C5350EA013518BF52EA03356F
:1005880041F4801143F4801338D0A0FB02CE4FF021
:100598000005E1FB02E506F00042E0FB03E54FF051
:1005A8000006E1FB03569CF0000F18BF4EF0010E49
:1005B800A4F1FF04B6F5007F64F5407404D25FEA45
:1005C8004E0E6D4146EB060642EAC62141EA5551F8
:1005D8004FEAC52040EA5E504FEACE2EB4F1FD0C3A
:1005E80088BFBCF5E06F1ED8BEF1004F08BF5FEAB8
:1005F800500E50F1000041EB045170BD06F000466A
:1006080046EA010140EA020081EA0301B4EB5C0416
:10061800C2BFD4EB0C0541EA045170BD41F480110E
:100628004FF0000E013C00F3AB8014F1360FDEBF33
:10063800002001F0004170BDC4F10004203C35DA0F
:100648000C341BDC04F11404C4F1200500FA05F392
:1006580020FA04F001FA05F240EA020001F0004233
:1006680021F0004110EBD37021FA04F642EB0601A9
:100678005EEA430E08BF20EAD37070BDC4F10C04D3
:10068800C4F1200500FA04F320FA05F001FA04F297
:1006980040EA020001F0004110EBD37041F1000183
:1006A8005EEA430E08BF20EAD37070BDC4F120058E
:1006B80000FA05F24EEA020E20FA04F301FA05F2F6
:1006C80043EA020321FA04F001F0004121FA04F29E
:1006D80020EA020000EBD3705EEA430E08BF20EA6E
:1006E800D37070BD94F0000F0FD101F000464000A8
:1006F80041EB010111F4801F08BF013CF7D041EA2A
:10070800060195F0000F18BF704703F0004652002D
:1007180043EB030313F4801F08BF013DF7D043EAFE
:100728000603704794EA0C0F0CEA135518BF95EAB4
:100738000C0F0CD050EA410618BF52EA4306D1D13B
:1007480081EA030101F000414FF0000070BD50EA5A
:10075800410606BF1046194652EA430619D094EAE4
:100768000C0F02D150EA013613D195EA0C0F05D1CE
:1007780052EA03361CBF104619460AD181EA030122
:1007880001F0004141F0FE4141F470014FF00000DA
:1007980070BD41F0FE4141F4780170BD70B54FF075
:1007A800FF0C4CF4E06C1CEA11541DBF1CEA1355F5
:1007B80094EA0C0F95EA0C0F00F0A7F8A4EB0504D7
:1007C80081EA030E52EA03354FEA013100F08880CE
:1007D8004FEA03334FF0805545EA131343EA126397
:1007E8004FEA022245EA111545EA10654FEA00264C
:1007F8000EF000419D4208BF964244F1FD0404F505
:10080800407402D25B084FEA3202B61A65EB030560
:100818005B084FEA32024FF480104FF4002CB6EB1D
:10082800020E75EB030E22BFB61A754640EA0C009D
:100838005B084FEA3202B6EB020E75EB030E22BFDD
:10084800B61A754640EA5C005B084FEA3202B6EB1E
:10085800020E75EB030E22BFB61A754640EA9C00DD
:100868005B084FEA3202B6EB020E75EB030E22BFAD
:10087800B61A754640EADC0055EA060E18D04FEA6B
:10088800051545EA16754FEA06164FEAC30343EA0B
:1008980052734FEAC2025FEA1C1CC0D111F4801FD8
:1008A8000BD141EA00014FF000004FF0004CB6E7D1
:1008B80011F4801F04BF01430020B4F1FD0C88BF70
:1008C800BCF5E06F3FF6AFAEB5EB030C04BFB6EB7B
:1008D800020C5FEA500C50F1000041EB045170BD6E
:1008E8000EF0004E4EEA113114EB5C04C2BFD4EB9B
:1008F8000C0541EA045170BD41F480114FF0000E1F
:10090800013C90E645EA060E8DE60CEA135594EA9A
:100918000C0F08BF95EA0C0F3FF43BAF94EA0C0F9D
:100928000AD150EA01347FF434AF95EA0C0F7FF412
:1009380025AF104619462CE795EA0C0F06D152EA66
:1009480003353FF4FDAE1046194622E750EA41064A
:1009580018BF52EA43067FF4C5AE50EA41047FF45B
:100968000DAF52EA43057FF4EBAE12E74FF0FF3CC0
:1009780006E000BF4FF0010C02E000BF4FF0010C91
:100988004DF804CD4FEA410C7FEA6C5C4FEA430C0A
:1009980018BF7FEA6C5C1BD001B050EA410C0CBF59
:1009A80052EA430C91EA030F02BF90EA020F0020BB
:1009B800704710F1000F91EA030F58BF994208BF22
:1009C80090422CBFD8176FEAE37040F001007047DF
:1009D8004FEA410C7FEA6C5C02D150EA013C07D136
:1009E8004FEA430C7FEA6C5CD6D152EA033CD3D081
:1009F8005DF8040B704700BF8446104662468C467B
:100A08001946634600E000BF01B5FFF7B7FF0028AD
:100A180048BF10F1000F01BD4DF808EDFFF7F4FFD6
:100A28000CBF012000205DF808FB00BF4DF808ED61
:100A3800FFF7EAFF34BF012000205DF808FB00BF84
:100A48004DF808EDFFF7E0FF94BF012000205DF8A6
:100A580008FB00BF4DF808EDFFF7CEFF94BF01205B
:100A680000205DF808FB00BF4DF808EDFFF7C4FF54
:100A780034BF012000205DF808FB00BF4FEA4102A7
:100A880012F5001215D211D56FF47873B3EB6252D8
:100A980012D94FEAC12343F0004343EA505311F0FF
:100AA800004F23FA02F018BF404270474FF0000091
:100AB800704750EA013005D111F0004008BF6FF0CF
:100AC800004070474FF00000704700BF4FEA4102F6
:100AD800B2F1E04324BFB3F5001CDCF1FE5C0DD994
:100AE80001F0004C4FEAC0024CEA5070B2F1004FDE
:100AF80040EB830008BF20F00100704711F0804FE1
:100B080021D113F13872BCBF01F00040704741F4A5
:100B180080114FEA5252C2F11802C2F1200C10FAA9
:100B28000CF320FA02F018BF40F001004FEAC1238D
:100B38004FEAD32303FA0CFC40EA0C0023FA02F331
:100B48004FEA4303CCE77FEA625307D150EA013307
:100B58001EBF4FF0FE4040F44000704701F00040D7
:100B680040F0FE4040F40000704700BF0348044BCB
:100B7800834202D0034B03B118477047F0040020AA
:100B8800F00400200000000005480649091A8910F1
:100B980001EBD171491002D0034B03B118477047DC
:100BA800F0040020F00400200000000010B5064CFE
:100BB800237843B9FFF7DAFF044B13B10448AFF3C6
:100BC80000800123237010BDF00400200000000005
:100BD80050F8000808B5054B1BB105490548AFF3A7
:100BE8000080BDE80840FFF7CFBF00BF000000004D
:100BF800F404002050F8000843684361D0ED017AFE
:100C0800B6EE007A67EE877A90ED007ADFED476AF4
:100C180027EE267A77EE877AC0ED067AD0ED067A47
:100C280090ED057A77EEC77AC0ED077A032380F84E
:100C38002030D0ED067AF5EEC07AF1EE10FA45DDF7
:100C480090F82030013BDBB280F82030D0ED077AF5
:100C5800F5EEC07AF1EE10FA3CDD90F82030013B59
:100C6800DBB280F82030D0ED057AF5EEC07AF1EEEF
:100C780010FA33D490F82030DBB280F8203090F8A6
:100C88002030DBB2012B2FD090F82030DBB2042BC0
:100C98002AD090F82030DBB2022B36D090F82030E2
:100CA800DBB2052B31D0C3698360D0ED077AF1EE52
:100CB800677AC0ED037AD0ED057A90ED067A77EE83
:100CC800877AF1EE677AC0ED047A704790F82030A1
:100CD800DBB2B9E790F82030DBB2C2E790F82030F9
:100CE800C3F10703DBB2C8E783698360D0ED057AF7
:100CF80090ED077A77EEC77AC0ED037AD0ED067AE1
:100D0800F1EE677AC0ED047A7047D0ED077A90ED7E
:100D1800067A77EE877AC0ED027A4369C360D0ED30
:100D2800057AF1EE677AC0ED047A7047D7B35D3F74
:100D3800D0ED007A90ED017A77EEC77AC0ED027AAD
:100D4800D0ED037A90ED027A67EE877AC0ED047AE7
:100D5800D0ED0C7A90ED047A67EE877A90ED0D7AF3
:100D6800D0ED0B6A27EE267A77EE877A90ED057A32
:100D780077EE277AC0ED057A90ED057AD0ED057A01
:100D8800B4EE677AF1EE10FA01D1436900E000236E
:100D98004361D0ED047A90ED057A77EE877AC0ED5D
:100DA800077A90ED077AD0ED087AB4EEE77AF1EE9B
:100DB80010FA0ADD036A8362D0ED0A7A90ED077AA9
:100DC80077EEC77AC0ED0B7A704790ED077AD0EDD1
:100DD800097AB4EEE77AF1EE10FA01D5436AEAE748
:100DE800C369E8E7D0ED007A9FED257A67EE877A48
:100DF800C0ED107A90ED107AD0ED017A77EEA77AEF
:100E0800D0ED026A77EEE67AD0ED036A77EEE67AFD
:100E180067EE277AC0ED057A90ED107AD0ED027A68
:100E280077EEA77AD0ED016A77EEE67AD0ED036A1D
:100E380077EEE67A67EE277AC0ED067A037C5BB137
:100E4800D0ED057AF1EE677AC0ED057AD0ED067A35
:100E5800F1EE677AC0ED067A43690362D0ED057A50
:100E68009FED087A67EE877A90ED067ADFED066ADD
:100E780027EE267A77EE877AC0ED097A704700BFA9
:100E8800AAAAAA3E3ACD133F3ACD933F90F826300E
:100E9800002B60D090ED057AD0ED017AB4EEE77AB8
:100EA800F1EE10FA0ADA90ED057AD0ED017AF1EE5A
:100EB800677AB4EEE77AF1EE10FA03D801230370EB
:100EC80080F8243090ED067AD0ED017AB4EEE77A16
:100ED800F1EE10FA0ADA90ED067AD0ED017AF1EE29
:100EE800677AB4EEE77AF1EE10FA04D802230370B9
:100EF800012380F8243090ED077AD0ED027AB4EE21
:100F0800E77AF1EE10FA04DB03230370012380F87B
:100F1800243090ED077AD0ED037AB4EEE77AF1EE5B
:100F280010FA07D890F8253023B105230370012360
:100F380080F8243090ED087AD0ED047AB4EEE77AA0
:100F4800F1EE10FA07DB90F8253023B10423037083
:100F5800012380F82430704790ED047AD0ED047AAC
:100F6800B4EE677AF1EE10FA01D1036900E00023CC
:100F78000361D0ED007A90ED047A77EEC77AC0ED80
:100F8800027A90ED027ADFED3B7AB4EEE77AF1EE81
:100F980010FA12D5D0ED027A9FED377A77EE877A7C
:100FA800C0ED027A90ED037AD0ED037AB4EE677A59
:100FB800F1EE10FA13D1C36812E090ED027ADFED7A
:100FC8002F7AB4EEE77AF1EE10FAEBDDD0ED027A83
:100FD8009FED297A77EEC77AC0ED027AE2E700231F
:100FE800C360D0ED037A90ED027AD0ED056A27EE62
:100FF800267A77EE877A90ED017A67EE877A90ED18
:10100800047A77EE277AC0ED047A90ED047ADFED62
:10101800197AB4EEE77AF1EE10FA18D5D0ED047A21
:101028009FED157A77EE877AC0ED047AD0ED027AD3
:1010380090ED067A67EE877A90ED017A67EE877A07
:1010480090ED037A77EE277AC0ED037A704790ED3A
:10105800047ADFED0A7AB4EEE77AF1EE10FAE5DD0C
:10106800D0ED047A9FED047A77EEC77AC0ED047A62
:10107800DCE700BFDB0F49C0DB0FC940DB0F49408D
:1010880000230370D0ED037A90ED047A77EE877A27
:1010980090ED057A77EE877A9FEDCF7A67EE877ABB
:1010A800C0ED0B7AD0ED037A90ED0B7A77EEC77A24
:1010B800C0ED067AD0ED047A90ED0B7A77EEC77A18
:1010C800C0ED077AD0ED057A90ED0B7A77EEC77A06
:1010D800C0ED087A90F82430DBB2012B12D090F8DA
:1010E8002430002B40F0288190F82530DBB2052B06
:1010F80000F22281DFE813F01901450172019D0118
:10110800CA01F70190F82530DBB2052BE7D8DFE8F4
:1011180003F0032E5985B2DFD0ED087AF5EEC07AD8
:10112800F1EE10FADBDD90ED087AD0ED017A77EE7A
:10113800877AC0ED017AD0ED017AF5EEC07AF1EE4A
:1011480010FA0DD4D0ED017A90ED027AB4EEE77A78
:10115800F1EE10FAC3D50023436001230370BEE704
:10116800D0ED017AF1EE677AC0ED017AECE7D0EDC7
:10117800077AF5EEC07AF1EE10FAB0D590ED077A5D
:10118800D0ED017A77EE877AC0ED017AD0ED017A59
:10119800F5EEC07AF1EE10FA0DD4D0ED017A90EDAB
:1011A800027AB4EEE77AF1EE10FA98D5002343609C
:1011B8000123037093E7D0ED017AF1EE677AC0ED71
:1011C800017AECE7D0ED067AF5EEC07AF1EE10FA86
:1011D80085DD90ED067AD0ED017A77EE877AC0ED5D
:1011E800017AD0ED017AF5EEC07AF1EE10FA0ED45C
:1011F800D0ED017A90ED027AB4EEE77AF1EE10FACA
:101208007FF56DAF002343600123037067E7D0EDDE
:10121800017AF1EE677AC0ED017AEBE7D0ED087A52
:10122800F5EEC07AF1EE10FA7FF559AF90ED087A35
:10123800D0ED017A77EE877AC0ED017AD0ED017AA8
:10124800F5EEC07AF1EE10FA0ED4D0ED017A90EDF9
:10125800027AB4EEE77AF1EE10FA7FF540AF002398
:101268004360012303703AE7D0ED017AF1EE677A23
:10127800C0ED017AEBE7D0ED077AF5EEC07AF1EE32
:1012880010FA7FF72CAF90ED077AD0ED017A77EE60
:10129800877AC0ED017AD0ED017AF5EEC07AF1EEE9
:1012A80010FA0ED4D0ED017A90ED027AB4EEE77A16
:1012B800F1EE10FA7FF513AF0023436001230370AA
:1012C8000DE7D0ED017AF1EE677AC0ED017AEBE730
:1012D800D0ED067AF5EEC07AF1EE10FA7FF5FFAEA2
:1012E80090ED067AD0ED017A77EE877AC0ED017A33
:1012F800D0ED017AF5EEC07AF1EE10FA0ED4D0ED09
:10130800017A90ED027AB4EEE77AF1EE10FA7FF501
:10131800E6AE0023436001230370E0E6D0ED017AD6
:10132800F1EE677AC0ED017AEBE7D0ED087AF5EED9
:10133800C07AF1EE10FA00D4704790ED087AD0ED3B
:10134800017A77EE877AC0ED017AD0ED017AF5EE71
:10135800C07AF1EE10FA0DD4D0ED017A90ED027A50
:10136800B4EEE77AF1EE10FAE6D5002343600123E4
:1013780003707047D0ED017AF1EE677AC0ED017A1B
:10138800ECE7D0ED077AF5EEC07AF1EE10FAD3DD8E
:1013980090ED077AD0ED017A77EE877AC0ED017A81
:1013A800D0ED017AF5EEC07AF1EE10FA0DD4D0ED59
:1013B800017A90ED027AB4EEE77AF1EE10FABBD535
:1013C80000234360012303707047D0ED017AF1EEEA
:1013D800677AC0ED017AECE79FAAAA3ED0ED067ABB
:1013E800F5EEC07AF1EE10FAA6D590ED067AD0EDBA
:1013F800017A77EE877AC0ED017AD0ED017AF5EEC1
:10140800C07AF1EE10FA0DD4D0ED017A90ED027A9F
:10141800B4EEE77AF1EE10FA8ED50023436001238B
:1014280003707047D0ED017AF1EE677AC0ED017A6A
:10143800ECE7D0ED087AF5EEC07AF1EE10FA7FF716
:101448007BAF90ED087AD0ED017A77EE877AC0ED20
:10145800017AD0ED017AF5EEC07AF1EE10FA0ED4E9
:10146800D0ED017A90ED027AB4EEE77AF1EE10FA57
:101478007FF562AF00234360012303707047D0ED0E
:10148800017AF1EE677AC0ED017AEBE7D0ED077AE1
:10149800F5EEC07AF1EE10FA7FF54EAF90ED077ACF
:1014A800D0ED017A77EE877AC0ED017AD0ED017A36
:1014B800F5EEC07AF1EE10FA0ED4D0ED017A90ED87
:1014C800027AB4EEE77AF1EE10FA7FF535AF002331
:1014D8004360012303707047D0ED017AF1EE677A1B
:1014E800C0ED017AEBE7D0ED067AF5EEC07AF1EEC1
:1014F80010FA7FF721AF90ED067AD0ED017A77EEFA
:10150800877AC0ED017AD0ED017AF5EEC07AF1EE76
:1015180010FA0ED4D0ED017A90ED027AB4EEE77AA3
:10152800F1EE10FA7FF508AF002343600123037042
:1015380002E7D0ED017AF1EE677AC0ED017AEBE7C8
:1015480010B50446D0ED066AD0ED000A66EEA06A32
:1015580090ED067A90ED010A27EE007A90ED056A83
:1015680090ED004A26EE044AD0ED057AD0ED014A06
:1015780067EEA44AD0ED047AD0ED045A67EEA55A76
:10158800D0ED077A77EEE67A90ED076A36EE666A6E
:1015980067EE867A90ED095A35EE475A90ED096A5A
:1015A80036EE476A25EE065A77EE857A75EEE77AC3
:1015B800C0ED0B7A90ED026A36EE446AD0ED0E5A11
:1015C800D0ED077A77EEE67A65EEA75AD0ED0B7A7A
:1015D80065EEA75A36EE256AD0ED037A77EEE47AFF
:1015E800D0ED0E5A90ED095A35EE475A65EE855AF8
:1015F80090ED0B5A65EE855A77EEA57AD0ED0C5A28
:1016080065EE865A90ED076A36EE256A80ED076A20
:1016180090ED0C6A26EE276AD0ED097A77EE867A85
:10162800C0ED097A90ED076AD0ED077AB4EE676AE3
:10163800F1EE10FA01D1C36900E00023E36194EDF3
:10164800096AD4ED097AB4EE676AF1EE10FA01D1AD
:10165800636A00E00023636294ED090AD4ED070A87
:1016680070EEE60A30EE470A0DF020F984ED0D0A17
:1016780010BD000010B50446D0ED057A90ED047A4F
:1016880067EE877AD0ED036A90ED007A90ED016AF3
:1016980037EE467A90ED026A37EE467A26EE877A7A
:1016A80077EE877AC0ED047AD0ED057A90ED097A65
:1016B80067EE877AD0ED036A90ED067A90ED076AB7
:1016C80037EE467A90ED086A37EE467A26EE877A44
:1016D80077EE877AC0ED097AD0ED047A90ED0A7A30
:1016E80077EEC77AC0ED0B7AD0ED097A90ED0D7AD6
:1016F80077EEC77AC0ED0E7A90ED0B7AD0ED117ABD
:10170800B4EEE77AF1EE10FA40F3CF8090ED117A5B
:10171800D4ED0C7A77EEA77A67EE877AC4ED027A71
:1017280094ED0E7AD4ED117AB4EEE77AF1EE10FA70
:1017380040F3CE8094ED117AD4ED0C7A77EEA77A47
:1017480067EE877AC4ED087A94ED127AF7EE006AAC
:10175800C6EE877AC4ED137AA368E365D4ED137AED
:101768009FED657A77EE877AC7EE276AC4ED1A6A25
:10177800D4ED1A7AD4ED176A94ED196A76EEC66A32
:1017880067EEA67AD4ED196A77EEA67AC4ED197ACF
:10179800D4ED136AD4ED137A77EE877A86EEA77ABA
:1017A80084ED1E7A94ED197ADFED545A37EE257AD6
:1017B80084ED1B7A94ED1E7AD4ED1D6A94ED1B6AB4
:1017C800D4ED1C7A36EE676A76EE866A27EE267ABC
:1017D80084ED1D7AE36E2367D4ED1D7A77EEA77A40
:1017E800C4ED147A236AE367A36EC4F88830D4ED95
:1017F800227A94ED1F7AD4ED216A37EE667A67EE85
:10180800877A94ED217A77EE877AC4ED217AA36FEF
:10181800C4F89830D4ED217A77EEA57AC4ED237A0E
:10182800D4ED267A94ED257AD4ED236A94ED246AD2
:1018380076EEC66A37EE267A67EE877AC4ED257AA1
:10184800D4F88C30C4F89030D4ED257A77EEA77AA6
:10185800C4ED157AD4ED017A94ED0F7AD4ED026ACD
:1018680094ED016A76EEC66A27EE267A77EE877AD5
:10187800C4ED017AD4ED077A94ED0F7AD4ED086AB5
:1018880094ED076A76EEC66A27EE267A77EE877AAF
:10189800C4ED077A94ED140AD4ED150AB1EE400AA6
:1018A8000DF004F884ED100A10BD90ED0B7AD0ED20
:1018B800117AF1EE677AB4EEE77AF1EE10FA04D510
:1018C800D0ED117AB1EE677A22E790ED0B7A1FE737
:1018D80094ED0E7AD4ED117AF1EE677AB4EEE77AE8
:1018E800F1EE10FA04D5D4ED117AB1EE677A23E758
:1018F80094ED0E7A20E700BF6F12033808E53C1E0E
:1019080030B583B0584B1A6E42F001021A661A6E4F
:1019180002F001020192019A9A6D42F080529A6592
:101928009A6D02F080520092009A5048C16821F4E2
:10193800E0610904090C4E4A0A43C2604D498A68AD
:1019480022F480428A604C48026822F00F0242F07A
:1019580008020260D1F8802022F48072C1F8802049
:101968001A6842F480321A603F4B1B6813F4003F38
:10197800FAD03D4BD968414A0A4042F4884242F0C5
:101988001302DA60DA683E4911403E4A0A43DA60D7
:10199800DA6842F08072DA60DA6842F48032DA603B
:1019A8001A6842F080721A602F4B1B6813F0007F90
:1019B800FAD02D4A936843F003039360936823F0A9
:1019C800F00343F080039360274B9B6803F00C03FC
:1019D8000C2BF9D12C4AD36843F08073D3602B4B7E
:1019E8001A6842F001021A6000225A60274B5B68AD
:1019F800632BFBD91C4CA36823F0F003A360A368F6
:101A080023F4E063A360A36823F46053A360204D2C
:101A180028460CF0BDF91F4A136843F0040313600D
:101A280028460CF0DBF9D4F8883023F00C0343F097
:101A38000403C4F88830D4F8883023F44023C4F869
:101A48008830D4F8883023F0405343F08053C4F8EA
:101A58008830D4F8883023F0404343F08043C4F8FA
:101A6800883003B030BD00BF0010024000ED00E038
:101A78000003FA0500700040002002400C80FFF9C6
:101A88000C80FF0713440018F0ED00E0001000E0A0
:101A980080FE210A10E000E008B5204B93F8FC32E4
:101AA800DBB2012B04D01D4B93F8FC32EBB108BD1F
:101AB80007F0B2FF08F05EF908F056FA08F09CFE4D
:101AC8000BF0E6FF0CF0D8FD0CF02EFE0CF01AFD22
:101AD8000CF0FEF808F03AFD0CF0ECFC0CF0FEFC03
:101AE8000CF008FD08F0C6F8DDE707F095FF08F0F0
:101AF8001BFB08F02BFC0AF085FA0BF0C9FF0CF071
:101B0800BBFD0CF0FFFC0CF0E3F808F01FFD0CF037
:101B1800D1FC0CF0E3FC08F02DF8C8E70000002029
:101B280008B5FFF7EDFEDB4BDB4AC3F89C20D3ED8D
:101B3800277AF6EE008A67EEA87AC3ED287AD74AA4
:101B48009A64D74AC3F88020D64A9A67D64ADA6791
:101B5800B7EE008A83ED188AD44A9A65D44AC3F846
:101B6800A420D44ADA6593ED1E7AC8EE077AC3ED4D
:101B78002A7A93ED1F7AC8EE077AC3ED2B7AD3F849
:101B8800A420C3F884200022C3F888205A669A66E5
:101B9800DA649A62DA62C84C012384F8FC320022C3
:101BA80084F8FE2284F8FD32C44AC4F80C23C44ADF
:101BB800C4F81423C349C4F81813C349C4F81C1340
:101BC800C249C4F820134FF08141C4F83413C04906
:101BD800C4F82413BF49C4F82813D4F82813C4F848
:101BE8002C13BD49C4F83013022184F8FF1284F87D
:101BF8006233C4F84023B94BC4F84433B84BC4F833
:101C08004833B84BC4F84C33B74BB84A1A60B84A93
:101C18005A60B84A9A60B84ADA60B84920460BF068
:101C2800D5FED4EDC36A9FEDB67AC6EE877AFCEE90
:101C3800E77AC4EDCE7AD4EDC37A88EE277AD4F861
:101C48003833013307EE903AF8EE677A67EE277A71
:101C5800C4EDC47AD4EDC47A9FEDAA7A67EE877A88
:101C6800C4ED377AA84BC4F8EC32A84BC4F8D83086
:101C7800A74BA361A74B63624FF07853C4F82C318C
:101C8800A54BC4F85031C4ED558A94F8FC32DBB248
:101C9800012B00F0D881DFEDA17A874BC3ED517A93
:101CA80093F8FC32DBB2012B00F0D2814FF07E5268
:101CB800814BC3F840214FF07852C3F86C21964A03
:101CC800C3F890214FF07C52C3F8942193F8FC326A
:101CD800DBB2012B00F0C081DFED907A764BC3EDCB
:101CE800617A93F8FC32DBB2012B00F0BB814FF034
:101CF8007E52714BC3F8802193EDC47AF7EE006AE7
:101D0800C6EE877A9FED867A67EE877A9FED7D7AB1
:101D180067EE877A93EDCA7A27EE877A83ED5B7A46
:101D280083ED4B7A93EDC97A67EE877A93EDC47A9F
:101D380067EE877AC3ED647AC3ED547A93ED4B7AF4
:101D4800C6EE877AC3ED557A93ED5B7AC6EE877A4D
:101D5800C3ED657A93F8FC32DBB2012B00F0868183
:101D6800704A554BC3F8AC2193F8FC32DBB2012B17
:101D780000F07E816C4A504BC3F8D02193ED6B7A0A
:101D8800F7EE006AC6EE877AC3ED757A93F8FC32EF
:101D9800DBB2012B00F06E81DFED607A464BC3EDBC
:101DA800717A93F8FC32DBB2012B00F06B81DFED26
:101DB8005F7A414CC4ED707AD4EDC97AF1EE677A56
:101DC800D4EDCA6A87EEA67AD4EDC47A67EE277A8C
:101DD80017EE900AFEF760FB41EC100B0CF068FF61
:101DE80051EC100BFEF772FEC4F8F401D4EDC96A89
:101DF800F7EE007A87EEA67AD4ED7D6A77EEE67A7A
:101E080067EE277AC4ED7B7A494BC4F8103294ED1B
:101E1800C97AF7EE086A27EE267A84EDA47AD4ED1B
:101E2800CA7A67EEA67AC4EDA57AD4EDCC7A9FED8E
:101E3800417A67EE877A94EDCD7A67EE877ADFED9F
:101E48003E6A86EEA77A84EDA37AD4F81033C4F8F4
:101E5800AC3294EDA37AD4EDA37A27EE277ADFED9E
:101E6800376AC6EE877AB6EE007A67EE877AC4EDEF
:101E7800AD7AD4F81033C4F8C833314BC4F8D8332A
:101E88000E4BC4F8DC3394EDD07AD4EDC57AB4EEB9
:101E9800E77A57E01846002017B751380000C041CC
:101EA80048E1BA3FE71DA73BCA54C13B9C5349369A
:101EB800B1BFAC3D83A8FB37000000200060EA46B4
:101EC800000048429A998A420000F0426C09F93AA7
:101ED800B81EC53F6F12033B0000874300008242D3
:101EE8000AD71F410000B442F445002000401C46B8
:101EF80000E092450000C84100E076450C0500204E
:101F080033409C46DB0FC9403333733F0000A04188
:101F18000000204100803B45CDCCCC3C00000000B7
:101F2800B81E853D0AD7233C6F12033AA4707D3F43
:101F38001FE7073FEF1F2E410000704200007A4460
:101F48000000FA44F1EE10FA40F3A480D4F8142308
:101F5800644BC3F8402393EDD17AD3EDC67AB4EE3F
:101F6800E77AF1EE10FA40F39980D3F818235D4B25
:101F7800C3F84423D3EDC46AD3EDC47A9FED5A7AEB
:101F880077EE877A86EEA77A83EDE87AD3F8A023EE
:101F9800C3F8B023D3F8A023C3F8C023534AC3F827
:101FA8006C23534AC3F8EC209FED526A83ED3E6AD6
:101FB800D3EDC45AD3EDC46ADFED4F7A76EEA76A43
:101FC80085EEA67A83EDFF7AD3EDC46A93EDC47AE1
:101FD80037EE277AC6EE877A03F20C42C2ED007A12
:101FE800D3EDC46AD3EDC47A77EE867A86EEA77A03
:101FF80003F21C4282ED007A93EDC46A93EDC47A31
:10200800DFED3E6A37EE267AC6EE077A03F24C42D7
:10201800C2ED007A93EDC46AD3EDC47A77EEA67A5E
:1020280086EE277A03F25C4282ED007A344AC3F8DE
:10203800EC2303F22C410A6003F23C43314A1A6054
:10204800FFF72AFD3FE0D4EDC67AF1EE677A24E681
:10205800244BD3F818232BE6224BD3EDC67AF1EEA6
:10206800677A3BE61F4BD3F8182342E6264A78E600
:10207800264A80E61B4BD3EDD07A9FED257A67EE92
:10208800C77A8BE6174BD3EDD07A9FED217A67EEAE
:10209800877A8EE6134BD3F8402359E7114BD3F8D0
:1020A800442364E7BFF34F8F1A49CA6802F4E06219
:1020B800194B1343CB60BFF34F8F00BFFDE71749A0
:1020C80008480BF019FC164B1B78002BEAD1054B7E
:1020D8009B78DBB2042BF2D0104B5B7BDBB2022B7C
:1020E800F1D1ECE700000020899BD03A17B7D1382E
:1020F8000000AF43CDCCCC3D0AD7A33BCDCC4C3E62
:10210800320C433DABAAAA3ECDCCCC3C6F12833AED
:102118006666663F00ED00E00400FA050C05002045
:102128009C05002000000000F8B52DED028BCE4B79
:102138005A68CE4B1A6040234FF0A042136002F554
:1021480080721360CA4BD3F8B4200132C3F8B420AC
:10215800D3F8B8200132C3F8B820D3F8BC20013234
:10216800C3F8BC20D3F8B420D3EDC37AC14B93EDA8
:10217800007A67EE877AFCEEE77A17EE903A9A4291
:1021880008D3BD4A536983F480435361B84B002296
:10219800C3F8B420B64B93F8FC32002B42F01981F7
:1021A8004FF0A042D2F88010B44B5960D2F8841096
:1021B8009960D2F888101960D2F88C209A61B04AD8
:1021C800D2F88810D960D2F880101961D2F884103A
:1021D8005961D2F88C20DA61A54B5B78DBB2052B0C
:1021E80002F2FD80DFE813F006002602D4054E094E
:1021F800340DEA109F4BA34A1A60A04AD368A3F291
:10220800FF7307EE903AF8EEE77A9FED9F7A67EE54
:10221800877A974CD4EDC66A67EEA67AC4EDE57A5C
:102228001369A3F2FF7307EE903AF8EEE77A67EEC8
:10223800877AD4EDC66A67EEA67AC4EDE97A53695F
:10224800A3F2FF7307EE903AF8EEE77A67EE877A23
:10225800D4EDC66A67EEA67AC4EDED7AD2ED067AB9
:10226800F8EEE77A67EE877AD4EDC66A67EEA67A63
:10227800C4EDAE7AD2ED007AF8EEE77A67EE877AA7
:10228800D4EDC56A67EEA67AC4ED317AD2ED017A4B
:10229800F8EEE77A67EE877AD4EDC56A67EEA67A34
:1022A800C4ED327AD2ED027AF8EEE77A67EE877AF1
:1022B80094EDC57A67EE877AC4ED337AD4EDE87A7F
:1022C80094EDE57AD4EDE76A37EE667A67EE877AB9
:1022D80094EDE77A77EE877AC4EDE77AD4EDEC7A75
:1022E80094EDE97AD4EDEB6A37EE667A67EE877A91
:1022F80094EDEB7A77EE877AC4EDEB7AD4EDF07A49
:1023080094EDED7AD4EDEF6A37EE667A67EE877A68
:1023180094EDEF7A77EE877AC4EDEF7A0023C4F86C
:10232800E8300122E270C4F8A031C4F8B431C4F82E
:10233800BC31C4F8F03094F88933DBB207EE903A38
:10234800F8EE677A9FED517A67EE877A77EE877AAB
:102358009FED4F7A77EE677AC4ED387AD4F8E0309B
:10236800C4F8C433D4F87C3404F571709847D4EDBC
:10237800397AFCEEE77A17EE903AD4ED397AFCEE2A
:10238800E77A17EE901A94F88923D2B2052A02F256
:102398002680DFE812F0060037008500B600E70067
:1023A80018013C4AD2F8980340F0C000C2F89803DC
:1023B800D2F8940340F03300C2F894035D184FF448
:1023C800003292FAA2F2B2FA82F2103AD2B232484B
:1023D800324C34F812608259120C12042A4382518A
:1023E8005B1A4FF4002292FAA2F2B2FA82F2103A81
:1023F800D2B234F812104258120C1204134343504C
:1024080001F0EDBF234AD2F8980340F03000C2F83B
:102418009803D2F8940340F0C300C2F894035D18FF
:102428004FF4003292FAA2F2B2FA82F2103AD2B221
:1024380019481A4C34F812608259120C12042A43B3
:1024480082515B1A4FF4801292FAA2F2B2FA82F227
:10245800103AD2B234F812104258120C1204134334
:10246800435001F0BCBF00BF001000E0144600203C
:10247800000000209805002000080048E4460020DD
:10248800000100500AD7233CF8078039920A863F9A
:10249800DB0F4940006801401C68014068F80008EB
:1024A800614AD2F8980340F00300C2F89803D2F8C2
:1024B800940340F0F000C2F894035D184FF4002232
:1024C80092FAA2F2B2FA82F2103AD2B25748584CB3
:1024D80034F812608259120C12042A4382515B1A92
:1024E8004FF4801292FAA2F2B2FA82F2103AD2B201
:1024F80034F812104258120C12041343435001F0DE
:102508006EBF494AD2F8980340F0C000C2F8980359
:10251800D2F8940340F03300C2F894035D1A4FF4E4
:10252800003292FAA2F2B2FA82F2103AD2B23F48DC
:102538003F4C34F812608259120C12042A4382511B
:102548000B444FF4002292FAA2F2B2FA82F2103A45
:10255800D2B234F812104258120C120413434350EA
:1025680001F03DBF304AD2F8980340F03000C2F87D
:102578009803D2F8940340F0C300C2F894035D1A9C
:102588004FF4003292FAA2F2B2FA82F2103AD2B2C0
:102598002648274C34F812608259120C12042A4338
:1025A80082510B444FF4801292FAA2F2B2FA82F2EC
:1025B800103AD2B234F812104258120C12041343D3
:1025C800435001F00CBF184AD2F8980340F00300BA
:1025D800C2F89803D2F8940340F0F000C2F89403CC
:1025E8005D1A4FF4002292FAA2F2B2FA82F2103A7D
:1025F800D2B20E480E4C34F812608259120C1204F2
:102608002A4382510B444FF4801292FAA2F2B2FA92
:1026180082F2103AD2B234F812104258120C120454
:102628001343435001F0DBBE006801401C680140C1
:1026380068F80008D64C0023C4F8B8302371D54A8E
:10264800D368A3F2FF7307EE103AB8EEC77ADFED4E
:10265800D26A27EE267AD4EDC67A27EE277A84ED59
:10266800E57A1369A3F2FF7307EE103AB8EEC77A5A
:1026780027EE267AD4EDC67A27EE277A84EDE97A12
:102688005369A3F2FF7307EE103AB8EEC77A27EE44
:10269800267AD4EDC67A27EE277A84EDED7AD2ED44
:1026A800067AF8EEE77A67EEA67A94EDC67A67EED0
:1026B800877AC4EDAE7A92ED007AB8EEC77A27EE43
:1026C800267AD4EDC57A27EE277AD4ED317A37EE1B
:1026D800677A84ED0B7A92ED017AB8EEC77A27EE25
:1026E800267AD4EDC57A27EE277AD4ED327A37EEFA
:1026F800677A84ED0C7AD2ED027AF8EEE77A67EE23
:10270800A67A94EDC57A67EE877A94ED337A77EEF8
:10271800C77AC4ED0D7AD4ED0B7A94ED0B0A67EE07
:10272800807A94ED0C0A94ED0C7A20EE070A77EE85
:10273800807A94ED0D0A94ED0D7A20EE070A37EEB3
:10274800800A0CF041FCDFED957A20EE270A84ED33
:102758000E0AA36BC4F8E033D4EDFB7A94EDF87A53
:10276800D4EDFA6A37EE667A67EE877A94EDFA7AEC
:1027780077EE877AC4EDFA7AD4F8E833E363D4EDD8
:10278800E87A94EDE57AD4EDE76A37EE667A67EE93
:10279800877A94EDE77A77EE877AC4EDE77AD4ED15
:1027A800EC7A94EDE97AD4EDEB6A37EE667A67EE67
:1027B800877A94EDEB7A77EE877AC4EDEB7AD4EDED
:1027C800F07A94EDED7AD4EDEF6A37EE667A67EE3B
:1027D800877A94EDEF7A77EE877AC4EDEF7AD4F8BA
:1027E8009C33C4F87033D4F8AC33C4F87433D4F8D9
:1027F800BC33C4F87833D4F8743404F55970984766
:1028080094F88933DBB207EE903AF8EE677A9FEDD9
:10281800647A67EE877A77EE877A9FED627A77EE49
:10282800677AC4ED387AD4F8E030C4F8C433D4F801
:102838007C3404F57170984794ED0F7ADFED5A7A7D
:10284800B4EEE77AF1EE10FA08DC94EDF47AF2EEE1
:10285800047AB4EEE77AF1EE10FA03D5534B4FF051
:102868007C521A604A4B93EDF47AF2EE047AB4EE95
:10287800E77AF1EE10FA71DD4C4B4D4A1A60444B81
:10288800DB78DBB2012B6ED0414BD3F8F020404B04
:10289800C3F8F02093ED3C7AD3ED3D7AD3EDC46ACA
:1028A80077EEE67AB4EEE77AF1EE10FA0BD5D3EDCF
:1028B800C47AB5EE007A27EE877AD3ED3C7A77EEC4
:1028C800877AC3ED3C7A324B93ED3C7AD3ED3D7A6F
:1028D800D3EDC46A77EEA67AB4EEE77AF1EE10FA91
:1028E8000BDDD3EDC47AB5EE007A27EE877AD3ED07
:1028F8003C7A77EEC77AC3ED3C7A254BD3F8B820FB
:10290800D3EDC37A9FED2B7A67EE877AFCEEE77AF0
:1029180017EE903A9A4205D91D4B0022C3F8B82009
:1029280004225A701A4B93F8643323B9184BDB7896
:10293800DBB2012B44D1164B0022DA7093F88833AE
:10294800DBB2012B13D0124B93F88933002B33D011
:102958000F4B93F88933013BDBB22EE0134B4FF05A
:102968007E521A608BE70A4BD3F8F8208FE7084BA2
:1029780093F88933DBB2042B08D8054B93F88933D5
:102988000133DBB2024A82F8893319E00023F9E700
:1029980000000020E4460020F80780399FAA2A3F5B
:1029A800920A863FDB0F4940CDCC4C3E980500206B
:1029B800CDCC4C3ECDCCCC3D0523C04A82F88933E2
:1029C800BE49D1ED397AFCEEE77A17EE903AD1EDAF
:1029D800397A91ED3C7A67EE877AFCEEE77A17EE62
:1029E800902A91F88913C9B2052936D8DFE811F081
:1029F8000600D600060136017001A001B049D1F8E1
:102A0800980340F0C000C1F89803D1F8940340F04F
:102A18003300C1F894039D184FF4003191FAA1F1E5
:102A2800B1FA81F11039C9B2A648A74C34F811603F
:102A38008159090C0904294381519B1A4FF400223A
:102A480092FAA2F2B2FA82F2103AD2B234F8121022
:102A58004258120C1204134343509849D1F870039A
:102A68009A4B03F58042906391F86423D2B207EE43
:102A7800902AF8EE677A03F58042C2ED0F7AD1F812
:102A8800900303F580421064D1F8681303F580427F
:102A980051641B78002B35D08C4B9A6803F5804124
:102AA800383109680A3203EB820211609A6803F52B
:102AB80080413C31096802F20A4203EB820211604C
:102AC8009A6803F580414031096802F60A0203EB6F
:102AD800820211609A6803F580414431096802F660
:102AE8000A4203EB820211609A6801329A609A687E
:102AF80040F2FE339A4205D9744B01225A700022E3
:102B08001A709A60714B5B78002B01F068846F4BE8
:102B1800DA689B889BB29A4228D36C4B9A680A322F
:102B280003EB8202116803F5804291629A6802F20F
:102B38000A4203EB8202116803F58042D1629A6867
:102B480002F60A0203EB8202116803F58042116360
:102B58009A6802F60A4203EB8202116803F5804282
:102B680051630022DA609A6801329A60574BDA683A
:102B78000132DA609A6840F2FE339A4241F22F84B9
:102B8800524B00225A709A60DA609B78002B01F051
:102B980026844E4B01221A7001F021BC4849D1F815
:102BA800980340F03000C1F89803D1F8940340F03E
:102BB800C300C1F894039D184FF4003191FAA1F1B4
:102BC800B1FA81F11039C9B23E483F4C34F811606E
:102BD8008159090C0904294381519B1A4FF4801229
:102BE80092FAA2F2B2FA82F2103AD2B234F8121081
:102BF8004258120C1204134343502EE73049D1F8BF
:102C0800980340F00300C1F89803D1F8940340F00A
:102C1800F000C1F894039D184FF4002191FAA1F136
:102C2800B1FA81F11039C9B22648274C34F811603D
:102C38008159090C0904294381519B1A4FF48012C8
:102C480092FAA2F2B2FA82F2103AD2B234F8121020
:102C58004258120C120413434350FEE61849D1F8A7
:102C6800980340F0C000C1F89803D1F8940340F0ED
:102C78003300C1F894039D1A4FF4003191FAA1F181
:102C8800B1FA81F11039C9B20E480F4C34F811600D
:102C98008159090C09042943815113444FF4002236
:102CA80092FAA2F2B2FA82F2103AD2B234F81210C0
:102CB8004258120C120413434350CEE60000002081
:102CC800006801401C68014068F80008AC05002055
:102CD800DD49D1F8980340F03000C1F89803D1F8E5
:102CE800940340F0C300C1F894039D1A4FF40031D7
:102CF80091FAA1F1B1FA81F11039C9B2D348D44C93
:102D080034F811608159090C09042943815113448D
:102D18004FF4801292FAA2F2B2FA82F2103AD2B2C8
:102D280034F812104258120C12041343435094E61C
:102D3800C549D1F8980340F00300C1F89803D1F8C9
:102D4800940340F0F000C1F894039D1A4FF4002159
:102D580091FAA1F1B1FA81F11039C9B2BB48BC4C62
:102D680034F811608159090C09042943815113442D
:102D78004FF4801292FAA2F2B2FA82F2103AD2B268
:102D880034F812104258120C12041343435064E6EC
:102D9800B04AD368A3F2FF7307EE103AB8EEC77AC9
:102DA800DFEDAD6A27EE267AAC4CD4EDC67A27EE75
:102DB800277A84EDE57A1369A3F2FF7307EE103AD8
:102DC800B8EEC77A27EE267AD4EDC67A27EE277AA8
:102DD80084EDE97A5369A3F2FF7307EE103AB8EE6F
:102DE800C77A27EE267AD4EDC67A27EE277A84EDBD
:102DF800ED7AD2ED067AF8EEE77A67EEA67A94EDE8
:102E0800C67A67EE877AC4EDAE7A92ED007AB8EEAC
:102E1800C77A27EE267AD4EDC57A27EE277AD4ED3D
:102E2800317A37EE677A84ED0B7A92ED017AB8EE53
:102E3800C77A27EE267AD4EDC57A27EE277AD4ED1D
:102E4800327A37EE677A84ED0C7AD2ED027AF8EEB0
:102E5800E77A67EEA67A94EDC57A67EE877A94EDFD
:102E6800337A77EEC77AC4ED0D7AD4ED0B7A94ED08
:102E78000B0A67EE807A94ED0C0A94ED0C7A20EE3A
:102E8800070A77EE807A94ED0D0A94ED0D7A20EE1C
:102E9800070A37EE800A0CF097F8DFED717A20EE1A
:102EA800270A84ED0E0AA36BC4F8E033D4EDFB7A4D
:102EB80094EDF87AD4EDFA6A37EE667A67EE877A97
:102EC80094EDFA7A77EE877AC4EDFA7AD4F8E83393
:102ED800E363D4EDE87A94EDE57AD4EDE76A37EE6A
:102EE800667A67EE877A94EDE77A77EE877AC4EDAB
:102EF800E77AD4EDEC7A94EDE97AD4EDEB6A37EE23
:102F0800667A67EE877A94EDEB7A77EE877AC4ED86
:102F1800EB7AD4EDF07A94EDED7AD4EDEF6A37EEF2
:102F2800667A67EE877A94EDEF7A77EE877AC4ED62
:102F3800EF7AD4F89C33C4F87033D4F8AC33C4F8BF
:102F48007433D4F8BC33C4F87833D4F8743404F543
:102F58005970984794F88933DBB207EE903AF8EE47
:102F6800677A9FED407A67EE877A77EE877A9FEDEA
:102F78003E7A77EE677AC4ED387AD4F8E030C4F850
:102F8800C433D4F87C3404F57170984794ED0F7A03
:102F9800DFED367AB4EEE77AF1EE10FA08DC94ED5C
:102FA800F47AF2EE047AB4EEE77AF1EE10FA03D589
:102FB8002F4B4FF07C521A60284B93EDF47AF2EEC7
:102FC800047AB4EEE77AF1EE10FA37DD284B294A95
:102FD8001A60224B93ED3A7AD3ED3B7AB4EEE77A56
:102FE800F1EE10FA0BDBD3EDC47A9FED237A27EECE
:102FF800877AD3ED3A7A77EEC77AC3ED3A7A174BE8
:10300800D3F8B820D3ED3A7AFCEEE77A17EE903A87
:103018009A4248D3114B0022C3F8B82093F888335A
:10302800DBB2012B2AD00D4B93F88933002B36D015
:103038000A4B93F88933013BDBB231E00C4B4FF07C
:103048007E521A60C5E700BF006801401C68014055
:1030580068F80008E4460020F807803900000020DE
:103068009FAA2A3F920A863FDB0F4940CDCC4C3EAF
:1030780098050020CDCC4C3E0000FA43B14B93F8A4
:103088008933DBB2042B08D8AE4B93F8893301336C
:10309800DBB2AC4A82F8893305E00023F9E705235F
:1030A800A84A82F88933A749D1ED397AFCEEE77A44
:1030B80017EE903AD1ED397A91ED3C7A67EE877A3E
:1030C800FCEEE77A17EE902A91F88913C9B2052920
:1030D80036D8DFE811F00600D6000601410171017B
:1030E800A1019949D1F8980340F0C000C1F89803AC
:1030F800D1F8940340F03300C1F894039D184FF4BD
:10310800003191FAA1F1B1FA81F11039C9B28F48B1
:103118008F4C34F811608159090C090429438151F5
:103128009B1A4FF4002292FAA2F2B2FA82F2103AF3
:10313800D2B234F812104258120C120413434350FE
:103148008049D1F87003834B03F58042906391F86E
:103158006423D2B207EE902AF8EE677A03F580422C
:10316800C2ED0F7AD1F8900303F580421064D1F8CC
:10317800681303F5804251641B78002B35D0754BDA
:103188009A6803F58041383109680A3203EB8202F4
:1031980011609A6803F580413C31096802F20A42DD
:1031A80003EB820211609A6803F580414031096897
:1031B80002F60A0203EB820211609A6803F5804165
:1031C8004431096802F60A4203EB820211609A68E8
:1031D80001329A609A6840F2FE339A4205D95D4BF3
:1031E80001225A7000221A709A605A4B5B78002BA1
:1031F80001F0F580574BDA689B889BB29A4228D336
:10320800544B9A680A3203EB8202116803F5804234
:1032180091629A6802F20A4203EB8202116803F58E
:103228008042D1629A6802F60A0203EB82021168B0
:1032380003F5804211639A6802F60A4203EB8202A0
:10324800116803F5804251630022DA609A680132FE
:103258009A60404BDA680132DA609A6840F2FE33CD
:103268009A4241F2BC803B4B00225A709A60DA6065
:103278009B78002B01F0B380364B01221A7001F0C5
:10328800AEB83149D1F8980340F03000C1F898033E
:10329800D1F8940340F0C300C1F894039D184FF48B
:1032A800003191FAA1F1B1FA81F11039C9B2274878
:1032B800274C34F811608159090C090429438151BC
:1032C8009B1A4FF4801292FAA2F2B2FA82F2103AE2
:1032D800D2B234F812104258120C1204134343505D
:1032E8002EE71949D1F8980340F00300C1F8980374
:1032F800D1F8940340F0F000C1F894039D184FF4FE
:10330800002191FAA1F1B1FA81F11039C9B20F483F
:103318000F4C34F811608159090C09042943815173
:103328009B1A4FF4801292FAA2F2B2FA82F2103A81
:10333800D2B234F812104258120C120413434350FC
:10334800FEE600BF00000020006801401C68014044
:1033580068F80008AC0500204749D1F8980340F008
:10336800C000C1F89803D1F8940340F03300C1F8C5
:1033780094039D1A4FF4003191FAA1F1B1FA81F149
:103388001039C9B23D483E4C34F811608159090CD6
:1033980009042943815113444FF4002292FAA2F2FE
:1033A800B2FA82F2103AD2B234F812104258120C21
:1033B800120413434350C3E62F49D1F8980340F051
:1033C8003000C1F89803D1F8940340F0C300C1F865
:1033D80094039D1A4FF4003191FAA1F1B1FA81F1E9
:1033E8001039C9B22548264C34F811608159090CA6
:1033F80009042943815113444FF4801292FAA2F22E
:10340800B2FA82F2103AD2B234F812104258120CC0
:1034180012041343435093E61749D1F8980340F038
:103428000300C1F89803D1F8940340F0F000C1F804
:1034380094039D1A4FF4002191FAA1F1B1FA81F198
:103448001039C9B20D480E4C34F811608159090C75
:1034580009042943815113444FF4801292FAA2F2CD
:10346800B2FA82F2103AD2B234F812104258120C60
:1034780012041343435063E6006801401C6801408E
:1034880068F80008DB4AD368A3F2FF7307EE103A26
:10349800B8EEC77ADFEDD86A27EE267AD74CD4ED96
:1034A800C67A27EE277A84EDE57A1369A3F2FF73CB
:1034B80007EE103AB8EEC77A27EE267AD4EDC67A28
:1034C80027EE277A84EDE97A5369A3F2FF7307EEB2
:1034D800103AB8EEC77A27EE267AD4EDC67A27EEE8
:1034E800277A84EDED7AD2ED067AF8EEE77A67EE80
:1034F800A67A94EDC67A67EE877AC4EDAE7A92ED35
:10350800007AB8EEC77A27EE267AD4EDC57A27EE88
:10351800277AD4ED317A37EE677A84ED0B7A92ED1B
:10352800017AB8EEC77A27EE267AD4EDC57A27EE67
:10353800277AD4ED327A37EE677A84ED0C7AD2EDB9
:10354800027AF8EEE77A67EEA67A94EDC57A67EE26
:10355800877A94ED337A77EEC77AC4ED0D7AD4ED95
:103568000B7A94ED0B0A67EE807A94ED0C0A94EDD1
:103578000C7A20EE070A77EE807A94ED0D0A94ED26
:103588000D7A20EE070A37EE800A0BF01DFDDFEDFD
:103598009C7A20EE270A84ED0E0AA36BC4F8E03368
:1035A800D4EDFB7A94EDF87AD4EDFA6A37EE667AC0
:1035B80067EE877A94EDFA7A77EE877AC4EDFA7A2D
:1035C800D4F8E833E363D4EDE87A94EDE57AD4ED02
:1035D800E76A37EE667A67EE877A94EDE77A77EEF0
:1035E800877AC4EDE77AD4EDEC7A94EDE97AD4EDF4
:1035F800EB6A37EE667A67EE877A94EDEB7A77EEC8
:10360800877AC4EDEB7AD4EDF07A94EDED7AD4EDC7
:10361800EF6A37EE667A67EE877A94EDEF7A77EE9F
:10362800877AC4EDEF7AD4F89C33C4F87033D4F8B1
:10363800AC33C4F87433D4F8BC33C4F87833D4F852
:10364800743404F55970984794F88933DBB207EE5F
:10365800903AF8EE677A9FED6B7A67EE877A77EEA5
:10366800877A9FED697A77EE677AC4ED387AD4F86D
:10367800E030C4F8C433D4F87C3404F5717098474A
:1036880094ED0F7ADFED617AB4EEE77AF1EE10FA95
:1036980008DC94EDF47AF2EE047AB4EEE77AF1EE0F
:1036A80010FA03D55A4B4FF07C521A60534B93EDE6
:1036B800F47AF2EE047AB4EEE77AF1EE10FA40F317
:1036C800AD80534B534A1A604C4BDB78DBB2012B6D
:1036D80000F0A980494BD3F8F020484BC3F8F020FC
:1036E800DB78DBB2012B00F0A280444BD3ED487AA3
:1036F800424CC4ED487AE36BC4F82431D4F8603402
:1037080004F590709847D4F84831C4F8F030E3785D
:10371800DBB2012B00F09380384BD3F8F020374B05
:10372800C3F8F02093ED3C7AD3ED3D7AD3EDC46A2B
:1037380077EEE67AB4EEE77AF1EE10FA0BD5D3ED30
:10374800C47AB6EE007A27EE877AD3ED3C7A77EE24
:10375800877AC3ED3C7A294B93ED3C7AD3ED3D7AD9
:10376800D3EDC46A77EEA67AB4EEE77AF1EE10FAF2
:103778000BDDD3EDC47AB6EE007A27EE877AD3ED67
:103788003C7A77EEC77AC3ED3C7A1C4BD3F8B82065
:10379800D3EDC37A9FED207A67EE877AFCEEE77A5D
:1037A80017EE903A9A4209D9144B1B7933B9134B47
:1037B8000122DA700021C3F8B8101A710F4B93F880
:1037C800643323B90D4BDB78DBB2012B4FD10B4BA4
:1037D8000022DA7093F88833DBB2012B32D0074B22
:1037E80093F88933002B3ED0044B93F88933013B7F
:1037F800DBB239E0E4460020F807803900000020F9
:103808009FAA2A3F920A863FDB0F4940CDCC4C3E07
:1038180098050020CDCC4C3E9A99993EBB4B4FF071
:103828007E521A6050E7BA4BD3F8F82055E7B84BE8
:10383800D3ED3E7A93ED487A77EE877A58E7D4F855
:10384800F8206CE7B24B93F88933DBB2042B08D825
:10385800AF4B93F889330133DBB2AD4A82F8893331
:1038680005E00023F9E70523A94A82F88933A84926
:10387800D1ED397AFCEEE77A17EE903AD1ED397A44
:1038880091ED3C7A67EE877AFCEEE77A17EE902A9C
:1038980091F88913C9B2052936D8DFE811F0060076
:1038A800D600060143017301A3019A49D1F8980390
:1038B80040F0C000C1F89803D1F8940340F03300F9
:1038C800C1F894039D184FF4003191FAA1F1B1FAAF
:1038D80081F11039C9B29048904C34F8116081597F
:1038E800090C0904294381519B1A4FF4002292FACA
:1038F800A2F2B2FA82F2103AD2B234F81210425856
:10390800120C1204134343508149D1F87003844BBD
:1039180003F58042906391F86423D2B207EE902AAF
:10392800F8EE677A03F58042C2ED0F7AD1F890037A
:1039380003F580421064D1F8681303F5804251649E
:103948001B78002B35D0764B9A6803F580413831C7
:1039580009680A3203EB820211609A6803F5804114
:103968003C31096802F20A4203EB820211609A684C
:1039780003F580414031096802F60A0203EB82022E
:1039880011609A6803F580414431096802F60A42D9
:1039980003EB820211609A6801329A609A6840F2D9
:1039A800FE339A4205D95E4B01225A7000221A70E2
:1039B8009A605B4B5B78002B00F01185584BDA68F6
:1039C8009B889BB29A4228D3554B9A680A3203EBDC
:1039D8008202116803F5804291629A6802F20A42F3
:1039E80003EB8202116803F58042D1629A6802F6FD
:1039F8000A0203EB8202116803F5804211639A6898
:103A080002F60A4203EB8202116803F58042516311
:103A18000022DA609A6801329A60414BDA68013212
:103A2800DA609A6840F2FE339A4240F2D8843C4BFE
:103A380000225A709A60DA609B78002B00F0CF84DD
:103A4800374B01221A7000F0CABC3249D1F89803EA
:103A580040F03000C1F89803D1F8940340F0C30057
:103A6800C1F894039D184FF4003191FAA1F1B1FA0D
:103A780081F11039C9B22848284C34F811608159AD
:103A8800090C0904294381519B1A4FF4801292FAB8
:103A9800A2F2B2FA82F2103AD2B234F812104258B4
:103AA800120C1204134343502EE71A49D1F8980315
:103AB80040F00300C1F89803D1F8940340F0F000F7
:103AC800C1F894039D184FF4002191FAA1F1B1FABD
:103AD80081F11039C9B21048104C34F8116081597D
:103AE800090C0904294381519B1A4FF4801292FA58
:103AF800A2F2B2FA82F2103AD2B234F81210425854
:103B0800120C120413434350FEE600BF9805002030
:103B180000000020006801401C68014068F80008A7
:103B2800AC0500204749D1F8980340F0C000C1F81F
:103B38009803D1F8940340F03300C1F894039D1A18
:103B48004FF4003191FAA1F1B1FA81F11039C9B2FB
:103B58003D483E4C34F811608159090C0904294349
:103B6800815113444FF4002292FAA2F2B2FA82F27F
:103B7800103AD2B234F812104258120C12041343FD
:103B88004350C1E62F49D1F8980340F03000C1F8FE
:103B98009803D1F8940340F0C300C1F894039D1A28
:103BA8004FF4003191FAA1F1B1FA81F11039C9B29B
:103BB8002548264C34F811608159090C0904294319
:103BC800815113444FF4801292FAA2F2B2FA82F2AF
:103BD800103AD2B234F812104258120C120413439D
:103BE800435091E61749D1F8980340F00300C1F813
:103BF8009803D1F8940340F0F000C1F894039D1A9B
:103C08004FF4002191FAA1F1B1FA81F11039C9B24A
:103C18000D480E4C34F811608159090C09042943E8
:103C2800815113444FF4801292FAA2F2B2FA82F24E
:103C3800103AD2B234F812104258120C120413433C
:103C4800435061E6006801401C68014068F80008BC
:103C5800D94AD368A3F2FF7307EE103AB8EEC77AD1
:103C6800DFEDD66A27EE267AD54CD4EDC67A27EE54
:103C7800277A84EDE57A1369A3F2FF7307EE103A09
:103C8800B8EEC77A27EE267AD4EDC67A27EE277AD9
:103C980084EDE97A5369A3F2FF7307EE103AB8EEA0
:103CA800C77A27EE267AD4EDC67A27EE277A84EDEE
:103CB800ED7AD2ED067AF8EEE77A67EEA67A94ED19
:103CC800C67A67EE877AC4EDAE7A92ED007AB8EEDE
:103CD800C77A27EE267AD4EDC57A27EE277AD4ED6F
:103CE800317A37EE677A84ED0B7A92ED017AB8EE85
:103CF800C77A27EE267AD4EDC57A27EE277AD4ED4F
:103D0800327A37EE677A84ED0C7AD2ED027AF8EEE1
:103D1800E77A67EEA67A94EDC57A67EE877A94ED2E
:103D2800337A77EEC77AC4ED0D7AD4ED0B7A94ED39
:103D38000B0A67EE807A94ED0C0A94ED0C7A20EE6B
:103D4800070A77EE807A94ED0D0A94ED0D7A20EE4D
:103D5800070A37EE800A0BF037F9DFED9A7A20EE82
:103D6800270A84ED0E0AA36BC4F8E033D4EDFB7A7E
:103D780094EDF87AD4EDFA6A37EE667A67EE877AC8
:103D880094EDFA7A77EE877AC4EDFA7AD4F8E833C4
:103D9800E363D4EDE87A94EDE57AD4EDE76A37EE9B
:103DA800667A67EE877A94EDE77A77EE877AC4EDDC
:103DB800E77AD4EDEC7A94EDE97AD4EDEB6A37EE54
:103DC800667A67EE877A94EDEB7A77EE877AC4EDB8
:103DD800EB7AD4EDF07A94EDED7AD4EDEF6A37EE24
:103DE800667A67EE877A94EDEF7A77EE877AC4ED94
:103DF800EF7AD4F89C33C4F87033D4F8AC33C4F8F1
:103E08007433D4F8BC33C4F87833D4F8743404F574
:103E18005970984794F88933DBB207EE903AF8EE78
:103E2800677A9FED697A67EE877A77EE877A9FEDF2
:103E3800677A77EE677AC4ED387A654BC4F8DC3375
:103E4800D4F8E030C4F8C433D4F87C3404F5717085
:103E5800984794ED0F7ADFED5F7AB4EEE77AF1EEEA
:103E680010FA08DC94EDF47AF2EE047AB4EEE77A0C
:103E7800F1EE10FA03D5584B4FF07C521A60504BB4
:103E880093EDF47AF2EE047AB4EEE77AF1EE10FAF2
:103E980079DD514B514A1A60494B93ED687AD3ED5D
:103EA800077AF0EEE77AD3EDC46A77EEE67AB4EEF5
:103EB800E77AF1EE10FA0BD5D3EDC47A9FED487A84
:103EC80027EE877AD3ED687A77EE877AC3ED687A3A
:103ED8003B4B93ED687AD3ED077AF0EEE77AD3EDB2
:103EE800C46A77EEA67AB4EEE77AF1EE10FA0BDD43
:103EF800D3EDC47A9FED3A7A27EE877AD3ED687AC4
:103F080077EEC77AC3ED687A2D4CD4EDF47AF0EEEB
:103F1800E77AC4ED697AD4F8603404F5D07098472C
:103F2800D4F8C831C4F8F030E378DBB2012B2FD0D5
:103F3800234BD3F8F020224BC3F8F02093F86433D6
:103F480023B91F4BDB78DBB2012B4FD11C4B00226E
:103F5800DA70D3ED077AF5EEC07AF1EE10FA48BFC1
:103F6800012283F8882393F88833DBB2012B12D01F
:103F7800134B93F88933002B34D0114B93F88933C2
:103F8800013BDBB22FE0144B4FF07E521A6083E7FF
:103F9800D4F8F820CFE70A4B93F88933DBB2042B27
:103FA80008D8074B93F889330133DBB2044A82F807
:103FB80089331BE00023F9E7E4460020F80780393D
:103FC800000000209FAA2A3F920A863FDB0F494043
:103FD80000401C46CDCC4C3E98050020CDCC4C3E34
:103FE80000409C440523C04A82F88933BE49D1ED7C
:103FF800397AFCEEE77A17EE903AD1ED397A91EDFD
:104008003C7A67EE877AFCEEE77A17EE902A91F809
:104018008913C9B2052936D8DFE811F00600D500A2
:10402800050135017001A001B049D1F8980340F0AD
:10403800C000C1F89803D1F8940340F03300C1F8E8
:1040480094039D184FF4003191FAA1F1B1FA81F16E
:104058001039C9B2A648A74C34F811608159090C27
:104068000904294381519B1A4FF4002292FAA2F2C3
:10407800B2FA82F2103AD2B234F812104258120C44
:104088001204134343509849D1F870039A4B03F52F
:104098008042906391F86423D2B207EE902AF8EE3A
:1040A800677A03F58042C2ED0F7AD1F8900303F5E1
:1040B80080421064D1F8681303F5804251641B787C
:1040C800002B35D08C4B9A6803F58041383109684C
:1040D8000A3203EB820211609A6803F580413C3191
:1040E800096802F20A4203EB820211609A6803F53A
:1040F80080414031096802F60A0203EB820211602E
:104108009A6803F580414431096802F60A4203EBD4
:10411800820211609A6801329A609A6840F2FE330E
:104128009A4205D9744B01225A7000221A709A607B
:10413800714B5B78002B00F052816F4BDA689B88DB
:104148009BB29A4228D36C4B9A680A3203EB8202DC
:10415800116803F5804291629A6802F20A4203EB01
:104168008202116803F58042D1629A6802F60A0257
:1041780003EB8202116803F5804211639A6802F624
:104188000A4203EB8202116803F580425163002260
:10419800DA609A6801329A60574BDA680132DA605D
:1041A8009A6840F2FE339A4240F21981524B00223B
:1041B8005A709A60DA609B78002B00F010814E4BA1
:1041C80001221A700BE14949D1F8980340F03000F8
:1041D800C1F89803D1F8940340F0C300C1F89403E0
:1041E8009D184FF4003191FAA1F1B1FA81F110391B
:1041F800C9B23F483F4C34F811608159090C090491
:10420800294381519B1A4FF4801292FAA2F2B2FA12
:1042180082F2103AD2B234F812104258120C120438
:10422800134343502FE73149D1F8980340F0030076
:10423800C1F89803D1F8940340F0F000C1F8940352
:104248009D184FF4002191FAA1F1B1FA81F11039CA
:10425800C9B22748274C34F811608159090C090460
:10426800294381519B1A4FF4801292FAA2F2B2FAB2
:1042780082F2103AD2B234F812104258120C1204D8
:1042880013434350FFE61949D1F8980340F0C000A2
:10429800C1F89803D1F8940340F03300C1F89403AF
:1042A8009D1A4FF4003191FAA1F1B1FA81F1103958
:1042B800C9B20F480F4C34F811608159090C090430
:1042C8002943815113444FF4002292FAA2F2B2FA20
:1042D80082F2103AD2B234F812104258120C120478
:1042E80013434350CFE600BF0000002000680140A0
:1042F8001C68014068F80008AC0500205249D1F854
:10430800980340F03000C1F89803D1F8940340F0C6
:10431800C300C1F894039D1A4FF4003191FAA1F13A
:10432800B1FA81F11039C9B24848494C34F81160E2
:104338008159090C09042943815113444FF480120F
:1043480092FAA2F2B2FA82F2103AD2B234F8121009
:104358004258120C12041343435094E63A49D1F8D8
:10436800980340F00300C1F89803D1F8940340F093
:10437800F000C1F894039D1A4FF4002191FAA1F1BD
:10438800B1FA81F11039C9B23048314C34F81160B2
:104398008159090C09042943815113444FF48012AF
:1043A80092FAA2F2B2FA82F2103AD2B234F81210A9
:1043B8004258120C12041343435064E6254BD3F8B9
:1043C800B430012B0BD1244A536983F40053536151
:1043D80005E0204B93F8FC32DBB2012B0CD01F4BCD
:1043E8005A681F4B1A601B681E4A12689B1A1E4A9D
:1043F8001360BDEC028BF8BD4FF0A042D2F88010DC
:104408001A4B5960D2F884101960D2F888209A6142
:10441800174AD2F88010D961936823F0004323F03B
:104428003F0343F0080393600A4B1B78DBB2072B6A
:10443800D5D8DFE813F01F003E052108F10CEB1278
:104448003F19851F942800BF006801401C6801407F
:1044580068F800080000002000080048001000E08C
:10446800A805002014460020A0050020E4460020EE
:1044780000010050E54B4FF400529A62E44B0022D1
:104488001A615A61C3F83421C3F83C21C3F8742176
:10449800C3F87C21C3F8B421C3F8BC21C3F8E020D9
:1044A800DC498A620879C0B2C870DB480260D3F878
:1044B80010030864D949D1ED067AF8EEE77A9FED42
:1044C800D87A67EE877A93EDC67A67EE877A03F52E
:1044D8008260C0ED007AD1ED007AF8EEE77A03F554
:1044E8008860C0ED007AD1ED017AF8EEE77A03F53D
:1044F8008A61C1ED007A9A664FF07E52DA6693F8C7
:10450800FE32DBB2012B00F0DF83C44BD3ED067A19
:10451800F8EEE77A9FEDC27A67EE877ABC4B93EDA7
:10452800C67A67EE877AC3EDAE7AB94C04F21C43BB
:10453800D3ED007A04F5826393ED007A04F5836184
:10454800D1ED006A37EE667A67EE877A91ED007AE8
:1045580077EE877AC1ED007A04F24C43D3ED007A06
:1045680004F5886393ED007A04F58962D2ED006A58
:1045780037EE667A67EE877A92ED007A77EE877A79
:10458800C2ED007A04F25C43D3ED007A04F58A6345
:1045980093ED007A04F58B63D3ED006A37EE667A03
:1045A80067EE877A93ED007A77EE877AC3ED007A23
:1045B8000968C4F8B8121268C4F8C4201B68C4F8A3
:1045C800C830D4F80431C4F8BC32D4F80831C4F87F
:1045D800C032D4F80C31C4F8C432D4F86C3404F5C1
:1045E8002E709847D4EDB67A94ED1B7A67EE877AE9
:1045F80094EDB77AD4ED1A6A27EE267A77EE877AA1
:10460800C4EDB87AD4EDB67A94ED1A7A67EEC77A23
:1046180094EDB77AD4ED1B6A27EE267A77EE877A7F
:10462800C4EDB97A7F4AD2F8943343F0F303C2F861
:1046380094334FF4003393FAA3F1B1FA81F11039AE
:10464800C9B27948794A32F811104458C4F34E0473
:1046580093FAA3F3B3FA83F3103BDBB2744932F84D
:1046680013504B591B0C1B0423434B514FF400238D
:1046780093FAA3F4B4FA84F4103CE4B232F8144088
:104688002458C4F34E0493FAA3F3B3FA83F3103B0C
:10469800DBB232F813506B581B0C1B0423436B50CE
:1046A8004FF4801393FAA3F4B4FA84F4103CE4B200
:1046B80032F814402058C0F34E0093FAA3F3B3FA2B
:1046C80083F3103BDBB232F8132053581B0C1B0446
:1046D80003435350574BD3ED127A93ED077A67EEA5
:1046E800877AC3ED037AD3ED127A93ED087A67EEF1
:1046F800877AC3ED047AD3ED127A93ED097A67EEDF
:10470800877AC3ED057AD3ED037A93ED047A77EED1
:10471800877A93ED057A77EE877A9FED477A67EE89
:10472800877AC3ED067AD3ED037A93ED067A77EEAE
:10473800C77AC3ED007AD3ED047A93ED067A77EE63
:10474800C77AC3ED017AD3ED057A93ED067A77EE51
:10475800C77AC3ED027A1A689A63D3ED007A9FED9F
:10476800377A67EE877A93ED017ADFED356A27EEBF
:10477800267A77EE877AC3ED0F7AD3ED197AB0EE01
:10478800677ABEEEC47A17EE102AD5172D49A2FB18
:10479800016701FB0577320E42EA072202F5800223
:1047A8005112A1F5005343F30D0303FB03F31A134E
:1047B80040F6BC5303FB02F044F6BC53A3EBA03312
:1047C80003FB02F31B14C3F580531B0311F4804F42
:1047D80040F0818207EE903AF8EEE77A9FED1A7A78
:1047E80067EE877A134BC3ED1B7AD3ED197AB0EED7
:1047F800677ABEEEC47A17EE102AD5171149A2FBC4
:10480800016701FB0577320E20E000BF0008004871
:10481800000000200C05002098050020E446002038
:10482800F8078039006801401468014068F80008FA
:104838001C68014018460020AAAAAA3E3ACD133F98
:104848003ACD933F60BE28000000803342EA072239
:104858005112A1F5005343F30D0303FB03F31A139D
:1048680040F6BC5303FB02F044F6BC53A3EBA03361
:1048780003FB02F31B14C3F580531B0311F4804F91
:1048880040F02B8207EE903AF8EEE77A1FED127AA5
:1048980067EE877AF44BC3ED1C7AD3ED0E7A93ED6D
:1048A8001B7A67EE877A93ED0F7AD3ED1C6A27EEB1
:1048B800267A77EE877AC3ED107AD3ED0E7A93EDE8
:1048C8001C7A67EEC77A93ED0F7AD3ED1B6A27EE51
:1048D800267A77EE877AC3ED117AD3ED107A93EDC5
:1048E8000C7AD3ED206A27EE267A77EEC77A93ED15
:1048F800227AD3ED136A27EE267A77EE877AC3ED0C
:10490800257AD3ED117A93ED0D7AD3ED206A27EE4F
:10491800267A77EEC77A93ED217AD3ED136A27EEDC
:10492800267A77EEC77AC3ED267AD3ED217A93ED0E
:10493800257AD3ED276A27EE267A77EE877AC3EDB4
:10494800237AD3ED227A93ED267AD3ED276A27EEE0
:10495800267A77EE877AC3ED247AD3ED237A93ED1E
:10496800297A77EEC77A93ED2A7A67EE877AC3EDCC
:104978000C7AD3ED247A93ED2B7A67EE877AC3ED20
:104988000D7A93ED217AD3ED286A93ED256AD3ED5C
:10499800107AD3ED0C5A93ED205A65EE855A77EECE
:1049A800E57AD3ED225A93ED135A65EE855A77EEE0
:1049B800A57A76EE277A66EEA77A77EE277AC3EDA0
:1049C800217A93ED227AD3ED286A93ED266AD3ED06
:1049D800117AD3ED0D5A93ED205A65EE855A77EE8C
:1049E800E57AD3ED215A93ED135A65EE855A77EEA1
:1049F800E57A76EE277A66EEA77A77EE277AC3ED20
:104A0800227AD3ED217A93ED297A77EEC77A93ED5E
:104A18002A7A67EE877AC3ED0C7AD3ED227A93ED82
:104A28002B7A67EE877AC3ED0D7AD3ED0C7A93ED86
:104A38001B7A67EE877A93ED0D7AD3ED1C6A27EE21
:104A4800267A77EEC77AC3ED0A7AD3ED0C7A93ED1E
:104A58001C7A67EE877A93ED0D7AD3ED1B6A27EE01
:104A6800267A77EE877AC3ED0B7AD3ED187AB7EE0C
:104A7800087A67EE877A93ED217AD3ED0D6A27EEEF
:104A8800267AD3ED226A93ED0C6A66EE866A37EED3
:104A9800667A67EE877AC3ED157A0022C3F8C420D8
:104AA800D3ED137AF5EEC07AF1EE10FA07DDD3ED07
:104AB800307A93ED177A77EE877AC3ED317A6A4BBD
:104AC800D3ED137AF5EEC07AF1EE10FA00F1078112
:104AD800654BD3ED276A93ED167AC6EE877A93ED88
:104AE800157AD3ED316A37EE667A67EE877AF0EE9B
:104AF800E76A93ED137AB0EEC77AF4EEC76AF1EE7F
:104B080010FA0EDD93ED157AB0EEC77AD3ED306A60
:104B1800B4EEE67AF1EE10FA03D5DFED547AC3ED80
:104B2800137A514C94ED137A77EE277AC4ED137A01
:104B3800E06CFBF7B1FC4AA3D3E90023FBF704FDC3
:104B4800FBF7C4FF2065D4ED137A94ED157A67EE70
:104B5800877AC4ED2F7AA36AC4F8B03094ED0A7A44
:104B6800FEEE005A27EE257AD4ED0B6A9FED406AD7
:104B780066EE866A37EE267A84ED2D7AD4ED0A7AC7
:104B880067EEA57A94ED0B7A27EE067A77EEC77A68
:104B9800C4ED2E7AD4ED1A7A94ED277AD4ED136AFF
:104BA80027EE267A77EE877AC4ED1A7A94ED1A7A88
:104BB800DFED307AB4EEE77AF1EE10FA07DD94ED26
:104BC8001A7ADFED2D7A77EEC77AC4ED1A7A264B7A
:104BD80093ED1A7ADFED297AB4EEE77AF1EE10FA5E
:104BE80007D5D3ED1A7A9FED267A77EE877AC3ED4B
:104BF8001A7A1D4BD3ED1A7A93ED187A67EE877AF5
:104C0800C3ED197A93ED197ADFED1A7AB4EEE77AE3
:104C1800F1EE10FA07DD93ED197ADFED177A77EEEA
:104C2800C77AC3ED197A104B93ED197ADFED137A31
:104C3800B4EEE77AF1EE10FA07D5D3ED197A9FEDC5
:104C4800107A77EE877AC3ED197A0E4C94EDAE7A26
:104C5800F3EE047AB4EEE77A16E000BFAFF3008013
:104C6800529D0E643D1923401846002000000000A4
:104C7800D7B35D3FDA0F4940DA0FC9C0DA0F49C030
:104C8800DA0FC94000000020F1EE10FAACBF012392
:104C9800002384F86133636CC4F85033636EC4F83E
:104CA8005433D4F8B832C4F85833C74B1B69C4F826
:104CB8005C33D4F8703404F54F70984794F8603337
:104CC800C3B92378DBB216E0C04B9A6CA0F58863B1
:104CD800C3F8B82229E45B427CE55B42D2E5D3ED18
:104CE800307AF1EE677A93ED177A77EEC77AC3EDEB
:104CF800317AEDE60723B64A1370B44B586EB54BBC
:104D080003F580418863D2F8200203F58041C86327
:104D1800D2F8200103F580410864D2F8601103F548
:104D2800804251641B78002B35D0AA4B9A6803F552
:104D38008041383109680A3203EB820211609A68AF
:104D480003F580413C31096802F20A4203EB820212
:104D580011609A6803F580414031096802F60A0239
:104D680003EB820211609A6803F5804144310968B7
:104D780002F60A4203EB820211609A6801329A60D5
:104D88009A6840F2FE339A4205D9924B01225A7032
:104D980000221A709A608F4B5B78002B3FF41FAB90
:104DA8008C4B9A680A3203EB8202116844F2280499
:104DB8001A1911609A6802F20A4203EB820211681A
:104DC80044F22C001A1811609A6802F60A0203EBE2
:104DD8008202156844F230015A1815609A6802F682
:104DE8000A4203EB8202166844F234029D182E60D0
:104DF80045251D745A255D741C5D9C7444F2290474
:104E08001C5DDC7444F22A041C5D1C7544F22B04FE
:104E18001C5D5C75185C987544F22D00185CD8759B
:104E280044F22E00185C187644F22F00185C58766D
:104E3800595C997644F23101595CD97644F23201D1
:104E4800595C197744F23301595C59779A5C9A771F
:104E580044F235029A5CDA7744F236029A5C83F8B7
:104E6800202044F237029A5C83F8212093F82230FC
:104E7800DBB2012B13D0574B9A6840F2FE339A42AB
:104E88007FF6ADAA534B00225A709A609B78002B8C
:104E98003FF4A5AA4F4B01221A70FFF7A0BA08F0F9
:104EA800DBFD4C4B9A6801329A60002283F822207D
:104EB800E1E7474BD3ED377A93ED347A27EE877ADB
:104EC800D3ED387A77EE877AC3ED387A93ED387A6E
:104ED800DFED417AB4EEE77AF1EE10FA40F1908016
:104EE800D3ED387A9FED3D7A77EE877AC3ED387A3D
:104EF800374BD3ED387A9FED3A7A67EE877AFEEE34
:104F0800E07A384AC2ED017A92ED027AB8EEC77AB1
:104F1800DFED356A27EE267A83ED1A7AD2ED027A2A
:104F2800F8EEE77A67EEA67AC3ED1B7A93F8FE32BD
:104F3800DBB2012B78D0264B93F8FE32002B40F0E1
:104F48008B802A4AD2ED007AF8EEE77A204B93ED6F
:104F5800317A77EEC77A93EDC57ADFED256A27EEC9
:104F6800267A67EE877AC3ED117AD2ED017AF8EEE8
:104F7800E77A93ED327A77EEC77A93EDC57A27EE22
:104F8800267A67EE877AC3ED197AD3ED117A9FED09
:104F9800197A67EE877A93ED197ADFED176A27EEAB
:104FA800267A77EE877AC3ED127AD2ED067AF8EE92
:104FB800E77A9FED127A67EE877A93EDC67A67EE05
:104FC800877AC3EDAE7A47E0F44500201846002002
:104FD80000000020AC050020DB0F49C0DB0FC940F2
:104FE80083F9A23E000C024000000030E446002095
:104FF800D5FFFF393ACD133F3ACD933FF8078039B3
:10500800714B93ED387ADFED717AB4EEE77AF1EE11
:1050180010FA7FF76DAFD3ED387A9FED6D7A77EEA2
:10502800C77AC3ED387A63E76A4BD3F8B010664A9B
:105038005164D3ED2C7A9FED687A67EE877A93ED09
:105048002D7ADFED666A27EE267A77EE877AC2ED4B
:10505800127A9B6CC2F8B8325B4CE36CC4F8F0333C
:10506800226D04F580631A60D4F8B81204F58262E0
:105078001160D4EDFF7A94EDFC7AD4EDFE6A37EE38
:10508800667A67EE877A94EDFE7A77EE877AC4EDD2
:10509800FE7A04F20C41D1ED007A93ED007A04F522
:1050A8008163D3ED006A37EE667A67EE877A93ED0F
:1050B800007A77EE877AC3ED007A04F21C43D3EDC9
:1050C800007A92ED007A04F58363D3ED006A37EE37
:1050D800667A67EE877A93ED007A77EE877AC3ED82
:1050E800007A1B68C4F8B832D4F80431C4F8BC326A
:1050F800D4F80831C4F8C032D4F80C31C4F8C4323A
:10510800D4F86C3404F52E709847D4EDB67A94ED43
:105118001B7A67EE877A94EDB77AD4ED1A6A27EE90
:10512800267A77EE877AC4EDB87AD4EDB67A94ED1C
:105138001A7A67EEC77A94EDB77AD4ED1B6A27EE30
:10514800267A77EE877AC4EDB97AD4ED027A94EDAF
:105158001B7A67EE877A94ED037AD4ED1A6A27EE04
:10516800267A77EEC77AC4ED3F7AD4ED037A94EDC8
:105178001B7A67EE877A94ED027AD4ED1A6A27EEE5
:10518800267A77EE877AC4ED407AD4F8643404F14D
:10519800FC009847636CC4F85033636EC4F854330A
:1051A800D4F8B832C4F858330D4B1B69C4F85C33D3
:1051B800D4F8703404F54F70984794F860338BB97D
:1051C8002278D2B20FE000BF00000020DB0F494078
:1051D800DB0FC940184600203ACD133F3ACD933F24
:1051E800F445002007229F4B1A70D3F804119E4AF9
:1051F800D161D3F808111162D3F80C115162D3EDC3
:10520800417A93ED397A67EE877A93ED397A77EEBA
:10521800877AFCEEE77A4FF4003292FAA2F2B2FAF9
:1052280082F2103AD2B29149914830F812400A59A4
:10523800120C120417EE905A15430D51D3ED427A11
:1052480093ED397A67EE877A93ED397A77EE877A34
:10525800FCEEE77A4FF4002292FAA2F2B2FA82F256
:10526800103AD2B230F812406258120C120417EEFB
:10527800905A15436550D3ED437A93ED397A67EE2A
:10528800877A93ED397A77EE877AFCEEE77A4FF4EE
:10529800801292FAA2F2B2FA82F2103AD2B230F83E
:1052A80012004258120C120417EE904A144344504C
:1052B800586C704A02F580418863586E02F5804147
:1052C800C863D3F8200102F580410864D3F860115F
:1052D80002F5804359641378002B35D01346926841
:1052E80003F58041383109680A3203EB8202116004
:1052F8009A6803F580413C31096802F20A4203EBDF
:10530800820211609A6803F580414031096802F60B
:105318000A0203EB820211609A6803F58041443166
:10532800096802F60A4203EB820211609A680132A8
:105338009A609A6840F2FE339A4205D94D4B012291
:105348005A7000221A709A604A4B5B78002B3FF41F
:1053580046A8484B9A680A3203EB8202116844F265
:1053680028041A1911609A6802F20A4203EB8202B1
:10537800116844F22C001A1811609A6802F60A02A1
:1053880003EB8202156844F230015A1815609A68D6
:1053980002F60A4203EB8202166844F234029D18B0
:1053A8002E6045251D745A255D741C5D9C7444F25D
:1053B80029041C5DDC7444F22A041C5D1C7544F24B
:1053C8002B041C5D5C75185C987544F22D00185C04
:1053D800D87544F22E00185C187644F22F00185C39
:1053E8005876595C997644F23101595CD97644F281
:1053F8003201595C197744F23301595C59779A5C48
:105408009A7744F235029A5CDA7744F236029A5C6B
:1054180083F8202044F237029A5C83F8212093F81D
:105428002230DBB2012B13D0124B9A6840F2FE33C4
:105438009A427EF6D4AF0F4B00225A709A609B783E
:10544800002B3EF4CCAF0B4B01221A70FEF7C7BFFE
:1054580008F002FB074B9A6801329A60002283F831
:105468002220E1E700000020184600201C680140C7
:1054780068F80008AC050020E24BE34A1A60E34BE9
:10548800E34A1A61D3ED377A93ED347A27EE877AB7
:10549800D3ED387A77EE877AC3ED387A93ED387A98
:1054A800DFEDDC7AB4EEE77AF1EE10FA72D5D3EDDF
:1054B800387A9FEDD97A77EE877AC3ED387AD34B6D
:1054C800D3ED387A9FEDD57A67EE877AFEEEE07AEB
:1054D800D34AC2ED017A92ED027AB8EEC77ADFEDCF
:1054E800D16A27EE267A83ED1A7AD2ED027AF8EE9F
:1054F800E77A67EEA67AC3ED1B7A93F8FE32DBB241
:10550800012B5AD0C14B93F8FE32002B6DD1C64AFD
:10551800D2ED007AF8EEE77ABC4B93ED317A77EE6C
:10552800C77A93EDC57ADFEDC16A27EE267A67EE72
:10553800877AC3ED117AD2ED017AF8EEE77A93ED26
:10554800327A77EEC77A93EDC57A27EE267A67EE38
:10555800877AC3ED197AD3ED117A9FEDB57A67EEA4
:10556800877A93ED197ADFEDB36A27EE267A77EE1C
:10557800877AC3ED127AD2ED067AF8EEE77A9FEDD4
:10558800AE7A67EE877A93EDC67A67EE877AC3EDCF
:10559800AE7A2AE09D4B93ED387ADFEDA87AB4EE27
:1055A800E77AF1EE10FA8ADDD3ED387A9FED9A7A30
:1055B80077EEC77AC3ED387A81E7A14BD3F8B010FC
:1055C800924A5164D3ED2C7A9FED997A67EE877AE7
:1055D80093ED2D7ADFED976A27EE267A77EE877AB4
:1055E800C2ED127A9B6CC2F8B832884CE36CC4F8EE
:1055F800F033226D04F580631A60D4F8B81204F50C
:1056080082621160D4EDFF7A94EDFC7AD4EDFE6AE3
:1056180037EE667A67EE877A94EDFE7A77EE877AC8
:10562800C4EDFE7A04F20C41D1ED007A93ED007AD4
:1056380004F58163D3ED006A37EE667A67EE877A00
:1056480093ED007A77EE877AC3ED007A04F21C4373
:10565800D3ED007A92ED007A04F58363D3ED006A06
:1056680037EE667A67EE877A93ED007A77EE877A77
:10567800C3ED007A1B68C4F8B832D4ED117A94ED02
:105688001B7A67EE877A94ED127AD4ED1A6A27EEC0
:10569800267A77EE877AC4ED137AD4ED117A94EDF1
:1056A8001A7A67EEC77A94ED127AD4ED1B6A27EE60
:1056B800267A77EE877AC4ED147A2369C4F8203104
:1056C8006369C4F86031E36CC4F82431236DC4F80D
:1056D8006431D4F8603404F590709847D4F8603495
:1056E80004F5B0709847D4F84831C4F8E032D4F8DB
:1056F8008831C4F8E432D4EDBB7A9FED528A67EE64
:10570800887A9FED517A67EE877A94EDAE7A67EEE4
:10571800877AC4EDBA7A94EDBA0A04F5397104F5BA
:10572800387009F011F9D4EDB86AD4EDAE7A67EEA5
:10573800887A86EEA77A84EDB87AD4EDB96AD4ED82
:10574800AE7A67EE887A86EEA77A84EDB97AD4F8CD
:105758000431C4F8BC32D4F80831C4F8C032D4F8E3
:105768000C31C4F8C432D4F86C3404F52E70984760
:10577800D4EDB87A94ED1B7A67EE877A94EDB97A0E
:10578800D4ED1A6A27EE267A77EEC77AC4ED3F7A07
:10579800D4EDB97A94ED1B7A67EE877A94EDB87AEE
:1057A800D4ED1A6A27EE267A77EE877AC4ED407A26
:1057B800D4F8643404F1FC009847002211461046DE
:1057C800092306E001230DE0012312E001231A4416
:1057D80023465C1E002B3BD01C4B1B6913F0800F2B
:1057E800F0D100231844194B1B6913F4807FEBD1C7
:1057F80000231944154B1B6913F4007FE6D10023DD
:10580800E5E700BF98050020CDCCCC3D0000002086
:1058180000002041DB0F49C0DB0FC94083F9A23EDD
:10582800000C024000000030E4460020D5FFFF399C
:105838003ACD133F3ACD933FF8078039DB0F494003
:10584800184600203BAA2A3FD7B35D3F0004004812
:105858000428D4BF00200120B04B18700429D4BFFD
:10586800002101215970042AD4BF002201229A7014
:105878001B782BB9A94B5B78DBB2012B00F0B38006
:10588800A64B1B782BB9A54B5B78DBB2012B00F03C
:10589800B380A24B1B7843B9A04B5B782BB99F4BC5
:1058A8009B78DBB2012B00F0B1809C4B1B78DBB2FC
:1058B800012B00F0AF80994B1B78DBB2012B00F075
:1058C800B880964B1B78DBB2012B00F0C080934B5D
:1058D800DA78D2B21B79DBB29A4224D08F4B5B7B49
:1058E800002B40F0C3808E4BD3F8E0108B4AD3785E
:1058F800103302EB83035960537BDBB2012B00F0BA
:10590800BC80864BDA78163203EB82035968834AE7
:10591800D378163302EB83035960814BD3F8E03018
:1059280013610123D3737D4BDA78D2B21A717C4AA2
:10593800D2ED377A92ED347A27EE877AD3ED0A7A68
:1059480077EE877AC3ED0A7A93ED0A7ADFED757AF6
:10595800B4EEE77AF1EE10FA0CDD5B7B53B9D2EDC9
:10596800347AF1EE677AC2ED347A6C4B6E4A9A62F9
:1059780001225A73694B93ED0A7ADFED6C7AB4EE23
:10598800E77AF1EE10FA03D55B7BDBB2012B78D016
:10599800624B5B7BDBB2022B00F0D280604CD4F808
:1059A800B032C4F8C433D4F87C3404F57170984725
:1059B800636CC4F85033636EC4F85433D4F8B83207
:1059C800C4F858335A4B1B69C4F85C33D4F87034A4
:1059D80004F54F70984794F86033002B40F0BD8071
:1059E8002278D2B2BAE04D4B9B78002B7FF448AFB7
:1059F8004A4B0022DA706AE7484B9B78DBB2012BEE
:105A08007FF447AF454B0122DA7060E7434B02222F
:105A1800DA705CE7414B5B78002B7FF44CAF3F4B6F
:105A28009B78DBB2012B7FF446AF3C4B0322DA7044
:105A38004DE73A4B5B78002B7FF443AF374B9B78AD
:105A4800002B7FF43EAF354B0422DA703FE7334B2F
:105A58005B78DBB2012B7FF43AAF304B9B78002B9D
:105A68007FF435AF2D4B0522DA7030E72B4BDA780F
:105A7800103203EB8203596838E7294BD3F8E0105A
:105A880045E7274B0022C3F8D020244B02225A7343
:105A98007EE704F11C03214A02EB830393ED017AAC
:105AA800DFED247AB4EEE77AF1EE10FA0ADD1C365F
:105AB80002EB8606D6ED017A9FED1F7A77EEC77A5C
:105AC800C6ED017A0134E4B2052C3BD82646134DC5
