:020000040800F2
:100000000000022009F4000829D9000837D90008A7
:100010003DD9000843D9000849D900080000000074
:100020000000000000000000000000004FD90008A0
:100030005DD90008000000006BD9000879D90008DC
:1000400059F4000859F4000859F4000859F400085C
:1000500059F4000859F4000859F4000859F400084C
:1000600059F4000859F4000859F4000859F400083C
:1000700059F4000859F4000859F4000859F400082C
:10008000E1D9000859F40008313D000859F400088E
:1000900059F4000859F4000859F4000887D90008F9
:1000A00059F4000859F4000859F4000859F40008FC
:1000B000F98D000859F4000859F4000859F40008B3
:1000C00059F4000859F4000859F4000859F40008DC
:1000D00059F4000859F400081DDA000859F4000822
:1000E00059F4000859F4000859F4000859F40008BC
:1000F00059F4000859F4000859F4000859F40008AC
:1001000059F4000859F4000859F4000859F400089B
:1001100059F4000859F4000859F40008A1D900085E
:1001200059F4000859F4000859F4000859F400087B
:1001300059F4000859F4000859F4000859F400086B
:1001400059F4000859F4000859F4000859F400085B
:1001500059F4000859F4000859F4000859F400084B
:1001600059F40008C5D9000859F4000859F40008EA
:1001700059F4000859F4000859F4000859F400082B
:1001800059F4000859F4000859F4000859F400081B
:1001900059F400080000000059F4000859F4000860
:1001A00059F4000859F4000859F4000859F40008FB
:1001B00059F4000859F4000859F4000859F40008EB
:1001C00059F4000859F4000859F4000859F40008DB
:0801D00059F4000859F400087D
:1001D80081F0004102E000BF83F0004330B54FEAF0
:1001E80041044FEA430594EA050F08BF90EA020F5D
:1001F8001FBF54EA000C55EA020C7FEA645C7FEAF0
:10020800655C00F0E2804FEA5454D4EB5555B8BF12
:100218006D420CDD2C4480EA020281EA030382EA83
:10022800000083EA010180EA020281EA0303362D15
:1002380088BF30BD11F0004F4FEA01314FF4801CE8
:100248004CEA113102D0404261EB410113F0004FFA
:100258004FEA03334CEA133302D0524263EB4303B1
:1002680094EA050F00F0A780A4F10104D5F1200E4F
:100278000DDB02FA0EFC22FA05F2801841F10001AA
:1002880003FA0EF2801843FA05F359410EE0A5F17E
:1002980020050EF1200E012A03FA0EFC28BF4CF0AF
:1002A800020C43FA05F3C01851EBE37101F0004565
:1002B80007D54FF0000EDCF1000C7EEB00006EEB72
:1002C8000101B1F5801F1BD3B1F5001F0CD34908FC
:1002D8005FEA30004FEA3C0C04F101044FEA445253
:1002E80012F5800F80F09A80BCF1004F08BF5FEADA
:1002F800500C50F1000041EB045141EA050130BDBA
:100308005FEA4C0C404141EB010111F4801FA4F15C
:100318000104E9D191F0000F04BF01460020B1FAB1
:1003280081F308BF2033A3F10B03B3F120020CDAE9
:100338000C3208DD02F1140CC2F10C0201FA0CF0C7
:1003480021FA02F10CE002F11402D8BFC2F1200C2C
:1003580001FA02F120FA0CFCDCBF41EA0C019040E2
:10036800E41AA2BF01EB0451294330BD6FEA04042B
:100378001F3C1CDA0C340EDC04F11404C4F1200216
:1003880020FA04F001FA02F340EA030021FA04F328
:1003980045EA030130BDC4F10C04C4F1200220FA7F
:1003A80002F001FA04F340EA0300294630BD21FABD
:1003B80004F0294630BD94F0000F83F4801306BF83
:1003C80081F480110134013D4EE77FEA645C18BF77
:1003D8007FEA655C29D094EA050F08BF90EA020F0E
:1003E80005D054EA000C04BF1946104630BD91EA06
:1003F800030F1EBF0021002030BD5FEA545C05D109
:100408004000494128BF41F0004130BD14F5800447
:100418003CBF01F5801130BD01F0004545F0FE41BB
:1004280041F470014FF0000030BD7FEA645C1ABFF0
:10043800194610467FEA655C1CBF0B46024650EA27
:10044800013406BF52EA033591EA030F41F4002153
:1004580030BD00BF90F0000F04BF0021704730B5D9
:100468004FF4806404F132044FF000054FF00001AE
:1004780050E700BF90F0000F04BF0021704730B56F
:100488004FF4806404F1320410F0004548BF404244
:100498004FF000013EE700BF42004FEAE2014FEA99
:1004A80031014FEA02701FBF12F07F4393F07F4F74
:1004B80081F06051704732F07F4208BF704793F077
:1004C8007F4F04BF41F40021704730B54FF460748A
:1004D80001F0004521F000411CE700BF50EA01028D
:1004E80008BF704730B54FF000050AE050EA010236
:1004F80008BF704730B511F0004502D5404261EBA6
:1005080041014FF4806404F132045FEA915C3FF4E6
:10051800D8AE4FF003025FEADC0C18BF03325FEA83
:10052800DC0C18BF033202EBDC02C2F1200300FA34
:1005380003FC20FA02F001FA03FE40EA0E0021FA59
:1005480002F11444BDE600BF70B54FF0FF0C4CF447
:10055800E06C1CEA11541DBF1CEA135594EA0C0FF9
:1005680095EA0C0F00F0DEF82C4481EA030621EA34
:100578004C5123EA4C5350EA013518BF52EA03356F
:1005880041F4801143F4801338D0A0FB02CE4FF021
:100598000005E1FB02E506F00042E0FB03E54FF051
:1005A8000006E1FB03569CF0000F18BF4EF0010E49
:1005B800A4F1FF04B6F5007F64F5407404D25FEA45
:1005C8004E0E6D4146EB060642EAC62141EA5551F8
:1005D8004FEAC52040EA5E504FEACE2EB4F1FD0C3A
:1005E80088BFBCF5E06F1ED8BEF1004F08BF5FEAB8
:1005F800500E50F1000041EB045170BD06F000466A
:1006080046EA010140EA020081EA0301B4EB5C0416
:10061800C2BFD4EB0C0541EA045170BD41F480110E
:100628004FF0000E013C00F3AB8014F1360FDEBF33
:10063800002001F0004170BDC4F10004203C35DA0F
:100648000C341BDC04F11404C4F1200500FA05F392
:1006580020FA04F001FA05F240EA020001F0004233
:1006680021F0004110EBD37021FA04F642EB0601A9
:100678005EEA430E08BF20EAD37070BDC4F10C04D3
:10068800C4F1200500FA04F320FA05F001FA04F297
:1006980040EA020001F0004110EBD37041F1000183
:1006A8005EEA430E08BF20EAD37070BDC4F120058E
:1006B80000FA05F24EEA020E20FA04F301FA05F2F6
:1006C80043EA020321FA04F001F0004121FA04F29E
:1006D80020EA020000EBD3705EEA430E08BF20EA6E
:1006E800D37070BD94F0000F0FD101F000464000A8
:1006F80041EB010111F4801F08BF013CF7D041EA2A
:10070800060195F0000F18BF704703F0004652002D
:1007180043EB030313F4801F08BF013DF7D043EAFE
:100728000603704794EA0C0F0CEA135518BF95EAB4
:100738000C0F0CD050EA410618BF52EA4306D1D13B
:1007480081EA030101F000414FF0000070BD50EA5A
:10075800410606BF1046194652EA430619D094EAE4
:100768000C0F02D150EA013613D195EA0C0F05D1CE
:1007780052EA03361CBF104619460AD181EA030122
:1007880001F0004141F0FE4141F470014FF00000DA
:1007980070BD41F0FE4141F4780170BD70B54FF075
:1007A800FF0C4CF4E06C1CEA11541DBF1CEA1355F5
:1007B80094EA0C0F95EA0C0F00F0A7F8A4EB0504D7
:1007C80081EA030E52EA03354FEA013100F08880CE
:1007D8004FEA03334FF0805545EA131343EA126397
:1007E8004FEA022245EA111545EA10654FEA00264C
:1007F8000EF000419D4208BF964244F1FD0404F505
:10080800407402D25B084FEA3202B61A65EB030560
:100818005B084FEA32024FF480104FF4002CB6EB1D
:10082800020E75EB030E22BFB61A754640EA0C009D
:100838005B084FEA3202B6EB020E75EB030E22BFDD
:10084800B61A754640EA5C005B084FEA3202B6EB1E
:10085800020E75EB030E22BFB61A754640EA9C00DD
:100868005B084FEA3202B6EB020E75EB030E22BFAD
:10087800B61A754640EADC0055EA060E18D04FEA6B
:10088800051545EA16754FEA06164FEAC30343EA0B
:1008980052734FEAC2025FEA1C1CC0D111F4801FD8
:1008A8000BD141EA00014FF000004FF0004CB6E7D1
:1008B80011F4801F04BF01430020B4F1FD0C88BF70
:1008C800BCF5E06F3FF6AFAEB5EB030C04BFB6EB7B
:1008D800020C5FEA500C50F1000041EB045170BD6E
:1008E8000EF0004E4EEA113114EB5C04C2BFD4EB9B
:1008F8000C0541EA045170BD41F480114FF0000E1F
:10090800013C90E645EA060E8DE60CEA135594EA9A
:100918000C0F08BF95EA0C0F3FF43BAF94EA0C0F9D
:100928000AD150EA01347FF434AF95EA0C0F7FF412
:1009380025AF104619462CE795EA0C0F06D152EA66
:1009480003353FF4FDAE1046194622E750EA41064A
:1009580018BF52EA43067FF4C5AE50EA41047FF45B
:100968000DAF52EA43057FF4EBAE12E74FF0FF3CC0
:1009780006E000BF4FF0010C02E000BF4FF0010C91
:100988004DF804CD4FEA410C7FEA6C5C4FEA430C0A
:1009980018BF7FEA6C5C1BD001B050EA410C0CBF59
:1009A80052EA430C91EA030F02BF90EA020F0020BB
:1009B800704710F1000F91EA030F58BF994208BF22
:1009C80090422CBFD8176FEAE37040F001007047DF
:1009D8004FEA410C7FEA6C5C02D150EA013C07D136
:1009E8004FEA430C7FEA6C5CD6D152EA033CD3D081
:1009F8005DF8040B704700BF8446104662468C467B
:100A08001946634600E000BF01B5FFF7B7FF0028AD
:100A180048BF10F1000F01BD4DF808EDFFF7F4FFD6
:100A28000CBF012000205DF808FB00BF4DF808ED61
:100A3800FFF7EAFF34BF012000205DF808FB00BF84
:100A48004DF808EDFFF7E0FF94BF012000205DF8A6
:100A580008FB00BF4DF808EDFFF7CEFF94BF01205B
:100A680000205DF808FB00BF4DF808EDFFF7C4FF54
:100A780034BF012000205DF808FB00BF4FEA4102A7
:100A880012F5001215D211D56FF47873B3EB6252D8
:100A980012D94FEAC12343F0004343EA505311F0FF
:100AA800004F23FA02F018BF404270474FF0000091
:100AB800704750EA013005D111F0004008BF6FF0CF
:100AC800004070474FF00000704700BF4FEA4102F6
:100AD800B2F1E04324BFB3F5001CDCF1FE5C0DD994
:100AE80001F0004C4FEAC0024CEA5070B2F1004FDE
:100AF80040EB830008BF20F00100704711F0804FE1
:100B080021D113F13872BCBF01F00040704741F4A5
:100B180080114FEA5252C2F11802C2F1200C10FAA9
:100B28000CF320FA02F018BF40F001004FEAC1238D
:100B38004FEAD32303FA0CFC40EA0C0023FA02F331
:100B48004FEA4303CCE77FEA625307D150EA013307
:100B58001EBF4FF0FE4040F44000704701F00040D7
:100B680040F0FE4040F40000704700BF0348044BCB
:100B7800834202D0034B03B118477047C0040020DA
:100B8800C00400200000000005480649091A891021
:100B980001EBD171491002D0034B03B118477047DC
:100BA800C0040020C00400200000000010B5064C5E
:100BB800237843B9FFF7DAFF044B13B10448AFF3C6
:100BC80000800123237010BDC00400200000000035
:100BD80044FD000808B5054B1BB105490548AFF3AE
:100BE8000080BDE80840FFF7CFBF00BF000000004D
:100BF800C404002044FD000880B485B000AF7860CC
:100C08007B6803F00703FB600C4BDB68BB60BA68CA
:100C18004FF6FF031340BB60FB681A02BB6813431F
:100C280043F0BF6343F40033BB60044ABB68D3603E
:100C380000BF1437BD465DF8047B704700ED00E047
:100C480080B400AFBFF34F8F054BDB6803F4E0625D
:100C58000349044B1343CB60BFF34F8F00BFFDE73D
:100C680000ED00E00400FA0580B483B000AF7860BE
:100C78007B689B6823F0004323F03F0343F008029E
:100C88007B689A6000BF0C37BD465DF8047B7047EF
:100C980080B483B000AF78607B6840221A6000BFE0
:100CA8000C37BD465DF8047B704780B483B000AF55
:100CB800786039607B68D3F894233B68C3F30B03EF
:100CC8001A437B68C3F8942300BF0C37BD465DF810
:100CD800047B704780B483B000AF786039607B686C
:100CE800D3F898233B68C3F30B031A437B68C3F814
:100CF800982300BF0C37BD465DF8047B70470000A1
:100D080090B484B000AF786039603B68FB60FB68E2
:100D180093FAA3F3BB60BB68B3FA83F3DBB2103B6F
:100D2800DBB21C467B6814331A46064B33F8143082
:100D380013441C4623689BB218461037BD4690BC26
:100D4800704700BF60FD000890B486B000AFF8603F
:100D5800B9607A60BB687B617B6993FAA3F33B61F6
:100D68003B69B3FA83F3DBB2103BDBB21C46FB688A
:100D78001C331A46074B33F8143013441C462368B7
:100D88001B0C1B047A681343236000BF1837BD4649
:100D980090BC704760FD000880B400AF054B1B682D
:100DA800044A43F48033136000BFBD465DF8047BFA
:100DB800704700BF0010024080B400AF074B1B68AB
:100DC80003F40033B3F5003F01D1012300E0002311
:100DD8001846BD465DF8047B704700BF001002400E
:100DE80080B483B000AF7860064B9B6823F00302A1
:100DF80004497B6813438B6000BF0C37BD465DF820
:100E0800047B70470010024080B400AF044B9B681D
:100E180003F00C031846BD465DF8047B704700BF1D
:100E28000010024080B483B000AF7860064B9B6826
:100E380023F0F00204497B6813438B6000BF0C3732
:100E4800BD465DF8047B70470010024080B483B053
:100E580000AF7860064B9B6823F4E06204497B6826
:100E680013438B6000BF0C37BD465DF8047B7047A9
:100E78000010024080B483B000AF7860064B9B68D6
:100E880023F4605204497B6813438B6000BF0C371E
:100E9800BD465DF8047B70470010024080B483B003
:100EA80000AF7860094BD3F888207B681B0CDB43C4
:100EB8001A407B689BB205491343C1F8883000BFCC
:100EC8000C37BD465DF8047B704700BF0010024038
:100ED80080B483B000AF7860074BD3F8883023F430
:100EE800402205497B681343C1F8883000BF0C379E
:100EF800BD465DF8047B70470010024080B483B0A3
:100F080000AF78600E4BD3F888207B681B0C03F089
:100F18001F03032101FA03F3DB431A407B68D9B2AC
:100F28007B681B0C03F01F0301FA03F30449134306
:100F3800C1F8883000BF0C37BD465DF8047B7047A8
:100F48000010024080B400AF054B1B68044A43F010
:100F58008073136000BFBD465DF8047B704700BF17
:100F68000010024080B400AF074B1B6803F0007309
:100F7800B3F1007F01D1012300E000231846BD46EC
:100F88005DF8047B704700BF0010024080B485B054
:100F980000AFF860B9607A603B600A4BDA680A4BC8
:100FA8001340F968BA6811437A68120211433A6823
:100FB8000A4304491343CB6000BF1437BD465DF8AC
:100FC800047B7047001002400C80FFF980B485B0A4
:100FD80000AFF860B9607A603B600A4BDA680A4B88
:100FE8001340F968BA6811437A68120211433A68E3
:100FF8000A4304491343CB6000BF1437BD465DF86C
:10100800047B7047001002400C80FF0780B400AFDB
:10101800054BDB68044A43F48033D36000BFBD4608
:101028005DF8047B704700BF0010024080B400AF39
:10103800054BDB68044A43F08073D36000BFBD46AC
:101048005DF8047B704700BF0010024080B485B093
:1010580000AF7860084B9A6D07497B6813438B652E
:10106800054B9A6D7B681340FB60FB6800BF143723
:10107800BD465DF8047B70470010024080B485B01F
:1010880000AF7860084B1A6E07497B6813430B66FC
:10109800054B1A6E7B681340FB60FB6800BF143772
:1010A800BD465DF8047B70470010024080B483B0F1
:1010B80000AF7860064B1B6823F00F0204497B6879
:1010C80013430B6000BF0C37BD465DF8047B7047C7
:1010D8000020024080B483B000AF78607B68042BA6
:1010E80006D1094B1B68084A43F00403136005E066
:1010F800054B1B68044A23F00403136000BF0C3738
:10110800BD465DF8047B704710E000E080B400AF96
:10111800064BD3F88030054A23F48073C2F8803038
:1011280000BFBD465DF8047B704700BF00700040FB
:1011380080B400AF054B9B68044A23F48043936056
:1011480000BFBD465DF8047B704700BF00700040DB
:1011580080B483B000AF78607B685B6B18460C374F
:10116800BD465DF8047B704780B483B000AF7860FB
:101178007B689B6B18460C37BD465DF8047B70474F
:1011880080B483B000AF78607B686FF002021A61A8
:1011980000BF0C37BD465DF8047B704780B483B050
:1011A80000AF78607B681B6903F00203022B01D152
:1011B800012300E0002318460C37BD465DF8047B88
:1011C800704780B483B000AF786039607B681A6973
:1011D8003B6813403A689A4201D1012300E000239A
:1011E80018460C37BD465DF8047B704780B483B061
:1011F80000AF786039607B683A689A6200BF0C3744
:10120800BD465DF8047B704780B483B000AF78605A
:1012180039607B685A693B685A407B685A6100BFED
:101228000C37BD465DF8047B704780B483B000AFCF
:1012380078607B6893ED037A7B68D3ED006A7B68FE
:10124800D3ED027A76EEE77A27EE277A7B68D3ED3C
:10125800027A77EE277A7B68C3ED027A00BF0C37F3
:10126800BD465DF8047B704780B483B000AF7860FA
:101278007B6893ED037A7B68D3ED026A7B6893ED14
:10128800006A7B68D3ED017A76EE677A76EEA77A04
:1012980067EE277A7B68C3ED027A7B681A687B68F9
:1012A8005A6000BF0C37BD465DF8047B70470000EC
:1012B80080B485B000AF78607B685B127B60284B98
:1012C8001B68C3F11E037A6802FA03F3FB60244B20
:1012D8001B68012202FA03F37A68D31A7B60204B59
:1012E8001B68C3F11F037A6802FA03F37B601C4B87
:1012F8001B68C3F11F037A6842FA03F37B607B68BB
:101308007A6802FB03F2164B1B68073B5B0042FA44
:1013180003F37B60134B1A68134B1B68796801FB56
:1013280003F39B13D31ABB60104B1B6801229A402E
:101338007B68B96801FB03F31B14D31ABB60BB6855
:101348001B03BB60FB68002B02DABB685B4200E052
:10135800BB6818461437BD465DF8047B704700BF6C
:1013680070FD000874FD000878FD00087CFD000889
:1013780090B583B000AF78607B684FEAE3740F4A9A
:1013880002FB04F1002202FB03F20A440B49A3FB0F
:101398000134224414464FF000014FF00002190EA8
:1013A80041EA042122160B467B607868FFF780FF2C
:1013B800034618460C37BD4690BD00BF60BE2800E6
:1013C80090B583B000AF78607B684FEAE374104A49
:1013D80002FB04F1002202FB03F20A440C49A3FBBE
:1013E8000134224414464FF000014FF00002190E58
:1013F80041EA042122160B467B607B6803F58003D3
:101408001846FFF755FF034618460C37BD4690BDF2
:1014180060BE280080B483B000AF78607B68304A33
:10142800C3F89C207B6893ED277AF0EE006AC7EE3C
:10143800267A7B68C3ED287A7B682A4A9A647B6897
:10144800294AC3F880207B68284A9A677B68284A1B
:10145800DA677B684FF07E521A667B68254A9A6580
:101468007B68254AC3F8A4207B68244ADA657B6830
:1014780093ED1E7AF7EE006AC6EE877A7B68C3EDB5
:101488002A7A7B6893ED1F7AF7EE006AC6EE877AB0
:101498007B68C3ED2B7A7B68D3F8A4207B68C3F8FC
:1014A80084207B684FF00002C3F888207B684FF0E7
:1014B80000025A667B684FF000029A667B684FF01C
:1014C8000002DA647B684FF000029A627B684FF092
:1014D8000002DA6200BF0C37BD465DF8047B704736
:1014E80017B751380000C04148E1BA3FE71DA73B94
:1014F800CA54C13B9C534936B1BFAC3D83A8FB37A6
:1015080090B585B000AF78607B6893ED127A7B6800
:10151800D3ED077A67EE277A7B68C3ED037A7B6899
:1015280093ED127A7B68D3ED087A67EE277A7B68A9
:10153800C3ED047A7B6893ED127A7B68D3ED097A60
:1015480067EE277A7B68C3ED057A7B6893ED037AAB
:101558007B68D3ED047A37EE277A7B68D3ED057A7A
:1015680077EE277A9FEDCF7A67EE877A7B68C3EDAF
:10157800067A7B6893ED037A7B68D3ED067A77EE7B
:10158800677A7B68C3ED007A7B6893ED047A7B68A1
:10159800D3ED067A77EE677A7B68C3ED017A7B68CC
:1015A80093ED057A7B68D3ED067A77EE677A7B68E8
:1015B800C3ED027A7B681A687B689A637B68D3ED0F
:1015C800007A9FEDB97A27EE877A7B68D3ED017AA6
:1015D800DFEDB66A67EEA67A77EE277A7B68C3ED09
:1015E8000F7A7B68D3ED197A9FEDB17A67EE877A27
:1015F800FDEEE77A17EE900AFFF7E2FE07EE900A93
:10160800F8EEE77A9FEDAB7A67EE877A7B68C3EDF1
:101618001B7A7B68D3ED197A9FEDA57A67EE877AF6
:10162800FDEEE77A17EE900AFFF7A2FE07EE900AA2
:10163800F8EEE77A9FED9F7A67EE877A7B68C3EDCD
:101648001C7A7B6893ED0E7A7B68D3ED1B7A27EEC4
:10165800277A7B68D3ED0F6A7B68D3ED1C7A66EE38
:10166800A77A77EE277A7B68C3ED107A7B68D3ED8B
:101678000E7AB1EE677A7B68D3ED1C7A27EE277A6B
:101688007B68D3ED0F6A7B68D3ED1B7A66EEA77A89
:1016980077EE277A7B68C3ED117A7B6893ED107A31
:1016A8007B68D3ED0C6A7B68D3ED207A66EEA77A67
:1016B80037EE677A7B68D3ED226A7B68D3ED137ABD
:1016C80066EEA77A77EE277A7B68C3ED257A7B6882
:1016D80093ED117A7B68D3ED0D6A7B68D3ED207AA0
:1016E80066EEA77A37EE677A7B68D3ED216A7B6866
:1016F800D3ED137A66EEA77A77EE677A7B68C3ED47
:10170800267A7B6893ED217A7B68D3ED256A7B681E
:10171800D3ED277A66EEA77A77EE277A7B68C3ED52
:10172800237A7B6893ED227A7B68D3ED266A7B68FF
:10173800D3ED277A66EEA77A77EE277A7B68C3ED32
:10174800247A7B6893ED237A7B68D3ED297A37EE88
:10175800677A7B68D3ED2A7A67EE277A7B68C3EDD0
:101768000C7A7B6893ED247A7B68D3ED2B7A67EE4D
:10177800277A7B68C3ED0D7A7B6893ED217A7B68C5
:10178800D3ED286A7B6893ED256A7B68D3ED105A00
:101798007B6893ED0C5A7B68D3ED207A65EE277A47
:1017A80075EEE75A7B6893ED225A7B68D3ED137A7E
:1017B80065EE277A75EEA77A76EE277A66EEA77A2F
:1017C80077EE277A7B68C3ED217A7B6893ED227ADE
:1017D8007B68D3ED286A7B6893ED266A7B68D3ED36
:1017E800115A7B6893ED0D5A7B68D3ED207A65EE2C
:1017F800277A75EEE75A7B6893ED215A7B68D3ED1B
:10180800137A65EE277A75EEE77A76EE277A66EE32
:10181800A77A77EE277A7B68C3ED227A7B6893ED07
:10182800217A7B68D3ED297A37EE677A7B68D3ED26
:101838002A7A67EE277A7B68C3ED0C7A7B6893ED8A
:10184800227A7B68D3ED2B7A67EE277A7B68C3ED23
:101858000D7A7B6893ED0C7A7B68D3ED1B7A27EEC3
:10186800277A7B68D3ED0D6A7B68D3ED1C7A66EE28
:10187800A77A77EE677A7B68C3ED0A7A7B6893ED7F
:101888000C7A7B68D3ED1C7A27EE277A7B68D3ED38
:101898000D6A7B68D3ED1B7A66EEA77A77EE277A16
:1018A8000AE000BFAAAAAA3E3ACD133F3ACD933F19
:1018B8000000804B000080337B68C3ED0B7A7B68A7
:1018C800D3ED187AB7EE087A27EE877A7B68D3EDDE
:1018D800216A7B68D3ED0D7A66EEA76A7B6893ED83
:1018E800226A7B68D3ED0C7A66EE277A76EEE77A81
:1018F80067EE277A7B68C3ED157A7B684FF00002A4
:10190800C3F8C4207B68D3ED137AF5EEC07AF1EE04
:1019180010FA0ADD7B6893ED307A7B68D3ED177A8D
:1019280077EE277A7B68C3ED317A7B68D3ED137A3B
:10193800F5EEC07AF1EE10FA0CD57B68D3ED307A6B
:10194800B1EE677A7B68D3ED177A77EE677A7B68B2
:10195800C3ED317A7B68D3ED276A7B68D3ED167ABD
:1019680086EEA77A7B68D3ED156A7B68D3ED317A6A
:1019780076EEE77A67EE277AC7ED037AD7ED037A32
:10198800B0EEE77A7B68D3ED137AF0EEE77AB4EE3F
:10199800E77AF1EE10FA13DD7B68D3ED157AB0EE35
:1019A800E77A7B68D3ED307AB4EEE77AF1EE10FA95
:1019B80006D57B684FF00002DA644FF00003FB6045
:1019C8007B6893ED137AD7ED037A77EE277A7B68F5
:1019D800C3ED137A7B68DB6C1846FEF75DFD5FA3E9
:1019E800D3E90023FEF7B0FD03460C46184621460E
:1019F800FFF76CF802467B681A657B6893ED137AEB
:101A08007B68D3ED157A67EE277A7B68C3ED2F7A6A
:101A18007B689A6A7B68C3F8B0207B68D3ED0A7A42
:101A2800BEEE007A27EE877A7B68D3ED0B7ADFED7E
:101A3800466A67EEA67A77EE277A7B68C3ED2D7A39
:101A48007B68D3ED0A7ABEEE007A27EE877A7B6848
:101A5800D3ED0B7ADFED3C6A67EEA67A77EE677A0C
:101A68007B68C3ED2E7A7B6893ED1A7A7B68D3ED99
:101A7800276A7B68D3ED137A66EEA77A77EE277A22
:101A88007B68C3ED1A7A7B68D3ED1A7A9FED2F7ABB
:101A9800F4EEC77AF1EE10FA09DD7B68D3ED1A7A15
:101AA8009FED2B7A77EE677A7B68C3ED1A7A7B68AD
:101AB800D3ED1A7A9FED277AF4EEC77AF1EE10FA91
:101AC80009D57B68D3ED1A7A9FED237A77EE877A6A
:101AD8007B68C3ED1A7A7B6893ED1A7A7B68D3ED3D
:101AE800187A67EE277A7B68C3ED197A7B68D3ED9D
:101AF800197A9FED167AF4EEC77AF1EE10FA09DD3D
:101B08007B68D3ED197A9FED127A77EE677A7B6856
:101B1800C3ED197A7B68D3ED197A9FED0E7AF4EE4E
:101B2800C77AF1EE10FA00D409E07B68D3ED197A90
:101B38009FED097A77EE877A7B68C3ED197A00BF43
:101B48001437BD4690BD00BFD7B35D3FDA0F49409B
:101B5800DA0FC9C0DA0F49C0DA0FC940529D0E64C6
:101B68003D19234080B584B000AFF860B9607A6051
:101B78007B68052B00F2B28001A252F823F000BF67
:101B8800A11B0008D71B00080D1C0008431C0008F7
:101B9800791C0008AF1C0008C0215348FFF79AF8C9
:101BA80033215148FFF781F8FA68BB6813441A4695
:101BB8004FF400314C48FFF7C7F8FA68BB68D31AEE
:101BC8001A464FF400214848FFF7BEF887E0302155
:101BD8004548FFF77FF8C3214348FFF766F8FA68DE
:101BE800BB6813441A464FF400313F48FFF7ACF87E
:101BF800FA68BB68D31A1A464FF480113A48FFF7BF
:101C0800A3F86CE003213848FFF764F8F021364860
:101C1800FFF74BF8FA68BB6813441A464FF40021E3
:101C28003148FFF791F8FA68BB68D31A1A464FF49F
:101C380080112D48FFF788F851E0C0212A48FFF7A6
:101C480049F833212848FFF730F8FA68BB68D31AF7
:101C58001A464FF400312448FFF776F8FA68BB6853
:101C680013441A464FF400211F48FFF76DF836E079
:101C780030211D48FFF72EF8C3211B48FFF715F840
:101C8800FA68BB68D31A1A464FF400311648FFF7B2
:101C98005BF8FA68BB6813441A464FF4801112487F
:101CA800FFF752F81BE003210F48FFF713F8F02164
:101CB8000D48FEF7FAFFFA68BB68D31A1A464FF4C4
:101CC80000210948FFF740F8FA68BB6813441A4630
:101CD8004FF480110448FFF737F800E000BF00BF59
:101CE8001037BD4680BD00BF0068014080B483B096
:101CF80000AF78607B685A687B685A617B68D3ED6F
:101D0800017AB6EE007A27EE877A7B68D3ED007AFF
:101D1800DFED606A67EEA67A77EE277A7B68C3ED17
:101D2800067A7B6893ED067A7B68D3ED057A77EEC1
:101D3800677A7B68C3ED077A7B68032283F82020E3
:101D48007B68D3ED067AF5EEC07AF1EE10FA06DD7F
:101D58007B6893F82030DBB2013BDBB203E07B68A1
:101D680093F82030DBB27A6882F820307B68D3EDB4
:101D7800077AF5EEC07AF1EE10FA06DD7B6893F883
:101D88002030DBB2013BDBB203E07B6893F8203004
:101D9800DBB27A6882F820307B68D3ED057AF5EEFD
:101DA800C07AF1EE10FA07D57B6893F82030DBB2E1
:101DB800C3F10703DBB203E07B6893F82030DBB2A2
:101DC8007A6882F820307B6893F82030DBB2012BE8
:101DD80005D07B6893F82030DBB2042B17D17B68E1
:101DE8009A697B689A607B6893ED057A7B68D3ED86
:101DF800077A77EE677A7B68C3ED037A7B68D3ED61
:101E0800067AF1EE677A7B68C3ED047A3CE07B687A
:101E180093F82030DBB2022B05D07B6893F8203092
:101E2800DBB2052B17D17B6893ED077A7B68D3ED7E
:101E3800067A77EE277A7B68C3ED027A7B685A695F
:101E48007B68DA607B68D3ED057AF1EE677A7B68A8
:101E5800C3ED047A18E07B68DA697B689A607B686E
:101E6800D3ED077AF1EE677A7B68C3ED037A7B6876
:101E780093ED057A7B68D3ED067A77EE277AF1EE53
:101E8800677A7B68C3ED047A00BF0C37BD465DF8FE
:101E9800047B7047D7B35D3F80B483B000AF7860F0
:101EA8007B6893ED007A7B68D3ED017A77EE677AE9
:101EB8007B68C3ED027A7B6893ED037A7B68D3ED88
:101EC800027A67EE277A7B68C3ED047A7B6893ED24
:101ED8000C7A7B68D3ED047A27EE277A7B68D3EDFA
:101EE8000D6A7B68D3ED0B7A66EEA77A37EE277A10
:101EF8007B68D3ED057A77EE277A7B68C3ED057AA0
:101F08007B6893ED047A7B68D3ED057A77EE277AC0
:101F18007B68C3ED077A7B6893ED077A7B68D3ED1E
:101F2800087AB4EEE77AF1EE10FA02DD7B681B6AF4
:101F38000FE07B6893ED077A7B68D3ED097AB4EEFE
:101F4800E77AF1EE10FA02D57B685B6A01E07B68FC
:101F5800DB697A6893627B6893ED0A7A7B68D3EDD4
:101F6800077A77EE677A7B68C3ED0B7A7B681A6924
:101F78007B68DA6300BF0C37BD465DF8047B7047A9
:101F880080B483B000AF78607B68D3ED007A9FEDB2
:101F9800337A67EE877A7B68C3ED0E7A7B6893EDB8
:101FA8000E7A7B68D3ED017A77EEA76A7B68D3ED6A
:101FB800027A76EEE76A7B68D3ED037A76EEE77A03
:101FC80067EE277A7B68C3ED057A7B6893ED0E7A16
:101FD8007B68D3ED027A77EEA76A7B68D3ED017A46
:101FE80076EEE76A7B68D3ED037A76EEE77A67EEFA
:101FF800277A7B68C3ED067A7B681B7CDBB2002BF3
:102008000FD07B68D3ED057AF1EE677A7B68C3ED74
:10201800057A7B68D3ED067AF1EE677A7B68C3EDC3
:10202800067A7B685A697B681A627B68D3ED057A01
:102038009FED0B7A27EE877A7B68D3ED067ADFED82
:10204800096A67EEA67A77EE277A7B68C3ED097A84
:1020580000BF0C37BD465DF8047B7047AAAAAA3EAC
:102068003ACD133F3ACD933F80B58AB000AF786040
:102078007B6893ED067A7B68D3ED007A67EE277A62
:10208800C7ED097A7B6893ED067A7B68D3ED017A10
:1020980067EE277AC7ED087A7B6893ED057A7B6847
:1020A800D3ED007A67EE277AC7ED077A7B6893ED60
:1020B800057A7B68D3ED017A67EE277AC7ED067A51
:1020C8007B6893ED047A7B68D3ED047A67EE277A10
:1020D800C7ED057A7B6893ED077AD7ED097A37EE75
:1020E800677A7B68D3ED076AD7ED097A76EEE77AE7
:1020F80027EE277A7B68D3ED086AD7ED087A76EE63
:10210800E76A7B6893ED086AD7ED087A76EE677A16
:1021180066EEA77A77EE277A97ED057A77EE677AF3
:10212800C7ED047A7B6893ED027AD7ED077A37EE2C
:10213800677A7B68D3ED0B6A7B6893ED076AD7ED06
:10214800097A76EE677A66EEA76AD7ED047A66EEC4
:10215800A77A77EE277AC7ED037A7B6893ED037A3F
:10216800D7ED067A37EE677A7B68D3ED0B6A7B6822
:1021780093ED086AD7ED087A76EE677A66EEA76A75
:10218800D7ED047A66EEA77A77EE277AC7ED027A5A
:102198007B6893ED097AD7ED037A27EE277A7B6877
:1021A800D3ED077A77EE277A7B68C3ED077A7B68E9
:1021B80093ED097AD7ED027A27EE277A7B68D3ED7B
:1021C800087A77EE277A7B68C3ED087A7B6893ED07
:1021D800087AD7ED087A77EE676A7B6893ED077A15
:1021E800D7ED097A77EE677AF0EE670AB0EE660AFD
:1021F8000DF014F8F0EE407A7B68C3ED0A7A00BF60
:102208002837BD4680BD000080B582B000AF786039
:102218007B6893ED057A7B68D3ED047A27EE277AFD
:102228007B68D3ED036A7B6893ED006A7B68D3ED26
:10223800017A36EE676A7B68D3ED027A76EE677AC2
:1022480066EEA77A77EE277A7B68C3ED047A7B6817
:1022580093ED057A7B68D3ED097A27EE277A7B68B8
:10226800D3ED036A7B6893ED066A7B68D3ED077A42
:1022780036EE676A7B68D3ED087A76EE677A66EEA3
:10228800A77A77EE277A7B68C3ED097A7B6893EDA6
:10229800047A7B68D3ED0A7A77EE677A7B68C3EDB8
:1022A8000B7A7B6893ED097A7B68D3ED0D7A77EE2C
:1022B800677A7B68C3ED0E7A7B6893ED0B7A7B684F
:1022C800D3ED117AB4EEE77AF1EE10FA03DD7B680C
:1022D800D3ED117A15E07B6893ED0B7A7B68D3ED2B
:1022E800117AF1EE677AB4EEE77AF1EE10FA05D5D5
:1022F8007B68D3ED117AF1EE677A02E07B68D3ED63
:102308000B7A7B6893ED0C7A37EE077A67EE877A5B
:102318007B68C3ED027A7B6893ED0E7A7B68D3ED18
:10232800117AB4EEE77AF1EE10FA03DD7B68D3EDAB
:10233800117A15E07B6893ED0E7A7B68D3ED117AFC
:10234800F1EE677AB4EEE77AF1EE10FA05D57B681C
:10235800D3ED117AF1EE677A02E07B68D3ED0E7A5D
:102368007B6893ED0C7A37EE077A67EE877A7B689D
:10237800C3ED087A7B6893ED127AF7EE006AC6EE31
:10238800877A7B68C3ED137A7B689A687B68DA651D
:102398007B68D3ED137A9FED507A37EE877ADFEDBD
:1023A8004E6AC6EE877A7B68C3ED1A7A7B685C331F
:1023B8001846FEF73AFF7B68D3ED136A7B68D3EDC6
:1023C800137A9FED457A37EE877AC6EE877A7B686F
:1023D800C3ED1E7A7B68D3ED197A9FED407A77EECC
:1023E800877A7B68C3ED1B7A7B686C331846FEF7E7
:1023F8003BFF7B68D3ED1D7A77EEA77A7B68C3ED48
:10240800147A7B681A6A7B68DA677B689A6E7B68DD
:10241800C3F888207B687C331846FEF706FF7B6884
:102428009A6F7B68C3F898207B68D3ED217A9FED7B
:102438002B7A77EE877A7B68C3ED237A7B688C33B7
:102448001846FEF711FF7B68D3ED257A77EEA77A59
:102458007B68C3ED157A7B6893ED017A7B68D3EDD1
:102468000F6A7B6893ED026A7B68D3ED017A76EE9A
:10247800677A66EEA77A77EE277A7B68C3ED017AEA
:102488007B6893ED077A7B68D3ED0F6A7B6893EDE1
:10249800086A7B68D3ED077A76EE677A66EEA77AE4
:1024A80077EE277A7B68C3ED077A7B68D3ED147AD9
:1024B800F1EE677A7B6893ED157AF0EE470AB0EE95
:1024C800670A0CF0ABFEF0EE407A7B68C3ED107A39
:1024D80000BF0837BD4680BD6F12033808E53C1EB3
:1024E80080B483B000AF78607B6893F82630DBB2A5
:1024F800002B00F081807B6893ED057A7B68D3ED33
:10250800017AB4EEE77AF1EE10FA0CDA7B6893ED13
:10251800057A7B68D3ED017AF1EE677AB4EEE77A53
:10252800F1EE10FA06D87B6801221A707B68012246
:1025380083F824207B6893ED067A7B68D3ED017AD3
:10254800B4EEE77AF1EE10FA0CDA7B6893ED067ACE
:102558007B68D3ED017AF1EE677AB4EEE77AF1EEB3
:1025680010FA06D87B6802221A707B68012283F869
:1025780024207B6893ED077A7B68D3ED027AB4EE6A
:10258800E77AF1EE10FA06DB7B6803221A707B68A3
:10259800012283F824207B6893ED077A7B68D3EDCA
:1025A800037AB4EEE77AF1EE10FA0CD87B6893F868
:1025B8002530DBB2002B06D07B6805221A707B68B9
:1025C800012283F824207B6893ED087A7B68D3ED99
:1025D800047AB4EEE77AF1EE10FA00DA0CE07B68E0
:1025E80093F82530DBB2002B06D07B6804221A70E2
:1025F8007B68012283F8242000BF0C37BD465DF8B4
:10260800047B704780B483B000AF78607B6893ED3B
:10261800007A7B68D3ED047A77EE677A9FED467A85
:1026280077EE877A7B68C3ED027A7B68D3ED027A0E
:102638009FED427AF4EEC77AF1EE10FA0AD57B687C
:10264800D3ED027A9FED3E7A77EE877A7B68C3ED09
:10265800027A13E07B68D3ED027A9FED3A7AF4EEC2
:10266800C77AF1EE10FA09DD7B68D3ED027A9FEDA7
:10267800347A77EEC77A7B68C3ED027A7B6893ED8C
:10268800037A7B68D3ED026A7B68D3ED057A66EE40
:10269800A77A37EE277A7B68D3ED017A27EE277A77
:1026A8007B68D3ED047A77EE277A7B68C3ED047AEA
:1026B8007B68D3ED047A9FED217AF4EEC77AF1EEC8
:1026C80010FA0AD57B68D3ED047A9FED1D7A77EE70
:1026D800877A7B68C3ED047A13E07B68D3ED047ACC
:1026E8009FED187AF4EEC77AF1EE10FA09DD7B68EF
:1026F800D3ED047A9FED127A77EEC77A7B68C3ED43
:10270800047A7B6893ED027A7B68D3ED067A27EE2C
:10271800277A7B68D3ED017A27EE277A7B68D3ED99
:10272800037A77EE277A7B68C3ED037A00BF0C370C
:10273800BD465DF8047B704708E53C1EDB0F49C0C9
:10274800DB0FC940DB0F494080B483B000AF78602D
:102758007B6800221A707B6893ED037A7B68D3ED5F
:10276800047A37EE277A7B68D3ED057A77EE277AF5
:102778009FEDB57A67EE877A7B68C3ED0B7A7B6845
:1027880093ED037A7B68D3ED0B7A77EE677A7B68F3
:10279800C3ED067A7B6893ED047A7B68D3ED0B7AF8
:1027A80077EE677A7B68C3ED077A7B6893ED057AE5
:1027B8007B68D3ED0B7A77EE677A7B68C3ED087A8E
:1027C8007B6893F82430DBB2012B40F06F817B6883
:1027D80093F82530DBB2052B00F2698101A252F88B
:1027E80023F000BF0528000877280008E92800081A
:1027F8005B290008CD2900083F2A00087B68D3ED33
:10280800087AF5EEC07AF1EE10FA00DC4FE17B6849
:1028180093ED087A7B68D3ED017A77EE277A7B68A7
:10282800C3ED017A7B68D3ED017AF5EEC07AF1EE5B
:1028380010FA08D57B68D3ED017AF1EE677A7B68E8
:10284800C3ED017A02E07B68D3ED017A7B6893EDF2
:10285800027AF4EEC77AF1EE10FA00DC27E17B6821
:102868004FF000025A607B6801221A701FE17B68F2
:10287800D3ED077AF5EEC07AF1EE10FA00D416E13E
:102888007B6893ED077A7B68D3ED017A77EE277A38
:102898007B68C3ED017A7B68D3ED017AF5EEC07AE7
:1028A800F1EE10FA08D57B68D3ED017AF1EE677A7C
:1028B8007B68C3ED017A02E07B68D3ED017A7B681F
:1028C80093ED027AF4EEC77AF1EE10FA00DCEEE04E
:1028D8007B684FF000025A607B6801221A70E6E0BC
:1028E8007B68D3ED067AF5EEC07AF1EE10FA00DCDB
:1028F800DDE07B6893ED067A7B68D3ED017A77EEAD
:10290800277A7B68C3ED017A7B68D3ED017AF5EE0F
:10291800C07AF1EE10FA08D57B68D3ED017AF1EEB2
:10292800677A7B68C3ED017A02E07B68D3ED017AB0
:102938007B6893ED027AF4EEC77AF1EE10FA00DCC8
:10294800B5E07B684FF000025A607B6801221A707C
:10295800ADE07B68D3ED087AF5EEC07AF1EE10FAB7
:1029680000D4A4E07B6893ED087A7B68D3ED017A04
:1029780077EE277A7B68C3ED017A7B68D3ED017A1D
:10298800F5EEC07AF1EE10FA08D57B68D3ED017A3E
:10299800F1EE677A7B68C3ED017A02E07B68D3EDDC
:1029A800017A7B6893ED027AF4EEC77AF1EE10FAB9
:1029B80000DC7CE07B684FF000025A607B680122F3
:1029C8001A7074E07B68D3ED077AF5EEC07AF1EE01
:1029D80010FA00DC6BE07B6893ED077A7B68D3ED37
:1029E800017A77EE277A7B68C3ED017A7B68D3EDAD
:1029F800017AF5EEC07AF1EE10FA08D57B68D3EDCE
:102A0800017AF1EE677A7B68C3ED017A02E07B68B0
:102A1800D3ED017A7B6893ED027AF4EEC77AF1EE92
:102A280010FA00DC43E07B684FF000025A607B68D4
:102A380001221A703BE07B68D3ED067AF5EEC07A86
:102A4800F1EE10FA02D432E09FAAAA3E7B6893ED19
:102A5800067A7B68D3ED017A77EE277A7B68C3ED37
:102A6800017A7B68D3ED017AF5EEC07AF1EE10FABF
:102A780008D57B68D3ED017AF1EE677A7B68C3ED00
:102A8800017A02E07B68D3ED017A7B6893ED027AE4
:102A9800F4EEC77AF1EE10FA00DC08E07B684FF03C
:102AA80000025A607B6801221A7000E000BF7B6850
:102AB80093F82430DBB2002B40F06C817B6893F8EC
:102AC8002530DBB2052B00F2668101A252F823F013
:102AD800F12A0008632B0008D52B0008472C0008B2
:102AE800B92C00082B2D00087B68D3ED087AF5EE89
:102AF800C07AF1EE10FA00D44DE17B6893ED087AC4
:102B08007B68D3ED017A77EE277A7B68C3ED017A8B
:102B18007B68D3ED017AF5EEC07AF1EE10FA08D5AC
:102B28007B68D3ED017AF1EE677A7B68C3ED017AB1
:102B380002E07B68D3ED017A7B6893ED027AF4EECC
:102B4800C77AF1EE10FA00DC25E17B684FF000024D
:102B58005A607B6801221A701DE17B68D3ED077A01
:102B6800F5EEC07AF1EE10FA00DC14E17B6893ED23
:102B7800077A7B68D3ED017A77EE277A7B68C3ED15
:102B8800017A7B68D3ED017AF5EEC07AF1EE10FA9E
:102B980008D57B68D3ED017AF1EE677A7B68C3EDDF
:102BA800017A02E07B68D3ED017A7B6893ED027AC3
:102BB800F4EEC77AF1EE10FA00DCECE07B684FF037
:102BC80000025A607B6801221A70E4E07B68D3ED4A
:102BD800067AF5EEC07AF1EE10FA00D4DBE07B68F5
:102BE80093ED067A7B68D3ED017A77EE277A7B68D6
:102BF800C3ED017A7B68D3ED017AF5EEC07AF1EE88
:102C080010FA08D57B68D3ED017AF1EE677A7B6814
:102C1800C3ED017A02E07B68D3ED017A7B6893ED1E
:102C2800027AF4EEC77AF1EE10FA00DCB3E07B68C2
:102C38004FF000025A607B6801221A70ABE07B6893
:102C4800D3ED087AF5EEC07AF1EE10FA00DCA2E0D6
:102C58007B6893ED087A7B68D3ED017A77EE277A63
:102C68007B68C3ED017A7B68D3ED017AF5EEC07A13
:102C7800F1EE10FA08D57B68D3ED017AF1EE677AA8
:102C88007B68C3ED017A02E07B68D3ED017A7B684B
:102C980093ED027AF4EEC77AF1EE10FA00DC7AE0EE
:102CA8007B684FF000025A607B6801221A7072E05C
:102CB8007B68D3ED077AF5EEC07AF1EE10FA00D40E
:102CC80069E07B6893ED077A7B68D3ED017A77EE4C
:102CD800277A7B68C3ED017A7B68D3ED017AF5EE3C
:102CE800C07AF1EE10FA08D57B68D3ED017AF1EEDF
:102CF800677A7B68C3ED017A02E07B68D3ED017ADD
:102D08007B6893ED027AF4EEC77AF1EE10FA00DCF4
:102D180041E07B684FF000025A607B6801221A701C
:102D280039E07B68D3ED067AF5EEC07AF1EE10FA59
:102D380000DC30E07B6893ED067A7B68D3ED017A9E
:102D480077EE277A7B68C3ED017A7B68D3ED017A49
:102D5800F5EEC07AF1EE10FA08D57B68D3ED017A6A
:102D6800F1EE677A7B68C3ED017A02E07B68D3ED08
:102D7800017A7B6893ED027AF4EEC77AF1EE10FAE5
:102D880000DC08E07B684FF000025A607B68012293
:102D98001A7000E000BF00BF0C37BD465DF8047B29
:102DA800704700BF90B585B000AF78607B6893ED41
:102DB800BC7AF7EE006AC6EE877A77EEA77A7B6868
:102DC800C3EDBD7A7B68D3EDBD7A9FEDC07A67EE1F
:102DD800877A7B68C3ED357A7B68BD4AC3F8D82209
:102DE8007B684FF07852C3F824217B68B94AC3F84E
:102DF80048217B684FF07C52C3F84C217B6893F8DC
:102E0800E032DBB2012B05D17B68D3EDBF7AF1EE5E
:102E1800677A01E0DFEDB07A7B68C3ED4F7A7B68B3
:102E280093F8E032DBB2012B03D17B68D3F8FC3294
:102E380001E04FF07E537A68C2F838317B684FF072
:102E48007852C3F864217B68A24AC3F888217B685A
:102E58004FF07C52C3F88C217B6893F8E032DBB2E8
:102E6800012B05D17B68D3EDBF7AF1EE677A01E0DB
:102E7800DFED997A7B68C3ED5F7A7B6893F8E0327F
:102E8800DBB2012B03D17B68D3F8FC3201E04FF0B1
:102E98007E537A68C2F878317B68D3EDBC7A9FEDAF
:102EA8008F7A67EE877A9FED8E7A67EE877A77EE6C
:102EB800A77AC7ED037A7B6893EDC37AD7ED037AD7
:102EC80067EE277AB6EE007A67EE877A7B68C3EDFD
:102ED800597A7B68C3ED497A7B6893EDC27AD7ED5E
:102EE800037A27EE277A7B68D3EDBD7A67EE277AD7
:102EF800B6EE007A67EE877A7B68C3ED627A7B6804
:102F0800C3ED527A7B6893ED497AF7EE006AC6EE14
:102F1800877A7B68C3ED537A7B6893ED597AF7EE2D
:102F2800006AC6EE877A7B68C3ED637A7B686D4A70
:102F38009A617B6893F8E032DBB2012B01D16A4ACF
:102F480000E06A4A7B68C3F8A4217B6893F8E03202
:102F5800DBB2012B01D1664A00E0664A7B68C3F800
:102F6800C8217B6893ED697AF7EE006AC6EE877A26
:102F78007B68C3ED737A7B6893F8E032DBB2012B90
:102F880005D17B68D3EDBE7AF1EE677A01E0DFED1B
:102F9800527A7B68C3ED6F7A7B6893F8E032DBB2D4
:102FA800012B03D17B68D3F8F83200E0524B7A68E2
:102FB800C2F8B8317B68514A5A627B68D3EDC27A4D
:102FC800F1EE676A7B68D3EDC37A86EEA77A7B68F1
:102FD800D3EDBD7A67EE277A17EE900AFDF75CFA13
:102FE80003460C4644EC103B0CF062FA54EC103BE0
:102FF80018462146FDF76AFD02467B68C3F8EC21B6
:103008007B68D3EDC27AF7EE006A86EEA77A7B6812
:10301800D3ED7B7AF7EE006A76EEE77A67EE277AE9
:103028007B68C3ED797A7B68354AC3F808227B68E8
:10303800D3EDC27AB7EE087A67EE877A7B68C3ED7C
:10304800A27A7B68D3EDC37AB7EE087A67EE877AFF
:103058007B68C3EDA37A7B68D3EDC57A9FED297AA7
:1030680027EE877A7B68D3EDC67A27EE277ADFEDDD
:10307800266AC6EE877A7B68C3EDA17A7B68D3F8A7
:10308800F4227B68C3F898227B68164AC3F8A0220A
:103098007B68D3F8F4227B68C3F8A8237B68174AB7
:1030A800C3F8B8237B68194AC3F8BC237B6893ED3F
:1030B800C87A7B68D3EDBE7AB4EEE77AF1EE10FAFF
:1030C80028DD7B68D3F8F83227E000BFDB0FC94062
:1030D8009A99793FCDCCCC3C00000000CDCC4C3D3A
:1030E800DB0F494000002041CDCC4C3D0AD7233CA2
:1030F8000AD7A33B6F12033AA4707D3F0000FA443D
:103108001FE7073FEF1F2E41000070420060EA46AC
:10311800899BD03A7B68D3F820337A68C2F8203389
:103128007B6893EDC97A7B68D3EDBF7AB4EEE77A12
:10313800F1EE10FA03DD7B68D3F8FC3202E07B681D
:10314800D3F824337A68C2F824337B68D3EDBD6A98
:103158007B68D3EDBD7A1FED127A37EE877AC6EE1B
:10316800877A7B68C3EDE07A7B68D3F880237B6835
:10317800C3F890237B68D3F880237B68C3F8A02327
:103188007B68274AC3F84C237B68264AC3F8E420A7
:103198007B68254AC3F8F0207B68D3EDBD6A7B685D
:1031A800D3EDBD7A9FED217A37EE877AC6EE877A1E
:1031B8007B68C3EDF77A7B68D3EDBD6A7B68D3ED96
:1031C800BD7A9FED1A7A37EE877AC6EE877A7B68E2
:1031D800C3EDFB7A7B68D3EDBD6A7B68D3EDBD7A1E
:1031E8009FED137A37EE877AC6EE877A7B68C3ED50
:1031F800FF7A7B680F4AC3F8CC237B6803F20C4341
:103208000C4A1A607B6803F21C430A4A1A607B68FE
:1032180003F22C43074A1A6000BF1437BD4690BD1D
:1032280017B7D1380000AF43CDCCCC3D6F12833AED
:10323800CDCC4C3EC337223C80B483B000AF78601D
:103248007B681B78DBB2002B47D07B6898687B686B
:1032580003F5804338331A68796800F10A039B0044
:103268000B441A607B6898687B6803F580433C339D
:103278001A68796800F20A439B000B441A607B685D
:1032880098687B6803F5804340331A68796800F6CC
:103298000A039B000B441A607B6898687B6803F5F7
:1032A800804344331A68796800F60A439B000B444C
:1032B8001A607B689B685A1C7B689A607B689B686D
:1032C80040F2FE32934208D97B6801225A707B682B
:1032D80000221A707B6800229A607B685B78DBB2F8
:1032E800002B5DD07B68DB687A68928892B2934243
:1032F8003AD37B689B687A680A339B0013441A6840
:103308007B6803F5804328331A607B689B687A687A
:1033180003F20A439B0013441A687B6803F5804351
:103328002C331A607B689B687A6803F60A039B0053
:1033380013441A687B6803F5804330331A607B684E
:103348009B687A6803F60A439B0013441A687B68F3
:1033580003F5804334331A607B680022DA607B68A7
:103368009B685A1C7B689A607B68DB685A1C7B6880
:10337800DA607B689B6840F2FE32934210D97B6822
:1033880000225A707B6800229A607B680022DA600B
:103398007B689B78DBB2002B02D07B6801221A7015
:1033A80000BF0C37BD465DF8047B704780B582B01E
:1033B80000AF78607B681B78DBB2002B47D07B6856
:1033C80098687B6803F5804338331A68796800F198
:1033D8000A039B000B441A607B6898687B6803F5B6
:1033E80080433C331A68796800F20A439B000B4417
:1033F8001A607B6898687B6803F5804340331A68D5
:10340800796800F60A039B000B441A607B68986889
:103418007B6803F5804344331A68796800F60A43E9
:103428009B000B441A607B689B685A1C7B689A60F7
:103438007B689B6840F2FE32934208D97B68012280
:103448005A707B6800221A707B6800229A607B6839
:103458005B78DBB2002B00F0DC807B689B687A68C5
:103468000A339B0013441A687B6803F580432833AA
:103478001A607B689B687A6803F20A439B001344CE
:103488001A687B6803F580432C331A607B689B6855
:103498007A6803F60A039B0013441A687B6803F5ED
:1034A800804330331A607B689B687A6803F60A4366
:1034B8009B0013441A687B6803F5804334331A6011
:1034C8007B6845221A747B685A225A747B6803F514
:1034D800804328331A787B689A747B6803F58043A5
:1034E800283301331A787B68DA747B6803F58043E4
:1034F800283302331A787B681A757B6803F5804392
:10350800283303331A787B685A757B6803F5804340
:103518002C331A787B689A757B6803F580432C33C3
:1035280001331A787B68DA757B6803F580432C339E
:1035380002331A787B681A767B6803F580432C334C
:1035480003331A787B685A767B6803F580433033F7
:103558001A787B689A767B6803F5804330330133A9
:103568001A787B68DA767B6803F580433033023358
:103578001A787B681A777B6803F580433033033306
:103588001A787B685A777B6803F5804334331A7856
:103598007B689A777B6803F58043343301331A7864
:1035A8007B68DA777B6803F58043343302331A7813
:1035B8007B6883F820207B6803F58043343303332A
:1035C8001A787B6883F821207B6893F82230DBB275
:1035D800012B0AD10AF0EAF87B689B685A1C7B68C1
:1035E8009A607B68002283F822207B689B6840F2FF
:1035F800FE3293420DD97B6800225A707B68002204
:103608009A607B689B78DBB2002B02D07B68012232
:103618001A7000BF0837BD4680BD000080B52DED8B
:10362800028B82B000AF78607B6893ED007A7B688C
:10363800D3ED066A7B68D3ED007A66EEA77A77EE5B
:10364800676A7B6893ED067AC6EE877A7B68C3ED76
:10365800057A7B68D3ED027A9FED167A77EE877A42
:10366800B7EE007A87EE278A7B6893ED057A7B6848
:10367800D3ED017AC7EE276AB0EE660A0BF09CFF1D
:10368800F0EE406A7B6893ED037AC6EE877A38EEEF
:10369800277AF7EE006AC6EE877A9FED067A77EE0C
:1036A800C77A7B68C3ED047A00BF0837BD46BDEC16
:1036B800028B80BD0080884380B584B000AF7860FD
:1036C8007B689B685A1C7B689A607B681B78DBB2B6
:1036D800002B0DD17B685B78DBB2012B08D17B68AE
:1036E8009B78DBB2002B03D17B680022DA705DE0A7
:1036F8007B681B78DBB2002B0DD17B685B78DBB273
:10370800012B08D17B689B78DBB2012B03D17B6846
:103718000122DA704AE07B681B78DBB2002B0DD1FE
:103728007B685B78DBB2002B08D17B689B78DBB2C7
:10373800012B03D17B680222DA7037E07B681B78A3
:10374800DBB2012B0DD17B685B78DBB2002B08D193
:103758007B689B78DBB2012B03D17B680322DA708C
:1037680024E07B681B78DBB2012B0DD17B685B788A
:10377800DBB2002B08D17B689B78DBB2002B03D12E
:103788007B680422DA7011E07B681B78DBB2012BBE
:103798000CD17B685B78DBB2012B07D17B689B7807
:1037A800DBB2002B02D17B680522DA707B68DB78FC
:1037B800DBB27A6818339B0013441A687B68DA61B5
:1037C8007B68D3ED077A9FEDA17AF4EEC77AF1EE24
:1037D80010FA0AD57B68D3ED077A9FED9D7A77EECC
:1037E800877A7B68C3ED077A13E07B68D3ED077AA5
:1037F8009FED987AF4EEC77AF1EE10FA09DD7B684E
:10380800D3ED077A9FED927A77EEC77A7B68C3ED9E
:10381800077A7B68DB78DAB27B681B79DBB29A427D
:1038280037D07B689B6807EE903AF8EE677A7B683A
:10383800C3ED087A7B68DA697B685A617B68002285
:103848009A607B68DB78DAB27B681B79DBB29A42D4
:103858000BD97B68DB78DBB2052B03D17B681B7B3C
:10386800DAB200E000227B681A737B68DB78DAB290
:103878007B681B79DBB29A420BD27B68DB78DBB2C0
:10388800002B03D17B681B7BDAB200E001227B6846
:103898001A737B681B7BDBB2002B05D17B68DB7856
:1038A800DBB20133DBB204E07B68DB78DBB2013BDF
:1038B800DBB27A6853717B681B7BDBB2002B04D1C7
:1038C8007B68DB78DBB2052B03D07B685B79DAB2E7
:1038D80000E000227B685A717B681B7BDBB2012BFE
:1038E80004D17B68DB78DBB2002B03D07B685B7983
:1038F800DAB200E005227B685A717B68DB78DBB2BC
:103908007A6818339B001344D3ED007A7B685B799F
:10391800DBB27A6818339B00134493ED007AF0EE1B
:10392800470AB0EE670A0BF035FCF0EE407AF0EE8D
:10393800E77AC7ED037A7B689B6807EE903AF8EE62
:10394800676A7B68D3ED087A86EEA77AD7ED037AA3
:1039580067EE277A7B68C3ED097A7B68D3ED097A2D
:1039680097ED037AB4EEE77AF1EE10FA01D5FB6829
:103978000CE07B68D3ED097AF5EEC07AF1EE10FA27
:1039880002D54FF0000301E07B685B6A7A685362F6
:103998007B681B7BDBB2002B08D17B6893ED077A31
:1039A8007B68D3ED097A77EE277A07E07B6893ED99
:1039B800077A7B68D3ED097A77EE677A7B68C3ED7F
:1039C800057A7B68DB78DAB27B681A717B68D3ED9D
:1039D800057A9FED1E7AF4EEC77AF1EE10FA0AD551
:1039E8007B68D3ED057A9FED1A7A77EE877A7B6844
:1039F800C3ED057A13E07B68D3ED057A9FED157A60
:103A0800F4EEC77AF1EE10FA09DD7B68D3ED057A9A
:103A18009FED0F7A77EEC77A7B68C3ED057A7B68EE
:103A2800D3ED0B7AF0EEE77AB3EE097AF4EEC77AC3
:103A3800F1EE10FA02D87B68DB6901E07B685B690C
:103A48007A68536100BF1037BD4680BDDB0F49C09F
:103A5800DB0FC940DB0F494080B500AF00F0A4F888
:103A68003C48FDF7D7FC3C4B012283F8E0223A4B57
:103A7800002283F8E122384B384AC3F8F022364B4B
:103A8800374AC3F8F822344B364AC3F8FC22324B83
:103A9800354AC3F80023304B344AC3F804232E4B6D
:103AA8004FF08142C3F818232B4B314AC3F808233F
:103AB800294B304AC3F80C23274BD3F80C33264A3A
:103AC800C2F81033244B2C4AC3F81423224B01228A
:103AD80083F8E222204B012283F842231E4B274A17
:103AE800C3F820231C4B264AC3F824231A4B254A23
:103AF800C3F82823184B244AC3F82C23234B244A01
:103B08001A60224B234A5A60204B234A9A601F4B63
:103B1800224ADA602249104809F048F90E48FFF7AE
:103B280041F900F0C1F81F4B1B78DBB2002B01D024
:103B3800FDF786F8084B9B78DBB2042BF3D1184BC2
:103B48005B7BDBB2022BEED11549034809F07AF80A
:103B5800FDF776F8D8450020000000200000FA465E
:103B6800000048429A998A42000034436C09F93AA5
:103B7800B81EC53F6F12033B000087430000204278
:103B8800000082420AD71F410000B442B445002019
:103B980000401C4600E092450000C84100E0764520
:103BA800DC0400205505002080B500AF0120FDF79A
:103BB80065FA4FF08050FDF749FA0320FDF71CF82D
:103BC800FDF7B6FA0820FDF771FAFDF79FFAFDF741
:103BD800E3F800BFFDF7F0F80346012BFAD1002304
:103BE800442210210320FDF7D1F94FF0C05344229D
:103BF80010210320FDF7EAF9FDF718FAFDF706FA98
:103C0800FDF7A0F900BFFDF7ADF90346012BFAD186
:103C18000320FDF7E5F88020FDF704F900BFFDF764
:103C2800F3F803460C2BFAD1194BDB68184A43F01A
:103C38008073D360174B1B68164A43F00103136067
:103C4800144B00225A6000BF124B5B68632BFBD9F0
:103C58000020FDF7E7F80020FDF7F8F80020FDF751
:103C680009F90D4809F0F8FE0420FDF733FA0A486F
:103C780009F026FF0948FDF711F90020FDF728F99A
:103C88000748FDF73BF90748FDF738F900BF80BD45
:103C9800F0ED00E0001000E080FE210A04000C00B6
:103CA80001001C0001001E0080B500AF1D4B93F8F9
:103CB800E032DBB2012B17D105F0EAF805F002FD7E
:103CC80005F02EFE05F004FF07F04EFE09F084FC17
:103CD8000BF04AF90BF0A0F807F066FD0BF079F845
:103CE8000BF08EF805F08EFC0E4B93F8E032DBB249
:103CF800002B15D105F0CCF805F090FF06F0C4F8BC
:103D080008F084FA09F068FC0BF02EF90BF084F83F
:103D180007F04AFD0BF05DF80BF072F805F012FCA5
:103D280000BF80BD0000002090B585B000AF4FF007
:103D3800A040FCF7ADFF5248FCF7AAFF514B1B7897
:103D4800DBB2002B0AD14F4B01221A704E4B0022D6
:103D58005A604D4B5B684D4A13600DE0494B002299
:103D68001A70494B5B684A4A1360494B1A68474BBB
:103D78001B68D31A474A1360474BD3F8B430013352
:103D8800454AC2F8B430444BD3F8B8300133424AFC
:103D9800C2F8B830404BD3F8BC3001333E4AC2F8C1
:103DA800BC303D4BD3F8B4303B4A92EDBC7A3B4A29
:103DB800D2ED007A67EE277AFCEEE77A17EE902AC2
:103DC800934208D34FF480413548FDF71DFA324B32
:103DD8000022C3F8B4202C4B5B682C4A13602E4B8E
:103DE80093F8E032DBB2002B41F06C824FF0A04335
:103DF800D3F880301A462B4B5A604FF0A043D3F8C3
:103E080084301A46274B9A604FF0A043D3F8883085
:103E18001A46244B1A604FF0A043D3F88C301A4648
:103E2800204B9A61164BD3F888301A461D4BDA603E
:103E3800134BD3F880301A461A4B1A61104BD3F83B
:103E480084301A46174B5A610D4BD3F88C301A46FA
:103E5800144BDA61104B5B78DBB2052B04F2CA868F
:103E680001A252F823F000BFB13E0008B14000089B
:103E78003D4500081F490008194E0008B3520008C4
:103E88000001005054050020001000E0D445002037
:103E9800680500206005002000000020580500206B
:103EA80000080048A4460020744B754A1A60754BF8
:103EB800DB68A3F2FF7307EE903AF8EEE77A9FED1E
:103EC800727A27EE877A714BD3EDBF7A67EE277A3D
:103ED8006E4BC3EDDD7A6B4B1B69A3F2FF7307EEE4
:103EE800903AF8EEE77A9FED687A27EE877A674B83
:103EF800D3EDBF7A67EE277A644BC3EDE17A614B65
:103F08005B69A3F2FF7307EE903AF8EEE77A9FED4C
:103F18005E7A27EE877A5D4BD3EDBF7A67EE277A14
:103F28005A4BC3EDE57A574B9B6907EE903AF8EE8A
:103F3800E77A9FED557A27EE877A544BD3EDBF7A0F
:103F480067EE277A514BC3EDA97A4E4B1B6807EEF3
:103F5800903AF8EEE77A9FED4C7A27EE877A4B4B4A
:103F6800D3EDBE7A67EE277A484BC3ED317A454BDD
:103F78005B6807EE903AF8EEE77A9FED437A27EE12
:103F8800877A424BD3EDBE7A67EE277A3F4BC3ED73
:103F9800327A3C4B9B6807EE903AF8EEE77A9FED51
:103FA8003A7A27EE877A394BD3EDBE7A67EE277ACD
:103FB800364BC3ED337A3648FDF737F93548FDF708
:103FC80034F93548FDF731F9304B4FF00002C3F8AA
:103FD800E0202E4B0122DA702C4B4FF00002C3F880
:103FE80098212A4B4FF00002C3F8AC21274B4FF021
:103FF8000002C3F8B421254B4FF00002C3F8E820B3
:10400800224B93F86933DBB207EE903AF8EE677A01
:104018009FED227A27EE877AF0EE086AC7EE267AB5
:104028009FED1F7A77EE877A9FED1C7A77EE677A95
:10403800164BC3ED367A154BD3F8D830134AC2F86D
:10404800A433124BD3F84C34164898470F4BD3ED92
:10405800377ABCEEE77A0D4BD3ED377AFCEEE77A88
:104068000A4B93F86933DBB21A4617EE901A17EE2B
:10407800100AFDF777FD04F0C6BD00BF5805002003
:104088000AD7233CA4460020F80780390000002006
:10409800740300208403002094030020DB0F4940B0
:1040A800920A863FA4030020A44B0022C3F8B8203C
:1040B800A24B00221A71A24BDB68A3F2FF7307EE32
:1040C800903AF8EEE77A9FED9F7A27EE877A9B4B36
:1040D800D3EDBF7A67EE277A984BC3EDDD7A984B1C
:1040E8001B69A3F2FF7307EE903AF8EEE77A9FEDAB
:1040F800957A27EE877A914BD3EDBF7A67EE277AC8
:104108008E4BC3EDE17A8E4B5B69A3F2FF7307EE2A
:10411800903AF8EEE77A9FED8B7A27EE877A874B0D
:10412800D3EDBF7A67EE277A844BC3EDE57A844BEB
:104138009B6907EE903AF8EEE77A9FED827A27EED0
:10414800877A7E4BD3EDBF7A67EE277A7B4BC3ED38
:10415800A97A7B4B1B6807EE903AF8EEE77A9FED59
:10416800797A27EE877A754BD3EDBE7A27EE277AD0
:10417800724BD3ED317A77EE677A704BC3ED0B7AD9
:104188006F4B5B6807EE903AF8EEE77A9FED6D7A31
:1041980027EE877A694BD3EDBE7A27EE277A674BED
:1041A800D3ED327A77EE677A644BC3ED0C7A644BC1
:1041B8009B6807EE903AF8EEE77A9FED627A27EE71
:1041C800877A5E4BD3EDBE7A27EE277A5B4BD3ED29
:1041D800337A77EE677A594BC3ED0D7A574B93EDE7
:1041E8000B7A564BD3ED0B7A27EE277A534BD3ED48
:1041F8000C6A524BD3ED0C7A66EEA77A37EE277A23
:104208004E4BD3ED0D6A4D4BD3ED0D7A66EEA77A82
:1042180077EE277AB0EE670A0BF050FAB0EE407AE4
:10422800DFED497A67EE277A444BC3ED0E7A434BAC
:104238009B6B424AC2F8C0334448FCF7F6FF3F4B39
:10424800D3F8C8333D4AD3634148FCF7EEFF4148F1
:10425800FCF7EBFF4048FCF7E8FF384BD3F87C331A
:10426800364AC2F85033354BD3F88C33334AC2F848
:104278005433324BD3F89C33304AC2F858332F4B5F
:10428800D3F84434354898472C4B93F86933DBB25C
:1042980007EE903AF8EE677A9FED317A27EE877A43
:1042A800F0EE086AC7EE267A9FED2E7A77EE877AC7
:1042B8009FED2B7A77EE677A204BC3ED367A1F4B4A
:1042C800D3F8D8301D4AC2F8A4331C4BD3F84C3469
:1042D80025489847194BD3ED0F7A9FED247AF4EED1
:1042E800C77AF1EE10FA09DC144BD3EDEC7AB2EE92
:1042F800047AF4EEC77AF1EE10FA03D51C4B4FF0AE
:104308007C521A600D4BD3EDEC7AB2EE047AF4EEDF
:10431800C77AF1EE10FA03DD154B164A1A6003E06E
:10432800134B4FF07E521A60044BDB78DBB2012B43
:1043380022D1024BD3F8F03021E000BF000000206A
:10434800A4460020F80780399FAA2A3FC00300200E
:1043580074030020840300209403002044030020F9
:10436800DB0F4940920A863FA4030020CDCC4C3E87
:1043780058050020CDCC4C3E6B4BD3F8E8306A4A48
:10438800C2F8E830684B93ED3A7A674BD3ED3B6A55
:10439800654BD3EDBD7A76EEE77AB4EEE77AF1EEC7
:1043A80010FA0ED5604BD3EDBD7AB5EE007A27EE44
:1043B800877A5D4BD3ED3A7A77EE277A5A4BC3ED7D
:1043C8003A7A594B93ED3A7A574BD3ED3B6A564BB1
:1043D800D3EDBD7A76EEA77AB4EEE77AF1EE10FA6D
:1043E8000EDD514BD3EDBD7AB5EE007A67EE877AD4
:1043F8004D4B93ED3A7A77EE677A4B4BC3ED3A7AA9
:10440800494BD3F8B830484AD2EDBC7A9FED477A89
:1044180067EE877AFCEEE77A17EE902A934206D980
:10442800414B0022C3F8B8203F4B04225A703E4B40
:1044380093F84433DBB2002B04D13B4BDB78DBB27F
:10444800012B2BD1384B0022DA70374B93F86833A5
:10445800DBB2012B11D1344B93F86933DBB2042B57
:1044680006D8314B93F86933DBB20133DBB200E095
:1044780000232D4A82F8693310E02B4B93F86933F7
:10448800DBB2002B06D0284B93F86933DBB2013B33
:10449800DBB200E00523244A82F86933224BD3EDCE
:1044A800377AFCEEE76A204B93ED377A1E4BD3ED53
:1044B8003A7A67EE277AFCEEE77A1B4B93F8693372
:1044C800DBB21A4617EE901A16EE900AFDF74AFB71
:1044D800154BD3F85023164B03F5804338331A6035
:1044E800114B93F84433DBB207EE903AF8EE677A53
:1044F8000F4B03F580433C33C3ED007A0A4BD3F8E6
:1045080070230B4B03F5804340331A60064BD3F8F6
:104518004823074B03F5804344331A600448FEF7E9
:104528008BFE04F070BB00BF00000020CDCCCC3D5A
:104538006C050020C34BDB68A3F2FF7307EE903ACB
:10454800F8EEE77A9FEDC07A27EE877ABF4BD3ED76
:10455800BF7A67EE277ABD4BC3EDDD7AB94B1B698D
:10456800A3F2FF7307EE903AF8EEE77A9FEDB67A7A
:1045780027EE877AB54BD3EDBF7A67EE277AB34B30
:10458800C3EDE17AAF4B5B69A3F2FF7307EE903A94
:10459800F8EEE77A9FEDAC7A27EE877AAB4BD3ED4E
:1045A800BF7A67EE277AA94BC3EDE57AA54B9B69DD
:1045B80007EE903AF8EEE77A9FEDA37A27EE877A2E
:1045C800A24BD3EDBF7A67EE277AA04BC3EDA97A49
:1045D8009C4B1B6807EE903AF8EEE77A9FED9A7AC3
:1045E80027EE877A994BD3EDBE7A27EE277A974B39
:1045F800D3ED317A77EE677A944BC3ED0B7A914B12
:104608005B6807EE903AF8EEE77A9FED8F7A27EE2F
:10461800877A8E4BD3EDBE7A27EE277A8B4BD3ED74
:10462800327A77EE677A894BC3ED0C7A854B9B68B3
:1046380007EE903AF8EEE77A9FED837A27EE877ACD
:10464800824BD3EDBE7A27EE277A804BD3ED337AAF
:1046580077EE677A7D4BC3ED0D7A7C4B93ED0B7A41
:104668007A4BD3ED0B7A27EE277A784BD3ED0C6A89
:10467800764BD3ED0C7A66EEA77A37EE277A734B32
:10468800D3ED0D6A714BD3ED0D7A66EEA77A77EE0E
:10469800277AB0EE670A0BF011F8B0EE407ADFED3A
:1046A8006C7A67EE277A694BC3ED0E7A674B9B6B82
:1046B800664AC2F8C0336748FCF7B7FD634BD3F8C6
:1046C800C833624AD3636448FCF7AFFD6348FCF71C
:1046D800ACFD6348FCF7A9FD5C4BD3F87C335B4A1F
:1046E800C2F85033594BD3F88C33584AC2F8543374
:1046F800564BD3F89C33554AC2F85833534BD3F82A
:10470800443458489847514B93F86933DBB207EE65
:10471800903AF8EE677A9FED547A27EE877AF0EEB2
:10472800086AC7EE267A9FED517A77EE877A9FED71
:104738004E7A77EE677A454BC3ED367A434BD3F81A
:10474800D830424AC2F8A433404BD3F84C344848D6
:1047580098473E4BD3ED0F7A9FED467AF4EEC77A31
:10476800F1EE10FA09DC394BD3EDEC7AB2EE047AAB
:10477800F4EEC77AF1EE10FA03D53F4B4FF07C52B6
:104788001A60324BD3EDEC7AB2EE047AF4EEC77AC3
:10479800F1EE10FA03DD384B384A1A6003E0364B65
:1047A8004FF07E521A60294B93ED387A274BD3EDA0
:1047B800397AB4EEE77AF1EE10FA0EDB234BD3ED3B
:1047C800BD7A9FED2F7A67EE877A204B93ED387A82
:1047D80077EE677A1D4BC3ED387A1C4BD3F8B830A7
:1047E8001A4AD2ED387AFCEEE77A17EE902A93420D
:1047F8004CD3164B0022C3F8B820144B93F86833F7
:10480800DBB2012B11D1114B93F86933DBB2042BC6
:1048180006D80E4B93F86933DBB20133DBB200E004
:1048280000230A4A82F8693330E0084B93F8693369
:10483800DBB2002B26D0054B93F86933DBB2013B82
:10484800DBB220E0A4460020F807803900000020F1
:104858009FAA2A3FC003002074030020840300207D
:104868009403002044030020DB0F4940920A863F4E
:10487800A4030020CDCC4C3E58050020CDCC4C3EA6
:104888000000FA430523C54A82F86933C34BD3EDC8
:10489800377AFCEEE76AC14B93ED377ABF4BD3ED1D
:1048A8003A7A67EE277AFCEEE77ABC4B93F86933DD
:1048B800DBB21A4617EE901A16EE900AFDF752F977
:1048C800B64BD3F85023B64B03F5804338331A6000
:1048D800B24B93F84433DBB207EE903AF8EE677ABE
:1048E800AF4B03F580433C33C3ED007AAB4BD3F8B1
:1048F8007023AB4B03F5804340331A60A74BD3F8C2
:104908004823A74B03F5804344331A60A448FEF7B5
:1049180093FC04F078B9A34BDB68A3F2FF7307EEAE
:10492800903AF8EEE77A9FEDA07A27EE877A9B4BCC
:10493800D3EDBF7A67EE277A984BC3EDDD7A994BB2
:104948001B69A3F2FF7307EE903AF8EEE77A9FED42
:10495800967A27EE877A914BD3EDBF7A67EE277A5E
:104968008E4BC3EDE17A8F4B5B69A3F2FF7307EEC1
:10497800903AF8EEE77A9FED8C7A27EE877A874BA4
:10498800D3EDBF7A67EE277A844BC3EDE57A854B82
:104998009B6907EE903AF8EEE77A9FED837A27EE67
:1049A800877A7E4BD3EDBF7A67EE277A7B4BC3EDD0
:1049B800A97A7C4B1B6807EE903AF8EEE77A9FEDF0
:1049C8007A7A27EE877A754BD3EDBE7A27EE277A67
:1049D800724BD3ED317A77EE677A704BC3ED0B7A71
:1049E800704B5B6807EE903AF8EEE77A9FED6E7AC7
:1049F80027EE877A694BD3EDBE7A27EE277A674B85
:104A0800D3ED327A77EE677A644BC3ED0C7A654B57
:104A18009B6807EE903AF8EEE77A9FED637A27EE07
:104A2800877A5E4BD3EDBE7A27EE277A5B4BD3EDC0
:104A3800337A77EE677A594BC3ED0D7A574B93ED7E
:104A48000B7A564BD3ED0B7A27EE277A534BD3EDDF
:104A58000C6A524BD3ED0C7A66EEA77A37EE277ABA
:104A68004E4BD3ED0D6A4D4BD3ED0D7A66EEA77A1A
:104A780077EE277AB0EE670A0AF020FEB0EE407AA9
:104A8800DFED4A7A67EE277A444BC3ED0E7A434B43
:104A98009B6B424AC2F8C0334548FCF7C6FB3F4B04
:104AA800D3F8C8333D4AD3634248FCF7BEFB4248BB
:104AB800FCF7BBFB4148FCF7B8FB384BD3F87C3319
:104AC800364AC2F85033354BD3F88C33334AC2F8E0
:104AD8005433324BD3F89C33304AC2F858332F4BF7
:104AE800D3F84434364898472C4B93F86933DBB2F3
:104AF80007EE903AF8EE677A9FED327A27EE877ADA
:104B0800F0EE086AC7EE267A9FED2F7A77EE877A5D
:104B18009FED2C7A77EE677A204BC3ED367A1F4BE0
:104B2800D3F8D8301D4AC2F8A4331C4BD3F84C3400
:104B380026489847194BD3ED0F7A9FED257AF4EE66
:104B4800C77AF1EE10FA09DC144BD3EDEC7AB2EE29
:104B5800047AF4EEC77AF1EE10FA03D51D4B4FF044
:104B68007C521A600D4BD3EDEC7AB2EE047AF4EE77
:104B7800C77AF1EE10FA03DD164B174A1A6003E004
:104B8800144B4FF07E521A60044BDB78DBB2012BDA
:104B980024D1024BD3F8F03023E000BF00000020FE
:104BA8006C050020A4460020F80780399FAA2A3FF8
:104BB800C003002074030020840300209403002015
:104BC80044030020DB0F4940920A863FA4030020DB
:104BD800CDCC4C3E58050020CDCC4C3E884BD3F86C
:104BE800E830874AC2F8E830854BDB78DBB2012B26
:104BF80008D1834B93ED3C7A814BD3ED467A77EE1F
:104C0800277A02E07E4BD3ED467A7D4BC3ED467A98
:104C18007B4BDB6B7A4AC2F81C31794BD3F83034C2
:104C280078489847764BD3F84031754AC2F8E8304F
:104C3800734BDB78DBB2012B03D1714BD3F8F03027
:104C480002E06F4BD3F8E8306D4AC2F8E8306C4B9D
:104C580093ED3A7A6A4BD3ED3B6A694BD3EDBD7A53
:104C680076EEE77AB4EEE77AF1EE10FA0ED5644BF9
:104C7800D3EDBD7AB6EE007A27EE877A604BD3ED96
:104C88003A7A77EE277A5E4BC3ED3A7A5C4B93ED2E
:104C98003A7A5B4BD3ED3B6A594BD3EDBD7A76EE4E
:104CA800A77AB4EEE77AF1EE10FA0EDD544BD3EDA5
:104CB800BD7AB6EE007A67EE877A514B93ED3A7A71
:104CC80077EE677A4E4BC3ED3A7A4D4BD3F8B8304E
:104CD8004B4AD2EDBC7A9FED4C7A67EE877AFCEEB0
:104CE800E77A17EE902A93420ED9454B1B79DBB22F
:104CF800002B09D1424B0122DA70414B0022C3F844
:104D0800B8203F4B01221A713D4B93F84433DBB274
:104D1800002B04D13A4BDB78DBB2012B2BD1384B7B
:104D28000022DA70364B93F86833DBB2012B11D1CD
:104D3800334B93F86933DBB2042B06D8304B93F826
:104D48006933DBB20133DBB200E000232C4A82F87E
:104D5800693310E02A4B93F86933DBB2002B06D095
:104D6800274B93F86933DBB2013BDBB200E0052344
:104D7800234A82F86933224BD3ED377AFCEEE76A8F
:104D88001F4B93ED377A1E4BD3ED3A7A67EE277AAD
:104D9800FCEEE77A1A4B93F86933DBB21A4617EE42
:104DA800901A16EE900AFCF7DDFE154BD3F8502347
:104DB800164B03F5804338331A60114B93F844338C
:104DC800DBB207EE903AF8EE677A104B03F58043B2
:104DD8003C33C3ED007A0A4BD3F870230B4B03F531
:104DE800804340331A60064BD3F84823074B03F53A
:104DF800804344331A600548FEF71EFA03F003BFE8
:104E080000000020180100209A99993E6C050020A6
:104E18009C4BDB68A3F2FF7307EE903AF8EEE77A53
:104E28009FED997A27EE877A984BD3EDBF7A67EE94
:104E3800277A964BC3EDDD7A924B1B69A3F2FF7379
:104E480007EE903AF8EEE77A9FED8F7A27EE877AA9
:104E58008E4BD3EDBF7A67EE277A8C4BC3EDE17AA0
:104E6800884B5B69A3F2FF7307EE903AF8EEE77A96
:104E78009FED857A27EE877A844BD3EDBF7A67EE6C
:104E8800277A824BC3EDE57A7E4B9B6907EE903A11
:104E9800F8EEE77A9FED7C7A27EE877A7B4BD3EDA5
:104EA800BF7A67EE277A794BC3EDA97A754B1B68F1
:104EB80007EE903AF8EEE77A9FED737A27EE877A55
:104EC800724BD3EDBE7A27EE277A704BD3ED317A49
:104ED80077EE677A6D4BC3ED0B7A6A4B5B6807EE2A
:104EE800903AF8EEE77A9FED687A27EE877A674B73
:104EF800D3EDBE7A27EE277A644BD3ED327A77EE7C
:104F0800677A624BC3ED0C7A5E4B9B6807EE903A6A
:104F1800F8EEE77A9FED5C7A27EE877A5B4BD3ED64
:104F2800BE7A27EE277A594BD3ED337A77EE677A34
:104F3800564BC3ED0D7A554B93ED0B7A534BD3ED8E
:104F48000B7A27EE277A514BD3ED0C6A4F4BD3EDF2
:104F58000C7A66EEA77A37EE277A4C4BD3ED0D6ABA
:104F68004A4BD3ED0D7A66EEA77A77EE277AB0EE44
:104F7800670A0AF0A3FBB0EE407ADFED457A67EEE8
:104F8800277A424BC3ED0E7A404B9B6B3F4AC2F8DF
:104F9800C0334048FCF749F93C4BD3F8C8333B4A87
:104FA800D3633D48FCF741F93C48FCF73EF93C48DF
:104FB800FCF73BF9354BD3F87C33344AC2F850330D
:104FC800324BD3F88C33314AC2F854332F4BD3F8D1
:104FD8009C332E4AC2F858332C4BD3F8443431480A
:104FE80098472A4B93F86933DBB207EE903AF8EE0C
:104FF800677A9FED2D7A27EE877AF0EE086AC7EE7A
:10500800267A9FED2A7A77EE877A9FED277A77EED0
:10501800677A1E4BC3ED367A1C4B254AC3F8BC236E
:105028001A4BD3F8D830194AC2F8A433174BD3F81F
:105038004C3420489847154BD3ED0F7A9FED1E7AD4
:10504800F4EEC77AF1EE10FA09DC104BD3EDEC7AE6
:10505800B2EE047AF4EEC77AF1EE10FA03D5174BE4
:105068004FF07C521A60094BD3EDEC7AB2EE047A19
:10507800F4EEC77AF1EE10FA24DD104B104A1A60EC
:1050880024E000BFA4460020F80780390000002073
:105098009FAA2A3FC0030020740300208403002035
:1050A8009403002044030020DB0F4940920A863F06
:1050B80000401C46A4030020CDCC4C3E58050020DF
:1050C800CDCC4C3EA24B4FF07E521A60A14B93EDD3
:1050D800667AA04BD3ED077AF0EEE76A9D4BD3EDE5
:1050E800BD7A76EEE77AB4EEE77AF1EE10FA0ED5ED
:1050F800984BD3EDBD7A9FED987A27EE877A954B3A
:10510800D3ED667A77EE277A924BC3ED667A914BA8
:1051180093ED667A8F4BD3ED077AF0EEE76A8D4B05
:10512800D3EDBD7A76EEA77AB4EEE77AF1EE10FA0F
:105138000EDD884BD3EDBD7A9FED877A67EE877ACF
:10514800844B93ED667A77EE677A824BC3ED667A85
:10515800804BD3EDEC7AF0EEE77A7E4BC3ED677ABD
:105168007C4BD3F830347D4898477A4BD3F8C0311C
:10517800784AC2F8E830774BDB78DBB2012B03D1F1
:10518800744BD3F8F03002E0724BD3F8E830714A30
:10519800C2F8E8306F4B93F84433DBB2002B04D1EC
:1051A8006C4BDB78DBB2012B3AD16A4B0022DA7008
:1051B800684BD3ED077AF5EEC07AF1EE10FA4CBFE2
:1051C80001230023DBB21A46624B83F86823614B44
:1051D80093F86833DBB2012B11D15E4B93F8693336
:1051E800DBB2042B06D85B4B93F86933DBB201338F
:1051F800DBB200E00023574A82F8693310E0554BD0
:1052080093F86933DBB2002B06D0524B93F869331D
:10521800DBB2013BDBB200E005234E4A82F869337A
:105228004C4BD3ED377AFCEEE76A4A4B93ED377A6D
:10523800484BD3ED3A7A67EE277AFCEEE77A454B8E
:1052480093F86933DBB21A4617EE901A16EE900AF5
:10525800FCF788FC3F4BD3F85023414B03F58043C0
:1052680038331A603B4B93F84433DBB207EE903A7D
:10527800F8EE677A3A4B03F580433C33C3ED007A86
:10528800344BD3F87023364B03F5804340331A6010
:10529800304BD3F84823324B03F5804344331A602C
:1052A8002F48FDF7C9FF03F0AEBC2A4BD3F8B43042
:1052B800012B43F0A1844FF400512A48FBF7A4FFC7
:1052C80003F09ABC234B93F8E032DBB2012B43F096
:1052D80095844FF0A043D3F880301A46224B5A6089
:1052E8004FF0A043D3F884301A461F4B9A604FF012
:1052F800A043D3F888301A461B4B1A604FF0A043DE
:10530800D3F88C301A46184B9A61184BD3F8803072
:105318001A46154BDA611548FBF7A6FC0D4B1B78AE
:10532800DBB2072B03F26C8401A252F823F000BF12
:1053380079530008C5560008415B000865640008F9
:10534800356B0008C7720008BD7A0008DF8B0008BB
:10535800580500200000002000409C4498010020CF
:105368006C05002000080048A446002000010050F9
:105378004FF40051C348FBF739FFC34B4FF000020D
:105388001A61C14B4FF000025A61BF4B4FF0000247
:10539800C3F82C21BC4B4FF00002C3F83421BA4BA0
:1053A8004FF00002C3F86C21B74B4FF00002C3F86E
:1053B8007421B54B4FF00002C3F8AC21B24B4FF04B
:1053C8000002C3F8B421B04B4FF00002C3F8D82054
:1053D800AE4B4FF000029A62AC4B1B79DAB2AB4B82
:1053E800DA70AB4B4FF000021A60AA4B1B6807EE4D
:1053F800903AF8EEE77A9FEDA87A27EE877AA24BE3
:10540800D3EDBE7A67EE277A9F4BC3ED317AA14B75
:105418005B6807EE903AF8EEE77A9FED9F7A27EE01
:10542800877A994BD3EDBE7A67EE277A964BC3ED10
:10543800327A984B9B6907EE903AF8EEE77A9FED3F
:10544800967A27EE877A904BD3EDBF7A67EE277A64
:105458008D4BC3EDA97A0020FBF78AFF07EE900A6F
:10546800F8EEE77A9FED8D7A67EE877A864BC3ED83
:105478001A7A0020FBF7A4FF07EE900AF8EEE77A05
:105488009FED867A67EE877A7F4BC3ED1B7A7E4B5A
:1054980093F8E132DBB2012B05D1814B9B6C7A4A40
:1054A800C2F8A43211E07B4B9B6907EE903AF8EE04
:1054B800E77A9FED797A27EE877A734BD3EDBF7A37
:1054C80067EE277A704BC3EDA97A6F4BD3F8A432F5
:1054D8006D4AC2F8F0337348FBF7A7FE6A4BD3F85E
:1054E800F833694AC2F8A432674BD3F8FC30664AED
:1054F800C2F8A832644BD3F80031634AC2F8AC3220
:10550800614BD3F80431604AC2F8B0325E4BD3F82D
:105518003C34654898475C4B93EDB17A5A4BD3EDD0
:105528001B7A27EE277A584BD3EDB26A564BD3ED48
:105538001A7A66EEA77A77EE277A534BC3EDB37AD9
:10554800514BD3EDB17AB1EE677A4F4BD3ED1A7A5E
:1055580027EE277A4C4BD3EDB26A4B4BD3ED1B7A2F
:1055680066EEA77A77EE277A474BC3EDB47AF32134
:105578004E48FBF79AFB4FF400314C48FBF7C0FB51
:1055880003465B081A464FF400314848FBF7DCFB3A
:105598004FF400214548FBF7B3FB03465B081A4666
:1055A8004FF400214148FBF7CFFB4FF480113F48EF
:1055B800FBF7A6FB03465B081A464FF480113B48ED
:1055C800FBF7C2FB3648FBF79BFF2F4BD3EDA97ABD
:1055D800B3EE047AF4EEC77AF1EE10FAACBF012309
:1055E8000023DBB21A46284B83F84123264B5B6C19
:1055F800254AC2F83033244B5B6E234AC2F8343351
:10560800214BD3F8A432204AC2F83833284B1B69FF
:105618001D4AC2F83C331C4BD3F840342548984700
:10562800194B93F84033DBB2002B03D1164B1B7890
:10563800DBB200E00723144A1370194B5A6E1E4B55
:1056480003F5804338331A600F4BD3F818221A4BEE
:1056580003F580433C331A600B4BD3F81821164BE3
:1056680003F5804340331A60074BD3F85821124B97
:1056780003F5804344331A600F48FDF797FE03F0A3
:10568800C2BA00BF0008004800000020DC04002067
:1056980058050020A4460020F80780390000803310
:1056A800D8450020F0030020A40200200068014033
:1056B800B44500201C0300206C050020464B93EDE8
:1056C800357A454BD3ED347A27EE277A424BD3ED22
:1056D800367A77EE277A404BC3ED367A3E4BD3EDD8
:1056E800367A9FED3E7AF4EEC77AF1EE10FA0AD5D3
:1056F800394BD3ED367A9FED3A7A77EE877A364B87
:10570800C3ED367A13E0344BD3ED367A9FED357A14
:10571800F4EEC77AF1EE10FA09DD2F4BD3ED367AA5
:105728009FED2F7A77EEC77A2B4BC3ED367A2A4B4B
:10573800D3ED367A9FED2C7A67EE877AFDEEE77A1D
:1057480017EE900AFBF714FE07EE900AF8EEE77AD8
:105758009FED267A67EE877A1F4BC3ED1A7A1E4BA8
:10576800D3ED367A9FED207A67EE877AFDEEE77AF9
:1057780017EE900AFBF724FE07EE900AF8EEE77A98
:105788009FED1A7A67EE877A134BC3ED1B7A124B9B
:1057980093F8E132DBB2012B30D1154BD3F8B0309E
:1057A8000D4A5364124BD3ED2C7A9FED127A27EEF3
:1057B800877A0F4BD3ED2D7ADFED0F6A67EEA67A65
:1057C80077EE277A044BC3ED127A094B9B6C024A99
:1057D800C2F8A4326BE000BF00000020DB0F49C014
:1057E800DB0FC940DB0F49400000804B00008033CD
:1057F800D84500203ACD133F3ACD933F864B93F8D6
:10580800E132DBB2002B52D1844B1B6807EE903A91
:10581800F8EEE77A9FED827A27EE877A7E4BD3ED12
:10582800BE7A27EE277A7C4BD3ED317A77EE677A0A
:10583800794BC3ED117A794B5B6807EE903AF8EE35
:10584800E77A9FED777A27EE877A734BD3EDBE7AA6
:1058580027EE277A704BD3ED327A77EE677A6E4B64
:10586800C3ED197A6C4BD3ED117A9FED6E7A27EE62
:10587800877A694BD3ED197ADFED6B6A67EEA67A02
:1058880077EE277A644BC3ED127A644B9B6907EE77
:10589800903AF8EEE77A9FED627A27EE877A5E4BC8
:1058A800D3EDBF7A67EE277A5B4BC3EDA97A5A4BE3
:1058B800DB6C594AC2F8D033574B1B6D564AC2F8B5
:1058C800E033554BD3F8A432534AC2F8F033574863
:1058D800FBF7ABFC5648FBF7A8FC5648FBF7A5FCC2
:1058E8004D4BD3F8F8334C4AC2F8A4324A4BD3F89C
:1058F800FC30494AC2F8A832474BD3F80031464A2F
:10590800C2F8AC32444BD3F80431434AC2F8B0323F
:10591800414BD3F83C34484898473F4B93EDB17A14
:105928003D4BD3ED1B7A27EE277A3B4BD3EDB26A7A
:10593800394BD3ED1A7A66EEA77A77EE277A364B8B
:10594800C3EDB37A344BD3EDB17AB1EE677A324B0B
:10595800D3ED1A7A27EE277A2F4BD3EDB26A2E4B66
:10596800D3ED1B7A66EEA77A77EE277A2A4BC3ED3A
:10597800B47A294B93ED027A274BD3ED1B7A27EEA5
:10598800277A254BD3ED036A234BD3ED1A7A66EEBB
:10599800A77A77EE677A204BC3ED3D7A1E4B93EDDD
:1059A800037A1D4BD3ED1B7A27EE277A1A4BD3EDDA
:1059B800026A194BD3ED1A7A66EEA77A77EE277A40
:1059C800154BC3ED3E7A144BD3F834341B48984733
:1059D800114B5B6C104AC2F830330F4B5B6E0E4AAA
:1059E800C2F834330C4BD3F8A4320B4AC2F838331C
:1059F800134B1B69084AC2F83C33074BD3F84034B1
:105A080010489847044B93F84033DBB2002B1BD166
:105A1800014B1B78DBB218E000000020A4460020F0
:105A2800F80780393ACD133F3ACD933FD003002091
:105A3800E0030020F0030020A4020020F40000206E
:105A4800B44500201C0300200723854A1370844BAB
:105A5800D3F8FC30834AD361814BD3F80031814AB3
:105A680013627F4BD3F804317E4A53627C4B93ED2B
:105A78003F7A7B4BD3ED377A27EE277A784BD3EDF5
:105A8800377A77EE277AFCEEE77A17EE902A4FF40A
:105A980000317548FBF758F9714B93ED407A704B1C
:105AA800D3ED377A27EE277A6D4BD3ED377A77EE39
:105AB800277AFCEEE77A17EE902A4FF400216A481D
:105AC800FBF742F9664B93ED417A654BD3ED377A94
