:020000040800F2
:10000000000002208DE80008E9D70008EDD70008BD
:10001000F1D70008F5D70008F9D700080000000064
:10002000000000000000000000000000FDD70008F4
:1000300001D800080000000005D8000809D8000811
:1000400001E9000801E9000801E9000801E90008E8
:1000500001E9000801E9000801E9000801E90008D8
:1000600001E9000801E9000801E9000801E90008C8
:1000700001E9000801E9000801E9000801E90008B8
:100080003DD8000801E900080100001001E900085E
:1000900001E9000801E9000801E900080DD800089D
:1000A00001E9000801E9000801E9000801E9000888
:1000B0000D8C000801E9000801E9000801E90008C9
:1000C00001E9000801E9000801E9000801E9000868
:1000D00001E9000801E900086DD8000801E90008FD
:1000E00001E9000801E9000801E9000801E9000848
:1000F00001E9000801E9000801E9000801E9000838
:1001000001E9000801E9000801E9000801E9000827
:1001100001E9000801E9000801E9000811D8000818
:1001200001E9000801E9000801E9000801E9000807
:1001300001E9000801E9000801E9000801E90008F7
:1001400001E9000801E9000801E9000801E90008E7
:1001500001E9000801E9000801E9000801E90008D7
:1001600001E9000829D8000801E9000801E90008B0
:1001700001E9000801E9000801E9000801E90008B7
:1001800001E9000801E9000801E9000801E90008A7
:1001900001E900080000000001E9000801E9000889
:1001A00001E9000801E9000801E9000801E9000887
:1001B00001E9000801E9000801E9000801E9000877
:1001C00001E9000801E9000801E9000801E9000867
:0801D00001E9000801E9000843
:1001D8002DE9F04F2DED048BC94BCA4E5B68CA4A16
:1001E80033604FF0A041C94CC94F40230B601360E6
:1001F800D4F8EC300133C4F8EC30D4F8F0300133E3
:10020800C4F8F030D4F8F4300133C4F8F430D4F83A
:10021800EC30D4EDDB7A97ED007A67EE877A89B017
:10022800FCEEE77A17EE902A934207D3B94A53694E
:10023800002183F480435361C4F8EC104FF0A042CE
:10024800B54BD2F888101960D2F880105960D2F8EE
:1002580084109960D2F88C109961D2F88811D9600D
:10026800D2F880111961D2F88411596102F58072AF
:10027800D2F88C20DA6194F85823002A48D16278A1
:10028800052A37D8DFE812F0550036006201E4028B
:10029800E4024804A149D1F8980340F0C000C1F82D
:1002A8009803D1F8940340F03300C1F894034FF455
:1002B800003191FAA1F1B1FA81F11039C9B2984D22
:1002C800984835F811C0984C5CF800709918274088
:1002D80039434CF800104FF4002191FAA1F1B1FA1A
:1002E80081F11039C9B29B1A35F811100A58224009
:1002F80013430B50824A8D4B52681A601B68316851
:100308008B4A5B1A136009B0BDEC048BBDE8F08F13
:1003180094F85823012AEDD12278072AEAD8DFE891
:1003280012F00B067D11B10B7B09E1073510F50EB4
:10033800920B804A3A60DA689FED837AD4EDDE5AF0
:100348007D4DDFED7E6A9FED7E6AA2F2FF7207EEB9
:10035800902AF8EEE77A284667EE877A294667EE0C
:10036800A57A0027C4EDFD7A1A69D4EDDE5AA2F207
:10037800FF7207EE902AF8EEE77A4FF0010E67EE6B
:10038800877A67EEA57A17EE902A40F804295A6909
:10039800D4EDDE5AA2F2FF7207EE902AF8EEE77A61
:1003A80067EE877A67EEA57A17EE902A41F8102F44
:1003B800D3ED067AD4EDDE5AF8EEE77A67EE877A5F
:1003C80067EEA57AC4EDC47AD3ED007AD4EDDD5A90
:1003D800F8EEE77A67EE877A67EEA57AC4ED3F7A9A
:1003E800D3ED017AD4EDDD5AF8EEE77A67EE877A35
:1003F80067EEA57AC4ED407AD3ED027AD4EDDD5AE2
:10040800F8EEE77A67EE877A67EEA57AC4ED417A67
:10041800D0ED005A94EDFD7A94EDFF5AD4EDFF7AB1
:1004280037EE457A2846E5EE877A2C35C4EDFF7A13
:1004380055ED085A15ED0B7A55ED097A37EE677ABE
:1004480055ED097AE5EE877A45ED097A55ED045AB6
:1004580091ED007A55ED057A37EE677A55ED057A14
:10046800E5EE877A45ED057AC4F82C7184F804E046
:10047800C4F8F071C4F80872C4F81072C4F8347182
:1004880094F8E93307EE903AF8EE677AE7EEA66A51
:1004980076EE666AC4ED496AD4F8243140F8203F04
:1004A800D4F800379847D5ED007A9FED267AD4ED39
:1004B800E56A67EE877A87EEA67A84ED0B7AD4ED43
:1004C8004A7A94ED4A7A94F8E913FCEEE77A17EE43
:1004D800903AFCEEC77A17EE902A05293FF60AAF44
:1004E80001A050F821F000BFC5000010472B0010F4
:1004F800FD2A0010B52A0010952A001005290010C1
:10050800001000E0D048002000010050000000204A
:100518003808002000080048A84900200068014069
:1005280058F000081C6801400000FFFF6408002024
:100538004C0800200AD7233C04040020920A863F76
:10054800DB0F4940EBC91841F8078039DA681FED1D
:10055800027AD4EDDE6ADFF8F0A2A2F2FF7207EEAB
:10056800902AF8EEE77AD14667EE877A67EEA67AA0
:10057800C4EDFD7A1A69D4EDDE6AA2F2FF7207EEC5
:10058800902AF8EEE77A67EE877A67EEA67ACAEDE0
:10059800007A5A69D4EDDE6AA2F2FF7207EE902A59
:1005A800F8EEE77A67EE877A67EEA67A17EE902A72
:1005B80049F8102FD3ED067AD4EDDE6AF8EEE77A23
:1005C80067EE877A67EEA67AC4EDC47AD3ED007A2F
:1005D80094EDDD6AD4ED3F6AF8EEE77A67EE877A44
:1005E800D7EE866AC4ED0C6AD3ED017A94EDDD6A24
:1005F800D4ED406AF8EEE77A67EE877AD7EE866A36
:10060800C4ED0D6AD3ED027A94EDDD6AD4ED416A4A
:10061800F8EEE77A27EE877AF0EE667AD7EE067A72
:10062800C4ED0E7A94ED0C6AD4ED0C6A94ED0D0AC3
:10063800D4ED0D5A94ED0E7AD4ED0E7A20EE250AFB
:10064800A6EE260AA7EE270AB5EE400AF1EE10FA42
:10065800B1EEC08A05F15983744D2A46A5F5057097
:10066800A5F50171A5F5FA78DFED717A28EE278AEC
:1006780084ED148A236D42F80C3BD2ED006A95EDA7
:10068800007AD5ED027A37EE677AD5ED027AE6EE92
:10069800877A2B460833A5F50972C5ED027A1B68DF
:1006A8006365D2ED006A94EDFD7A94EDFF6AD4EDAE
:1006B800FF7A37EE467AA5F50672E6EE877AA5F553
:1006C8000273C4EDFF7AD0ED006A9AED007A92EDDC
:1006D800006AD2ED007A37EE467AA5F51870E6EE94
:1006E800877AC2ED007AD1ED006A99ED007A93ED30
:1006F800006AD3ED007A37EE467AE6EE877AC3EDE4
:10070800007AD4F8FC13C4F8D0131268C4F8D423C0
:100718001B68C4F8D833D4F8F836984794F8E93306
:10072800DFED447A9FED447A06EE903AF8EE666A79
:10073800A5F50073E6EEA77A184677EE677AC4ED5A
:10074800497AD4F824211A60D4F80037984794EDF0
:10075800157ADFED3A7AB4EEE77AF1EE10FA00F3A3
:10076800EB8198ED007AF2EE047AB4EEE77AF1EED6
:1007780010FA00F1E18198ED007AF2EE047AB4EE15
:10078800E77AF1EE10FACCBF2D4B4FF07E533B6069
:1007980094ED4B7AD4ED4C7AB4EEE77AF1EE10FA98
:1007A80009DBD4EDDC6A9FED277AD4ED4B7AE6EECF
:1007B800C77AC4ED4B7AD4F8F030D4ED4B7AFCEE1E
:1007C800E77A17EE902A934212D30023C4F8F03048
:1007D80094F8E823012A02F04B8194F8E933002BBE
:1007E80003F0C48194F8E933013BDBB284F8E933C0
:1007F800D4ED4A7A94ED4A7AD4ED4D6A94F8E91327
:10080800FCEEE77A27EE267A17EE903AFCEEC77AE6
:1008180017EE902A052900F2F782DFE811F0FD11A2
:10082800ED11BF1198118711C30200BF24060020E3
:100838009FAA2A3F920A863FDB0F4940CDCC4C3E07
:10084800CDCC4C3E0000FA4304040020F807803960
:10085800DA681FED027AD4EDDE6ADFF844A3A2F26B
:10086800FF7207EE902AF8EEE77AD14667EE877AAC
:1008780067EEA67AC4EDFD7A1A69D4EDDE6AA2F2B3
:10088800FF7207EE902AF8EEE77A67EE877A67EE4E
:10089800A67ACAED007A5A69D4EDDE6AA2F2FF722E
:1008A80007EE902AF8EEE77A67EE877A67EEA67A7F
:1008B80017EE902A49F8102FD3ED067AD4EDDE6AA8
:1008C800F8EEE77A67EE877A67EEA67AC4EDC47A1F
:1008D800D3ED007A94EDDD6AD4ED3F6AF8EEE77A5D
:1008E80067EE877AD7EE866AC4ED0C6AD3ED017A93
:1008F80094EDDD6AD4ED406AF8EEE77A67EE877A20
:10090800D7EE866AC4ED0D6AD3ED027A94EDDD6AFE
:10091800D4ED416AF8EEE77A27EE877AF0EE667A48
:10092800D7EE067AC4ED0E7A94ED0C6AD4ED0C6A13
:1009380094ED0D0AD4ED0D5A94ED0E7AD4ED0E7A9D
:1009480020EE250AA6EE260AA7EE270AB5EE400AEB
:10095800F1EE10FAB1EEC08A05F1D381874D2A462F
:100968002B460833A5F5057CA5F51870A5F5FA788A
:10097800DFED837A28EE278A84ED148A216D42F808
:100988000C1BD2ED006A95ED007AD5ED027A37EEB0
:10099800677AD5ED027AE6EE877AA5F50971A5F5AD
:1009A8000672C5ED027A1B686365D1ED006A94EDA5
:1009B800FD7A94EDFF6AD4EDFF7A37EE467AA5F515
:1009C8000273E6EE877AA5F50171C4EDFF7ADCEDD6
:1009D800006A9AED007A92ED006AD2ED007A37EE5D
:1009E800467AE6EE877AC2ED007AD1ED006A99ED93
:1009F800007A93ED006AD3ED007A37EE467AE6EE98
:100A0800877AC3ED007AD4F8FC13C4F8D0131268BF
:100A1800C4F8D4231B68C4F8D833D4F8F8369847F8
:100A280094F8E933DFED577A9FED577A574A06EE87
:100A3800903AF8EE666AA5F5F473E6EEA77AA5F59E
:100A48000075284677EE677AC4ED497A1A60D4F8BB
:100A580024312B60D4F800379847D8ED007ADFEDC1
:100A68004C6A94EDE56A9FED4B7A67EEA67AC7EE7D
:100A7800866AC4ED0B6AD4ED157AF4EEC77AF1EE06
:100A880010FA55DC98ED007AF2EE047AB4EEE77AC3
:100A9800F1EE10FA4CD498ED007AF2EE047AB4EE46
:100AA800E77AF1EE10FACCBF3B4B4FF07E533B6038
:100AB8006378042B03F01B806378032B02F0F28722
:100AC8002379012B0CBFD4F83C31D4F83431C4F865
:100AD800343194F8C4339BBB2379012B30D0D4ED47
:100AE8004A7A94ED4A7AD4ED4D6A94F8E913FCEE0B
:100AF800E77A27EE267A17EE903AFCEEC77A17EED9
:100B0800902A052900F28080DFE811F0BD0F4C0023
:100B18008211531143111511D4F8EC30012B7FF4D5
:100B2800E9AB1E4A536983F400535361FFF7E2BBF4
:100B38004FF07C533B60AEE74FF07C533B601AE6C6
:100B480000232371D4ED087AF5EEC07AF1EE10FA9D
:100B58004CBF01221A4684F8E82394F8E823012AB6
:100B680000F0D18194F8E933002B02F0FC8794F867
:100B7800E933013BDBB284F8E933B0E7240600200F
:100B88009FAA2A3F920A863FDB0F494000401C4635
:100B9800EBC91841CDCC4C3ECDCC4C3E00080048AA
:100BA800040400207849D1F8980340F03000C1F8D7
:100BB8009803D1F8940340F0C300C1F894034FF4AC
:100BC800003191FAA1F1B1FA81F11039C9B26F4F30
:100BD8006F4837F811E06F4D5EF800C099180CEABD
:100BE800050C41EA0C014EF800104FF4801191FAFF
:100BF800A1F1B1FA81F11039C9B29B1A37F8111075
:100C08000A5815402B430B50634FD4F8F4333B601C
:100C1800DAF800307B60D9F80030BB6094F8E9332B
:100C28005E4D07EE903AF8EE677A07F10801C7EDD6
:100C3800037A2B7807F10C023BB3AB683C680A33A4
:100C480005EB83031C60AB68786803F20A4305EB85
:100C580083031860AB68096803F60A0305EB83038E
:100C68001960AB68126803F60A4305EB83031A6040
:100C7800AB680133AB60AA6840F2FE339A4204D9EC
:100C8800002301226A702B70AB606B78002B3FF455
:100C980031ABAA68424B0A3205EB82021946126848
:100CA80041F8042BAA6802F20A4205EB820244F2D8
:100CB800300712680A60AA6802F60A0205EB820287
:100CC80044F22C0411689960AA6802F60A4205EBFE
:100CD800820244F228001168EA5D2F5D2C5C44F220
:100CE8002900285CD96044F22A014523695C2B74E9
:100CF8005A236B74AC7444F22B0344F22D04EB5C5E
:100D08002C5DE874297544F22E0044F22F01285C0A
:100D1800695C6B7544F23103AF75EC7544F23207C8
:100D2800287644F23304697644F23400AA7644F211
:100D3800350144F23602EB5CEF5D2C5D285C695CA2
:100D4800AA5CEB7644F237032F77EB5C6C77A877D5
:100D5800E97785F8202085F8213095F82230012B95
:100D680002F0F786AA6840F2FE339A427FF6C2AADA
:100D780000236B70AB60AB78002B3FF4BBAA012358
:100D88002B70FFF7B7BA00BF0068014058F00008A1
:100D98001C6801400000FFFFA048002068080020F0
:100DA800904800205D49D1F8980340F00300C1F84D
:100DB8009803D1F8940340F0F000C1F894034FF47D
:100DC800002191FAA1F1B1FA81F11039C9B2544F59
:100DD800544837F811E0544D5EF800C0991A0CEAEF
:100DE800050C41EA0C014EF800104FF4801191FAFD
:100DF800A1F1B1FA81F11039C9B2134437F81110D1
:100E08000A582A4013430B50484FD4F8D0333B605C
:100E180094F8C433464D07EE903AF8EE677A07F136
:100E28000801C7ED017AD4F8F033BB60D4F8C833B1
:100E3800FB602B7807F10C0213B3AB683C680A33EC
:100E480005EB83031C60AB68786803F20A4305EB83
:100E580083031860AB68096803F60A0305EB83038C
:100E68001960AB68126803F60A4305EB83031A603E
:100E7800AB680133AB60AA6840F2FE339A423CD8B3
:100E88006B78002B3FF436AAEA68AB889A4222D3E3
:100E9800AA68284B0A3205EB82021946126841F803
:100EA800042BAA6802F20A4205EB820212680A6061
:100EB800AA6802F60A0205EB820211689960AA681C
:100EC80002F60A4205EB82021168D9600022EA6044
:100ED800AB680133AB60EB680133EB60AA6840F2A2
:100EE800FE339A427FF606AA00236B70AB60EB6074
:100EF800AB78002B3FF4FEA941E7002301226A707A
:100F08002B70AB60BCE794F8E923042A3FF633AEB4
:100F180094F8E9330133DBB22DE600BF00680140E5
:100F280058F000081C6801400000FFFFA04800209E
:100F38006808002090480020DD48DE4DDE4A002188
:100F48004FF4005CC5F828C06161A161C4F8801144
:100F5800C4F88811C4F8C411C4F8CC11C4F8081234
:100F6800C4F81012C4F8241181620579EDB2C57075
:100F78003960D4F870530564D3ED067A94EDDE7ABF
:100F8800FAEECA7A174667EE877A154617EE900A80
:100F980047F80C0BD3ED007AF8EEE77A944617EE93
:100FA800900A45F8300FD3ED017AF8EEE77A9646C5
:100FB80017EE900A4CF8400FD3ED027AF8EEE77A74
:100FC800904617EE900A4EF8500FD3ED037AF8EEDC
:100FD800E77A104617EE909A48F8609FD3ED047AA6
:100FE800F8EEE77A914617EE90AA40F870AFD3ED85
:100FF800057AF8EEE77A02F1080A17EE903A49F80E
:10100800803F4FF07E53C4F89C10C4F8A030D7ED51
:10101800006A92ED007AD2ED027A37EE677AD2ED65
:10102800027AE6EE877A114638311346C2ED027A23
:10103800D2ED0F6A95ED007AD1ED007A37EE677A36
:10104800D1ED007AE6EE877A483315465835C1ED7A
:10105800007AD2ED136A9CED007AD3ED007A37EE70
:10106800677AD3ED007AE6EE877A1746683702F199
:10107800780CC3ED007AD2ED176A9EED007AD5EDB3
:10108800007A37EE677AD5ED007AE6EE877A02F1D4
:10109800880EC5ED007AD2ED1B6A98ED007AD7ED7F
:1010A800007A37EE677AD7ED007AE6EE877AC7EDF1
:1010B800007AD2ED1F6A90ED007ADCED007A37EE07
:1010C800677ADCED007AE6EE877ACCED007AD2ED2D
:1010D800236A99ED007ADEED007A37EE677ADEED65
:1010E800007AE6EE877ACEED007A94F85A23002A41
:1010F80042F01086DAF80020C4F810230A68C4F811
:10110800FC201B68C4F800312B68C4F804313B6824
:10111800C4F80831DCF80030C4F80C31DEF80030CF
:10112800C4F81031D4F84C31C4F81433D4F8503121
:10113800C4F81833D4F85431C4F81C33D4F8F03652
:101148005E48984794EDCC6AD4ED286AD4EDCD7A00
:10115800D4ED275A9FED5A7A67EEA57A4FF40033FB
:10116800E6EE267AC4EDCE7A94EDCC6AD4ED276A01
:10117800D4EDCD7AD4ED285A67EEA57AE6EE667AF4
:10118800C4EDCF7AD4ED4A7AE7EE877AFCEEE77AB7
:1011980017EE901A93FAA3F3B3FA83F3103BDBB27A
:1011A800484F494837F81320484D13582B400B43F4
:1011B80013504FF4002292FAA2F2B2FA82F2103AD5
:1011C800D2B24FF4801337F812C05CF800202A40DE
:1011D8000A434CF8002093FAA3F3B3FA83F3103BC5
:1011E800DBB23B4A37F813703B581D40294339504E
:1011F800D2F8943343F0F303C2F8943304F0C4FDF7
:1012080094EDC47A334B3448F3EE047AB4EEE77ABB
:10121800F1EE10FAACBF0122002284F8C123226E3D
:10122800C4F8B023626EC4F8B423D4F81023C4F809
:10123800B8231B69C4F8BC33D4F8F436984794F83B
:10124800C033002B42F063852378DBB2237094F817
:101258000536224F224D0133DBB284F8053694F867
:101268000536622B96BF94F805360023DBB284F866
:10127800053694F8053607EE903AF8EE677A07F1E6
:101288000801C7ED007A94F8053603F58E7304EB70
:10129800830307F10C025B687B60D4F86831BB609C
:1012A800D4F8AC31FB602B78002B3FF4EEACC4E4EF
:1012B800A40700200008004854060020100300205E
:1012C8000000000058F000081C6801400000FFFF03
:1012D80000680140B04800209C030020A04800207E
:1012E80068080020BF4994ED497A0A6802F00F02A5
:1012F800012A07D00868BC4A024042F4002242F0A2
:1013080061020A60DFEDB97AB64ADFEDB96A27EE05
:10131800277ABEEEE07A82ED017A92ED027AB8EE93
:10132800C77A27EE267A84ED277AD2ED027AF8EE8C
:10133800E77A67EEA67AC4ED287A94F85A23012A48
:1013480003F0D78094F85A23002A40F09D80D3ED0B
:10135800007A9FEDA84AD4ED3F3AD4EDDD4A9FEDDF
:10136800A65ADFEDA65A9FEDA67AA649DFEDA66A32
:101378009FEDA66AF8EEE77A64EE844A77EEE37AA0
:1013880067EEA47AC4ED0C7AD3ED017AD4ED403A35
:10139800D4EDDD4AF8EEE77A64EE844A77EEE37A34
:1013A80067EEA47AC4ED0D7AD3ED027AD4ED413A12
:1013B800D4EDDD4AF8EEE77A64EE844A77EEE37A14
:1013C80067EEA47AC4ED0E7AD3ED067AD4EDDE4A40
:1013D800F8EEE77A67EE857A67EEA47AC4EDC47A08
:1013E800D3ED037A94ED424AD4EDDE4AF8EEE77A7B
:1013F80064EE854A77EEC47A67EEA47AC4ED0F7A74
:10140800D3ED047A94ED434AD4EDDE4AF8EEE77A58
:1014180064EE854A77EEC47A67EEA47AC4ED107A52
:10142800D3ED057A94ED444AD4EDDE4AF8EEE77A36
:1014380024EE855A77EEC47A67EE857AC4ED117A80
:10144800236B236694ED0C5AD4ED0D7A67EEA57ADA
:10145800E5EE077AC4ED197AD4EDFF5AD1ED007A9A
:1014680091ED045A77EEC57A66EEE77AE5EE867A6C
:10147800C4ED127AD1ED007AD1ED046A77EEE67AFE
:1014880067EE877AC4ED137A6369C4F8683194F813
:1014980059330BB9637A0BB394ED067AD4ED077A16
:1014A80094EDDC6AD4ED6B6AB4EEE67AF1EE10FAEC
:1014B80067EE867A05DDD4ED6B6A77EEA66AC4ED31
:1014C8006B6AD4ED6B6AB4EEE67AF1EE10FA05D5E4
:1014D80094ED6B7A77EE677AC4ED6B7AD4ED186A7F
:1014E80094ED287AD4ED197A94ED276A484867EE86
:1014F800867A0346E6EE877A07460546C4ED1A7AE9
:10150800D4ED186A94ED277AD4ED197A94ED286A07
:1015180067EE867AE6EEC77AC4ED1B7AA26E43F8C8
:101528000C2BE26E47F8102FD4F8102345F8202F23
:10153800D3ED006A90ED007AD0ED027A37EE677A43
:10154800D0ED027AE6EE877A03462833C0ED027AB8
:10155800D0ED076A97ED007AD0ED067A37EE677A14
:10156800D0ED067AE6EE877AC0ED067AD0ED0B6A02
:1015780095ED007AD0ED0A7A37EE677AD0ED0A7ADF
:10158800E6EE877AC0ED0A7A1B68C4F8103394F83F
:101598004034012B09D1A0F5E673D4F8AC211A60C8
:1015A800A0F5FA70D4F80437984794F80436012B5C
:1015B8000CD1184BD4F82421A3F5D27043F808298C
:1015C800D4F8D8211A60D4F80837984794F85B33D0
:1015D800032B04F2BC83DFE813F01E0E030EF60D96
:1015E800570C00BF000C024000F887FF83F9A23EA9
:1015F800000000300000003A000080393ACD933FE7
:101608003ACD133F0C040020ABAAAA3EABAA2A3F4E
:101618003406002018060020F04994ED465A91ED52
:10162800007AD4ED477AD4EDDC3AB4EE475AF7EEB7
:10163800086AF1EE10FA67EEA67A42F07E83E8486F
:10164800E84A90ED007AD4ED456AD4ED454AF5EEC6
:10165800005A67EE255A76EEC56A85EEA74AB4EEBB
:10166800E45A87EE846AF1EE10FAB6EE004A26EEE6
:10167800046AF0EEE66A02F3A582D4ED454AB4EEB8
:10168800E45AF1EE10FA02F19D82D2ED007A94ED5F
:10169800457AB4EEC75AF0EEE77AF1EE10FA67EE43
:1016A800A37A05DD94ED457A37EE877A84ED457A9D
:1016B80094ED457AB4EEC75AF1EE10FA05D594EDDB
:1016C800457A77EE677AC4ED457A94ED486AD4EDA9
:1016D800456AD4ED497A9FEDC47A81ED005AE6EE69
:1016E800267AC4ED497AD4ED497AF4EEC77AF1EE58
:1016F80010FA42F1B282D4ED497A9FEDBC7A77EEC6
:10170800877AC4ED497ABA4994ED497A0A6802F0B1
:101718000F02012A07D00868B64A024042F40022A4
:1017280042F061020A60DFEDB47AB14ADFEDB36AD4
:1017380027EE277ABEEEE07A82ED017A92ED027A00
:10174800B8EEC77A27EE267A84ED277AD2ED027AA8
:10175800F8EEE77A67EEA67AC4ED287A94F85A2369
:10176800012A02F0CE8494F85A23002A40F09D8082
:10177800D3ED007A9FEDA24AD4ED3F3AD4EDDD4A8D
:101788009FEDA05ADFEDA05A9FEDA07AA049DFEDAA
:10179800A16A9FEDA16AF8EEE77A64EE844A77EED3
:1017A800E37A67EEA47AC4ED0C7AD3ED017AD4ED2E
:1017B800403AD4EDDD4AF8EEE77A64EE844A77EEF3
:1017C800E37A67EEA47AC4ED0D7AD3ED027AD4ED0C
:1017D800413AD4EDDD4AF8EEE77A64EE844A77EED2
:1017E800E37A67EEA47AC4ED0E7AD3ED067AD4EDE7
:1017F800DE4AF8EEE77A67EE857A67EEA47AC4EDFA
:10180800C47AD3ED037A94ED424AD4EDDE4AF8EE79
:10181800E77A64EE854A77EEC47A67EEA47AC4ED77
:101828000F7AD3ED047A94ED434AD4EDDE4AF8EE0C
:10183800E77A64EE854A77EEC47A67EEA47AC4ED57
:10184800107AD3ED057A94ED444AD4EDDE4AF8EEE9
:10185800E77A24EE855A77EEC47A67EE857AC4ED86
:10186800117A236B236694ED0C5AD4ED0D7A67EE4A
:10187800A57AE5EE077AC4ED197AD4EDFF5AD1EDD1
:10188800007A91ED045A77EEC57A66EEE77AE5EECE
:10189800867AC4ED127AD1ED007AD1ED046A77EE3A
:1018A800E67A67EE877AC4ED137A94ED057AD4ED7B
:1018B800077A94EDDC6AD4ED5A6AB4EEE67AF1EE72
:1018C80010FA67EE867A05DDD4ED5A6A77EEA66AD5
:1018D800C4ED5A6AD4ED5A6AB4EEE67AF1EE10FA1B
:1018E80005D594ED5A7A77EE677AC4ED5A7AA369EA
:1018F800C4F8AC31D4ED186A94ED287AD4ED197A8D
:1019080094ED276A454867EE867A0346E6EE877ABD
:1019180007460546C4ED1A7AD4ED186A94ED277A7D
:10192800D4ED197A94ED286A67EE867AE6EEC77ADE
:10193800C4ED1B7AA26E43F80C2BE26E47F8102F09
:10194800D4F8102345F8202FD3ED006A90ED007AE3
:10195800D0ED027A37EE677AD0ED027AE6EE877A32
:1019680003462833C0ED027AD0ED076A97ED007A76
:10197800D0ED067A37EE677AD0ED067AE6EE877A0A
:10198800C0ED067AD0ED0B6A95ED007AD0ED0A7AB3
:1019980037EE677AD0ED0A7AE6EE877AC0ED0A7AF2
:1019A8001B68C4F8103394F84034012B09D1A0F512
:1019B800E673D4F8AC211A60A0F5FA70D4F80437AD
:1019C800984794F80436012B32D1154BD4F82421CA
:1019D800A3F5D27043F8082924E000BF340800209A
:1019E800A007002098070020DB0F49C0DB0FC94083
:1019F800000C024000F887FF83F9A23E0000003087
:101A08000000003A000080393ACD933F3ACD133FA9
:101A18000C040020ABAAAA3EABAA2A3F3406002039
:101A280018060020D4F8D8211A60D4F80837984747
:101A380094F85B33032B04F28E81DFE813F0FE0F7A
:101A4800E30FAF0F170C0C490C48D1F8982342F05C
:101A5800F302C1F898234FF40052826194F89C2352
:101A6800013A042A01F2F481DFE812F0F80F0A10B3
:101A7800E309ED0FE30900BF0068014000080048D2
:101A8800CDCC4C3EE2782ABB94EDD77A5FED047A50
:101A9800D54AD64927EE277A002084ED057AC4ED89
:101AA800477AC4ED467AC4ED457AC4F82401E16169
:101AB800116801311160D4EDDB7A126877EEA77AEC
:101AC800FCEEE77A17EE901A91428ABFE27801227B
:101AD800D2B2E270E278012A02F09D80E278022A0E
:101AE80002F09980E278062A02F09580E278042ACA
:101AF80002F07783BE4A0192E278052A02F0388321
:101B0800BC4DBD4994ED497A0A6802F00F02012ADA
:101B180007D00868B94A024042F4002242F0610244
:101B28000A60DFEDB77AB44ADFEDB66A27EE277AA6
:101B3800BEEEE07A82ED017A92ED027AB8EEC77ACB
:101B480027EE267A84ED277AD2ED027AF8EEE77A44
:101B580067EEA67AC4ED287A94F85A23012A02F08F
:101B6800EA8294F85A23002A02F09286DFF8C49297
:101B7800A54BA16E1A461F4642F80C1BE16E47F8AA
:101B8800101F1846D4F8101340F8201F03F1080B53
:101B9800D2ED006A93ED007ADBED007A37EE677AD2
:101BA800DBED007AE6EE877A03F1180ACBED007ACE
:101BB800D3ED076A97ED007ADAED007A37EE677AA7
:101BC800DAED007AE6EE877ACAED007AD3ED0B6A91
:101BD80090ED007AD3ED0A7A37EE677AD3ED0A7A78
:101BE800E6EE877AC3ED0A7A9B6AC4F81033D4ED1F
:101BF800186A94ED287AD4ED197A94ED276A67EE7D
:101C0800867AE6EE877AC4ED1A7AD4ED186A94EDEE
:101C1800277AD4ED197A94ED286A67EE867AE6EE8B
:101C2800C77AC4ED1B7A94ED057AD4ED077A94ED62
:101C3800DC6AD4ED5A6AB4EEE67AF1EE10FA67EE91
:101C4800867A05DDD4ED5A6A77EEA66AC4ED5A6A3B
:101C5800D4ED5A6AB4EEE67AF1EE10FA05D594EDB1
:101C68005A7A77EE677AC4ED5A7AA369C4F8AC3128
:101C7800A36EC4F86C31E36EC4F8B0316348D4F88D
:101C8800E4369847D4F8E43661489847D4F8943154
:101C9800C4F83833D4F8D831C4F83C335D4BDFEDA1
:101CA8005E7AD3ED006AD4EDCE5A93ED007A9FEDBB
:101CB8005B6A76EEE56AA6EEE77A83ED007AD4ED04
:101CC800D27A94EDC47A67EE867A67EE877AC4EDA5
:101CD800D07A94EDD07AD4EDD07AD4EDCE6A94ED62
:101CE800CE0A20EE660AA7EE270AB5EE400AF1EE04
:101CF80010FAB1EEC08A04F117804949494F081F0C
:101D08004FF0090884EDD18A94EDD00A04F048F820
:101D1800D4F84C31C4F81433D4F85031C4F818331B
:101D2800D4F85431C4F81C333F48D4F8F0369847F7
:101D3800D4EDCE6A94ED287A94EDCF6AD4ED277A63
:101D48003A4867EEC67AE6EE877AC4ED507AD4ED63
:101D5800CF6A94ED287AD4EDCE7A94ED276A67EEAF
:101D6800867AE6EE877AC4ED517AD4F81033C4F84F
:101D78004831D4F8E83698470020844686463969C1
:101D88003A693B69C1F3C011C2F30022C3F340238F
:101D9800B8F101088E4494441844F0D1BEF1040F00
:101DA800D4BF4FF0000E4FF0010EBCF1040F204FCE
:101DB800D4BF4FF0000C4FF0010C0428D4BF002012
:101DC800012087F800E087F801C0B8703B781BB99C
:101DD8007B78012B03F038853B787BBB7B78012B24
:101DE80003F03A852AE000BF9C0700200000A041CC
:101DF8000806002068080020000C024000F887FF51
:101E080083F9A23E0000003034060020680100205B
:101E1800AC0100200C0600206F12833AD7B35D3F57
:101E28003C0300200004004810030020400100206B
:101E3800A4070020D848002062DCC8403B782BB9B2
:101E48007B781BB9BB78012B03F098853B78012B75
:101E580002F071863B78012B02F079863B78012BE2
:101E680002F0A686237A03F0FF0293B9F9783B794A
:101E7800994205D9FB78052B02D001233A732372C6
:101E8800FA783B799A4204D2FB7813B101233B7369
:101E98002372FA783B799A4226D03B7BDBB9E37808
:101EA800012B03F05385FB78103307EB83035A6843
:101EB800FB78103307EB83035A60E378022B03F0B7
:101EC8004185FB78163307EB83035A68FB78163392
:101ED80007EB83035A603B7B012B02F07586D4F82D
:101EE80024213A610123FB73FB781FED2D7ADBB2C5
:101EF8003B7194ED486AD4ED456AD7ED0A7AE6EE6F
:101F0800267AC7ED0A7AD7ED0A7AF4EEC77AF1EEA7
:101F180010FA0CDDE378012B09D1D4ED457A714A2A
:101F2800F1EE677A0223C4ED457ABA62E37097ED61
:101F38000A7ADFED6D7AB4EEE77AF1EE10FA07D59A
:101F4800E378022B04D100220323C4F81421E370A0
:101F5800E378032B02F0E782E378052B02F0518245
:101F6800E378062B02F0D481604FD4F808333B6045
:101F7800D4F8003738469847226EC4F8B023626E0A
:101F8800C4F8B423D4F81023594BC4F8B8231B69F8
:101F9800C4F8BC33D4F8F436A7F18800984794F80D
:101FA800C033002B41F081862378DBB22370D4F84C
:101FB8004C31C9F81C30D4F85031C9F82030D4F865
:101FC8005431C9F8243094ED537A94ED546AD4ED21
:101FD800556AD4ED4A7A4FF4003393FAA3F3F0EE3E
:101FE800675AB3FA83F3E7EE275A103BDBB241484E
:101FF800414A30F813C0DFF80CE15CF80270BCEE1F
:10200800E57A07EA0E0717EE101A39434FF4002352
:102018004CF8021093FAA3F3B0EE677AB3FA83F39D
:10202800A6EE277A103BDBB230F81370BCEEC77A05
:10203800BB5817EE101A03EA0E031943B9504FF4B0
:10204800801393FAA3F3B3FA83F3103BE6EEA77A6F
:10205800DBB230F81300FCEEE77A835817EE901ADB
:1020680003EA0E0319438150D4ED057AF5EE407A60
:10207800F1EE10FA09D1D4ED067AF5EE407AF1EED8
:1020880010FA02D194F8C0330BB101232B7094F8E5
:1020980005361A4F07EE903AF8EE677A3946C7EDDB
:1020A800007A94F8053603F58E7304EB83043846FA
:1020B800636841F8043F019B1B6840F8083F104BD8
:1020C8003A461B6842F80C3F2B78002B3EF4DDADF6
:1020D800AB683C680A3305EB83031C60AB6809688E
:1020E80000F0BDBCDB0FC9406F12833A2404002006
:1020F800B048002058F000081C680140A0480020A3
:102108000C0600200000FFFFDB0F494094ED486AF1
:10211800D4ED456AD4ED497A1FED057AE6EE267AC4
:10212800C4ED497AD4ED497AF4EEC77AF1EE10FAA3
:10213800D4BFD4F824218A4AC4F8242194F85A2315
:10214800012A01F0B98694F85A23002A02F0FF8286
:10215800DFF82C92834BA16E9FED836A1A461D46C9
:1021680042F80C1BE16E45F8101F1946D4F810030D
:1021780041F8200F03F1080BD2ED006A93ED007AC5
:10218800DBED007A37EE677ADBED007AE6EE877AE8
:1021980003F1180ACBED007AD3ED076A95ED007AC2
:1021A800DAED007A37EE677ADAED007AE6EE877ACA
:1021B800CAED007AD3ED0B6A91ED007AD3ED0A7A75
:1021C80037EE677AD3ED0A7AE6EE877AC3ED0A7AB4
:1021D8009B6AC4F81033D4ED187A94ED197AE7EEB7
:1021E800067AC4ED1A7A94ED187AD4ED197AE7EEE6
:1021F800467AC4ED1B7AA37803F0FF02002B01F0A6
:10220800B5855A4DA378012B01F07386A378022B6C
:1022180003F09481A378DFB2032F03F00180A37841
:10222800042B02F0628794ED537A94ED546AD4ED4E
:10223800556AD4ED4A7A4FF4003393FAA3F3F0EEDB
:10224800675AB3FA83F3E7EE275A103BDBB24848E4
:10225800484A30F813C0DFF82CE15CF80270BCEE95
:10226800E57A07EA0E0717EE101A39434FF40023F0
:102278004CF8021093FAA3F3B0EE677AB3FA83F33B
:10228800A6EE277A103BDBB230F81370BCEEC77AA3
:10229800BB5817EE101A03EA0E031943B9504FF44E
:1022A800801393FAA3F3B3FA83F3E6EEA77A103B0D
:1022B800DBB2DFF8D4C030F813702F48BB58FCEEFF
:1022C800E77A03EA0E0317EE901A1943B950236E02
:1022D800C4F8B033636EC4F8B433D4F81033C4F818
:1022E800B833DCF81030C4F8BC33D4F8F436984767
:1022F80094F8C033002B41F036852378DBB2237085
:10230800D4F84C31C9F81C30D4F85031C9F8203011
:10231800D4F85431C9F8243003F036FD174BD4F8FB
:10232800BC201A601846D4F8C42040F8042F194677
:10233800A26E41F8082F1A46D4F8CC4042F80C4F48
:102348002C78002C3EF4A1ACAC681F6804F10A0399
:1023580005EB83031F60AB680068FEF776BC00BF1F
:10236800DB0F49C034060020000000006808002088
:1023780058F000081C6801409C030020A048002079
:10238800D84800200000FFFFB0480020964994ED8F
:10239800497A0A6802F00F02012A07D00868934AAE
:1023A800024042F4002242F061020A60DFED907AB6
:1023B8008D4ADFED906A27EE277ABEEEE07A82ED4D
:1023C800017A92ED027AB8EEC77A27EE267A84ED82
:1023D800277AD2ED027AF8EEE77A67EEA67AC4EDAC
:1023E800287A94F85A23012A01F0588794F85A2336
:1023F800002A02F00B81DFF814927F4994ED084A15
:1024080091ED007AD4ED0A7AD4EDDC3AB4EE474A7D
:10241800F7EE086AF1EE10FA67EEA67A41F0318419
:10242800764B774A93ED007AD4ED7C6A94ED7C5A2A
:10243800F5EE005A67EE255A76EEC46AC5EEA74A4D
:10244800B4EEC54A87EEA46AF1EE10FAF6EE004A39
:1024580026EE246AF0EEE66A01F38B8394ED7C5A4B
:10246800B4EEC54AF1EE10FA01F18383D2ED007A99
:1024780094ED7C7AB4EEC74AF0EEE77AF1EE10FA02
:1024880067EEA37A05DD94ED7C7A37EE877A84EDE2
:102498007C7A94ED7C7AB4EEC74AF1EE10FA05D551
:1024A80094ED7C7A77EE677AC4ED7C7A94F8F8300C
:1024B80081ED004A0133DBB284F8F83094F8F83043
:1024C800092B01F20984DFF848816369C4F868318F
:1024D80094F859330BB9637A1BB1D4F81C32C4F899
:1024E800AC31D4ED186A94ED287AD4ED197A94EDCC
:1024F800276A444867EE867A0346E6EE877A0746F7
:102508000546C4ED1A7AD4ED186A94ED277AD4ED0D
:10251800197A94ED286A67EE867AE6EEC77AC4EDF2
:102528001B7AA26E43F80C2BE26E47F8102FD4F8F2
:10253800102345F8202FD3ED006A90ED007AD0EDF6
:10254800027A37EE677AD0ED027AE6EE877A0346AA
:102558002833C0ED027AD0ED076A97ED007AD0ED06
:10256800067A37EE677AD0ED067AE6EE877AC0ED1E
:10257800067AD0ED0B6A95ED007AD0ED0A7A37EE3F
:10258800677AD0ED0A7AE6EE877AC0ED0A7A1B6898
:10259800C4F8103394F84034012B09D1A0F5E67340
:1025A800D4F8AC211A60A0F5FA70D4F8043798472B
:1025B80094F80436012B0CD1134BD4F82421A3F53D
:1025C800D27043F80829D4F8D8211A60D4F808370B
:1025D800984794F85B33032B01F23280DFE813F05D
:1025E800C109C509B6091608000C024000F887FFA2
:1025F80083F9A23E0000003034080020A007002024
:10260800980700203406002018060020D84800202B
:1026180030040020DB0F49C0DB0FC94094ED467A37
:10262800D4ED477A94EDDC6AD4ED456AB4EEE67AE7
:10263800F1EE10FA67EE867A05DDD4ED456A77EE9D
:10264800A66AC4ED456AD4ED456AB4EEE67AF1EEC1
:1026580010FA05D594ED457A77EE677AC4ED457A98
:1026680094ED486AD4ED456AD4ED497A1FED177A9E
:10267800E6EE267AC4ED497AD4ED497AF4EEC77AC3
:10268800F1EE10FA41F11483D4ED497A1FED1E7A68
:1026980077EE877AC4ED497ADB4994ED497A0A687E
:1026A80002F00F02012A07D00868D84A024042F413
:1026B800002242F061020A60DFEDD57AD24ADFEDEE
:1026C800D56A27EE277ABEEEE07A82ED017A92ED9E
:1026D800027AB8EEC77A27EE267A84ED277AD2ED09
:1026E800027AF8EEE77A67EEA67AC4ED287A94F8CB
:1026F8005A23012A01F0EF8594F85A23002A02F0A0
:102708007981DFF84493D4ED186A94ED287AD4EDF2
:10271800197A94ED276AC04B67EE867A1A46E6EE78
:10272800877A1F461D46C4ED1A7AD4ED196A94EDCE
:10273800287A94ED186AD4ED277A67EEC67AE6EE21
:10274800877AC4ED1B7AA16E42F80C1BE16E47F83C
:10275800101FD4F8101345F8201FD2ED006A93ED2E
:10276800007AD3ED027A37EE677AD3ED027AE6EE95
:10277800877A19462831C3ED027AD3ED076A97EDB7
:10278800007AD3ED067A37EE677AD3ED067AE6EE6D
:10279800877AC3ED067AD3ED0B6A95ED007AD3ED0F
:1027A8000A7A37EE677AD3ED0A7AE6EE877AC3EDCE
:1027B8000A7A94F85A33002B41F0D1820B68C4F896
:1027C8001033D4F84C31C4F81433D4F85031C4F869
:1027D8001833D4F85431C4F81C339048D4F8F03680
:1027E800984794EDCC6A94ED287AD4EDCD7AD4ED5F
:1027F800275ADFED8B6A67EEA57AE6EE077AC4ED15
:10280800CE7A94EDCC6A94ED277AD4EDCD7AD4EDD6
:10281800285A67EEA57AE6EE477AC4EDCF7A94EDAA
:10282800036A94ED287AD4ED045AD4ED277A67EE3A
:10283800E57AE6EE077AC4ED507A94ED046A94EDF1
:10284800287AD4ED037AD4ED275A67EEA57AE6EE16
:10285800077AC4ED517A94EDCE6A94EDC47A27EEE6
:10286800267AC6EE077AC4EDD47A94EDCF6AD4ED11
:10287800C47A67EEA67A86EE277A84EDD37A94ED49
:10288800D47AD4EDD47A94EDD30AD4EDD36A20EE79
:10289800260AA7EE270AB5EE400AF1EE10FAB1EEC5
:1028A800C08A03F14C825F4884ED4D8AD4ED457AA5
:1028B8009FED5D7AD4EDE56A67EE877A87EEA67AB2
:1028C80084ED0B7AD4F81033C4F84831D4F8E836DC
:1028D800984794ED537A94ED546AD4ED556AD4ED43
:1028E8004A7A4FF4003393FAA3F3F0EE675AB3FA37
:1028F80083F3E7EE275A103BDBB24C484C4A30F8DA
:1029080013704C49BD58BCEEE57A0D4017EE103AED
:102918002B434FF4002CBB509CFAACF3B0EE677A13
:10292800B3FA83F3A6EE277A103BDBB230F81350E4
:10293800BCEEC77AAB5817EE107A0B401F43AF5066
:102948004FF4801393FAA3F3B3FA83F3103BDBB28B
:10295800E6EEA77A30F81350374FAB583748FCEEFD
:10296800E77A0B4017EE901A1943A950236EC4F862
:10297800B033636EC4F8B433D4F81033C4F8B83342
:102988003B69C4F8BC33D4F8F436984794F8C0339C
:10299800002B41F0E1812378DBB22370D4F84C316D
:1029A800C9F81C30D4F85031C9F82030244DD4F877
:1029B8005431C9F8243003F0E7F994ED037AD5EDE2
:1029C800097AB4EE677AF1EE10FA02D194F8C033BE
:1029D8000BB101232B70E2686A621A4B226E1A60EF
:1029E8001F46626E47F8042F1846D4F84C2140F869
:1029F800082F1A46D4F8241342F80C1F2978002906
:102A08003EF443A922E000BF000C024000F887FF13
:102A180083F9A23E00000030340600201003002095
:102A28003ACD933F400100200000704258F0000862
:102A38001C6801400000FFFFB04800209C030020F4
:102A480068080020A0480020D8480020A9681C6811
:102A580001F10A0305EB83031C60AB68396803F2D4
:102A68000A4305EB83031960AB680168FEF7F4B805
:102A780094F8E923042A3DF6B9AE94F8E933013312
:102A8800DBB2FDF7B3BEDE49D1F8980340F0C000D1
:102A9800C1F89803D1F8940340F03300C1F89403C7
:102AA8004FF4003191FAA1F1B1FA81F11039C9B2AC
:102AB800D44FD54837F811E0D44D5EF800C09918C6
:102AC8000CEA050C41EA0C014EF800104FF4002105
:102AD800FEF78DB8CA49D1F8980340F00300C1F851
:102AE8009803D1F8940340F0F000C1F894034FF430
:102AF800002191FAA1F1B1FA81F11039C9B2C14DA1
:102B0800C14835F811C0C14C5CF80070991A2740CB
:102B180039434CF800104FF4801191FAA1F1B1FA41
:102B280081F11039C9B21344FDF7DEBBB449D1F8BD
:102B3800980340F03000C1F89803D1F8940340F0AE
:102B4800C300C1F894034FF40031FEF73AB9AC4919
:102B5800D1F8980340F0C000C1F89803D1F8940365
:102B680040F03300C1F894034FF4003191FAA1F119
:102B7800B1FA81F11039C9B2A24FA34837F811E070
:102B8800A24D5EF800C0991A0CEA050C41EA0C0146
:102B98004EF800104FF40021FEF729B99849D1F8F2
:102BA800980340F00300C1F89803D1F8940340F06B
:102BB800F000C1F894034FF4002191FAA1F1B1FAA1
:102BC80081F11039C9B28F4F8F4837F811E08F4D16
:102BD8005EF800C099180CEA050C41EA0C014EF8A1
:102BE80000104FF4801191FAA1F1B1FA81F1103976
:102BF800C9B29B1AFEF702B98149D1F8980340F08F
:102C08003000C1F89803D1F8940340F0C300C1F82C
:102C180094034FF40031D0E77949D1F8980340F094
:102C2800C000C1F89803D1F8940340F03300C1F80C
:102C380094034FF4003191FAA1F1B1FA81F11039FE
:102C4800C9B2704F704837F811E0704D5EF800C097
:102C580099180CEA050C41EA0C014EF800104FF4E3
:102C68000021C0E76649D1F8980340F03000C1F868
:102C78009803D1F8940340F0C300C1F894034FF4CB
:102C8800003136E75E49D1F8980340F0C000C1F83A
:102C98009803D1F8940340F03300C1F894034FF43B
:102CA800003191FAA1F1B1FA81F11039C9B2554D4B
:102CB800554835F811C0554C5CF80070991A2740F2
:102CC80039434CF800104FF4002126E74C49D1F85D
:102CD800980340F00300C1F89803D1F8940340F03A
:102CE800F000C1F894034FF4002191FAA1F1B1FA70
:102CF80081F11039C9B2434D434835F811C0434CEE
:102D08005CF800709918274039434CF800104FF4CC
:102D18008011FDF7E2BA3A49D1F8980340F0300043
:102D2800C1F89803D1F8940340F0C300C1F89403A4
:102D38004FF40031D9E73249D1F8980340F0030045
:102D4800C1F89803D1F8940340F0F000C1F8940357
:102D58004FF4002191FAA1F1B1FA81F11039C9B209
:102D6800284F294837F811E0284D5EF800C0991A15
:102D78000CEA050C41EA0C014EF800104FF48011E2
:102D880091FAA1F1B1FA81F11039C9B21344FDF7F2
:102D980035BF1B49D1F8980340F03000C1F89803BB
:102DA800D1F8940340F0C300C1F894034FF4003104
:102DB800D0E71349D1F8980340F0C000C1F8980350
:102DC800D1F8940340F03300C1F894034FF4003174
:102DD80091FAA1F1B1FA81F11039C9B2094F0A4843
:102DE80037F811E0094D5EF800C0991A0CEA050C95
:102DF80041EA0C014EF800104FF40021C0E700BF73
:102E08000068014058F000081C6801400000FFFFFE
:102E18001949D1F8980340F00300C1F89803D1F894
:102E2800940340F0F000C1F894034FF40021FDF73B
:102E3800C8BE124BD4F8400111491A4642F8040B97
:102E4800D4F844011060D4F8100398600A68DA6076
:102E58000C4D2B78002B3DF418AFAB6807490A33AB
:102E680005EB8303086818600A1DAB681068083111
:102E78000832FDF7EABE00BF00680140A048002004
:102E88002C06002068080020DFF8DC83D4ED1B7ACC
:102E9800D8ED006A94EDE37A67EEA67A67EE877A52
:102EA800C4ED1C7A98ED007A94ED1A6AD4EDE26AC2
:102EB800D4EDB97AE6EE267A67EE877AC4ED1D7A04
:102EC80094F84034002B00F0EC86D64B1B68C4F80D
:102ED800AC3194F84034002B00F0DF86D24B1B68ED
:102EE800C4F86831A36EC4F86C31E36EC4F8B0312D
:102EF800D4ED1C7ACD4DF1EE677AC4ED5C7AD4ED51
:102F08001D7A95ED007A77EE877AA5F2AC40C4ED8C
:102F18006D7AD4F84033C4F88C31D4ED637AF1EE8D
:102F2800677AC4ED647AD4F84433C4F8D031D4ED68
:102F3800747AF1EE677AC4ED757AD4F8E436984776
:102F4800D4F8E436A5F58D609847D4F89431C4F8E0
:102F58003833D4F8D831C4F83C33D4EDD27ADFED25
:102F6800B46A94EDC47A67EEA67A67EE877AC4ED00
:102F7800D07A94EDD07AD4EDD07AD4EDCE6A94EDAF
:102F8800CE0A20EE660AA7EE270AB5EE400AF1EE51
:102F980010FAB1EEC08A02F1CB86A649081F84ED6B
:102FA800D18A94EDD00A02F0FBFED4EDCE6A94EDFE
:102FB800287A94EDCF6AD4ED277A9F4867EEC67ACF
:102FC800E6EE877AC4ED507AD4EDCF6A94ED287A8C
:102FD800D4EDCE7A94ED276A67EE867AE6EE877AA4
:102FE800C4ED517AD4F84C31C4F81433D4F85031C4
:102FF800C4F81833D4F85431C4F81C33D4F8F03674
:103008009847D4F81033C4F84831D4F8E8368B48D8
:10301800984794ED537A94ED546AD4ED556AD4EDFB
:103028004A7A4FF4003393FAA3F3F0EE675AB3FAEF
:1030380083F3E7EE275A103BDBB28148814A30F828
:1030480013708149BD58BCEEE57A0D4017EE103A71
:103058002B434FF4002CBB509CFAACF3B0EE677ACC
:10306800B3FA83F3A6EE277A103BDBB230F813509D
:10307800BCEEC77AAB5817EE107A0B401F43AF501F
:103088004FF4801393FAA3F3B3FA83F3103BDBB244
:10309800E6EEA77A30F813006C4D8358FCEEE77A19
:1030A8000B4017EE901A002719438150BC46BE46C4
:1030B800092029692A692B69C1F3C011C2F30022CA
:1030C800C3F3402301388E4494441F44F1D1BEF128
:1030D800040FD4BF4FF0000E4FF0010EBCF1040FE7
:1030E8005B4DD4BF4FF0000C4FF0010C042FD4BF40
:1030F8000027012785F800E085F801C0AF70D8F8EF
:1031080000302B6302F034FEEB69C4F8E83094F821
:103118005933012B01F0B68194F85933002B01F093
:10312800938694F85933022B01F09187D8ED007AF1
:103138009FED487AD4EDE56A474B484867EE877AB1
:1031480087EEA67A84ED0B7A226EC4F8B023626EFD
:10315800C4F8B423D4F81023C4F8B8231B69C4F8FE
:10316800BC33D4F8F436984794F8C033002B40F0B9
:10317800F0852378DBB23A4D237094ED067AD5EDCD
:10318800097AB4EE677AF1EE10FA02D194F8C033F6
:103198000BB101232B70A2696A62324BD4F8242345
:1031A8001A601F46D4F8282347F8042F1846E26B04
:1031B80040F8082F1A46216C42F80C1F297800297C
:1031C8003DF463AD42E40023DFF89C802367D8ED2B
:1031D800007A94EDB97A67EE877AC4ED1D7A6FE6C6
:1031E800DFF88480D4ED1B7AD8ED006A94EDE37A99
:1031F80067EEA67A67EE877AC4ED1C7AD4ED1A7A60
:10320800D8ED006A94EDE27A67EEA67A67EE877ADF
:10321800C4ED1D7A54E600232367DFF84C8063670A
:103228004EE600BF700400206C0400201406002045
:103238003ACD133F3C03002010030020400100203A
:1032480058F000081C6801400000FFFF0004004817
:10325800A4070020EBC91841B04800209C030020B7
:1032680068080020A048002030040020DFF8988378
:10327800D4ED1B7AD8ED006A94EDE37A67EEA67A6E
:1032880067EE877AC4ED1C7A98ED007A94ED1A6A95
:10329800D4EDE26AD4EDB97AE6EE267A67EE877A5B
:1032A800C4ED1D7A94F84034002B00F04285C34BDE
:1032B8001B68C4F8AC3194F84034002B00F0358515
:1032C800BF4B1B68C4F86831A36EC4F86C31E36E59
:1032D800C4F8B031D4ED1C7ABA4DF1EE677AC4ED7A
:1032E8005C7AD4ED1D7A95ED007A77EE877AA5F2AF
:1032F800AC40C4ED6D7AD4F84033C4F88C31D4EDC9
:10330800637AF1EE677AC4ED647AD4F84433C4F88A
:10331800D031D4ED747AF1EE677AC4ED757AD4F8C9
:10332800E4369847D4F8E436A5F58D609847D4F884
:103338009431C4F83833D4F8D831C4F83C33D4EDD8
:10334800D27ADFEDA16A94EDC47A67EEA67A67EEC9
:10335800877AC4EDD07A94EDD07AD4EDD07AD4EDD2
:10336800CE6A94EDCE0A20EE660AA7EE270AB5EEDD
:10337800400AF1EE10FAB1EEC08A02F1E4849349F2
:10338800081F84EDD18A94EDD00A02F009FDD4ED2E
:10339800CE6A94ED287A94EDCF6AD4ED277A8C48DA
:1033A80067EEC67AE6EE877AC4ED507AD4EDCF6A36
:1033B80094ED287AD4EDCE7A94ED276A67EE867A72
:1033C800E6EE877AC4ED517AD4F84C31C4F8143358
:1033D800D4F85031C4F81833D4F85431C4F81C3335
:1033E800D4F8F0369847D4F81033C4F84831D4F8F4
:1033F800E8367848984794ED537A94ED546AD4EDBA
:10340800556AD4ED4A7A4FF4003393FAA3F3F0EEF9
:10341800675AB3FA83F3E7EE275A103BDBB26E48DC
:103428006E4A30F813706E49BD58BCEEE57A0D400F
:1034380017EE103A2B434FF4002CBB509CFAACF318
:10344800B0EE677AB3FA83F3A6EE277A103BDBB2C5
:1034580030F81350BCEEC77AAB5817EE107A0B4011
:103468001F43AF504FF4801393FAA3F3B3FA83F3D7
:10347800103BDBB2E6EEA77A30F81300594D8358BB
:10348800FCEEE77A0B4017EE901A0027194381509B
:10349800BC46BE46092029692A692B69C1F3C011B7
:1034A800C2F30022C3F3402301388E4494441F44DE
:1034B800F1D1BEF1040FD4BF4FF0000E4FF0010E52
:1034C800BCF1040F484BD4BF4FF0000C4FF0010C77
:1034D800042FD4BF0027012783F800E083F801C038
:1034E8009F70D8F800201A6302F042FC236EC4F8DB
:1034F800D432636EC4F8D832D4F84031C4F8DC3220
:10350800D4F84431C4F8E0323848D4F8FC36984747
:1035180094ED457ADFED367A9FED366A364B3748BB
:1035280027EE277A88ED007AD8ED007AD4EDE56A9F
:1035380067EE867A87EEA67A84ED0B7A226EC4F857
:10354800B023626EC4F8B423D4F81023C4F8B823A7
:103558001B69C4F8BC33D4F8F436984794F8C033E0
:10356800002B40F0E0832378DBB2254D237094EDE7
:10357800057AD5ED097AB4EE677AF1EE10FA02D140
:1035880094F8C0330BB101232B7062696A621D4B3A
:10359800226E1A601F46626E47F8042FA26E184604
:1035A80040F8082F1A46D4F8081342F80C1F297857
:1035B80000293DF46AABFFF749BA00BF7004002048
:1035C8006C040020140600203ACD133F3C03002071
:1035D800100300204001002058F000081C6801403A
:1035E8000000FFFF00040048A4070020D4020020C8
:1035F800DB0FC940EBC91841B04800209C030020EC
:1036080068080020A048002030040020D4ED1B7A70
:10361800D8ED006A94EDE37A67EEA67A67EE877ACA
:10362800C4ED1C7A98ED007A94ED1A6AD4EDE26A3A
:10363800D4EDB97AE6EE267A67EE877AC4ED1D7A7C
:1036480094F84034002B00F05F83DB4B1B68C4F810
:10365800AC3194F84034002B00F06283D74B1B68E0
:10366800C4F86831A36EC4F86C31E36EC4F8B031A5
:10367800D4ED1C7AD24DF1EE677AC4ED5C7AD4EDC4
:103688001D7A95ED007A77EE877AA5F2AC40C4ED05
:103698006D7AD4F84033C4F88C31D4ED637AF1EE06
:1036A800677AC4ED647AD4F84433C4F8D031D4EDE1
:1036B800747AF1EE677AC4ED757AD4F8E4369847EF
:1036C800D4F8E436A5F58D609847D4F89431C4F859
:1036D8003833D4F8D831C4F83C33D4EDD27ADFED9E
:1036E800B96A94EDC47A67EEA67A67EE877AC4ED74
:1036F800D07A94EDD07AD4EDD07AD4EDCE6A94ED28
:10370800CE0A20EE660AA7EE270AB5EE400AF1EEC9
:1037180010FAB1EEC08A02F10383AB49081F84EDA9
:10372800D18A94EDD00A02F03BFBD4EDCE6A94ED39
:10373800287A94EDCF6AD4ED277AA44867EEC67A42
:10374800E6EE877AC4ED507AD4EDCF6A94ED287A04
:10375800D4EDCE7A94ED276A67EE867AE6EE877A1C
:10376800C4ED517AD4F84C31C4F81433D4F850313C
:10377800C4F81833D4F85431C4F81C33D4F8F036EC
:103788009847D4F81033C4F84831D4F8E83690484C
:10379800984794ED537A94ED546AD4ED556AD4ED74
:1037A8004A7A4FF4003393FAA3F3F0EE675AB3FA68
:1037B80083F3E7EE275A103BDBB28648864A30F897
:1037C80013708649BD58BCEEE57A0D4017EE103AE5
:1037D8002B434FF4002CBB509CFAACF3B0EE677A45
:1037E800B3FA83F3A6EE277A103BDBB230F8135016
:1037F800BCEEC77AAB5817EE107A0B401F43AF5098
:103808004FF4801393FAA3F3B3FA83F3103BDBB2BC
:10381800E6EEA77A30F81300714F8358FCEEE77A8A
:103828000B4017EE901A002519438150AC46AE465E
:10383800092039693A693B69C1F3C011C2F3002212
:10384800C3F3402301388E4494441D44F1D1BEF1A2
:10385800040FD4BF4FF0000E4FF0010EBCF1040F5F
:10386800604FD4BF4FF0000C4FF0010C042DD4BFB3
:103878000025012587F800E087F801C0BD70D8F859
:1038880000303B6302F074FAFB69C4F8E83094F83E
:103898005933012B00F00F8694F85933002B01F0AF
:1038A800BB8194F85933022B01F0FA87DFF84CA159
:1038B800D8ED007A9FED4C7AD4EDE56A4B4B4C4835
:1038C80067EE877A87EEA67A84ED0B7A226EC4F8C3
:1038D800B023626EC4F8B423D4F81023C4F8B82314
:1038E8001B69C4F8BC33D4F8F436984794F8C0334D
:1038F800002B40F013822378DBB22370D4F84C31CC
:10390800C9F81C30D4F85031C9F82030D4F85431F3
:10391800384DC9F8243094ED087AD5ED097AB4EE1B
:10392800677AF1EE10FA02D194F8C0330BB1012393
:103938002B70226A6A62304B7A691A60FA691F46EC
:10394800184647F8042FDAF8002029E600232367F1
:10395800D8ED007A94EDB97A67EE877AC4ED1D7ACE
:103968006EE60023236763676AE6D4ED1B7AD8ED19
:10397800006A94EDE37A67EEA67A67EE877AC4ED7B
:103988001C7AD4ED1A7AD8ED006A94EDE27A67EEE3
:10399800A67A67EE877AC4ED1D7A51E60023DFF830
:1039A80060802367D8ED007A94EDB97A67EE877A5C
:1039B800C4ED1D7A76E400BF700400206C0400207A
:1039C800140600203ACD133F3C03002010030020CA
:1039D8004001002058F000081C6801400000FFFF6B
:1039E80000040048A4070020EBC91841B048002093
:1039F8009C03002068080020A04800203404002010
:103A080030040020DFF8F883D4ED1B7AD8ED006A83
:103A180094EDE37A67EEA67A67EE877AC4ED1C7AAE
:103A2800D4ED1A7AD8ED006A94EDE27A67EEA67AB8
:103A380067EE877AC4ED1D7A34E400232367DFF844
:103A4800C08363672EE4DF4BD4F83401DE491A469D
:103A580042F8040B0869DD49FFF7F4B9D3ED007AA1
:103A6800D84BF8EEE77A1A46E2EC017AD4F8FC1063
:103A78001160216E9960D4F84C21DA60FFF7E8B93B
:103A8800D3ED017ACF4BF8EEE77A1A46E2EC017AE9
:103A9800D4F800111160616E9960D4F85021DA6091
:103AA800FFF7D6B994ED4E7AD4EDDC7AD4ED4D6AB1
:103AB800B4EEE67AB6EE006AF1EE10FA67EE867AB0
:103AC80005DDD4ED4D6A77EEA66AC4ED4D6AD4EDF6
:103AD8004D6AB4EEE67AF1EE10FA7CF5F1AF94EDAA
:103AE8004D7A77EE677AC4ED4D7AFCF7E9BF94ED2D
:103AF800087AD4EDDC7AD4ED7C6A9FEDB56AB4EE31
:103B0800E67AF1EE10FA67EE867A05DDD4ED7C6A86
:103B180077EEA66AC4ED7C6AD4ED7C6AB4EEE67AE8
:103B2800F1EE10FA05D594ED7C7A77EE677AC4ED5C
:103B38007C7AD8ED007AA748F0EEE77AC4ED7D7A72
:103B4800D4F8E4369847D4F81C32C4F83431FCF77A
:103B5800B3BF02F015F9AB6800220133AB6085F8FA
:103B68002220FDF7FFB80523FDF705B80523FCF76C
:103B78003DBEB6EE085A27EE057AF4EEC76AF1EEB6
:103B880010FA40F3648192ED007AF4EEC77AF1EE10
:103B980010FA23EE866A05DD92ED007A36EE077A92
:103BA80082ED007A92ED007AF4EEC77AF1EE10FA1F
:103BB800D2ED007A7EF55CAC37EEC66A82ED006A1B
:103BC800FEF754BCF6EE084A27EE247AF4EEC76AEC
:103BD800F1EE10FA40F31A8192ED007AF4EEC77A0A
:103BE800F1EE10FA23EE866A05DD92ED007A36EEE4
:103BF800077A82ED007A92ED007AF4EEC77AF1EE58
:103C080010FAD2ED007A7DF542AD37EEC66A82ED44
:103C1800006AFDF73ABDE278062A00F0A48794ED21
:103C2800486AD4ED456AD4ED497A9FED6B7AE6EEA1
:103C3800267AC4ED497AD4ED497AF4EEC77AF1EEE2
:103C480010FA40F12581D4ED497A9FED6F7A77EE2D
:103C5800877AC4ED497AFDF749BF94ED497ADFEDDB
:103C6800697AB4EEE77AF1EE10FA7DF74CADD4ED4F
:103C7800497A9FED657A77EEC77AC4ED497AFDF700
:103C880042BD34EE477A5548554A0023B0EEC77A0C
:103C980080ED007A1360FEF7C7BBD4F86831FFF7F0
:103CA8001FB9D4F8AC31FFF712B90723FEF77EB974
:103CB80094ED497ADFED537AB4EEE77AF1EE10FA33
:103CC8007EF7EAACD4ED497A9FED4F7A77EEC77A62
:103CD800C4ED497AFEF7E0BC002384F8F83094F884
:103CE8005A333C48012B16BFDFF81481D9F85030FD
:103CF800D8F80030C4F8F431D4F8E43608BFDFF857
:103D080000819847FEF7E1BBD4F8AC319FE4072364
:103D1800FDF79CBA334A926CFDF7EEB90723ECE540
:103D2800D4F868319CE407231FE4D4F86831FFF71E
:103D3800C9BAD4F8AC31FFF7BCBA35EE477A274D8B
:103D4800274A0020B0EEC77A85ED007A1060FDF7AB
:103D58007ABC0723FFF70FBA0723FEF71EBED9F870
:103D68004830FEF72CBD0723FEF7C9BAC4F8F42083
:103D7800D4EDD77A9FED1C7A1C4B1D4A1D481E4D69
:103D88001E4967EE877AC4ED057A84ED336A84EDBF
:103D9800316AC4F81401C4F8BC21C4F87821C4F805
:103DA800E031C4F89C31012384ED796A84ED686AB6
:103DB80084ED796A84ED696A2B70A3703960FEF727
:103DC80021BA00BFA0480020B04800202C060020DF
:103DD8000000FA43F0010020DB0F49C0A0070020D3
:103DE80098070020D8480020CDCC4C3ECDCCCC3D07
:103DF8006F12833A00007A4468080020CDCC4C3D0D
:103E080030040020DB0F4940DB0FC940F4EEE65ACE
:103E1800F1EE10FA41F31085D2ED007AF5EEC07A92
:103E2800F1EE10FA23EE866A05D5D2ED007A76EE29
:103E3800277AC2ED007AD2ED007AF5EEC07AF1EE7B
:103E480010FAD2ED007A3FF7E0AEFDF720BCF4EEB1
:103E5800E65AF1EE10FA41F3F384D2ED007AF5EE6A
:103E6800C07AF1EE10FA23EE866A05D5D2ED007A13
:103E780076EE277AC2ED007AD2ED007AF5EEC07AB6
:103E8800F1EE10FAD2ED007A3FF796AEFEF7F0BAEF
:103E980094ED497A5FED257AB4EEE77AF1EE10FAFF
:103EA8007DF724AED4ED497A1FED297A77EEC77AEB
:103EB800C4ED497AFDF71ABEDFF8B8939FEDE26AC0
:103EC800D9F86430C4F82431D9F8B0302366D9ED74
:103ED8002C6AD9ED2D7A9FEDDD7A67EE867AE6EECB
:103EE800877AC4ED197AD9F84830C4F81033FEF748
:103EF80031B994ED057ADFEDD65A94ED055A94ED73
:103F0800DC6AD4ED5A6AC5EE257AB4EEE67AF1EEAB
:103F180010FA67EE867A05DDD4ED5A6A77EEA66A5E
:103F2800C4ED5A6AD4ED5A6AB4EEE67AF1EE10FAA4
:103F380005D594ED5A7A77EE677AC4ED5A7A002758
:103F4800C4F8AC71A36EC4F86C31E36EC4F8B03138
:103F5800D4F84033C4F88C31D4ED637ABD48F1EE1F
:103F6800677AC4ED647AD4F84033C4F8D031D4ED1C
:103F7800747AF1EE677AC4ED757AD4F8E436984726
:103F8800D4F8E436B4489847D4F89431C4F83833B0
:103F9800D4F8D831C4F83C33D4EDD27A94EDC47A4D
:103FA800AE4967EE877A081FC4EDD07A94EDD00A3F
:103FB80001F0F6FED4F84C31C4F81433D4F850317B
:103FC800C4F81833D4F85431C4F81C33A448D4F8CE
:103FD800F0369847D4EDCE6A94ED287A94EDCF6AFE
:103FE800D4ED277A9F4867EEC67AE6EE877AC4ED65
:103FF800507AD4EDCF6A94ED287AD4EDCE7A94ED48
:10400800276A67EE867AE6EE877AC4ED517AD4F8A5
:104018001033C4F84831D4F8E8369847D4F8F43067
:10402800D4EDDB7AB6EE007A67EE877AFCEEE77AB3
:1040380017EE902A9342FEF4E9A894EDDF7A9FEDFB
:104048008A5AD4EDDA5AD4EDC46A94EDE06ADBED0D
:10405800007A27EE057AF0EEE77A27EE257A67EE02
:10406800867AE7EE267AC4ED397A94F85A330BB992
:10407800D4F8E470C4F8E470D4EDCE7A94ED397ACB
:104088009BED006ADFED796A77EEC77A87EE867A6C
:1040980084ED387A94ED297A94ED386AD4ED297A4A
:1040A80037EE467AE7EE667AC4ED297AD4F8F4302A
:1040B800D4EDDB7AFCEEE77A17EE902A93421CD314
:1040C80000230222C4F86831C4F85431C4F85031CE
:1040D800C4F84C31A270DFED5E7A9BED007AB4EE45
:1040E800E77AF1EE10FA08D5062384F89C3301220A
:1040F8005F4B84F8C023C4F8A43001232B70FEF76B
:1041080085B85C4B9FED506A5A6EC4F82421D3F8E9
:10411800B0202266D3ED2C6AD3ED2D7A9FED4B7A31
:1041280067EE867AE6EE877AC4ED197A9B6CC4F856
:104138001033FDF7BABBDFF83C919FED436AD9F81D
:104148006430C4F82431D9F8B0302366D9ED2C6A2C
:10415800D9ED2D7A9FED3D7A67EE867AE6EE877A7D
:10416800C4ED197AD9F84830C4F81033FDF700BD0A
:10417800414F9FED427A3A6801323A60D4EDDB7ADA
:104188003A6867EE877AFCEEE77A17EE901A914262
:104198003DF6B6ACD4ED497ADFED396A9FED397A50
:1041A80077EEA67AC4ED497AD4ED497AF4EEC77A67
:1041B800F1EE10FA41F1CE83D4ED497A9FED327ACF
:1041C80077EE877AC4ED497A00223A6094F805269A
:1041D8002E4D0132D2B2012184F805262970FDF74F
:1041E80090BCD4EDD77A9FED2A7A2A48DFED2A6A67
:1041F800214A019067EE877A0021C4ED057AC4F858
:10420800241190ED007A94ED656AD0ED007A37EECE
:10421800467AE7EE667AC0ED007A116801311160DE
:10422800D4EDDB7A116877EEA77AFCEEE77A17EE21
:10423800900A88423DF660AC00210520E0701160CC
:1042480084F80516FDF758BC3ACD933F3ACD133F95
:10425800CDCCCC3D68010020AC0100203C030020FF
:1042680010030020400100205F7089306F12833AEC
:10427800000080BFD84800209C070020CDCC4C3DD2
:10428800FDAD803DDB0F49C0DB0FC9406808002049
:10429800CDCC4C3E080600200AD7A33BDFF850934C
:1042A8009FEDD86AD9F86430C4F82431D9F8B03011
:1042B8002366D9ED2C6AD9ED2D7A9FEDD37A67EE76
:1042C800867AE6EE877AC4ED197AD9F84830C4F8C8
:1042D8001033FEF792B8DFF818939FEDCA6AD9F841
:1042E8006430C4F82431D9F8B0302366D9ED2C6A8B
:1042F800D9ED2D7A9FEDC47A67EE867AE6EE877A55
:10430800C4ED197AD9F84830C4F81033FEF7FBB970
:1043180094ED457ADFEDA86AD4ED467A67EEA67A81
:10432800B4EEE77AF1EE10FA45DDA44F3B680133AD
:104338003B60A379002B01F04A83D4EDDB7A3B681C
:10434800B0EE087A67EE877AFCEEE77A17EE902AE5
:104358009A4230D8A37903F0FF0263BBD4EDE47A24
:10436800DFED976A94EDE57ADFED965A9FED966A50
:1043780067EEA67AF6EE006A67EE877A002385EE86
:10438800A77A012184EDB97A94EDB97AD4EDB97A96
:1043980027EE277AC6EE077A67EEA67AC4EDC37AC7
:1043A800D4F81801C4F81C016069E061C4F8183138
:1043B8006361A1713A60A379012B7DF4D5AD7F4982
:1043C8009FED827A00230B6000228149C4F81421F2
:1043D8006261C4F81821C4F81C11D4EDD97A7D495A
:1043E80067EE877A0222C4ED087AA162E371072199
:1043F80084F85B23052284F85933E1702270FDF7B5
:10440800B3BD754B93ED007A019BD3ED007AD4EDE3
:10441800056A94F8053637EE677A03F58E73C7EEAA
:10442800267A04EB8303F1EE677AC3ED017A94F8F8
:104438000536622B7DF694AD0023C4F86831C4F8C4
:104448001431D4EDD77A654B9FED657ADFED656A57
:104458005A495F48B5EE006A67EE867A0622C4EDCF
:10446800057AE361D4EDD97A67EE877A002387EE7F
:10447800A67A84ED467AC4F81C01A3710B60E27039
:10448800FDF76EBD584DD4F8E8302B60D4F80037EE
:1044980028469847D8ED007A9FED547AF0EEE77AEF
:1044A800F4EEC77AF1EE10FA40F31B862B69C4F8D4
:1044B8002431FEF73BBE4C4DD4F8E8302B60D4F8DD
:1044C800003728469847D8ED007A9FED487AF0EEF5
:1044D800E77AF4EEC77AF1EE10FACBBFAA46D4F821
:1044E800E8305AF8103F05F1100AC4F82431FFF7F4
:1044F800DFB93F4B9FED436A5A6EC4F82421D3F8C5
:10450800B0202266D3ED2C6AD3ED2D7A9FED3E7A4A
:1045180067EE867AE6EE877AC4ED197A9B6CC4F862
:104528001033FCF7B1BF9FED338A9FED339ADFED6F
:104538002D8A08E077EEA87AC3ED017A08F1010820
:10454800B8F1060F28D008F1100208F1160307EB9E
:10455800830307EB820292ED010AD3ED010A01F011
:104568000BFC08F11C0307EB830383ED010AD3ED71
:10457800017AF4EEC87AF1EE10FAD3ED017AD9D4C3
:10458800F4EEC97AF1EE10FAD8DDD3ED017A77EEC0
:10459800E87AC3ED017AD1E70023084A6361002174
:1045A800C4F86831A361C4F81831C4F8143104237D
:1045B8001160E370FDF7D0BC3333733F9C070020D4
:1045C800EF1F2E410000704200007A449A99993EEC
:1045D800000020410000C8420C0600200000A04155
:1045E800CDCCCC3DDB0FC94024040020000048425C
:1045F800D8480020DB0F49C0DB0F49400000003AD3
:10460800000080393ACD933F3ACD133FD3ED007A7D
:104618001FED064AD4ED3F3AD4EDDD4A1FED085AA6
:104628005FED085A1FED087AEA49DFEDEB6A9FED66
:10463800EB6ADFF8AC93F8EEE77A64EE844A77EE3B
:10464800E37A67EEA47AC4ED0C7AD3ED017AD4ED5F
:10465800403AD4EDDD4AF8EEE77A64EE844A77EE24
:10466800E37A67EEA47AC4ED0D7AD3ED027AD4ED3D
:10467800413AD4EDDD4AF8EEE77A64EE844A77EE03
:10468800E37A67EEA47AC4ED0E7AD3ED067AD4ED18
:10469800DE4AF8EEE77A67EE857A67EEA47AC4ED2B
:1046A800C47AD3ED037A94ED424AD4EDDE4AF8EEAB
:1046B800E77A64EE854A77EEC47A67EEA47AC4EDA9
:1046C8000F7AD3ED047A94ED434AD4EDDE4AF8EE3E
:1046D800E77A64EE854A77EEC47A67EEA47AC4ED89
:1046E800107AD3ED057A94ED444AD4EDDE4AF8EE1B
:1046F800E77A24EE855A77EEC47A67EE857AC4EDB8
:10470800117A236B236694ED0C5AD4ED0D7A67EE7B
:10471800A57AE5EE077AC4ED197AD4EDFF5AD1ED02
:10472800007A91ED045A77EEC57A66EEE77AE5EEFF
:10473800867AC4ED127AD1ED007AD1ED046A77EE6B
:10474800E67A67EE877AC4ED137AFDF756BED3EDA5
:10475800007A9FEDA44AD4ED3F3AD4EDDD4A9FEDAF
:10476800A25ADFEDA25A9FEDA27A9A49DFED9A6A22
:104778009FED9A6ADFF86892F8EEE77A64EE844A69
:1047880077EEE37A67EEA47AC4ED0C7AD3ED017A7A
:10479800D4ED403AD4EDDD4AF8EEE77A64EE844A87
:1047A80077EEE37A67EEA47AC4ED0D7AD3ED027A58
:1047B800D4ED413AD4EDDD4AF8EEE77A64EE844A66
:1047C80077EEE37A67EEA47AC4ED0E7AD3ED067A33
:1047D800D4EDDE4AF8EEE77A67EE857A67EEA47ADA
:1047E800C4EDC47AD3ED037A94ED424AD4EDDE4A9F
:1047F800F8EEE77A64EE854A77EEC47A67EEA47A33
:10480800C4ED0F7AD3ED047A94ED434AD4EDDE4A31
:10481800F8EEE77A64EE854A77EEC47A67EEA47A12
:10482800C4ED107AD3ED057A94ED444AD4EDDE4A0E
:10483800F8EEE77A24EE855A77EEC47A67EE857A41
:10484800C4ED117A236B236694ED0C5AD4ED0D7ADE
:1048580067EEA57AE5EE077AC4ED197AD4EDFF5A2A
:10486800D1ED007A91ED045A77EEC57A66EEE77AD3
:10487800E5EE867AC4ED127AD1ED007AD1ED046ABC
:1048880077EEE67A67EE877AC4ED137AFDF762BCB5
:10489800D3ED007A9FED534AD4ED3F3AD4EDDD4A8B
:1048A8009FED515ADFED515A9FED517A494ADFED9C
:1048B8004A6A9FED4A6ADFF82891F8EEE77A64EED3
:1048C800844A77EEE37A67EEA47AC4ED0C7AD3EDE6
:1048D800017AD4ED403AD4EDDD4AF8EEE77A64EE99
:1048E800844A77EEE37A67EEA47AC4ED0D7AD3EDC5
:1048F800027AD4ED413AD4EDDD4AF8EEE77A64EE77
:10490800844A77EEE37A67EEA47AC4ED0E7AD3EDA3
:10491800067AD4EDDE4AF8EEE77A67EE857A67EE36
:10492800A47AC4EDC47AD3ED037A94ED424AD4ED67
:10493800DE4AF8EEE77A64EE854A77EEC47A67EEE7
:10494800A47AC4ED0F7AD3ED047A94ED434AD4EDFA
:10495800DE4AF8EEE77A64EE854A77EEC47A67EEC7
:10496800A47AC4ED107AD3ED057A94ED444AD4EDD7
:10497800DE4AF8EEE77A24EE855A77EEC47A67EED7
:10498800857AC4ED117A236B236694ED0C5AD4ED25
:104998000D7A67EEA57AE5EE077AC4ED197AD4EDBB
:1049A800FF5AD2ED007A92ED045A77EEC57A66EE98
:1049B800E77AE5EE867AC4ED127AD2ED007AD2ED86
:1049C800046A77EEE67A67EE877AC4ED137AFDF724
:1049D800CFB800BF0C040020ABAAAA3EABAA2A3F5E
:1049E800D84800200000003A000080393ACD933FB3
:1049F8003ACD133FD3ED007A1FED064AD4ED3F3A86
:104A0800D4EDDD4A1FED085A5FED085A1FED087A0C
:104A18007C49DFED7D6A9FED7D6ADFF8F491F8EE61
:104A2800E77A64EE844A77EEE37A67EEA47AC4ED17
:104A38000C7AD3ED017AD4ED403AD4EDDD4AF8EEA4
:104A4800E77A64EE844A77EEE37A67EEA47AC4EDF7
:104A58000D7AD3ED027AD4ED413AD4EDDD4AF8EE81
:104A6800E77A64EE844A77EEE37A67EEA47AC4EDD7
:104A78000E7AD3ED067AD4EDDE4AF8EEE77A67EEE1
:104A8800857A67EEA47AC4EDC47AD3ED037A94EDFF
:104A9800424AD4EDDE4AF8EEE77A64EE854A77EECC
:104AA800C47A67EEA47AC4ED0F7AD3ED047A94ED54
:104AB800434AD4EDDE4AF8EEE77A64EE854A77EEAB
:104AC800C47A67EEA47AC4ED107AD3ED057A94ED32
:104AD800444AD4EDDE4AF8EEE77A24EE855A77EEBA
:104AE800C47A67EE857AC4ED117A236B236694ED58
:104AF8000C5AD4ED0D7A67EEA57AE5EE077AC4ED87
:104B0800197AD4EDFF5AD1ED007A91ED045A77EE77
:104B1800C57A66EEE77AE5EE867AC4ED127AD1EDCB
:104B2800007AD1ED046A77EEE67A67EE877AC4ED0B
:104B3800137AFDF7E8BD7B78002B7DF48BA9BB7851
:104B4800012B7DF487A90323FB70FDF78BB97B78D4
:104B5800002B7DF483A9BB78002B7DF47FA9042367
:104B6800FB70FDF77FB994ED467AD4ED477A94ED62
:104B7800DC6AD4ED456AB4EEE67AF1EE10FA67EE37
:104B8800867A05DDD4ED456A77EEA66AC4ED456AF6
:104B9800D4ED456AB4EEE67AF1EE10FA7FF53FA857
:104BA80094ED457A77EE677AC4ED457AFFF737B822
:104BB8007B78012B7DF456A9BB78002B7DF452A994
:104BC8000523FB70FDF74EB9E378012B00F0DE8674
:104BD800FB78163307EB83035A68FB78163307EB29
:104BE80083035A60E378022B00F0CC86FB781033FD
:104BF80007EB83035A68FB78103307EB83035A608B
:104C0800FDF76DB90C040020ABAAAA3EABAA2A3F57
:104C1800D8480020CDCC4C3D98ED007A5FED036A72
:104C2800D4EDD97A67EEA67AB0EEC77AB4EEE77A11
:104C3800F1EE10FA0BD5D4ED087AF0EEE77AF5EE3E
:104C4800C07AF1EE10FA40F3D98700236372637AD1
:104C5800002B40F0BF802378052B00F0E787714ACE
:104C6800136813602378042B00F0D487136813604B
:104C780094EDD77AD2ED007ADFED6B5A9FED6B6A2F
:104C88006B4BF6EE006A27EE267AF8EEE77AF1EE3D
:104C9800046A67EE277ACDED077AD4EDD97A92EDDA
:104CA800007A67EEA57AB8EEC77A67EE867A67EE7D
:104CB800877AC4ED467AD4ED467A67EEA67AF0EEA6
:104CC800E77AC4ED477A1A6801321A60D4EDDB7AC4
:104CD8001A68FCEEE77A17EE901A914240F2428782
:104CE8000022C4F82421DDED076ADDED077A94ED92
:104CF800DC6A94ED6B7AF4EEC76AF0EEE77AF1EECF
:104D080010FA67EE867A05DD94ED6B7A37EE877ACE
:104D180084ED6B7A94ED6B7AF4EEC76AF1EE10FAD3
:104D280005D594ED6B7A77EE677AC4ED6B7A98EDDA
:104D3800007AD4ED467A9FED3F6ADFED3F6AF0EEE8
:104D4800E77A67EE867AB0EEC77A67EEA67AB4EEAF
:104D5800E77AF1EE10FA16DD012262722278042A4F
:104D68000CBFA2690022C4F8AC212278052A0CBF26
:104D780007990021C4F8081200220021C4F8142160
:104D8800C4F818211960D4EDDB7A1A6877EEA77A8F
:104D9800FCEEE77A17EE901A91421BD298ED007A52
:104DA800D4ED467A9FED236ADFED236AF0EEE77AC9
:104DB80067EE867AB0EEC77A67EEA67AB4EEE77A3F
:104DC800F1EE10FA06D500220021C4F81421C4F827
:104DD800AC211960236EC4F8D432636EC4F8D8329B
:104DE800D4F83033C4F8DC32D4F83433C4F8E032C1
:104DF800D4F8FC3611489847114BD4F808231A60A8
:104E0800637A0F48012B0CBFD4F80833D4F8243147
:104E1800C4F82431D4F8003700F1100A9847FEF797
:104E280047BD00BF3C080020CDCCCC3D83F9223ED5
:104E380040080020DB0FC9406666663FD4020020A8
:104E480024040020CDCC4C3D98ED007A5FED036A38
:104E5800D4EDD97A67EEA67AB0EEC77AB4EEE77ADF
:104E6800F1EE10FA0BD5D4ED087AF0EEE77AF5EE0C
:104E7800C07AF1EE10FA40F3B58600236372637AC4
:104E8800002B40F0BF802378052B00F00587D54A1A
:104E9800136813602378042B00F0D5861368136019
:104EA80094EDD77AD2ED007ADFEDCF5A9FEDCF6A35
:104EB800CF4BF6EE006A27EE267AF8EEE77AF1EEA7
:104EC800046A67EE277ACDED057AD4EDD97A92EDAA
:104ED800007A67EEA57AB8EEC77A67EE867A67EE4B
:104EE800877AC4ED467AD4ED467A67EEA67AF0EE74
:104EF800E77AC4ED477A1A6801321A60D4EDDB7A92
:104F08001A68FCEEE77A17EE901A914240F2EA85A9
:104F18000022C4F82421DDED056ADDED057A94ED63
:104F2800DC6A94ED6B7AF4EEC76AF0EEE77AF1EE9C
:104F380010FA67EE867A05DD94ED6B7A37EE877A9C
:104F480084ED6B7A94ED6B7AF4EEC76AF1EE10FAA1
:104F580005D594ED6B7A77EE677AC4ED6B7A98EDA8
:104F6800007AD4ED467A9FEDA36ADFEDA36AF0EEEE
:104F7800E77A67EE867AB0EEC77A67EEA67AB4EE7D
:104F8800E77AF1EE10FA16DD012262722278042A1D
:104F98000CBFA2690022C4F8AC212278052A0CBFF4
:104FA80005990021C4F8081200220021C4F8142130
:104FB800C4F818211960D4EDDB7A1A6877EEA77A5D
:104FC800FCEEE77A17EE901A91421BD298ED007A20
:104FD800D4ED467A9FED876ADFED876AF0EEE77ACF
:104FE80067EE867AB0EEC77A67EEA67AB4EEE77A0D
:104FF800F1EE10FA06D500220021C4F81421C4F8F5
:10500800AC211960236EC4F8D432636EC4F8D83268
:10501800D4F83033C4F8DC32D4F83433C4F8E0328E
:10502800D4F8FC3675489847754BD4F808231A60AD
:10503800637A7348012B0CBFD4F80833D4F82431B1
:10504800C4F82431D4F800379847FEF76FB8236EB8
:10505800C4F8D432636EC4F8D832D4F83033C4F804
:10506800DC32D4F83433C4F8E032D4F8FC36634880
:105078009847D8ED007A9FED637A634BF0EEE77AB4
:10508800CDED047ADDED047AF4EEC77AF1EE10FA8C
:10509800D8BF1A78DFED5D7AD4BFD2B201221A7078
:1050A8009DED047AB4EEE77AF1EE10FA56BF1A785D
:1050B8000022D2B21A701B78002B40F07B84504D2E
:1050C800D4F8E8302B60D4F80037284698479DED8F
:1050D800047ADFED4F7AB4EEE77AF1EE10FA3FF793
:1050E800E5A9D4F8E830FFF7E2B900230027C4F8AF
:1050F8004C31C4F85031C4F854316361C4F81431E8
:10510800C4F81831C4F81C31E360C4F8F470D4ED65
:10511800DC5A9FED406A9FED377AD4ED2B6AB7EEE3
:10512800008AC8EE257A67EE867A27EE877A66EED9
:10513800877AC4ED6F7AC4ED5E7AD4ED297AD4ED1E
:10514800DC6A67EE877A67EEA67AC4ED787AC4EDF2
:10515800677A94ED5E7AC8EE077AC4ED687A94EDC2
:105168006F7AC8EE077AC4ED797AD4ED297AD4ED4E
:105178002B6A94EDDC7AF1EE677A87EEA60A20EEC8
:10518800070A00F009FE84ED920AD4ED296A94ED2D
:10519800927A214BC8EE267A38EE478AB7EE087A1B
:1051A80027EE888A84ED908AC4F86432D4ED297A8F
:1051B80067EE877AC4EDBA7AD4ED2B7A67EE877AF0
:1051C800C4EDBB7AD4F8A430C4F88433D4F8AC3036
:1051D800C4F88833D4F8B030C4F88C332770FDF79E
:1051E80022B800BF3C080020CDCCCC3D83F9223E3C
:1051F80040080020DB0FC9406666663FD4020020E5
:105208002404002000009B43300800200000914344
:1052180000004842CDCC4C3DCDCC0C3FCDCC8C3F92
:10522800D4ED057AD4ED296A1FED047AB44A67EE05
:10523800A67A67EE877AC4ED037AD4ED497A1368C3
:1052480003F00F03012B07D01168AE4B0B4043F45A
:10525800002343F0610313609FEDAB6AA84BDFEDB9
:10526800AB6A9FEDAB7A67EE867AB0EE086AFEEE1F
:10527800E07AC3ED017AD3ED027AF8EEE77A67EEC9
:10528800A67AC4ED277AD3ED027AF8EEE77A67EECC
:10529800A67AC4ED287A84ED2F7AD4F8F430D4EDC8
:1052A800DB7A67EE867AFCEEE77A17EE902A93426D
:1052B80005D394ED277AD4ED037A27EE277A84ED87
:1052C800307AD4F8BC30C4F83833D4F8C030C4F8D5
:1052D8003C33D4EDD27ADFED8F6A94EDC47A8E49EF
:1052E80067EEA67A081F67EE877AC4EDD07A94ED48
:1052F800D00A00F055FD94ED037AD4EDD07AB4EEDF
:10530800E77AF1EE10FA0ADD844BC4F8AC300122DA
:10531800C4F8B030072384F8C02384F89C33D4F849
:105328004C31C4F81433D4F85031C4F81833D4F8D5
:105338005431C4F81C337A48D4F8F0369847D4ED81
:10534800CE7A9FED737AD4EDCF6A7648E6EEC77AC7
:10535800C4ED507AD4EDCF7AD4EDCE6AE6EE877AF2
:10536800C4ED517AD4F81033C4F84831D4F8E8368B
:105378009847D4F8F430D4EDDB7AB0EE0C7A67EEC7
:10538800877AFCEEE77A17EE902A9342C0F0A58060
:1053980094ED317AD4ED306A9FED636AD4ED317AB9
:1053A800DFED625AF0EEE66A37EE667AE7EE467AA5
:1053B800C4ED317A94ED337AD4ED1B6AD4ED337AA7
:1053C800F0EEE66A37EE667AE7EE467AC4ED337AAF
:1053D800D4F8F43094EDDA7AD4EDE67A27EE257A2B
:1053E800F8EE677A67EE277AFCEEE77A17EE902AEE
:1053F80093421DD394ED317AD4ED357AB4EEE77A41
:10540800F1EE10FACCBFD4F8C430D4F8D430C4F8D4
:10541800D43094ED337AD4ED367AB4EEE77AF1EEFF
:1054280010FACCBFD4F8CC30D4F8D830C4F8D8307F
:1054380094EDDF7A9FED3E5AD4EDDA5AD4EDC46A82
:1054480094EDE06ADAED007A27EE057AF0EEE77A75
:1054580027EE257A67EE867AE7EE267AC4ED397A62
:1054680094F85A33002B40F03983D4F8E430C4F868
:10547800E43001232B70D4ED357A94ED397AD4EDEC
:10548800366A77EEC77A87EEA67A84ED2D7A94EDA0
:105498002D7AD4ED2D7AD4ED296A94ED290A20EEDF
:1054A800660AA7EE270AB5EE400AF1EE10FAB1EE49
:1054B800C08A00F12E8484ED2E8AD4ED2E6A9FEDE9
:1054C8001D7AD4ED457A67EE877A86EEA77A84ED61
:1054D8002A7AD4F8A830C4F8B030D4F8F430D4ED2F
:1054E800DB7AB1EE007A67EE877AFCEEE77A17EEA0
:1054F800902A934228BF0427A770FCF790BE00BFEC
:10550800000C024000F887FF83F9A23E000000303B
:1055180000000000D7B35D3F3C030020000080BFBF
:1055280010030020400100206F12033A9A99794035
:105538005F708930DB0FC940CDCC8C3FD4ED057A44
:10554800D4ED296A1FED047AC74A67EEA67A67EE9A
:10555800877AC4ED037AD4ED497A136803F00F0310
:10556800012B07D01168C14B0B4043F4002343F0D3
:1055780061031360DFEDBE6ABB4B9FEDBE7ABE4987
:1055880067EEA67AF7EE086AFEEEE07A081FC3ED2A
:10559800017AD3ED027AF8EEE77A67EE877AC4EDFE
:1055A800277AD3ED027AF8EEE77A67EE877AC4EDC8
:1055B800287AD4F8F430D4EDDB7A67EEA67ADFEDFA
:1055C800AF6AFCEEE77A17EE902A934225BFD4ED36
:1055D800277A94ED037ADFEDAA7A67EE877A0023BB
:1055E800C4ED2F7AC4F8C030D4F8BC30C4F83833CE
:1055F800D4F8C030C4F83C33D4EDD27A94EDC47AF0
:1056080067EEA67A67EE877AC4EDD07A94EDD00A71
:1056180000F0C6FB94ED037AD4EDD07AB4EEE77AC5
:10562800F1EE10FA0ADD974BC4F8AC300122C4F849
:10563800B030072384F8C02384F89C33D4F84C3165
:10564800C4F81433D4F85031C4F81833D4F85431AA
:10565800C4F81C338C48D4F8F0369847D4EDCE7A89
:105668009FED877AD4EDCF6A8848E6EEC77AC4ED15
:10567800507AD4EDCF7AD4EDCE6AE6EE877AC4EDCF
:10568800517AD4F81033C4F84831D4F8E83698473A
:10569800D4F8F430D4EDDB7A77EEA77AFCEEE77A2B
:1056A80017EE902A9342C0F0A58094ED317AD4ED9C
:1056B8002F6A9FED776AD4ED317ADFED765AF0EEF6
:1056C800E66A37EE667AE7EE467AC4ED317A94ED0B
:1056D800337AD4ED1A6AD4ED337AF0EEE66A37EE0F
:1056E800667AE7EE467AC4ED337AD4F8F43094ED6E
:1056F800DA7AD4EDE67A27EE257AF8EE677A67EE5D
:10570800277AFCEEE77A17EE902A93421DD394EDA0
:10571800317AD4ED357AB4EEE77AF1EE10FACCBFEF
:10572800D4F8C430D4F8D430C4F8D43094ED337AF3
:10573800D4ED367AB4EEE77AF1EE10FACCBFD4F8AD
:10574800CC30D4F8D830C4F8D83094EDDF7A9FED57
:10575800525AD4EDDA5AD4EDC46A94EDE06ADBED1E
:10576800007A27EE057AF0EEE77A27EE257A67EEDB
:10577800867AE7EE267AC4ED397A94F85A33002B04
:1057880040F0AE81D4F8E430C4F8E43001232B7043
:10579800D4ED357A94ED397AD4ED366A77EEC77A56
:1057A80087EEA67A84ED2D7A94ED2D7AD4ED2D7AB4
:1057B800D4ED296A94ED290A20EE660AA7EE270A95
:1057C800B5EE400AF1EE10FAB1EEC08A00F1B482EB
:1057D80084ED2E8AD4ED2E6A9FED307AD4ED457A89
:1057E80067EE877A86EEA77A84ED2A7AD4F8A8300D
:1057F800C4F8AC30D4F8F430D4EDDB7AB0EE047AE7
:1058080067EE877AFCEEE77A17EE902A9342FCF46B
:1058180001AD00230322A270C4F8C430C4F8CC3010
:10582800C4F8D430C4F8D830C4F8B430C4F8B830A8
:10583800C4F8A830FCF7EEBCC2ED007AFBF727BF2E
:10584800C2ED007AFCF714BEBB78002B7CF4C4AA26
:1058580087F80380FCF706BBBB78DBB2012B7CF42E
:10586800EDAAFB70FCF7FEBA000C024000F887FFB7
:1058780083F9A23E000000303C030020D7B35D3F0F
:1058880000000000000080BF10030020400100203D
:105898006F12033A9A9919405F708930DB0FC9403B
:1058A800236EC4F8D432636EC4F8D832D4F83033D7
:1058B800C4F8DC32D4F83433C4F8E032D4F8FC3617
:1058C800E7489847D8ED007A9FEDE67AE64BF0EE88
:1058D800E77ACDED067ADDED067AF4EEC77AF1EED9
:1058E80010FAD8BF1A78DFEDE17AD4BFD2B201221C
:1058F8001A709DED067AB4EEE77AF1EE10FA56BF0B
:105908001A780022D2B21A701B78002B42D1DFF825
:105918006CA3D4F8E830CAF80030D4F80037504601
:1059280098479DED067ADFEDD27AB4EEE77AF1EE8C
:1059380010FACEBF5AF8103FD4F8E8300AF1100A2E
:10594800FEF7D3BDD4F82421FCF7C0BAD4F824213B
:10595800FCF7AEBA94ED497ADFEDC67AB4EEE77A91
:10596800F1EE10FA7EF730ACD4ED497A9FEDC27AA9
:1059780077EEC77AC4ED497AFEF726BC0223FB709E
:10598800FCF770BAD4F82421FFF735B9D4F82421EC
:10599800FFF723B9B94DD4F808332B60D4F808338E
:1059A800C4F82431D4F800372846984705F1100A7E
:1059B800FDF77EBFB148D4F808330360D4F8083344
:1059C800C4F82431D4F800379847FDF7AFBB94EDFD
:1059D800CE7ADBED005A94EDE16ADFEDA96AD4EDE9
:1059E800C47AA5EEC67A67EEA67A87EE276A84EDB2
:1059F800D46A94EDCF7ADAED005A94EDE16AD4EDE9
:105A0800C47AA5EEC67A67EEA67AC7EE276AC4ED11
:105A1800D36A94EDD47AD4EDD47A94EDD30AD4ED44
:105A2800D36A20EE260AA7EE270AB5EE400AF1EE61
:105A380010FAB1EEC08A00F17081924B84ED4D8A64
:105A4800D4ED457ADFED8C6A9FED8F7A9FED8F5A02
:105A580067EEA67AF6EE006AC3ED007AD3ED007A17
:105A680094EDE56A67EE877A87EE867A84ED0B7A9D
:105A780094ED0B6A94ED4D7AD4EDC45AD4EDE57AE1
:105A880027EE257A67EEA67AC6EE076A86EEA77A2B
:105A98008DED037AD4EDDC5AD4EDDC6A94EDE47A2A
:105AA8009DED036AD4EDE47A76EE856A37EE467AA0
:105AB80085EEA66AE6EE477AC4EDE47A94EDE47AD8
:105AC800D4EDE47AB4EE677AF1EE10FA0CBFD4F8AC
