:020000040800F2
:1000000000000220DDE9000839D900083DD90008C8
:1000100041D9000845D9000849D90008000000006E
:100020000000000000000000000000004DD90008A2
:1000300051D900080000000055D9000859D900081E
:1000400051EA000851EA000851EA000851EA0008A4
:1000500051EA000851EA000851EA000851EA000894
:1000600051EA000851EA000851EA000851EA000884
:1000700051EA000851EA000851EA000851EA000874
:100080008DD9000851EA00080100001051EA00086B
:1000900051EA000851EA000851EA00085DD9000859
:1000A00051EA000851EA000851EA000851EA000844
:1000B0005D8D000851EA000851EA000851EA000885
:1000C00051EA000851EA000851EA000851EA000824
:1000D00051EA000851EA0008BDD9000851EA0008B9
:1000E00051EA000851EA000851EA000851EA000804
:1000F00051EA000851EA000851EA000851EA0008F4
:1001000051EA000851EA000851EA000851EA0008E3
:1001100051EA000851EA000851EA000861D90008D4
:1001200051EA000851EA000851EA000851EA0008C3
:1001300051EA000851EA000851EA000851EA0008B3
:1001400051EA000851EA000851EA000851EA0008A3
:1001500051EA000851EA000851EA000851EA000893
:1001600051EA000879D9000851EA000851EA00086C
:1001700051EA000851EA000851EA000851EA000873
:1001800051EA000851EA000851EA000851EA000863
:1001900051EA00080000000051EA000851EA000896
:1001A00051EA000851EA000851EA000851EA000843
:1001B00051EA000851EA000851EA000851EA000833
:1001C00051EA000851EA000851EA000851EA000823
:0801D00051EA000851EA0008A1
:1001D8002DE9F04F2DED048BC94BCA4F5B68CA4A15
:1001E8003B604FF0A041C94CC94E40230B601360DF
:1001F800D4F8F4300133C4F8F430D4F8F8300133CB
:10020800C4F8F830D4F8FC300133C4F8FC30D4F822
:10021800F430D4EDDD7A96ED007A67EE877A87B010
:10022800FCEEE77A17EE902A934207D3B94A53694E
:10023800002183F480435361C4F8F4104FF0A042C6
:10024800B54BD2F888101960D2F880105960D2F8EE
:1002580084109960D2F88C109961D2F88811D9600D
:10026800D2F880111961D2F88411596102F58072AF
:10027800D2F88C20DA6194F86023002A48D1627899
:10028800052A37D8DFE812F0550036006201E4028B
:10029800E4024804A149D1F8980340F0C000C1F82D
:1002A8009803D1F8940340F03300C1F894034FF455
:1002B800003191FAA1F1B1FA81F11039C9B2984D22
:1002C800984835F811C0984C5CF800609918264099
:1002D80031434CF800104FF4002191FAA1F1B1FA22
:1002E80081F11039C9B29B1A35F811100A58224009
:1002F80013430B50824A8D4B52681A601B68396849
:100308008B4A5B1A136007B0BDEC048BBDE8F08F15
:1003180094F86023012AEDD12278072AEAD8DFE889
:1003280012F00B067312870CA90908082B11CD0FC0
:10033800640C804A3260DA689FED837AD4EDE05A23
:100348007D4DDFED7E6A9FED7E6AA2F2FF7207EEB9
:10035800902AF8EEE77A284667EE877A294667EE0C
:10036800A57A0026C4EDFF7A1A69D4EDE05AA2F204
:10037800FF7207EE902AF8EEE77A4FF0010C67EE6D
:10038800877A67EEA57A17EE902A40F804295A6909
:10039800D4EDE05AA2F2FF7207EE902AF8EEE77A5F
:1003A80067EE877A67EEA57A17EE902A41F8102F44
:1003B800D3ED067AD4EDE05AF8EEE77A67EE877A5D
:1003C80067EEA57AC4EDC67AD3ED007AD4EDDF5A8C
:1003D800F8EEE77A67EE877A67EEA57AC4ED417A98
:1003E800D3ED017AD4EDDF5AF8EEE77A67EE877A33
:1003F80067EEA57AC4ED427AD3ED027AD4EDDF5ADE
:10040800F8EEE77A67EE877A67EEA57AC4ED437A65
:10041800D0ED005A94EDFF7A55ED027A37EE677AFF
:1004280055ED027AE5EE877A28462C3545ED0D7AAA
:1004380055ED085A15ED0B7A55ED097A37EE677ABE
:1004480055ED097AE5EE877A45ED097A55ED045AB6
:1004580091ED007A55ED057A37EE677A55ED057A14
:10046800E5EE877A45ED057AC4F8346184F804C06E
:10047800C4F8F861C4F81062C4F81862C4F83C61A2
:1004880094F8F13307EE903AF8EE677AE7EEA66A49
:1004980076EE666AC4ED4B6AD4F82C3140F8203FFA
:1004A800D4F808379847D5ED007A9FED267AD4ED31
:1004B800E76A67EE877A87EEA67A84ED0B7AD4ED41
:1004C8004C7A94ED4C7A94F8F113FCEEE77A17EE37
:1004D800903AFCEEC77A17EE902A05293FF60AAF44
:1004E80001A050F821F000BFC50000106F2D0010CA
:1004F800252D0010DD2C0010BD2C00102D2B001018
:10050800001000E0CC48002000010050000000204E
:100518004008002000080048A44900200068014065
:10052800A8F100081C6801400000FFFF60080020D7
:10053800480800200AD7233C0C040020920A863F72
:10054800DB0F4940EBC91841F8078039DA681FED1D
:10055800027AD4EDE06ADFF8F0A2A2F2FF7207EEA9
:10056800902AF8EEE77AD14667EE877A67EEA67AA0
:10057800C4EDFF7A1A69D4EDE06AA2F2FF7207EEC1
:10058800902AF8EEE77A67EE877A67EEA67ACAEDE0
:10059800007A5A69D4EDE06AA2F2FF7207EE902A57
:1005A800F8EEE77A67EE877A67EEA67A17EE902A72
:1005B80049F8102FD3ED067AD4EDE06AF8EEE77A21
:1005C80067EE877A67EEA67AC4EDC67AD3ED007A2D
:1005D80094EDDF6AD4ED416AF8EEE77A67EE877A40
:1005E800D7EE866AC4ED0C6AD3ED017A94EDDF6A22
:1005F800D4ED426AF8EEE77A67EE877AD7EE866A34
:10060800C4ED0D6AD3ED027A94EDDF6AD4ED436A46
:10061800F8EEE77A27EE877AF0EE667AD7EE067A72
:10062800C4ED0E7A94ED0C6AD4ED0C6A94ED0D0AC3
:10063800D4ED0D5A94ED0E7AD4ED0E7A20EE250AFB
:10064800A6EE260AA7EE270AB5EE400AF1EE10FA42
:10065800B1EEC08A05F1D884744D2A46A5F50A7111
:10066800A5F5017CA5F51870A5F5FA78DFED707A87
:1006780028EE278A84ED168AA36D42F80C3BD2ED4A
:10068800006A95ED007AD5ED027A37EE677AD5EDF6
:10069800027AE6EE877A2B460833A5F50972C5ED8E
:1006A800027A1B68E365D2ED006A94EDFF7A91ED5A
:1006B800006AD1ED007A37EE467AA5F50672E6EEC5
:1006C800877AA5F50573C1ED007AD3ED006A9AED36
:1006D800007A92ED006AD2ED007A37EE467AA5F5F7
:1006E8000273E6EE877AC2ED007ADCED006A99EDD6
:1006F800007A93ED006AD3ED007A37EE467AE6EE9B
:10070800877AC3ED007A0968C4F8D8131268C4F868
:10071800DC231B68C4F8E033D4F80037984794F812
:10072800F133DFED447A9FED447A06EE903AF8EE25
:10073800666AA5F50073E6EEA77A184677EE677A3B
:10074800C4ED4B7AD4F82C211A60D4F808379847AE
:1007580094ED177ADFED397AB4EEE77AF1EE10FA14
:1007680000F3EA8198ED007AF2EE047AB4EEE77AC3
:10077800F1EE10FA00F1E08198ED007AF2EE047AD9
:10078800B4EEE77AF1EE10FACCBF2D4B4FF07E5362
:10079800336094ED4D7AD4ED4E7AB4EEE77AF1EE0B
:1007A80010FA09DBD4EDDE6A9FED267AD4ED4D7A96
:1007B800E6EEC77AC4ED4D7AD4F8F830D4ED4D7A28
:1007C800FCEEE77A17EE902A934212D30023C4F87E
:1007D800F83094F8F023012A02F05E8294F8F1339D
:1007E800002B03F01A8594F8F133013BDBB284F84F
:1007F800F133D4ED4C7A94ED4C7AD4ED4F6A94F8F9
:10080800F113FCEEE77A27EE267A17EE903AFCEE23
:10081800C77A17EE902A052900F2F682DFE811F070
:1008280010130013D212AB129A12C2022C06002027
:100838009FAA2A3F920A863FDB0F4940CDCC4C3E07
:10084800CDCC4C3E0000FA430C040020F807803958
:10085800DA681FED027AD4EDE06ADFF844A3A2F269
:10086800FF7207EE902AF8EEE77AD14667EE877AAC
:1008780067EEA67AC4EDFF7A1A69D4EDE06AA2F2AF
:10088800FF7207EE902AF8EEE77A67EE877A67EE4E
:10089800A67ACAED007A5A69D4EDE06AA2F2FF722C
:1008A80007EE902AF8EEE77A67EE877A67EEA67A7F
:1008B80017EE902A49F8102FD3ED067AD4EDE06AA6
:1008C800F8EEE77A67EE877A67EEA67AC4EDC67A1D
:1008D800D3ED007A94EDDF6AD4ED416AF8EEE77A59
:1008E80067EE877AD7EE866AC4ED0C6AD3ED017A93
:1008F80094EDDF6AD4ED426AF8EEE77A67EE877A1C
:10090800D7EE866AC4ED0D6AD3ED027A94EDDF6AFC
:10091800D4ED436AF8EEE77A27EE877AF0EE667A46
:10092800D7EE067AC4ED0E7A94ED0C6AD4ED0C6A13
:1009380094ED0D0AD4ED0D5A94ED0E7AD4ED0E7A9D
:1009480020EE250AA6EE260AA7EE270AB5EE400AEB
:10095800F1EE10FAB1EEC08A05F15A83874D2A46A6
:100968002B460833A5F50570A5F5017CA5F5FA78A1
:10097800DFED837A28EE278A84ED168AA16D42F886
:100988000C1BD2ED006A95ED007AD5ED027A37EEB0
:10099800677AD5ED027AE6EE877AA5F50A71A5F5AC
:1009A8000972C5ED027A1B68E365D2ED006A94ED21
:1009B800FF7A91ED006AD1ED007A37EE467AA5F517
:1009C8000672E6EE877AA5F50273C1ED007AD0EDDE
:1009D800006A9AED007A92ED006AD2ED007A37EE5D
:1009E800467AA5F51870E6EE877AC2ED007ADCED56
:1009F800006A99ED007A93ED006AD3ED007A37EE3C
:100A0800467AE6EE877AC3ED007A0968C4F8D81307
:100A18001268C4F8DC231B68C4F8E033D4F8003744
:100A2800984794F8F133DFED577A9FED577A574A94
:100A380006EE903AF8EE666AA5F5F473E6EEA77A44
:100A4800A5F50075284677EE677AC4ED4B7A1A60EB
:100A5800D4F82C312B60D4F808379847D8ED007AB1
:100A6800DFED4B6A94EDE76A9FED4A7A67EEA67A66
:100A7800C7EE866AC4ED0B6AD4ED177AF4EEC77A2E
:100A8800F1EE10FA54DC98ED007AF2EE047AB4EE46
:100A9800E77AF1EE10FA4BD498ED007AF2EE047A88
:100AA800B4EEE77AF1EE10FACCBF3B4B4FF07E5331
:100AB80033606378042B03F071836378032B03F0AE
:100AC80048832379012B0CBFD4F84431D4F83C3146
:100AD800C4F83C3194F8CC3393BB2379012B2FD045
:100AE800D4ED4C7A94ED4C7AD4ED4F6A94F8F11326
:100AF800FCEEE77A27EE267A17EE903AFCEEC77AF4
:100B080017EE902A05297FD8DFE811F0D1104C00A4
:100B18009612671257122912D4F8F430012B7FF479
:100B2800E9AB1E4A536983F400535361FFF7E2BBF4
:100B38004FF07C533360AFE74FF07C5333601BE6D4
:100B480000232371D4ED087AF5EEC07AF1EE10FA9D
:100B58004CBF01221A4684F8F02394F8F023012AA6
:100B680000F0D18194F8F133002B03F0538394F80B
:100B7800F133013BDBB284F8F133B1E72C060020F6
:100B88009FAA2A3F920A863FDB0F494000401C4635
:100B9800EBC91841CDCC4C3ECDCC4C3E00080048AA
:100BA8000C0400207849D1F8980340F03000C1F8CF
:100BB8009803D1F8940340F0C300C1F894034FF4AC
:100BC800003191FAA1F1B1FA81F11039C9B26F4E31
:100BD8006F4836F811E06F4D5EF800C099180CEABE
:100BE800050C41EA0C014EF800104FF4801191FAFF
:100BF800A1F1B1FA81F11039C9B29B1A36F8111076
:100C08000A5815402B430B50634ED4F8FC3333601D
:100C1800DAF800307360D9F80030B36094F8F13333
:100C28005E4D07EE903AF8EE677A06F10801C6EDD8
:100C3800037A2B7806F10C023BB3AB6834680A33AD
:100C480005EB83031C60AB68706803F20A4305EB8D
:100C580083031860AB68096803F60A0305EB83038E
:100C68001960AB68126803F60A4305EB83031A6040
:100C7800AB680133AB60AA6840F2FE339A4204D9EC
:100C8800002301226A702B70AB606B78002B3FF455
:100C980031ABAA68424B0A3205EB82021946126848
:100CA80041F8042BAA6802F20A4205EB820244F2D8
:100CB800300612680A60AA6802F60A0205EB820288
:100CC80044F22C0411689960AA6802F60A4205EBFE
:100CD800820244F228001168AA5D2E5D2C5C44F261
:100CE8002900285CD96044F22A014523695C2B74E9
:100CF8005A236B74AC7444F22B0344F22D04EB5C5E
:100D08002C5DE874297544F22E0044F22F01285C0A
:100D1800695C6B7544F23103AE75EC7544F23206CA
:100D2800287644F23304697644F23400AA7644F211
:100D3800350144F23602EB5CAE5D2C5D285C695CE3
:100D4800AA5CEB7644F237032E77EB5C6C77A877D6
:100D5800E97785F8202085F8213095F82230012B95
:100D680003F04E82AA6840F2FE339A427FF6C2AA86
:100D780000236B70AB60AB78002B3FF4BBAA012358
:100D88002B70FFF7B7BA00BF00680140A8F1000850
:100D98001C6801400000FFFF9C48002064080020F8
:100DA8008C4800205D49D1F8980340F00300C1F851
:100DB8009803D1F8940340F0F000C1F894034FF47D
:100DC800002191FAA1F1B1FA81F11039C9B2544E5A
:100DD800544836F811E0544D5EF800C0991A0CEAF0
:100DE800050C41EA0C014EF800104FF4801191FAFD
:100DF800A1F1B1FA81F11039C9B2134436F81110D2
:100E08000A582A4013430B50484ED4F8D83333605D
:100E180094F8CC33464D07EE903AF8EE677A06F12F
:100E28000801C6ED017AD4F8F833B360D4F8D033AA
:100E3800F3602B7806F10C0213B3AB6834680A33FD
:100E480005EB83031C60AB68706803F20A4305EB8B
:100E580083031860AB68096803F60A0305EB83038C
:100E68001960AB68126803F60A4305EB83031A603E
:100E7800AB680133AB60AA6840F2FE339A423CD8B3
:100E88006B78002B3FF436AAEA68AB889A4222D3E3
:100E9800AA68284B0A3205EB82021946126841F803
:100EA800042BAA6802F20A4205EB820212680A6061
:100EB800AA6802F60A0205EB820211689960AA681C
:100EC80002F60A4205EB82021168D9600022EA6044
:100ED800AB680133AB60EB680133EB60AA6840F2A2
:100EE800FE339A427FF606AA00236B70AB60EB6074
:100EF800AB78002B3FF4FEA941E7002301226A707A
:100F08002B70AB60BCE794F8F123042A3FF633AEAC
:100F180094F8F1330133DBB22DE600BF00680140DD
:100F2800A8F100081C6801400000FFFF9C48002051
:100F3800640800208C480020E748E84D9FEDE87AD7
:100F4800E84A00214FF4005CC5F828C06161A1613E
:100F5800C4F88811C4F89011C4F8CC11C4F8D4119D
:100F6800C4F81012C4F81812C4F82C11816205795B
:100F7800EDB2C5703160D4F878530564D3ED067AC4
:100F8800D4EDE06AF8EEE77A904667EE877A9646FF
:100F980067EEA67A944617EE900A48F80C0BD3ED44
:100FA800007AF8EEE77A164617EE900A4EF8300FF8
:100FB800D3ED017AF8EEE77A154617EE900A4CF869
:100FC800400FD3ED027AF8EEE77A104617EE909AC2
:100FD80046F8509FD3ED037AD4EDE06AF8EEE77A4D
:100FE80066EE876A67EEA67A17EE909A45F8609FD4
:100FF800D3ED047AD4EDE06AF8EEE77A66EE876A14
:10100800914667EEA67A17EE90AA40F870AFD3ED36
:10101800057AD4EDE06AF8EEE77A26EE877A4FF0A3
:101028007E5367EE877A17EE90BA49F880BFC4F806
:10103800A410C4F8A830D8ED006A92ED007AD2ED79
:10104800027A37EE677AD2ED027AE6EE877A02F113
:10105800380813464833C2ED027AD2ED0F6A9EED86
:10106800007AD8ED007A37EE677AD8ED007AE6EEA6
:10107800877A02F1580E11460831C8ED007AD2ED90
:10108800136A9CED007AD3ED007A37EE677AD3EDD8
:10109800007AE6EE877A02F1680CC3ED007AD2EDA9
:1010A800176A96ED007ADEED007A37EE677ADEEDA4
:1010B800007AE6EE877A16467836CEED007AD2EDDB
:1010C8001B6A95ED007ADCED007A37EE677ADCED85
:1010D800007AE6EE877A15468835CCED007AD2EDAF
:1010E8001F6A90ED007AD6ED007A37EE677AD6ED72
:1010F800007AE6EE877AC6ED007AD2ED236A99ED9A
:10110800007AD5ED007A37EE677AD5ED007AE6EE0B
:10111800877AC5ED007A94F86223002A43F020818B
:101128000A68C4F81823D4EDC67AD8F80020C4F8A1
:101138000421F7EE006A86EEA77A1B68C4F8083126
:10114800DEF80030C4F80C316748DCED007A67EE51
:10115800877AC4ED447AD6ED007A67EE877AC4EDD3
:10116800457AD5ED007A67EE877AC4ED467AD4F8E9
:101178005431C4F81C33D4F85831C4F82033D4F8A7
:101188005C31C4F82433D4F8F836984794EDCE6A25
:10119800D4ED2A6AD4EDCF7AD4ED295A9FED537A4B
:1011A80067EEA57A4FF40033E6EE267AC4EDD07ADE
:1011B80094EDCE6AD4ED296AD4EDCF7AD4ED2A5ACB
:1011C80067EEA57AE6EE667AC4EDD17AD4ED4C7A6C
:1011D800E7EE877AFCEEE77A17EE901A93FAA3F314
:1011E800B3FA83F3103BDBB2414E424836F8132082
:1011F800414D13582B400B4313504FF4002292FAE1
:10120800A2F2B2FA82F2103AD2B24FF4801336F850
:1012180012C05CF800202A400A434CF8002093FAD8
:10122800A3F3B3FA83F3103BDBB2344A36F8136006
:1012380033581D4029433150D2F8943343F0F30317
:10124800C2F8943304F034FF94EDC67A2C4B2D4841
:10125800F3EE047AB4EEE77AF1EE10FAACBF0122AD
:10126800002284F8C923A26EC4F8B823E26EC4F839
:10127800BC23D4F81823C4F8C0231B69C4F8C433AA
:10128800D4F8FC36984794F8C833002B43F06580AF
:101298002378DBB2237094F80D361B4E1B4D0133B7
:1012A800DBB284F80D3694F80D36622B96BF94F8AD
:1012B8000D360023DBB284F80D3694F80D3607EEB0
:1012C800903AF8EE677A06F10801C6ED007A94F8CC
:1012D8000D3603F58F731BE0AC07002000080048AB
:1012E800000080395C060020180300200000000080
:1012F800A8F100081C6801400000FFFF00680140D9
:10130800AC480020A40300209C480020640800206A
:1013180004EB830306F10C025B687360D4F8703148
:10132800B360D4F8B431F3602B78002B3FF4ADAC44
:1013380083E4C54994ED4B7A0A6802F00F02012A4A
:1013480007D00868C14A024042F4002242F0610214
:101358000A60DFEDBF7ABC4ADFEDBE6A27EE277A66
:10136800BEEEE07A82ED017A92ED027AB8EEC77AA3
:1013780027EE267A84ED297AD2ED027AF8EEE77A1A
:1013880067EEA67AC4ED2A7A94F86223012A03F05C
:10139800A38194F86223002A40F0A980D3ED007A53
:1013A8009FEDAD4A94ED416AD4EDDF4A9FEDAB5A0B
:1013B800DFEDAB5A9FEDAB7ADFEDAB6AF8EEE77A7B
:1013C80064EE844A77EEC67AB0EE006A67EEA47AD5
:1013D800C4ED0C7AD3ED017AD4ED423AD4EDDF4A6C
:1013E800F8EEE77A64EE844A77EEE37A67EEA47A59
:1013F800C4ED0D7AD3ED027AD4ED433AD4EDDF4A49
:10140800F8EEE77A64EE844A77EEE37A67EEA47A38
:10141800C4ED0E7AD3ED067AD4EDE04AF8EEE77A19
:1014280067EE857A67EEA47AC4EDC67A93ED034A2F
:10143800D4EDE04AD4ED443AD4EDC67A64EE854A58
:1014480067EEE37AB8EEC44AE4EE247AF1EE677AFE
:10145800C4ED0F7A93ED044AD4EDE04AD4ED453A51
:10146800D4EDC67A64EE854AB8EEC44A67EEE37AEC
:10147800E4EE247AF1EE677AC4ED107A5B69D4ED74
:10148800E04A94ED464AD4EDC67A24EE855A04EE35
:10149800903A67EEC47AF8EEE44AE4EE857AF1EE23
:1014A800677AC4ED117A236BA36694ED0C5AD4EDD8
:1014B8000D7A67EEA57AE5EE077AC4ED1B7AD4EDCE
:1014C8000F5AD4ED107A94ED115A77EE857AD5EE4D
:1014D800867A67EEA67AC4ED127AD4ED107AD4ED46
:1014E800116A77EEE67A27EE877A84ED137A6369D4
:1014F800C4F8703194F861330BB9637A0BB394ED87
:10150800067AD4ED077A94EDDE6AD4ED6D6AB4EE0E
:10151800E67AF1EE10FA67EE867A05DDD4ED6D6AAB
:1015280077EEA66AC4ED6D6AD4ED6D6AB4EEE67A1C
:10153800F1EE10FA05D594ED6D7A77EE677AC4ED81
:101548006D7AD4ED1A6A94ED2A7AD4ED1B7A94ED6B
:10155800296A464867EE867A0346E6EE877A0646A3
:101568000546C4ED1C7AD4ED1A6A94ED297AD4EDB7
:101578001B7A94ED2A6A67EE867AE6EEC77AC4ED9E
:101588001D7A226F43F80C2B626F46F8102FD4F89F
:10159800182345F8202FD3ED006A90ED007AD0ED9E
:1015A800027A37EE677AD0ED027AE6EE877A03465A
:1015B8002833C0ED027AD0ED076A96ED007AD0EDB7
:1015C800067A37EE677AD0ED067AE6EE877AC0EDCE
:1015D800067AD0ED0B6A95ED007AD0ED0A7A37EEEF
:1015E800677AD0ED0A7AE6EE877AC0ED0A7A1B6848
:1015F800C4F8183394F84834012B09D1A0F5E673E0
:10160800D4F8B4211A60A0F5FA70D4F80C379847CA
:1016180094F80C36012B0CD1154BD4F82C21A3F5DA
:10162800D27043F80829D4F8E0211A60D4F81037AA
:10163800984794F86333032B04F21085DFE813F01E
:1016480025151D12520F0715000C024000F887FFE0
:1016580083F9A23E000000300000003A0000803903
:101668003ACD933F3ACD133FABAAAA3E3C060020A1
:1016780020060020EE4994ED485A91ED007AD4ED09
:10168800497AD4EDDE3AB4EE475AF7EE086AF1EE3D
:1016980010FA67EEA67A42F03687E648E64A90EDF9
:1016A800007AD4ED476AD4ED474AF5EE005A67EE62
:1016B800255A76EEC56A85EEA74AB4EEE45A87EE57
:1016C800846AF1EE10FAB6EE004A26EE046AF0EEED
:1016D800E66A02F3A585D4ED474AB4EEE45AF1EE82
:1016E80010FA02F19D85D2ED007A94ED477AB4EEB6
:1016F800C75AF0EEE77AF1EE10FA67EEA37A05DD45
:1017080094ED477A37EE877A84ED477A94ED477AF5
:10171800B4EEC75AF1EE10FA05D594ED477A77EE94
:10172800677AC4ED477A94ED4A6AD4ED476AD4EDF6
:101738004B7A9FEDC27A81ED005AE6EE267AC4ED27
:101748004B7AD4ED4B7AF4EEC77AF1EE10FA42F107
:101758006086D4ED4B7A9FEDBA7A77EE877AC4ED3E
:101768004B7AB84994ED4B7A0A6802F00F02012AC5
:1017780007D00868B44A024042F4002242F06102ED
:101788000A60DFEDB27AAF4ADFEDB16A27EE277A59
:10179800BEEEE07A82ED017A92ED027AB8EEC77A6F
:1017A80027EE267A84ED297AD2ED027AF8EEE77AE6
:1017B80067EEA67AC4ED2A7A94F86223012A03F028
:1017C800898294F86223002A40F0A980D3ED007A38
:1017D8009FEDA04A94ED416AD4EDDF4A9FED9E5AF1
:1017E800DFED9E5A9FED9E7ADFED9E6AF8EEE77A6E
:1017F80064EE844A77EEC67AB0EE006A67EEA47AA1
:10180800C4ED0C7AD3ED017AD4ED423AD4EDDF4A37
:10181800F8EEE77A64EE844A77EEE37A67EEA47A24
:10182800C4ED0D7AD3ED027AD4ED433AD4EDDF4A14
:10183800F8EEE77A64EE844A77EEE37A67EEA47A04
:10184800C4ED0E7AD3ED067AD4EDE04AF8EEE77AE5
:1018580067EE857A67EEA47AC4EDC67A93ED034AFB
:10186800D4EDE04AD4ED443AD4EDC67A64EE854A24
:1018780067EEE37AB8EEC44AE4EE247AF1EE677ACA
:10188800C4ED0F7A93ED044AD4EDE04AD4ED453A1D
:10189800D4EDC67A64EE854AB8EEC44A67EEE37AB8
:1018A800E4EE247AF1EE677AC4ED107A5B69D4ED40
:1018B800E04A94ED464AD4EDC67A24EE855A04EE01
:1018C800903A67EEC47AF8EEE44AE4EE857AF1EEEF
:1018D800677AC4ED117A236BA36694ED0C5AD4EDA4
:1018E8000D7A67EEA57AE5EE077AC4ED1B7AD4ED9A
:1018F8000F5AD4ED107A94ED115A77EE857AD5EE19
:10190800867A67EEA67AC4ED127AD4ED107AD4ED11
:10191800116A77EEE67A27EE877A84ED137A524ACF
:101928009FED527A1378DFED527A524DDFED446A1B
:101938009FED426A002B18BFF0EE477AC5ED007A9A
:10194800D5ED005A94EDDE7A75ED017A27EE267A08
:10195800E5EE877AC5ED007AD5ED007AF4EEC67A21
:10196800F1EE10FA42F16985D5ED007A77EEA66AB4
:10197800C5ED006A3349D5ED006A0B6803F00F0323
:10198800012B07D00868304B034043F4002343F091
:1019980061030B60DFED2D7A2A499FED2D6ADFF890
:1019A800E480DFED355A66EEA76A4346FEEEE06A4C
:1019B800C1ED016AD1ED026AF8EEE66A66EE866A62
:1019C80016EE900A43F8080991ED027AB8EEC77A44
:1019D80027EE067A83ED007AD4F8F830D4EDDD7A74
:1019E80067EEA57AFCEEE77A17EE901A8B4202F2C0
:1019F800A3842249D4F8F8309FED217AD4EDDD7A1A
:101A080067EE877AFCEEE77A17EE900A834294BF76
:101A1800002301231370D8ED006A0B7807EE903A83
:101A2800F8EE677A86EEA77A88ED007A2CE000BF98
:101A38003C080020A8070020A0070020DB0F49C0B1
:101A4800DB0FC940000C024000F887FF83F9A23E73
:101A5800000000300000003A000080393ACD933F82
:101A68003ACD133FABAAAA3E44080020489D2E4514
:101A78005CFF4345240600200AD7233D4508002083
:101A88000AD7A33C1806002094ED057AD4ED077A0E
:101A980094EDDE6AD4ED5C6AB4EEE67AF1EE10FA03
:101AA80067EE867A05DDD4ED5C6A77EEA66AC4ED4A
:101AB8005C6AD4ED5C6AB4EEE67AF1EE10FA05D50C
:101AC80094ED5C7A77EE677AC4ED5C7A534ED4ED88
:101AD800067AD6ED006A98ED007AE6EE877A334604
:101AE800B4463046C4ED6D7AD4ED1A6A94ED2A7A7C
:101AF800D4ED1B7A94ED296A67EE867A06F13C09E3
:101B0800E6EE877AC4ED1C7AD4ED1A6A94ED297A48
:101B1800D4ED1B7A94ED2A6A67EE867AE6EEC77AE8
:101B2800C4ED1D7AD4F870A043F820AFD4F874A09F
:101B38004CF830AFD4F818A340F840AFD6ED0B6A94
:101B480093ED007AD6ED0A7A37EE677AD6ED0A7AFF
:101B5800E6EE877A33464833C6ED0A7AD9ED006A4D
:101B68009CED007AD6ED0E7A37EE677AD6ED0E7ACE
:101B7800E6EE877AC6ED0E7AD6ED136A90ED007A16
:101B8800D6ED127A37EE677AD6ED127AE6EE877AD4
:101B9800C6ED127A1B68C4F8183394F84834012B40
:101BA80009D1A6F5D673D4F8B4211A60D4F80C3745
:101BB800A6F5EA70984794F80C36012B0AD1D4F8A8
:101BC8002C312B60D4F8E031C8F800301448D4F830
:101BD8001037984794F86333032B04F23B82DFE80D
:101BE80013F0831268125B12770F0E490E48D1F872
:101BF800982342F0F302C1F898234FF4005282610F
:101C080094F8A423013A042A01F23682DFE812F09C
:101C18008F127D12250A7212250A00BF1C060020A9
:101C28007C0400200068014000080048CDCC4C3EF0
:101C3800E2782ABB94EDD97A5FED047AD54AD64981
:101C480027EE277A002084ED057AC4ED497AC4EDA1
:101C5800487AC4ED477AC4F82C01E1611168013172
:101C68001160D4EDDD7A126877EEA77AFCEEE77A98
:101C780017EE901A91428ABFE2780122D2B2E2703E
:101C8800E278012A02F03683E278022A02F03283EF
:101C9800E278062A02F02E83E278042A03F08E8086
:101CA800BE4A0192E278052A03F04F80BC4DBD4937
:101CB80094ED4B7A0A6802F00F02012A07D00868EF
:101CC800B94A024042F4002242F061020A60DFEDA4
:101CD800B77AB44ADFEDB66A27EE277ABEEEE07A25
:101CE80082ED017A92ED027AB8EEC77A27EE267A6B
:101CF80084ED297AD2ED027AF8EEE77A67EEA67AD1
:101D0800C4ED2A7A94F86223012A02F0008594F837
:101D18006223002A03F0F182DFF8C492A54B216FF9
:101D28001A461E4642F80C1B616F46F8101F1846EB
:101D3800D4F8181340F8201F03F1080BD2ED006AFD
:101D480093ED007ADBED007A37EE677ADBED007A07
:101D5800E6EE877A03F1180ACBED007AD3ED076A2D
:101D680096ED007ADAED007A37EE677ADAED007AE6
:101D7800E6EE877ACAED007AD3ED0B6A90ED007A29
:101D8800D3ED0A7A37EE677AD3ED0A7AE6EE877AE8
:101D9800C3ED0A7A9B6AC4F81833D4ED1A6A94ED35
:101DA8002A7AD4ED1B7A94ED296A67EE867AE6EEF4
:101DB800877AC4ED1C7AD4ED1A6A94ED297AD4EDA9
:101DC8001B7A94ED2A6A67EE867AE6EEC77AC4ED46
:101DD8001D7A94ED057AD4ED077A94EDDE6AD4ED98
:101DE8005C6AB4EEE67AF1EE10FA67EE867A05DD03
:101DF800D4ED5C6A77EEA66AC4ED5C6AD4ED5C6AE1
:101E0800B4EEE67AF1EE10FA05D594ED5C7A77EE49
:101E1800677AC4ED5C7AA369C4F8B431236FC4F857
:101E28007431636FC4F8B8316348D4F8EC36984716
:101E3800D4F8EC3661489847D4F89C31C4F840335C
:101E4800D4F8E031C4F844335D4BDFED5E7AD3ED6E
:101E5800006AD4EDD05A93ED007A9FED5B6A76EE76
:101E6800E56AA6EEE77A83ED007AD4EDD47A94EDAC
:101E7800C67A67EE867A67EE877AC4EDD27A94EDF1
:101E8800D27AD4EDD27AD4EDD06A94EDD00A20EE8D
:101E9800660AA7EE270AB5EE400AF1EE10FAB1EE8F
:101EA800C08A04F1C4804949494E081F4FF0090807
:101EB80084EDD38A94EDD20A04F00AF9D4F85431A7
:101EC800C4F81C33D4F85831C4F82033D4F85C3142
:101ED800C4F824333F48D4F8F8369847D4EDD06A8C
:101EE80094ED2A7A94EDD16AD4ED297A3A4867EECE
:101EF800C67AE6EE877AC4ED527AD4EDD16A94EDCB
:101F08002A7AD4EDD07A94ED296A67EE867AE6EEDD
:101F1800877AC4ED537AD4F81833C4F85031D4F81A
:101F2800F03698470020844686463169326933691D
:101F3800C1F3C011C2F30022C3F34023B8F1010872
:101F48008E4494441844F0D1BEF1040FD4BF4FF02E
:101F5800000E4FF0010EBCF1040F204ED4BF4FF01D
:101F6800000C4FF0010C0428D4BF0020012086F893
:101F780000E086F801C0B07033781BB97378012B84
:101F880003F0CA8633787BBB7378012B03F0FA869B
:101F98002AE000BFA40700200000A041100600208E
:101FA80064080020000C024000F887FF83F9A23E75
:101FB800000000303C06002070010020B401002021
:101FC800140600206F12833AD7B35D3F4403002004
:101FD800000400481803002048010020AC07002036
:101FE800D448002062DCC84033782BB973781BB919
:101FF800B378012B03F056873378012B03F005845F
:102008003378012B03F025843378012B03F0768491
:10201800237A03F0FF0293B9F1783379994205D90D
:10202800F378052B02D0012332732372F2783379C7
:102038009A4204D2F37813B1012333732372F278EE
:1020480033799A4226D0337BDBB9E378012B03F04E
:10205800B386F378103306EB83035A68F3781033AA
:1020680006EB83035A60E378022B03F0A186F3782A
:10207800163306EB83035A68F378163306EB8303AB
:102088005A60337B012B03F04584D4F82C2132614C
:102098000123F373F3781FED2D7ADBB2337194EDDE
:1020A8004A6AD4ED476AD6ED0A7AE6EE267AC6ED94
:1020B8000A7AD6ED0A7AF4EEC77AF1EE10FA0CDD58
:1020C800E378012B09D1D4ED477A714AF1EE677AAA
:1020D8000223C4ED477AB262E37096ED0A7ADFED27
:1020E8006D7AB4EEE77AF1EE10FA07D5E378022BB1
:1020F80004D100220323C4F81C21E370E378032BE6
:1021080002F0B787E378052B02F07287E378062B95
:1021180002F0D086604ED4F810333360D4F8083714
:1021280030469847A26EC4F8B823E26EC4F8BC23C0
:10213800D4F81823594BC4F8C0231B69C4F8C43316
:10214800D4F8FC36A6F18800984794F8C833002BD9
:1021580042F0A7812378DBB22370D4F85431C9F850
:102168001C30D4F85831C9F82030D4F85C31C9F89B
:10217800243094ED557A94ED566AD4ED576AD4ED2F
:102188004C7A4FF4003393FAA3F3F0EE675AB3FA9C
:1021980083F3E7EE275A103BDBB24148414A30F857
:1021A80013C0DFF80CE15CF80260BCEEE57A06EAE1
:1021B8000E0617EE101A31434FF400234CF80210A4
:1021C80093FAA3F3B0EE677AB3FA83F3A6EE277A0D
:1021D800103BDBB230F81360BCEEC77AB35817EE89
:1021E800101A03EA0E031943B1504FF4801393FAFF
:1021F800A3F3B3FA83F3103BE6EEA77ADBB230F829
:102208001300FCEEE77A835817EE901A03EA0E03E0
:1022180019438150D4ED057AF5EE407AF1EE10FAC3
:1022280009D1D4ED067AF5EE407AF1EE10FA02D132
:1022380094F8C8330BB101232B7094F80D361A4E5D
:1022480007EE903AF8EE677A3146C6ED007A94F8D0
:102258000D3603F58F7304EB83043046636841F849
:10226800043F019B1B6840F8083F104B32461B682F
:1022780042F80C3F2B78002B3EF407ADAB6834686E
:102288000A3305EB83031C60AB68096800F0FBBCEC
:10229800DB0FC9406F12833A2C040020AC480020A1
:1022A800A8F100081C6801409C4800201406002082
:1022B8000000FFFFDB0FC940DB0F49C0D4ED475AD0
:1022C8005FED046A94EDDE7AD4ED4B7A1FED066A71
:1022D80027EE267AE5EE877AC4ED4B7AD4ED4B7A71
:1022E800F4EEC67AF1EE10FA42F15181D4ED4B7A50
:1022F80077EEA66AC4ED4B6A94F86223012A02F0CD
:10230800CA8494F86223002A02F04A87DFF85C92B4
:1023180094ED1A7ADFED8E7AD4ED1B6A8D4BA6EE1A
:10232800A77A19461D46184684ED1C7AD4ED1A6A18
:1023380094ED1B7AA6EEE77A03F1080B84ED1D7A7B
:1023480094ED127AD4ED136AA6EEA77A84ED147A86
:10235800D4ED126A94ED137AA6EEE77A84ED157A35
:10236800D4F870E041F80CEBD4F874E045F810EFBD
:10237800D4F818E340F820EFD1ED006A93ED007A25
:10238800DBED007A37EE677ADBED007AE6EE877AE6
:1023980019462831CBED007AD3ED076A95ED007A1E
:1023A800D3ED067A37EE677AD3ED067AE6EE877ACA
:1023B800C3ED067AD3ED0B6A90ED007AD1ED007A81
:1023C80037EE677AD1ED007AE6EE877AC1ED007ACA
:1023D80094F86233012B0CBFD9F848300B68C4F865
:1023E8001833A37803F0FF02002B02F0A0805A4DA7
:1023F800A378012B02F05E83A378022B02F0A6815A
:10240800A378DEB2032E03F01F83A378042B03F016
:102418009F8294ED557A94ED566AD4ED576AD4EDBF
:102428004C7A4FF4003393FAA3F3F0EE675AB3FAF9
:1024380083F3E7EE275A103BDBB24848484A30F8A6
:1024480013C0DFF82CE15CF80260BCEEE57A06EA1E
:102458000E0617EE101A31434FF400234CF8021001
:1024680093FAA3F3B0EE677AB3FA83F3A6EE277A6A
:10247800103BDBB230F81360BCEEC77AB35817EEE6
:10248800101A03EA0E031943B1504FF4801393FA5C
:10249800A3F3B3FA83F3E6EEA77A103BDBB2DFF8D7
:1024A800D4C030F813602F48B358FCEEE77A03EA3B
:1024B8000E0317EE901A1943B150A36EC4F8B8333F
:1024C800E36EC4F8BC33D4F81833C4F8C033DCF86E
:1024D8001030C4F8C433D4F8FC36984794F8C8339D
:1024E800002B41F0BC872378DBB22370D4F8543139
:1024F800C9F81C30D4F85831C9F82030D4F85C3108
:10250800C9F8243003F0D4FDA37807EE903A164BAF
:10251800F8EE677A1846C3ED007A226D40F8042F6A
:102528001946226F41F8082F1A46D4F82C4142F870
:102538000C4F2C78002C3EF4A8ABAC681E6804F154
:102548000A0305EB83031E60AB680068FEF77DBBDA
:10255800000000003C06002064080020A8F10008E4
:102568001C680140A40300209C480020D448002097
:102578000000FFFFAC480020964994ED4B7A0A68AA
:1025880002F00F02012A07D00868934A024042F479
:10259800002242F061020A60DFED907A8D4ADFED99
:1025A800906A27EE277ABEEEE07A82ED017A92ED04
:1025B800027AB8EEC77A27EE267A84ED297AD2ED28
:1025C800027AF8EEE77A67EEA67AC4ED2A7A94F8EA
:1025D8006223012A02F0258494F86223002A02F07B
:1025E8009487DFF814927F4994ED084A91ED007AB8
:1025F800D4ED0A7AD4EDDE3AB4EE474AF7EE086A2B
:10260800F1EE10FA67EEA67A41F0D186764B774A5A
:1026180093ED007AD4ED7E6A94ED7E5AF5EE005A79
:1026280067EE255A76EEC46AC5EEA74AB4EEC54AE7
:1026380087EEA46AF1EE10FAF6EE004A26EE246A56
:10264800F0EEE66A01F3158694ED7E5AB4EEC54ABB
:10265800F1EE10FA01F10D86D2ED007A94ED7E7A52
:10266800B4EEC74AF0EEE77AF1EE10FA67EEA37A15
:1026780005DD94ED7E7A37EE877A84ED7E7A94EDE7
:102688007E7AB4EEC74AF1EE10FA05D594ED7E7A5B
:1026980077EE677AC4ED7E7A94F8003181ED004ACE
:1026A8000133DBB284F8003194F80031092B01F2D0
:1026B8006686DFF848816369C4F8703194F861333D
:1026C8000BB9637A1BB1D4F82432C4F8B431D4ED11
:1026D8001A6A94ED2A7AD4ED1B7A94ED296A444853
:1026E80067EE867A0346E6EE877A06460546C4ED27
:1026F8001C7AD4ED1A6A94ED297AD4ED1B7A94EDFC
:102708002A6A67EE867AE6EEC77AC4ED1D7A226FEA
:1027180043F80C2B626F46F8102FD4F8182345F8AD
:10272800202FD3ED006A90ED007AD0ED027A37EED3
:10273800677AD0ED027AE6EE877A03462833C0ED51
:10274800027AD0ED076A96ED007AD0ED067A37EE78
:10275800677AD0ED067AE6EE877AC0ED067AD0ED94
:102768000B6A95ED007AD0ED0A7A37EE677AD0EDEC
:102778000A7AE6EE877AC0ED0A7A1B68C4F818333D
:1027880094F84834012B09D1A0F5E673D4F8B421A4
:102798001A60A0F5FA70D4F80C37984794F80C36FC
:1027A800012B0CD1134BD4F82C21A3F5D27043F88C
:1027B8000829D4F8E0211A60D4F81037984794F81B
:1027C8006333032B00F28E84DFE813F06F06730681
:1027D80064067204000C024000F887FF83F9A23EE9
:1027E800000000303C080020A8070020A0070020B7
:1027F8003C06002020060020D44800203804002091
:10280800DB0F49C0DB0FC94094ED487AD4ED497A13
:1028180094EDDE6AD4ED476AB4EEE67AF1EE10FA8A
:1028280067EE867A05DDD4ED476A77EEA66AC4EDD1
:10283800476AD4ED476AB4EEE67AF1EE10FA05D5A8
:1028480094ED477A77EE677AC4ED477A94ED4A6A51
:10285800D4ED476AD4ED4B7A1FED177AE6EE267A67
:10286800C4ED4B7AD4ED4B7AF4EEC77AF1EE10FA58
:1028780041F1FB85D4ED4B7A1FED1E7A77EE877A0E
:10288800C4ED4B7AE64994ED4B7A0A6802F00F02E0
:10289800012A07D00868E34A024042F4002242F0C5
:1028A80061020A60DFEDE07ADD4ADFEDE06A27EEDB
:1028B800277ABEEEE07A82ED017A92ED027AB8EEDE
:1028C800C77A27EE267A84ED297AD2ED027AF8EED5
:1028D800E77A67EEA67AC4ED2A7A94F86223012A89
:1028E80002F0108494F86223002A02F0D586DFF8FB
:1028F8007093D4ED1A6A94ED2A7AD4ED1B7A94ED8C
:10290800296ACB4B67EE867A1A46E6EE877A1E4628
:102918001D46C4ED1C7AD4ED1B6A94ED2A7A94ED19
:102928001A6AD4ED297A67EEC67AE6EE877AC4ED9C
:102938001D7AD4ED126A94ED2A7AD4ED137A94EDC7
:10294800296A67EE867AE6EE877AC4ED147AD4EDC2
:10295800136A94ED2A7A94ED126AD4ED297A67EE17
:10296800C67AE6EE877AC4ED157AD4F870E042F8B4
:102978000CEBD4F874E046F810EFD4F818E345F8F7
:1029880020EFD2ED006A93ED007AD3ED027A37EEAC
:10299800677AD3ED027AE6EE877A1A462832C3EDD3
:1029A800027AD3ED076A96ED007AD3ED067A37EE10
:1029B800677AD3ED067AE6EE877AC3ED067AD3ED29
:1029C8000B6A95ED007AD3ED0A7A37EE677AD3ED84
:1029D8000A7AE6EE877AC3ED0A7A94F86233002B16
:1029E80041F08D851368C4F81833D4F85431C4F80D
:1029F8001C33D4F85831C4F82033D4F85C31C4F807
:102A080024338C48D4F8F836984794EDCE6A94ED80
:102A18002A7AD4EDCF7AD4ED295ADFED876A67EEAA
:102A2800A57AE6EE077AC4EDD07A94EDCE6A94EDF5
:102A3800297AD4EDCF7AD4ED2A5A67EEA57AE6EE54
:102A4800477AC4EDD17A94ED036A94ED2A7AD4EDED
:102A5800045AD4ED297A67EEE57AE6EE077AC4EDF2
:102A6800527A94ED046A94ED2A7AD4ED037AD4ED7F
:102A7800295A67EEA57AE6EE077AC4ED537A94ED03
:102A8800D06A94EDC67A27EE267AC6EE077AC4EDA8
:102A9800D67A94EDD16AD4EDC67A67EEA67A86EE38
:102AA800277A84EDD57A94EDD67AD4EDD67A94ED5A
:102AB800D50AD4EDD56A20EE260AA7EE270AB5EE88
:102AC800400AF1EE10FAB1EEC08A03F1B7825B4812
:102AD80084ED4F8AD4ED477A9FED597AD4EDE76AB1
:102AE80067EE877A87EEA67A84ED0B7AD4F81833E6
:102AF800C4F85031D4F8F036984794ED557A94EDEF
:102B0800566AD4ED576AD4ED4C7A4FF4003393FAF1
:102B1800A3F3F0EE675AB3FA83F3E7EE275A103BB4
:102B2800DBB24848484A30F813604849B558BCEE0B
:102B3800E57A0D4017EE103A2B434FF4002CB350B2
:102B48009CFAACF3B0EE677AB3FA83F3A6EE277A71
:102B5800103BDBB230F81350BCEEC77AAB5817EE17
:102B6800106A0B401E43AE504FF4801393FAA3F340
:102B7800B3FA83F3103BDBB2E6EEA77A30F81350D2
:102B8800334EAB583348FCEEE77A0B4017EE901AF9
:102B98001943A950A36EC4F8B833E36EC4F8BC3324
:102BA800D4F81833C4F8C0333369C4F8C433D4F83C
:102BB800FC36984794F8C833002B41F053842378A7
:102BC800DBB22370D4F85431C9F81C30D4F858312A
:102BD800C9F82030204DD4F85C31C9F8243003F00E
:102BE80067FA94ED037AD5ED097AB4EE677AF1EED7
:102BF80010FA02D194F8C8330BB101232B70E268A4
:102C08006A62164B226D1A601E46A26C46F8042FA3
:102C18001846D4F8542140F8082F1A4622E000BF7D
:102C2800000C024000F887FF83F9A23E0000003044
:102C38003C060020180300203ACD933F48010020AD
:102C480000007042A8F100081C6801400000FFFF66
:102C5800AC480020A4030020640800209C48002001
:102C6800D4480020D4F8381342F80C1F29780029DA
:102C78003EF40BA8A9681C6801F10A0305EB83035D
:102C88001C60AB68316803F20A4305EB83031960E3
:102C9800AB680168FDF7E0BF94F8F123042A3DF61C
:102CA800A6AD94F8F1330133DBB2FDF7A0BDDE49E0
:102CB800D1F8980340F0C000C1F89803D1F8940304
:102CC80040F03300C1F894034FF4003191FAA1F1B8
:102CD800B1FA81F11039C9B2D44ED54836F811E0AD
:102CE800D44D5EF800C099180CEA050C41EA0C01B5
:102CF8004EF800104FF40021FDF779BFCA49D1F80A
:102D0800980340F00300C1F89803D1F8940340F009
:102D1800F000C1F894034FF4002191FAA1F1B1FA3F
:102D280081F11039C9B2C14DC14835F811C0C14C43
:102D38005CF80060991A264031434CF800104FF4B3
:102D4800801191FAA1F1B1FA81F11039C9B2134495
:102D5800FDF7CABAB449D1F8980340F03000C1F879
:102D68009803D1F8940340F0C300C1F894034FF4DA
:102D78000031FEF726B8AC49D1F8980340F0C000FE
:102D8800C1F89803D1F8940340F03300C1F89403D4
:102D98004FF4003191FAA1F1B1FA81F11039C9B2B9
:102DA800A24EA34836F811E0A24D5EF800C0991A69
:102DB8000CEA050C41EA0C014EF800104FF4002112
:102DC800FEF715B89849D1F8980340F00300C1F808
:102DD8009803D1F8940340F0F000C1F894034FF43D
:102DE800002191FAA1F1B1FA81F11039C9B28F4EDF
:102DF8008F4836F811E08F4D5EF800C099180CEA3C
:102E0800050C41EA0C014EF800104FF4801191FABC
:102E1800A1F1B1FA81F11039C9B29B1AFDF7EEBFE1
:102E28008149D1F8980340F03000C1F89803D1F8EF
:102E3800940340F0C300C1F894034FF40031D0E785
:102E48007949D1F8980340F0C000C1F89803D1F847
:102E5800940340F03300C1F894034FF4003191FA21
:102E6800A1F1B1FA81F11039C9B2704E704836F843
:102E780011E0704D5EF800C099180CEA050C41EAA3
:102E88000C014EF800104FF40021C0E76649D1F854
:102E9800980340F03000C1F89803D1F8940340F04B
:102EA800C300C1F894034FF4003136E75E49D1F806
:102EB800980340F0C000C1F89803D1F8940340F09B
:102EC8003300C1F894034FF4003191FAA1F1B1FA3B
:102ED80081F11039C9B2554D554835F811C0554CD6
:102EE8005CF80060991A264031434CF800104FF402
:102EF800002126E74C49D1F8980340F00300C1F8B7
:102F08009803D1F8940340F0F000C1F894034FF40B
:102F1800002191FAA1F1B1FA81F11039C9B2434DFA
:102F2800434835F811C0434C5CF8006099182640B6
:102F380031434CF800104FF48011FDF7CEB93A49EF
:102F4800D1F8980340F03000C1F89803D1F8940301
:102F580040F0C300C1F894034FF40031D9E7324977
:102F6800D1F8980340F00300C1F89803D1F894030E
:102F780040F0F000C1F894034FF4002191FAA1F158
:102F8800B1FA81F11039C9B2284E294836F811E052
:102F9800284D5EF800C0991A0CEA050C41EA0C01AC
:102FA8004EF800104FF4801191FAA1F1B1FA81F1B5
:102FB8001039C9B21344FDF721BE1B49D1F8980353
:102FC80040F03000C1F89803D1F8940340F0C300F2
:102FD800C1F894034FF40031D0E71349D1F89803AE
:102FE80040F0C000C1F89803D1F8940340F03300D2
:102FF800C1F894034FF4003191FAA1F1B1FA81F1CB
:103008001039C9B2094E0A4836F811E0094D5EF880
:1030180000C0991A0CEA050C41EA0C014EF80010A0
:103028004FF40021C0E700BF00680140A8F1000884
:103038001C6801400000FFFF1949D1F8980340F0CF
:103048000300C1F89803D1F8940340F0F000C1F8E8
:1030580094034FF40021FDF7B4BD124BD4F8480196
:1030680011491A4642F8040BD4F84C011060D4F800
:10307800180398600A68DA600C4D2B78002B3DF431
:1030880004AEAB6807490A3305EB83030868186088
:103098000A1DAB68106808310832FDF7D6BD00BFBD
:1030A800006801409C480020340600206408002085
:1030B800D4ED1D7AD8ED006A94EDE57A67EEA67A2C
:1030C80067EE877AC4ED1E7A98ED007A94ED1C6A53
:1030D800D4EDE46AD4EDBB7AE6EE267A67EE877A19
:1030E800C4ED1F7A94F84834002B01F01882D64BAF
:1030F8001B68C4F8B43194F84834002B01F01382EB
:10310800D24B1B68C4F87031236FC4F87431636FF5
:10311800C4F8B831D4ED1E7ACD4DF1EE677AC4ED1E
:103128005E7AD4ED1F7A95ED007A77EE877AA5F26C
:10313800AC40C4ED6F7AD4F84833C4F89431D4ED78
:10314800657AF1EE677AC4ED667AD4F84C33C4F840
:10315800D831D4ED767AF1EE677AC4ED777AD4F87F
:10316800EC369847D4F8EC36A5F58D609847D4F836
:103178009C31C4F84033D4F8E031C4F84433D4ED7A
:10318800D47ADFEDB46A94EDC67A67EEA67A67EE74
:10319800877AC4EDD27A94EDD27AD4EDD27AD4ED8E
:1031A800D06A94EDD00A20EE660AA7EE270AB5EE9B
:1031B800400AF1EE10FAB1EEC08A02F13487A6494E
:1031C800081F84EDD38A94EDD20A02F081FFD4ED72
:1031D800D06A94ED2A7A94EDD16AD4ED297A9F4881
:1031E80067EEC67AE6EE877AC4ED527AD4EDD16AF4
:1031F80094ED2A7AD4EDD07A94ED296A67EE867A2E
:10320800E6EE877AC4ED537AD4F85431C4F81C3307
:10321800D4F85831C4F82033D4F85C31C4F82433D6
:10322800D4F8F8369847D4F81833C4F85031D4F89D
:10323800F0368B48984794ED557A94ED566AD4ED5C
:10324800576AD4ED4C7A4FF4003393FAA3F3F0EEB7
:10325800675AB3FA83F3E7EE275A103BDBB281488B
:10326800814A30F813608149B558BCEEE57A0D40C3
:1032780017EE103A2B434FF4002CB3509CFAACF3E2
:10328800B0EE677AB3FA83F3A6EE277A103BDBB287
:1032980030F81350BCEEC77AAB5817EE106A0B40E3
:1032A8001E43AE504FF4801393FAA3F3B3FA83F39B
:1032B800103BDBB2E6EEA77A30F813006C4E835869
:1032C800FCEEE77A0B4017EE901A0025194381505F
:1032D800AC46AE460920316932693369C1F3C01181
:1032E800C2F30022C3F3402301388E4494441D44A2
:1032F800F1D1BEF1040FD4BF4FF0000E4FF0010E14
:10330800BCF1040F5B4ED4BF4FF0000C4FF0010C22
:10331800042DD4BF0025012586F800E086F801C0F9
:10332800B570D8F80030336302F0B6FEF369C4F81C
:10333800F03094F86133012B01F0918194F86133F6
:10334800002B42F0D98001236372A36EC4F8DC32EB
:10335800E36EC4F8E032D4F83833C4F8E432D4F871
:103368003C33C4F8E8324448D4F804379847434B10
:10337800D4F810231A60637A4048012B0CBFD4F8A4
:103388001033D4F82C31C4F82C31D4F8083700F1B4
:10339800100A9847D8ED007A9FED397AD4EDE76A9C
:1033A800384B394867EE877A87EEA67A84ED0B7A30
:1033B800A26EC4F8B823E26EC4F8BC23D4F818236C
:1033C800C4F8C0231B69C4F8C433D4F8FC36984742
:1033D80094F8C833002B40F0CF872378DBB22370F2
:1033E800D4F85431C9F81C30D4F85831C9F8203011
:1033F800D4F85C31254DC9F8243094ED087AD5ED20
:10340800097AB4EE677AF1EE10FA02D194F8C8336B
:103418000BB101232B70226A6A621D4B72691A6014
:10342800F2691E46184646F8042FDAF8002040F8DC
:10343800082F1A46D4F8101342F80C1F29780029CF
:103448003DF423AC16E400BF780400207404002087
:103458001C0600203ACD133F440300201803002027
:1034680048010020A8F100081C6801400000FFFF87
:1034780000040048AC070020DC0200202C040020D7
:10348800EBC91841AC480020A403002064080020C0
:103498009C4800200023A367D8ED007A94EDBB7AFE
:1034A80067EE877AC4ED1F7A1CE60023A367E367FB
:1034B80018E6D4ED1D7AD8ED006A94EDE57A67EE4A
:1034C800A67A67EE877AC4ED1E7AD4ED1C7AD8ED19
:1034D800006A94EDE47A67EEA67A67EE877AC4ED1F
:1034E8001F7AFFE50023DFF88C83A367D8ED007A05
:1034F80094EDBB7A67EE877AC4ED1F7A94F8483466
:10350800002B00F03587CE4B1B68C4F8B43194F813
:103518004834002B00F02887CA4B1B68C4F8703168
:10352800236FC4F87431636FC4F8B831D4ED1E7AD0
:10353800C54DF1EE677AC4ED5E7AD4ED1F7A95ED4C
:10354800007A77EE877AA5F2AC40C4ED6F7AD4F8AA
:103558004833C4F89431D4ED657AF1EE677AC4ED56
:10356800667AD4F84C33C4F8D831D4ED767AF1EED3
:10357800677AC4ED777AD4F8EC369847D4F8EC3605
:10358800A5F58D609847D4F89C31C4F84033D4F839
:10359800E031C4F84433D4EDD47ADFEDAC6A94ED6D
:1035A800C67A67EEA67A67EE877AC4EDD27A94ED8A
:1035B800D27AD4EDD27AD4EDD06A94EDD00A20EE46
:1035C800660AA7EE270AB5EE400AF1EE10FAB1EE48
:1035D800C08A02F13B859E49081F84EDD38A94ED89
:1035E800D20A02F075FDD4EDD06A94ED2A7A94EDF2
:1035F800D16AD4ED297A974867EEC67AE6EE877ADB
:10360800C4ED527AD4EDD16A94ED2A7AD4EDD07A09
:1036180094ED296A67EE867AE6EE877AC4ED537AE6
:10362800D4F85431C4F81C33D4F85831C4F82033D2
:10363800D4F85C31C4F82433D4F8F8369847D4F871
:103648001833C4F85031D4F8F0368348984794EDCD
:10365800557A94ED566AD4ED576AD4ED4C7A4FF406
:10366800003393FAA3F3F0EE675AB3FA83F3E7EE65
:10367800275A103BDBB27948794A30F81360794908
:10368800B558BCEEE57A0D4017EE103A2B434FF4CF
:10369800002CB3509CFAACF3B0EE677AB3FA83F31C
:1036A800A6EE277A103BDBB230F81350BCEEC77A8F
:1036B800AB5817EE106A0B401E43AE504FF4801300
:1036C80093FAA3F3B3FA83F3103BDBB2E6EEA77ADF
:1036D80030F81300644E8358FCEEE77A0B4017EE7F
:1036E800901A002519438150AC46AE46092031692D
:1036F80032693369C1F3C011C2F30022C3F3402316
:1037080001388E4494441D44F1D1BEF1040FD4BF56
:103718004FF0000E4FF0010EBCF1040F534ED4BF12
:103728004FF0000C4FF0010C042DD4BF00250125EB
:1037380086F800E086F801C0B570D8F80030336329
:10374800B3680133B360D6ED107A96ED087A77EE58
:10375800877AC6ED087A33781BB97378012B02F0A3
:10376800D48233781BB97378012B02F00383337842
:103778002BB973781BB9B378012B02F09783337890
:10378800012B02F04E803378012B02F056803378FB
:10379800012B02F09B80F3781C3306EB83035B68F4
:1037A800F361F27833799A4241D033791C3306EBCE
:1037B800830393ED010AF3781C3306EB8303D3EDFF
:1037C800010A02F079FCB0EEC00A86ED0E0A96ED09
:1037D8000E6A96ED087ADFED266AC6EE077A0022B1
:1037E8000023C6ED0B7A96ED0D7A96ED0B6AD6EDB1
:1037F8000D7A37EE467AE7EE667AC6ED0D7AB36053
:1038080072623262F1783279914205D9F278052AEA
:1038180004BF337BDBB23373F27833799A4206D232
:10382800F378002B42F0BE82337BDBB23373337BF9
:10383800002B40F03C86F3780133DBB222E000BF76
:1038480078040020740400201C0600203ACD133FA1
:10385800440300201803002048010020A8F10008B4
:103868001C6801400000FFFF00040048AC0700206E
:103878000AD7233C38040020DB0F49C0DB0FC940BE
:10388800000048427371327B02F0FF0312B9F278EC
:10389800052A01D07379DBB27371337B012B01F0F8
:1038A80050847379DBB27371F3781C3306EB8303AE
:1038B80093ED010A73791C3306EB8303D3ED010AF8
:1038C80002F0FAFBB0EEC00A86ED0F0A96ED0D7A0B
:1038D800D6ED027AD6ED106AF8EE677A67EEA67A28
:1038E80067EE877AF0EEE77AC6ED097A96ED097AFF
:1038F800D6ED097AB4EE677AF1EE10FA0CBF736A66
:103908000023736296ED097AD6ED0F7AB4EEE77A62
:10391800F1EE10FA40F3E885F36B7362337BD6ED72
:10392800077A96ED097A002B40F0DA8577EE877AE8
:10393800C6ED057AF3785FED307ADBB2337196ED38
:10394800057AB4EEE77AF1EE10FA40F1B585D6EDD6
:10395800057A1FED367A77EE877AC6ED057AD6EDC9
:103968000C7A1FED397AF0EEE77AF4EEC77AF1EEC9
:1039780010FA94BFF36973697361F369C4F8F0309E
:1039880094F86133012B01F0C08194F86133002B66
:1039980041F0608501236372A36EC4F8DC32E36EE4
:1039A800C4F8E032D4F83833C4F8E432D4F83C33FD
:1039B800C4F8E8323E48D4F8043798473D4BD4F869
:1039C80010231A60637A3B48012B0CBFD4F81033DC
:1039D800D4F82C31C4F82C31D4F808379847D8EDEE
:1039E800007A9FED357AD4EDE76A344B344867EEB8
:1039F800877A87EEA67A84ED0B7AA26EC4F8B8238C
:103A0800E26EC4F8BC23D4F81823C4F8C0231B6999
:103A1800C4F8C433D4F8FC36984794F8C833002B5C
:103A280040F042852378DBB2264D237094ED067A68
:103A3800D5ED097AB4EE677AF1EE10FA02D194F86E
:103A4800C8330BB101232B70A2696A621E4BD4F8EC
:103A580038231A601E46D4F83C2346F8042F18462B
:103A6800A26C40F8082F1A46E16C42F80C1F29781E
:103A780000293DF40AA9FFF7FDB8DFF85080D4ED1E
:103A88001D7AD8ED006A94EDE57A67EEA67A67EEBE
:103A9800877AC4ED1E7AD4ED1C7AD8ED006A94EDCD
:103AA800E47A67EEA67A67EE877AC4ED1F7A25E591
:103AB800DC0200202C040020EBC91841AC4800208F
:103AC800A4030020640800209C480020380400203B
:103AD800DFF8A883D4ED1D7AD8ED006A94EDE57A75
:103AE80067EEA67A67EE877AC4ED1E7A98ED007ABB
:103AF80094ED1C6AD4EDE46AD4EDBB7AE6EE267A3E
:103B080067EE877AC4ED1F7A94F84834002B00F0EA
:103B1800C484CC4B1B68C4F8B43194F84834002BE7
:103B280000F0B784C84B1B68C4F87031236FC4F821
:103B38007431636FC4F8B831D4ED1E7AC348F1EE1E
:103B4800677AC4ED5E7AD4ED1F7A96ED007A77EE47
:103B5800877AC4ED6F7AD4F84833C4F89431D4ED39
:103B6800657AF1EE677AC4ED667AD4F84C33C4F816
:103B7800D831D4ED767AF1EE677AC4ED777AD4F855
:103B8800EC369847D4F8EC36B1489847D4F89C31CD
:103B9800C4F84033D4F8E031C4F84433D4EDD47ACF
:103BA800DFEDAC6A94EDC67A67EEA67A67EE877A9F
:103BB800C4EDD27A94EDD27AD4EDD27AD4EDD06A2B
:103BC80094EDD00A20EE660AA7EE270AB5EE400A61
:103BD800F1EE10FAB1EEC08A02F134829E49081F54
:103BE80084EDD38A94EDD20A02F072FAD4EDD06A49
:103BF80094ED2A7A94EDD16AD4ED297A974867EE44
:103C0800C67AE6EE877AC4ED527AD4EDD16A94ED9D
:103C18002A7AD4EDD07A94ED296A67EE867AE6EEB0
:103C2800877AC4ED537AD4F85431C4F81C33D4F8E5
:103C38005831C4F82033D4F85C31C4F82433D4F8AC
:103C4800F8369847D4F81833C4F85031D4F8F03619
:103C58008348984794ED557A94ED566AD4ED576A9F
:103C6800D4ED4C7A4FF4003393FAA3F3F0EE675A8D
:103C7800B3FA83F3E7EE275A103BDBB279487A4A66
:103C880030F813607949B558BCEEE57A0D4017EE67
:103C9800103A2B434FF4002CB3509CFAACF3B0EE1F
:103CA800677AB3FA83F3A6EE277A103BDBB230F8D3
:103CB8001350BCEEC77AAB5817EE106A0B401E4380
:103CC800AE504FF4801393FAA3F3B3FA83F3103B87
:103CD800DBB2E6EEA77A30F81300654E8358FCEEA7
:103CE800E77A0B4017EE901A002519438150AC462D
:103CF800AE460920316932693369C1F3C011C2F394
:103D08000022C3F3402301388E4494441D44F1D16A
:103D1800BEF1040FD4BF4FF0000E4FF0010EBCF1FE
:103D2800040F544ED4BF4FF0000C4FF0010C042D7B
:103D3800D4BF0025012586F800E086F801C0B570DB
:103D4800D8F800303363B3680133B360D6ED107A26
:103D580096ED087A77EE877AC6ED087A33781BB93C
:103D68007378012B01F0CA8733781BB97378012B5C
:103D780002F0108033782BB973781BB9B378012B14
:103D880002F08C803378012B01F033853378012BD6
:103D980001F06B853378012B01F0A485F3781C338F
:103DA80006EB83035B68F361F27833799A4241D07A
:103DB80033791C3306EB830393ED010AF3781C3344
:103DC80006EB8303D3ED010A02F076F9B0EEC00AE0
:103DD80086ED0E0A96ED0E6A96ED087ADFED266AF4
:103DE800C6EE077A00220023C6ED0B7A96ED0D7A0F
:103DF80096ED0B6AD6ED0D7A37EE467AE7EE667ADF
:103E0800C6ED0D7AB36072623262F178327991420E
:103E180005D9F278052A04BF337BDBB23373F27815
:103E280033799A4206D2F378002B41F0BE87337B70
:103E3800DBB23373337B002B40F0E782F378013336
:103E4800DBB223E078040020740400207001002015
:103E5800B40100203ACD133F44030020180300208A
:103E680048010020A8F100081C6801400000FFFF7D
:103E780000040048AC0700200AD7233C380400207F
:103E8800DB0F49C0DB0FC940000048427371327B29
:103E980002F0FF0312B9F278052A01D07379DBB278
:103EA8007371337B012B00F049877379DBB273712F
:103EB800F3781C3306EB830393ED010A73791C3303
:103EC80006EB8303D3ED010A02F0F6F8B0EEC00A60
:103ED80086ED0F0A96ED0D7AD6ED027AD6ED106AC8
:103EE800F8EE677A67EEA67A67EE877AF0EEE77AF9
:103EF800C6ED097A96ED097AD6ED097AB4EE677AB5
:103F0800F1EE10FA0CBF736A0023736296ED097A1A
:103F1800D6ED0F7AB4EEE77AF1EE10FA40F36B8241
:103F2800F36B7362337BD6ED077A96ED097A002B33
:103F380040F05E8277EE877AC6ED057AF3785FED1A
:103F4800307ADBB2337196ED057AB4EEE77AF1EEAA
:103F580010FA40F13A82D6ED057A1FED367A77EEFF
:103F6800877AC6ED057AD6ED0C7A1FED397AD548F1
:103F7800F0EEE77AF4EEC77AF1EE10FA94BFF3693F
:103F880073697361A36EC4F8DC32E36EC4F8E0327F
:103F9800D4F84831C4F8E432D4F84C31C4F8E832E3
:103FA800D4F80437984794ED477ADFEDD17A9FED3E
:103FB800C66AC64BC64827EE277A88ED007AD8ED40
:103FC800007AD4EDE76A67EE867A87EEA67A84ED02
:103FD8000B7AA26EC4F8B823E26EC4F8BC23D4F8F6
:103FE8001823C4F8C0231B69C4F8C433D4F8FC36BA
:103FF800984794F8C833002B40F0E5812378DBB26A
:10400800B44D237094ED067AD5ED097AB4EE677A4B
:10401800F1EE10FA02D194F8C8330BB101232B70DA
:10402800A2696A62AC4BA26E1A601E46E26E46F83E
:10403800042F1846626F40F8082F1A46A16942F803
:104048000C1F297800293CF420AEFEF713BEDFF8D8
:104058009882D4ED1D7AD8ED006A94EDE57A67EE82
:10406800A67A67EE877AC4ED1E7A98ED007A94ED09
:104078001C6AD4EDE46AD4EDBB7AE6EE267A67EEE4
:10408800877AC4ED1F7AFFF739BA0023A367DFF8F0
:104098005882E367FFF732BA0023DFF84C82A36740
:1040A800D8ED007A94EDBB7A67EE877AC4ED1F7A73
:1040B8002AE5DFF83482D4ED1D7AD8ED006A94ED54
:1040C800E57A67EEA67A67EE877AC4ED1E7AD4EDB4
:1040D8001C7AD8ED006A94EDE47A67EEA67A67EE6A
:1040E800877AC4ED1F7A0FE50023A367DFF8F8810C
:1040F800E36709E5784BD4F83C0174491A4642F85D
:10410800040B08697549FEF7B1BFD3ED017A724B0C
:10411800F8EEE77A1A46E2EC017AD4F80811116051
:10412800E16E9960D4F85821DA60FEF7A5BFD3EDA7
:10413800007A694BF8EEE77A1A46E2EC017AD4F88D
:1041480004111160A16E9960D4F85421DA60FEF769
:1041580093BF94ED507AD4EDDE7AD4ED4F6AB4EE85
:10416800E67AB6EE006AF1EE10FA67EE867A05DDB9
:10417800D4ED4F6A77EEA66AC4ED4F6AD4ED4F6A64
:10418800B4EEE67AF1EE10FA7CF59BAC94ED4F7A3A
:1041980077EE677AC4ED4F7AFCF793BC94ED087A12
:1041A800D4EDDE7AD4ED7E6A9FED4D6AB4EEE67A00
:1041B800F1EE10FA67EE867A05DDD4ED7E6A77EEC9
:1041C800A66AC4ED7E6AD4ED7E6AB4EEE67AF1EEB4
:1041D80010FA05D594ED7E7A77EE677AC4ED7E7A8B
:1041E800D8ED007A3F48F0EEE77AC4ED7F7AD4F84C
:1041F800EC369847D4F82432C4F83C31FCF75DBC5F
:1042080001F052FFAB6800220133AB6085F8222031
:10421800FCF7A8BD0523FCF7AEBC0523FCF7E7BAFD
:10422800F6EE084A27EE247AF4EEC76AF1EE10FAA1
:1042380040F3BF8192ED007AF4EEC77AF1EE10FAFE
:1042480023EE866A05DD92ED007A36EE077A82ED76
:10425800007A92ED007AF4EEC77AF1EE10FAD2ED18
:10426800007A7DF542AA37EEC66A82ED006AFDF74C
:104278003ABAB6EE085A27EE057AF4EEC76AF1EEB6
:1042880010FA40F3B78192ED007AF4EEC77AF1EEB6
:1042980010FA23EE866A05DD92ED007A36EE077A8B
:1042A80082ED007A92ED007AF4EEC77AF1EE10FA18
:1042B800D2ED007A7EF5D2A937EEC66A82ED006AA1
:1042C800FEF7CAB9DC020020EBC91841AC4800204F
:1042D800A4030020640800209C4800203406002025
:1042E8000000FA43F801002038040020DB0F49C021
:1042F800DB0FC940E278062A01F0C38294ED4A6ACE
:10430800D4ED476AD4ED4B7A1FED087AE6EE267AAB
:10431800C4ED4B7AD4ED4B7AF4EEC77AF1EE10FA8D
:1043280040F18981D4ED4B7A1FED0F7A77EE877AC9
:10433800C4ED4B7AFDF7B0BCD8490023C4F8F83077
:104348000B780133DBB20B700B78632B96BF0B78BD
:104358000123DBB20B70FDF74DBB0723FCF79ABFB7
:10436800CF4A926CFCF7DDBED4F87031FFF7D6B8AF
:10437800D4F8B431FFF7C9B80723FFF730B80023E2
:1043880084F8003194F86233C648012B16BFDFF871
:104398004483D9F85030D8F80030C4F8FC31D4F848
:1043A800EC3608BFDFF82C839847FEF784B934EE63
:1043B800477ABD48BD4A0023B0EEC77A80ED007A3F
:1043C8001360FEF727B907231AE696ED057ADFEDA5
:1043D800B87AB4EEE77AF1EE10FA7FF7C4ADD6ED0D
:1043E800057A9FEDB47A77EEC77AC6ED057ABAE515
:1043F80077EEC77AA0E5D6ED097AF5EEC07AF1EE48
:1044080010FA54BF736A00238BE5F378013BDBB2E3
:104418003CE594ED4B7ADFEDA67AB4EEE77AF1EE5F
:1044280010FA7DF79EA9D4ED4B7A9FEDA27A77EE2C
:10443800C77AC4ED4B7AFDF794B995ED007ADFEDB4
:104448009C7AB4EEE77AF1EE10FA7DF793AAD5EDEF
:10445800007A77EEE66AC5ED006AFDF78BBA0723A6
:10446800FEF743B80723FEF7ACBB94ED4B7ADFEDBC
:10447800907AB4EEE77AF1EE10FA7EF703AAD4ED5B
:104488004B7A9FED8C7A77EEC77AC4ED4B7AFEF7BC
:10449800F9B9D4F87031FFF747BBD4F8B431FFF756
:1044A8003ABB0723FDF758BE0723FFF7BDBAF378D9
:1044B800013BDBB2FFF7E6B996ED057ADFED7C7AD2
:1044C800B4EEE77AF1EE10FA7FF749AAD6ED057A4D
:1044D8009FED787A77EEC77AC6ED057AFFF73FBA8F
:1044E80077EEC77AFFF724BAD6ED097AF5EEC07AE7
:1044F800F1EE10FA54BF736A0023FFF70EBAD9F829
:104508004830FEF770BA35EE477A674D674A0020A3
:10451800B0EEC77A85ED007A1060FDF7C2B8D4F81E
:10452800B431FEF7E6BDD4F87031FEF7EBBDC4F840
:10453800FC2094EDD97ADFED606ADFED607A604D9A
:104548006049614827EE267A002384ED057AC4F88D
:10455800D430C4F8CC3094EDDC7A27EE277A0122E7
:1045680084ED477AC4F8C411C4F88011C4ED7A7A8E
:10457800C4ED697AC4F8EC31C4F8A831C4F8EC3158
:10458800C4F8AC312A70A2703060FDF731BF94EDE9
:104598004B7ADFED477AB4EEE77AF1EE10FA7DF761
:1045A800ABAED4ED4B7A77EEE66AC4ED4B6AFDF715
:1045B800A3BEF4EEE65AF1EE10FA41F39783D2ED7A
:1045C800007AF5EEC07AF1EE10FA23EE866A05D588
:1045D800D2ED007A76EE277AC2ED007AD2ED007A33
:1045E800F5EEC07AF1EE10FAD2ED007A3FF73BAE65
:1045F800FDF77BB8F4EEE65AF1EE10FA41F37A8350
:10460800D2ED007AF5EEC07AF1EE10FA23EE866A62
:1046180005D5D2ED007A76EE277AC2ED007AD2ED92
:10462800007AF5EEC07AF1EE10FAD2ED007A3FF793
:1046380043AEFEF713B894ED4B7ADFED1D7AB4EE76
:10464800E77AF1EE10FA7DF727ABD4ED4B7A9FEDC0
:10465800197A77EEC77AC4ED4B7AFDF71DBB1B4D6F
:10466800D4F8F0302B60D4F8083728469847D8EDAE
:10467800007A9FED177AF0EEE77AF4EEC77AF1EE5A
:1046880010FACBBFAA46D4F8F0305AF8103F05F11B
:10469800100AC4F82C31FEF77DBE00BF4508002083
:1046A800D4480020F8010020A8070020A007002017
:1046B800DB0F4940DB0FC940CDCC4C3ECDCCCC3DC7
:1046C800640800206F12833ACDCC4C3D2C040020A6
:1046D8000000484238040020E64B9FEDE76AD3F813
:1046E800B020A266D3ED2C6AD3ED2D7A9FEDE37A44
:1046F80067EE867AE6EE877AC4ED1B7A9A6BA26437
:10470800DA6BE2649B6CC4F81833FCF7F0BEDFF890
:1047180064939FEDD96AD9F8B030A366D9ED2C6AB5
:10472800D9ED2D7A9FEDD57A67EE867AE6EE877A0F
:10473800C4ED1B7AD9F83830A364D9F83C30E36467
:10474800D9F84830C4F81833FDF7E8BAE37AD4ED5D
:10475800057A002B41F0E88294ED2B7A67EE877A90
:10476800C4ED037AC64AD4ED4B7A136803F00F03FD
:10477800012B07D01168C34B0B4043F4002343F0CF
:1047880061031360DFEDC06ABD4B9FEDC07AC0497D
:1047980067EEA67AF6EE006AFEEEE07A081FC3ED31
:1047A800017AD3ED027AF8EEE77A67EE877AC4EDFC
:1047B800297AD3ED027AF8EEE77A67EE877AC4EDC4
:1047C8002A7AD4F8FC30D4EDDD7A67EEA67ADFEDEC
:1047D800B16AFCEEE77A17EE902A934225BFD4ED32
:1047E800297A94ED037ADFEDAC7A67EE877A0023B5
:1047F800C4ED317AC4F8C830D4F8C430C4F84033B2
:10480800D4F8C830C4F84433D4EDD47A94EDC67AD9
:1048180067EEA67A67EE877AC4EDD27A94EDD20A6B
:1048280001F056FC94ED037AD4EDD27AB4EEE77A2F
:10483800F1EE10FA0ADD994BC4F8B4300122C4F83D
:10484800B830072384F8C82384F8A433D4F8543143
:10485800C4F81C33D4F85831C4F82033D4F85C3188
:10486800C4F824338E48D4F8F8369FED8B8A9847DD
:10487800D4EDD07A94EDD17A8A48E7EE487AC4ED3F
:10488800527AD4EDD17A94EDD07AE7EE087AC4ED75
:10489800537AD4F81833C4F85031D4F8F03698471E
:1048A800D4F8FC30D4EDDD7AFCEEE77A17EE902AE6
:1048B8009342C0F0B980D4EDDE4ADFED7B5A94ED27
:1048C800DE6A94ED337AD4ED146AD4ED337A36EE99
:1048D800256AF0EEE66A84EE865A37EE667AE5EEE9
:1048E800477AC4ED337A94EDDE5A94EDDE6A94ED9E
:1048F800357AD4ED1C6AD4ED357A36EE256AF0EEB9
:10490800E66AC5EE065A37EE667ADFED686AE5EEC6
:10491800C77AC4ED357A94ED337AD4ED337AB4EEB0
:10492800677AF1EE10FA08BF94ED338A84ED338A82
:1049380094ED357AD4ED357AB4EE677AF1EE10FA63
:104948000CBFD4F8D4300023C4F8D430D4F8FC30E9
:1049580094EDDC7AD4EDE87A27EE267AF8EE677AD9
:1049680067EE277AFCEEE77A17EE902A93421DD37A
:1049780094ED337AD4ED377AB4EEE77AF1EE10FAA3
:10498800CCBFD4F8CC30D4F8DC30C4F8DC3094EDAB
:10499800357AD4ED387AB4EEE77AF1EE10FACCBF76
:1049A800D4F8D430D4F8E030C4F8E03001232B70C8
:1049B800D4ED376A94ED387AC6EE877AC4ED2F7A4B
:1049C80094ED2F7AD4ED2F7AD4ED2B6A94ED2B0A3F
:1049D80020EE660AA7EE270AB5EE400AF1EE10FAB5
:1049E800B1EEC08A01F11B8384ED308AD4ED306AC0
:1049F8009FED2F7AD4ED477A67EE877A86EEA77A0D
:104A080084ED2C7AD4F8B030C4F8B43094ED2D7A13
:104A1800D4ED2D7AB4EE677AF1EE10FA0CBFD4F823
:104A2800B4300023C4F8B430D4F8FC30D4EDDD7AC7
:104A3800B7EE087A67EE877AFCEEE77A17EE902AE7
:104A480093427DF6DDACE37A03F0FF02002B41F0E0
:104A58001E820221A17001210023E172C4F8FC200A
:104A6800C4F8CC30C4F8D430C4F8DC30C4F8E03032
:104A7800FDF7C6BCD44800203ACD933F3ACD133F4A
:104A8800000C024000F887FF83F9A23E00000030C6
:104A980044030020ABAA2A3F00000000000080BFAA
:104AA8001803002048010020CDCC4C3D3333B33FE0
:104AB800DB0FC94094ED057AD4ED057A94EDDE6AF2
:104AC800D4ED5C6AF2EE045A67EEA57AB4EEE67AA3
:104AD800F1EE10FA67EE867A05DDD4ED5C6A77EEC2
:104AE800A66AC4ED5C6AD4ED5C6AB4EEE67AF1EECF
:104AF80010FA05D594ED5C7A77EE677AC4ED5C7AA6
:104B08000026C4F8B461236FC4F87431636FC4F825
:104B1800B831D4F84833C4F89431D4ED657AD04824
:104B2800F1EE677AC4ED667AD4F84833C4F8D83120
:104B3800D4ED767AF1EE677AC4ED777AD4F8EC366C
:104B48009847D4F8EC36C7489847D4F89C31C4F84D
:104B58004033D4F8E031C4F84433D4EDD47A94ED3A
:104B6800C67AC14967EE877A081FC4EDD27A94EDF8
:104B7800D20A01F0ADFAD4F85431C4F81C33D4F891
:104B88005831C4F82033D4F85C31C4F82433B7481A
:104B9800D4F8F8369847D4EDD06A94ED2A7A94ED93
:104BA800D16AD4ED297AB24867EEC67AE6EE877AFA
:104BB800C4ED527AD4EDD16A94ED2A7AD4EDD07A44
:104BC80094ED296A67EE867AE6EE877AC4ED537A21
:104BD800D4F81833C4F85031D4F8F0369847D4F8DC
:104BE800FC30D4EDDD7AB6EE007A67EE877AFCEE1B
:104BF800E77A17EE902A9342FDF4FEABD4ED146ADF
:104C080094ED1C7A9FED9B5AC6EE877AC4ED3A7AEA
:104C1800D4EDDE5AD4EDDE6A94ED2B7A94ED3A6A3F
:104C2800D4ED2B7A76EE856A37EE467A85EEA66A5B
:104C3800E6EE477AC4ED2B7AD4F8FC30D4EDDD7A71
:104C4800FCEEE77A17EE902A934220D30023022243
:104C5800C4F87061C4F8FC30C4F85C61C4F85861E9
:104C6800C4F85461A2709BED007ADFED837AB4EE4C
:104C7800E77AF1EE10FA0AD5062284F8A423012176
:104C88007E4A84F8C813C4F8AC20C4F8FC30012369
:104C98002B70FDF7B1BBDFF8F0919FED796AD9F879
:104CA800B030A366D9ED2C6AD9ED2D7A9FED757ACF
:104CB80067EE867AE6EE877AC4ED1B7AD9F8383043
:104CC800A364D9F83C30E364D9F84830C4F8183301
:104CD800FDF71EBB6C4B9FED6A6AD3F8B020A26645
:104CE800D3ED2C6AD3ED2D7A9FED667A67EE867A3E
:104CF800E6EE877AC4ED1B7A9A6BA264DA6BE264FB
:104D08009B6CC4F81833FCF70ABE604DD4F8F03039
:104D18002B60D4F8083728469847D8ED007A9FEDDD
:104D28005C7AF0EEE77AF4EEC77AF1EE10FA40F327
:104D3800E0832B69C4F82C31FEF751BEF378002BC1
:104D48007FF4B3A80523FFF7B2B8524E9FED497A16
:104D5800326801323260D4EDDD7A326867EE877AE4
:104D6800FCEEE77A17EE901A91423CF69FAFD4ED2D
:104D78004B7ADFED496A9FED497A77EEA67AC4ED62
:104D88004B7AD4ED4B7AF4EEC77AF1EE10FA41F192
:104D98006A80D4ED4B7A9FED427A77EE877AC4ED3C
:104DA8004B7A0022326094F80D263E4D0132D2B281
:104DB800012184F80D262970FCF779BFD4EDD97A42
:104DC8009FED397A3948DFED3A6A324A019067EE49
:104DD800877A0021C4ED057AC4F82C1190ED007A89
:104DE80094ED676AD0ED007A37EE467AE7EE667A98
:104DF800C0ED007A116801311160D4EDDD7A1168D7
:104E080077EEA77AFCEEE77A17EE900A88423CF62E
:104E180049AF00210520E070116084F80D16FCF7F9
:104E280041BFDFF864909FED166AD9F8B030A366E9
:104E3800D9ED2C6AD9ED2D7A9FED127A67EE867A34
:104E4800E6EE877AC4ED1B7AD9F83830A364D9F82E
:104E58003C30E364D9F84830C4F81833FDF7C3BBD5
:104E680070010020B4010020440300201803002032
:104E780048010020CDCC4C3DCDCCCC3D000080BFBE
:104E88003ACD933F3ACD133FD44800202C0400205C
:104E980000004842A4070020FDAD803DDB0F49C05B
:104EA800DB0FC94064080020CDCC4C3E1006002022
:104EB8000AD7A33BD4EDDD7AA54EFCEEE77A33683A
:104EC80017EE902A9A4207D93368002201333360DB
:104ED800C4F82021C4F81C21D4EDDD7A3368FCEE37
:104EE800E77A17EE902A9A420BD8D4EDDB7A9FED39
:104EF800997ADFED996A67EE877A87EEA67A84ED6C
:104F0800487A94ED477ADFED956AD4ED487A67EEF2
:104F1800A67AB4EEE77AF1EE10FA44DD336801338D
:104F28003360A379002B00F0CB87D4EDDD7A3368AA
:104F3800B0EE087A67EE877AFCEEE77A17EE902AE9
:104F48009A4230D8A37903F0FF0263BBD4EDE67A26
:104F5800DFED836A94EDE77ADFED825A9FED826A8E
:104F680067EEA67AF6EE006A67EE877A002385EE8A
:104F7800A77A012184EDBB7A94EDBB7AD4EDBB7A94
:104F880027EE277AC6EE077A67EEA67AC4EDC57AC9
:104F9800D4F82001C4F824016069E061C4F8203124
:104FA8006361A1713260A379012B7DF4B3A800225B
:104FB80000236E493360C4F81C216261C4F82021C3
:104FC800C4F82411D4EDDB7A9FED697A694967EE5C
:104FD800877A0222C4ED087AA162E371072184F876
:104FE8006323052284F86133E1702270FDF792B8DB
:104FF800614B93ED007A019BD3ED007AD4ED056AFD
:1050080094F80D3637EE677A03F58F73C7EE267A74
:1050180004EB8303F1EE677AC3ED017A94F80D3659
:10502800622B7DF673A80023C4F87031C4F81C31D4
:10503800D4EDD97A514B9FED477ADFED476A444961
:105048004A48B5EE006A67EE867A0622C4ED057A0C
:10505800E361D4EDDB7A67EE877A002387EEA67AE0
:1050680084ED487AC4F82401A3710B60E270FDF75F
:105078004DB89FED438A9FED439ADFED378A08E0EC
:1050880077EEA87AC3ED017A08F10108B8F1060FA6
:1050980028D008F1100208F1160306EB830306EB8B
:1050A800820292ED010AD3ED010A00F0F9FF08F13E
:1050B8001C0306EB830383ED010AD3ED017AF4EEBA
:1050C800C87AF1EE10FAD3ED017AD9D4F4EEC97AA0
:1050D800F1EE10FAD8DDD3ED017A77EEE87AC3ED78
:1050E800017AD1E700231A4A63610021C4F87031BC
:1050F800A361C4F82031C4F81C3104231160E370A3
:10510800FDF700B8DFF880909FED226AD9F8B0303B
:10511800A366D9ED2C6AD9ED2D7A9FED207A67EE3A
:10512800867AE6EE877AC4ED1B7AD9F83830A3641C
:10513800D9F83C30E364D9F84830C4F81833FDF79F
:10514800D8BBF378002B7EF4ACAB0523FEF7ABBBE2
:10515800A4070020CDCCCC3DDB0FC9403333733FCF
:10516800EF1F2E410000704200007A4400002041E9
:105178009A99993E00009643140600200000A04129
:10518800DB0F49C0DB0F4940D44800200000003A3B
:10519800000080393ACD933FABAAAA3E3ACD133FDF
:1051A800D3ED007A1FED074A94ED416AD4EDDF4A4A
:1051B8001FED095A5FED095A1FED087A5FED0A6A7B
:1051C800DFF8B894F8EEE77A64EE844A77EEC67AA8
:1051D800B0EE006A67EEA47AC4ED0C7AD3ED017ADA
:1051E800D4ED423AD4EDDF4AF8EEE77A64EE844A29
:1051F80077EEE37A67EEA47AC4ED0D7AD3ED027AFE
:10520800D4ED433AD4EDDF4AF8EEE77A64EE844A07
:1052180077EEE37A67EEA47AC4ED0E7AD3ED067AD8
:10522800D4EDE04AF8EEE77A67EE857A67EEA47A7D
:10523800C4EDC67A93ED034AD4EDE04AD4ED443A7E
:10524800D4EDC67A64EE854A67EEE37AB8EEC44ACE
:10525800E4EE247AF1EE677AC4ED0F7A93ED044A0E
:10526800D4EDE04AD4ED453AD4EDC67A64EE854AE9
:10527800B8EEC44A67EEE37AE4EE247AF1EE677A90
:10528800C4ED107A5B69D4EDE04A94ED464AD4ED5A
:10529800C67A24EE855A04EE903A67EEC47AF8EEA0
:1052A800E44AE4EE857AF1EE677AC4ED117A236B6D
:1052B800A36694ED0C5AD4ED0D7A67EEA57AE5EE67
:1052C800077AC4ED1B7AD4ED0F5AD4ED107A94ED19
:1052D800115A77EE857AD5EE867A67EEA67AC4ED0E
:1052E800127AD4ED107AD4ED116A77EEE67A27EEC9
:1052F800877A84ED137AFDF70BB8D3ED007A9FED2A
:10530800E14A94ED416AD4EDDF4A9FEDDF5ADFEDC3
:10531800DF5A9FEDE07ADFEDDE6ADFF86093F8EEA2
:10532800E77A64EE844A77EEC67AB0EE006A67EEF2
:10533800A47AC4ED0C7AD3ED017AD4ED423AD4EDD7
:10534800DF4AF8EEE77A64EE844A77EEE37A67EEAE
:10535800A47AC4ED0D7AD3ED027AD4ED433AD4EDB4
:10536800DF4AF8EEE77A64EE844A77EEE37A67EE8E
:10537800A47AC4ED0E7AD3ED067AD4EDE04AF8EEBD
:10538800E77A67EE857A67EEA47AC4EDC67A93ED7C
:10539800034AD4EDE04AD4ED443AD4EDC67A64EE3B
:1053A800854A67EEE37AB8EEC44AE4EE247AF1EE71
:1053B800677AC4ED0F7A93ED044AD4EDE04AD4ED50
:1053C800453AD4EDC67A64EE854AB8EEC44A67EE2B
:1053D800E37AE4EE247AF1EE677AC4ED107A5B6939
:1053E800D4EDE04A94ED464AD4EDC67A24EE855AC7
:1053F80004EE903A67EEC47AF8EEE44AE4EE857A71
:10540800F1EE677AC4ED117A236BA36694ED0C5A1A
:10541800D4ED0D7A67EEA57AE5EE077AC4ED1B7A2E
:10542800D4ED0F5AD4ED107A94ED115A77EE857AAF
:10543800D5EE867A67EEA67AC4ED127AD4ED107AA4
:10544800D4ED116A77EEE67A27EE877A84ED137A3F
:10545800FCF764BC94F86133022B7EF4C0AAA36EF7
:10546800C4F8DC32E36EC4F8E032D4F83833C4F858
:10547800E432D4F83C33C4F8E832D4F80437794835
:105488009847D8ED007A9FED787A784BF0EEE77A76
:10549800CDED047ADDED047AF4EEC77AF1EE10FA78
:1054A800D8BF1A78DFED727AD4BFD2B201221A704F
:1054B8009DED047AB4EEE77AF1EE10FA56BF1A7849
:1054C8000022D2B21A701B78002B40F08085694DFB
:1054D800D4F8F0302B60D4F80837284698479DED6B
:1054E800047ADFED657AB4EEE77AF1EE10FA3FF769
:1054F80020ACD4F8F0301DE494F86133022B00F0AE
:105508005F84DFF87CA1FDF745BFD3ED007A9FEDFE
:105518005D4A94ED416AD4EDDF4A9FED5B5ADFEDB9
:105528005B5A9FED5C7ADFED5A6ADFF85091F8EE2E
:10553800E77A64EE844A77EEC67AB0EE006A67EEE0
:10554800A47AC4ED0C7AD3ED017AD4ED423AD4EDC5
:10555800DF4AF8EEE77A64EE844A77EEE37A67EE9C
:10556800A47AC4ED0D7AD3ED027AD4ED433AD4EDA2
:10557800DF4AF8EEE77A64EE844A77EEE37A67EE7C
:10558800A47AC4ED0E7AD3ED067AD4EDE04AF8EEAB
:10559800E77A67EE857A67EEA47AC4EDC67A93ED6A
:1055A800034AD4EDE04AD4ED443AD4EDC67A64EE29
:1055B800854A67EEE37AB8EEC44AE4EE247AF1EE5F
:1055C800677AC4ED0F7A93ED044AD4EDE04AD4ED3E
:1055D800453AD4EDC67A64EE854AB8EEC44A67EE19
:1055E800E37AE4EE247AF1EE677AC4ED107A5B6927
:1055F800D4EDE04A94ED464AD4EDC67A24EE855AB5
:1056080004EE903A67EEC47AF8EEE44AE4EE857A5E
:10561800F1EE677AC4ED117A236BA36694ED0C5A08
:10562800D4ED0D7A67EEA57AE5EE077AC4ED1B7A1C
:10563800D4ED0F5AD4ED107A94ED115A77EE857A9D
:10564800D5EE867A67EEA67AC4ED127AD4ED107A92
:10565800D4ED116A77EEE67A27EE877A84ED137A2D
:10566800FCF7C1BFDC02002000009B433808002083
:10567800000091432C04002000004842D448002038
:105688003C0400200000003A000080393ACD933FE6
:10569800ABAAAA3E3ACD133FD3ED007A1FED074AD5
:1056A80094ED416AD4EDDF4A1FED095A5FED095ABE
:1056B8001FED087A5FED0A6ADFF8B496F8EEE77A2C
:1056C80064EE844A77EEC67AB0EE006A67EEA47A92
:1056D800C4ED0C7AD3ED017AD4ED423AD4EDDF4A29
:1056E800F8EEE77A64EE844A77EEE37A67EEA47A16
:1056F800C4ED0D7AD3ED027AD4ED433AD4EDDF4A06
:10570800F8EEE77A64EE844A77EEE37A67EEA47AF5
:10571800C4ED0E7AD3ED067AD4EDE04AF8EEE77AD6
:1057280067EE857A67EEA47AC4EDC67A93ED034AEC
:10573800D4EDE04AD4ED443AD4EDC67A64EE854A15
:1057480067EEE37AB8EEC44AE4EE247AF1EE677ABB
:10575800C4ED0F7A93ED044AD4EDE04AD4ED453A0E
:10576800D4EDC67A64EE854AB8EEC44A67EEE37AA9
:10577800E4EE247AF1EE677AC4ED107A5B69D4ED31
:10578800E04A94ED464AD4EDC67A24EE855A04EEF2
:10579800903A67EEC47AF8EEE44AE4EE857AF1EEE0
:1057A800677AC4ED117A236BA36694ED0C5AD4ED95
:1057B8000D7A67EEA57AE5EE077AC4ED1B7AD4ED8B
:1057C8000F5AD4ED107A94ED115A77EE857AD5EE0A
:1057D800867A67EEA67AC4ED127AD4ED107AD4ED03
:1057E800116A77EEE67A27EE877A84ED137AFDF769
:1057F80080B87378002B7EF4C9AAB378012B7EF4A5
:10580800C5AA0323F370FEF7C9BA7378002B7CF49A
:10581800F7ABB378012B7CF4F3AB0323F370FCF7FD
:10582800F7BB7378002B7DF4AEAFB378012B7DF412
:10583800AAAF0323F370FDF7AEBF7378002B7DF496
:10584800A6AFB378002B7DF4A2AF0423F370FDF765
:10585800A2BF7378002B7CF4D7ABB378002B7CF411
:10586800D3AB0423F370FCF7D3BB7378002B7EF41F
:1058780091AAB378002B7EF48DAA0423F370FEF767
:105888008DBA94ED487AD4ED497A94EDDE6AD4ED78
:10589800476AB4EEE67AF1EE10FA67EE867A05DD2D
:1058A800D4ED476A77EEA66AC4ED476AD4ED476A35
:1058B800B4EEE67AF1EE10FA7EF520AD94ED477A73
:1058C80077EE677AC4ED477AFEF718BD7378012B37
:1058D8007DF461AFB378002B7DF45DAF0523F370E1
:1058E800FDF759BF7378012B7EF458AAB378002BC3
:1058F8007EF454AA0523F370FEF750BA7378012B8F
:105908007CF486ABB378002B7CF482AB0523F37070
:10591800FCF77EBBE378012B00F0CF82F3781633D7
:1059280006EB83035A68F378163306EB83035A6051
:10593800E378022B00F0BE82F378103306EB830382
:105948005A68F378103306EB83035A60FCF79DBB63
:1059580000230026C4F85431C4F85831C4F85C3127
:105968006361C4F81C31C4F82031C4F82431E36001
:10597800C4F8FC60D4EDDE5A9FEDEF6A9FEDEF7A34
:10598800D4ED2D6AB7EE008AC8EE257A67EE867ADE
:1059980027EE877A66EE877AC4ED717AC4ED607A6D
:1059A800D4ED2B7AD4EDDE6A67EE877A67EEA67AB5
:1059B800C4ED7A7AC4ED697A94ED607AC8EE077A14
:1059C800C4ED6A7A94ED717AC8EE077AC4ED7B7AF1
:1059D800D4ED2B7AD4ED2D6A94EDDE7AF1EE677A68
:1059E80087EEA60A20EE070A00F06EFB84ED940A03
:1059F800D4ED2B6A94ED947AD14BC8EE267A38EE22
:105A0800478AB7EE087A27EE888A84ED928AC4F826
:105A18006C32D4ED2B7A67EE877AC4EDBC7AD4ED7C
:105A28002D7A67EE877AC4EDBD7AD4F8AC30C4F825
:105A38008C33D4F8B430C4F89033D4F8B830C4F800
:105A480094332670FCF7E5BCD4ED057A94ED2F7AF3
:105A5800BC4A67EE877AC4ED037AD4ED4B7A1368B3
:105A680003F00F03012B07D01168B74B0B4043F429
:105A7800002343F0610313609FEDB46AB14BDFED7F
:105A8800B46A9FEDB47A67EE867AB6EE006AFEEEE7
:105A9800E07AC3ED017AD3ED027AF8EEE77A67EEA1
:105AA800A67AC4ED297AD3ED027AF8EEE77A67EEA2
:105AB800A67AC4ED2A7A84ED317AD4F8FC30D4ED94
:105AC800DD7A67EE867AFCEEE77A17EE902A934243
