:020000040800F2
:1000000000000220F1B200081DA3000821A300088F
:1000100025A3000829A300082DA300080000000064
:1000200000000000000000000000000031A30008F4
:1000300035A300080000000039A300083DA3000814
:1000400065B3000865B3000865B3000865B3000830
:1000500065B3000865B3000865B3000865B3000820
:1000600065B3000865B3000865B3000865B3000810
:1000700065B3000865B3000865B3000865B3000800
:1000800071A3000865B300080100001065B3000803
:1000900065B3000865B3000865B3000841A3000814
:1000A00065B3000865B3000865B3000865B30008D0
:1000B0008D75000865B3000865B3000865B30008D6
:1000C00065B3000865B3000865B3000865B30008B0
:1000D00065B3000865B30008A1A3000865B3000874
:1000E00065B3000865B3000865B3000865B3000890
:1000F00065B3000865B3000865B3000865B3000880
:1001000065B3000865B3000865B3000865B300086F
:1001100065B3000865B3000865B3000845A300088F
:1001200065B3000865B3000865B3000865B300084F
:1001300065B3000865B3000865B3000865B300083F
:1001400065B3000865B3000865B3000865B300082F
:1001500065B3000865B3000865B3000865B300081F
:1001600065B300085DA3000865B3000865B3000827
:1001700065B3000865B3000865B3000865B30008FF
:1001800065B3000865B3000865B3000865B30008EF
:1001900065B300080000000065B3000865B30008FF
:1001A00065B3000865B3000865B3000865B30008CF
:1001B00065B3000865B3000865B3000865B30008BF
:1001C00065B3000865B3000865B3000865B30008AF
:0801D00065B3000865B30008E7
:1001D8002DE9F04F2DED048B874B884F5B68884ADB
:1001E8003B604FF0A041874C40230B601360D4F86C
:1001F800F830854A0133C4F8F830D4F8FC300133BC
:10020800C4F8FC30D4F800310133C4F80031D4F814
:10021800F830D4EDCB7A92ED007A67EE877A87B022
:10022800FCEEE77A17EE901A8B4207D377494B69B1
:10023800002083F480434B61C4F8F8004FF0A043DA
:10024800734ED3F888103160D3F880107160D3F8FA
:100258008410B160D3F88C10B161D3F88811F160C3
:10026800D3F880113161D3F88411716103F580737B
:10027800D3F88C30F36194F81A33012B00F0F8812D
:1002880094F81A33002B40F0A980D6ED006A9FED50
:10029800614A94ED425A94EDCD7ADFED624ADFED82
:1002A8005E7A9FED5E6ADFED5E5AF8EEE66A27EE4B
:1002B800047A76EEC56AB0EE005A66EE876AC4ED37
:1002C8000C6AD6ED016AD4ED433A94EDCD7AF8EE96
:1002D800E66A27EE047A76EEE36A66EE876AC4ED8C
:1002E8000D6A96ED027AD4ED443AD4EDCD6AB8EEB3
:1002F800C77A66EE846A37EE637A27EE267A84ED4B
:100308000E7A96ED067AD4EDCE6AB8EEC77A27EE65
:10031800247A27EE267A84EDB47A96ED034AD4ED52
:10032800CE6AD4ED453A94EDB47A66EEA46A27EE27
:10033800637AB8EEC44AA4EE267AB1EE477A84ED21
:100348000F7A96ED044AD4EDCE6AD4ED463A94ED90
:10035800B47A66EEA46AB8EEC44A27EE637AA4EECD
:10036800267AB1EE477A84ED107A7369D4EDCE6AB5
:1003780094ED474A94EDB47A66EEA44A06EE903AB4
:1003880027EE447AF8EEE66AA6EEA47AB1EE477A4A
:1003980084ED117A236BA366D4ED0C6A94ED0D7A83
:1003A80067EE277AE6EE867AC4ED1B7A94ED0F7A2B
:1003B800D4ED107AD4ED116A77EEA67AD7EE057AE5
:1003C80067EEA57AC4ED127AD4ED107A94ED117A1D
:1003D80077EEC77A27EE866A84ED136A2378062BB0
:1003E80000F23881DFE813F09A01CC0568071D0890
:1003F8003409E8095E0100BF001000E094480020BD
:1004080000010050000000200008002000080048FB
:100418006C4900200000003A3ACD933F3ACD133F93
:10042800ABAAAA3E0000803996ED037A5FED036A15
:10043800D4EDCE7AB8EEC77A27EE267A27EE277A59
:1004480084EDE57A96ED047AD4EDCE7AB8EEC77AE3
:1004580027EE267A27EE277A84EDE67AD6ED057A16
:1004680094EDCE7AF8EEE77A67EEA67A67EE877AA9
:10047800C4EDE77A94ED517AD4ED527A94EDCC6AD2
:10048800D4ED506AB4EEE67AF1EE10FA67EE867AA9
:1004980005DDD4ED506A77EEA66AC4ED506AD4ED56
:1004A800506AB4EEE67AF1EE10FA05D594ED507A7A
:1004B80077EE677AC4ED507A94ED507AF7EE007AC9
:1004C800B4EEE77AF1EE10FA0ADC94ED507AFFEE1A
:1004D800007AB4EEE77AF1EE10FA58BFD4ED507A0C
:1004E800C4ED507A94F81933DBB2012B03F0BF87BF
:1004F800002B04F04F80022B13D1D4F8C036744877
:10050800984794F8AD33DFED737A9FED737A06EE72
:10051800903AF8EE666AE6EEA77A77EE677AC4ED67
:100528004C7AD4F83031C4F8E833D4F8C8366B487C
:100538009847D4EDFD7A9FED6A7AD4EDD56A67EED7
:10054800877A87EEA67A84ED0B7A94F88833002BA5
:1005580043F05E84E378012B03F05A84D4F8FC302E
:100568009FED607AD4EDCB7A67EE877AFCEEE77A76
:1005780017EE902A934208D394F81933022B04D12A
:1005880001220023E270C4F8FC3094ED4D0A564B6A
:10059800D4ED500A1B6894F8AD03F0EEE00A9847D2
:1005A800A26EC4F87023E26EC4F87423D4F8D02283
:1005B8004E4BC4F87C231B69C4F88033D4F8BC368E
:1005C8004B48984794F88433002B43F06C84237885
:1005D800DBB22370474ED4F8A0333360D4F8A43389
:1005E8007360D4F8A833B360D4F88C33424AF3600C
:1005F800137806F10C016BB3936834680A3302EB85
:1006080083031C609368746803F20A4302EB830354
:100618001C609368B06803F60A0302EB8303186052
:100628009368096803F60A4302EB83031960936829
:1006380001339360916840F2FE3399420AD901234D
:1006480053709378A3F10103B3FA83F300215B0994
:1006580013709160294A2A4B52681A601B683968DE
:10066800284A5B1A136007B0BDEC048BBDE8F08F15
:10067800254D9FED266AD5F8B030A366D5ED2C6AD6
:10068800D5ED2D7A9FED227A67EE867AE6EE877AA7
:10069800C4ED1B7AAB6BA364EB6BE364AB6CC4F87F
:1006A800D0329BE61B4B1B6898471B4B4FF40052FC
:1006B8009A6194F85C33013B052B01F27D83DFE8F6
:1006C80013F0730F3E0F7B0B6C0B340F6C0B00BFDA
:1006D80088030020920A863FDB0F4940E803002088
:1006E800EBC91841CDCC4C3D1408002070480020BF
:1006F8005C0300206048002028080020001000E06B
:100708001C080020080800209C4800203ACD933F90
:100718003ACD133F2408002000080048DFF8ECC356
:10072800DFEDF06AF04B00214FF4005E0125002058
:10073800CCF828E06161A161C4F89011C4F898115F
:10074800C4F8D411C4F8DC11C4F81812C4F8201283
:10075800C4F830111160E57084F8AD03D6ED067A5F
:1007680094EDCE7AF8EEE77A9C4667EEA67A9A463A
:1007780067EE877A184617EE902A4CF80C2BD6EDC0
:10078800007AF8EEE77A1A4617EE901A4AF8301F00
:10079800D6ED017AF8EEE77A194617EE905A40F846
:1007A800405FD6ED027AF8EEE77A994617EE905A4E
:1007B80042F8505F96ED037AD4EDCE7AB8EEC77A58
:1007C80067EEA67A984627EE277A03F1380E17EED9
:1007D800105A41F8605F96ED047AD4EDCE7AB8EEFF
:1007E800C77A67EEA67A27EE277A17EE105A49F8E5
:1007F800705FD6ED057A94EDCE7AF8EEE77A67EE7B
:10080800266A1D4667EEA67A083517EE906A48F8FC
:10081800806FDCED006A93ED007AD3ED027A37EE53
:10082800677AD3ED027AE6EE877A03F1480C1E4622
:100838005836C3ED027AD3ED0F6A9AED007ADEEDF1
:10084800007A37EE677ADEED007AE6EE877ACEED4B
:10085800007AD3ED136A90ED007ADCED007A37EE7A
:10086800677ADCED007AE6EE877A18466830CCEDD8
:10087800007AD3ED176A92ED007AD6ED007A37EE5A
:10088800677AD6ED007AE6EE877A1A467832C6EDB0
:10089800007AD3ED1B6A91ED007AD0ED007A37EE3D
:1008A800677AD0ED007AE6EE877A19468831C0ED8E
:1008B800007AD3ED1F6A99ED007AD2ED007A37EE0F
:1008C800677AD2ED007AE6EE877AC2ED007AD3ED48
:1008D800236A98ED007AD1ED007A37EE677AD1ED88
:1008E800007AE6EE877AC1ED007A94F81A33002B85
:1008F80041F081822B687D4DC4F8D032D4EDB47AB2
:10090800DEF80030C4F80831F7EE006A86EEA77A00
:10091800DCF80030C4F80C313368C4F81031D0ED7D
:10092800007A67EE877AC4ED457AD2ED007A67EEF1
:10093800877AC4ED467AD1ED007A67EE877AC4EDFE
:10094800477A94F81833DBB2012B02D00BB1022B93
:100958000AD19FED671A674BD4ED4D1A1B68F0EE6C
:10096800410AB0EE410A9847634B1B68984795EDDA
:10097800127AD5ED077ADFED615A9FED616ADFEDF6
:10098800616A614A27EE277A40F6BC5085ED037A02
:1009980095ED127AD5ED087A27EE277A44F6BC5100
:1009A80085ED047A95ED127AD5ED097A27EE277A46
:1009B80085ED057AD5ED037A95ED045A95ED057A1E
:1009C80077EE857A77EE877A67EEA57AC5ED067AAF
:1009D80095ED037AD5ED067A37EE677A85ED007ADC
:1009E80095ED047AD5ED067A37EE677A85ED017ACA
:1009F80095ED057AD5ED067A37EE677A85ED027AB8
:100A08002B68AB6395ED007AD5ED017A67EE867AAF
:100A1800E7EE267AF7EE086AC5ED0F7AD5ED197A72
:100A2800FEEEC47A17EE903A83FB02894FEA186209
:100A380042EA092202F580025212A2F5005343F35A
:100A48000D0303FB03F31B1300FB03F0A1EBA03121
:100A580003FB01F31B14C3F580531B03560448BF63
:100A68005B4207EE903AFAEEC47A274AC5ED1B7A44
:100A7800D5ED197AFEEEC47A40F6BC5117EE903ADD
:100A880083FB02894FEA186242EA09225212A2F550
:100A9800005343F30D0303FB03F31B1301FB03F0A4
:100AA80044F6BC51A1EBA03103FB01F31B14C3F5C1
:100AB80080531B03500448BF5B4207EE903AFAEE9E
:100AC800C47A0023C5ED1C7A95ED0E6A95ED1B7A64
:100AD800D5ED0F7AD5ED1C5A67EEA57AE6EE077AC2
:100AE80022E000BF000080391C0600209C4800203E
:100AF800000000002008002018080020AAAAAA3E2A
:100B08003ACD933F3ACD133F60BE28000008004815
:100B1800EBC91841D7B35D3FDA0F4940DA0FC9C0B6
:100B2800DA0F49C0DA0FC940C5ED107A95ED0E6AA3
:100B3800D5ED1C7A95ED0F7AD5ED1B5A27EE257A5F
:100B4800A6EE677A85ED117A95ED107A95ED0C5A37
:100B5800D5ED205A95ED226AD5ED137AA5EE657A82
:100B6800A6EE277A85ED257A95ED117A95ED0D5A41
:100B7800D5ED205A95ED216AD5ED137AA5EE657A63
:100B8800A6EE677A85ED267AD5ED217A95ED256A68
:100B980095ED277AE6EE077AC5ED237AD5ED227A28
:100BA80095ED266A95ED277AE6EE077AC5ED247A63
:100BB80095ED237A95ED296AD5ED2A7A37EE467AAE
:100BC80027EE277A85ED0C7AD5ED247A95ED2B7AE8
:100BD80067EE877AC5ED0D7AD5ED217A95ED286A0D
:100BE800D5ED255A95ED107AD5ED0C3A95ED204ABC
:100BF800D5ED224A95ED135AA3EEC47AA4EE857A70
:100C080037EE257AE6EE077AC5ED217AD5ED227A18
:100C180095ED286AD5ED265A95ED117AD5ED0D3A60
:100C280095ED204AD5ED214A95ED135AA3EEC47AE5
:100C3800A4EEC57A37EE257AE6EE077AC5ED227A74
:100C480095ED217A95ED296AD5ED2A7A37EE467A1F
:100C580027EE277A85ED0C7AD5ED227A95ED2B7A59
:100C680067EE877AC5ED0D7A95ED0C6AD5ED1B7A9E
:100C7800D5ED0D5A95ED1C7A27EE657AA6EE277A02
:100C880085ED0A7A95ED0C6AD5ED1C7A95ED0D7A0D
:100C9800D5ED1B5A27EE257AA6EE277A85ED0B7A35
:100CA80095ED187AD5ED215A95ED0D6A95ED225AF4
:100CB800D5ED0C7A67EEC57A67EE266AE5EE867A98
:100CC80067EEA67AC5ED157AC5F8C430D5ED137A66
:100CD800F5EEC07AF1EE10FA07DDD5ED307A95ED34
:100CE800177A77EE877AC5ED317AD5ED137AF5EE76
:100CF800C07AF1EE10FA09D5D5ED307A95ED177A6C
:100D0800F1EE677A77EEC77AC5ED317A95ED275A15
:100D1800D5ED165AD5ED156A95ED316AD5ED137AEC
:100D280085EE257A76EEC66AF0EEE77A27EE267A21
:100D3800F0EEC76AF4EEE76AF1EE10FA0BDDD5EDD6
:100D4800157AD5ED306AF0EEE77AF4EEE67AF1EE50
:100D580010FA01F17480D5ED136A5FED935A5FEDD7
:100D6800937A1FED936A36EE877AFEEE006A85ED78
:100D7800137A95ED137A27EE257A85ED147A95ED99
:100D8800137AD5ED155A27EE257A85ED2F7AAB6AB9
:100D9800C5F8B030D5ED0A5A95ED0B7A27EE277ACB
:100DA800A5EEA67A85ED2D7A95ED0A7AD5ED0B5A42
:100DB80067EEE57AE7EE267AC5ED2E7AD5ED1A7A52
:100DC800D5ED276A95ED137AE6EE877AC5ED1A7A9E
:100DD800D5ED1A7AF4EEC67AF1EE10FA07DD95ED44
:100DE8001A7A5FEDB27A77EEC77AC5ED1A7A95ED81
:100DF8001A7A5FEDB57AB4EEE77AF1EE10FA07D514
:100E0800D5ED1A7A1FEDB97A77EE877AC5ED1A7A99
:100E1800D5ED1A7AD5ED186A1FEDC17A67EEA67A74
:100E2800C5ED197AD5ED197AF4EEC77AF1EE10FA14
:100E380007DD95ED197A5FEDC77A77EEC77AC5EDCC
:100E4800197A95ED197A5FEDCA7AB4EEE77AF1EE80
:100E580010FA07D5D5ED197A1FEDCE7A77EE877A95
:100E6800C5ED197A94EDB47A414B4248F3EE047A11
:100E7800B4EEE77AF1EE10FAACBF0122002284F852
:100E88008523A26EC4F87023E26EC4F87423D4F8E4
:100E9800D022C4F87C231B69C4F88033D4F8BC364C
:100EA800984794F88433002B40F0A2872378DBB26C
:100EB800237094F8CD35304E0133DBB284F8CD354C
:100EC80094F8CD35622B96BF94F8CD350023DBB26C
:100ED80084F8CD3594F8CD3507EE903AF8EE677A78
:100EE800264BC6ED007A94F8CD2502F5877204EBFF
:100EF800820206F10C0152687260D4F87821B2605F
:100F0800D4F8BC21F2601A78002A3FF4A3AB9A689F
:100F180034680A3203EB820214609A68746802F239
:100F28000A4203EB820214609A68B06802F60A0269
:100F380003EB820210609A68096802F60A4203EB22
:100F4800820211609A6801329A60996840F2FE3212
:100F580091427FF67FAB01225A709A78A2F1010282
:100F6800B2FA82F2002152091A709960FFF772BB37
:100F7800704800205C0300206048002028080020FA
:100F880094F81833DBB2012B3FF44EAA002B02F081
:100F98008E83022B7FF45EABBC49BD4B94ED4C0AAB
:100FA8001B68081F9847D4ED1A5A94ED2B6A94EDE4
:100FB8001B7A94ED2A5AB74BDFEDB77ADFEDB76AA3
:100FC80027EE057A1A46A5EE867A1E461D4684ED5A
:100FD8001C7AD4ED1A5A94ED2A6A94ED1B7A94ED92
:100FE8002B5A27EE057AA5EEC67A84ED1D7A216F75
:100FF80042F80C1B616F46F8101FD4F8D01245F860
:10100800201FD2ED005A93ED006A93ED027A36EE76
:10101800476A93ED027AA5EE867A83ED027AD3EDDC
:10102800075A96ED006A93ED067A36EE476A93ED15
:10103800067AA5EE867A83ED067AD3ED0B5A95EDFE
:10104800006A93ED0A7A36EE476A93ED0A7AA5EEBE
:10105800867A83ED0A7A9B6AC4F8D032E37A94EDF3
:10106800516A94ED527A94EDCC5AD4ED505A012B32
:10107800B4EEE56A08BFF0EE676AF1EE10FA27EE03
:10108800057A01F3C582D4ED507AB4EEE76AF1EE41
:1010980010FA05D5D4ED507A37EEC77A84ED507A38
:1010A800E368C4F8F83294ED507AD4EDB47A27EEB8
:1010B800277A27EE267A84EDBF7AD4EDC27A94EDAA
:1010C800B47A67EEA67A67EE877AC4EDC07A94EDB3
:1010D800C07AD4EDC07AD4EDBE6A94EDBE0A20EE93
:1010E800660AA7EE270AB5EE400AF1EE10FAB1EE4D
:1010F800C08A03F18B856A49081F092684EDC18AD5
:1011080094EDC00A03F0A0FDD4EDBE6A94ED2B7AED
:1011180094EDBF6AD4ED2A7A624867EEC67AE6EEA5
:10112800877AC4ED547AD4EDBF6A94ED2B7AD4ED66
:10113800BE7A94ED2A6A67EE867AE6EE877AC4ED7F
:10114800557AD4F8D032C4F85831D4F8B036984724
:10115800554B94ED570A1B68D4ED580A94ED591A6B
:10116800D4ED4D1A9847D4F85C31C4F8D432D4F889
:101178006031C4F8D832D4F86431C4F8DC324B4852
:10118800D4F8B83698474FF0000C4948E646E04690
:10119800016902690369C1F3C011C2F30022C3F3F4
:1011A8004023013E884496449C44F1D1B8F1040F91
:1011B800D4BF4FF000084FF00108BEF1040F3D4DB9
:1011C800D4BF4FF0000E4FF0010EBCF1040FD4BF96
:1011D8004FF0000C4FF0010C85F8008085F801E015
:1011E80085F802C0D4F8F4332B632B781BB96B78DD
:1011F800012B03F0C0832B781BB96B78012B03F00C
:10120800CB832B782BB96B781BB9AB78012B03F008
:10121800A7842B78012B03F00E812B78012B03F088
:101228001A812B78012B03F08582EB781C3305EBB0
:1012380083035B68EB61EA782B799A4215D0EA78E8
:101248002B799A4206D9EB78052B0ABF2B7B002312
:10125800DBB22B73EA782B799A4206D2EB78002B13
:1012680043F090832B7BDBB22B73EB78DBB22B71D3
:10127800EB69C4F8F43094F81933032B01F2ED84C8
:10128800DFE813F0870FD40C900D510DAC0000204F
:1012980010080020FC050020ABAA2A3F3ACD133FD6
:1012A800FC0200205001002020080020D00200206D
:1012B800000400486C07002094F81833022B7FF4D0
:1012C800C9A9D749D74B94ED4C0A1B68081F984702
:1012D80094ED067AD4ED077A94EDCC6AD4ED6F6A72
:1012E800B4EEE67AF1EE10FA67EE867A05DDD4ED13
:1012F8006F6A77EEA66AC4ED6F6AD4ED6F6AB4EED2
:10130800E67AF1EE10FA05D594ED6F7A77EE677A02
:10131800C4ED6F7A6369C4F87831D4ED067A9FED2D
:10132800C27ADFF81883F0EEE77AF4EEC77AF1EEC6
:1013380010FACCBFD4F8BC310023C4F8BC31D4EDCA
:101348001A6A94ED2B7AD4ED1B7A94ED2A6A67EE2B
:10135800867A4246E6EE877A46464546C4ED1C7ACA
:10136800D4ED1A6A94ED2A7AD4ED1B7A94ED2B6A9F
:1013780067EE867AE6EEC77AC4ED1D7A236F42F8E7
:101388000C3B636F46F8103FD4F8D03245F8203F45
:10139800D2ED006A98ED007AD8ED027A37EE677AD6
:1013A800D8ED027AE6EE877AC8ED027AD8ED076AB8
:1013B80096ED007AD8ED067A37EE677AD8ED067A98
:1013C800E6EE877AC8ED067AD8ED0B6A95ED007AD5
:1013D800D8ED0A7A37EE677AD8ED0A7AE6EE877A98
:1013E800C8ED0A7AD8F82830C4F8D03294F808340E
:1013F800012B02F0818594F81933022B02F0C5877E
:1014080094F8CC35012B02F06885884D94F81B338D
:10141800032B01F2A882DFE813F0F30BDA0BCF0BF2
:101428008C0A94F81833022B7FF414A97C497D4B5D
:101438007F4E94ED4C0A1B68081F984794ED084AA4
:1014480096ED007AD4ED0A7AD4EDCC3AB4EE474A58
:10145800F7EE086AF1EE10FA67EEA67A42F0C68453
:10146800DFF8DC81DFF8DC9198ED007AD4ED806A52
:1014780094ED805AF5EE005A67EE255A76EEC46A66
:10148800C5EEA74AB4EEC54A87EEA46AF1EE10FA93
:10149800F6EE004A26EE246AF0EEE66A02F3D280FF
:1014A80094ED805AB4EEC54AF1EE10FA02F1CA8002
:1014B800D9ED007A94ED807AB4EEC74AF0EEE77A77
:1014C800F1EE10FA67EEA37A05DD94ED807A37EE37
:1014D800877A84ED807A94ED807AB4EEC74AF1EE8B
:1014E80010FA05D594ED807A77EE677AC4ED807AA4
:1014F80094F8043186ED004A0133DBB284F80431F4
:1015080094F80431092B10D9002384F8043194F895
:101518001A334848012B0ABF474BD4F8F4331B6DE4
:10152800C4F80432D4F8AC3698476369C4F8783103
:10153800D4F82C32C4F8BC31D4ED1A6A94ED2B7A65
:10154800D4ED1B7A94ED2A6A3C4D67EE867A2B46D9
:10155800E6EE877AAC462846C4ED1C7AD4ED1A6AC2
:1015680094ED2A7AD4ED1B7A94ED2B6A67EE867A8D
:10157800E6EEC77AC4ED1D7A226F43F80C2B626F32
:101588004CF8102FD4F8D02240F8202FD3ED006A61
:1015980095ED007AD5ED027A37EE677AD5ED027AC5
:1015A800E6EE877A2B462833C5ED027AD5ED076A31
:1015B8009CED007AD5ED067A37EE677AD5ED067A96
:1015C800E6EE877AC5ED067AD5ED0B6A90ED007ADE
:1015D800D5ED0A7A37EE677AD5ED0A7AE6EE877A9C
:1015E800C5ED0A7A1B68C4F8D03294F80834012B88
:1015F80002F05E8494F81933022B02F0F58694F811
:10160800CC35012B02F08D84084D94F81B33032B45
:1016180001F22080DFE813F0890970094E090408F7
:10162800AC00002010080020CDCCCC3DD80500200F
:10163800FC070020000200209C480020FC05002038
:101648006807002060070020DB0FC940DB0F49C096
:10165800D4ED485A5FED046A94EDCC7AD4ED4C7A17
:101668001FED066A27EE267AE5EE877AC4ED4C7AF6
:10167800D4ED4C7AF4EEC67AF1EE10FA40F1BF835D
:10168800D4ED4C7A77EEA66AC4ED4C6A002103913A
:101698004FF07E510491D4ED1A6A9DED047AD4ED91
:1016A8001B7A9DED036A414B67EE867A1846E6EE93
:1016B800877A1E461D4603F1080BC4ED1C7AD4ED4B
:1016C8001A6A9DED037AD4ED1B7A9DED046A67EEE4
:1016D800867AE6EEC77AC4ED1D7AD4ED126A9DEDDE
:1016E800047AD4ED137A9DED036A67EE867AE6EE06
:1016F800877AC4ED147AD4ED126A9DED037AD4ED9D
:10170800137A9DED046A67EE867AE6EEC77AC4ED31
:10171800157AD4F870E040F80CEBD4F874E046F889
:1017280010EFD4F8D0E245F820EFD0ED006A93ED41
:10173800007ADBED007A37EE677ADBED007AE6EEC9
:10174800877A18462830CBED007AD3ED076A96EDF4
:10175800007AD3ED067A37EE677AD3ED067AE6EEAD
:10176800877AC3ED067AD3ED0B6A95ED007AD0ED52
:10177800007A37EE677AD0ED007AE6EE877AC0ED28
:10178800007A94F81A33012B0ABF094B03689B6C43
:10179800C4F8D0326378042B00F2C486DFE813F073
:1017A800E0051A061E055904780300BFFC05002051
:1017B8009C480020CDCC4C3EA3782BBB94EDC77A37
:1017C8005FED047AC64BC74A27EE277A002184EDDD
:1017D800057AC4ED4A7AC4ED497AC4ED487AC4F86A
:1017E8003011E2611A6801321A60D4EDCB7A1B68B5
:1017F80077EEA77AFCEEE77A17EE902A9A428ABF2C
:10180800A3780123DBB2A370A378012B00F09B829D
:10181800A378022B00F09782A378062B00F093821E
:10182800A378042B01F08185AF4B0193A378052B96
:1018380001F04085DFF8DCA2AC49AD4B94ED4C0AD1
:101848001B68081F9847AB4B216F1A46184642F889
:101858000C1B616F40F8101F1946D4F8D05241F89C
:10186800205F03F1080BD2ED006A93ED007ADBEDFF
:10187800007A37EE677ADBED007AE6EE877A03F1D5
:101888001808CBED007AD3ED076A90ED007AD8ED11
:10189800007A37EE677AD8ED007AE6EE877AC8EDF7
:1018A800007AD3ED0B6A91ED007AD3ED0A7A37EE20
:1018B800677AD3ED0A7AE6EE877AC3ED0A7A9B6AED
:1018C800C4F8D032D4ED1A6A94ED2B7AD4ED1B7A91
:1018D80094ED2A6A67EE867AE6EE877AC4ED1C7A7A
:1018E800D4ED1A6A94ED2A7AD4ED1B7A94ED2B6A1A
:1018F80067EE867AE6EEC77AC4ED1D7A94ED057A2E
:10190800D4ED077A94EDCC6AD4ED5E6AB4EEE67A4B
:10191800F1EE10FA67EE867A05DDD4ED5E6A77EEB1
:10192800A66AC4ED5E6AD4ED5E6AB4EEE67AF1EEBC
:1019380010FA05D594ED5E7A77EE677AC4ED5E7A93
:10194800A369C4F8BC31236FC4F87C316A48636F5B
:10195800C4F8C03100F25C49D4F8AC369847D4F8E2
:10196800AC36A9F583609847D4F8A431C4F8F832A6
:10197800D4F8E831C4F8FC32D9ED006AD4EDBE5A87
:10198800DFED667A99ED007A9FED5C6A76EEE56A9E
:10199800A6EEE77A89ED007AD4EDC27A94EDB47AAE
:1019A80067EE867A67EE877AC4EDC07A94EDC07ADE
:1019B800D4EDC07AD4EDBE6A94EDBE0A20EE660A74
:1019C800A7EE270AB5EE400AF1EE10FAB1EEC08A8A
:1019D80003F10C814A494B4D081F092684EDC18A41
:1019E80094EDC00A03F030F9D4F85C31C4F8D4326D
:1019F800D4F86031C4F8D832D4F86431C4F8DC3291
:101A08004148D4F8B8369847D4EDBE6A94ED2B7A9D
:101A180094EDBF6AD4ED2A7A3C4867EEC67AE6EEC2
:101A2800877AC4ED547AD4EDBF6A94ED2B7AD4ED5D
:101A3800BE7A94ED2A6A67EE867AE6EE877AC4ED76
:101A4800557AD4F8D032C4F85831D4F8B03698471B
:101A580000208446864629692A692B69C1F3C0118A
:101A6800C2F30022C3F34023013E8E449444184439
:101A7800F1D1BEF1040FD4BF4FF0000E4FF0010EAC
:101A8800BCF1040F224DD4BF4FF0000C4FF0010CF5
:101A98000428D4BF0020012085F800E085F801C0A3
:101AA800A8702B781BB96B78012B00F0A2852B78D6
:101AB8001BB96B78012B00F0A3852B781BB96B78C9
:101AC800002B00F0C4812B78012B01F089852B783D
:101AD800012B01F0E0852B78012B01F0CD861FE06A
:101AE800640700200000A041D0050020AC000020C1
:101AF80010080020FC05002078010020D7B35D3FC6
:101B0800FC02002000040048D00200205001002000
:101B18006C0700202808002062DCC8406F12833A56
:101B2800A37903F0FF0193B9EA782B799A4205D992
:101B3800EB78052B02D001232973A371EA782B795E
:101B48009A4204D2EB7813B101232B73A371EA787C
:101B58002B799A4226D02B7BDBB9A378012B02F094
:101B6800F381EB78103305EB83035A68EB78103375
:101B780005EB83035A60A378022B02F0E181EB782E
:101B8800163305EB83035A68EB78163305EB8303AA
:101B98005A602B7B012B01F07B86D4F830212A6117
:101BA8000123EB73EB781FED247ADBB22B7194EDF4
:101BB8004B6AD4ED486AD5ED0A7AE6EE267AC5ED89
:101BC8000A7AD5ED0A7AF4EEC77AF1EE10FA03DD57
:101BD800A378012B00F0FA8495ED0A7A5FED317A4B
:101BE800B4EEE77AF1EE10FA03D5A378022B00F0F1
:101BF800F984A378032B01F0CB83A378052B01F09C
:101C0800AC84A378062B01F00A84D4F8C832C4F84F
:101C1800E8339248D4F8C8369847A26EC4F87023BF
:101C2800E26EC4F87423D4F8D0228D4BC4F87C2318
:101C38001B69C4F88033D4F8BC368A48984794F8AE
:101C48008433002B40F0D2802378DBB22370864B9C
:101C580094ED570A1B68D4ED580A94ED591AD4ED3F
:101C68004D1A9847D4ED057AF5EE407AF1EE10FA60
:101C780007D1D4ED067AF5EE407AF1EE10FA00F0CD
:101C8800D88001238AF8003094F8CD35774A07EEDA
:101C9800903AF8EE677A1046C2ED007A94F8CD359E
:101CA80003F5877304EB83041146636840F8043F27
:101CB800019B1B6841F8083F1346D9F8004043F8D8
:101CC8000C4F9AF80040002C3EF4C4ACDAF80840F7
:101CD800156804F10A020AEB82021560DAF8082096
:101CE800006802F20A420AEB82021060DAF8082061
:101CF800096802F60A020AEB82021160DAF8082083
:101D0800196802F60A430AEB83031960DAF8083007
:101D18000133CAF80830DAF8082040F2FE339A4254
:101D28007EF698AC01238AF801309AF80230A3F1C4
:101D38000103B3FA83F300225B098AF80030CAF87A
:101D48000820FEF787BCA378062B01F0708594ED78
:101D58004B6AD4ED486AD4ED4C7A9FED457AE6EEAD
:101D6800267AC4ED4C7AD4ED4C7AF4EEC77AF1EECB
:101D780010FA55D494ED4C7ADFED3E7AB4EEE77A5A
:101D8800F1EE10FA7FF74CADD4ED4C7A9FED3F7A27
:101D980077EEC77AC4ED4C7A42E5344BD4F850015B
:101DA80035491A4642F8040BD4F854011060D4F8A7
:101DB800D00298600A68DA60304B1A78002A3EF43C
:101DC80049AC9A6829480A3203EB82020468146015
:101DD8009A684468011D02F20A4203EB8202083045
:101DE80014609A6800680831FFF7A0B806232DE749
:101DF8000623FFF75DB8224DAB6CFEF77DBD94ED71
:101E08004C7ADFED1C7AB4EEE77AF1EE10FA7FF740
:101E18003DACD4ED4C7A77EEE66AC4ED4C6A35E415
:101E2800D4ED4C7A9FED197A77EE877AC4ED4C7A27
:101E3800F6E494F88433002B3FF426AF21E7DFED76
:101E4800117AB0EE677AC5ED137AFEF784BFAB78E6
:101E5800012B7FF438AE0223EB7061E6E803002023
:101E6800704800205C030020200800206048002003
:101E7800DB0F49C0DB0F4940F4050020280800208B
:101E88009C48002000000000CDCC4C3DDB0FC94031
:101E980000230025C4F85C31C4F86031C4F864310B
:101EA8006361C4F82031C4F82431C4F82831E360F0
:101EB800C4F80051D4EDCC5A1FED0D6A1FED0D7A10
:101EC800D4ED2E6ADFF810A3B7EE008AC8EE257AA3
:101ED80067EE867A27EE877A66EE877AC4ED737A9C
:101EE800C4ED627AD4ED2C7AD4EDCC6A67EE877AA9
:101EF80067EEA67AC4ED7C7AC4ED6B7A94ED627ACB
:101F0800C8EE077AC4ED6C7A94ED737AC8EE077A56
:101F1800C4ED7D7AD4ED2C7AD4ED2E6A94EDCC7A8A
:101F2800F1EE677A87EEA60A20EE070A02F088FE2D
:101F380084EDA10AD4ED2C6AD4EDA17A88EE267A34
:101F480038EE678AF7EE086A27EE088A84EDA08AD9
:101F580094ED2C7A27EE267A84EDAA7AD4ED2E7A9F
:101F680067EEA67AC4EDAB7AD4F8B030C4F844333F
:101F7800D4F8B830C4F84833D4F8BC30C4F84C337B
:101F88002570894B94ED570A1B68D4ED580A94EDD7
:101F9800591AD4ED4D1A9847226BC4F87023626B16
:101FA800C4F87423A26BC4F87823D4F8D0227F4BEA
:101FB800C4F87C231B69C4F88033D4F8BC367C4849
:101FC800984794F88433002B41F050812378DBB292
:101FD800237094F81A33012B01F08684637807EE96
:101FE800903A744BF8EE677A1846C3ED007A226D82
:101FF80040F8042F1946226F41F8082F1A46D4F8E2
:10200800304142F80C4F9AF80040002C3EF422ABC5
:10201800DAF808401D6804F10A030AEB83031D601F
:10202800DAF80830006803F20A430AEB8303186001
:10203800DAF80830096803F60A030AEB8303196023
:10204800DAF80830126803F60A430AEB83031A60C9
:102058005CE6D4ED057A94ED307A5749574B67EE34
:10206800877A1B68C4ED037A081F94ED4C0A9847D9
:102078009FED537A84ED327AD4F80031D4EDCB7ADF
:10208800F6EE006A67EEA67AFCEEE77A17EE902A7B
:10209800934205D394ED2A7AD4ED037A27EE277A72
:1020A80084ED337AD4F8C830C4F8F832D4F8CC3098
:1020B800C4F8FC32D4EDC27ADFED426A94EDB47A0A
:1020C800414967EEA67A081F67EE877AC4EDC07AA1
:1020D80094EDC00A02F0B8FD94ED037AD4EDC07A0D
:1020E800B4EEE77AF1EE10FA0ADD384BC4F8B830EE
:1020F80001210822C4F8BC3084F8841384F85C23D6
:10210800D4F85C31C4F8D432D4F86031C4F8D83289
:10211800D4F86431C4F8DC322D48D4F8B83698477E
:10212800D4EDBE6A9DED047A94EDBF6ADDED037AC5
:10213800284867EEC67AE6EE877AC4ED547AD4ED7D
:10214800BF6A9DED047AD4EDBE7A9DED036A67EE11
:10215800867AE6EE877AC4ED557AD4F8D032C4F898
:102168005831D4F8B0369847D4F80031D4EDCB7A4A
:10217800FCEEE77A17EE902A934281F08587DFF824
:1021880058A0D4F80031D4EDCB7AB7EE087A67EED0
:10219800877AFCEEE77A17EE902A93422CBF042345
:1021A80003236370EDE600BF20080020704800207C
:1021B8005C03002060480020AC00002010080020CC
:1021C80000000000ABAA2A3FFC020020000080BFEC
:1021D800D00200205001002028080020637AD4EDA6
:1021E800057A002B41F0F88694ED2C7A67EE877A11
:1021F800C4ED037ADA49DB4B94ED4C0A1B68081FDF
:102208009847D4F80031D4EDCB7ADFEDD76AD749B7
:10221800B6EE007A67EE877A081FFCEEE77A17EECB
:10222800902A934225BFD4ED2A7A94ED037ADFED04
:10223800D07A67EE877A0023C4ED327AC4F8CC30BE
:10224800D4F8C830C4F8F832D4F8CC30C4F8FC322A
:10225800D4EDC27A94EDB47A67EEA67A67EE877AFF
:10226800C4EDC07A94EDC00A02F0EEFC94ED037A56
:10227800D4EDC07AB4EEE77AF1EE10FA0ADDBD4B80
:10228800C4F8B83001210822C4F8BC3084F884139B
:1022980084F85C23D4F85C31C4F8D432D4F86031C3
:1022A800C4F8D832D4F86431C4F8DC32B248D4F86F
:1022B800B8369847D4EDBE6A9DED047A94EDBF6AAE
:1022C800DDED037AAD4867EEC67AE6EE877AC4EDAF
:1022D800547AD4EDBF6A9DED047AD4EDBE7A9DEDB3
:1022E800036A67EE867AE6EE877AC4ED557AD4F803
:1022F800D032C4F85831D4F8B0369847D4F8003101
:10230800D4EDCB7AFCEEE77A17EE902A934281F06F
:102318006587DFF890A2D4F80031D4EDCB7AB7EE18
:10232800087A67EE877AFCEEE77A17EE902A9342EE
:102338007FF627AE637A03F0FF02002B42F0258375
:1023480002216170012100236172C4F80021C4F8E0
:10235800D030C4F8D830C4F8E030C4F8E43010E61F
:102368000023C4F80031D4EDC76A9FED856ADFED1C
:10237800807A9FED847A7B4BDFF828A278498248DF
:10238800824E1D6866EE866A0123C4ED056AC4EDB7
:10239800367AC4ED347AD4EDCA6A66EE876AB0EE4E
:1023A800670AC4ED486AC4F8CC01C4F8880184ED12
:1023B8007C7A081F84ED6B7AC4ED7D7AC4ED6C7A63
:1023C800C4ED7D7AC4ED6D7A8AF8003063701660CA
:1023D800A847D6E594ED057AD4ED057A94EDCC6A54
:1023E800D4ED5E6AF2EE045A67EEA57AB4EEE67AA8
:1023F800F1EE10FA67EE867A05DDD4ED5E6A77EEC7
:10240800A66AC4ED5E6AD4ED5E6AB4EEE67AF1EED1
:1024180010FA05D594ED5E7A77EE677AC4ED5E7AA8
:102428000025C4F8BC51236FC4F87C31636FC4F82D
:10243800C031D4F80033C4F89C31D4ED677A5448DD
:10244800F1EE677AC4ED687AD4F80033C4F8E03165
:10245800D4ED787AF1EE677AC4ED797AD4F8AC36AF
:102468009847D4F8AC364B489847D4F8A431C4F808
:10247800F832D4F8E831C4F8FC32D4EDC27AD4ED9D
:10248800B46A9FED397A394967EEA67A081F67EE74
:10249800877AC4EDC07A94EDC00A02F0D5FBD4F86F
:1024A8005C31C4F8D432D4F86031C4F8D832D4F8E6
:1024B8006431C4F8DC323048D4F8B8369847D4EDE3
:1024C800BE6A94ED2B7A94EDBF6AD4ED2A7A2B4834
:1024D80067EEC67AE6EE877AC4ED547AD4EDBF6A21
:1024E80094ED2B7AD4EDBE7A94ED2A6A67EE867A5B
:1024F800E6EE877AC4ED557AD4F8D032C4F858316C
:10250800D4F8B0369847D4F80031D4EDCB7AB6EE8B
:10251800007A67EE877AFCEEE77A17EE902A934204
:1025280081F06285DFF87CA02BE51B4BD4F84001D5
:102538001A491A4642F8040B0869194936E4D6EDD7
:10254800017A154BF8EEE77A1A46E2EC017AD4F8EC
:102558000C111160E16E9960D4F86021DA602BE407
:10256800AC00002010080020ABAA2A3FFC02002083
:1025780000000000000080BFD002002050010020B1
:10258800CDCC4C3ECDCCCC3D6F12833ACDCC4C3D1E
:1025980078010020BC01002060480020704800201D
:1025A800F405002028080020D6ED007AC74BF8EE85
:1025B800E77A1A46E2EC017AD4F808111160A16EA4
:1025C8009960D4F85C21DA60FFF7F6BBD4ED487A5D
:1025D800BF4AF1EE677A0223C4ED487AAA62A37073
:1025E800FFF7FABA00220323C4F82021A370FFF7EB
:1025F80000BBAB78002B7FF45AAAEE70FFF790BAB5
:10260800AB78DBB2012B7FF458AAEB70FFF788BADE
:10261800D4ED507A77EE277AC4ED507AFEF733BDC1
:10262800D4ED1D7AD4EDFD6A94EDD37A67EEA67ADF
:1026380067EE877AC4ED1E7A94EDFD7A94ED1C6AF4
:10264800D4EDD26AD4EDA97AE6EE267A67EE877AD7
:10265800C4ED1F7A236FC4F87C31636FC4F8C031AE
:10266800D4ED1E7ADFF88CA2F1EE677AC4ED607AB9
:10267800D4ED1F7ADAED006A95ED007AE6EE877AF6
:10268800AAF26440C4ED717AD4F80033C4F89C31DE
:10269800D4ED677AF1EE677AC4ED687AD4F804333A
:1026A800C4F8E031D4ED787AF1EE677AC4ED797A3E
:1026B800D4F8AC369847D4F8AC36AAF58460984775
:1026C800D4F8A431C4F8F832D4F8E831C4F8FC32AC
:1026D800E37A9FED807A9FED806AD4EDC27AD4EDDB
:1026E800B46A012B18BFB0EE467A67EE877A67EEB8
:1026F800A67AC4EDC07A94EDC07AD4EDC07AD4ED50
:10270800BE6A94EDBE0A20EE660AA7EE270AB5EE69
:10271800400AF1EE10FAB1EEC08A02F17B826F49ED
:102728006F4D081F84EDC18A94EDC00A02F08CFA3F
:10273800D4EDBE6A94ED2B7A94EDBF6AD4ED2A7A73
:10274800684867EEC67AE6EE877AC4ED547AD4ED27
:10275800BF6A94ED2B7AD4EDBE7A94ED2A6A67EEBF
:10276800867AE6EE877AC4ED557AD4F85C31C4F8F7
:10277800D432D4F86031C4F8D832D4F86431C4F80B
:10278800DC32D4F8B8369847D4F8D032C4F8583187
:102798005548D4F8B0369847544B94ED570A1B68FF
:1027A800D4ED580A94ED591AD4ED4D1A98474FF0C4
:1027B800000CE646E246092029692A692B69C1F31B
:1027C800C011C2F30022C3F3402301388A4496445F
:1027D8009C44F1D1BAF1040FD4BF4FF0000A4FF076
:1027E800010ABEF1040F424DD4BF4FF0000E4FF066
:1027F800010EBCF1040FD4BF4FF0000C4FF0010CD8
:1028080085F800A085F801E085F802C0D4F8F43313
:102818002B632B781BB96B78012B01F097872B78EA
:102828001BB96B78012B02F032802B782BB96B78AF
:102838001BB9AB78012B02F042812B78012B01F0F8
:1028480087832B78012B01F09B832B78012B01F0D8
:102858009085EB781C3305EB83035B68EB61EA78C2
:102868002B799A4215D0EA782B799A4206D9EB78D7
:10287800052B0ABF2B7B0023DBB22B73EA782B795D
:102888009A4206D2EB78002B41F075872B7BDBB29E
:102898002B73EB78DBB22B71EB69C4F8F43094F846
:1028A8001933032B00F24D83DFE813F0A003340340
:1028B8005E041F040023A367D4EDFD7A94EDA97A82
:1028C80067EE877AC4ED1F7AC4E600BF604800202F
:1028D800DB0FC940ABAA2A3F3ACD133FFC020020C8
:1028E80000040048D00200205001002020080020E9
:1028F8006C070020DC050020D4ED1D7AD4EDFD6ABC
:1029080094EDD37A67EEA67A67EE877AC4ED1E7ADD
:10291800D4ED1C7AD4EDFD6A94EDD27A67EEA67AEE
:1029280067EE877AC4ED1F7A94E60023A367E3670E
:1029380090E6D4ED1D7AD4EDFD6A94EDD37A67EE76
:10294800A67A67EE877AC4ED1E7A94EDFD7A94ED47
:102958001C6AD4EDD26AD4EDA97AE6EE267A67EE3F
:10296800877AC4ED1F7A236FC4F87C31636FC4F88B
:10297800C031D4ED1E7AA44EF1EE677AC4ED607AC8
:10298800D4ED1F7AD6ED006A95ED007AE6EE877AE7
:10299800A6F26440C4ED717AD4F80033C4F89C31CF
:1029A800D4ED677AF1EE677AC4ED687AD4F8043327
:1029B800C4F8E031D4ED787AF1EE677AC4ED797A2B
:1029C800D4F8AC369847D4F8AC36A6F58460984766
:1029D800D4F8A431C4F8F832D4F8E831C4F8FC3299
:1029E800E37A9FED8A7A9FED8A6AD4EDC27AD4EDB4
:1029F800B46A012B18BFB0EE467A67EE877A67EEA5
:102A0800A67AC4EDC07A94EDC07AD4EDC07AD4ED3C
:102A1800BE6A94EDBE0A20EE660AA7EE270AB5EE56
:102A2800400AF1EE10FAB1EEC08A02F1E38079496A
:102A3800794D081F002684EDC18A94EDC00A02F082
:102A480003F9D4EDBE6A94ED2B7A94EDBF6AD4ED08
:102A58002A7A724867EEC67AE6EE877AC4ED547A27
:102A6800D4EDBF6A94ED2B7AD4EDBE7A94ED2A6A40
:102A780067EE867AE6EE877AC4ED557AD4F85C314B
:102A8800C4F8D432D4F86031C4F8D832D4F86431F8
:102A9800C4F8DC32D4F8B8369847D4F8D032C4F841
:102AA80058315F48D4F8B03698475E4B94ED570AD2
:102AB8001B68D4ED580A94ED591AD4ED4D1A98476D
:102AC800B446B646092029692A692B69C1F3C011A1
:102AD800C2F30022C3F3402301388E4494441E44B9
:102AE800F1D1BEF1040FD4BF4FF0000E4FF0010E2C
:102AF800BCF1040F4C4DD4BF4FF0000C4FF0010C4B
:102B0800042ED4BF0026012685F800E085F801C010
:102B1800AE70D4F8F4332B632B781BB96B78012B88
:102B280001F001862B781BB96B78012B01F0B78671
:102B38002B782BB96B781BB9AB78012B01F0C387C5
:102B48002B78012B01F010822B78012B01F02482C5
:102B58002B78012B01F00184EB781C3305EB830300
:102B68005B68EB61EA782B799A4215D0EA782B7981
:102B78009A4206D9EB78052B0ABF2B7B0023DBB2E0
:102B88002B73EA782B799A4206D2EB78002B41F026
:102B9800EF852B7BDBB22B73EB78DBB22B71EB6908
:102BA800C4F8F43094F81933032B56D8DFE813F03F
:102BB8000F013E00FA00BB000023A367D4EDFD7AA5
:102BC80094EDA97A67EE877AC4ED1F7ACBE6D4ED47
:102BD8001D7AD4EDFD6A94EDD37A67EEA67A67EE96
:102BE800877AC4ED1E7AD4ED1C7AD4EDFD6A94ED93
:102BF800D27A67EEA67A67EE877AC4ED1F7AB2E6D4
:102C08000023A367E367AEE6DC050020ABAA2A3FF2
:102C18003ACD133FFC02002000040048D0020020F7
:102C280050010020200800206C070020D4F8F43060
:102C3800C4F8E833D4F8C836A648984794EDFF7A24
:102C4800DFEDA57AB4EEE77AF1EE10FACCBFD4F84E
:102C5800F833D4F8F430C4F83031D4EDFD7A9FED70
:102C68009F7AD4EDD56A9E4B9E4867EE877A87EEA9
:102C7800A67A84ED0B7A226BC4F87023626BC4F8D1
:102C88007423A26BC4F87823D4F8D022C4F87C2328
:102C98001B69C4F88033D4F8BC36984794F8843359
:102CA800002B40F09A842378DBB2DFF860A223700F
:102CB80094ED067ADAED097AB4EE677AF1EE10FA55
:102CC80002D194F8843313B101238AF80030A26941
:102CD800CAF82420844BA26E1A601D46E26E45F89D
:102CE800042F1846A26C40F8082F1A46E16C42F8E7
:102CF8000C1F9AF8001000293DF4ACACDAF8081063
:102D08001C6801F10A030AEB83031C60DAF8083037
:102D1800296803F20A430AEB83031960DAF80830DA
:102D28000168FFF788B9A36EC4F89432E36EC4F85B
:102D38009832D4F8F032C4F89C32D4F8F432C4F89B
:102D4800A032D4F8C4366948984794EDFF7ADFED8D
:102D5800687A684BB4EEE77AF1EE10FAD8BF1A78C1
:102D6800DFED657AD4BFD2B201221A7094EDFF7AF2
:102D7800B4EEE77AF1EE10FA56BF1A780022D2B212
:102D88001A701B78002B3FF451AFD4F8F430C4F814
:102D9800E833D4F8C832C4F830314E48D4F8C836CD
:102DA80098475AE7A36EC4F89432E36EC4F8983291
:102DB800D4F8F032C4F89C32D4F8F432C4F8A03213
:102DC800D4F8C43649489847D4F8C832DFE74B4EA0
:102DD80094ED495A96ED007AD4ED4A6AD4EDCC3A8E
:102DE800B4EE475AF7EE087AF1EE10FA66EEA77AD3
:102DF80041F0DA85424BDFF8189193ED007AD4ED73
:102E0800486AD4ED484AF5EE005A67EE255A76EE40
:102E1800C56A85EEA74AB4EEE45A87EE846AF1EEF5
:102E280010FAB6EE004A26EE046AF0EEE66A01F3FE
:102E38003E85D4ED484AB4EEE45AF1EE10FA01F1B9
:102E48003685D9ED007A94ED487AB4EEC75AF0EE9B
:102E5800E77AF1EE10FA67EEA37A05DD94ED487A89
:102E680037EE877A84ED487A94ED487AB4EEC75AFB
:102E7800F1EE10FA05D594ED487A77EE677AC4ED4D
:102E8800487AD4ED485ADFED1F6A94EDCC7AD4ED38
:102E98004C7A86ED005A27EE267A9FED1B6AE5EEFE
:102EA800877AC4ED4C7AD4ED4C7AF4EEC67AF1EE1A
:102EB80010FA41F12684D4ED4C7A77EEA66AC4ED77
:102EC8004C6AD4ED487A9FED0F7A67EE877AC4EDA5
:102ED800FD7AC2E6E803002000004842EBC9184129
:102EE800704800205C030020604800209402002005
:102EF8000080A243F807002000808943FC070020D7
:102F080068070020DB0FC940DB0F49C028080020F4
:102F180060070020D4F8F430C4F8E833D4F8C83691
:102F2800D448984794EDFF7ADFEDD37AB4EEE77A88
:102F3800F1EE10FACCBFD4F8F833D4F8F430C4F872
:102F48003031D4EDFD7A9FEDCD7AD4EDD56ACC4BF6
:102F5800CC4867EE877A87EEA67A84ED0B7A226BE7
:102F6800C4F87023626BC4F87423A26BC4F8782386
:102F7800D4F8D022C4F87C231B69C4F88033D4F871
:102F8800BC36984794F88433002B40F03E8723786A
:102F9800DBB2DFF818A3237094ED087ADAED097A2A
:102FA800B4EE677AF1EE10FA02D194F8843313B1D3
:102FB80001238AF80030226ACAF82420B24B6A69D1
:102FC8001A601846EA6940F8042F1946D4F8F8231D
:102FD80041F8082F1A46D4F8C84242F80C4F9AF81C
:102FE8000040002C3DF436ABFFF712B8D4ED496A27
:102FF80096ED007A94ED4A6AD4EDCC3AF4EE476A3D
:10300800F7EE087AF1EE10FA66EE277A41F0DA84E4
:1030180098ED007A94ED486AD4ED484AB5EE005A26
:1030280027EE055A36EE666A85EE274AF4EEE46A1C
:10303800C7EE845AF1EE10FAB6EE004A65EE845AED
:10304800B0EEC66A01F36E84D4ED484AF4EEE46A41
:10305800F1EE10FA01F16684D9ED007A94ED487A20
:10306800F4EEC76AF0EEE77AF1EE10FA67EEA37AAB
:1030780005DD94ED487A37EE877A84ED487A94ED49
:10308800487AF4EEC76AF1EE10FA05D594ED487A5D
:1030980077EE677AC4ED487A94ED485A9FED7B6ADB
:1030A80094EDCC7AD4ED4C7ADFED795AC6ED006A0E
:1030B80027EE067AE5EE077AC4ED4C7AD4ED4C7A21
:1030C800F4EEE57AF1EE10FA41F18784D4ED4C7A0A
:1030D80037EE866A84ED4C6AD4ED487A9FED6B7AB8
:1030E80067EE877AC4EDFD7A2BE7A36EC4F89432B5
:1030F800E36EC4F89832D4F8F032C4F89C32D4F8AD
:10310800F432C4F8A032D4F8C4366248984794ED33
:10311800FF7ADFED617A614BB4EEE77AF1EE10FAEF
:10312800D8BF1A78DFED5E7AD4BFD2B201221A7006
:1031380094EDFF7AB4EEE77AF1EE10FA56BF1A78FA
:103148000022D2B21A701B78002B3FF4E3AED4F8F9
:10315800F430C4F8E833D4F8C832C4F830314548FC
:10316800D4F8C8369847ECE6A36EC4F89432E36EF8
:10317800C4F89832D4F8F032C4F89C32D4F8F43257
:10318800C4F8A032D4F8C43642489847D4F8C832B4
:10319800DFE7444E94ED495AD6ED007A94ED4A7A29
:1031A800D4EDCC4AB4EE675AF7EE086AF1EE10FA9D
:1031B80027EE267A41F08B843B4BDFF8F490D3ED71
:1031C800007AD4ED486A94ED484AF5EE005A67EE65
:1031D800A55A76EEC56AC5EE873AB4EEC45A87EEAC
:1031E800236AF1EE10FAF6EE003A26EE236AF0EEC4
:1031F800E66A06DC94ED484AB4EEC45AF1EE10FAD9
:1032080025D5B6EE084A67EE847AF4EEE76AF1EE61
:1032180010FA41F38784D9ED007AB4EEE77AF1EE3B
:1032280010FA24EE866A05DDD9ED007A76EE277A63
:10323800C9ED007AD9ED007AB4EEE77AF1EE10FA2A
:1032480005D5D9ED007A37EEC66A89ED006A94EDA6
:10325800487AD9ED007AB4EEC75AF0EEE77AF1EE83
:1032680010FA67EEA47A7FF7FFADF7E50623FEF7BD
:10327800AFBE00BFE803002000004842EBC9184178
:10328800704800205C03002060480020DB0FC94024
:10329800DB0F49C0940200200080A243F8070020F9
:1032A80000808943FC0700206807002028080020C8
:1032B80060070020D04D9FEDD17A2B6801332B6039
:1032C800D4EDCB7A2B6867EE877AFCEEE77A17EEB7
:1032D800902A9A423EF6AEAAD4ED4C7ADFEDC86A3F
:1032E8009FEDC87A77EEA67AC4ED4C7AD4ED4C7A85
:1032F800F4EEC77AF1EE10FA40F15A86D4ED4C7A22
:103308009FEDC17A77EE877AC4ED4C7A00232B6063
:1033180094F8CD35DFF828A30133DBB2012284F815
:10332800CD358AF80020FEF787BAD4EDC77A9FED2D
:10333800B77AB749DFEDB76AAF4B019167EE877A85
:103348000022C4ED057AC4F8302191ED007A94ED9D
:10335800696AD1ED007A37EE467AE7EE667AC1ED12
:10336800007A1A6801321A60D4EDCB7A1A6877EEBF
:10337800A77AFCEEE77A17EE901A91423EF656AA23
:1033880000220521A1701A6084F8CD25FEF74EBAF7
:103398009FED9C8A9FEDA09ADFED9B8A06E077EE71
:1033A800A87AC3ED017A0136062E28D006F110025C
:1033B80006F1160305EB830305EB820292ED010A81
:1033C800D3ED010A01F034FC06F11C0305EB83037D
:1033D80083ED010AD3ED017AF4EEC87AF1EE10FA22
:1033E800D3ED017ADBD4F4EEC97AF1EE10FADADD26
:1033F800D3ED017A77EEE87AC3ED017AD3E70023BB
:103408007D4A63610021C4F87831A361C4F824318E
:10341800C4F8203104231160A370FEF7EEBBD4ED8D
:10342800CB7A754DFCEEE77A2B6817EE902A9A4214
:1034380007D92B68002201332B60C4F82421C4F873
:103448002021D4EDCB7A2B68FCEEE77A17EE902A90
:103458009A420BD8D4EDC97A9FED707ADFED6A6A8B
:1034680067EE877A87EEA67A84ED497A94ED487AF2
:10347800DFED6B6AD4ED497A67EEA67AB4EEE77AA7
:10348800F1EE10FA44DD2B6801332B602379002B11
:1034980001F07481D4EDCB7A2B68B0EE087A67EE30
:1034A800877AFCEEE77A17EE902A9A4230D8237989
:1034B80003F0FF0263BBD4EDD47ADFED5A6A94EDD2
:1034C800D57ADFED595A9FED596A67EEA67AF6EE7E
:1034D800006A67EE877A002385EEA77A012184EDDA
:1034E800A97A94EDA97AD4EDA97A27EE277AC6EEBF
:1034F800077A67EEA67AC4EDB37AD4F82401C4F843
:1035080028016069E061C4F82431636121712A608F
:103518002379012B7EF479AB0023002244492A60E9
:10352800C4F820316361C4F82431C4F82811D4EDFB
:10353800C97A9FED407A404967EE877A0223C4ED45
:10354800087AA16262710721032284F81B3384F888
:103558001933A1702270FEF758BB019B99ED007AD0
:10356800D3ED007AD4ED056A94F8CD3537EE677A55
:1035780003F58773C7EE267A04EB8303F1EE677AC7
:10358800C3ED017A94F8CD35622B7EF63AAB002371
:10359800C4F87831C4F8203194EDC77A274B9FEDF1
:1035A8001F6ADFED196A14492148F5EE007A27EE03
:1035B800277A062284ED057AE361D4EDC97A67EEAD
:1035C800867A002387EEA67A84ED497AC4F8280122
:1035D80023710B60A270FEF714BB0623FFF765BBCF
:1035E8006B78002B7EF473AAAB78012B7EF46FAA5C
:1035F8000323EB70FEF794BA64070020CDCC4C3D52
:10360800FDAD803DDB0F49C0DB0FC940CDCC4C3E42
:10361800D00500200AD7A33BDB0F4940CDCCCC3DD9
:103628003333733FEF1F2E410000704200007A448D
:10363800000020419A99993E000096430000A0415D
:1036480028080020B6EE085A27EE057AF4EEC76A75
:10365800F1EE10FA40F3068499ED007AF4EEC77A99
:10366800F1EE10FA23EE866A05DD99ED007A36EE62
:10367800077A89ED007A99ED007AF4EEC77AF1EECF
:1036880010FAD9ED007A7DF515AF37EEC66A89EDE7
:10369800006AFDF70DBF6B78002B7EF41CAAAB788F
:1036A800002B7EF418AA0423EB70FEF739BAD4ED88
:1036B8000C7A94ED0E7A854B77EEC77A1A46C4EDEC
:1036C8001D7A616F42F80C1B1946D4F8D00241F8F4
:1036D800100FD2ED006A93ED007AD3ED027A37EE3F
:1036E800677AD3ED027AE6EE877AA3F10805002619
:1036F800183343ED047AD3ED016A91ED007AD3EDE6
:10370800007A37EE677AD3ED007AE6EE877AC3ED72
:10371800007A2E601B68C4F8D03294ED517AD4ED4B
:10372800527A94EDCC6AD4ED506AB4EEE67AF1EEB2
:1037380010FA67EE867A05DDD4ED506A77EEA66A50
:10374800C4ED506AD4ED506AB4EEE67AF1EE10FAA0
:1037580005D594ED507A77EE677AC4ED507A94EDFA
:10376800507AF7EE007AB4EEE77AF1EE10FA0ADC56
:1037780094ED507AFFEE007AB4EEE77AF1EE10FAA3
:1037880058BFD4ED507AC4ED507A94ED500A504B9E
:1037980094ED501A1B68D4ED4D1ADFED4E0AB1EEC8
:1037A800411A9847A26EC4F87023E26EC4F87423D5
:1037B800D4F8D022484BC4F87C231B69C4F8803362
:1037C800D4F8BC364548984794F88433002B40F029
:1037D8006D832378DBB2DFF80CA1237094ED067AB1
:1037E800DAED097AB4EE677AF1EE10FA02D194F8BC
:1037F800843313B101238AF80030A269CAF824205F
:10380800374BD4F8E8211A601D46626F45F8042F3B
:103818001846226B40F8082F1A46A16B42F80C1F75
:103828009AF8001000293CF415AFFFF767BA94ED39
:10383800497AD4ED4A7A94EDCC6AD4ED486AB4EE6C
:10384800E67AF1EE10FA67EE867A05DDD4ED486A7D
:1038580077EEA66AC4ED486AD4ED486AB4EEE67A13
:10386800F1EE10FA7EF573AA94ED487A77EE677A4E
:10387800C4ED487AFEF76BBA6B78012B7EF450A939
:10388800AB78002B7EF44CA90523EB70FEF748B902
:10389800A378012B00F0A485EB78163305EB83039E
:1038A8005A68EB78163305EB83035A60A378022B2A
:1038B80000F09285EB78103305EB83035A68EB78B8
:1038C800103305EB83035A60FEF767B90C06002036
:1038D8002008002000000000704800205C03002041
:1038E8006048002028080020F54DD4F85C31EB61D1
:1038F800D4F860312B62D4F864316B6295ED127A9A
:10390800D5ED077ADFEDEF5A9FEDEF6ADFEDEF6A4D
:10391800EF4A27EE277A40F6BC5085ED037A95EDFD
:10392800127AD5ED087A27EE277A44F6BC5185ED50
:10393800047A95ED127AD5ED097A27EE277A40F6C2
:10394800BC5685ED057AD5ED037A95ED045A95EDCB
:10395800057A77EE857A77EE877A67EEA57AC5EDF0
:10396800067A95ED037AD5ED067A37EE677A85ED16
:10397800007A95ED047AD5ED067A37EE677A85ED0B
:10398800017A95ED057AD5ED067A37EE677A85EDF9
:10399800027A2B68AB6395ED007AD5ED017A67EE74
:1039A800867AE7EE267AB7EE087AC5ED0F7AD5ED76
:1039B800197AFEEEC47A17EE903A83FB02894FEA31
:1039C800186242EA092202F580025212A2F5005357
:1039D80043F30D0303FB03F31B1300FB03F0A1EBFD
:1039E800A03103FB01F31B14C3F5805351044FEAC4
:1039F800033348BF5B4207EE903AFAEEC47AB44804
:103A0800C5ED1B7AD5ED197AFEEEC47A17EE903A19
:103A180083FB0001020E42EA01225212A2F5005372
:103A280043F30D0303FB03F31B1306FB03F044F6F8
:103A3800BC51A1EBA03103FB01F31B14C3F5805368
:103A48001B03520448BF5B4207EE903AFAEEC47A71
:103A58000023C5ED1C7A95ED0E6AD5ED1B6AD5EDF0
:103A68000F7AD5ED1C5A67EEA57AE6EE267AC5EDF3
:103A7800107A95ED0E6AD5ED1C6AD5ED0F7AD5ED65
:103A88001B5A67EEA57AE6EE667AC5ED117AD5ED92
:103A9800107A95ED0C5AD5ED205A95ED226AD5EDA0
:103AA800136AE5EE657AE6EE267AC5ED257AD5ED58
:103AB800117A95ED0D5AD5ED205A95ED216AD5ED7F
:103AC800136AE5EE657AE6EE667AC5ED267AD5EDF7
:103AD800217A95ED256AD5ED276AE6EE267AC5EDB9
:103AE800237AD5ED227A95ED266AD5ED276AE6EE9A
:103AF800267AC5ED247AD5ED237A95ED296AD5ED98
:103B08002A6A77EEC67A67EEA67AC5ED0C7AD5ED05
:103B1800247AD5ED2B6A67EEA67AC5ED0D7AD5ED38
:103B2800216A95ED286AD5ED255AD5ED107AD5ED9F
:103B38000C3A95ED204AD5ED224A95ED135AE3EE5D
:103B4800C47AE4EE857A77EEA57AE6EE276AC5EDC3
:103B5800216AD5ED226A95ED286AD5ED265AD5ED6C
:103B6800117AD5ED0D3A95ED204AD5ED214A95ED1E
:103B7800135AE3EEC47AE4EEC57A77EEA57AE6EE58
:103B8800276AC5ED226AD5ED217A95ED296AD5ED2A
:103B98002A6A77EEC67A67EEA67AC5ED0C7AD5ED75
:103BA800227AD5ED2B6A67EEA67AC5ED0D7A95EDEA
:103BB8000C6AD5ED1B6AD5ED0D5AD5ED1C7A67EE6A
:103BC800E57AE6EE267AC5ED0A7A95ED0C6AD5ED2A
:103BD8001C6AD5ED0D7AD5ED1B5A67EEA57AE6EE8F
:103BE800267AC5ED0B7AD5ED186AD5ED215A95EDF3
:103BF8000D6A95ED225AD5ED0C7A67EEC57A26EE58
:103C0800877AE5EE867A67EE877AC5ED157AC5F884
:103C1800C430D5ED137AF5EEC07AF1EE10FA07DD6F
:103C2800D5ED307A95ED177A77EE877AC5ED317A4A
:103C3800D5ED137AF5EEC07AF1EE10FA09D5D5ED87
:103C4800307A95ED177AF1EE677A77EEC77AC5ED97
:103C5800317A95ED275AD5ED165AD5ED156A95EDB9
:103C6800316AD5ED137A85EE257A76EEC66AF0EEDE
:103C7800E77A27EE267AF0EEC76AF4EEE76AF1EE05
:103C880010FA10DDD5ED157AD5ED306AF0EEE77A49
:103C9800F4EEE67AF1EE10FA05D5DFED0E7AB0EE25
:103CA800677AC5ED137AD5ED136ADFED0B5ADFEDB0
:103CB8000B7A9FED0B6A36EE877AFEEE006A17E004
:103CC8009C480020AAAAAA3E3ACD933F3ACD133F7A
:103CD80060BE280000000000EBC91841D7B35D3F63
:103CE800DA0F4940DA0FC9C0DA0F49C0DA0FC94004
:103CF80085ED137A95ED137A27EE257A85ED147AFA
:103D080095ED137AD5ED155A27EE257A85ED2F7A9C
:103D1800AB6AC5F8B030D5ED0A5A95ED0B7A27EEA7
:103D2800277AA5EEA67A85ED2D7A95ED0A7AD5ED56
:103D38000B5A67EEE57AE7EE267AC5ED2E7AD5EDD1
:103D48001A7AD5ED276A95ED137AE6EE877AC5EDEE
:103D58001A7AD5ED1A7AF4EEC67AF1EE10FA07DD82
:103D680095ED1A7A5FED217A77EEC77AC5ED1A7A62
:103D780095ED1A7A5FED247AB4EEE77AF1EE10FA4F
:103D880007D5D5ED1A7A1FED277A77EE877AC5ED34
:103D98001A7AD5ED1A7AD5ED186A1FED2F7A67EEE3
:103DA800A67AC5ED197AD5ED197AF4EEC77AF1EE4F
:103DB80010FA07DD95ED197A5FED367A77EEC77A56
:103DC800C5ED197A95ED197A5FED397AB4EEE77A8F
:103DD800F1EE10FA7EF502A9D5ED197A1FED3D7ABC
:103DE80077EE877AC5ED197AFEF7F8B834EE477A98
:103DF800DFF8D483DFF8D4930023B0EEC77A88EDD8
:103E0800007AC9F80030FDF731BB0623FFF7C1B8C7
:103E1800E378012B0CBFD4F84431D4F84031C4F80E
:103E280040310023E370C4F8FC30D4ED507AF5EE4D
:103E3800C07AF1EE10FA4CBF01221A4684F8AC237E
:103E480094F8AC23012A00F0888494F8AD33002B51
:103E580000F01A8594F8AD33013BDBB284F8AD333A
:103E6800FCF77CBBF4EEE65AF1EE10FA40F3EF8271
:103E7800D9ED007AF5EEC07AF1EE10FA23EE866AF3
:103E880005D5D9ED007A76EE277AC9ED007AD9ED15
:103E9800007AF5EEC07AF1EE10FAD9ED007A3FF724
:103EA800F4ABFDF707BB0623FCF793BB062392E4AC
:103EB800A5F5E673A2691A60D4F8CC36A5F5FA70B0
:103EC8009847A5F5E4731A68C4F87821A5F5E27354
:103ED8001B68C4F8BC31FDF792BBB64DD4F830313D
:103EE8002B60D4F8E831A5F5D27045F8083DD4F830
:103EF800D0369847FDF78ABAA8F5E673A2691A6022
:103F0800D4F8CC36A8F5FA709847A8F5E4731A687F
:103F1800C4F87821A8F5E2731B68C4F8BC31FDF732
:103F28006FBAA44DD4F830312B60D4F8E831A5F538
:103F3800D27045F8083DD4F8D0369847FDF765BBF0
:103F4800D4F83021FDF720BED4F83021FDF70EBE9D
:103F58006B78002B7EF475ACAB78012B7EF471ACDA
:103F68000323EB70FEF775BC6B78002B7EF4ECAD89
:103F7800AB78012B7EF4E8AD0323EB70FEF7ECBDC4
:103F88006B78002B7EF461ACAB78002B7EF45DACD3
:103F98000423EB70FEF75DBC6B78002B7EF4D8AD84
:103FA800AB78002B7EF4D4AD0423EB70FEF7D4BDC0
:103FB80094ED4C7ADFED807AB4EEE77AF1EE10FA00
:103FC8007FF7A4A9D4ED4C7A9FED7C7A77EEC77A77
:103FD800C4ED4C7AFFF79AB994ED307A67EE877A98
:103FE800C4ED037AFEF706B9D4ED146A94ED1C7A91
:103FF8009FED785AC6EE877AC4ED3B7AD4EDCC5A59
:10400800D4EDCC6A94ED2C7A94ED3B6AD4ED2C7AFD
:1040180076EE856A37EE467A85EEA66AE6EE477A48
:10402800C4ED2C7AD4F80031D4EDCB7AFCEEE77AE3
:1040380017EE902A934220D300230222C4F8785125
:10404800C4F80031C4F86451C4F86051C4F85C5134
:1040580062709BED007ADFED5A7AB4EEE77AF1EE02
:1040680010FA0AD507200121564A84F85C0384F81F
:104078008413C4F8B020C4F80031DFF854A1012338
:104088008AF80030FDF77DBF94EDCC4ADFED515A38
:1040980094EDCC6A94ED347AD4ED156AD4ED347A83
:1040A8009FED4D5A36EE256AF0EEE66AC4EE064AF2
:1040B80037EE667AE4EEC77AC4ED347AD4EDCC4AAA
:1040C80094EDCC6A94ED367AD4ED1D6AD4ED367A47
:1040D80036EE256AF0EEE66AC4EE865A37EE667A60
:1040E800E5EEC77AC4ED367AD4F8003194EDCA7A91
:1040F800D4EDD67A27EE057AF8EE677A67EE277A56
:10410800FCEEE77A17EE902A93421DD394ED347AA9
:10411800D4ED387AB4EEE77AF1EE10FACCBFD4F8E1
:10412800D030D4F8E030C4F8E03094ED367AD4EDED
:10413800397AB4EEE77AF1EE10FACCBFD4F8D83079
:10414800D4F8E430C4F8E430DFF884A001238AF816
:104158000030D4ED386A94ED397AC6EE877AC4ED2A
:10416800307A94ED307AD4ED307AD4ED2C6A94ED2F
:104178002C0A20EE660AA7EE270AB5EE400AF1EEF1
:1041880010FAB1EEC08A00F1398584ED318AD4ED98
:10419800316A9FED0A7AD4ED487A67EE877A86EE1F
:1041A800A77A84ED2D7AD4F8B430C4F8BC30FDF782
:1041B800E8BF00BFE0050020DB0F4940DB0FC94026
:1041C800CDCCCC3D000080BF6807002060070020F0
:1041D80028080020CDCC4C3D3333B33FD4EDCC4A36
:1041E8005FED045A94EDCC6A94ED347AD4ED146AF8
:1041F800D4ED347A36EE256AF0EEE66A84EE865A15
:1042080037EE667AE5EE477AC4ED347A94EDCC5A07
:1042180094EDCC6A94ED367AD4ED1C6AD4ED367AF6
:1042280036EE256AF0EEE66AC5EE065A37EE667A8D
:104238005FED176AE5EEC77AC4ED367A94ED347A05
:10424800D4ED347AB4EE677AF1EE10FA0CBFD4F8F4
:10425800D0300023C4F8D03094ED367AD4ED367AD5
:10426800B4EE677AF1EE10FA0CBFD4F8D830002318
:10427800C4F8D830D4F8003194EDCA7AD4EDD67A9F
:1042880027EE267AF8EE677A67EE277AFCEEE77A69
:1042980017EE902A93421DD394ED347AD4ED387AF0
:1042A800B4EEE77AF1EE10FACCBFD4F8D030D4F8F7
:1042B800E030C4F8E03094ED367AD4ED397AB4EED3
:1042C800E77AF1EE10FACCBFD4F8D830D4F8E4305D
:1042D800C4F8E430DFF8B8A201238AF80030D4ED3E
:1042E800386A94ED397AC6EE877AC4ED307A94ED5F
:1042F800307AD4ED307AD4ED2C6A94ED2C0A20EE85
:10430800660AA7EE270AB5EE400AF1EE10FAB1EEFA
:10431800C08A00F1778484ED318AD4ED316A9FED4B
:10432800977AD4ED487A67EE877A86EEA77A84ED95
:104338002D7AD4F8B430C4F8B83094ED2E7AD4ED90
:104348002E7AB4EE677AF1EE10FA0CBFD4F8B830D2
:104358000023C4F8B830FDF7DEBF6B78012B7EF47C
:10436800FBABAB78002B7EF4F7AB0523EB70FEF7C5
:10437800F3BB6B78012B7EF46CAAAB78002B7EF430
:1043880068AA0523EB70FEF764BAA37A012B7DF4C3
:1043980037A894EDFF7AD4ED287AB4EEE77AF1EEF7
:1043A80010FA4CBFD4F8BC31D4F87831C4F878315D
:1043B80094EDFF7AD4ED287AF7EE086A67EEA67ACC
:1043C800B4EEE77AF1EE10FAD4BFD4F878310023CE
:1043D800C4F87831FDF714B8D4F83021FFF76FBA74
:1043E800D4F83021FFF75DBAA37A012B7DF407A931
:1043F80094EDFF7AD4ED287AB4EEE77AF1EE10FA6C
:104408004CBFD4F8BC31D4F87831C4F8783194ED85
:10441800FF7AD4ED287AF7EE086A67EEA67AB4EE4A
:10442800E77AF1EE10FAD4BFD4F878310023C4F853
:104438007831FDF7E4B86B78002B7CF4EEAEAB78FE
:10444800012B7CF4EAAE0323EB70FCF7EEBEC9ED5A
:10445800007AFDF72FB86B78002B7CF4E2AEAB78CE
:10446800002B7CF4DEAE0423EB70FCF7DEBE0026E6
:10447800434DB446B646092029692A692B69C1F318
:10448800C011C2F30022C3F3402301388E44944480
:104498001E44F1D1BEF1040FD4BF4FF0000E4FF00F
:1044A800010EBCF1040F374DD4BF4FF0000C4FF094
:1044B800010C042ED4BF0026012685F800E085F8FB
:1044C80001C0AE702B781BB96B78012B00F0788394
:1044D8002B781BB96B78012B00F07A832B782BB9DA
:1044E8006B781BB9AB78012B00F07D832B78012BFF
:1044F80000F03A832B78012B00F041832B78012BB5
:1045080000F04883EB781C3305EB83035B68EB61B1
:10451800EA782B799A4215D0EA782B799A4206D90B
:10452800EB78052B0ABF2B7B0023DBB22B73EA78D1
:104538002B799A4206D2EB78002B40F047832B7BED
:10454800DBB22B73EB78DFED107A9FED107ADBB2DC
:104558002B71EB69C4F8F430EB7806EE903AF8EE7C
:10456800666AE6EEA77A77EE677AC4ED4C7AEB785E
:10457800DBB284F8AD33FBF7D4BF00BFDB0FC94013
:10458800000400486C070020920A863FDB0F494070
:1045980028080020DA4E94ED495AD6ED007A94EDB9
:1045A8004A7AD4EDCC4AB4EE675AF7EE086AF1EECF
:1045B80010FA27EE267A40F03382D24BDFF8609368
:1045C800D3ED007AD4ED486A94ED484AF5EE005AE6
:1045D80067EEA55A76EEC56AC5EE873AB4EEC45AB8
:1045E80087EE236AF1EE10FAF6EE003A26EE236A19
:1045F800F0EEE66A06DC94ED484AB4EEC45AF1EEF1
:1046080010FA25D5B6EE084A67EE847AF4EEE76A22
:10461800F1EE10FA40F36982D9ED007AB4EEE77A48
:10462800F1EE10FA24EE866A05DDD9ED007A76EE11
:10463800277AC9ED007AD9ED007AB4EEE77AF1EE7F
:1046480010FA05D5D9ED007A37EEC66A89ED006A09
:1046580094ED487AD9ED007AB4EEC75AF0EEE77ACD
:10466800F1EE10FA67EEA47A05DD94ED487A37EE9C
:10467800877A84ED487A94ED487AB4EEC75AF1EE19
:1046880010FA05D594ED487A77EE677AC4ED487A42
:10469800D4ED485ADFED9C6A94EDCC7AD4ED4C7A8F
:1046A8009FED9A6A86ED005A27EE267AE5EE877A1C
:1046B800C4ED4C7AD4ED4C7AF4EEC67AF1EE10FAE9
:1046C80040F19D81D4ED4C7A77EEA66AC4ED4C6A30
:1046D800D4ED4C7A9FED8E7A77EE877AFCEEE77A06
:1046E800CDED017A9DF8043084F8AD3394F8AD33FC
:1046F800052B9BBF94F8AD3394F8AD330523DBB29B
:1047080037E794ED4C7ADFED827AB4EEE77AF1EE92
:1047180010FA7EF7D6ABD4ED4C7A77EEE66AC4EDA4
:104728004C6AFEF7CEBBAB78002B7EF4FBA9E87091
:10473800FEF712BA6B78012B7CF477ADAB78002BBF
:104748007CF473AD0523EB70FCF76FBDAB78002BE1
:104758007EF465A8E870FEF77CB894F8AD23042AC7
:104768003FF67CAB94F8AD330133DBB2FFF776BB91
:104778000123FEF710BA0123FEF78AB894EDBE7A3A
:10478800DBED005A94EDD16ADFED626AD4EDB47ABC
:10479800A5EEC67A67EEA67A87EE276A84EDC46A24
:1047A80094EDBF7AD8ED005A94EDD16AD4EDB47A7D
:1047B800A5EEC67A67EEA67AC7EE276AC4EDC36A85
:1047C80094EDC47AD4EDC47A94EDC30AD4EDC36AE7
:1047D80020EE260AA7EE270AB5EE400AF1EE10FAF7
:1047E800B1EEC08A00F11A8284ED508AD4ED487A7D
:1047F800DFED456A9FED487A9FED485A67EEA67A45
:10480800F6EE006AC4EDFD7AD4EDFD7A94EDD56A32
:1048180067EE877A87EE867A84ED0B7A94ED0B6AD9
:1048280094ED507AD4EDB45AD4EDD57A27EE257AA2
:1048380067EEA67AC6EE076A86EEA77A8DED057A48
:10484800D4EDCC5AD4EDCC6A94EDD47A9DED056ABA
:10485800D4EDD47A76EE856A37EE467A85EEA66A86
:10486800E6EE477AC4EDD47A94EDD47AD4EDD47ACE
:10487800B4EE677AF1EE10FA0CBFD4F85033002387
:10488800C4F85033FEF706BE0523FFF7E7BAAB7846
:10489800DBB2012B7DF4C9AFEB70FDF7DABFAB7863
:1048A800DBB2012B7EF444A9EB70FEF755B9F6EEA6
:1048B800084A27EE247AF4EEC76AF1EE10FA40F3BC
:1048C800DD8099ED007AF4EEC77AF1EE10FA23EE66
:1048D800866A05DD99ED007A36EE077A89ED007A69
:1048E80099ED007AF4EEC77AF1EE10FAD9ED007A74
:1048F8007EF5A9AA37EEC66A89ED006AFEF7A1BA65
:10490800FC07002068070020DB0FC940DB0F49C007
:10491800DB0F49403ACD933FEBC91841CDCCCC3D94
:1049280060070020F6EE084A27EE247AB4EEC76A3C
:10493800F1EE10FA40F3818099ED007AF4EEC77A2F
:10494800F1EE10FA63EEA55A05DD99ED007A35EE21
:10495800877A89ED007A99ED007AF4EEC77AF1EE5C
:1049680010FAD9ED007A7EF579AB77EEE55AC9ED04
:10497800005AFEF771BBAB78002B7CF43CACEE70B0
:10498800FCF753BC0123FCF76FBC032100226170C4
:1049980000236272FDF7D9BCAB78DBB2012B7CF443
:1049A80030ACEB70FCF741BC35EE477A9D4ADFF836
:1049B8007C920023B0EEC77A82ED007AC9F8003005
:1049C800FEF71DBA36EEC77A0023B0EEC77A88ED37
:1049D800007AC9F80030FEF71DBB94ED4C7ADFED84
:1049E800927AB4EEE77AF1EE10FA7EF775ABD4ED71
:1049F8004C7A37EEC66A84ED4C6AFEF76DBB94EDCF
:104A08004C7ADFED897AB4EEE77AF1EE10FA7FF7A7
:104A18005FAED4ED4C7A77EEE66AC4ED4C6A57E6A1
:104A280075EE677A7F4ADFF804920023F0EEE77AA2
:104A3800C2ED007AC9F80030C4E5B4EEC65AF1EE0A
:104A480010FA40F3B280D9ED007AF5EEC07AF1EEB3
:104A580010FA63EEA55A05D5D9ED007A75EEA77A56
:104A6800C9ED007AD9ED007AF5EEC07AF1EE10FAC8
:104A7800D9ED007A3FF779AFFEF7F0BAF4EEE65ACF
:104A8800F1EE10FA40F39580D9ED007AF5EEC07A90
:104A9800F1EE10FA23EE866A05D5D9ED007A76EEA6
:104AA800277AC9ED007AD9ED007AF5EEC07AF1EEF1
:104AB80010FAD9ED007A3FF71DAFFEF7C4B902230B
:104AC800EB70FDF7C6BE0223EB70FEF745B875EE36
:104AD800677A544ADFF854910023F0EEE77AC2ED82
:104AE800007AC9F80030FEF76CBBF4EEE65AF1EE36
:104AF80010FA62DDD9ED007AF5EEC07AF1EE10FA1F
:104B080024EE866A05D5D9ED007A76EE277AC9EDC6
:104B1800007AD9ED007AF5EEC07AF1EE10FA7FF757
:104B280097AD8FE5F4EEE65AF1EE10FA57DDD9EDC0
:104B3800007AF5EEC07AF1EE10FA24EE866A05D511
:104B4800D9ED007A76EE277AC9ED007AD9ED007AA8
:104B5800F5EEC07AF1EE10FA7EF779ABFEF771BB8D
:104B68000223EB70FCF761BB6B78002B7FF4C2ACBF
:104B7800AB78012B7FF4BEAC0323EB70C2E46B78F7
:104B8800002B7FF4BBACAB78002B7FF4B7AC0423CD
:104B9800EB70B7E46B78012B7FF4B4ACAB78002BE7
:104BA8007FF4B0AC0523EB70ACE4C9ED007AFEF7F6
:104BB80055BAC9ED007AFEF746B989ED007A47E59E
:104BC800AB78002B7FF484ACE8709BE40123B8E455
:104BD800AB78DBB2012B7FF481ACEB7092E489ED0A
:104BE800007AFEF734BB0223EB708BE400F024F864
:104BF800FCF7F0BE00F020F8FDF719BF00F01CF834
:104C0800FFF7C3BA00F018F8FFF785BB00F014F8F7
:104C1800FCF771BA00F010F8FDF781BD00F00CF850
:104C2800E2E500BF68070020DB0F4940600700206D
:104C38005FF800F045B200085FF800F0D1B5000851
:104C48005FF800F0C1B300085FF800F025B0000875
:104C580081F0004102E000BF83F0004330B54FEA25
:104C680041044FEA430594EA050F08BF90EA020F92
:104C78001FBF54EA000C55EA020C7FEA645C7FEA25
:104C8800655C00F0E2804FEA5454D4EB5555B8BF48
:104C98006D420CDD2C4480EA020281EA030382EAB9
:104CA800000083EA010180EA020281EA0303362D4B
:104CB80088BF30BD11F0004F4FEA01314FF4801C1E
:104CC8004CEA113102D0404261EB410113F0004F30
:104CD8004FEA03334CEA133302D0524263EB4303E7
:104CE80094EA050F00F0A780A4F10104D5F1200E85
:104CF8000DDB02FA0EFC22FA05F2801841F10001E0
:104D080003FA0EF2801843FA05F359410EE0A5F1B3
:104D180020050EF1200E012A03FA0EFC28BF4CF0E4
:104D2800020C43FA05F3C01851EBE37101F000459A
:104D380007D54FF0000EDCF1000C7EEB00006EEBA7
:104D48000101B1F5801F1BD3B1F5001F0CD3490831
:104D58005FEA30004FEA3C0C04F101044FEA445288
:104D680012F5800F80F09A80BCF1004F08BF5FEA0F
:104D7800500C50F1000041EB045141EA050130BDEF
:104D88005FEA4C0C404141EB010111F4801FA4F192
:104D98000104E9D191F0000F04BF01460020B1FAE7
:104DA80081F308BF2033A3F10B03B3F120020CDA1F
:104DB8000C3208DD02F1140CC2F10C0201FA0CF0FD
:104DC80021FA02F10CE002F11402D8BFC2F1200C62
:104DD80001FA02F120FA0CFCDCBF41EA0C01904018
:104DE800E41AA2BF01EB0451294330BD6FEA040461
:104DF8001F3C1CDA0C340EDC04F11404C4F120024C
:104E080020FA04F001FA02F340EA030021FA04F35D
:104E180045EA030130BDC4F10C04C4F1200220FAB4
:104E280002F001FA04F340EA0300294630BD21FAF2
:104E380004F0294630BD94F0000F83F4801306BFB8
:104E480081F480110134013D4EE77FEA645C18BFAC
:104E58007FEA655C29D094EA050F08BF90EA020F43
:104E680005D054EA000C04BF1946104630BD91EA3B
:104E7800030F1EBF0021002030BD5FEA545C05D13E
:104E88004000494128BF41F0004130BD14F580047D
:104E98003CBF01F5801130BD01F0004545F0FE41F1
:104EA80041F470014FF0000030BD7FEA645C1ABF26
:104EB800194610467FEA655C1CBF0B46024650EA5D
:104EC800013406BF52EA033591EA030F41F4002189
:104ED80030BD00BF90F0000F04BF0021704730B50F
:104EE8004FF4806404F132044FF000054FF00001E4
:104EF80050E700BF90F0000F04BF0021704730B5A5
:104F08004FF4806404F1320410F0004548BF404279
:104F18004FF000013EE700BF42004FEAE2014FEACE
:104F280031014FEA02701FBF12F07F4393F07F4FA9
:104F380081F06051704732F07F4208BF704793F0AC
:104F48007F4F04BF41F40021704730B54FF46074BF
:104F580001F0004521F000411CE700BF50EA0102C2
:104F680008BF704730B54FF000050AE050EA01026B
:104F780008BF704730B511F0004502D5404261EBDB
:104F880041014FF4806404F132045FEA915C3FF41C
:104F9800D8AE4FF003025FEADC0C18BF03325FEAB9
:104FA800DC0C18BF033202EBDC02C2F1200300FA6A
:104FB80003FC20FA02F001FA03FE40EA0E0021FA8F
:104FC80002F11444BDE600BF70B54FF0FF0C4CF47D
:104FD800E06C1CEA11541DBF1CEA135594EA0C0F2F
:104FE80095EA0C0F00F0DEF82C4481EA030621EA6A
:104FF8004C5123EA4C5350EA013518BF52EA0335A5
:1050080041F4801143F4801338D0A0FB02CE4FF056
:105018000005E1FB02E506F00042E0FB03E54FF086
:105028000006E1FB03569CF0000F18BF4EF0010E7E
:10503800A4F1FF04B6F5007F64F5407404D25FEA7A
:105048004E0E6D4146EB060642EAC62141EA55512D
:105058004FEAC52040EA5E504FEACE2EB4F1FD0C6F
:1050680088BFBCF5E06F1ED8BEF1004F08BF5FEAED
:10507800500E50F1000041EB045170BD06F000469F
:1050880046EA010140EA020081EA0301B4EB5C044C
:10509800C2BFD4EB0C0541EA045170BD41F4801144
:1050A8004FF0000E013C00F3AB8014F1360FDEBF69
:1050B800002001F0004170BDC4F10004203C35DA45
:1050C8000C341BDC04F11404C4F1200500FA05F3C8
:1050D80020FA04F001FA05F240EA020001F0004269
:1050E80021F0004110EBD37021FA04F642EB0601DF
:1050F8005EEA430E08BF20EAD37070BDC4F10C0409
:10510800C4F1200500FA04F320FA05F001FA04F2CC
:1051180040EA020001F0004110EBD37041F10001B8
:105128005EEA430E08BF20EAD37070BDC4F12005C3
:1051380000FA05F24EEA020E20FA04F301FA05F22B
:1051480043EA020321FA04F001F0004121FA04F2D3
:1051580020EA020000EBD3705EEA430E08BF20EAA3
:10516800D37070BD94F0000F0FD101F000464000DD
:1051780041EB010111F4801F08BF013CF7D041EA5F
:10518800060195F0000F18BF704703F00046520063
:1051980043EB030313F4801F08BF013DF7D043EA34
:1051A8000603704794EA0C0F0CEA135518BF95EAEA
:1051B8000C0F0CD050EA410618BF52EA4306D1D171
:1051C80081EA030101F000414FF0000070BD50EA90
:1051D800410606BF1046194652EA430619D094EA1A
:1051E8000C0F02D150EA013613D195EA0C0F05D104
:1051F80052EA03361CBF104619460AD181EA030158
:1052080001F0004141F0FE4141F470014FF000000F
:1052180070BD41F0FE4141F4780170BD70B54FF0AA
:10522800FF0C4CF4E06C1CEA11541DBF1CEA13552A
:1052380094EA0C0F95EA0C0F00F0A7F8A4EB05040C
:1052480081EA030E52EA03354FEA013100F0888003
:105258004FEA03334FF0805545EA131343EA1263CC
:105268004FEA022245EA111545EA10654FEA002681
:105278000EF000419D4208BF964244F1FD0404F53A
:10528800407402D25B084FEA3202B61A65EB030596
:105298005B084FEA32024FF480104FF4002CB6EB53
:1052A800020E75EB030E22BFB61A754640EA0C00D3
:1052B8005B084FEA3202B6EB020E75EB030E22BF13
:1052C800B61A754640EA5C005B084FEA3202B6EB54
:1052D800020E75EB030E22BFB61A754640EA9C0013
:1052E8005B084FEA3202B6EB020E75EB030E22BFE3
:1052F800B61A754640EADC0055EA060E18D04FEAA1
:10530800051545EA16754FEA06164FEAC30343EA40
:1053180052734FEAC2025FEA1C1CC0D111F4801F0D
:105328000BD141EA00014FF000004FF0004CB6E706
:1053380011F4801F04BF01430020B4F1FD0C88BFA5
:10534800BCF5E06F3FF6AFAEB5EB030C04BFB6EBB0
:10535800020C5FEA500C50F1000041EB045170BDA3
:105368000EF0004E4EEA113114EB5C04C2BFD4EBD0
:105378000C0541EA045170BD41F480114FF0000E54
:10538800013C90E645EA060E8DE60CEA135594EAD0
:105398000C0F08BF95EA0C0F3FF43BAF94EA0C0FD3
:1053A8000AD150EA01347FF434AF95EA0C0F7FF448
:1053B80025AF104619462CE795EA0C0F06D152EA9C
:1053C80003353FF4FDAE1046194622E750EA410680
:1053D80018BF52EA43067FF4C5AE50EA41047FF491
:1053E8000DAF52EA43057FF4EBAE12E74FEA4102F4
:1053F800B2F1E04324BFB3F5001CDCF1FE5C0DD92B
:1054080001F0004C4FEAC0024CEA5070B2F1004F74
:1054180040EB830008BF20F00100704711F0804F77
:1054280021D113F13872BCBF01F00040704741F43C
:1054380080114FEA5252C2F11802C2F1200C10FA40
:105448000CF320FA02F018BF40F001004FEAC12324
:105458004FEAD32303FA0CFC40EA0C0023FA02F3C8
:105468004FEA4303CCE77FEA625307D150EA01339E
:105478001EBF4FF0FE4040F44000704701F000406E
:1054880040F0FE4040F40000704700BF0348044B62
:10549800834202D0034B03B11847704744070020EA
:1054A800440700200000000005480649091A891031
:1054B80001EBD171491002D0034B03B11847704773
:1054C80044070020440700200000000010B5064CE7
:1054D800237843B9FFF7DAFF044B13B10448AFF35D
:1054E80000800123237010BD440700200000000045
:1054F800A0BA000808B5054B1BB105490548AFF32C
:105508000080BDE80840FFF7CFBF00BF00000000E3
:1055180048070020A0BA000890ED027AD0ED006A92
:10552800D0ED017ADFED225AB7EE005A85EE076A10
:10553800B6EE007A67EE867A66EE866A67EEA57A38
:10554800F1EE665AB0EE676AA5EE876AD5EE877AFD
:10555800F4EEC66AF1EE10FAD4BFB0EE467AB0EEB9
:10556800667AB4EEE77AD4BFF0EE665AF0EE465AA1
:10557800F1EE10FA19D4F4EE675AF1EE10FAC8BF3A
:10558800F0EE675A37EE257AF6EE005AB1EE477A12
:10559800E7EE256AA7EE256AE7EE257AC0ED036AED
:1055A80080ED046AC0ED057A7047B0EE677AE9E7E6
:1055B800D7B35D3FD0ED007A90ED017A77EEC77AE8
:1055C800C0ED037AD0ED047A90ED037A67EE877A1E
:1055D800C0ED057AD0ED0D6A90ED037AD0ED067A2C
:1055E800E6EE877AC0ED067A90ED0F7AD0ED037A71
:1055F800D0ED106A77EEE67A67EE877AC0ED077A23
:1056080090ED097AD0ED057AD0ED076A77EEA67AA3
:10561800F0EEE77A77EE677AC0ED0C7A90ED067ACD
:10562800D0ED0C7AB4EEE77AF1EE10FA30DDD0ED79
:105638000C7AC0ED067AD0ED057A90ED066AD0EDC9
:10564800076A90ED027A77EE867A77EEA67A77EE99
:10565800877AC0ED087A90ED087AD0ED097AB4EE31
:10566800E77AF1EE10FA04DD436AC362C3680364A3
:10567800704790ED087AD0ED0A7AB4EEE77AF1EE49
:1056880010FA4CBF836A036AC362C3680364704735
:1056980090ED067AD0ED0C7AF1EE677AB4EEE77AFF
:1056A800F1EE10FA4ABFD0ED0C7AD0ED067AF1EEA1
:1056B800677ABEE7D0ED007A9FED2B7A67EE877A9E
:1056C800B0EE007AC0ED117AD0ED116AD0ED015A32
:1056D800D0ED027A90ED036AD5EE877A77EEC67A36
:1056E80067EEA67AC0ED057AD0ED116AD0ED025AC0
:1056F800D0ED017A90ED036AD5EE877A77EEC67A17
:1057080067EEA67AC0ED067AD0ED116AD0ED035A9D
:10571800D0ED027A90ED016AD5EE877A77EEC67AF7
:1057280067EEA67AC0ED077A037C5BB1D0ED057A07
:10573800F1EE677AC0ED057AD0ED067AF1EE677A78
:10574800C0ED067A43690362D0ED056A9FED076AEA
:10575800D0ED067A9FED067A67EE867AE6EE877ACE
:10576800C0ED097A704700BFAAAAAA3E3ACD933F76
:105778003ACD133F2DED028BD0ED066A90ED000A6D
:1057880090ED067AD0ED010AD0ED058A90ED008AF9
:1057980090ED051AD0ED011A90ED044AD0ED044AB7
:1057A800D0ED075A90ED076AD0ED097A90ED095AC5
:1057B80027EE207A66EE806A35EE475A77EEC77A8A
:1057C80075EEE65A36EE666A67EE857A3430E5EEAF
:1057D800867AD4EE247A40ED027A50ED0B5A90ED99
:1057E800012A10ED065A50ED022A50ED0A7A90ED82
:1057F800013A10ED046A10ED024A50ED013A50EDFD
:10580800064AE8EEC85A35EE665AE1EE617A25EEA8
:10581800025A36EE476AE5EE225A26EE036AE3EEAE
:10582800A54AE6EE047A40ED064A50ED015A10ED1D
:10583800046AA5EEA76A00ED046A10ED066A50ED49
:10584800067AB4EE676AF1EE10FA0CBF50F8183C0D
:10585800002340F8183C10ED046A50ED047AB4EEC9
:10586800676AF1EE10FA0CBF50F8103C002340F8BC
:10587800103C10ED060A054B50ED040A1B6830EE8B
:10588800660A70EEC70ABDEC028B184790480020E4
:1058980090ED047AD0ED047AB4EE677AF1EE10FA5E
:1058A80008BF03699FED407A18BF00230361D0ED5C
:1058B800007AD0ED046A77EEE67AC0ED027AD0ED90
:1058C800027AF4EEC77AF1EE10FA5BD5D0ED027ADF
:1058D8009FED367A77EE877AC0ED027A90ED037AFB
:1058E800D0ED037ADFED306AB4EE677AF1EE10FAA4
:1058F8000CBFC3680023C36090ED037A90ED025A91
:10590800D0ED065A90ED016AD0ED047AA5EE257A1D
:10591800E7EE067AC0ED047AD0ED047AF4EEE67A82
:10592800F1EE10FA1CD5D0ED047A9FED207A77EECF
:10593800877AC0ED047A90ED027A90ED076AD0ED8F
:10594800016AD0ED037A27EE067AE7EE267AC0EDF3
:10595800037AD0ED037AF0EEE77AC0ED057A704766
:1059680090ED047ADFED127AB4EEE77AF1EE10FAF0
:10597800E1DDD0ED047A9FED0D7A77EEC77AC0EDC0
:10598800047AD8E790ED027ADFED097AB4EEE77A87
:10599800F1EE10FAA2DDD0ED027A9FED047A77EEEF
:1059A800C77AC0ED027A99E7DB0F49C0DB0FC9401F
:1059B800DB0F4940D0ED697ADFED166A90ED6B7A1E
:1059C80077EEA67A82B067EE877AFCEEE77ACDEDBD
:1059D800017A9DF8043080F8913190F89031012BCC
:1059E80005D0DFED0D7AC0ED687A02B07047D0EDD2
:1059F800677A90F8913100EB8303D3ED006A90ED5C
:105A08006A7A67EEA67A67EE877AC0ED687A02B09E
:105A1800704700BFDB0F494000000000034AD2F87E
:105A2800983343F0F303C2F8983370470068014095
:105A3800034AD2F8943343F0F303C2F8943370471F
:105A48000068014030B41D4A82B08DED010A136828
:105A580003F00F03012B10D0194C1A4BA56A45F01F
:105A68000805A562A56A25F00805A5621468234003
:105A780043F4002343F0610313609DED017ADFEDE9
:105A8800127A0E4BDFED116A27EE277ABEEEE07A26
:105A980083ED017A93ED027AB8EEC77A27EE267A7B
:105AA80080ED007AD3ED027AF8EEE77A67EEA67A0F
:105AB800C1ED007A02B030BC704700BF000C024054
:105AC8000010024000F887FF83F9A23E0000003072
