:020000040800F2
:100000000000022085BF000895A9000899A90008F2
:100010009DA90008A1A90008A5A9000800000000EA
:10002000000000000000000000000000A9A9000876
:10003000ADA9000800000000B1A90008B5A900089A
:10004000F9BF0008F9BF0008F9BF0008F9BF0008B0
:10005000F9BF0008F9BF0008F9BF0008F9BF0008A0
:10006000F9BF0008F9BF0008F9BF0008F9BF000890
:10007000F9BF0008F9BF0008F9BF0008F9BF000880
:10008000E9A90008F9BF000801000010F9BF000845
:10009000F9BF000819AA0008F9BF0008B9A90008AB
:1000A000F9BF0008F9BF0008F9BF0008F9BF000850
:1000B000397A0008F9BF0008F9BF0008F9BF000845
:1000C000F9BF0008F9BF0008F9BF0008F9BF000830
:1000D000F9BF0008F9BF000839AA0008F9BF0008F5
:1000E000F9BF0008F9BF0008F9BF0008F9BF000810
:1000F000F9BF0008F9BF0008F9BF0008F9BF000800
:10010000F9BF0008F9BF0008F9BF0008F9BF0008EF
:10011000F9BF0008F9BF0008F9BF0008BDA9000831
:10012000F9BF0008F9BF0008F9BF0008F9BF0008CF
:10013000F9BF0008F9BF0008F9BF0008F9BF0008BF
:10014000F9BF0008F9BF0008F9BF0008F9BF0008AF
:10015000F9BF0008F9BF0008F9BF0008F9BF00089F
:10016000F9BF0008D5A90008F9BF0008F9BF0008C9
:10017000F9BF0008F9BF0008F9BF0008F9BF00087F
:10018000F9BF0008F9BF0008F9BF0008F9BF00086F
:10019000F9BF000800000000F9BF0008F9BF00081F
:1001A000F9BF0008F9BF0008F9BF0008F9BF00084F
:1001B000F9BF0008F9BF0008F9BF0008F9BF00083F
:1001C000F9BF0008F9BF0008F9BF0008F9BF00082F
:0801D000F9BF0008F9BF0008A7
:1001D8002DE9F04F2DED048B874B884F5B68884ADB
:1001E8003B604FF0A041874C40230B601360D4F86C
:1001F800F830854A0133C4F8F830D4F8FC300133BC
:10020800C4F8FC30D4F800310133C4F80031D4F814
:10021800F830D4ED547A92ED007A67EE877A87B099
:10022800FCEEE77A17EE901A8B4207D377494B69B1
:10023800002083F480434B61C4F8F8004FF0A043DA
:10024800734ED3F888103160D3F880107160D3F8FA
:100258008410B160D3F88C10B161D3F88811F160C3
:10026800D3F880113161D3F88411716103F580737B
:10027800D3F88C30F36194F82633012B00F0F88121
:1002880094F82633002B40F0A980D6ED006A9FED44
:10029800614A94ED425A94EDCE7ADFED624ADFED81
:1002A8005E7A9FED5E6ADFED5E5AF8EEE66A27EE4B
:1002B800047A76EEC56AB0EE005A66EE876AC4ED37
:1002C8000C6AD6ED016AD4ED433A94EDCE7AF8EE95
:1002D800E66A27EE047A76EEE36A66EE876AC4ED8C
:1002E8000D6A96ED027AD4ED443AD4EDCE6AB8EEB2
:1002F800C77A66EE846A37EE637A27EE267A84ED4B
:100308000E7A96ED067AD4EDCF6AB8EEC77A27EE64
:10031800247A27EE267A84EDB77A96ED034AD4ED4F
:10032800CF6AD4ED453A94EDB77A66EEA46A27EE23
:10033800637AB8EEC44AA4EE267AB1EE477A84ED21
:100348000F7A96ED044AD4EDCF6AD4ED463A94ED8F
:10035800B77A66EEA46AB8EEC44A27EE637AA4EECA
:10036800267AB1EE477A84ED107A7369D4EDCF6AB4
:1003780094ED474A94EDB77A66EEA44A06EE903AB1
:1003880027EE447AF8EEE66AA6EEA47AB1EE477A4A
:1003980084ED117A236BA366D4ED0C6A94ED0D7A83
:1003A80067EE277AE6EE867AC4ED1B7A94ED0F7A2B
:1003B800D4ED107AD4ED116A77EEA67AD7EE057AE5
:1003C80067EEA57AC4ED127AD4ED107A94ED117A1D
:1003D80077EEC77A27EE866A84ED136A2378062BB0
:1003E80000F23881DFE813F09A01D0026C0421058D
:1003F8003806EC065E0100BF001000E098480020B7
:1004080000010050000000200408002000080048F7
:10041800704900200000003A3ACD933F3ACD133F8F
:10042800ABAAAA3E0000803996ED037A5FED036A15
:10043800D4EDCF7AB8EEC77A27EE267A27EE277A58
:1004480084EDE57A96ED047AD4EDCF7AB8EEC77AE2
:1004580027EE267A27EE277A84EDE67AD6ED057A16
:1004680094EDCF7AF8EEE77A67EEA67A67EE877AA8
:10047800C4EDE77A94ED517AD4ED527A94ED556A49
:10048800D4ED506AB4EEE67AF1EE10FA67EE867AA9
:1004980005DDD4ED506A77EEA66AC4ED506AD4ED56
:1004A800506AB4EEE67AF1EE10FA05D594ED507A7A
:1004B80077EE677AC4ED507A94ED507AF7EE007AC9
:1004C800B4EEE77AF1EE10FA0ADC94ED507AFFEE1A
:1004D800007AB4EEE77AF1EE10FA58BFD4ED507A0C
:1004E800C4ED507A94F82533DBB2012B04F0C681B1
:1004F800002B04F0FA80022B13D1D4F8C0367448CC
:10050800984794F8AD33DFED737A9FED737A06EE72
:10051800903AF8EE666AE6EEA77A77EE677AC4ED67
:100528004C7AD4F83031C4F8E833D4F8C8366B487C
:100538009847D4EDFD7A9FED6A7AD4EDD66A67EED6
:10054800877A87EEA67A84ED0B7A94F88833002BA5
:1005580043F0B085E378012B03F0AC85D4F8FC3088
:100568009FED607AD4ED547A67EE877AFCEEE77AED
:1005780017EE902A934208D394F82533022B04D11E
:1005880001220023E270C4F8FC3094ED4D0A564B6A
:10059800D4ED500A1B6894F8AD03F0EEE00A9847D2
:1005A800A26EC4F87023E26EC4F87423D4F8DC2277
:1005B8004E4BC4F87C231B69C4F88033D4F8BC368E
:1005C8004B48984794F88433002B43F0BE85237832
:1005D800DBB22370474ED4F8A0333360D4F8A43389
:1005E8007360D4F8A833B360D4F88C33424AF3600C
:1005F800137806F10C016BB3936834680A3302EB85
:1006080083031C609368746803F20A4302EB830354
:100618001C609368B06803F60A0302EB8303186052
:100628009368096803F60A4302EB83031960936829
:1006380001339360916840F2FE3399420AD901234D
:1006480053709378A3F10103B3FA83F300215B0994
:1006580013709160294A2A4B52681A601B683968DE
:10066800284A5B1A136007B0BDEC048BBDE8F08F15
:10067800254D9FED266AD5F8B030A366D5ED2C6AD6
:10068800D5ED2D7A9FED227A67EE867AE6EE877AA7
:10069800C4ED1B7AAB6BA364EB6BE364AB6CC4F87F
:1006A800DC329BE61B4B1B6898471B4B4FF40052F0
:1006B8009A6194F85C33013B052B01F28280DFE8F4
:1006C80013F0A10F8F0F80087108840F710800BF05
:1006D80088030020920A863FDB0F4940E803002088
:1006E800EBC91841CDCC4C3D1808002074480020B7
:1006F8005C030020644800202C080020001000E063
:10070800200800200C080020A04800203ACD933F84
:100718003ACD133F2808002000080048DFF864C2DB
:10072800DFED956A954B00214FF4005E012500200E
:10073800CCF828E06161A161C4F89C11C4F8A41147
:10074800C4F8E011C4F8E811C4F82412C4F82C1253
:10075800C4F80413C4F80813C4F830111160E57024
:1007680084F8AD03D6ED067A94EDCF7AF8EEE77A01
:100778009C4667EEA67A9A4667EE877A184617EE81
:10078800902A4CF80C2BD6ED007AF8EEE77A1A4648
:1007980017EE901A4AF8301FD6ED017AF8EEE77A8C
:1007A800194617EE905A40F8405FD6ED027AF8EEF7
:1007B800E77A994617EE905A42F8505F96ED037A19
:1007C800D4EDCF7AB8EEC77A67EEA67A984627EEC8
:1007D800277A03F1380E17EE105A41F8605F96ED4C
:1007E800047AD4EDCF7AB8EEC77A67EEA67A27EE08
:1007F800277A17EE105A49F8705FD6ED057A94ED0E
:10080800CF7AF8EEE77A67EE266A1D4667EEA67A93
:10081800083517EE906A48F8806FDCED006A93EDB2
:10082800007AD3ED027A37EE677AD3ED027AE6EEF4
:10083800877A03F1480C1E465836C3ED027AD3ED89
:100848000F6A9AED007ADEED007A37EE677ADEED10
:10085800007AE6EE877ACEED007AD3ED136A90ED52
:10086800007ADCED007A37EE677ADCED007AE6EEA6
:10087800877A18466830CCED007AD3ED176A92ED86
:10088800007AD6ED007A37EE677AD6ED007AE6EE92
:10089800877A1A467832C6ED007AD3ED1B6A91ED55
:1008A800007AD0ED007A37EE677AD0ED007AE6EE7E
:1008B800877A19468831C0ED007AD3ED1F6A99ED21
:1008C800007AD2ED007A37EE677AD2ED007AE6EE5A
:1008D800877AC2ED007AD3ED236A98ED007AD1EDDC
:1008E800007A37EE677AD1ED007AE6EE877AC1EDC5
:1008F800007A94F82633002B41F0CD822B68204DE6
:10090800C4F8DC32D4EDB77ADEF80030C4F8083128
:10091800F7EE006A86EEA77ADCF80030C4F80C31EE
:100928003368C4F81031D0ED007A67EE877AC4EDE9
:10093800457AD2ED007A67EE877AC4ED467AD1ED32
:10094800007A67EE877AC4ED477A94F82433DBB2ED
:10095800012B01F09482002B01F09182022B40F0D0
:10096800AD8794F82533032B00F29187DFE813F065
:100978009E11780786124612000080391C06002056
:10098800A04800200008004894F82433DBB2012B6B
:100998003FF44AAD002B02F0DB87022B7FF45AAEFE
:1009A800BC49BD4B94ED4C0A1B68081F9847D4ED11
:1009B8001A5A94ED2B6A94ED1B7A94ED2A5AB74B88
:1009C800DFEDB77ADFEDB76A27EE057A1A46A5EEAE
:1009D800867A1E461D4684ED1C7AD4ED1A5A94ED8B
:1009E8002A6A94ED1B7A94ED2B5A27EE057AA5EE28
:1009F800C67A84ED1D7A216F42F80C1B616F46F8A8
:100A0800101FD4F8DC1245F8201FD2ED005A93EDE0
:100A1800006A93ED027A36EE476A93ED027AA5EE04
:100A2800867A83ED027AD3ED075A96ED006A93ED44
:100A3800067A36EE476A93ED067AA5EE867A83ED56
:100A4800067AD3ED0B5A95ED006A93ED0A7A36EEE5
:100A5800476A93ED0A7AA5EE867A83ED0A7A9B6A4D
:100A6800C4F8DC32E37A94ED516A94ED527A94ED4D
:100A7800555AD4ED505A012BB4EEE56A08BFF0EE92
:100A8800676AF1EE10FA27EE057A01F3EF85D4EDE7
:100A9800507AB4EEE76AF1EE10FA05D5D4ED507A43
:100AA80037EEC77A84ED507AE368C4F8043394EDDE
:100AB800507AD4EDB77A27EE277A27EE267A84ED96
:100AC800C27AD4EDC57A94EDB77A67EEA67A67EE66
:100AD800877AC4EDC37A94EDC37AD4EDC37AD4EDA2
:100AE800C16A94EDC10A20EE660AA7EE270AB5EEA0
:100AF800400AF1EE10FAB1EEC08A04F1FD816A49AC
:100B0800081F092684EDC48A94EDC30A04F020FA6C
:100B1800D4EDC16A94ED2B7A94EDC26AD4ED2A7AA9
:100B2800624867EEC67AE6EE877AC4ED577AD4ED66
:100B3800C26A94ED2B7AD4EDC17A94ED2A6A67EEF5
:100B4800867AE6EE877AC4ED587AD4F8DC32C4F8AF
:100B58006431D4F8B0369847554B94ED5A0A1B685F
:100B6800D4ED5B0A94ED5C1AD4ED4D1A9847D4F88D
:100B78006831C4F8E032D4F86C31C4F8E432D4F8FF
:100B88007031C4F8E8324B48D4F8B83698474FF07B
:100B9800000C4948E646E046016902690369C1F369
:100BA800C011C2F30022C3F34023013E8844964497
:100BB8009C44F1D1B8F1040FD4BF4FF000084FF0B6
:100BC8000108BEF1040F3D4DD4BF4FF0000E4FF0A9
:100BD800010EBCF1040FD4BF4FF0000C4FF0010C14
:100BE80085F8008085F801E085F802C0D4F8F43370
:100BF8002B632B781BB96B78012B03F0FB872B78C1
:100C08001BB96B78012B04F006802B782BB96B7815
:100C18001BB9AB78012B04F0E5802B78012B03F08E
:100C280048852B78012B03F054852B78012B03F092
:100C3800C186EB781C3305EB83035B68EB61EA78CC
:100C48002B799A4215D0EA782B799A4206D9EB7813
:100C5800052B0ABF2B7B0023DBB22B73EA782B7999
:100C68009A4206D2EB78002B43F0D2872B7BDBB27B
:100C78002B73EB78DBB22B71EB69C4F8F43094F882
:100C88002533032B02F22681DFE813F0E0130D1160
:100C9800E911AA11AC00002014080020FC0500206E
:100CA800ABAA2A3F3ACD133F080300205C0100207D
:100CB80024080020DC020020000400486C07002003
:100CC80094F82433022B7FF4C5ACD749D74B94ED65
:100CD8004C0A1B68081F984794ED067AD4ED077AEA
:100CE80094ED556AD4ED726AB4EEE67AF1EE10FA34
:100CF80067EE867A05DDD4ED726A77EEA66AC4EDF2
:100D0800726AD4ED726AB4EEE67AF1EE10FA05D59D
:100D180094ED727A77EE677AC4ED727A6369C4F8F3
:100D28008431D4ED067A9FEDC27ADFF81883F0EEAD
:100D3800E77AF4EEC77AF1EE10FACCBFD4F8C831EE
:100D48000023C4F8C831D4ED1A6A94ED2B7AD4ED97
:100D58001B7A94ED2A6A67EE867A4246E6EE877A2F
:100D680046464546C4ED1C7AD4ED1A6A94ED2A7AB3
:100D7800D4ED1B7A94ED2B6A67EE867AE6EEC77A95
:100D8800C4ED1D7A236F42F80C3B636F46F8103FA1
:100D9800D4F8DC3245F8203FD2ED006A98ED007AAD
:100DA800D8ED027A37EE677AD8ED027AE6EE877ADE
:100DB800C8ED027AD8ED076A96ED007AD8ED067A82
:100DC80037EE677AD8ED067AE6EE877AC8ED067AC6
:100DD800D8ED0B6A95ED007AD8ED0A7A37EE677A86
:100DE800D8ED0A7AE6EE877AC8ED0A7AD8F828307C
:100DF800C4F8DC3294F80834012B03F0CF8194F85E
:100E08002533022B03F02E8494F8CC35012B03F004
:100E1800B681884D94F82733032B01F2E385DFE888
:100E280013F02F0F160F0B0FC70D94F82433022B56
:100E38007FF410AC7C497D4B7F4E94ED4C0A1B68C7
:100E4800081F984794ED084A96ED007AD4ED0A7A7F
:100E5800D4ED553AB4EE474AF7EE086AF1EE10FAC7
:100E680067EEA67A43F01781DFF8DC81DFF8DC91C2
:100E780098ED007AD4ED836A94ED835AF5EE005A22
:100E880067EE255A76EEC46AC5EEA74AB4EEC54A9F
:100E980087EEA46AF1EE10FAF6EE004A26EE246A0E
:100EA800F0EEE66A02F3098594ED835AB4EEC54A7A
:100EB800F1EE10FA02F10185D9ED007A94ED837A0A
:100EC800B4EEC74AF0EEE77AF1EE10FA67EEA37ACD
:100ED80005DD94ED837A37EE877A84ED837A94ED95
:100EE800837AB4EEC74AF1EE10FA05D594ED837A09
:100EF80077EE677AC4ED837A94F8043186ED004A78
:100F08000133DBB284F8043194F80431092B10D989
:100F1800002384F8043194F826334848012B0ABF8B
:100F2800474BD4F8F4331B6DC4F81032D4F8AC3600
:100F380098476369C4F88431D4F83832C4F8C831A2
:100F4800D4ED1A6A94ED2B7AD4ED1B7A94ED2A6AC3
:100F58003C4D67EE867A2B46E6EE877AAC46284605
:100F6800C4ED1C7AD4ED1A6A94ED2A7AD4ED1B7A72
:100F780094ED2B6A67EE867AE6EEC77AC4ED1D7AA1
:100F8800226F43F80C2B626F4CF8102FD4F8DC2238
:100F980040F8202FD3ED006A95ED007AD5ED027A5E
:100FA80037EE677AD5ED027AE6EE877A2B46283354
:100FB800C5ED027AD5ED076A9CED007AD5ED067A83
:100FC80037EE677AD5ED067AE6EE877AC5ED067ACA
:100FD800D5ED0B6A90ED007AD5ED0A7A37EE677A8F
:100FE800D5ED0A7AE6EE877AC5ED0A7A1B68C4F869
:100FF800DC3294F80834012B03F0AC8094F82533E4
:10100800022B03F0088394F8CC35012B03F0DB8026
:10101800084D94F82733032B01F26083DFE813F0BF
:10102800B20C990C8E0C440BAC0000201408002064
:10103800CDCCCC3DD8050020FC0700200C020020B8
:10104800A0480020FC050020680700206007002059
:10105800DB0FC940DB0F49C0D4ED485A5FED046A85
:1010680094ED557AD4ED4C7A1FED066A27EE267A70
:10107800E5EE877AC4ED4C7AD4ED4C7AF4EEC67A74
:10108800F1EE10FA40F10B87D4ED4C7A77EEA66AB0
:10109800C4ED4C6A002103914FF07E510491D4EDC8
:1010A8001A6A9DED047AD4ED1B7A9DED036A414BD3
:1010B80067EE867A1846E6EE877A1E461D4603F1E5
:1010C800080BC4ED1C7AD4ED1A6A9DED037AD4EDB1
:1010D8001B7A9DED046A67EE867AE6EEC77AC4ED60
:1010E8001D7AD4ED126A9DED047AD4ED137A9DED44
:1010F800036A67EE867AE6EE877AC4ED147AD4ED51
:10110800126A9DED037AD4ED137A9DED046A67EEB9
:10111800867AE6EEC77AC4ED157AD4F870E040F81E
:101128000CEBD4F874E046F810EFD4F8DCE245F89C
:1011380020EFD0ED006A93ED007ADBED007A37EE10
:10114800677ADBED007AE6EE877A18462830CBED31
:10115800007AD3ED076A96ED007AD3ED067A37EE7A
:10116800677AD3ED067AE6EE877AC3ED067AD3ED91
:101178000B6A95ED007AD0ED007A37EE677AD0EDFC
:10118800007AE6EE877AC0ED007A94F82633012BD0
:101198000ABF094B03689B6CC4F8DC326378042BE4
:1011A80001F21082DFE813F0120966095008A60759
:1011B800AF0600BFFC050020A0480020CDCC4C3E67
:1011C800A3782BBB94EDCA7A5FED047AC64BC74A65
:1011D80027EE277A002184ED057AC4ED4A7AC4ED1A
:1011E800497AC4ED487AC4F83011E2611A680132CC
:1011F8001A60D4ED547A1B6877EEA77AFCEEE77A8A
:1012080017EE902A9A428ABFA3780123DBB2A37013
:10121800A378012B00F09B82A378022B00F0978221
:10122800A378062B00F09382A378042B02F0B981EF
:10123800AF4B0193A378052B02F07881DFF8DCA28D
:10124800AC49AD4B94ED4C0A1B68081F9847AB4B53
:10125800216F1A46184642F80C1B616F40F8101FA0
:101268001946D4F8DC5241F8205F03F1080BD2ED9F
:10127800006A93ED007ADBED007A37EE677ADBEDF2
:10128800007AE6EE877A03F11808CBED007AD3ED01
:10129800076A90ED007AD8ED007A37EE677AD8EDD4
:1012A800007AE6EE877AC8ED007AD3ED0B6A91ED05
:1012B800007AD3ED0A7A37EE677AD3ED0A7AE6EE4A
:1012C800877AC3ED0A7A9B6AC4F8DC32D4ED1A6ACD
:1012D80094ED2B7AD4ED1B7A94ED2A6A67EE867A20
:1012E800E6EE877AC4ED1C7AD4ED1A6A94ED2A7A70
:1012F800D4ED1B7A94ED2B6A67EE867AE6EEC77A10
:10130800C4ED1D7A94ED057AD4ED077A94ED556A0B
:10131800D4ED616AB4EEE67AF1EE10FA67EE867AF9
:1013280005DDD4ED616A77EEA66AC4ED616AD4ED95
:10133800616AB4EEE67AF1EE10FA05D594ED617AB9
:1013480077EE677AC4ED617AA369C4F8C831236F70
:10135800C4F888316A48636FC4F8CC3100F58A69EB
:10136800D4F8AC369847D4F8AC36A9F20C40984774
:10137800D4F8B031C4F80433D4F8F431C4F80833DD
:10138800D9ED006AD4EDC15ADFED667A99ED007A9D
:101398009FED5C6A76EEE56AA6EEE77A89ED007A5B
:1013A800D4EDC57A94EDB77A67EE867A67EE877AD8
:1013B800C4EDC37A94EDC37AD4EDC37AD4EDC16A8F
:1013C80094EDC10A20EE660AA7EE270AB5EE400A98
:1013D800F1EE10FAB1EEC08A03F18A854A494B4D05
:1013E800081F092684EDC48A94EDC30A03F0B0FDF2
:1013F800D4F86831C4F8E032D4F86C31C4F8E43277
:10140800D4F87031C4F8E8324148D4F8B83698476F
:10141800D4EDC16A94ED2B7A94EDC26AD4ED2A7AA0
:101428003C4867EEC67AE6EE877AC4ED577AD4ED83
:10143800C26A94ED2B7AD4EDC17A94ED2A6A67EEEC
:10144800867AE6EE877AC4ED587AD4F8DC32C4F8A6
:101458006431D4F8B0369847002084468646296916
:101468002A692B69C1F3C011C2F30022C3F34023D8
:10147800013E8E4494441844F1D1BEF1040FD4BF08
:101488004FF0000E4FF0010EBCF1040F224DD4BFF7
:101498004FF0000C4FF0010C0428D4BF00200120AD
:1014A80085F800E085F801C0A8702B781BB96B7827
:1014B800012B01F0B9802B781BB96B78012B01F057
:1014C800CD802B781BB96B78002B00F014852B7816
:1014D800012B02F0E6812B78012B02F017822B7882
:1014E800012B02F01A831FE0640700200000A041CE
:1014F800D0050020AC00002014080020FC050020C6
:1015080084010020D7B35D3F080300200004004891
:10151800DC0200205C0100206C0700202C08002061
:1015280062DCC8406F12833AA37903F0FF0193B9D4
:10153800EA782B799A4205D9EB78052B02D001235A
:101548002973A371EA782B799A4204D2EB7813B104
:1015580001232B73A371EA782B799A4226D02B7B2F
:10156800DBB9A378012B02F04186EB78103305EB49
:1015780083035A68EB78103305EB83035A60A3782A
:10158800022B02F02F86EB78163305EB83035A689B
:10159800EB78163305EB83035A602B7B012B02F0A3
:1015A800C882D4F830212A610123EB73EB781FED50
:1015B800247ADBB22B7194ED4B6AD4ED486AD5EDF1
:1015C8000A7AE6EE267AC5ED0A7AD5ED0A7AF4EEBD
:1015D800C77AF1EE10FA03DDA378012B01F02B8016
:1015E80095ED0A7A5FED317AB4EEE77AF1EE10FA0A
:1015F80003D5A378022B01F02A80A378032B02F0ED
:101608000380A378052B02F00981A378062B02F04A
:101618006780D4F8D432C4F8E8338748D4F8C83699
:101628009847A26EC4F87023E26EC4F87423D4F805
:10163800DC22824BC4F87C231B69C4F88033D4F8BD
:10164800BC367F48984794F88433002B40F01484C4
:101658002378DBB223707B4B94ED5A0A1B68D4EDD8
:101668005B0A94ED5C1AD4ED4D1A9847D4ED057ACF
:10167800F5EE407AF1EE10FA07D1D4ED067AF5EEE0
:10168800407AF1EE10FA00F02F8401238AF8003036
:1016980094F8CD356C4A07EE903AF8EE677A104622
:1016A800C2ED007A94F8CD3503F5877304EB830413
:1016B8001146636840F8043F019B1B6841F8083FE6
:1016C8001346D9F8004043F80C4F9AF80040002C14
:1016D8003EF4C0AFDAF80840156804F10A020AEBD4
:1016E80082021560DAF80820006802F20A420AEB62
:1016F80082021060DAF80820096802F60A020AEB8A
:1017080082021160DAF80820196802F60A430AEB27
:1017180083031960DAF808300133CAF80830DAF8B8
:10172800082040F2FE339A427EF694AF01238AF8ED
:1017380001309AF80230A3F10103B3FA83F30022CF
:101748005B098AF80030CAF80820FEF783BFA3783F
:10175800062B02F0BD8194ED4B6AD4ED486AD4EDB6
:101768004C7A9FED3A7AE6EE267AC4ED4C7AD4EDBF
:101778004C7AF4EEC77AF1EE10FA00F1A48394EDF6
:101788004C7ADFED337AB4EEE77AF1EE10FA7FF7B0
:101798004BADD4ED4C7A9FED2F7A77EEC77AC4ED36
:1017A8004C7A41E5284BD4F85C012B491A4642F89B
:1017B800040BD4F860011060D4F8DC0298600A6861
:1017C800DA60264B1A78002A3EF444AF9A681E481D
:1017D8000A3203EB8202046814609A684468011DA7
:1017E80002F20A4203EB8202083014609A68006829
:1017F800083102F60A0203EB820210609A6809684F
:1018080002F60A4203EB820211609A6801329A607A
:10181800996840F2FE3291427EF61CAF01225A705E
:101828009A78A2F10102B2FA82F2002152091A70E2
:101838009960FEF70FBF00BFE8030020744800203E
:101848005C0300202408002064480020DB0F49C006
:10185800DB0F4940DB0FC940F40500202C080020AD
:10186800D4F8F430C4F8E833D4F8C836EB489847CD
:1018780094EDFF7ADFEDEA7AB4EEE77AF1EE10FA4A
:10188800CCBFD4F8F833D4F8F430C4F83031D4ED00
:10189800FD7A9FEDEB7AD4EDD66A9FEDE21AE24B22
:1018A80067EE877A1B6887EEA67AF0EE410A84ED28
:1018B8000B7AB0EE410AD4ED4D1A9847DB4B1B6802
:1018C800984795ED127AD5ED077ADFEDD95A9FED55
:1018D800D96ADFEDD96AD94A27EE277A40F6BC5093
:1018E80085ED037A95ED127AD5ED087A27EE277AF9
:1018F80044F6BC5185ED047A95ED127AD5ED097A56
:1019080027EE277A85ED057AD5ED037A95ED045A09
:1019180095ED057A77EE857A77EE877A67EEA57A80
:10192800C5ED067A95ED037AD5ED067A37EE677A36
:1019380085ED007A95ED047AD5ED067A37EE677A6B
:1019480085ED017A95ED057AD5ED067A37EE677A59
:1019580085ED027A2B68AB6395ED007AD5ED017AB7
:1019680067EE867AE7EE267AF7EE086AC5ED0F7A13
:10197800D5ED197AFEEEC47A17EE903A83FB028908
:101988004FEA186242EA092202F580025212A2F5D1
:10199800005343F30D0303FB03F31B1300FB03F096
:1019A800A1EBA03103FB01F31B14C3F580531B0308
:1019B800560448BF5B4207EE903AFAEEC47A9F4A53
:1019C800C5ED1B7AD5ED197AFEEEC47A40F6BC5106
:1019D80017EE903A83FB02894FEA186242EA09221D
:1019E8005212A2F5005343F30D0303FB03F31B1339
:1019F80001FB03F044F6BC51A1EBA03103FB01F35A
:101A08001B14C3F580531B03500448BF5B4207EE09
:101A1800903AFAEEC47A0023C5ED1C7A95ED0E6A69
:101A280095ED1B7AD5ED0F7AD5ED1C5A67EEA57AA0
:101A3800E6EE077AC5ED107A95ED0E6AD5ED1C7ABB
:101A480095ED0F7AD5ED1B5A27EE257AA6EE677A23
:101A580085ED117A95ED107A95ED0C5AD5ED205A51
:101A680095ED226AD5ED137AA5EE657AA6EE277A6A
:101A780085ED257A95ED117A95ED0D5AD5ED205A1B
:101A880095ED216AD5ED137AA5EE657AA6EE677A0B
:101A980085ED267AD5ED217A95ED256A95ED277A9B
:101AA800E6EE077AC5ED237AD5ED227A95ED266A1A
:101AB80095ED277AE6EE077AC5ED247A95ED237A37
:101AC80095ED296AD5ED2A7A37EE467A27EE277AF8
:101AD80085ED0C7AD5ED247A95ED2B7A67EE877A29
:101AE800C5ED0D7AD5ED217A95ED286AD5ED255A03
:101AF80095ED107AD5ED0C3A95ED204AD5ED224AB0
:101B080095ED135AA3EEC47AA4EE857A37EE257ABA
:101B1800E6EE077AC5ED217AD5ED227A95ED286AA9
:101B2800D5ED265A95ED117AD5ED0D3A95ED204A69
:101B3800D5ED214A95ED135AA3EEC47AA4EEC57AE1
:101B480037EE257AE6EE077AC5ED227A95ED217A09
:101B580095ED296AD5ED2A7A37EE467A27EE277A67
:101B680085ED0C7AD5ED227A95ED2B7A67EE877A9A
:101B7800C5ED0D7A95ED0C6AD5ED1B7AD5ED0D5AAC
:101B880095ED1C7A27EE657AA6EE277A85ED0A7A16
:101B980095ED0C6AD5ED1C7A95ED0D7AD5ED1B5AAD
:101BA80027EE257AA6EE277A85ED0B7A95ED187A39
:101BB800D5ED215A95ED0D6A95ED225AD5ED0C7AA1
:101BC80067EEC57A67EE266AE5EE867A67EEA67A4C
:101BD800C5ED157AC5F8C430D5ED137AF5EEC07A9F
:101BE800F1EE10FA07DDD5ED307A95ED177A77EE3C
:101BF800877AC5ED317AD5ED137AF5EEC07AF1EE34
:101C080010FA29D5D5ED307A95ED177AF1EE677A85
:101C180077EEC77AC5ED317A1EE000BFE8030020F1
:101C28000000484200000000240800201C08002092
:101C3800AAAAAA3E3ACD933F3ACD133F60BE2800E8
:101C4800EBC91841D7B35D3FDA0F4940DA0FC9C075
:101C5800DA0F49C0DA0FC94095ED275AD5ED165A63
:101C6800D5ED156A95ED316AD5ED137A85EE257AAD
:101C780076EEC66AF0EEE77A27EE267AF0EEC76AC5
:101C8800F4EEE76AF1EE10FA0BDDD5ED157AD5ED35
:101C9800306AF0EEE77AF4EEE67AF1EE10FA00F147
:101CA8001C81D5ED136A5FED1A5A5FED1A7A1FEDA4
:101CB8001A6A36EE877AFEEE006A85ED137A95ED9C
:101CC800137A27EE257A85ED147A95ED137AD5EDFA
:101CD800155A27EE257A85ED2F7AAB6AC5F8B0300C
:101CE800D5ED0A5A95ED0B7A27EE277AA5EEA67A56
:101CF80085ED2D7A95ED0A7AD5ED0B5A67EEE57AE2
:101D0800E7EE267AC5ED2E7AD5ED1A7AD5ED276A53
:101D180095ED137AE6EE877AC5ED1A7AD5ED1A7A3B
:101D2800F4EEC67AF1EE10FA07DD95ED1A7A5FED5A
:101D3800397A77EEC77AC5ED1A7A95ED1A7A5FED9A
:101D48003C7AB4EEE77AF1EE10FA07D5D5ED1A7AB7
:101D58001FED407A77EE877AC5ED1A7AD5ED1A7AB3
:101D6800D5ED186A1FED487A67EEA67AC5ED197A9F
:101D7800D5ED197AF4EEC77AF1EE10FA07DD95ED94
:101D8800197A5FED4E7A77EEC77AC5ED197A95ED37
:101D9800197A5FED517AB4EEE77AF1EE10FA07D5C9
:101DA800D5ED197A1FED557A77EE877AC5ED197A50
:101DB80094EDB77AC54BC648F3EE047AB4EEE77AE9
:101DC800F1EE10FAACBF0122002284F88523A26E3E
:101DD800C4F87023E26EC4F87423D4F8DC22C4F883
:101DE8007C231B69C4F88033D4F8BC36984794F830
:101DF8008433002B65D12378DBB2237094F8CD357A
:101E0800B44E0133DBB284F8CD3594F8CD35622B6E
:101E180096BF94F8CD350023DBB284F8CD3594F81D
:101E2800CD3507EE903AF8EE677AAB4BC6ED007AFF
:101E380094F8CD2502F5877204EB820206F10C01B5
:101E480052687260D4F88421B260D4F8C821F26074
:101E58001A78002A3EF4FEAB9A6834680A3203EB1B
:101E6800820214609A68746802F20A4203EB8202E2
:101E780014609A68B068BCE40623FFF7EBBB9FEDDB
:101E8800971A974BD4ED4D1A1B68F0EE410AB0EE45
:101E9800410A984712E5934DAB6CFEF731BD94EDBE
:101EA8004C7ADFED917AB4EEE77AF1EE10FA7FF72B
:101EB800F1A8D4ED4C7A77EEE66AC4ED4C6AFFF7E8
:101EC800E9B8062399E7D4ED4C7A9FED887A77EE46
:101ED800877AC4ED4C7AFFF7A7B9DFED807AB0EEC8
:101EE800677AC5ED137ADCE694F88433002B3FF467
:101EF800CFABFFF7CABBAB78012B7FF4E8AA02236C
:101F0800EB70FFF711BB00230025C4F86831C4F853
:101F18006C31C4F870316361C4F82031C4F82431DD
:101F2800C4F82831E360C4F80051D4ED555A9FED48
:101F3800706A9FED6E7AD4ED2E6ADFF89CA1B7EE39
:101F4800008AC8EE257A67EE867A27EE877A66EEEB
:101F5800877AC4ED767AC4ED657AD4ED2C7AD4ED1F
:101F6800556A67EE877A67EEA67AC4ED7F7AC4ED84
:101F78006E7A94ED657AC8EE077AC4ED6F7A94EDBF
:101F8800767AC8EE077AC4ED807AD4ED2C7AD4ED4F
:101F98002E6A94ED557AF1EE677A87EEA60A20EE5E
:101FA800070A02F0D1FF84EDA40AD4ED2C6AD4ED1F
:101FB800A47A88EE267A38EE678AF7EE086A27EE62
:101FC800088A84EDA38A94ED2C7A27EE267A84ED8C
:101FD800AD7AD4ED2E7A67EEA67AC4EDAE7AD4F84F
:101FE800B030C4F84833D4F8B830C4F84C33D4F817
:101FF800BC30C4F850332570394B94ED5A0A1B682D
:10200800D4ED5B0A94ED5C1AD4ED4D1A9847226B17
:10201800C4F87023626BC4F87423A26BC4F87823E5
:10202800D4F8DC22294BC4F87C231B69C4F880331C
:10203800D4F8BC362648984794F88433002B41F0EE
:1020480072822378DBB2237094F82633012B01F0D7
:102058009D85637807EE903A1E4BF8EE677A18462E
:10206800C3ED007A226D40F8042F1946226F41F81B
:10207800082F1A46D4F8304142F80C4F9AF800401D
:10208800002C3EF4E7AADAF808401D6804F10A03B8
:102098000AEB83031D60DAF80830006803F20A438C
:1020A8000AEB83031860DAF80830096803F60A03B4
:1020B8000AEB83031960DAF80830126803F60A435A
:1020C8000AEB83031A60FFF725BB00BF74480020A2
:1020D8005C030020644800202C0800200000000059
:1020E80024080020A0480020DB0F4940DB0FC9402E
:1020F800CDCC4C3DD4ED057A94ED307AD049D14B16
:1021080067EE877A1B68C4ED037A081F94ED4C0AC2
:1021180098479FEDCD7A84ED327AD4F80031D4ED2A
:10212800547AF6EE006A67EEA67AFCEEE77A17EEC6
:10213800902A934205D394ED2A7AD4ED037A27EEB8
:10214800277A84ED337AD4F8C830C4F80433D4F845
:10215800CC30C4F80833D4EDC57ADFEDBC6A94ED11
:10216800B77ABB4967EEA67A081F67EE877AC4ED8F
:10217800C37A94EDC30A02F0EBFE94ED037AD4ED32
:10218800C37AB4EEE77AF1EE10FA0ADDB14BC4F87F
:10219800B83001210822C4F8BC3084F8841384F8CC
:1021A8005C23D4F86831C4F8E032D4F86C31C4F850
:1021B800E432D4F87031C4F8E832A748D4F8B83615
:1021C8009847D4EDC16A9DED047A94EDC26ADDEDBD
:1021D800037AA24867EEC67AE6EE877AC4ED577AA4
:1021E800D4EDC26A9DED047AD4EDC17A9DED036AFF
:1021F80067EE867AE6EE877AC4ED587AD4F8DC3250
:10220800C4F86431D4F8B0369847D4F80031D4ED26
:10221800547AFCEEE77A17EE902A934282F07E8099
:10222800DFF84CA2D4F80031D4ED547AB7EE087A2E
:1022380067EE877AFCEEE77A17EE902A93422CBF76
:10224800042303236370D7E6637AD4ED057A002B61
:1022580042F0F98094ED2C7A67EE877AC4ED037A20
:102268007749784B94ED4C0A1B68081F9847D4F8B7
:102278000031D4ED547ADFED756A7549B6EE007A0F
:1022880067EE877A081FFCEEE77A17EE902A9342EA
:1022980025BFD4ED2A7A94ED037ADFED6B7A67EEE9
:1022A800877A0023C4ED327AC4F8CC30D4F8C83029
:1022B800C4F80433D4F8CC30C4F80833D4EDC57A64
:1022C80094EDB77A67EEA67A67EE877AC4EDC37A9B
:1022D80094EDC30A02F03CFE94ED037AD4EDC37A80
:1022E800B4EEE77AF1EE10FA0ADD5A4BC4F8B830CA
:1022F80001210822C4F8BC3084F8841384F85C23D4
:10230800D4F86831C4F8E032D4F86C31C4F8E43257
:10231800D4F87031C4F8E8324F48D4F8B836984742
:10232800D4EDC16A9DED047A94EDC26ADDED037ABD
:102338004A4867EEC67AE6EE877AC4ED577AD4ED56
:10234800C26A9DED047AD4EDC17A9DED036A67EE09
:10235800867AE6EE877AC4ED587AD4F8DC32C4F887
:102368006431D4F8B0369847D4F80031D4ED547AB3
:10237800FCEEE77A17EE902A934282F08180DFF82C
:10238800F0A0D4F80031D4ED547AB7EE087A67EEAD
:10239800877AFCEEE77A17EE902A93427FF62CAE06
:1023A800637A03F0FF02002B42F02B840221617054
:1023B800012100236172C4F80021C4F8D030C4F8A8
:1023C800D830C4F8E030C4F8E43015E60023C4F887
:1023D8000031D4EDCA6A9FED226ADFED1B7A9FEDCA
:1023E800217A184BDFF888A015491F481F4E1D6831
:1023F80066EE866A0123C4ED056AC4ED367AC4ED3B
:10240800347AD4EDCD6A66EE876AB0EE670AC4ED19
:10241800486AC4F8D801C4F8940184ED7F7A081F8B
:1024280084ED6E7AC4ED807AC4ED6F7AC4ED807A5B
:10243800C4ED707A8AF8003063701660A847DBE54F
:10244800AC0000201408002000000000ABAA2A3FBE
:1024580008030020000080BFDC0200205C0100208F
:10246800CDCC4C3ECDCCCC3D6F12833ACDCC4C3D3F
:102478002C08002094ED057AD4ED057A94ED556A80
:10248800D4ED616AF2EE045A67EEA57AB4EEE67A04
:10249800F1EE10FA67EE867A05DDD4ED616A77EE23
:1024A800A66AC4ED616AD4ED616AB4EEE67AF1EE2B
:1024B80010FA05D594ED617A77EE677AC4ED617A02
:1024C8000025C4F8C851236FC4F88831636FC4F875
:1024D800CC31D4F80C33C4F8A831D4ED6A7A674803
:1024E800F1EE677AC4ED6B7AD4F80C33C4F8EC31AA
:1024F800D4ED7B7AF1EE677AC4ED7C7AD4F8AC3609
:102508009847D4F8AC365E489847D4F8B031C4F848
:102518000433D4F8F431C4F80833D4EDC57AD4EDD3
:10252800B76A9FED587A584967EEA67A081F67EE92
:10253800877AC4EDC37A94EDC30A02F009FDD4F892
:102548006831C4F8E032D4F86C31C4F8E432D4F815
:102558007031C4F8E8324D48D4F8B8369847D4ED0D
:10256800C16A94ED2B7A94EDC26AD4ED2A7A484870
:1025780067EEC67AE6EE877AC4ED577AD4EDC26A7A
:1025880094ED2B7AD4EDC17A94ED2A6A67EE867AB7
:10259800E6EE877AC4ED587AD4F8DC32C4F86431B0
:1025A800D4F8B0369847D4F80031D4ED547AB6EE62
:1025B800007A67EE877AFCEEE77A17EE902A934264
:1025C80081F05C86DFF8DCA016E5324BD4F84001D8
:1025D80031491A4642F8040B08693049FFF7EBB84D
:1025E800D6ED017A2B4BF8EEE77A1A46E2EC017A3F
:1025F800D4F80C111160E16E9960D4F86C21DA609E
:10260800FFF7DFB8D6ED007A224BF8EEE77A1A46E4
:10261800E2EC017AD4F808111160A16E9960D4F83F
:102628006821DA60FFF7CDB8AB78002B7EF443AFB2
:10263800EE70FEF779BFD4ED487A194AF1EE677A61
:102648000223C4ED487AAA62A370FEF7C9BF00222C
:102658000323C4F82021A370FEF7CFBFAB78DBB209
:10266800012B7EF42EAFEB70FEF75EBFD4ED507AEF
:1026780077EE277AC4ED507AFEF709BA8401002074
:10268800C8010020ABAA2A3F08030020DC02002072
:102698005C0100206448002074480020F4050020F4
:1026A800DB0FC9402C080020D4ED727AD4EDFD6A06
:1026B80094EDD47A67EEA67A67EE877AC4ED1E7A2F
:1026C80094EDFD7A94ED616AD4EDD36AD4EDAC7AD9
:1026D800E6EE267A67EE877AC4ED1F7A236FC4F890
:1026E8008831636FC4F8CC31D4ED1E7ADFF8BCA210
:1026F800F1EE677AC4ED637AD4ED1F7ADAED006AF9
:1027080095ED007AE6EE877AAAF58B60C4ED747AC7
:10271800D4F80C33C4F8A831D4ED6A7AF1EE677AAC
:10272800C4ED6B7AD4F81033C4F8EC31D4ED7B7A6D
:10273800F1EE677AC4ED7C7AD4F8AC369847D4F8D1
:10274800AC36AAF214409847D4F8B031C4F8043330
:10275800D4F8F431C4F80833E37A9FED8C7A9FED0E
:102768008C6AD4EDC57AD4EDB76A012B18BFB0EEE8
:10277800467A67EE877A67EEA67AC4EDC37A94ED57
:10278800C37AD4EDC37AD4EDC16A94EDC10A20EEC0
:10279800660AA7EE270AB5EE400AF1EE10FAB1EE86
:1027A800C08A02F1B9837B497B4D081F84EDC48A36
:1027B80094EDC30A02F0CCFBD4EDC16A94ED2B7AF8
:1027C80094EDC26AD4ED2A7A744867EEC67AE6EECA
:1027D800877AC4ED577AD4EDC26A94ED2B7AD4ED9A
:1027E800C17A94ED2A6A67EE867AE6EE877AC4EDB6
:1027F800587AD4F86831C4F8E032D4F86C31C4F8A7
:10280800E432D4F87031C4F8E832D4F8B8369847CE
:10281800D4F8DC32C4F864316148D4F8B03698474B
:10282800604B94ED5A0A1B68D4ED5B0A94ED5C1A70
:10283800D4ED4D1A98474FF0000CE646E2460920C1
:1028480029692A692B69C1F3C011C2F30022C3F3B5
:10285800402301388A4496449C44F1D1BAF1040FCC
:10286800D4BF4FF0000A4FF0010ABEF1040F4E4DDD
:10287800D4BF4FF0000E4FF0010EBCF1040FD4BFCF
:102888004FF0000C4FF0010C85F800A085F801E02E
:1028980085F802C0D4F8F4332B632B781BB96B7816
:1028A800012B02F080802B781BB96B78012B02F08A
:1028B80036812B782BB96B781BB9AB78012B02F0DA
:1028C80041822B78012B01F095842B78012B01F0A4
:1028D800A9842B78012B01F08A86EB781C3305EB51
:1028E80083035B68EB61EA782B799A4215D0EA7822
:1028F8002B799A4206D9EB78052B0ABF2B7B00234C
:10290800DBB22B73EA782B799A4206D2EB78002B4C
:1029180042F06E802B7BDBB22B73EB78DBB22B7132
:10292800EB69C4F8F43094F82533032B00F246849D
:10293800DFE813F099042D04770538050023A36711
:10294800D4EDFD7A94EDAC7A67EE877AC4ED1F7A00
:10295800C4E6D4ED727AD4EDFD6A94EDD47A67EECC
:10296800A67A67EE877AC4ED1E7AD4ED617AD4ED43
:10297800FD6A94EDD37A67EEA67A67EE877AC4ED9E
:102988001F7AABE60023A367E367A7E6ABAA2A3F53
:102998003ACD133F0803002000040048DC02002061
:1029A8005C010020240800206C070020DC050020C2
:1029B800D4ED727AD4EDFD6A94EDD47A67EEA67AF6
:1029C80067EE877AC4ED1E7A94EDFD7A94ED616A1C
:1029D800D4EDD36AD4EDAC7AE6EE267A67EE877A40
:1029E800C4ED1F7A236FC4F88831636FC4F8CC3103
:1029F800D4ED1E7AA44EF1EE677AC4ED637AD4ED75
:102A08001F7AD6ED006A95ED007AE6EE877AA6F58C
:102A18008B60C4ED747AD4F80C33C4F8A831D4EDC3
:102A28006A7AF1EE677AC4ED6B7AD4F81033C4F899
:102A3800EC31D4ED7B7AF1EE677AC4ED7C7AD4F888
:102A4800AC369847D4F8AC36A6F214409847D4F878
:102A5800B031C4F80433D4F8F431C4F80833E37A55
:102A68009FED8A7A9FED8A6AD4EDC57AD4EDB76A6C
:102A7800012B18BFB0EE467A67EE877A67EEA67A22
:102A8800C4EDC37A94EDC37AD4EDC37AD4EDC16AA8
:102A980094EDC10A20EE660AA7EE270AB5EE400AB1
:102AA800F1EE10FAB1EEC08A02F1328279497A4D1C
:102AB800081F002684EDC48A94EDC30A02F048FA80
:102AC800D4EDC16A94ED2B7A94EDC26AD4ED2A7ADA
:102AD800724867EEC67AE6EE877AC4ED577AD4ED87
:102AE800C26A94ED2B7AD4EDC17A94ED2A6A67EE26
:102AF800867AE6EE877AC4ED587AD4F86831C4F855
:102B0800E032D4F86C31C4F8E432D4F87031C4F847
:102B1800E832D4F8B8369847D4F8DC32C4F86431CF
:102B28005F48D4F8B03698475E4B94ED5A0A1B6854
:102B3800D4ED5B0A94ED5C1AD4ED4D1A9847B4466F
:102B4800B646092029692A692B69C1F3C011C2F365
:102B58000022C3F3402301388E4494441E44F1D12B
:102B6800BEF1040FD4BF4FF0000E4FF0010EBCF1C0
:102B7800040F4D4DD4BF4FF0000C4FF0010C042E44
:102B8800D4BF0026012685F800E085F801C0AE70A4
:102B9800D4F8F4332B632B781BB96B78012B01F035
:102BA80015872B781BB96B78012B01F0B0872B7830
:102BB8002BB96B781BB9AB78012B02F0BF802B784F
:102BC800012B01F023832B78012B01F037832B781D
:102BD800012B01F00085EB781C3305EB83035B6860
:102BE800EB61EA782B799A4215D0EA782B799A42E8
:102BF80006D9EB78052B0ABF2B7B0023DBB22B739E
:102C0800EA782B799A4206D2EB78002B41F0F386CA
:102C18002B7BDBB22B73EB78DBB22B71EB69C4F83F
:102C2800F43094F82533032B00F25481DFE813F0D5
:102C38002C023B011702D8010023A367D4EDFD7ACB
:102C480094EDAC7A67EE877AC4ED1F7ACAE6D4EDC4
:102C5800727AD4EDFD6A94EDD47A67EEA67A67EEBF
:102C6800877AC4ED1E7AD4ED617AD4EDFD6A94EDCD
:102C7800D37A67EEA67A67EE877AC4ED1F7AB1E653
:102C88000023A367E367ADE6DC050020ABAA2A3F73
:102C98003ACD133F0803002000040048DC0200205E
:102CA8005C010020240800206C070020BC4E94ED35
:102CB800495AD6ED007A94ED4A7AD4ED554AB4EEE5
:102CC800675AF7EE086AF1EE10FA27EE267A42F014
:102CD8005D80B44BDFF80093D3ED007AD4ED486AF9
:102CE80094ED484AF5EE005A67EEA55A76EEC56AA5
:102CF800C5EE873AB4EEC45A87EE236AF1EE10FAAD
:102D0800F6EE003A26EE236AF0EEE66A06DC94ED6B
:102D1800484AB4EEC45AF1EE10FA25D5B6EE084A80
:102D280067EE847AF4EEE76AF1EE10FA42F35E8019
:102D3800D9ED007AB4EEE77AF1EE10FA24EE866A5D
:102D480005DDD9ED007A76EE277AC9ED007AD9ED5E
:102D5800007AB4EEE77AF1EE10FA05D5D9ED007AEB
:102D680037EEC66A89ED006A94ED487AD9ED007AA3
:102D7800B4EEC75AF0EEE77AF1EE10FA67EEA47AED
:102D880005DD94ED487A37EE877A84ED487A94ED3C
:102D9800487AB4EEC75AF1EE10FA05D594ED487AA0
:102DA80077EE677AC4ED487AD4ED485ADFED7E6A4B
:102DB80094ED557AD4ED4C7A9FED7C6A86ED005AF5
:102DC80027EE267AE5EE877AC4ED4C7AD4ED4C7A74
:102DD800F4EEC67AF1EE10FA41F1C687D4ED4C7ADA
:102DE80077EEA66AC4ED4C6AD4ED487A9FED6E7A08
:102DF80067EE877AC4EDFD7AFEF749BDA36EC4F885
:102E0800A032E36EC4F8A432D4F8FC32C4F8A83275
:102E1800D4F80033C4F8AC32D4F8C43664489847C0
:102E280094EDFF7ADFED637A634BB4EEE77AF1EE67
:102E380010FAD8BF1A78DFED617AD4BFD2B2012276
:102E48001A7094EDFF7AB4EEE77AF1EE10FA56BFF5
:102E58001A780022D2B21A701B78002B3EF400AD0B
:102E6800D4F8F430C4F8E833D4F8D432C4F83031A4
:102E78005348D4F8C8369847FEF709BDA36EC4F87E
:102E8800A032E36EC4F8A432D4F8FC32C4F8A832F5
:102E9800D4F80033C4F8AC32D4F8C4364448984760
:102EA800D4F8D432DEE7D4F8F430C4F8E833D4F8F0
:102EB800C8364348984794EDFF7ADFED427AB4EE7E
:102EC800E77AF1EE10FACCBFD4F8F833D4F8F4303E
:102ED800C4F83031D4EDFD7A9FED3B7AD4EDD66A53
:102EE8003A4B3B4867EE877A87EEA67A84ED0B7AF1
:102EF800226BC4F87023626BC4F87423A26BC4F805
:102F08007823D4F8DC22C4F87C231B69C4F8803306
:102F1800D4F8BC36984794F88433002B40F0BE842C
:102F28002378DBB2DFF8B4A0237094ED067ADAEDEB
:102F3800097AB4EE677AF1EE10FA02D194F8843384
:102F480013B101238AF80030A269CAF82420214B62
:102F5800A26E1A601D46E26E45F8042F1846A26C50
:102F680040F8082F1A46E16C42F80C1F9AF8001036
:102F780000293DF46FABDAF808101C6801F10A0368
:102F88000AEB83031C60DAF80830296803F20A4365
:102F98000AEB83031960DAF808300168FFF786B88E
:102FA800FC07002068070020DB0FC940DB0F49C081
:102FB800A00200200080A243F80700200080894377
:102FC800E803002000004842EBC91841744800207B
:102FD8005C03002064480020600700202C080020C3
:102FE800A36EC4F8A032E36EC4F8A432D4F8FC325D
:102FF800C4F8A832D4F80033C4F8AC32D4F8C436D4
:10300800D848984794EDFF7ADFEDD77AD74BB4EEDE
:10301800E77AF1EE10FAD8BF1A78DFEDD57AD4BF87
:10302800D2B201221A7094EDFF7AB4EEE77AF1EE8B
:1030380010FA56BF1A780022D2B21A701B78002BE9
:103048003FF431AFD4F8F430C4F8E833D4F8D432CC
:10305800C4F83031C748D4F8C83698473AE7A36E61
:10306800C4F8A032E36EC4F8A432D4F8FC32C4F831
:10307800A832D4F80033C4F8AC32D4F8C436B9480E
:103088009847D4F8D432DFE7BB4E94ED495A96ED11
:10309800007AD4ED4A6AD4ED553AB4EE475AF7EEC1
:1030A800087AF1EE10FA66EEA77A41F0D985B34BAB
:1030B800DFF8E89293ED007AD4ED486AD4ED484AF7
:1030C800F5EE005A67EE255A76EEC56A85EEA74AF0
:1030D800B4EEE45A87EE846AF1EE10FAB6EE004ACE
:1030E80026EE046AF0EEE66A01F34A85D4ED484A12
:1030F800B4EEE45AF1EE10FA01F14285D9ED007A06
:1031080094ED487AB4EEC75AF0EEE77AF1EE10FA89
:1031180067EEA37A05DD94ED487A37EE877A84ED79
:10312800487A94ED487AB4EEC75AF1EE10FA05D50C
:1031380094ED487A77EE677AC4ED487AD4ED485A28
:10314800DFED8F6A94ED557AD4ED4C7A86ED005A0E
:1031580027EE267A9FED8B6AE5EE877AC4ED4C7AE6
:10316800D4ED4C7AF4EEC67AF1EE10FA41F1098406
:10317800D4ED4C7A77EEA66AC4ED4C6AD4ED487A61
:103188009FED7F7A67EE877AC4EDFD7AA2E6D4F8E0
:10319800F430C4F8E833D4F8C8367648984794ED44
:1031A800FF7ADFED797AB4EEE77AF1EE10FACCBF68
:1031B800D4F8F833D4F8F430C4F83031D4EDFD7ACB
:1031C8009FED727AD4EDD66A714B724867EE877AB2
:1031D80087EEA67A84ED0B7A226BC4F87023626BB3
:1031E800C4F87423A26BC4F87823D4F8DC22C4F89A
:1031F8007C231B69C4F88033D4F8BC36984794F80C
:103208008433002B40F044872378DBB2DFF890A1A9
:10321800237094ED087ADAED097AB4EE677AF1EE64
:1032280010FA02D194F8843313B101238AF80030DC
:10323800226ACAF82420584B6A691A601846EA6953
:1032480040F8042F1946D4F8F82341F8082F1A46F5
:10325800D4F8D44242F80C4F9AF80040002C3DF4C0
:10326800F9A9FEF710BFD4ED496A96ED007A94EDFE
:103278004A6AD4ED553AF4EE476AF7EE087AF1EE69
:1032880010FA66EE277A41F0CE8498ED007A94ED34
:10329800486AD4ED484AB5EE005A27EE055A36EE8C
:1032A800666A85EE274AF4EEE46AC7EE845AF1EEC0
:1032B80010FAB6EE004A65EE845AB0EEC66A01F31B
:1032C8003684D4ED484AF4EEE46AF1EE10FA01F1DE
:1032D8002E84D9ED007A94ED487AF4EEC76AF0EEC0
:1032E800E77AF1EE10FA67EEA37A05DD94ED487AF5
:1032F80037EE877A84ED487A94ED487AF4EEC76A17
:10330800F1EE10FA05D594ED487A77EE677AC4EDB8
:10331800487A94ED485A9FED1A6A94ED557AD4ED9F
:103328004C7ADFED185AC6ED006A27EE067AE5EE0C
:10333800077AC4ED4C7AD4ED4C7AF4EEE57AF1EEE6
:1033480010FA41F17B84D4ED4C7A37EE866A84ED2D
:103358004C6AD4ED487A9FED0A7A67EE877AC4ED15
:10336800FD7A2BE7A00200200080A243F807002086
:1033780000808943E8030020FC070020680700203C
:10338800DB0FC940DB0F49C000004842EBC91841B8
:10339800744800205C030020644800206007002077
:1033A8002C080020A36EC4F8A032E36EC4F8A4323F
:1033B800D4F8FC32C4F8A832D4F80033C4F8AC32DC
:1033C800D4F8C436B448984794EDFF7ADFEDB37A61
:1033D800B34BB4EEE77AF1EE10FAD8BF1A78DFED06
:1033E800B17AD4BFD2B201221A7094EDFF7AB4EE4A
:1033F800E77AF1EE10FA56BF1A780022D2B21A70A4
:103408001B78002B3FF4C3AED4F8F430C4F8E8338B
:10341800D4F8D432C4F83031A348D4F8C836984721
:10342800CCE6A36EC4F8A032E36EC4F8A432D4F894
:10343800FC32C4F8A832D4F80033C4F8AC32D4F85B
:10344800C43695489847D4F8D432DFE7974E94EDC0
:10345800495AD6ED007A94ED4A7AD4ED554AB4EE3D
:10346800675AF7EE086AF1EE10FA27EE267A41F06D
:103478006D848F4BDFF86092D3ED007AD4ED486A03
:1034880094ED484AF5EE005A67EEA55A76EEC56AFD
:10349800C5EE873AB4EEC45A87EE236AF1EE10FA05
:1034A800F6EE003A26EE236AF0EEE66A06DC94EDC4
:1034B800484AB4EEC45AF1EE10FA25D5B6EE084AD9
:1034C80067EE847AF4EEE76AF1EE10FA41F3AC8421
:1034D800D9ED007AB4EEE77AF1EE10FA24EE866AB6
:1034E80005DDD9ED007A76EE277AC9ED007AD9EDB7
:1034F800007AB4EEE77AF1EE10FA05D5D9ED007A44
:1035080037EEC66A89ED006A94ED487AD9ED007AFB
:10351800B4EEC75AF0EEE77AF1EE10FA67EEA47A45
:103528007FF7FFADF7E50623FEF78DBD614D9FEDF3
:10353800627A2B6801332B60D4ED547A2B6867EEDE
:10354800877AFCEEE77A17EE902A9A423DF676AE35
:10355800D4ED4C7ADFED596A9FED597A77EEA67A69
:10356800C4ED4C7AD4ED4C7AF4EEC77AF1EE10FA49
:1035780040F17086D4ED4C7A9FED527A77EE877AD7
:10358800C4ED4C7A00232B6094F8CD35DFF84CA1BC
:103598000133DBB2012284F8CD358AF80020FDF72B
:1035A8004FBED4EDCA7A9FED487A4849DFED486AA4
:1035B800404B019167EE877A0022C4ED057AC4F882
:1035C800302191ED007A94ED6C6AD1ED007A37EEF6
:1035D800467AE7EE667AC1ED007A1A6801321A6017
:1035E800D4ED547A1A6877EEA77AFCEEE77A17EEEC
:1035F800901A91423DF61EAE00220521A1701A6074
:1036080084F8CD25FDF716BE9FED2D8A9FED319AE2
:10361800DFED2C8A06E077EEA87AC3ED017A013651
:10362800062E28D006F1100206F1160305EB8303D7
:1036380005EB820292ED010AD3ED010A01F07CFC50
:1036480006F11C0305EB830383ED010AD3ED017A30
:10365800F4EEC87AF1EE10FAD3ED017ADBD4F4EE89
:10366800C97AF1EE10FADADDD3ED017A77EEE87A6D
:10367800C3ED017AD3E700230E4A63610021C4F841
:103688008431A361C4F82431C4F8203104231160C3
:10369800A370FDF7B6BF00BFA00200200080A243C0
:1036A800F807002000808943E8030020FC07002079
:1036B8006807002064070020CDCC4C3DFDAD803D5F
:1036C800DB0F49C0DB0FC940CDCC4C3ED0050020F4
:1036D8000AD7A33BDB0F4940600700202C080020D5
:1036E800D4ED547A8F4DFCEEE77A2B6817EE902ACA
:1036F8009A4207D92B68002201332B60C4F8242191
:10370800C4F82021D4ED547A2B68FCEEE77A17EE42
:10371800902A9A420BD8D4EDCC7A9FED837ADFEDCC
:10372800836A67EE877A87EEA67A84ED497A94ED04
:10373800487ADFED7F6AD4ED497A67EEA67AB4EE6F
:10374800E77AF1EE10FA44DD2B6801332B60237918
:10375800002B01F05381D4ED547A2B68B0EE087A2F
:1037680067EE877AFCEEE77A17EE902A9A4230D80D
:10377800237903F0FF0263BBD4EDD57ADFED6D6AE0
:1037880094EDD67ADFED6C5A9FED6C6A67EEA67AF7
:10379800F6EE006A67EE877A002385EEA77A0121A4
:1037A80084EDAC7A94EDAC7AD4EDAC7A27EE277A36
:1037B800C6EE077A67EEA67AC4EDB67AD4F8240185
:1037C800C4F828016069E061C4F82431636121719B
:1037D8002A602379012B7DF41CAF0023002258496D
:1037E8002A60C4F820316361C4F82431C4F8281170
:1037F800D4EDCC7A9FED537A534967EE877A02234A
:10380800C4ED087AA16262710721032284F8273384
:1038180084F82533A1702270FDF7FBBE019B99ED5A
:10382800007AD3ED007AD4ED056A94F8CD3537EEF9
:10383800677A03F58773C7EE267A04EB8303F1EE04
:10384800677AC3ED017A94F8CD35622B7DF6DDAE4B
:103858000023C4F88431C4F8203194EDCA7A3B4B74
:103868009FED316ADFED316A2E493548F5EE007A71
:1038780027EE277A062284ED057AE361D4EDCC7A27
:1038880067EE867A002387EEA67A84ED497AC4F833
:10389800280123710B60A270FDF7B7BE0623FFF75E
:1038A80041BB6B78002B7DF416AEAB78012B7DF411
:1038B80012AE0323EB70FDF737BEB6EE085A27EEBB
:1038C800057AF4EEC76AF1EE10FA40F31D8499ED1B
:1038D800007AF4EEC77AF1EE10FA23EE866A05DD77
:1038E80099ED007A36EE077A89ED007A99ED007A3B
:1038F800F4EEC77AF1EE10FAD9ED007A7DF5DEAA7A
:1039080037EEC66A89ED006AFDF7D6BA6B78002BE8
:103918007DF4E5ADAB78002B7DF4E1AD0423EB70CD
:10392800FDF702BE64070020CDCCCC3DDB0FC940BB
:103938003333733FEF1F2E410000704200007A447A
:10394800000020419A99993E000096430000A0414A
:10395800D4ED0C7A94ED0E7A854B77EEC77A1A4639
:10396800C4ED1D7A616F42F80C1B1946D4F8DC02CD
:1039780041F8100FD2ED006A93ED007AD3ED027A88
:1039880037EE677AD3ED027AE6EE877AA3F1080577
:103998000026183343ED047AD3ED016A91ED007ADD
:1039A800D3ED007A37EE677AD3ED007AE6EE877AC0
:1039B800C3ED007A2E601B68C4F8DC3294ED517AAE
:1039C800D4ED527A94ED556AD4ED506AB4EEE67AA5
:1039D800F1EE10FA67EE867A05DDD4ED506A77EEDF
:1039E800A66AC4ED506AD4ED506AB4EEE67AF1EEF8
:1039F80010FA05D594ED507A77EE677AC4ED507ACF
:103A080094ED507AF7EE007AB4EEE77AF1EE10FA18
:103A18000ADC94ED507AFFEE007AB4EEE77AF1EE24
:103A280010FA58BFD4ED507AC4ED507A94ED500A8C
:103A3800504B94ED501A1B68D4ED4D1ADFED4E0A29
:103A4800B1EE411A9847A26EC4F87023E26EC4F82A
:103A58007423D4F8DC22494BC4F87C231B69C4F8CE
:103A68008033D4F8BC364648984794F88433002B02
:103A780040F06E832378DBB2DFF80CA1237094ED5D
:103A8800067ADAED097AB4EE677AF1EE10FA02D125
:103A980094F8843313B101238AF80030A269CAF874
:103AA8002420384BD4F8F4211A601D46626F45F87B
:103AB800042F1846226B40F8082F1A46A16B42F8CB
:103AC8000C1F9AF8001000293CF4C4ADFFF753BA54
:103AD80094ED497AD4ED4A7A94ED556AD4ED486A62
:103AE800B4EEE67AF1EE10FA67EE867A05DDD4EDEB
:103AF800486A77EEA66AC4ED486AD4ED486AB4EE1F
:103B0800E67AF1EE10FA7DF526AE94ED487A77EE76
:103B1800677AC4ED487AFDF71EBE6B78012B7DF4F9
:103B280003ADAB78002B7DF4FFAC0523EB70FDF7FC
:103B3800FBBCA378012B00F06A85EB78163305EB04
:103B480083035A68EB78163305EB83035A60A3782E
:103B5800022B00F05885EB78103305EB83035A6885
:103B6800EB78103305EB83035A60FDF71ABD00BFED
:103B78000C060020240800200000000074480020E3
:103B88005C030020644800202C080020F54DD4F880
:103B98006831EB61D4F86C312B62D4F870316B6208
:103BA80095ED127AD5ED077ADFEDEF5A9FEDEF6AC2
:103BB800DFEDEF6AEF4A27EE277A40F6BC5085ED35
:103BC800037A95ED127AD5ED087A27EE277A44F62E
:103BD800BC5185ED047A95ED127AD5ED097A27EE78
:103BE800277A40F6BC5685ED057AD5ED037A95ED32
:103BF800045A95ED057A77EE857A77EE877A67EE3F
:103C0800A57AC5ED067A95ED037AD5ED067A37EEF5
:103C1800677A85ED007A95ED047AD5ED067A37EE68
:103C2800677A85ED017A95ED057AD5ED067A37EE56
:103C3800677A85ED027A2B68AB6395ED007AD5ED4E
:103C4800017A67EE867AE7EE267AB7EE087AC5ED4E
:103C58000F7AD5ED197AFEEEC47A17EE903A83FB07
:103C680002894FEA186242EA092202F580025212DA
:103C7800A2F5005343F30D0303FB03F31B1300FBEF
:103C880003F0A1EBA03103FB01F31B14C3F5805330
:103C980051044FEA033348BF5B4207EE903AFAEE0D
:103CA800C47AB448C5ED1B7AD5ED197AFEEEC47A0C
:103CB80017EE903A83FB0001020E42EA01225212EB
:103CC800A2F5005343F30D0303FB03F31B1306FB99
:103CD80003F044F6BC51A1EBA03103FB01F31B1424
:103CE800C3F580531B03520448BF5B4207EE903A6A
:103CF800FAEEC47A0023C5ED1C7A95ED0E6AD5ED6F
:103D08001B6AD5ED0F7AD5ED1C5A67EEA57AE6EE5B
:103D1800267AC5ED107A95ED0E6AD5ED1C6AD5EDBB
:103D28000F7AD5ED1B5A67EEA57AE6EE667AC5EDF1
:103D3800117AD5ED107A95ED0C5AD5ED205A95EDFE
:103D4800226AD5ED136AE5EE657AE6EE267AC5EDC8
:103D5800257AD5ED117A95ED0D5AD5ED205A95EDC8
:103D6800216AD5ED136AE5EE657AE6EE667AC5ED69
:103D7800267AD5ED217A95ED256AD5ED276AE6EE06
:103D8800267AC5ED237AD5ED227A95ED266AD5ED0A
:103D9800276AE6EE267AC5ED247AD5ED237A95EDE5
:103DA800296AD5ED2A6A77EEC67A67EEA67AC5ED56
:103DB8000C7AD5ED247AD5ED2B6A67EEA67AC5ED97
:103DC8000D7AD5ED216A95ED286AD5ED255AD5ED00
:103DD800107AD5ED0C3A95ED204AD5ED224A95EDAD
:103DE800135AE3EEC47AE4EE857A77EEA57AE6EE26
:103DF800276AC5ED216AD5ED226A95ED286AD5EDC9
:103E0800265AD5ED117AD5ED0D3A95ED204AD5ED26
:103E1800214A95ED135AE3EEC47AE4EEC57A77EEBB
:103E2800A57AE6EE276AC5ED226AD5ED217A95EDE9
:103E3800296AD5ED2A6A77EEC67A67EEA67AC5EDC5
:103E48000C7AD5ED227AD5ED2B6A67EEA67AC5ED08
:103E58000D7A95ED0C6AD5ED1B6AD5ED0D5AD5EDA9
:103E68001C7A67EEE57AE6EE267AC5ED0A7A95EDD4
:103E78000C6AD5ED1C6AD5ED0D7AD5ED1B5A67EEA7
:103E8800A57AE6EE267AC5ED0B7AD5ED186AD5ED5A
:103E9800215A95ED0D6A95ED225AD5ED0C7A67EE0B
:103EA800C57A26EE877AE5EE867A67EE877AC5EDDB
:103EB800157AC5F8C430D5ED137AF5EEC07AF1EE6F
:103EC80010FA07DDD5ED307A95ED177A77EE877A17
:103ED800C5ED317AD5ED137AF5EEC07AF1EE10FA28
:103EE80009D5D5ED307A95ED177AF1EE677A77EE48
:103EF800C77AC5ED317A95ED275AD5ED165AD5ED25
:103F0800156A95ED316AD5ED137A85EE257A76EE48
:103F1800C66AF0EEE77A27EE267AF0EEC76AF4EE84
:103F2800E76AF1EE10FA10DDD5ED157AD5ED306AB5
:103F3800F0EEE77AF4EEE67AF1EE10FA05D5DFED69
:103F48000E7AB0EE677AC5ED137AD5ED136ADFED18
:103F58000B5ADFED0B7A9FED0B6A36EE877AFEEE91
:103F6800006A17E0A0480020AAAAAA3E3ACD933FCB
:103F78003ACD133F60BE280000000000EBC918418D
:103F8800D7B35D3FDA0F4940DA0FC9C0DA0F49C02D
:103F9800DA0FC94085ED137A95ED137A27EE257A65
:103FA80085ED147A95ED137AD5ED155A27EE257A15
:103FB80085ED2F7AAB6AC5F8B030D5ED0A5A95ED84
:103FC8000B7A27EE277AA5EEA67A85ED2D7A95ED60
:103FD8000A7AD5ED0B5A67EEE57AE7EE267AC5ED53
:103FE8002E7AD5ED1A7AD5ED276A95ED137AE6EE95
:103FF800877AC5ED1A7AD5ED1A7AF4EEC67AF1EE1B
:1040080010FA07DD95ED1A7A5FED217A77EEC77A17
:10401800C5ED1A7A95ED1A7A5FED247AB4EEE77A4F
:10402800F1EE10FA07D5D5ED1A7A1FED277A77EE5B
:10403800877AC5ED1A7AD5ED1A7AD5ED186A1FED8B
:104048002F7A67EEA67AC5ED197AD5ED197AF4EECE
:10405800C77AF1EE10FA07DD95ED197A5FED367A39
:1040680077EEC77AC5ED197A95ED197A5FED397A49
:10407800B4EEE77AF1EE10FA7DF5EBAFD5ED197AEB
:104088001FED3D7A77EE877AC5ED197AFDF7E1BF26
:104098000623FFF7BBB834EE477ADFF8D483DFF89E
:1040A800D4930023B0EEC77A88ED007AC9F80030BF
:1040B800FCF7E0BEE378012B0CBFD4F84431D4F808
:1040C8004031C4F840310023E370C4F8FC30D4ED2B
:1040D800507AF5EEC07AF1EE10FA4CBF01221A467A
:1040E80084F8AC2394F8AC23012A00F0768494F881
:1040F800AD33002B00F0088594F8AD33013BDBB2FB
:1041080084F8AD33FCF72ABAF4EEE65AF1EE10FA69
:1041180040F3DB82D9ED007AF5EEC07AF1EE10FAC1
:1041280023EE866A05D5D9ED007A76EE277AC9EDB1
:10413800007AD9ED007AF5EEC07AF1EE10FAD9EDF1
:10414800007A3FF7DDABFCF7B9BE0623FCF741BAAE
:10415800062391E4A5F5E673A2691A60D4F8CC3673
:10416800A5F5FA709847A5F5E4731A68C4F8842190
:10417800A5F5E2731B68C4F8C831FCF744BFB64D17
:10418800D4F830312B60D4F8F431A5F5D27045F865
:10419800083DD4F8D0369847FCF73CBEA8F5E6733E
:1041A800A2691A60D4F8CC36A8F5FA709847A8F531
:1041B800E4731A68C4F88421A8F5E2731B68C4F88C
:1041C800C831FCF721BEA44DD4F830312B60D4F8A7
:1041D800F431A5F5D27045F8083DD4F8D0369847A3
:1041E800FCF717BFD4F83021FDF7D2B9D4F8302145
:1041F800FDF7C0B96B78002B7EF467ABAB78012B69
:104208007EF463AB0323EB70FEF767BB6B78002B80
:104218007EF4D9ACAB78012B7EF4D5AC0323EB70DC
:10422800FEF7D9BC6B78002B7EF453ABAB78002B30
:104238007EF44FAB0423EB70FEF74FBB6B78002B7B
:104248007EF4C5ACAB78002B7EF4C1AC0423EB70D4
:10425800FEF7C1BC94ED4C7ADFED807AB4EEE77AD4
:10426800F1EE10FA7FF78EA9D4ED4C7A9FED7C7AA7
:1042780077EEC77AC4ED4C7AFFF784B9D4ED146AA7
:1042880094ED1C7A9FED7D5AC6EE877AC4ED3B7A91
:10429800D4ED555AD4ED556A94ED2C7A94ED3B6AD9
:1042A800D4ED2C7A76EE856A37EE467A85EEA66AE4
:1042B800E6EE477AC4ED2C7AD4F80031D4ED547A7E
:1042C800FCEEE77A17EE902A934220D300230222CD
:1042D800C4F88451C4F80031C4F87051C4F86C5162
:1042E800C4F8685162709BED007ADFED5E7AB4EE37
:1042F800E77AF1EE10FA0AD5072001215A4A84F824
:104308005C0384F88413C4F8B020C4F80031DFF8E3
:1043180068A101238AF80030FDF76EBE94ED554A76
:10432800DFED565A94ED556A94ED347AD4ED156A5A
:10433800D4ED347A9FED4D5A36EE256AF0EEE66AF2
:10434800C4EE064A37EE667AE4EEC77AC4ED347AEC
:10435800D4ED554A94ED556A94ED367AD4ED1D6A3C
:10436800D4ED367A36EE256AF0EEE66AC4EE865A61
:1043780037EE667AE5EEC77AC4ED367AD4F80031BE
:1043880094EDCD7AD4ED567A27EE057AF8EE677A71
:1043980067EE277AFCEEE77A17EE902A93421DD350
:1043A80094ED347AD4ED387AB4EEE77AF1EE10FA77
:1043B800CCBFD4F8D030D4F8E030C4F8E03094ED75
:1043C800367AD4ED397AB4EEE77AF1EE10FACCBF4A
:1043D800D4F8D830D4F8E430C4F8E430DFF898A042
:1043E80001238AF80030D4ED386A94ED397AC6EEA4
:1043F800877AC4ED307A94ED307AD4ED307AD4ED02
:104408002C6A94ED2C0A20EE660AA7EE270AB5EE70
:10441800400AF1EE10FAB1EEC08A00F1718584ED20
:10442800318AD4ED316A9FED0E7AD4ED487A67EE81
:10443800877A86EEA77A84ED2D7AD4F8B430C4F85A
:10444800BC30FDF7EFBE94ED307A67EE877AC4EDA5
:10445800037AFDF705BF00BFE0050020DB0F4940E8
:10446800DB0FC940CDCCCC3D000080BF3333B33F18
:1044780068070020600700202C080020CDCC4C3DA8
:10448800D4ED554A5FED035A94ED556A94ED347AAC
:10449800D4ED146AD4ED347ADFF8D8A336EE256A61
:1044A800F0EEE66A84EE865A37EE667AE5EE477AEB
:1044B800C4ED347A94ED555A94ED556A94ED367AF4
:1044C800D4ED1C6AD4ED367A36EE256AF0EEE66A4B
:1044D800C5EE065A37EE667AE5EEC77AC4ED367A47
:1044E80094ED347AD4ED347AB4EE677AF1EE10FABA
:1044F8000CBFD4F8D0300023C4F8D03094ED367A0D
:10450800D4ED367AB4EE677AF1EE10FA0CBFD4F82F
:10451800D8300023C4F8D83094ED347AD4ED387A02
:10452800B4EEE77AF1EE10FACCBFD4F8D030D4F874
:10453800E030C4F8E03094ED367AD4ED397AB4EE50
:10454800E77AF1EE10FACCBFD4F8D830D4F8E430DA
:10455800C4F8E43001238AF80030D4ED386A94EDC9
:10456800397AC6EE877AC4ED307A94ED307AD4ED94
:10457800307AD4ED2C6A94ED2C0A20EE660AA7EE68
:10458800270AB5EE400AF1EE10FAB1EEC08A00F142
:10459800BB8484ED318AD4ED316A9FEDB17AD4EDD4
:1045A800487A67EE877A86EEA77A84ED2D7AD4F872
:1045B800B430C4F8B83094ED2E7AD4ED2E7AB4EE37
:1045C800677AF1EE10FA0CBFD4F8B8300023C4F8BB
:1045D800B830FDF7D6BE6B78012B7EF4FCAAAB7819
:1045E800002B7EF4F8AA0523EB70FEF7F4BA6B787B
:1045F800012B7EF472A9AB78002B7EF46EA90523FB
:10460800EB70FEF76AB9D4F83021FFF7A9BAD4F8ED
:104618003021FFF797BAA37A012B7CF4F4AC94ED20
:10462800FF7AD4ED287AB4EEE77AF1EE10FA4CBFAF
:10463800D4F8C831D4F88431C4F8843194EDFF7AC1
:10464800D4ED287AF7EE086A67EEA67AB4EEE77A30
:10465800F1EE10FAD4BFD4F884310023C4F88431C1
:10466800FCF7D1BCA37A012B7CF4CEAB94EDFF7A96
:10467800D4ED287AB4EEE77AF1EE10FA4CBFD4F80C
:10468800C831D4F88431C4F8843194EDFF7AD4ED7C
:10469800287AF7EE086A67EEA67AB4EEE77AF1EEC2
:1046A80010FAD4BFD4F884310023C4F88431FCF75D
:1046B800ABBB6B78002B7CF4B4AAAB78012B7CF4F1
:1046C800B0AA0323EB70FCF7B4BAC9ED007AFCF783
:1046D800F5BB6B78002B7CF4A8AAAB78002B7CF494
:1046E800A4AA0423EB70FCF7A4BA5E4E94ED495AD1
:1046F800D6ED007A94ED4A7AD4ED554AB4EE675A6D
:10470800F7EE086AF1EE10FA27EE267A40F0C78233
:10471800554BDFF86491D3ED007AD4ED486A94EDF7
:10472800484AF5EE005A67EEA55A76EEC56AC5EE18
:10473800873AB4EEC45A87EE236AF1EE10FAF6EE21
:10474800003A26EE236AF0EEE66A06DC94ED484A63
:10475800B4EEC45AF1EE10FA25D5B6EE084A67EE63
:10476800847AF4EEE76AF1EE10FA40F31D83D9ED8E
:10477800007AB4EEE77AF1EE10FA24EE866A05DDE7
:10478800D9ED007A76EE277AC9ED007AD9ED007A6C
:10479800B4EEE77AF1EE10FA05D5D9ED007A37EEE6
:1047A800C66A89ED006A94ED487AD9ED007AB4EECC
:1047B800C75AF0EEE77AF1EE10FA67EEA47A05DD53
:1047C80094ED487A37EE877A84ED487A94ED487A02
:1047D800B4EEC75AF1EE10FA05D594ED487A77EEA3
:1047E800677AC4ED487AD4ED485ADFED1D6A94ED36
:1047F800557AD4ED4C7A9FED1D6A86ED005A27EE66
:10480800267AE5EE877AC4ED4C7AD4ED4C7AF4EE4C
:10481800C67AF1EE10FA40F13182D4ED4C7A77EE97
:10482800A66AC4ED4C6AD4ED4C7A9FED117A77EE06
:10483800877AFCEEE77ACDED017A9DF8043084F8AA
:10484800AD3394F8AD33052B9BBF94F8AD3394F892
:10485800AD330523DBB284F8AD33FBF762BE00BF8E
:10486800DB0FC940FC07002068070020DB0F49C0A8
:10487800DB0F49402C080020600700200026D54D9A
:10488800B446B646092029692A692B69C1F3C011C3
:10489800C2F30022C3F3402301388E4494441E44DB
:1048A800F1D1BEF1040FD4BF4FF0000E4FF0010E4E
:1048B800BCF1040FC84DD4BF4FF0000C4FF0010CF1
:1048C800042ED4BF0026012685F800E085F801C033
:1048D800AE702B781BB96B78012B00F0F1822B7826
:1048E8001BB96B78012B00F0F5822B782BB96B780C
:1048F8001BB9AB78012B00F0F8822B78012B00F064
:10490800B1822B78012B00F0B8822B78012B00F0B4
:10491800BF82EB781C3305EB83035B68EB61EA78B5
:104928002B799A4215D0EA782B799A4206D9EB78F6
:10493800052B0ABF2B7B0023DBB22B73EA782B797C
:104948009A4206D2EB78002B40F0B8822B7BDBB280
:104958002B73EB78DFEDA17A9FEDA57ADBB22B7193
:10496800EB69C4F8F430EB7806EE903AF8EE666A34
:10497800E6EEA77A77EE677AC4ED4C7AEB78DBB28D
:1049880069E794ED4C7ADFED9A7AB4EEE77AF1EEC6
:1049980010FA7EF7F3ABD4ED4C7A77EEE66AC4ED05
:1049A8004C6AFEF7EBBBAB78002B7DF47CAFE8706C
:1049B800FDF793BF6B78012B7CF43BA9AB78002BF8
:1049C8007CF437A90523EB70FCF733B9AB78002BDF
:1049D8007EF4E7A8E870FEF7FEB894F8AD23042A41
:1049E8003FF68EAB94F8AD330133DBB2FFF788BBEB
:1049F8000123FDF791BF0123FEF70CB994EDC17AAD
:104A0800DBED005A94EDD26ADFED756AD4EDB77A22
:104A1800A5EEC67A67EEA67A87EE276A84EDC76A9E
:104A280094EDC27AD8ED005A94EDD26AD4EDB77AF3
:104A3800A5EEC67A67EEA67AC7EE276AC4EDC66AFF
:104A480094EDC77AD4EDC77A94EDC60AD4EDC66A58
:104A580020EE260AA7EE270AB5EE400AF1EE10FA74
:104A6800B1EEC08A00F15C8284ED508AD4ED487AB8
:104A7800DFED5C6A9FED5C7A9FED5C5A67EEA67A83
:104A8800F6EE006AC4EDFD7AD4EDFD7A94EDD66AAF
:104A980067EE877A87EE867A84ED0B7A94ED0B6A57
:104AA80094ED507AD4EDB75AD4EDD67A27EE257A1C
:104AB80067EEA67AC6EE076A86EEA77A8DED057AC6
:104AC800D4ED555AD4ED556A94EDD57A9DED056A25
:104AD800D4EDD57A76EE856A37EE467A85EEA66A03
:104AE800E6EE477AC4EDD57A94EDD57AD4EDD57A49
:104AF800B4EE677AF1EE10FA0CBFD4F85433002301
:104B0800C4F85433FEF727BE0523FFF7F9BAAB788C
:104B1800DBB2012B7EF44BA8EB70FEF75CB8AB78E8
:104B2800DBB2012B7DF4C5AEEB70FDF7D6BEF6EE19
:104B3800084A27EE247AB4EEC76AF1EE10FA40F379
:104B4800BB8099ED007AF4EEC77AF1EE10FA63EEC5
:104B5800A55A05DD99ED007A35EE877A89ED007A58
:104B680099ED007AF4EEC77AF1EE10FAD9ED007AF1
:104B78007EF5B1AB77EEE55AC9ED005AFEF7A9BB51
:104B8800F6EE084A27EE247AF4EEC76AF1EE10FA38
:104B980040F3B38099ED007AF4EEC77AF1EE10FA9B
:104BA80023EE866A05DD99ED007A36EE077A89EDFF
:104BB800007A99ED007AF4EEC77AF1EE10FAD9EDA1
:104BC800007A7EF59DAA37EEC66A89ED006AFEF77F
:104BD80095BA00BF000400486C070020920A863F7F
:104BE8003ACD933FDB0FC940EBC91841CDCCCC3D42
:104BF800DB0F4940AB78002B7CF401A8EE70FCF782
:104C080018B803210022617000236272FDF7D3BB3C
:104C18000123FCF72DB8AB78DBB2012B7BF4F5AFA1
:104C2800EB70FCF706B836EEC77A0023B0EEC77A09
:104C380088ED007AC9F80030FEF729BB94ED4C7A6C
:104C48005FED157AB4EEE77AF1EE10FA7EF781ABF4
:104C5800D4ED4C7A37EEC66A84ED4C6AFEF779BB20
:104C680035EE477AB04ADFF8C8920023B0EEC77A2B
:104C780082ED007AC9F80030FEF71EBA94ED4C7A3E
:104C8800DFEDAA7AB4EEE77AF1EE10FA7FF7CBAD52
:104C9800D4ED4C7A77EEE66AC4ED4C6AC3E575EE5E
:104CA800677AA14ADFF888920023F0EEE77AC2ED2E
:104CB800007AC9F8003030E5B4EEC65AF1EE10FAC1
:104CC80040F3F580D9ED007AF5EEC07AF1EE10FAEE
:104CD80063EEA55A05D5D9ED007A75EEA77AC9ED28
:104CE800007AD9ED007AF5EEC07AF1EE10FAD9ED36
:104CF800007A3FF73FAFFEF7EEBAF4EEE65AF1EE70
:104D080010FA40F3D080D9ED007AF5EEC07AF1EED2
:104D180010FA23EE866A05D5D9ED007A76EE277A61
:104D2800C9ED007AD9ED007AF5EEC07AF1EE10FA05
:104D3800D9ED007A3FF747AFFEF7E2B90223EB70EF
:104D4800FDF749BF0223EB70FDF7C7BD75EE677A23
:104D5800754ADFF8DC910023F0EEE77AC2ED007ABD
:104D6800C9F80030FEF78ABB94ED4C7ADFED6F7A14
:104D7800B4EEE77AF1EE10FA7EF736A8D4ED4C7A65
:104D880077EEE66AC4ED4C6AFEF72EB875EE677AE0
:104D9800654ADFF89C910023F0EEE77AC2ED007ACD
:104DA800C9F80030FDF79ABFF4EEE65AF1EE10FAB2
:104DB80040F38180D9ED007AF5EEC07AF1EE10FA71
:104DC80024EE866A05D5D9ED007A76EE277AC9ED04
:104DD800007AD9ED007AF5EEC07AF1EE10FA7FF795
:104DE800E2ACDAE40223EB70FBF723BFF4EEE65AF9
:104DF800F1EE10FA6ADDD9ED007AF5EEC07AF1EE3F
:104E080010FA24EE866A05D5D9ED007A76EE277A6F
:104E1800C9ED007AD9ED007AF5EEC07AF1EE10FA14
:104E28007DF7A2AFFDF79ABFF4EEE65AF1EE10FA5D
:104E380057DDD9ED007AF5EEC07AF1EE10FA24EEDE
:104E4800866A05D5D9ED007A76EE277AC9ED007A1B
:104E5800D9ED007AF5EEC07AF1EE10FA7EF754AB90
:104E6800FEF74CBB6B78002B7FF44BADAB78012B76
:104E78007FF447AD0323EB704BE56B78002B7FF491
:104E880044ADAB78002B7FF440AD0423EB7040E5D4
:104E98006B78012B7FF43DADAB78002B7FF439ADF7
:104EA8000523EB7035E5C9ED007AFEF729B9C9EDA0
:104EB800007AFEF710BA89ED007A74E4012347E519
:104EC800AB78002B7FF40BADE87022E589ED007A12
:104ED800FDF74ABFAB78DBB2012B7FF406ADEB7070
:104EE80017E589ED007AFEF70FBB0223EB7010E59A
:104EF80000F026F8FCF772BA00F022F8FBF7FFBDC5
:104F080000F01EF8FFF78BBA00F01AF8FFF741BB64
:104F180000F016F8FDF7CABD00F012F8FDF743BC23
:104F280000F00EF8A0E500BF68070020DB0F49403D
:104F380060070020000000005FF800F0D9BE0008FC
:104F48005FF800F065C200085FF800F055C000087F
:084F58005FF800F0B9BC00088D
:104F600081F0004102E000BF83F0004330B54FEA1A
:104F700041044FEA430594EA050F08BF90EA020F87
:104F80001FBF54EA000C55EA020C7FEA645C7FEA1A
:104F9000655C00F0E2804FEA5454D4EB5555B8BF3D
:104FA0006D420CDD2C4480EA020281EA030382EAAE
:104FB000000083EA010180EA020281EA0303362D40
:104FC00088BF30BD11F0004F4FEA01314FF4801C13
:104FD0004CEA113102D0404261EB410113F0004F25
:104FE0004FEA03334CEA133302D0524263EB4303DC
:104FF00094EA050F00F0A780A4F10104D5F1200E7A
:105000000DDB02FA0EFC22FA05F2801841F10001D4
:1050100003FA0EF2801843FA05F359410EE0A5F1A8
:1050200020050EF1200E012A03FA0EFC28BF4CF0D9
:10503000020C43FA05F3C01851EBE37101F000458F
:1050400007D54FF0000EDCF1000C7EEB00006EEB9C
:105050000101B1F5801F1BD3B1F5001F0CD3490826
:105060005FEA30004FEA3C0C04F101044FEA44527D
:1050700012F5800F80F09A80BCF1004F08BF5FEA04
:10508000500C50F1000041EB045141EA050130BDE4
:105090005FEA4C0C404141EB010111F4801FA4F187
:1050A0000104E9D191F0000F04BF01460020B1FADC
:1050B00081F308BF2033A3F10B03B3F120020CDA14
:1050C0000C3208DD02F1140CC2F10C0201FA0CF0F2
:1050D00021FA02F10CE002F11402D8BFC2F1200C57
:1050E00001FA02F120FA0CFCDCBF41EA0C0190400D
:1050F000E41AA2BF01EB0451294330BD6FEA040456
:105100001F3C1CDA0C340EDC04F11404C4F1200240
:1051100020FA04F001FA02F340EA030021FA04F352
:1051200045EA030130BDC4F10C04C4F1200220FAA9
:1051300002F001FA04F340EA0300294630BD21FAE7
:1051400004F0294630BD94F0000F83F4801306BFAD
:1051500081F480110134013D4EE77FEA645C18BFA1
:105160007FEA655C29D094EA050F08BF90EA020F38
:1051700005D054EA000C04BF1946104630BD91EA30
:10518000030F1EBF0021002030BD5FEA545C05D133
:105190004000494128BF41F0004130BD14F5800472
:1051A0003CBF01F5801130BD01F0004545F0FE41E6
:1051B00041F470014FF0000030BD7FEA645C1ABF1B
:1051C000194610467FEA655C1CBF0B46024650EA52
:1051D000013406BF52EA033591EA030F41F400217E
:1051E00030BD00BF90F0000F04BF0021704730B504
:1051F0004FF4806404F132044FF000054FF00001D9
:1052000050E700BF90F0000F04BF0021704730B599
:105210004FF4806404F1320410F0004548BF40426E
:105220004FF000013EE700BF42004FEAE2014FEAC3
:1052300031014FEA02701FBF12F07F4393F07F4F9E
:1052400081F06051704732F07F4208BF704793F0A1
:105250007F4F04BF41F40021704730B54FF46074B4
:1052600001F0004521F000411CE700BF50EA0102B7
:1052700008BF704730B54FF000050AE050EA010260
:1052800008BF704730B511F0004502D5404261EBD0
:1052900041014FF4806404F132045FEA915C3FF411
:1052A000D8AE4FF003025FEADC0C18BF03325FEAAE
:1052B000DC0C18BF033202EBDC02C2F1200300FA5F
:1052C00003FC20FA02F001FA03FE40EA0E0021FA84
:1052D00002F11444BDE600BF70B54FF0FF0C4CF472
:1052E000E06C1CEA11541DBF1CEA135594EA0C0F24
:1052F00095EA0C0F00F0DEF82C4481EA030621EA5F
:105300004C5123EA4C5350EA013518BF52EA033599
:1053100041F4801143F4801338D0A0FB02CE4FF04B
:105320000005E1FB02E506F00042E0FB03E54FF07B
:105330000006E1FB03569CF0000F18BF4EF0010E73
:10534000A4F1FF04B6F5007F64F5407404D25FEA6F
:105350004E0E6D4146EB060642EAC62141EA555122
:105360004FEAC52040EA5E504FEACE2EB4F1FD0C64
:1053700088BFBCF5E06F1ED8BEF1004F08BF5FEAE2
:10538000500E50F1000041EB045170BD06F0004694
:1053900046EA010140EA020081EA0301B4EB5C0441
:1053A000C2BFD4EB0C0541EA045170BD41F4801139
:1053B0004FF0000E013C00F3AB8014F1360FDEBF5E
:1053C000002001F0004170BDC4F10004203C35DA3A
:1053D0000C341BDC04F11404C4F1200500FA05F3BD
:1053E00020FA04F001FA05F240EA020001F000425E
:1053F00021F0004110EBD37021FA04F642EB0601D4
:105400005EEA430E08BF20EAD37070BDC4F10C04FD
:10541000C4F1200500FA04F320FA05F001FA04F2C1
:1054200040EA020001F0004110EBD37041F10001AD
:105430005EEA430E08BF20EAD37070BDC4F12005B8
:1054400000FA05F24EEA020E20FA04F301FA05F220
:1054500043EA020321FA04F001F0004121FA04F2C8
:1054600020EA020000EBD3705EEA430E08BF20EA98
:10547000D37070BD94F0000F0FD101F000464000D2
:1054800041EB010111F4801F08BF013CF7D041EA54
:10549000060195F0000F18BF704703F00046520058
:1054A00043EB030313F4801F08BF013DF7D043EA29
:1054B0000603704794EA0C0F0CEA135518BF95EADF
:1054C0000C0F0CD050EA410618BF52EA4306D1D166
:1054D00081EA030101F000414FF0000070BD50EA85
:1054E000410606BF1046194652EA430619D094EA0F
:1054F0000C0F02D150EA013613D195EA0C0F05D1F9
:1055000052EA03361CBF104619460AD181EA03014C
:1055100001F0004141F0FE4141F470014FF0000004
:1055200070BD41F0FE4141F4780170BD70B54FF09F
:10553000FF0C4CF4E06C1CEA11541DBF1CEA13551F
:1055400094EA0C0F95EA0C0F00F0A7F8A4EB050401
:1055500081EA030E52EA03354FEA013100F08880F8
:105560004FEA03334FF0805545EA131343EA1263C1
:105570004FEA022245EA111545EA10654FEA002676
:105580000EF000419D4208BF964244F1FD0404F52F
:10559000407402D25B084FEA3202B61A65EB03058B
:1055A0005B084FEA32024FF480104FF4002CB6EB48
:1055B000020E75EB030E22BFB61A754640EA0C00C8
:1055C0005B084FEA3202B6EB020E75EB030E22BF08
:1055D000B61A754640EA5C005B084FEA3202B6EB49
:1055E000020E75EB030E22BFB61A754640EA9C0008
:1055F0005B084FEA3202B6EB020E75EB030E22BFD8
:10560000B61A754640EADC0055EA060E18D04FEA95
:10561000051545EA16754FEA06164FEAC30343EA35
:1056200052734FEAC2025FEA1C1CC0D111F4801F02
:105630000BD141EA00014FF000004FF0004CB6E7FB
:1056400011F4801F04BF01430020B4F1FD0C88BF9A
:10565000BCF5E06F3FF6AFAEB5EB030C04BFB6EBA5
:10566000020C5FEA500C50F1000041EB045170BD98
:105670000EF0004E4EEA113114EB5C04C2BFD4EBC5
:105680000C0541EA045170BD41F480114FF0000E49
:10569000013C90E645EA060E8DE60CEA135594EAC5
:1056A0000C0F08BF95EA0C0F3FF43BAF94EA0C0FC8
:1056B0000AD150EA01347FF434AF95EA0C0F7FF43D
:1056C00025AF104619462CE795EA0C0F06D152EA91
:1056D00003353FF4FDAE1046194622E750EA410675
:1056E00018BF52EA43067FF4C5AE50EA41047FF486
:1056F0000DAF52EA43057FF4EBAE12E74FEA4102E9
:10570000B2F1E04324BFB3F5001CDCF1FE5C0DD91F
:1057100001F0004C4FEAC0024CEA5070B2F1004F69
:1057200040EB830008BF20F00100704711F0804F6C
:1057300021D113F13872BCBF01F00040704741F431
:1057400080114FEA5252C2F11802C2F1200C10FA35
:105750000CF320FA02F018BF40F001004FEAC12319
:105760004FEAD32303FA0CFC40EA0C0023FA02F3BD
:105770004FEA4303CCE77FEA625307D150EA013393
:105780001EBF4FF0FE4040F44000704701F0004063
:1057900040F0FE4040F40000704700BF0348044B57
:1057A000834202D0034B03B11847704744070020DF
:1057B000440700200000000005480649091A891026
:1057C00001EBD171491002D0034B03B11847704768
:1057D00044070020440700200000000010B5064CDC
:1057E000237843B9FFF7DAFF044B13B10448AFF352
:1057F00000800123237010BD44070020000000003A
:1058000038C7000808B5054B1BB105490548AFF37B
:105810000080BDE80840FFF7CFBF00BF00000000D8
:105820004807002038C7000890ED027AD0ED006AE2
:10583000D0ED017ADFED225AB7EE005A85EE076A05
:10584000B6EE007A67EE867A66EE866A67EEA57A2D
:10585000F1EE665AB0EE676AA5EE876AD5EE877AF2
:10586000F4EEC66AF1EE10FAD4BFB0EE467AB0EEAE
:10587000667AB4EEE77AD4BFF0EE665AF0EE465A96
:10588000F1EE10FA19D4F4EE675AF1EE10FAC8BF2F
:10589000F0EE675A37EE257AF6EE005AB1EE477A07
:1058A000E7EE256AA7EE256AE7EE257AC0ED036AE2
:1058B00080ED046AC0ED057A7047B0EE677AE9E7DB
:1058C000D7B35D3FD0ED007A90ED017A77EEC77ADD
:1058D000C0ED037AD0ED047A90ED037A67EE877A13
:1058E000C0ED057AD0ED0D6A90ED037AD0ED067A21
:1058F000E6EE877AC0ED067A90ED0F7AD0ED037A66
:10590000D0ED106A77EEE67A67EE877AC0ED077A17
:1059100090ED097AD0ED057AD0ED076A77EEA67A98
:10592000F0EEE77A77EE677AC0ED0C7A90ED067AC2
:10593000D0ED0C7AB4EEE77AF1EE10FA30DDD0ED6E
:105940000C7AC0ED067AD0ED057A90ED066AD0EDBE
:10595000076A90ED027A77EE867A77EEA67A77EE8E
:10596000877AC0ED087A90ED087AD0ED097AB4EE26
:10597000E77AF1EE10FA04DD436AC362C368036498
:10598000704790ED087AD0ED0A7AB4EEE77AF1EE3E
:1059900010FA4CBF836A036AC362C368036470472A
:1059A00090ED067AD0ED0C7AF1EE677AB4EEE77AF4
:1059B000F1EE10FA4ABFD0ED0C7AD0ED067AF1EE96
:1059C000677ABEE7D0ED007A9FED2B7A67EE877A93
:1059D000B0EE007AC0ED117AD0ED116AD0ED015A27
:1059E000D0ED027A90ED036AD5EE877A77EEC67A2B
:1059F00067EEA67AC0ED057AD0ED116AD0ED025AB5
:105A0000D0ED017A90ED036AD5EE877A77EEC67A0B
:105A100067EEA67AC0ED067AD0ED116AD0ED035A92
:105A2000D0ED027A90ED016AD5EE877A77EEC67AEC
:105A300067EEA67AC0ED077A037C5BB1D0ED057AFC
:105A4000F1EE677AC0ED057AD0ED067AF1EE677A6D
:105A5000C0ED067A43690362D0ED056A9FED076ADF
:105A6000D0ED067A9FED067A67EE867AE6EE877AC3
:105A7000C0ED097A704700BFAAAAAA3E3ACD933F6B
:105A80003ACD133F2DED028BD0ED066A90ED000A62
:105A900090ED067AD0ED010AD0ED058A90ED008AEE
:105AA00090ED051AD0ED011A90ED044AD0ED044AAC
:105AB000D0ED075A90ED076AD0ED097A90ED095ABA
:105AC00027EE207A66EE806A35EE475A77EEC77A7F
