:020000040800F2
:10000000000002205D110108850101088701010837
:10001000890101088B0101088D0101080000000021
:100020000000000000000000000000008F01010837
:1000300091010108000000009301010895010108E9
:10004000AD110108AD110108AD110108AD11010894
:10005000AD110108AD110108AD110108AD11010884
:10006000AD110108AD110108AD110108AD11010874
:10007000AD110108AD110108AD110108AD11010864
:10008000D1010108AD110108B9220008AD11010824
:10009000AD110108AD110108AD110108970101086A
:1000A000AD110108AD110108AD110108AD11010834
:1000B00015B70008AD110108AD110108AD11010817
:1000C000AD110108AD110108AD110108AD11010814
:1000D000AD110108AD11010809020108AD110108B7
:1000E000AD110108AD110108AD110108AD110108F4
:1000F000AD110108AD110108AD110108AD110108E4
:10010000AD110108AD110108AD110108AD110108D3
:10011000AD110108AD110108AD11010899010108E7
:10012000AD110108AD110108AD110108AD110108B3
:10013000AD110108AD110108AD110108AD110108A3
:10014000AD110108AD110108AD110108AD11010893
:10015000AD110108AD110108AD110108AD11010883
:10016000AD110108B9010108AD110108AD11010877
:10017000AD110108AD110108AD110108AD11010863
:10018000AD110108AD110108AD110108AD11010853
:10019000AD11010800000000AD110108AD1101080A
:1001A000AD110108AD110108AD110108AD11010833
:1001B000AD110108AD110108AD110108AD11010823
:1001C000AD110108AD110108AD110108AD11010813
:0801D000AD110108AD11010899
:1001D80081F0004102E000BF83F0004330B54FEAF0
:1001E80041044FEA430594EA050F08BF90EA020F5D
:1001F8001FBF54EA000C55EA020C7FEA645C7FEAF0
:10020800655C00F0E2804FEA5454D4EB5555B8BF12
:100218006D420CDD2C4480EA020281EA030382EA83
:10022800000083EA010180EA020281EA0303362D15
:1002380088BF30BD11F0004F4FEA01314FF4801CE8
:100248004CEA113102D0404261EB410113F0004FFA
:100258004FEA03334CEA133302D0524263EB4303B1
:1002680094EA050F00F0A780A4F10104D5F1200E4F
:100278000DDB02FA0EFC22FA05F2801841F10001AA
:1002880003FA0EF2801843FA05F359410EE0A5F17E
:1002980020050EF1200E012A03FA0EFC28BF4CF0AF
:1002A800020C43FA05F3C01851EBE37101F0004565
:1002B80007D54FF0000EDCF1000C7EEB00006EEB72
:1002C8000101B1F5801F1BD3B1F5001F0CD34908FC
:1002D8005FEA30004FEA3C0C04F101044FEA445253
:1002E80012F5800F80F09A80BCF1004F08BF5FEADA
:1002F800500C50F1000041EB045141EA050130BDBA
:100308005FEA4C0C404141EB010111F4801FA4F15C
:100318000104E9D191F0000F04BF01460020B1FAB1
:1003280081F308BF2033A3F10B03B3F120020CDAE9
:100338000C3208DD02F1140CC2F10C0201FA0CF0C7
:1003480021FA02F10CE002F11402D8BFC2F1200C2C
:1003580001FA02F120FA0CFCDCBF41EA0C019040E2
:10036800E41AA2BF01EB0451294330BD6FEA04042B
:100378001F3C1CDA0C340EDC04F11404C4F1200216
:1003880020FA04F001FA02F340EA030021FA04F328
:1003980045EA030130BDC4F10C04C4F1200220FA7F
:1003A80002F001FA04F340EA0300294630BD21FABD
:1003B80004F0294630BD94F0000F83F4801306BF83
:1003C80081F480110134013D4EE77FEA645C18BF77
:1003D8007FEA655C29D094EA050F08BF90EA020F0E
:1003E80005D054EA000C04BF1946104630BD91EA06
:1003F800030F1EBF0021002030BD5FEA545C05D109
:100408004000494128BF41F0004130BD14F5800447
:100418003CBF01F5801130BD01F0004545F0FE41BB
:1004280041F470014FF0000030BD7FEA645C1ABFF0
:10043800194610467FEA655C1CBF0B46024650EA27
:10044800013406BF52EA033591EA030F41F4002153
:1004580030BD00BF90F0000F04BF0021704730B5D9
:100468004FF4806404F132044FF000054FF00001AE
:1004780050E700BF90F0000F04BF0021704730B56F
:100488004FF4806404F1320410F0004548BF404244
:100498004FF000013EE700BF42004FEAE2014FEA99
:1004A80031014FEA02701FBF12F07F4393F07F4F74
:1004B80081F06051704732F07F4208BF704793F077
:1004C8007F4F04BF41F40021704730B54FF460748A
:1004D80001F0004521F000411CE700BF50EA01028D
:1004E80008BF704730B54FF000050AE050EA010236
:1004F80008BF704730B511F0004502D5404261EBA6
:1005080041014FF4806404F132045FEA915C3FF4E6
:10051800D8AE4FF003025FEADC0C18BF03325FEA83
:10052800DC0C18BF033202EBDC02C2F1200300FA34
:1005380003FC20FA02F001FA03FE40EA0E0021FA59
:1005480002F11444BDE600BF70B54FF0FF0C4CF447
:10055800E06C1CEA11541DBF1CEA135594EA0C0FF9
:1005680095EA0C0F00F0DEF82C4481EA030621EA34
:100578004C5123EA4C5350EA013518BF52EA03356F
:1005880041F4801143F4801338D0A0FB02CE4FF021
:100598000005E1FB02E506F00042E0FB03E54FF051
:1005A8000006E1FB03569CF0000F18BF4EF0010E49
:1005B800A4F1FF04B6F5007F64F5407404D25FEA45
:1005C8004E0E6D4146EB060642EAC62141EA5551F8
:1005D8004FEAC52040EA5E504FEACE2EB4F1FD0C3A
:1005E80088BFBCF5E06F1ED8BEF1004F08BF5FEAB8
:1005F800500E50F1000041EB045170BD06F000466A
:1006080046EA010140EA020081EA0301B4EB5C0416
:10061800C2BFD4EB0C0541EA045170BD41F480110E
:100628004FF0000E013C00F3AB8014F1360FDEBF33
:10063800002001F0004170BDC4F10004203C35DA0F
:100648000C341BDC04F11404C4F1200500FA05F392
:1006580020FA04F001FA05F240EA020001F0004233
:1006680021F0004110EBD37021FA04F642EB0601A9
:100678005EEA430E08BF20EAD37070BDC4F10C04D3
:10068800C4F1200500FA04F320FA05F001FA04F297
:1006980040EA020001F0004110EBD37041F1000183
:1006A8005EEA430E08BF20EAD37070BDC4F120058E
:1006B80000FA05F24EEA020E20FA04F301FA05F2F6
:1006C80043EA020321FA04F001F0004121FA04F29E
:1006D80020EA020000EBD3705EEA430E08BF20EA6E
:1006E800D37070BD94F0000F0FD101F000464000A8
:1006F80041EB010111F4801F08BF013CF7D041EA2A
:10070800060195F0000F18BF704703F0004652002D
:1007180043EB030313F4801F08BF013DF7D043EAFE
:100728000603704794EA0C0F0CEA135518BF95EAB4
:100738000C0F0CD050EA410618BF52EA4306D1D13B
:1007480081EA030101F000414FF0000070BD50EA5A
:10075800410606BF1046194652EA430619D094EAE4
:100768000C0F02D150EA013613D195EA0C0F05D1CE
:1007780052EA03361CBF104619460AD181EA030122
:1007880001F0004141F0FE4141F470014FF00000DA
:1007980070BD41F0FE4141F4780170BD70B54FF075
:1007A800FF0C4CF4E06C1CEA11541DBF1CEA1355F5
:1007B80094EA0C0F95EA0C0F00F0A7F8A4EB0504D7
:1007C80081EA030E52EA03354FEA013100F08880CE
:1007D8004FEA03334FF0805545EA131343EA126397
:1007E8004FEA022245EA111545EA10654FEA00264C
:1007F8000EF000419D4208BF964244F1FD0404F505
:10080800407402D25B084FEA3202B61A65EB030560
:100818005B084FEA32024FF480104FF4002CB6EB1D
:10082800020E75EB030E22BFB61A754640EA0C009D
:100838005B084FEA3202B6EB020E75EB030E22BFDD
:10084800B61A754640EA5C005B084FEA3202B6EB1E
:10085800020E75EB030E22BFB61A754640EA9C00DD
:100868005B084FEA3202B6EB020E75EB030E22BFAD
:10087800B61A754640EADC0055EA060E18D04FEA6B
:10088800051545EA16754FEA06164FEAC30343EA0B
:1008980052734FEAC2025FEA1C1CC0D111F4801FD8
:1008A8000BD141EA00014FF000004FF0004CB6E7D1
:1008B80011F4801F04BF01430020B4F1FD0C88BF70
:1008C800BCF5E06F3FF6AFAEB5EB030C04BFB6EB7B
:1008D800020C5FEA500C50F1000041EB045170BD6E
:1008E8000EF0004E4EEA113114EB5C04C2BFD4EB9B
:1008F8000C0541EA045170BD41F480114FF0000E1F
:10090800013C90E645EA060E8DE60CEA135594EA9A
:100918000C0F08BF95EA0C0F3FF43BAF94EA0C0F9D
:100928000AD150EA01347FF434AF95EA0C0F7FF412
:1009380025AF104619462CE795EA0C0F06D152EA66
:1009480003353FF4FDAE1046194622E750EA41064A
:1009580018BF52EA43067FF4C5AE50EA41047FF45B
:100968000DAF52EA43057FF4EBAE12E74FEA4102BE
:10097800B2F1E04324BFB3F5001CDCF1FE5C0DD9F5
:1009880001F0004C4FEAC0024CEA5070B2F1004F3F
:1009980040EB830008BF20F00100704711F0804F42
:1009A80021D113F13872BCBF01F00040704741F407
:1009B80080114FEA5252C2F11802C2F1200C10FA0B
:1009C8000CF320FA02F018BF40F001004FEAC123EF
:1009D8004FEAD32303FA0CFC40EA0C0023FA02F393
:1009E8004FEA4303CCE77FEA625307D150EA013369
:1009F8001EBF4FF0FE4040F44000704701F0004039
:100A080040F0FE4040F40000704700BF0348044B2C
:100A1800834202D0034B03B1184770477407002084
:100A2800740700200000000005480649091A8910CB
:100A380001EBD171491002D0034B03B1184770473D
:100A480074070020740700200000000010B5064C51
:100A5800237843B9FFF7DAFF044B13B10448AFF327
:100A680000800123237010BD7407002000000000DF
:100A7800E818010808B5054B1BB105490548AFF34F
:100A88000080BDE80840FFF7CFBF00BF00000000AE
:100A980078070020E818010890ED027AF7EE006A5E
:100AA800C6EE877AD0ED006A66EEA76A90ED017A05
:100AB80027EE277AF6EE007A66EEE77A9FED1B6A54
:100AC80027EE067A37EE876A77EEC77AF4EEC66ABB
:100AD800F1EE10FA10DDF0EE465AB0EE667AB4EE9A
:100AE800E77AF1EE10FA0CD4F4EEE75AF1EE10FAC8
:100AF80009DDF0EE675A06E0F0EE665AB0EE467A87
:100B0800EDE7B0EE677A37EE257AF6EE005A27EE73
:100B1800257A76EEC76AC0ED036A36EE476A80ED3D
:100B2800046A77EEC77AC0ED057A7047D7B35D3FA0
:100B3800D0ED007A90ED017A77EEC77AC0ED037AAE
:100B4800D0ED047A90ED037A67EE877AC0ED057AE6
:100B580090ED067AD0ED067AB4EE677AF1EE10FAE7
:100B680001D1836900E000238361D0ED0D7A90ED17
:100B7800037A27EE877AD0ED067A77EE877AC0ED8A
:100B8800067AD0ED0F7A90ED037AD0ED106A37EE41
:100B9800667A67EE877AC0ED077A90ED097AD0ED2C
:100BA800057AF0EEE77AD0ED076AF0EEE66A77EEBE
:100BB800A67A77EE677AC0ED0C7A90ED067AD0EDDA
:100BC8000C7AB4EEE77AF1EE10FA21DDD0ED0C7A6A
:100BD800C0ED067AD0ED057A90ED067A77EE877A41
:100BE80090ED077A77EE877A90ED027A77EE877A3A
:100BF800C0ED087A90ED087AD0ED097AB4EEE77A7C
:100C0800F1EE10FA17DD436AC362C36803647047E4
:100C180090ED067AD0ED0C7AF1EE677AB4EEE77AC9
:100C2800F1EE10FA04D5D0ED0C7AF1EE677ACFE741
:100C3800D0ED067ACCE790ED087AD0ED0A7AB4EEDA
:100C4800E77AF1EE10FA01D5836ADDE7036ADBE79C
:100C5800D0ED007A9FED2E7A67EE877AC0ED117A93
:100C680090ED117AD0ED017A77EEA77AD0ED026A8D
:100C780077EEE67AD0ED036A77EEE67A67EE277AC2
:100C8800C0ED057A90ED117AD0ED027A77EEA77A69
:100C9800D0ED016A77EEE67AD0ED036A77EEE67A70
:100CA80067EE277AC0ED067A90ED117AD0ED037AD7
:100CB80077EEA77AD0ED026A77EEE67AD0ED016A90
:100CC80077EEE67A67EE277AC0ED077A037C5BB1A8
:100CD800D0ED057AF1EE677AC0ED057AD0ED067AA7
:100CE800F1EE677AC0ED067A43690362D0ED057AC2
:100CF8009FED087A67EE877A90ED067ADFED066A4F
:100D080027EE267A77EE877AC0ED097A704700BF1A
:100D1800AAAAAA3E3ACD133F3ACD933F90F826307F
:100D2800002B60D090ED057AD0ED017AB4EEE77A29
:100D3800F1EE10FA0ADA90ED057AD0ED017AF1EECB
:100D4800677AB4EEE77AF1EE10FA03D8012303705C
:100D580080F8243090ED067AD0ED017AB4EEE77A87
:100D6800F1EE10FA0ADA90ED067AD0ED017AF1EE9A
:100D7800677AB4EEE77AF1EE10FA04D8022303702A
:100D8800012380F8243090ED077AD0ED027AB4EE92
:100D9800E77AF1EE10FA04DB03230370012380F8ED
:100DA800243090ED077AD0ED037AB4EEE77AF1EECD
:100DB80010FA07D890F8253023B1052303700123D2
:100DC80080F8243090ED087AD0ED047AB4EEE77A12
:100DD800F1EE10FA07DB90F8253023B104230370F5
:100DE800012380F82430704790ED047AD0ED047A1E
:100DF800B4EE677AF1EE10FA01D1036900E000233E
:100E08000361D0ED007A90ED047A77EEC77AC0EDF1
:100E1800027A90ED027ADFED3B7AB4EEE77AF1EEF2
:100E280010FA12D5D0ED027A9FED377A77EE877AED
:100E3800C0ED027A90ED037AD0ED037AB4EE677ACA
:100E4800F1EE10FA13D1C36812E090ED027ADFEDEB
:100E58002F7AB4EEE77AF1EE10FAEBDDD0ED027AF4
:100E68009FED297A77EEC77AC0ED027AE2E7002390
:100E7800C360D0ED037A90ED027AD0ED056A27EED3
:100E8800267A77EE877A90ED017A67EE877A90ED89
:100E9800047A77EE277AC0ED047A90ED047ADFEDD4
:100EA800197AB4EEE77AF1EE10FA18D5D0ED047A93
:100EB8009FED157A77EE877AC0ED047AD0ED027A45
:100EC80090ED067A67EE877A90ED017A67EE877A79
:100ED80090ED037A77EE277AC0ED037A704790EDAC
:100EE800047ADFED0A7AB4EEE77AF1EE10FAE5DD7E
:100EF800D0ED047A9FED047A77EEC77AC0ED047AD4
:100F0800DCE700BFDB0F49C0DB0FC940DB0F4940FE
:100F180082B0D0ED697A9FED157A77EE877A90EDF9
:100F28006B7A67EE877AFCEEE77ACDED017A9DF869
:100F3800043080F8913190F89031DBB2012B05D064
:100F4800DFED0B7AC0ED687A02B07047D0ED677AB2
:100F580090F8913100EB830393ED007A67EE877A7E
:100F680090ED6A7A67EE877AECE700BFDB0F4940BD
:100F78000000000000230370D0ED037A90ED047A9E
:100F880077EE877A90ED057A77EE877A9FEDCF7ABC
:100F980067EE877AC0ED0B7AD0ED037A90ED0B7A85
:100FA80077EEC77AC0ED067AD0ED047A90ED0B7A29
:100FB80077EEC77AC0ED077AD0ED057A90ED0B7A17
:100FC80077EEC77AC0ED087A90F82430DBB2012BAF
:100FD80012D090F82430002B40F0288190F825306A
:100FE800DBB2052B00F22281DFE813F0190145017D
:100FF80072019D01CA01F70190F82530DBB2052B7B
:10100800E7D8DFE803F0032E5985B2DFD0ED087A80
:10101800F5EEC07AF1EE10FADBDD90ED087AD0ED4E
:10102800017A77EE877AC0ED017AD0ED017AF5EE94
:10103800C07AF1EE10FA0DD4D0ED017A90ED027A73
:10104800B4EEE77AF1EE10FAC3D50023436001232A
:101058000370BEE7D0ED017AF1EE677AC0ED017A50
:10106800ECE7D0ED077AF5EEC07AF1EE10FAB0D5DC
:1010780090ED077AD0ED017A77EE877AC0ED017AA4
:10108800D0ED017AF5EEC07AF1EE10FA0DD4D0ED7C
:10109800017A90ED027AB4EEE77AF1EE10FA98D57B
:1010A800002343600123037093E7D0ED017AF1EE4A
:1010B800677AC0ED017AECE7D0ED067AF5EEC07AF2
:1010C800F1EE10FA85DD90ED067AD0ED017A77EE33
:1010D800877AC0ED017AD0ED017AF5EEC07AF1EEAB
:1010E80010FA0ED4D0ED017A90ED027AB4EEE77AD8
:1010F800F1EE10FA7FF56DAF002343600123037012
:1011080067E7D0ED017AF1EE677AC0ED017AEBE797
:10111800D0ED087AF5EEC07AF1EE10FA7FF559AF06
:1011280090ED087AD0ED017A77EE877AC0ED017AF2
:10113800D0ED017AF5EEC07AF1EE10FA0ED4D0EDCA
:10114800017A90ED027AB4EEE77AF1EE10FA7FF5C3
:1011580040AF00234360012303703AE7D0ED017AE2
:10116800F1EE677AC0ED017AEBE7D0ED077AF5EE9C
:10117800C07AF1EE10FA7FF72CAF90ED077AD0ED38
:10118800017A77EE877AC0ED017AD0ED017AF5EE33
:10119800C07AF1EE10FA0ED4D0ED017A90ED027A11
:1011A800B4EEE77AF1EE10FA7FF513AF002343604F
:1011B800012303700DE7D0ED017AF1EE677AC0EDF7
:1011C800017AEBE7D0ED067AF5EEC07AF1EE10FA87
:1011D8007FF5FFAE90ED067AD0ED017A77EE877A4B
:1011E800C0ED017AD0ED017AF5EEC07AF1EE10FA91
:1011F8000ED4D0ED017A90ED027AB4EEE77AF1EEF2
:1012080010FA7FF5E6AE0023436001230370E0E6A1
:10121800D0ED017AF1EE677AC0ED017AEBE7D0ED17
:10122800087AF5EEC07AF1EE10FA00D4704790ED26
:10123800087AD0ED017A77EE877AC0ED017AD0EDA1
:10124800017AF5EEC07AF1EE10FA0DD4D0ED017AFC
:1012580090ED027AB4EEE77AF1EE10FAE6D50023C3
:101268004360012303707047D0ED017AF1EE677A8D
:10127800C0ED017AECE7D0ED077AF5EEC07AF1EE31
:1012880010FAD3DD90ED077AD0ED017A77EE877A00
:10129800C0ED017AD0ED017AF5EEC07AF1EE10FAE0
:1012A8000DD4D0ED017A90ED027AB4EEE77AF1EE42
:1012B80010FABBD500234360012303707047D0EDBB
:1012C800017AF1EE677AC0ED017AECE79FAAAA3EAF
:1012D800D0ED067AF5EEC07AF1EE10FAA6D590EDCB
:1012E800067AD0ED017A77EE877AC0ED017AD0EDF3
:1012F800017AF5EEC07AF1EE10FA0DD4D0ED017A4C
:1013080090ED027AB4EEE77AF1EE10FA8ED500236A
:101318004360012303707047D0ED017AF1EE677ADC
:10132800C0ED017AECE7D0ED087AF5EEC07AF1EE7F
:1013380010FA7FF77BAF90ED087AD0ED017A77EE5F
:10134800877AC0ED017AD0ED017AF5EEC07AF1EE38
:1013580010FA0ED4D0ED017A90ED027AB4EEE77A65
:10136800F1EE10FA7FF562AF0023436001230370AA
:101378007047D0ED017AF1EE677AC0ED017AEBE7BC
:10138800D0ED077AF5EEC07AF1EE10FA7FF54EAFA0
:1013980090ED077AD0ED017A77EE877AC0ED017A81
:1013A800D0ED017AF5EEC07AF1EE10FA0ED4D0ED58
:1013B800017A90ED027AB4EEE77AF1EE10FA7FF551
:1013C80035AF00234360012303707047D0ED017AE5
:1013D800F1EE677AC0ED017AEBE7D0ED067AF5EE2B
:1013E800C07AF1EE10FA7FF721AF90ED067AD0EDD2
:1013F800017A77EE877AC0ED017AD0ED017AF5EEC1
:10140800C07AF1EE10FA0ED4D0ED017A90ED027A9E
:10141800B4EEE77AF1EE10FA7FF508AF00234360E7
:101428000123037002E7D0ED017AF1EE677AC0ED8F
:10143800017AEBE710B52DED028B044690ED098A91
:1014480090ED090AD0ED097A20EE270AD0ED087A46
:1014580090ED087A67EE877AB2EE007A67EE877ABF
:1014680090ED0A7AD0ED0A6A27EE267A67EE877A37
:1014780030EE270A0FF0CCFF38EE400AD4ED087A98
:10148800B1EE007A67EE877A80EE277A84ED0B7AE0
:1014980094ED0B7AD4ED0B7AB4EE677AF1EE10FA8C
:1014A80001D1E36A00E00023E362D4ED0A7AF5EEA5
:1014B800C07AF1EE10FA4FD4B7EE008A94ED0A0A1A
:1014C800D4ED0A7A20EE270AD4ED0B7A94ED0B7A44
:1014D80067EE877A30EE670A0FF09AFF20EE080A67
:1014E80084ED0C0A94ED0C7AD4ED0C7AB4EE677A9C
:1014F800F1EE10FA33D1236B236394ED038A94ED54
:10150800030AD4ED037A20EE270AD4ED0A7A94ED83
:101518000A7A67EE877AB6EE007A67EE877A30EE57
:10152800270A0FF075FF38EE400A84ED0B0A94ED98
:101538000A0AD4ED0A7A20EE270AD4ED0B7A94ED44
:101548000B7A67EE877A30EE670A0FF061FF84ED59
:101558000C0ABDEC028B10BDBFEE008AAEE700237B
:10156800CAE710B50446D0ED066AD0ED000A66EE6B
:10157800A06A90ED067A90ED010A27EE007A90EDC8
:10158800056A90ED004A26EE044AD0ED057AD0EDC2
:10159800014A67EEA44AD0ED047AD0ED045A67EE0A
:1015A800A55AD0ED077A77EEE67A90ED076A36EE1F
:1015B800666A67EE867A90ED095A35EE475A90EDDD
:1015C800096A36EE476A25EE065A77EE857A75EE91
:1015D800E77AC0ED0B7A90ED026A36EE446AD0EDF8
:1015E8000E5AD0ED077A77EEE67A65EEA75AD0ED77
:1015F8000B7A65EEA75A36EE256AD0ED037A77EEB8
:10160800E47AD0ED0E5A90ED095A35EE475A65EE58
:10161800855A90ED0B5A65EE855A77EEA57AD0ED8E
:101628000C5A65EE865A90ED076A36EE256A80ED0B
:10163800076A90ED0C6A26EE276AD0ED097A77EEF4
:10164800867AC0ED097A90ED076AD0ED077AB4EE94
:10165800676AF1EE10FA01D1C36900E00023E36183
:1016680094ED096AD4ED097AB4EE676AF1EE10FADE
:1016780001D1636A00E00023636294ED090AD4EDA6
:10168800070A70EEE60A30EE470A0FF0B9FB84ED60
:101698000D0A10BD10B50446D0ED057A90ED047A18
:1016A80067EE877AD0ED036A90ED007A90ED016AD3
:1016B80037EE467A90ED026A37EE467A26EE877A5A
:1016C80077EE877AC0ED047AD0ED057A90ED097A45
:1016D80067EE877AD0ED036A90ED067A90ED076A97
:1016E80037EE467A90ED086A37EE467A26EE877A24
:1016F80077EE877AC0ED097AD0ED047A90ED0A7A10
:1017080077EEC77AC0ED0B7AD0ED097A90ED0D7AB5
:1017180077EEC77AC0ED0E7A90ED0B7AD0ED117A9C
:10172800B4EEE77AF1EE10FA40F3D48090ED117A36
:10173800D4ED0C7A77EEA77A67EE877AC4ED027A51
:1017480094ED0E7AD4ED117AB4EEE77AF1EE10FA50
:1017580040F3D38094ED117AD4ED0C7A77EEA77A22
:1017680067EE877AC4ED087A94ED127AF7EE006A8C
:10177800C6EE877AC4ED137AA3682366D4ED176A98
:10178800D4ED137A94ED177A77EE877A86EEA77AF6
:1017980084ED1B7AD4ED1B7A94ED187AD4ED1A6A8D
:1017A80037EE667A67EE877A94ED1A7A77EE877A5B
:1017B800C4ED1A7AD4ED136AD4ED137A94ED177A3E
:1017C80077EE877A86EEA77A84ED1F7A94ED1A7AF7
:1017D800DFED535A37EE257A84ED1C7A94ED1F7AA3
:1017E800D4ED1E6A94ED1C6AD4ED1D7A36EE676A54
:1017F80076EE866A27EE267A84ED1E7A236F636773
:10180800D4ED1E7A77EEA77AC4ED147A236AC4F869
:101818008030E36EC4F88C30D4ED237A94ED207ACE
:10182800D4ED226A37EE667A67EE877A94ED227AEB
:1018380077EE877AC4ED227AE36FC4F89C30D4ED52
:10184800227A77EEA57AC4ED247AD4ED277A94ED3E
:10185800267AD4ED246A94ED256A76EEC66A37EEC8
:10186800267A67EE877AC4ED267AD4F89030C4F8E1
:101878009430D4ED267A77EEA77AC4ED157AD4EDB4
:10188800017A94ED0F7AD4ED026A94ED016A76EE4E
:10189800C66A27EE267A77EE877AC4ED017AD4ED08
:1018A800077A94ED0F7AD4ED086A94ED076A76EE1C
:1018B800C66A27EE267A77EE877AC4ED077A94ED22
:1018C800140AD4ED150AB1EE400A0FF099FA84ED26
:1018D800100A10BD90ED0B7AD0ED117AF1EE677A0F
:1018E800B4EEE77AF1EE10FA04D5D0ED117AB1EE44
:1018F800677A1DE790ED0B7A1AE794ED0E7AD4ED2E
:10190800117AF1EE677AB4EEE77AF1EE10FA04D5BF
:10191800D4ED117AB1EE677A1EE794ED0E7A1BE7E3
:1019280008E53C1E30B583B0584B1A6E42F00102F0
:101938001A661A6E02F001020192019A9A6D42F03B
:1019480080529A659A6D02F080520092009A50482F
:10195800C16821F4E0610904090C4E4A0A43C260D7
:101968004D498A6822F480428A604C48026822F015
:101978000F0242F008020260D1F8802022F480723F
:10198800C1F880201A6842F480321A603F4B1B6805
:1019980013F4003FFAD03D4BD968414A0A4042F45B
:1019A800884242F01302DA60DA683E4911403E4A42
:1019B8000A43DA60DA6842F08072DA60DA6842F480
:1019C8008032DA601A6842F080721A602F4B1B6806
:1019D80013F0007FFAD02D4A936843F00303936015
:1019E800936823F0F00343F080039360274B9B68D0
:1019F80003F00C030C2BF9D12C4AD36843F0807305
:101A0800D3602B4B1A6842F001021A6000225A6018
:101A1800274B5B68632BFBD91C4CA36823F0F003AE
:101A2800A360A36823F4E063A360A36823F460536E
:101A3800A360204D28460EF0E5FB1F4A136843F0CB
:101A48000403136028460EF003FCD4F8883023F012
:101A58000C0343F00403C4F88830D4F8883023F426
:101A68004023C4F88830D4F8883023F0405343F03A
:101A78008053C4F88830D4F8883023F0404343F0CA
:101A88008043C4F8883003B030BD00BF0010024066
:101A980000ED00E00003FA0500700040002002405D
:101AA8000C80FFF90C80FF0713440018F0ED00E0EC
:101AB800001000E080FE210A10E000E008B52E4B7F
:101AC80093F85033DBB2012B04D02B4B93F85033EF
:101AD8005BB308BD09F038FE09F0C8FF0AF0EEF85C
:101AE8000AF07EFD0DF0E2FF0FF070F80FF0C6F877
:101AF8000EF0B2FF0EF0FAF80EF07AF90EF0C0F917
:101B08000EF03AFA0EF096FA0EF0E6FA0AF012FC27
:101B18000EF07AFF0EF08CFF0EF096FF0EF002F931
:101B28000EF0FAF909F03EFFCFE709F00DFE0AF0D2
:101B3800EFF90AF0FFFA0CF0DFF90DF0B7FF0FF03C
:101B480045F80EF089FF0EF0D1F80EF051F90EF0BD
:101B580097F90EF011FA0EF06DFA0EF0BDFA0AF0D0
:101B6800E9FB0EF051FF0EF063FF0EF0DBF80EF00C
:101B7800D3F909F097FEACE7000000200000000050
:101B880008B5FFF7CFFEDC4BDC4AC3F89C20D3ED49
:101B9800277AF6EE008A67EEA87AC3ED287AD84A43
:101BA8009A64D84AC3F88020D74A9A67D74ADA672E
:101BB8004FF081421A66D6499965D649C3F8A410F0
:101BC800D549D96593ED1E7AB7EE008AC8EE077A33
:101BD800C3ED2A7A93ED1F7AC8EE077AC3ED2B7A04
:101BE800D3F8A410C3F884100025C3F888505D66A4
:101BF8009D66DD649D62DD62C84C012184F8501346
:101C0800002384F8523384F85113C549C4F860138B
:101C1800C44EC4F86C63C449C4F87013C349C4F80B
:101C28007413C349C4F87813C4F88C23C14AC4F8A0
:101C38007C23C14AC4F88023D4F88023C4F88423C1
:101C4800BE4AC4F88823022284F8532384F8BA339E
:101C5800C4F89863BA4BC4F89C33BA4BC4F8A033A1
:101C6800B94BC4F8A433B94BB94A1A60B94A5A6097
:101C7800B94A9A60B94ADA60B94920460DF0B4FE0B
:101C8800D4EDD86A9FEDB77AC6EE877AFCEEE77A8C
:101C9800C4EDE47AD4EDD86AD4F89033013307EE72
:101CA800903AF8EE677A86EEA77A84EDD97A94EDC1
:101CB800D97AC8EE077AC4EDDA7AD4EDDA7A9FEDEC
:101CC800AA7A67EE877AC4ED467AA84BC4F84033FF
:101CD800A74BC4F81431A661A64B63624FF0785342
:101CE800C4F87031A44BC4F89431C4ED668AC4F8C2
:101CF8009C5194F85033DBB2012B00F05E82DFED8B
:101D08009F7A864BC3ED627A93F85033DBB2012B8E
:101D180000F058824FF07E52804BC3F884214FF078
:101D28007852C3F8B421944AC3F8D8214FF07C52B2
:101D3800C3F8DC210022C3F8E02193F85033DBB26A
:101D4800012B00F04382DFED8D7A744BC3ED737A7B
:101D580093F85033DBB2012B00F03E824FF07E52F5
:101D68006E4BC3F8C82193EDDA7AF7EE006AC6EE37
:101D7800877A9FED837A67EE877A9FED7B7A67EEA5
:101D8800877A93EDE07A27EE877A83ED6D7A83ED93
:101D98005C7A93EDDF7A67EE877A93EDDA7A67EE0D
:101DA800877AC3ED767AC3ED657A93ED5C7AC6EEF1
:101DB800877AC3ED667A93ED6D7AC6EE877AC3EDBE
:101DC800777A6D4AC3F8F8214C4AC3F81C224FF0C1
:101DD8007C52C3F8242293F85033DBB2012B00F075
:101DE800FF81DFED667A4D4BC3ED847A93F850336B
:101DF800DBB2012B00F0FC81DFED627A474CC4EDC9
:101E0800837AD4EDDF7AF1EE677A94EDE07A87EEA3
:101E1800870AD4EDDA7A20EE270A0FF0F1F984ED7B
:101E2800900AD4EDDF6AF7EE007A87EEA67AD4ED51
:101E3800906A77EEE67A67EE277AC4ED8E7A524B8F
:101E4800C4F85C3294EDDF7AF7EE086A27EE267A5A
:101E580084EDB87AD4EDE07A67EEA67AC4EDB97A63
:101E6800D4EDE27A9FED497A67EE877A94EDE37ACA
:101E780067EE877ADFED466A86EEA77A84EDB77A51
:101E8800D4F86833C4F8FC3294EDB77AD4EDB77A55
:101E980027EE277ADFED3F6AC6EE877AB6EE007A3C
:101EA80067EE877AC4EDC17A002384F83834D4F811
:101EB800802304F58A631A60D4F8842304F2544317
:101EC8001A60D4EDE17A94EDE07A77EEC77AF0EE15
:101ED800E77A04F58B63C3ED007AD4F8DC1204F2D8
:101EE8005C421160D4EDE67A9FED2B7A67EE877A33
:101EF80004F23C4152E000BFA848002017B751380F
:101F08000000C0419A99993DDE214538931A5A3804
:101F18009C534936E71DA73B83A8FB3700000020E8
:101F280000401C47000048429A998A420000F0424B
:101F38006C09F93A7B14AE3D62BE3C380000874319
:101F4800000082420AD71F410000B44284480020A2
:101F580000401C4600E092450000C84100E076457C
:101F68009407002000429C46DB0FC9409A99793FAC
:101F78000000A04100409C45CDCCCC3C00000000B6
:101F8800AE47613DA4707D3F14AE073FEF1F2E4161
:101F98000000704200007A446666663FC1ED007A30
:101FA800D2ED006A93ED007AC6EE877AB5EE007A34
:101FB80067EE877A04F24443C3ED007AD4F86823C5
:101FC80004F584631A6004F58663A74A1A6004F26C
:101FD8003443A64A1A6094EDE67AD4EDDB7AB4EE7F
:101FE800E77AF1EE10FA40F30B81D4F86C23A04B9A
:101FF800C3F8982393EDE77AD3EDDC7AB4EEE77A69
:10200800F1EE10FA40F30081D3F87023984BC3F82F
:102018009C2393F85233DBB2012B00F0F980944BE8
:1020280093F8BA33DBB2924C84F8BA33D4F89803F5
:10203800FEF732FA8AA3D3E90023FEF785FAFEF702
:1020480095FCA06594F85033ABB9D4EDDA6AD4EDB9
:10205800DA7A9FED887A77EE877A86EEA77A84ED2A
:10206800FE7AD4F8F81304F581621160D4F8F823E5
:1020780004F583631A607E4B93F85033DBB2012B6F
:1020880000F0C8807A4B7C4AC3F8C4237B4AC3F863
:1020980028219FED7B6A83ED4D6AD3EDDA5AD3EDA3
:1020A800DA6ADFED787A76EEA76A85EEA67A03F526
:1020B800C76282ED007AD3EDDA6A93EDDA7A37EE09
:1020C800277AC6EE877A03F5C962C2ED007AD3EDA6
:1020D800DA6AD3EDDA7A77EE867A86EEA77A03F5AE
:1020E800CB6282ED007A93EDDA6A93EDDA7ADFED6E
:1020F800667A37EE277AC6EE076A03F5D162C2ED33
:10210800006A93EDDA6A93EDDA7A37EE277AC6EE4B
:10211800076A03F5D362C2ED006A93EDDA6A93EDBC
:10212800DA7A37EE277AC6EE076A03F5D562C2ED8A
:10213800006A93EDDA6A93EDDA7A37EE277AC6EE1B
:10214800076A03F5D762C2ED006A93EDDA6A93ED88
:10215800DA7A37EE277AC6EE076A03F5D962C2ED56
:10216800006AD3EDDA6A93EDDA7A77EE277A86EEAB
:10217800A77A03F5DB6282ED007A03F5C561434A6D
:102188000A6003F5CD610A6003F5CF63404A1A601F
:10219800FFF794FC3F4B1B78002B53D1344B9B78B3
:1021A800DBB2042BF6D1324BDB78DBB2062BF1D154
:1021B80039492F480DF0ACFBECE7D4EDDC7AF1EEB1
:1021C800677A9EE52A4BD3F87023A5E5284BD3ED13
:1021D800DC7AF1EE677AB8E5254BD3F87023BFE5D2
:1021E800234BD3EDE67A9FED2D7A67EEC77AFAE5B1
:1021F8001F4BD3EDE67A9FED297A67EE877AFDE5E6
:102208001B4BD3F89823F2E6194BD3F89C23FDE631
:10221800002308E7164BD3EDDA6AD3EDDA7A9FED9F
:10222800207A77EE877A86EEA77A83EDFE7AD3F85E
:10223800F81303F581621160D3F8F82303F583637B
:102248001A601FE7BFF34F8F1649CA6802F4E062AD
:10225800154B1343CB60BFF34F8F00BFFDE700BFA3
:10226800666666666666EE3F0000FA440060EA4607
:1022780000000020899BD03A17B7D1380000AF433F
:10228800CDCCCC3D0AD7A33BCDCC4C3E320C433D04
:102298008C2EBA3D2C080020940700206666663F05
:1022A800D4E2A63900ED00E00400FA0500000000C1
:1022B800F8B52DED028BC14B5A68C14B1A6040230B
:1022C8004FF0A042136002F580721360BD4BD3F843
:1022D800E4200132C3F8E420D3F8E8200132C3F83F
:1022E800E820D3F8EC200132C3F8EC20D3F8E4203E
:1022F800D3EDD97AB44B93ED007A67EE877AFCEE8A
:10230800E77A17EE903A9A4208D3B04A536983F4B1
:1023180080435361AB4B0022C3F8E420A94B93F8E8
:102328005033002B42F061814FF0A042D2F8881060
:10233800A74B1960D2F880105960D2F884109960C0
:10234800D2F88C209A61A34AD2F88810D960D2F8C2
:1023580080101961D2F884105961D2F88C20DA61A2
:10236800984B5B78DBB2052B02F24581DFE813F06E
:102378000600400204068409280D3211924B964A41
:102388001A60934AD368A3F2FF7307EE903AF8EE07
:10239800E77A9FED927A67EE877A8A4CD4EDDC6A09
:1023A80067EEA67AC4EDFB7A1369A3F2FF7307EE12
:1023B800903AF8EEE77A67EE877AD4EDDC6A67EE52
:1023C800A67AC4EDFF7A5369A3F2FF7307EE903A39
:1023D800F8EEE77A67EE877AD4EDDC6A67EEA67ADC
:1023E80004F20C41C1ED007AD2ED067AF8EEE77AF4
:1023F80067EE877AD4EDDC6A67EEA67AC4EDC27A16
:10240800D2ED007AF8EEE77A67EE877AD4EDDB6AE8
:1024180067EEA67AC4ED3D7AD2ED017AF8EEE77A56
:1024280067EE877AD4EDDB6A67EEA67AC4ED3E7A6A
:10243800D2ED027AF8EEE77A67EE877A94EDDB7AE6
:1024480067EE877AC4ED3F7AD4EDFE7A94EDFB7A95
:10245800D4EDFD6A37EE667A67EE877A94EDFD7AF9
:1024680077EE877AC4EDFD7A04F58163D3ED007ABF
:1024780094EDFF7A04F20443D3ED006A37EE667AEE
:1024880067EE877A93ED007A77EE877AC3ED007A64
:1024980004F58363D3ED007A91ED007A04F21443D6
:1024A800D3ED006A37EE667A67EE877A93ED007AA5
:1024B80077EE877AC3ED007A0023C4F8243101222D
:1024C8002271C4F8E831C4F80032C4F80832C4F8FC
:1024D8002C3194F8E133DBB207EE903AF8EE677AE4
:1024E8009FED3F7A67EE877A77EE877A9FED3D7AA0
:1024F80077EE677AC4ED477AD4F81C3104F21C40B1
:102508000360D4F8F836984704F58563D3ED007A6C
:102518009FED357A67EE877AD4EDE36A87EEA67A7F
:1025280084ED0A7AD4ED487AFCEEE77A17EE903A11
:10253800D4ED487AFCEEE77A17EE901A94F8E12386
:10254800D2B2052A02F25780DFE812F006005600E0
:102558008700B800E9001A01244AD2F8980340F02D
:10256800C000C2F89803D2F8940340F03300C2F8D0
:1025780094035D184FF4003292FAA2F2B2FA82F292
:10258800103AD2B21A481B4C34F812608259120C15
:1025980012042A4382515B1A4FF4002292FAA2F2E3
:1025A800B2FA82F2103AD2B234F812104258120C2F
:1025B80012041343435002F01EB800BF001000E09D
:1025C800A44800200000002024080020000800483B
:1025D8007C490020000100500AD7233CF8078039C5
:1025E800920A863FDB0F4940EBC918410068014059
:1025F8001C680140001901087A4AD2F8980340F093
:102608003000C2F89803D2F8940340F0C300C2F82F
:1026180094035D184FF4003292FAA2F2B2FA82F2F1
:10262800103AD2B27048714C34F812608259120CC8
:1026380012042A4382515B1A4FF4801292FAA2F2D2
:10264800B2FA82F2103AD2B234F812104258120C8E
:1026580012041343435001F0CEBF624AD2F89803E4
:1026680040F00300C2F89803D2F8940340F0F00059
:10267800C2F894035D184FF4002292FAA2F2B2FA5B
:1026880082F2103AD2B25848584C34F81260825943
:10269800120C12042A4382515B1A4FF4801292FAE8
:1026A800A2F2B2FA82F2103AD2B234F812104258B8
:1026B800120C12041343435001F09DBF494AD2F84B
:1026C800980340F0C000C2F89803D2F8940340F091
:1026D8003300C2F894035D1A4FF4003292FAA2F262
:1026E800B2FA82F2103AD2B23F48404C34F8126043
:1026F8008259120C12042A4382510B444FF40022CF
:1027080092FAA2F2B2FA82F2103AD2B234F8121065
:102718004258120C12041343435001F06CBF314A63
:10272800D2F8980340F03000C2F89803D2F8940326
:1027380040F0C300C2F894035D1A4FF4003292FAD5
:10274800A2F2B2FA82F2103AD2B22748274C34F8F1
:1027580012608259120C12042A4382510B444FF41E
:10276800801292FAA2F2B2FA82F2103AD2B234F895
:1027780012104258120C12041343435001F03BBF8D
:10278800184AD2F8980340F00300C2F89803D2F828
:10279800940340F0F000C2F894035D1A4FF400224D
:1027A80092FAA2F2B2FA82F2103AD2B20E480F4C62
:1027B80034F812608259120C12042A4382510B44D5
:1027C8004FF4801292FAA2F2B2FA82F2103AD2B21E
:1027D80034F812104258120C12041343435001F0FB
:1027E8000ABF00BF006801401C68014000190108C9
:1027F800DC4C0023C4F8E8306371DB4AD368A3F2E9
:10280800FF7307EE103AB8EEC77ADFEDD86A27EE05
:10281800267AD4EDDC7A27EE277A84EDFB7A1369E1
:10282800A3F2FF7307EE103AB8EEC77A27EE267ABE
:10283800D4EDDC7A27EE277A84EDFF7A5369A3F288
:10284800FF7307EE103AB8EEC77A27EE267AD4ED72
:10285800DC7A27EE277A04F20C4585ED007AD2ED72
:10286800067AF8EEE77A67EEA67A94EDDC7A67EEF8
:10287800877AC4EDC27A92ED007AB8EEC77A27EE6D
:10288800267AD4EDDB7A27EE277AD4ED3D7A37EE37
:10289800677A84ED0B7A92ED017AB8EEC77A27EE63
:1028A800267AD4EDDB7A27EE277AD4ED3E7A37EE16
:1028B800677A84ED0C7AD2ED027AF8EEE77A67EE61
:1028C800A67A94EDDB7A67EE877A94ED3F7A77EE15
:1028D800C77AC4ED0D7AD4ED0B7A94ED0B0A67EE46
:1028E800807A94ED0C0A94ED0C7A20EE070A77EEC4
:1028F800807A94ED0D0A94ED0D7A20EE070A37EEF2
:10290800800A0EF085FDDFED9A7A20EE270A84ED25
:10291800130AE26C04F21C631A6004F5C562D2ED76
:10292800007A93ED007A04F22463D3ED006A37EE5F
:10293800667A67EE877A93ED007A77EE877AC3ED49
:10294800007A1B682365D4EDFE7A94EDFB7AD4ED0A
:10295800FD6A37EE667A67EE877A94EDFD7A77EE50
:10296800877AC4EDFD7A04F58163D3ED007A94ED9E
:10297800FF7A04F20442D2ED006A37EE667A67EE17
:10298800877A92ED007A77EE877AC2ED007A04F5BD
:102998008363D3ED007A95ED007A04F21443D3ED06
:1029A800006A37EE667A67EE877A93ED007A77EEFB
:1029B800877AC3ED007AD4F8F413C4F8C813126800
:1029C800C4F8CC231B68C4F8D033D4F8F03604F527
:1029D8006F70984794F8E133DBB207EE903AF8EE5F
:1029E800677A9FED647A67EE877A77EE877A9FED4C
:1029F800627A77EE677AC4ED477AD4F81C3104F22C
:102A08001C400360D4F8F836984794ED147ADFED4B
:102A18005B7AB4EEE77AF1EE10FA0ADC04F5856326
:102A280093ED007AF2EE047AB4EEE77AF1EE10FA5A
:102A380003D5534B4FF07C521A60524B93ED007AFA
:102A4800F2EE047AB4EEE77AF1EE10FA71DD4C4B4F
:102A58004D4A1A60434B1B79DBB2012B6ED0414BB8
:102A6800D3F82C213F4BC3F82C2193ED4B7AD3EDAF
:102A78004C7AD3EDDA6A77EEE67AB4EEE77AF1EEDD
:102A880010FA0BD5D3EDDA7AB5EE007A27EE877A0D
:102A9800D3ED4B7A77EE877AC3ED4B7A314B93EDD2
:102AA8004B7AD3ED4C7AD3EDDA6A77EEA67AB4EEA8
:102AB800E77AF1EE10FA0BDDD3EDDA7AB5EE007AAB
:102AC80027EE877AD3ED4B7A77EEC77AC3ED4B7A48
:102AD800244BD3F8E820D3EDD87A9FED2C7A67EE13
:102AE800877AFCEEE77A17EE903A9A4205D91D4BA1
:102AF8000022C3F8E82004225A701A4B93F8BC331A
:102B080023B9184B1B79DBB2012B47D1154B002297
:102B18001A7193F8E033DBB2012B13D0114B93F801
:102B2800E133002B36D00F4B93F8E133013BDBB296
:102B380031E0134B4FF07E521A608BE7094BD3F804
:102B480034218FE7074B93F8E133DBB2042B1FD80E
:102B5800044B93F8E1330133DBB2024A82F8E133E4
:102B68001CE000BF000000207C490020F8078039E5
:102B78009FAA2A3F920A863FDB0F4940CDCC4C3EA4
:102B88002408002028040020CDCC4C3ECDCCCC3DE0
:102B98000023E2E70523C04A82F8E133BE49D1EDBC
:102BA800487AFCEEE77A17EE903AD1ED487A91ED43
:102BB8004B7A67EE877AFCEEE77A17EE902A91F85F
:102BC800E113C9B2052936D8DFE811F00600D600AE
:102BD800060136017001A001B049D1F8980340F010
:102BE800C000C1F89803D1F8940340F03300C1F84D
:102BF80094039D184FF4003191FAA1F1B1FA81F1D3
:102C08001039C9B2A648A74C34F811608159090C8B
:102C18000904294381519B1A4FF4002292FAA2F227
:102C2800B2FA82F2103AD2B234F812104258120CA8
:102C38001204134343509849D1F8C8039A4B03F53B
:102C48008042906391F8BC23D2B207EE902AF8EE46
:102C5800677A03F58042C2ED0F7AD1F8E80303F5ED
:102C680080421064D1F8C01303F5804251641B7888
:102C7800002B35D08C4B9A6803F5804138310968B0
:102C88000A3203EB820211609A6803F580413C31F5
:102C9800096802F20A4203EB820211609A6803F59E
:102CA80080414031096802F60A0203EB8202116092
:102CB8009A6803F580414431096802F60A4203EB39
:102CC800820211609A6801329A609A6840F2FE3373
:102CD8009A4205D9744B01225A7000221A709A60E0
:102CE800714B5B78002B01F086846F4BDA689B8808
:102CF8009BB29A4228D36C4B9A680A3203EB820241
:102D0800116803F5804291629A6802F20A4203EB65
:102D18008202116803F58042D1629A6802F60A02BB
:102D280003EB8202116803F5804211639A6802F688
:102D38000A4203EB8202116803F5804251630022C4
:102D4800DA609A6801329A60574BDA680132DA60C1
:102D58009A6840F2FE339A4241F24D84524B002267
:102D68005A709A60DA609B78002B01F044844E4BCD
:102D780001221A7001F03FBC4849D1F8980340F08D
:102D88003000C1F89803D1F8940340F0C300C1F8AB
:102D980094039D184FF4003191FAA1F1B1FA81F131
:102DA8001039C9B23E483F4C34F811608159090CBA
:102DB8000904294381519B1A4FF4801292FAA2F216
:102DC800B2FA82F2103AD2B234F812104258120C07
:102DD8001204134343502EE73049D1F8980340F0CA
:102DE8000300C1F89803D1F8940340F0F000C1F84B
:102DF80094039D184FF4002191FAA1F1B1FA81F1E1
:102E08001039C9B22648274C34F811608159090C89
:102E18000904294381519B1A4FF4801292FAA2F2B5
:102E2800B2FA82F2103AD2B234F812104258120CA6
:102E3800120413434350FEE61849D1F8980340F0B2
:102E4800C000C1F89803D1F8940340F03300C1F8EA
:102E580094039D1A4FF4003191FAA1F1B1FA81F16E
:102E68001039C9B20E480F4C34F811608159090C59
:102E780009042943815113444FF4002292FAA2F223
:102E8800B2FA82F2103AD2B234F812104258120C46
:102E9800120413434350CEE60000002000680140AE
:102EA8001C680140001901083C0800202F49D1F88E
:102EB800980340F03000C1F89803D1F8940340F02B
:102EC800C300C1F894039D1A4FF4003191FAA1F19F
:102ED800B1FA81F11039C9B22548264C34F811608D
:102EE8008159090C09042943815113444FF4801274
:102EF80092FAA2F2B2FA82F2103AD2B234F812106E
:102F08004258120C12041343435094E61749D1F85F
:102F1800980340F00300C1F89803D1F8940340F0F7
:102F2800F000C1F894039D1A4FF4002191FAA1F121
:102F3800B1FA81F11039C9B20D480E4C34F811605C
:102F48008159090C09042943815113444FF4801213
:102F580092FAA2F2B2FA82F2103AD2B234F812100D
:102F68004258120C12041343435064E600680140AF
:102F78001C68014000190108CC4AD368A3F2FF730A
:102F880007EE103AB8EEC77ADFEDC96A27EE267A5F
:102F9800C84CD4EDDC7A27EE277A84EDFB7A1369E6
:102FA800A3F2FF7307EE103AB8EEC77A27EE267A37
:102FB800D4EDDC7A27EE277A84EDFF7A5369A3F201
:102FC800FF7307EE103AB8EEC77A27EE267AD4EDEB
:102FD800DC7A27EE277A04F20C4585ED007AD2EDEB
:102FE800067AF8EEE77A67EEA67A94EDDC7A67EE71
:102FF800877AC4EDC27A92ED007AB8EEC77A27EEE6
:10300800267AD4EDDB7A27EE277AD4ED3D7A37EEAF
:10301800677A84ED0B7A92ED017AB8EEC77A27EEDB
:10302800267AD4EDDB7A27EE277AD4ED3E7A37EE8E
:10303800677A84ED0C7AD2ED027AF8EEE77A67EED9
:10304800A67A94EDDB7A67EE877A94ED3F7A77EE8D
:10305800C77AC4ED0D7AD4ED0B7A94ED0B0A67EEBE
:10306800807A94ED0C0A94ED0C7A20EE070A77EE3C
:10307800807A94ED0D0A94ED0D7A20EE070A37EE6A
:10308800800A0EF0C5F9DFED8C7A20EE270A84ED70
:10309800130AE26C04F21C631A6004F5C562D2EDEF
:1030A800007A93ED007A04F22463D3ED006A37EED8
:1030B800667A67EE877A93ED007A77EE877AC3EDC2
:1030C800007A1B682365D4EDFE7A94EDFB7AD4ED83
:1030D800FD6A37EE667A67EE877A94EDFD7A77EEC9
:1030E800877AC4EDFD7A04F58163D3ED007A94ED17
:1030F800FF7A04F20442D2ED006A37EE667A67EE90
:10310800877A92ED007A77EE877AC2ED007A04F535
:103118008363D3ED007A95ED007A04F21443D3ED7E
:10312800006A37EE667A67EE877A93ED007A77EE73
:10313800877AC3ED007AD4F8F413C4F8C813126878
:10314800C4F8CC231B68C4F8D033D4F8F03604F59F
:103158006F70984794F8E133DBB207EE903AF8EED7
:10316800677A9FED567A67EE877A77EE877A9FEDD2
:10317800547A77EE677AC4ED477AD4F81C3104F2B2
:103188001C400360D4F8F836984794ED147ADFEDC4
:103198004D7AB4EEE77AF1EE10FA0ADC04F58563AD
:1031A80093ED007AF2EE047AB4EEE77AF1EE10FAD3
:1031B80003D5454B4FF07C521A60444B93ED007A8F
:1031C800F2EE047AB4EEE77AF1EE10FA36DD3E4B11
:1031D8003F4A1A60374B93ED497AD3ED4A7AB4EEF9
:1031E800E77AF1EE10FA0BDBD3EDDA7A9FED397A54
:1031F80027EE877AD3ED497A77EEC77AC3ED497A15
:103208002C4BD3F8E820D3ED497AFCEEE77A17EE99
:10321800903A9A422CD3274B0022C3F8E82093F81F
:10322800E033DBB2012B0ED0224B93F8E133DBB154
:10323800204B93F8E133013BDBB216E0224B4FF011
:103248007E521A60C6E71B4B93F8E133DBB2042BBE
:1032580008D8184B93F8E1330133DBB2154A82F8EA
:10326800E13305E00023F9E70523124A82F8E13348
:103278001049D1ED487AFCEEE77A17EE903AD1ED95
:10328800487A91ED4B7A67EE877AFCEEE77A17EE8B
:10329800902A91F8E113C9B205294CD8DFE811F05A
:1032A8001C00EC001C014C018601B6017C49002081
:1032B800F8078039000000209FAA2A3F920A863F1B
:1032C800DB0F4940CDCC4C3E2408002028040020C8
:1032D800CDCC4C3E0000FA43AF49D1F8980340F0FA
:1032E800C000C1F89803D1F8940340F03300C1F846
:1032F80094039D184FF4003191FAA1F1B1FA81F1CC
:103308001039C9B2A548A64C34F811608159090C86
:103318000904294381519B1A4FF4002292FAA2F220
:10332800B2FA82F2103AD2B234F812104258120CA1
:103338001204134343509B49D1F8C8039A4B03F531
:103348008042906391F8BC23D2B207EE902AF8EE3F
:10335800677A03F58042C2ED0F7AD1F8E80303F5E6
:1033680080421064D1F8C01303F5804251641B7881
:10337800002B35D08C4B9A6803F5804138310968A9
:103388000A3203EB820211609A6803F580413C31EE
:10339800096802F20A4203EB820211609A6803F597
:1033A80080414031096802F60A0203EB820211608B
:1033B8009A6803F580414431096802F60A4203EB32
:1033C800820211609A6801329A609A6840F2FE336C
:1033D8009A4205D9744B01225A7000221A709A60D9
:1033E800714B5B78002B01F006816F4BDA689B8884
:1033F8009BB29A4228D36C4B9A680A3203EB82023A
:10340800116803F5804291629A6802F20A4203EB5E
:103418008202116803F58042D1629A6802F60A02B4
:1034280003EB8202116803F5804211639A6802F681
:103438000A4203EB8202116803F5804251630022BD
:10344800DA609A6801329A60574BDA680132DA60BA
:103458009A6840F2FE339A4241F2CD80524B0022E4
:103468005A709A60DA609B78002B01F0C4804E4B4A
:1034780001221A7001F0BFB84749D1F8980340F00B
:103488003000C1F89803D1F8940340F0C300C1F8A4
:1034980094039D184FF4003191FAA1F1B1FA81F12A
:1034A8001039C9B23D483E4C34F811608159090CB5
:1034B8000904294381519B1A4FF4801292FAA2F20F
:1034C800B2FA82F2103AD2B234F812104258120C00
:1034D8001204134343502EE72F49D1F8980340F0C4
:1034E8000300C1F89803D1F8940340F0F000C1F844
:1034F80094039D184FF4002191FAA1F1B1FA81F1DA
:103508001039C9B22548264C34F811608159090C84
:103518000904294381519B1A4FF4801292FAA2F2AE
:10352800B2FA82F2103AD2B234F812104258120C9F
:10353800120413434350FEE61749D1F8980340F0AC
:10354800C000C1F89803D1F8940340F03300C1F8E3
:1035580094039D1A4FF4003191FAA1F1B1FA81F167
:103568001039C9B20D480E4C34F811608159090C54
:1035780009042943815113444FF4002292FAA2F21C
:10358800B2FA82F2103AD2B234F812104258120C3F
:10359800120413434350CEE6006801401C68014002
:1035A80000190108000000203C0800202F49D1F82C
:1035B800980340F03000C1F89803D1F8940340F024
:1035C800C300C1F894039D1A4FF4003191FAA1F198
:1035D800B1FA81F11039C9B22548264C34F8116086
:1035E8008159090C09042943815113444FF480126D
:1035F80092FAA2F2B2FA82F2103AD2B234F8121067
:103608004258120C12041343435094E61749D1F858
:10361800980340F00300C1F89803D1F8940340F0F0
:10362800F000C1F894039D1A4FF4002191FAA1F11A
:10363800B1FA81F11039C9B20D480E4C34F8116055
:103648008159090C09042943815113444FF480120C
:1036580092FAA2F2B2FA82F2103AD2B234F8121006
:103668004258120C12041343435064E600680140A8
:103678001C68014000190108D04AD368A3F2FF73FF
:1036880007EE103AB8EEC77ADFEDCD6A27EE267A54
:10369800CC4CD4EDDC7A27EE277A84EDFB7A1369DB
:1036A800A3F2FF7307EE103AB8EEC77A27EE267A30
:1036B800D4EDDC7A27EE277A84EDFF7A5369A3F2FA
:1036C800FF7307EE103AB8EEC77A27EE267AD4EDE4
:1036D800DC7A27EE277A04F20C4585ED007AD2EDE4
:1036E800067AF8EEE77A67EEA67A94EDDC7A67EE6A
:1036F800877AC4EDC27A92ED007AB8EEC77A27EEDF
:10370800267AD4EDDB7A27EE277AD4ED3D7A37EEA8
:10371800677A84ED0B7A92ED017AB8EEC77A27EED4
:10372800267AD4EDDB7A27EE277AD4ED3E7A37EE87
:10373800677A84ED0C7AD2ED027AF8EEE77A67EED2
:10374800A67A94EDDB7A67EE877A94ED3F7A77EE86
:10375800C77AC4ED0D7AD4ED0B7A94ED0B0A67EEB7
:10376800807A94ED0C0A94ED0C7A20EE070A77EE35
:10377800807A94ED0D0A94ED0D7A20EE070A37EE63
:10378800800A0DF045FEDFED907A20EE270A84EDE1
:10379800130AE26C04F21C631A6004F5C562D2EDE8
:1037A800007A93ED007A04F22463D3ED006A37EED1
:1037B800667A67EE877A93ED007A77EE877AC3EDBB
:1037C800007A1B682365D4EDFE7A94EDFB7AD4ED7C
:1037D800FD6A37EE667A67EE877A94EDFD7A77EEC2
:1037E800877AC4EDFD7A04F58163D3ED007A94ED10
:1037F800FF7A04F20442D2ED006A37EE667A67EE89
:10380800877A92ED007A77EE877AC2ED007A04F52E
:103818008363D3ED007A95ED007A04F21443D3ED77
:10382800006A37EE667A67EE877A93ED007A77EE6C
:10383800877AC3ED007AD4F8F413C4F8C813126871
:10384800C4F8CC231B68C4F8D033D4F8F03604F598
:103858006F70984794F8E133DBB207EE903AF8EED0
:10386800677A9FED5A7A67EE877A77EE877A9FEDC7
:10387800587A77EE677AC4ED477AD4F81C3104F2A7
:103888001C400360D4F8F836984704F58563D3EDF7
:10389800007A9FED507A67EE877AD4EDE36A87EE77
:1038A800A67A84ED0A7A94ED147ADFED4B7AB4EEB9
:1038B800E77AF1EE10FA08DC93ED007AF2EE047A7A
:1038C800B4EEE77AF1EE10FA03D5444B4FF07C5290
:1038D8001A60434B93ED007AF2EE047AB4EEE77A7D
:1038E800F1EE10FA50DD3D4B3E4A1A60354B93ED30
:1038F8004C7AD3EDDA7AF6EE006A67EEA67A93EDA3
:103908004B6A77EE676AB4EEE66AF1EE10FA05D50F
:10391800D3ED4B6A77EEA66AC3ED4B6A294BD3ED1C
:103928004B6A37EE277AF4EEC76AF1EE10FA05DD36
:1039380093ED4B7A77EE677AC3ED4B7A214B1B797F
:10394800DBB2012B25D01F4BD3F82C211D4BC3F81C
:103958002C2193F8BC3323B91A4B1B79DBB2012B0A
:1039680046D1184B00221A7193F8E033DBB2012BD1
:1039780013D0144B93F8E133002B35D0114B93F847
:10398800E133013BDBB230E0144B4FF07E521A605A
:10399800ACE70C4BD3F83421D8E70A4B93F8E13362
:1039A800DBB2042B08D8074B93F8E1330133DBB2C1
:1039B800044A82F8E1331BE00023F9E77C49002040
:1039C800F8078039000000209FAA2A3F920A863F04
:1039D800DB0F4940EBC91841CDCC4C3E24080020F0
:1039E80028040020CDCC4C3E0523BD4A82F8E133A3
:1039F800BB49D1ED487AFCEEE77A17EE903AD1ED63
:103A0800487A91ED4B7A67EE877AFCEEE77A17EE03
:103A1800902A91F8E113C9B2052936D8DFE811F0E8
:103A28000600D000000130016A019A01AD49D1F8C1
:103A3800980340F0C000C1F89803D1F8940340F00F
:103A48003300C1F894039D184FF4003191FAA1F1A5
:103A5800B1FA81F11039C9B2A348A44C34F8116005
:103A68008159090C0904294381519B1A4FF40022FA
:103A780092FAA2F2B2FA82F2103AD2B234F81210E2
:103A88004258120C120413434350954AD2F8C80303
:103A9800974B03F580418863D2F8CC0303F5804146
:103AA800C863D2F8E80303F580410864D2F8C0136C
:103AB80003F5804251641B78002B35D08C4B9A68F3
:103AC80003F58041383109680A3203EB820211603C
:103AD8009A6803F580413C31096802F20A4203EB17
:103AE800820211609A6803F580414031096802F644
:103AF8000A0203EB820211609A6803F5804144319F
:103B0800096802F60A4203EB820211609A680132E0
:103B18009A609A6840F2FE339A4205D9744B0122A2
:103B28005A7000221A709A60714B5B78002B00F073
:103B380062856F4BDA689B889BB29A4228D36C4B9C
:103B48009A680A3203EB8202116803F58042916297
:103B58009A6802F20A4203EB8202116803F5804276
:103B6800D1629A6802F60A0203EB8202116803F531
:103B7800804211639A6802F60A4203EB82021168D6
:103B880003F5804251630022DA609A6801329A6034
:103B9800574BDA680132DA609A6840F2FE339A428B
:103BA80040F22985524B00225A709A60DA609B785D
:103BB800002B00F020854E4B01221A7000F01BBD2F
:103BC8004849D1F8980340F03000C1F89803D1F87B
:103BD800940340F0C300C1F894039D184FF40031DA
:103BE80091FAA1F1B1FA81F11039C9B23E483F4CBE
:103BF80034F811608159090C0904294381519B1A31
:103C08004FF4801292FAA2F2B2FA82F2103AD2B2C9
:103C180034F812104258120C12041343435034E77C
:103C28003049D1F8980340F00300C1F89803D1F85F
:103C3800940340F0F000C1F894039D184FF400215C
:103C480091FAA1F1B1FA81F11039C9B22648274C8D
:103C580034F811608159090C0904294381519B1AD0
:103C68004FF4801292FAA2F2B2FA82F2103AD2B269
:103C780034F812104258120C12041343435004E74C
:103C88001849D1F8980340F0C000C1F89803D1F85A
:103C9800940340F03300C1F894039D1A4FF40031A7
:103CA80091FAA1F1B1FA81F11039C9B20E480F4C5D
:103CB80034F811608159090C0904294381511344CE
:103CC8004FF4002292FAA2F2B2FA82F2103AD2B279
:103CD80034F812104258120C120413434350D4E61D
:103CE80000000020006801401C680140001901081C
:103CF8003C0800202F49D1F8980340F03000C1F863
:103D08009803D1F8940340F0C300C1F894039D1AB6
:103D18004FF4003191FAA1F1B1FA81F11039C9B229
:103D28002548264C34F811608159090C09042943A7
:103D3800815113444FF4801292FAA2F2B2FA82F23D
:103D4800103AD2B234F812104258120C120413432B
:103D580043509AE61749D1F8980340F00300C1F898
:103D68009803D1F8940340F0F000C1F894039D1A29
:103D78004FF4002191FAA1F1B1FA81F11039C9B2D9
:103D88000D480E4C34F811608159090C0904294377
:103D9800815113444FF4801292FAA2F2B2FA82F2DD
:103DA800103AD2B234F812104258120C12041343CB
:103DB80043506AE6006801401C6801400019010888
:103DC800D74AD368A3F2FF7307EE103AB8EEC77A62
:103DD800DFEDD46A27EE267AD34CD4EDDC7A27EED1
:103DE800277A84EDFB7A1369A3F2FF7307EE103A82
:103DF800B8EEC77A27EE267AD4EDDC7A27EE277A52
:103E080084EDFF7A5369A3F2FF7307EE103AB8EE18
:103E1800C77A27EE267AD4EDDC7A27EE277A04F2E1
:103E28000C4585ED007AD2ED067AF8EEE77A67EE72
:103E3800A67A94EDDC7A67EE877AC4EDC27A92EDC1
:103E4800007AB8EEC77A27EE267AD4EDDB7A27EE29
:103E5800277AD4ED3D7A37EE677A84ED0B7A92EDC6
:103E6800017AB8EEC77A27EE267AD4EDDB7A27EE08
:103E7800277AD4ED3E7A37EE677A84ED0C7AD2ED64
:103E8800027AF8EEE77A67EEA67A94EDDB7A67EEC7
:103E9800877A94ED3F7A77EEC77AC4ED0D7AD4ED40
:103EA8000B7A94ED0B0A67EE807A94ED0C0A94ED88
:103EB8000C7A20EE070A77EE807A94ED0D0A94EDDD
:103EC8000D7A20EE070A37EE800A0DF0A1FADFED31
:103ED800977A20EE270A84ED130AE26C04F21C6339
:103EE8001A6004F5C562D2ED007A93ED007A04F207
:103EF8002463D3ED006A37EE667A67EE877A93ED2E
:103F0800007A77EE877AC3ED007A1B682365D4EDD3
:103F1800FE7A94EDFB7AD4EDFD6A37EE667A67EEA9
:103F2800877A94EDFD7A77EE877AC4EDFD7A04F509
:103F38008163D3ED007A94EDFF7A04F20442D2ED66
:103F4800006A37EE667A67EE877A92ED007A77EE46
:103F5800877AC2ED007A04F58363D3ED007A95ED94
:103F6800007A04F21443D3ED006A37EE667A67EEFE
:103F7800877A93ED007A77EE877AC3ED007AD4F8E2
:103F8800F413C4F8C8131268C4F8CC231B68C4F827
:103F9800D033D4F8F03604F56F70984794F8E133CD
:103FA800DBB207EE903AF8EE677A9FED617A67EE3A
:103FB800877A77EE877A9FED5F7A77EE677AC4ED36
:103FC800477A04F234435C4A1A60D4F81C3104F28C
:103FD8001C400360D4F8F836984704F58563D3EDA0
:103FE800007A9FED567A67EE877AD4EDE36A87EE1A
:103FF800A67A84ED0A7A94ED147ADFED517AB4EE5C
:10400800E77AF1EE10FA08DC93ED007AF2EE047A22
:10401800B4EEE77AF1EE10FA03D54A4B4FF07C5232
:104028001A60494B93ED007AF2EE047AB4EEE77A1F
:10403800F1EE10FA6BDD434B444A1A603A4B93EDAC
:10404800077AD3EDDA7ADFED426A67EEA67A93ED66
:104058007A6A77EE676AB4EEE66AF1EE10FA05D589
:10406800D3ED7A6A77EEA66AC3ED7A6A2E4BD3ED62
:104078007A6A37EE277AF4EEC76AF1EE10FA05DDB0
:1040880093ED7A7A77EE677AC3ED7A7A264C04F55F
:104098008563D3ED007AF0EEE77AC4ED7B7AD4F845
:1040A800DC3604F5F4709847D4F81432C4F82C318F
:1040B8002379DBB2012B2FD01B4BD3F82C211A4BC1
:1040C800C3F82C2193F8BC3323B9174B1B79DBB207
:1040D800012B54D1144B00221A71D3ED077AF5EE57
:1040E800C07AF1EE10FA48BF012283F8E02393F872
:1040F800E033DBB2012B2DD00B4B93F8E133002BCF
:1041080039D0094B93F8E133013BDBB234E00D4B76
:104118004FF07E521A6091E7D4F83421CFE700BF00
:104128007C490020F8078039000000209FAA2A3F18
:10413800920A863FDB0F494000401C46EBC91841F4
:10414800CDCC4C3E2408002028040020CDCC4C3E89
:104158000000FA43B54B93F8E133DBB2042B08D8DF
:10416800B24B93F8E1330133DBB2B04A82F8E13362
:1041780005E00023F9E70523AC4A82F8E133AB49AF
:10418800D1ED487AFCEEE77A17EE903AD1ED487A0D
:1041980091ED4B7A67EE877AFCEEE77A17EE902A74
:1041A80091F8E113C9B2052936D8DFE811F0060005
:1041B8000F0149017901A901D9019D49D1F8980355
:1041C80040F0C000C1F89803D1F8940340F03300E0
:1041D800C1F894039D184FF4003191FAA1F1B1FA96
:1041E80081F11039C9B29348934C34F81160815960
:1041F800090C0904294381519B1A4FF4002292FAB1
:10420800A2F2B2FA82F2103AD2B234F8121042583C
:10421800120C120413434350844AD2F8EC03874B20
:1042280003F580418863D2F8FC0303F58041C86335
:1042380002F20C41086803F58041086492F8E12312
:10424800D2B207EE902AF8EE677A03F58042C2ED03
:10425800117A1B78002B35D0784B9A6803F580418A
:10426800383109680A3203EB820211609A6803F553
:1042780080413C31096802F20A4203EB8202116074
:104288009A6803F580414031096802F60A0203EB97
:10429800820211609A6803F580414431096802F688
:1042A8000A4203EB820211609A6801329A609A68A6
:1042B80040F2FE339A4205D9604B01225A7000221F
:1042C8001A709A605D4B5B78002B00F094815B4B11
:1042D8009A680A3203EB8202116844F228041A1918
:1042E80011609A6802F20A4203EB8202116844F2F2
:1042F8002C001A1811609A6802F60A0203EB82026F
:10430800156844F230015A1815609A6802F60A4294
:1043180003EB8202166844F234029D182E6045258C
:104328001D745A255D741C5D9C7444F229041C5D3F
:10433800DC7444F22A041C5D1C7544F22B041C5DD9
:104348005C75185C987544F22D00185CD87544F2B9
:104358002E00185C187644F22F00185C5876595CC9
:10436800997644F23101595CD97644F23201595CAC
:10437800197744F23301595C59779A5C9A7744F279
:1043880035029A5CDA7744F236029A5C83F8202088
:1043980044F237029A5C83F8212093F82230DBB28A
:1043A800012B00F00D81254B9A6840F2FE339A42AA
:1043B80040F22181214B00225A709A609B78002B91
:1043C80000F019811D4B01221A7014E11849D1F827
:1043D800980340F03000C1F89803D1F8940340F0F6
:1043E800C300C1F894039D184FF4003191FAA1F16C
:1043F800B1FA81F11039C9B20E480F4C34F8116086
:104408008159090C0904294381519B1A4FF48012E0
:1044180092FAA2F2B2FA82F2103AD2B234F8121038
:104428004258120C120413434350F5E600000020D2
:10443800006801401C680140001901083C08002080
:104448008949D1F8980340F00300C1F89803D1F8DE
:10445800940340F0F000C1F894039D184FF4002134
:1044680091FAA1F1B1FA81F11039C9B27F48804CB3
:1044780034F811608159090C0904294381519B1AA8
:104488004FF4801292FAA2F2B2FA82F2103AD2B241
:1044980034F812104258120C120413434350BBE66E
:1044A8007149D1F8980340F0C000C1F89803D1F8D9
:1044B800940340F03300C1F894039D1A4FF400317F
:1044C80091FAA1F1B1FA81F11039C9B26748684C83
:1044D80034F811608159090C0904294381511344A6
:1044E8004FF4002292FAA2F2B2FA82F2103AD2B251
:1044F80034F812104258120C1204134343508BE63E
:104508005949D1F8980340F03000C1F89803D1F820
:10451800940340F0C300C1F894039D1A4FF400318E
:1045280091FAA1F1B1FA81F11039C9B24F48504C52
:1045380034F811608159090C090429438151134445
:104548004FF4801292FAA2F2B2FA82F2103AD2B280
:1045580034F812104258120C1204134343505BE60D
:104568004149D1F8980340F00300C1F89803D1F805
:10457800940340F0F000C1F894039D1A4FF4002111
:1045880091FAA1F1B1FA81F11039C9B23748384C22
:1045980034F811608159090C0904294381511344E5
:1045A8004FF4801292FAA2F2B2FA82F2103AD2B220
:1045B80034F812104258120C1204134343502BE6DD
:1045C8000BF058FA2B4B9A6801329A60002283F854
:1045D8002220E8E6284BD3F8E430012B0BD1274AF8
:1045E800536983F40053536105E0234B93F8503328
:1045F800DBB2012B0CD0224B5A68224B1A601B6885
:10460800214A12689B1A214A1360BDEC028BF8BD3F
:104618004FF0A042D2F888101D4B1960D2F88010D4
:104628005960D2F884109960D2F88C209A61194A9E
:10463800D2F88810D960D2F880101961D2F88410A5
:104648005961D2F88C20DA610B4B1B78DBB2072B4F
:10465800D1D8DFE813F02100BD05A30C8313291A74
:104668008F210C292B3400BF006801401C680140D1
:10467800001901083C08002000000020000800483C
:10468800001000E038080020A4480020300800206E
:104698007C49002000010050EA4B4FF400529A6216
:1046A800E94B00221A615A61C3F87821C3F88021C6
:1046B800C3F8BC21C3F8C421C3F80022C3F80822F8
:1046C800C3F81C21E1498A620879C0B2C870E04881
:1046D8000260D3F868030864DE49D1ED067AF8EE83
:1046E800E77A9FEDDD7A67EE877A93EDDC7A67EEFD
:1046F800877A03F24C6CCCED007AD1ED007AF8EEB3
:10470800E77A03F27C67C7ED007AD1ED017AF8EE1B
:10471800E77A03F28C66C6ED007AD1ED027AF8EEFC
:10472800E77A03F29C65C5ED007AD1ED037AF8EEDD
:10473800E77A03F2AC64C4ED007AD1ED047AF8EEBE
:10474800E77A03F2BC60C0ED007AD1ED057AF8EEA5
:10475800E77A03F2CC61C1ED007AC3F898204FF0F4
:104768007E52C3F89C2003F5CB62D2ED007A9CED13
:10477800007A03F25462D2ED006A37EE667A67EE89
:10478800877A92ED007A77EE877AC2ED007A03F5A0
:10479800D162D2ED007A97ED007A03F28462D2ED0D
:1047A800006A37EE667A67EE877A92ED007A77EEDE
:1047B800877AC2ED007A03F5D362D2ED007A96EDDE
:1047C800007A03F29462D2ED006A37EE667A67EEF9
:1047D800877A92ED007A77EE877AC2ED007A03F550
:1047E800D562D2ED007A95ED007A03F2A462D2ED9B
:1047F800006A37EE667A67EE877A92ED007A77EE8E
:10480800877AC2ED007A03F5D762D2ED007A94ED8B
:10481800007A03F2B462D2ED006A37EE667A67EE88
:10482800877A92ED007A77EE877AC2ED007A03F5FF
:10483800D962D2ED007A90ED007A03F2C462D2ED2B
:10484800006A37EE667A67EE877A92ED007A77EE3D
:10485800877AC2ED007A03F5DB62D2ED007A91ED3A
:10486800007A03F2D462D2ED006A37EE667A67EE18
:10487800877A92ED007A77EE877AC2ED007A93F81C
:104888005233002B40F08483A0F168031B686E4C00
:10489800C4F8083304F284631B68C4F8F43004F2E3
:1048A80094631B68C4F8F83004F2A4631B68C4F866
:1048B800FC3004F2B4631B68C4F8003104F2C4632A
:1048C8001B68C4F8043104F2D4631B68C4F80831C7
:1048D800D4F84431C4F80C33D4F84831C4F8103350
:1048E800D4F84C31C4F81433D4F8E83604F54270DF
:1048F8009847D4EDCA7A94ED277A67EE877A94EDD3
:10490800CB7AD4ED266A27EE267A77EE877AC4ED3D
:10491800CC7AD4EDCA7A94ED267A67EEC77A94ED0C
:10492800CB7AD4ED276A27EE267A77EE877AC4ED1C
:10493800CD7AD4ED487A9FED497A27EE877A77EEDB
:10494800877AFCEEE77A17EE903A4FF4003292FA43
:10495800A2F2B2FA82F2103AD2B24149414830F892
:1049680012400A59120C12041A430A514FF4002239
:1049780092FAA2F2B2FA82F2103AD2B230F81240A7
:104988000A59120C12041A430A514FF4801292FA6F
:10499800A2F2B2FA82F2103AD2B230F812000A58F1
:1049A800120C120413430B502F4AD2F8943343F0DD
:1049B800F303C2F894332D4BD3ED127A93ED077AB3
:1049C80067EE877AC3ED037AD3ED127A93ED087A0E
:1049D80067EE877AC3ED047AD3ED127A93ED097AFC
:1049E80067EE877AC3ED057AD3ED037A93ED047AFF
:1049F80077EE877A93ED057A77EE877A9FED1C7AC2
:104A080067EE877AC3ED067AD3ED037A93ED067ADB
:104A180077EEC77AC3ED007AD3ED047A93ED067A80
:104A280077EEC77AC3ED017AD3ED057A93ED067A6E
:104A380077EEC77AC3ED027A1A689A63D3ED007AE3
:104A48001CE000BF00080048000000209407002078
:104A5800240800207C490020000080390000000064
:104A68001C6801400019010800680140A84800209E
:104A7800AAAAAA3E3ACD133F3ACD933F1FED037A37
:104A880067EE877A93ED017A5FED056A27EE267A5D
:104A980077EE877AC3ED0F7AD3ED197AB0EE677A9D
:104AA800BEEEC47A17EE102AD517F749A2FB0167A4
:104AB80001FB0577320E42EA072202F58002511205
:104AC800A1F5005343F30D0303FB03F31A1340F658
:104AD800BC5303FB02F044F6BC53A3EBA03303FB27
:104AE80002F31B14C3F580531B0311F4804F40F0ED
:104AF800528207EE903AF8EEE77A9FEDE47A67EE95
:104B0800877AE34BC3ED1B7AD3ED197AB0EE677A57
:104B1800BEEEC47A17EE102AD517DB49A2FB01674F
:104B280001FB0577320E42EA07225112A1F5005324
:104B380043F30D0303FB03F31A1340F6BC5303FBC3
:104B480002F044F6BC53A3EBA03303FB02F31B149F
:104B5800C3F580531B0311F4804F40F01E8207EE0B
:104B6800903AF8EEE77A9FEDC97A67EE877AC84BF4
:104B7800C3ED1C7AD3ED0E7A93ED1B7A67EE877A34
:104B880093ED0F7AD3ED1C6A27EE267A77EE877AB3
:104B9800C3ED107AD3ED0E7A93ED1C7A67EEC77ADF
:104BA80093ED0F7AD3ED1B6A27EE267A77EE877A94
:104BB800C3ED117AD3ED107A93ED0C7AD3ED206A18
:104BC80027EE267A77EEC77A93ED227AD3ED136A29
:104BD80027EE267A77EE877AC3ED257AD3ED117A18
:104BE80093ED0D7AD3ED206A27EE267A77EEC77A11
:104BF80093ED217AD3ED136A27EE267A77EEC77AFA
:104C0800C3ED267AD3ED217A93ED257AD3ED276A81
:104C180027EE267A77EE877AC3ED237AD3ED227AC8
:104C280093ED267AD3ED276A27EE267A77EE877AF0
:104C3800C3ED247AD3ED237A93ED297A77EEC77AF8
:104C480093ED2A7A67EE877AC3ED0C7AD3ED247A4E
:104C580093ED2B7A67EE877AC3ED0D7A93ED217A7F
:104C6800D3ED286A93ED256AD3ED107AD3ED0C5A6B
:104C780093ED205A65EE855A77EEE57AD3ED225A00
:104C880093ED135A65EE855A77EEA57A76EE277A74
:104C980066EEA77A77EE277AC3ED217A93ED227A2A
:104CA800D3ED286A93ED266AD3ED117AD3ED0D5A28
:104CB80093ED205A65EE855A77EEE57AD3ED215AC1
:104CC80093ED135A65EE855A77EEE57A76EE277AF4
:104CD80066EEA77A77EE277AC3ED227AD3ED217AAA
:104CE80093ED297A77EEC77A93ED2A7A67EE877A79
:104CF800C3ED0C7AD3ED227A93ED2B7A67EE877A9F
:104D0800C3ED0D7AD3ED0C7A93ED1B7A67EE877AB3
:104D180093ED0D7AD3ED1C6A27EE267A77EEC77AE3
:104D2800C3ED0A7AD3ED0C7A93ED1C7A67EE877A95
:104D380093ED0D7AD3ED1B6A27EE267A77EE877A04
:104D4800C3ED0B7AD3ED187AB7EE087A67EE877A57
:104D580093ED217AD3ED0D6A27EE267AD3ED226AF8
:104D680093ED0C6A66EE866A37EE667A67EE877AA6
:104D7800C3ED157A0022C3F8C420D3ED137AF5EEFB
:104D8800C07AF1EE10FA07DDD3ED307A93ED177A99
:104D980077EE877AC3ED317A3D4BD3ED137AF5EE92
:104DA800C07AF1EE10FA00F1FA80394BD3ED276A98
:104DB80093ED167AC6EE877A93ED157AD3ED316ABC
:104DC80037EE667A67EE877AF0EEE76A93ED137A44
:104DD800B0EEC77AF4EEC76AF1EE10FA0EDD93ED85
:104DE800157AB0EEC77AD3ED306AB4EEE67AF1EE12
:104DF80010FA03D5DFED277AC3ED137A244B93ED30
:104E0800137A77EE277AC3ED137AD3ED137A9FEDF1
:104E1800227A67EE877AC3ED147AD3ED137A93ED8D
:104E2800157A67EE877AC3ED2F7A9A6AC3F8B020AD
:104E380093ED0A7AFEEE005A27EE257AD3ED0B6A37
:104E48009FED166A66EE866A37EE267A83ED2D7A2E
:104E5800D3ED0A7A67EEA57A93ED0B7A27EE067AF8
:104E680077EEC77AC3ED2E7AD3ED1A7A93ED277AC7
:104E7800D3ED136A27EE267A77EE877AC3ED1A7A8E
:104E880093ED1A7A10E000BF60BE2800000080335E
:104E9800A848002000000000EBC91841D7B35D3FC7
:104EA800DA0F4940DA0FC9C05FED037AB4EEE77A4A
:104EB800F1EE10FA07DD93ED1A7A5FED067A77EED8
:104EC800C77AC3ED1A7ABA4B93ED1A7ADFEDB97A3D
:104ED800B4EEE77AF1EE10FA07D5D3ED1A7A9FED22
:104EE800B67A77EE877AC3ED1A7AB14BD3ED1A7A90
:104EF80093ED187A67EE877AC3ED197A93ED197AEC
:104F0800DFEDAE7AB4EEE77AF1EE10FA07DD93ED55
:104F1800197ADFEDAB7A77EEC77AC3ED197AA44B2D
:104F280093ED197ADFEDA37AB4EEE77AF1EE10FA91
:104F380007D5D3ED197A9FEDA07A77EE877AC3ED7E
:104F4800197AA04C94EDC27AF3EE047AB4EEE77ABB
:104F5800F1EE10FAACBF0123002384F8B933E36DF6
:104F6800C4F8A833236EC4F8AC33D4F80833C4F8B3
:104F7800B033954B1B69C4F8B433D4F8EC3604F558
:104F88006570984794F8B833A3B92378DBB212E078
:104F9800874B9B6C7BE45B42ABE55B42DFE5D3ED83
:104FA800307AF1EE677A93ED177A77EEC77AC3ED28
:104FB800317AFAE60723834A137092F8FD350133F4
:104FC800DBB282F8FD3592F8FD35DBB2622B03D8EF
:104FD80092F8FD25D2B200E000227A4B83F8FD2535
:104FE80093F8FD25D2B207EE902AF8EE677A774A51
:104FF80002F58041C1ED0E7A93F8FD1501F58D712A
:1050080003EB8101486802F58041C863D3F8600169
:1050180002F580410864D3F8A41102F5804359646D
:105028001378002B35D01346926803F58041383148
:1050380009680A3203EB820211609A6803F580411D
:105048003C31096802F20A4203EB820211609A6855
:1050580003F580414031096802F60A0203EB820237
:1050680011609A6803F580414431096802F60A42E2
:1050780003EB820211609A6801329A609A6840F2E2
:10508800FE339A4205D9514B01225A7000221A70F8
:105098009A604E4B5B78002B3FF4ADAA4B4B9A6855
:1050A8000A3203EB8202116844F228041A191160CB
:1050B8009A6802F20A4203EB8202116844F22C0059
:1050C8001A1811609A6802F60A0203EB8202156840
:1050D80044F230015A1815609A6802F60A4203EB46
:1050E8008202166844F234029D182E6045251D740C
:1050F8005A255D741C5D9C7444F229041C5DDC74A3
:1051080044F22A041C5D1C7544F22B041C5D5C757A
:10511800185C987544F22D00185CD87544F22E007E
:10512800185C187644F22F00185C5876595C99760A
:1051380044F23101595CD97644F23201595C19774D
:1051480044F23301595C59779A5C9A7744F23502F4
:105158009A5CDA7744F236029A5C83F8202044F2AB
:1051680037029A5C83F8212093F82230DBB2012BB6
:1051780013D0164B9A6840F2FE339A427FF63BAA48
:10518800124B00225A709A609B78002B3FF433AA86
:105198000E4B01221A70FFF72EBA0AF06BFC0B4B6C
:1051A8009A6801329A60002283F82220E1E700BF62
:1051B800A8480020DA0F49C0DA0FC940DA0F494081
:1051C800DA0FC9C000000020844800203C080020F5
:1051D800B64B93ED447AD3ED457AD3EDDA6A67EEB0
:1051E800A67A93ED436A77EE676AB4EEE66AF1EE63
:1051F80010FA05D5D3ED436A77EEA66AC3ED436A84
:10520800AA4BD3ED436A37EE277AF4EEC76AF1EE7C
:1052180010FA05DD93ED437A77EE677AC3ED437AAA
:10522800A24BD3ED467A93ED437A27EE877AD3EDF6
:10523800477A77EE877AC3ED477A93ED477ADFEDC1
:105248009C7AB4EEE77AF1EE10FA40F11B81D3EDC7
:10525800477A9FED987A77EE877AC3ED477A934B32
:10526800D3ED477A944B1B6803F00F03012B08D04A
:10527800914A1168914B0B4043F4002343F06103BA
:1052880013609FED8F7A67EE877AFEEEE07A8A4A9E
:10529800C2ED017A92ED027AB8EEC77ADFED896A3B
:1052A80027EE267A814B83ED267AD2ED027AF8EE44
:1052B800E77A67EEA67AC3ED277A93F85233DBB222
:1052C800012B00F01181794B93F85233002B40F0F9
:1052D80023817D4AD2ED007AF8EEE77A734B93ED9D
:1052E8003D7A77EEC77A93EDDB7ADFED786A27EEC1
:1052F800267A67EE877AC3ED0B7AD2ED017AF8EE5B
:10530800E77A93ED3E7A77EEC77A93EDDB7A27EE6C
:10531800267A67EE877AC3ED0C7AD2ED027AF8EE38
:10532800E77A93ED3F7A77EEC77A93EDDB7A27EE4B
:10533800267A67EE877AC3ED0D7AD2ED067AF8EE13
:10534800E77A9FED637A67EE877AD3EDDC6A67EEDA
:10535800A67AC3EDC27AD2ED037AF8EEE77AD3EDF6
:10536800DC6A66EE876A67EEA67AC3ED0E7AD2ED3E
:10537800047AF8EEE77AD3EDDC6A66EE876A67EEC0
:10538800A67AC3ED0F7AD2ED057AF8EEE77AD3ED77
:10539800DC6A26EE877A67EE877AC3ED107A9A6B15
:1053A800C3F8EC23DA6BC3F8FC23196C03F20C4244
:1053B8001160D3EDFE7A93EDFB7AD3EDFD6A37EEFB
:1053C800667A67EE877A93EDFD7A77EE877AC3ED92
:1053D800FD7A03F58161D1ED007A93EDFF7A03F24E
:1053E8000441D1ED006A37EE667A67EE877A91ED6F
:1053F800007A77EE877AC1ED007A03F58360D0ED05
:10540800007A92ED007A03F21442D2ED006A37EE88
:10541800667A67EE877A92ED007A77EE877AC2ED40
:10542800007AD86AD865D3ED0B7ADFED2A6A67EE81
:10543800A67A93ED0C7A9FED286A27EE067A77EE26
:10544800877AC3ED187AD3EDFD7A9FED247A67EE5B
:10545800877A91ED007A92ED006A37EE467A9FEDF1
:10546800206A27EE067A77EEC77AC3ED117AD1ED76
:10547800007A92ED007A77EEC77A67EEA67AC3EDE6
:10548800127A49E0094B93ED477ADFED167AB4EECC
:10549800E77AF1EE10FA7FF7E2AED3ED477A9FEDA7
:1054A800057A77EEC77AC3ED477AD8E60000002080
:1054B800DB0F49C0DB0FC940000C024000F887FF32
:1054C80083F9A23E000000307C4900200000003A29
:1054D800000080393ACD133F3ACD933FABAA2A3F1B
:1054E800ABAAAA3EDB0F49409A4BD3F8B0109A4AB0
:1054F800D165D3ED2C7A9FED997A67EE877A93ED93
:105508002D7ADFED976A27EE267A77EE877AC2ED55
:10551800187A9B6CC2F808338F4BD3ED177A93ED4A
:10552800277A67EE877A93ED187AD3ED266A27EE05
:10553800267A77EE877AC3ED197AD3ED187A93ED48
:10554800277A67EE877A93ED177AD3ED266A27EEE6
:10555800267A77EEC77AC3ED1A7A596E03F22C626F
:105568001160996E03F23C600160D3F8084303F2BE
:105578004C610C6003F5C764D4ED007A92ED007AB3
:1055880003F23462D2ED006A37EE667A67EE877A04
:1055980092ED007A77EE877AC2ED007A03F5C96258
:1055A800D2ED007A90ED007A03F24462D2ED006AFF
:1055B80037EE667A67EE877A92ED007A77EE877A29
:1055C800C2ED007A03F5CB62D2ED007A91ED007A54
:1055D80003F25462D2ED006A37EE667A67EE877A94
:1055E80092ED007A77EE877AC2ED007A93F852331B
:1055F800002B40F0AB801368574CC4F80833D4F83C
:105608004431C4F80C33D4F84831C4F81033D4F812
:105618004C31C4F81433D4F8E83604F5427098478E
:10562800D4EDCA7A94ED277A67EE877A94EDCB7A2F
:10563800D4ED266A27EE267A77EE877AC4EDCC7AFF
:10564800D4EDCA7A94ED267A67EEC77A94EDCB7AD0
:10565800D4ED276A27EE267A77EE877AC4EDCD7ADD
:10566800D4ED027A94ED277A67EE877A94ED037A7F
:10567800D4ED266A27EE267A77EEC77AC4ED4E7AFD
:10568800D4ED037A94ED277A67EE877A94ED027A5F
:10569800D4ED266A27EE267A77EE877AC4ED4F7A1C
:1056A80094EDCC6A94EDC27ADFED2D6A27EE267A66
:1056B800C6EE077AC4EDD27A94EDCD6AD4EDC27AFB
:1056C80067EEA67A86EE277A84EDD17A94EDD20A2F
:1056D800D4EDD27A20EE270AD4EDD17A94EDD17A9E
:1056E80067EE877A30EE270A0BF092FE84ED4B0ABC
:1056F800D4ED437A9FED1B7A67EE877AD4EDE36A9F
:1057080087EEA67A84ED0A7AD4F80833C4F84031D3
:10571800D4F8E03604F59C709847E36DC4F8A833D4
:10572800236EC4F8AC33D4F80833C4F8B0330E4B46
:105738001B69C4F8B433D4F8EC3604F5657098479F
:1057480094F8B83393B92378DBB210E0014B9B6C23
:1057580052E700BFA8480020000000203ACD133FC0
:105768003ACD933F00007042844800200723F24A54
:105778001370D2F84411F14BD961D2F8481119626B
:10578800D2F84C115962D2ED516A92ED527A92EDEB
:10579800536AD2ED487A66EEA76A77EEA66AFCEEFF
:1057A800E66A4FF4003292FAA2F2B2FA82F2103AA2
:1057B800D2B2E349E34830F812400A59120C1204F5
:1057C80016EE905A15430D5127EE277A37EE877A51
:1057D800BCEEC77A4FF4002292FAA2F2B2FA82F231
:1057E800103AD2B230F812400A59120C120417EECD
:1057F800105A15430D5126EE277A77EE877AFCEE7C
:10580800E77A4FF4801292FAA2F2B2FA82F2103AD0
:10581800D2B230F812000A58120C120417EE904A4D
:1058280014430C50D3ED127A93ED077A67EE877A1A
:10583800C3ED037AD3ED127A93ED087A67EE877A8F
:10584800C3ED047AD3ED127A93ED097A67EE877A7D
:10585800C3ED057AD3ED037A93ED047A77EE877A70
:1058680093ED057A77EE877A9FEDB77A67EE877AB8
:10587800C3ED067AD3ED037A93ED067A77EEC77A0D
:10588800C3ED007AD3ED047A93ED067A77EEC77A02
:10589800C3ED017AD3ED057A93ED067A77EEC77AF0
:1058A800C3ED027A1A689A63D3ED007A9FEDA77A5E
:1058B80067EE877A93ED017ADFEDA56A27EE267AFF
:1058C80077EE877AC3ED0F7AD3ED197AB0EE677A5F
:1058D800BEEEC47A17EE102AD5179E49A2FB0167BF
:1058E80001FB0577320E42EA072202F580025112C7
:1058F800A1F5005343F30D0303FB03F31A1340F61A
:10590800BC5303FB02F044F6BC53A3EBA03303FBE8
:1059180002F31B14C3F580531B0311F4804F40F0AE
:10592800248307EE903AF8EEE77A9FED8B7A67EEDC
:10593800877A824BC3ED1B7AD3ED197AB0EE677A7A
:10594800BEEEC47A17EE102AD5178249A2FB01676A
:1059580001FB0577320E42EA07225112A1F50053E6
:1059680043F30D0303FB03F31A1340F6BC5303FB85
:1059780002F044F6BC53A3EBA03303FB02F31B1461
:10598800C3F580531B0311F4804F40F0F08207EEFB
:10599800903AF8EEE77A9FED707A67EE877A674B70
:1059A800C3ED1C7AD3ED0E7A93ED1B7A67EE877AF6
:1059B80093ED0F7AD3ED1C6A27EE267A77EE877A75
:1059C800C3ED107AD3ED0E7A93ED1C7A67EEC77AA1
:1059D80093ED0F7AD3ED1B6A27EE267A77EE877A56
:1059E800C3ED117AD3ED107A93ED0C7AD3ED206ADA
:1059F80027EE267A77EEC77A93ED227AD3ED136AEB
:105A080027EE267A77EE877AC3ED257AD3ED117AD9
:105A180093ED0D7AD3ED206A27EE267A77EEC77AD2
:105A280093ED217AD3ED136A27EE267A77EEC77ABB
:105A3800C3ED267AD3ED217A93ED257AD3ED276A43
:105A480027EE267A77EE877AC3ED237AD3ED227A8A
:105A580093ED267AD3ED276A27EE267A77EE877AB2
:105A6800C3ED247AD3ED237A93ED297A77EEC77ABA
:105A780093ED2A7A67EE877AC3ED0C7AD3ED247A10
:105A880093ED2B7A67EE877AC3ED0D7A93ED217A41
:105A9800D3ED286A93ED256AD3ED107AD3ED0C5A2D
:105AA80093ED205A65EE855A77EEE57AD3ED225AC2
:105AB80093ED135A65EE855A77EEA57A76EE277A36
:105AC80066EEA77A77EE277AC3ED217A93ED227AEC
