:020000040800F2
:100000000000022041EA00089DD90008A1D900089B
:10001000A5D90008A9D90008ADD900080000000042
:10002000000000000000000000000000B1D900083E
:10003000B5D9000800000000B9D90008BDD90008F2
:10004000B5EA0008B5EA0008B5EA0008B5EA000814
:10005000B5EA0008B5EA0008B5EA0008B5EA000804
:10006000B5EA0008B5EA0008B5EA0008B5EA0008F4
:10007000B5EA0008B5EA0008B5EA0008B5EA0008E4
:10008000F1D90008B5EA000801000010B5EA00083F
:10009000B5EA0008B5EA0008B5EA0008C1D90008C9
:1000A000B5EA0008B5EA0008B5EA0008B5EA0008B4
:1000B000C18D0008B5EA0008B5EA0008B5EA0008F5
:1000C000B5EA0008B5EA0008B5EA0008B5EA000894
:1000D000B5EA0008B5EA000821DA0008B5EA000828
:1000E000B5EA0008B5EA0008B5EA0008B5EA000874
:1000F000B5EA0008B5EA0008B5EA0008B5EA000864
:10010000B5EA0008B5EA0008B5EA0008B5EA000853
:10011000B5EA0008B5EA0008B5EA0008C5D9000844
:10012000B5EA0008B5EA0008B5EA0008B5EA000833
:10013000B5EA0008B5EA0008B5EA0008B5EA000823
:10014000B5EA0008B5EA0008B5EA0008B5EA000813
:10015000B5EA0008B5EA0008B5EA0008B5EA000803
:10016000B5EA0008DDD90008B5EA0008B5EA0008DC
:10017000B5EA0008B5EA0008B5EA0008B5EA0008E3
:10018000B5EA0008B5EA0008B5EA0008B5EA0008D3
:10019000B5EA000800000000B5EA0008B5EA00086A
:1001A000B5EA0008B5EA0008B5EA0008B5EA0008B3
:1001B000B5EA0008B5EA0008B5EA0008B5EA0008A3
:1001C000B5EA0008B5EA0008B5EA0008B5EA000893
:0801D000B5EA0008B5EA0008D9
:1001D8002DE9F04F2DED048BC94BCA4F5B68CA4A15
:1001E8003B604FF0A041C94CC94E40230B601360DF
:1001F800D4F8F4300133C4F8F430D4F8F8300133CB
:10020800C4F8F830D4F8FC300133C4F8FC30D4F822
:10021800F430D4EDDD7A96ED007A67EE877A87B010
:10022800FCEEE77A17EE902A934207D3B94A53694E
:10023800002183F480435361C4F8F4104FF0A042C6
:10024800B54BD2F888101960D2F880105960D2F8EE
:1002580084109960D2F88C109961D2F88811D9600D
:10026800D2F880111961D2F88411596102F58072AF
:10027800D2F88C20DA6194F86023002A48D1627899
:10028800052A37D8DFE812F0550036006201E4028B
:10029800E4024804A149D1F8980340F0C000C1F82D
:1002A8009803D1F8940340F03300C1F894034FF455
:1002B800003191FAA1F1B1FA81F11039C9B2984D22
:1002C800984835F811C0984C5CF800609918264099
:1002D80031434CF800104FF4002191FAA1F1B1FA22
:1002E80081F11039C9B29B1A35F811100A58224009
:1002F80013430B50824A8D4B52681A601B68396849
:100308008B4A5B1A136007B0BDEC048BBDE8F08F15
:1003180094F86023012AEDD12278072AEAD8DFE889
:1003280012F00B068912A70C9F0908084B11ED0F54
:10033800840C804A3260DA689FED837AD4EDE05A03
:100348007D4DDFED7E6A9FED7E6AA2F2FF7207EEB9
:10035800902AF8EEE77A284667EE877A294667EE0C
:10036800A57A0026C4EDFF7A1A69D4EDE05AA2F204
:10037800FF7207EE902AF8EEE77A4FF0010C67EE6D
:10038800877A67EEA57A17EE902A40F804295A6909
:10039800D4EDE05AA2F2FF7207EE902AF8EEE77A5F
:1003A80067EE877A67EEA57A17EE902A41F8102F44
:1003B800D3ED067AD4EDE05AF8EEE77A67EE877A5D
:1003C80067EEA57AC4EDC67AD3ED007AD4EDDF5A8C
:1003D800F8EEE77A67EE877A67EEA57AC4ED417A98
:1003E800D3ED017AD4EDDF5AF8EEE77A67EE877A33
:1003F80067EEA57AC4ED427AD3ED027AD4EDDF5ADE
:10040800F8EEE77A67EE877A67EEA57AC4ED437A65
:10041800D0ED005A94EDFF7A55ED027A37EE677AFF
:1004280055ED027AE5EE877A28462C3545ED0D7AAA
:1004380055ED085A15ED0B7A55ED097A37EE677ABE
:1004480055ED097AE5EE877A45ED097A55ED045AB6
:1004580091ED007A55ED057A37EE677A55ED057A14
:10046800E5EE877A45ED057AC4F8346184F804C06E
:10047800C4F8F861C4F81062C4F81862C4F83C61A2
:1004880094F8F13307EE903AF8EE677AE7EEA66A49
:1004980076EE666AC4ED4B6AD4F82C3140F8203FFA
:1004A800D4F808379847D5ED007A9FED267AD4ED31
:1004B800E76A67EE877A87EEA67A84ED0B7AD4ED41
:1004C8004C7A94ED4C7A94F8F113FCEEE77A17EE37
:1004D800903AFCEEC77A17EE902A05293FF60AAF44
:1004E80001A050F821F000BFC50000109B2D00109E
:1004F800512D0010092D0010E92C0010592B001067
:10050800001000E0CC48002000010050000000204E
:100518004008002000080048A44900200068014065
:1005280008F200081C6801400000FFFF6008002076
:10053800480800200AD7233C0C040020920A863F72
:10054800DB0F4940EBC91841F8078039DA681FED1D
:10055800027AD4EDE06ADFF8F0A2A2F2FF7207EEA9
:10056800902AF8EEE77AD14667EE877A67EEA67AA0
:10057800C4EDFF7A1A69D4EDE06AA2F2FF7207EEC1
:10058800902AF8EEE77A67EE877A67EEA67ACAEDE0
:10059800007A5A69D4EDE06AA2F2FF7207EE902A57
:1005A800F8EEE77A67EE877A67EEA67A17EE902A72
:1005B80049F8102FD3ED067AD4EDE06AF8EEE77A21
:1005C80067EE877A67EEA67AC4EDC67AD3ED007A2D
:1005D80094EDDF6AD4ED416AF8EEE77A67EE877A40
:1005E800D7EE866AC4ED0C6AD3ED017A94EDDF6A22
:1005F800D4ED426AF8EEE77A67EE877AD7EE866A34
:10060800C4ED0D6AD3ED027A94EDDF6AD4ED436A46
:10061800F8EEE77A27EE877AF0EE667AD7EE067A72
:10062800C4ED0E7A94ED0C6AD4ED0C6A94ED0D0AC3
:10063800D4ED0D5A94ED0E7AD4ED0E7A20EE250AFB
:10064800A6EE260AA7EE270AB5EE400AF1EE10FA42
:10065800B1EEC08A05F10C85744D2A46A5F50A71DC
:10066800A5F5017CA5F51870A5F5FA78DFED707A87
:1006780028EE278A84ED168AA36D42F80C3BD2ED4A
:10068800006A95ED007AD5ED027A37EE677AD5EDF6
:10069800027AE6EE877A2B460833A5F50972C5ED8E
:1006A800027A1B68E365D2ED006A94EDFF7A91ED5A
:1006B800006AD1ED007A37EE467AA5F50672E6EEC5
:1006C800877AA5F50573C1ED007AD3ED006A9AED36
:1006D800007A92ED006AD2ED007A37EE467AA5F5F7
:1006E8000273E6EE877AC2ED007ADCED006A99EDD6
:1006F800007A93ED006AD3ED007A37EE467AE6EE9B
:10070800877AC3ED007A0968C4F8D8131268C4F868
:10071800DC231B68C4F8E033D4F80037984794F812
:10072800F133DFED447A9FED447A06EE903AF8EE25
:10073800666AA5F50073E6EEA77A184677EE677A3B
:10074800C4ED4B7AD4F82C211A60D4F808379847AE
:1007580094ED177ADFED397AB4EEE77AF1EE10FA14
:1007680000F3EA8198ED007AF2EE047AB4EEE77AC3
:10077800F1EE10FA00F1E08198ED007AF2EE047AD9
:10078800B4EEE77AF1EE10FACCBF2D4B4FF07E5362
:10079800336094ED4D7AD4ED4E7AB4EEE77AF1EE0B
:1007A80010FA09DBD4EDDE6A9FED267AD4ED4D7A96
:1007B800E6EEC77AC4ED4D7AD4F8F830D4ED4D7A28
:1007C800FCEEE77A17EE902A934212D30023C4F87E
:1007D800F83094F8F023012A02F0748294F8F13387
:1007E800002B03F03C8594F8F133013BDBB284F82D
:1007F800F133D4ED4C7A94ED4C7AD4ED4F6A94F8F9
:10080800F113FCEEE77A27EE267A17EE903AFCEE23
:10081800C77A17EE902A052900F2F682DFE811F070
:1008280026131613E812C112B012C2022C060020B9
:100838009FAA2A3F920A863FDB0F4940CDCC4C3E07
:10084800CDCC4C3E0000FA430C040020F807803958
:10085800DA681FED027AD4EDE06ADFF844A3A2F269
:10086800FF7207EE902AF8EEE77AD14667EE877AAC
:1008780067EEA67AC4EDFF7A1A69D4EDE06AA2F2AF
:10088800FF7207EE902AF8EEE77A67EE877A67EE4E
:10089800A67ACAED007A5A69D4EDE06AA2F2FF722C
:1008A80007EE902AF8EEE77A67EE877A67EEA67A7F
:1008B80017EE902A49F8102FD3ED067AD4EDE06AA6
:1008C800F8EEE77A67EE877A67EEA67AC4EDC67A1D
:1008D800D3ED007A94EDDF6AD4ED416AF8EEE77A59
:1008E80067EE877AD7EE866AC4ED0C6AD3ED017A93
:1008F80094EDDF6AD4ED426AF8EEE77A67EE877A1C
:10090800D7EE866AC4ED0D6AD3ED027A94EDDF6AFC
:10091800D4ED436AF8EEE77A27EE877AF0EE667A46
:10092800D7EE067AC4ED0E7A94ED0C6AD4ED0C6A13
:1009380094ED0D0AD4ED0D5A94ED0E7AD4ED0E7A9D
:1009480020EE250AA6EE260AA7EE270AB5EE400AEB
:10095800F1EE10FAB1EEC08A05F18683874D2A467A
:100968002B460833A5F50570A5F5017CA5F5FA78A1
:10097800DFED837A28EE278A84ED168AA16D42F886
:100988000C1BD2ED006A95ED007AD5ED027A37EEB0
:10099800677AD5ED027AE6EE877AA5F50A71A5F5AC
:1009A8000972C5ED027A1B68E365D2ED006A94ED21
:1009B800FF7A91ED006AD1ED007A37EE467AA5F517
:1009C8000672E6EE877AA5F50273C1ED007AD0EDDE
:1009D800006A9AED007A92ED006AD2ED007A37EE5D
:1009E800467AA5F51870E6EE877AC2ED007ADCED56
:1009F800006A99ED007A93ED006AD3ED007A37EE3C
:100A0800467AE6EE877AC3ED007A0968C4F8D81307
:100A18001268C4F8DC231B68C4F8E033D4F8003744
:100A2800984794F8F133DFED577A9FED577A574A94
:100A380006EE903AF8EE666AA5F5F473E6EEA77A44
:100A4800A5F50075284677EE677AC4ED4B7A1A60EB
:100A5800D4F82C312B60D4F808379847D8ED007AB1
:100A6800DFED4B6A94EDE76A9FED4A7A67EEA67A66
:100A7800C7EE866AC4ED0B6AD4ED177AF4EEC77A2E
:100A8800F1EE10FA54DC98ED007AF2EE047AB4EE46
:100A9800E77AF1EE10FA4BD498ED007AF2EE047A88
:100AA800B4EEE77AF1EE10FACCBF3B4B4FF07E5331
:100AB80033606378042B03F093836378032B03F08C
:100AC8006A832379012B0CBFD4F84431D4F83C3124
:100AD800C4F83C3194F8CC3393BB2379012B2FD045
:100AE800D4ED4C7A94ED4C7AD4ED4F6A94F8F11326
:100AF800FCEEE77A27EE267A17EE903AFCEEC77AF4
:100B080017EE902A05297FD8DFE811F0E7104C008E
:100B1800AC127D126D123F12D4F8F430012B7FF421
:100B2800E9AB1E4A536983F400535361FFF7E2BBF4
:100B38004FF07C533360AFE74FF07C5333601BE6D4
:100B480000232371D4ED087AF5EEC07AF1EE10FA9D
:100B58004CBF01221A4684F8F02394F8F023012AA6
:100B680000F0D18194F8F133002B03F0758394F8E9
:100B7800F133013BDBB284F8F133B1E72C060020F6
:100B88009FAA2A3F920A863FDB0F494000401C4635
:100B9800EBC91841CDCC4C3ECDCC4C3E00080048AA
:100BA8000C0400207849D1F8980340F03000C1F8CF
:100BB8009803D1F8940340F0C300C1F894034FF4AC
:100BC800003191FAA1F1B1FA81F11039C9B26F4E31
:100BD8006F4836F811E06F4D5EF800C099180CEABE
:100BE800050C41EA0C014EF800104FF4801191FAFF
:100BF800A1F1B1FA81F11039C9B29B1A36F8111076
:100C08000A5815402B430B50634ED4F8FC3333601D
:100C1800DAF800307360D9F80030B36094F8F13333
:100C28005E4D07EE903AF8EE677A06F10801C6EDD8
:100C3800037A2B7806F10C023BB3AB6834680A33AD
:100C480005EB83031C60AB68706803F20A4305EB8D
:100C580083031860AB68096803F60A0305EB83038E
:100C68001960AB68126803F60A4305EB83031A6040
:100C7800AB680133AB60AA6840F2FE339A4204D9EC
:100C8800002301226A702B70AB606B78002B3FF455
:100C980031ABAA68424B0A3205EB82021946126848
:100CA80041F8042BAA6802F20A4205EB820244F2D8
:100CB800300612680A60AA6802F60A0205EB820288
:100CC80044F22C0411689960AA6802F60A4205EBFE
:100CD800820244F228001168AA5D2E5D2C5C44F261
:100CE8002900285CD96044F22A014523695C2B74E9
:100CF8005A236B74AC7444F22B0344F22D04EB5C5E
:100D08002C5DE874297544F22E0044F22F01285C0A
:100D1800695C6B7544F23103AE75EC7544F23206CA
:100D2800287644F23304697644F23400AA7644F211
:100D3800350144F23602EB5CAE5D2C5D285C695CE3
:100D4800AA5CEB7644F237032E77EB5C6C77A877D6
:100D5800E97785F8202085F8213095F82230012B95
:100D680003F07082AA6840F2FE339A427FF6C2AA64
:100D780000236B70AB60AB78002B3FF4BBAA012358
:100D88002B70FFF7B7BA00BF0068014008F20008EF
:100D98001C6801400000FFFF9C48002064080020F8
:100DA8008C4800205D49D1F8980340F00300C1F851
:100DB8009803D1F8940340F0F000C1F894034FF47D
:100DC800002191FAA1F1B1FA81F11039C9B2544E5A
:100DD800544836F811E0544D5EF800C0991A0CEAF0
:100DE800050C41EA0C014EF800104FF4801191FAFD
:100DF800A1F1B1FA81F11039C9B2134436F81110D2
:100E08000A582A4013430B50484ED4F8D83333605D
:100E180094F8CC33464D07EE903AF8EE677A06F12F
:100E28000801C6ED017AD4F8F833B360D4F8D033AA
:100E3800F3602B7806F10C0213B3AB6834680A33FD
:100E480005EB83031C60AB68706803F20A4305EB8B
:100E580083031860AB68096803F60A0305EB83038C
:100E68001960AB68126803F60A4305EB83031A603E
:100E7800AB680133AB60AA6840F2FE339A423CD8B3
:100E88006B78002B3FF436AAEA68AB889A4222D3E3
:100E9800AA68284B0A3205EB82021946126841F803
:100EA800042BAA6802F20A4205EB820212680A6061
:100EB800AA6802F60A0205EB820211689960AA681C
:100EC80002F60A4205EB82021168D9600022EA6044
:100ED800AB680133AB60EB680133EB60AA6840F2A2
:100EE800FE339A427FF606AA00236B70AB60EB6074
:100EF800AB78002B3FF4FEA941E7002301226A707A
:100F08002B70AB60BCE794F8F123042A3FF633AEAC
:100F180094F8F1330133DBB22DE600BF00680140DD
:100F280008F200081C6801400000FFFF9C480020F0
:100F3800640800208C480020E748E84D9FEDE87AD7
:100F4800E84A00214FF4005CC5F828C06161A1613E
:100F5800C4F88811C4F89011C4F8CC11C4F8D4119D
:100F6800C4F81012C4F81812C4F82C11816205795B
:100F7800EDB2C5703160D4F878530564D3ED067AC4
:100F8800D4EDE06AF8EEE77A904667EE877A9646FF
:100F980067EEA67A944617EE900A48F80C0BD3ED44
:100FA800007AF8EEE77A164617EE900A4EF8300FF8
:100FB800D3ED017AF8EEE77A154617EE900A4CF869
:100FC800400FD3ED027AF8EEE77A104617EE909AC2
:100FD80046F8509FD3ED037AD4EDE06AF8EEE77A4D
:100FE80066EE876A67EEA67A17EE909A45F8609FD4
:100FF800D3ED047AD4EDE06AF8EEE77A66EE876A14
:10100800914667EEA67A17EE90AA40F870AFD3ED36
:10101800057AD4EDE06AF8EEE77A26EE877A4FF0A3
:101028007E5367EE877A17EE90BA49F880BFC4F806
:10103800A410C4F8A830D8ED006A92ED007AD2ED79
:10104800027A37EE677AD2ED027AE6EE877A02F113
:10105800380813464833C2ED027AD2ED0F6A9EED86
:10106800007AD8ED007A37EE677AD8ED007AE6EEA6
:10107800877A02F1580E11460831C8ED007AD2ED90
:10108800136A9CED007AD3ED007A37EE677AD3EDD8
:10109800007AE6EE877A02F1680CC3ED007AD2EDA9
:1010A800176A96ED007ADEED007A37EE677ADEEDA4
:1010B800007AE6EE877A16467836CEED007AD2EDDB
:1010C8001B6A95ED007ADCED007A37EE677ADCED85
:1010D800007AE6EE877A15468835CCED007AD2EDAF
:1010E8001F6A90ED007AD6ED007A37EE677AD6ED72
:1010F800007AE6EE877AC6ED007AD2ED236A99ED9A
:10110800007AD5ED007A37EE677AD5ED007AE6EE0B
:10111800877AC5ED007A94F86223002A43F0E981C2
:101128000A68C4F81823D4EDC67AD8F80020C4F8A1
:101138000421F7EE006A86EEA77A1B68C4F8083126
:10114800DEF80030C4F80C316748DCED007A67EE51
:10115800877AC4ED447AD6ED007A67EE877AC4EDD3
:10116800457AD5ED007A67EE877AC4ED467AD4F8E9
:101178005431C4F81C33D4F85831C4F82033D4F8A7
:101188005C31C4F82433D4F8F836984794EDCE6A25
:10119800D4ED2A6AD4EDCF7AD4ED295A9FED537A4B
:1011A80067EEA57A4FF40033E6EE267AC4EDD07ADE
:1011B80094EDCE6AD4ED296AD4EDCF7AD4ED2A5ACB
:1011C80067EEA57AE6EE667AC4EDD17AD4ED4C7A6C
:1011D800E7EE877AFCEEE77A17EE901A93FAA3F314
:1011E800B3FA83F3103BDBB2414E424836F8132082
:1011F800414D13582B400B4313504FF4002292FAE1
:10120800A2F2B2FA82F2103AD2B24FF4801336F850
:1012180012C05CF800202A400A434CF8002093FAD8
:10122800A3F3B3FA83F3103BDBB2344A36F8136006
:1012380033581D4029433150D2F8943343F0F30317
:10124800C2F8943304F068FF94EDC67A2C4B2D480D
:10125800F3EE047AB4EEE77AF1EE10FAACBF0122AD
:10126800002284F8C923A26EC4F8B823E26EC4F839
:10127800BC23D4F81823C4F8C0231B69C4F8C433AA
:10128800D4F8FC36984794F8C833002B43F02E81E5
:101298002378DBB2237094F80D361B4E1B4D0133B7
:1012A800DBB284F80D3694F80D36622B96BF94F8AD
:1012B8000D360023DBB284F80D3694F80D3607EEB0
:1012C800903AF8EE677A06F10801C6ED007A94F8CC
:1012D8000D3603F58F731BE0AC07002000080048AB
:1012E800000080395C060020180300200000000080
:1012F80008F200081C6801400000FFFF0068014078
:10130800AC480020A40300209C480020640800206A
:1013180004EB830306F10C025B687360D4F8703148
:10132800B360D4F8B431F3602B78002B3FF4ADAC44
:1013380083E4C04994ED4B7A0A6802F00F02012A4F
:1013480007D00868BC4A024042F4002242F0610219
:101358000A60DFEDBA7AB74ADFEDB96A27EE277A75
:10136800BEEEE07A82ED017A92ED027AB8EEC77AA3
:1013780027EE267A84ED297AD2ED027AF8EEE77A1A
:1013880067EEA67AC4ED2A7A94F86223012A03F05C
:101398001F8494F86223002A40F0A980D3ED007AD4
:1013A8009FEDA84A94ED416AD4EDDF4A9FEDA65A15
:1013B800DFEDA65A9FEDA67ADFEDA66AF8EEE77A8A
:1013C80064EE844A77EEC67AB0EE006A67EEA47AD5
:1013D800C4ED0C7AD3ED017AD4ED423AD4EDDF4A6C
:1013E800F8EEE77A64EE844A77EEE37A67EEA47A59
:1013F800C4ED0D7AD3ED027AD4ED433AD4EDDF4A49
:10140800F8EEE77A64EE844A77EEE37A67EEA47A38
:10141800C4ED0E7AD3ED067AD4EDE04AF8EEE77A19
:1014280067EE857A67EEA47AC4EDC67A93ED034A2F
:10143800D4EDE04AD4ED443AD4EDC67A64EE854A58
:1014480067EEE37AB8EEC44AE4EE247AF1EE677AFE
:10145800C4ED0F7A93ED044AD4EDE04AD4ED453A51
:10146800D4EDC67A64EE854AB8EEC44A67EEE37AEC
:10147800E4EE247AF1EE677AC4ED107A5B69D4ED74
:10148800E04A94ED464AD4EDC67A24EE855A04EE35
:10149800903A67EEC47AF8EEE44AE4EE857AF1EE23
:1014A800677AC4ED117A236BA36694ED0C5AD4EDD8
:1014B8000D7A67EEA57AE5EE077AC4ED1B7AD4EDCE
:1014C8000F5AD4ED107A94ED115A77EE857AD5EE4D
:1014D800867A67EEA67AC4ED127AD4ED107AD4ED46
:1014E800116A77EEE67A27EE877A84ED137A6369D4
:1014F800C4F8703194F861330BB9637A0BB394ED87
:10150800067AD4ED077A94EDDE6AD4ED6D6AB4EE0E
:10151800E67AF1EE10FA67EE867A05DDD4ED6D6AAB
:1015280077EEA66AC4ED6D6AD4ED6D6AB4EEE67A1C
:10153800F1EE10FA05D594ED6D7A77EE677AC4ED81
:101548006D7AD4ED1A6A94ED2A7AD4ED1B7A94ED6B
:10155800296A414867EE867A0346E6EE877A0646A8
:101568000546C4ED1C7AD4ED1A6A94ED297AD4EDB7
:101578001B7A94ED2A6A67EE867AE6EEC77AC4ED9E
:101588001D7A226F43F80C2B626F46F8102FD4F89F
:10159800182345F8202FD3ED006A90ED007AD0ED9E
:1015A800027A37EE677AD0ED027AE6EE877A03465A
:1015B8002833C0ED027AD0ED076A96ED007AD0EDB7
:1015C800067A37EE677AD0ED067AE6EE877AC0EDCE
:1015D800067AD0ED0B6A95ED007AD0ED0A7A37EEEF
:1015E800677AD0ED0A7AE6EE877AC0ED0A7A1B6848
:1015F800C4F8183394F84834012B09D1A0F5E673E0
:10160800D4F8B4211A60A0F5FA70D4F80C379847CA
:1016180094F80C36012B03F0C485104D94F863330D
:10162800032B04F25185DFE813F068124D121712EC
:10163800551000BF000C024000F887FF83F9A23E56
:10164800000000300000003A000080393ACD933F96
:101658003ACD133FABAAAA3E3C060020180600204C
:10166800F14994ED485A91ED007AD4ED497AD4EDD8
:10167800DE3AB4EE475AF7EE086AF1EE10FA67EE72
:10168800A67A42F00C87E948E94A90ED007AD4ED51
:10169800476AD4ED474AF5EE005A67EE255A76EECA
:1016A800C56A85EEA74AB4EEE45A87EE846AF1EE7D
:1016B80010FAB6EE004A26EE046AF0EEE66A02F385
:1016C800D185D4ED474AB4EEE45AF1EE10FA02F1AE
:1016D800C985D2ED007A94ED477AB4EEC75AF0EE98
:1016E800E77AF1EE10FA67EEA37A05DD94ED477A12
:1016F80037EE877A84ED477A94ED477AB4EEC75A85
:10170800F1EE10FA05D594ED477A77EE677AC4EDD5
:10171800477AD4ED475ADFEDD46A94EDDE7AD4EDFA
:101728004B7A9FEDC46A81ED005A27EE267AE5EEE2
:10173800877AC4ED4B7AD4ED4B7AF4EEC67AF1EEA3
:1017480010FA42F12D86D4ED4B7A77EEA66AC4EDF5
:101758004B6AB94994ED4B7A0A6802F00F02012AE4
:1017680007D00868B54A024042F4002242F06102FC
:101778000A60DFEDB37AB04ADFEDB26A27EE277A66
:10178800BEEEE07A82ED017A92ED027AB8EEC77A7F
:1017980027EE267A84ED297AD2ED027AF8EEE77AF6
:1017A80067EEA67AC4ED2A7A94F86223012A02F039
:1017B8009D8794F86223002A40F0A980D3ED007A2F
:1017C8009FEDA14A94ED416AD4EDDF4A9FED9F5AFF
:1017D800DFED9F5A9FED9F7ADFED9F6AF8EEE77A7B
:1017E80064EE844A77EEC67AB0EE006A67EEA47AB1
:1017F800C4ED0C7AD3ED017AD4ED423AD4EDDF4A48
:10180800F8EEE77A64EE844A77EEE37A67EEA47A34
:10181800C4ED0D7AD3ED027AD4ED433AD4EDDF4A24
:10182800F8EEE77A64EE844A77EEE37A67EEA47A14
:10183800C4ED0E7AD3ED067AD4EDE04AF8EEE77AF5
:1018480067EE857A67EEA47AC4EDC67A93ED034A0B
:10185800D4EDE04AD4ED443AD4EDC67A64EE854A34
:1018680067EEE37AB8EEC44AE4EE247AF1EE677ADA
:10187800C4ED0F7A93ED044AD4EDE04AD4ED453A2D
:10188800D4EDC67A64EE854AB8EEC44A67EEE37AC8
:10189800E4EE247AF1EE677AC4ED107A5B69D4ED50
:1018A800E04A94ED464AD4EDC67A24EE855A04EE11
:1018B800903A67EEC47AF8EEE44AE4EE857AF1EEFF
:1018C800677AC4ED117A236BA36694ED0C5AD4EDB4
:1018D8000D7A67EEA57AE5EE077AC4ED1B7AD4EDAA
:1018E8000F5AD4ED107A94ED115A77EE857AD5EE29
:1018F800867A67EEA67AC4ED127AD4ED107AD4ED22
:10190800116A77EEE67A27EE877A84ED137AD4EDBA
:10191800125A94ED2A7AD4ED137A94ED295A4F4A43
:10192800DFED516A9FED436A67EE857A1646E5EE6C
:10193800877AC4ED147AD4ED135A94ED2A7A94ED8B
:10194800125AD4ED297A67EEC57AE5EE877AC4EDA6
:10195800157AD2ED005A94EDDE7A76ED017A27EE0B
:10196800267AE5EE877AC6ED007AD6ED007AF4EEAF
:10197800C67AF1EE10FA42F13C85D6ED007A77EEA0
:10198800A66AC6ED006A2C4996ED007A0B6803F04A
:101998000F03012B07D00868284B034043F40023AA
:1019A80043F061030B60DFED267A2349DFED256AFA
:1019B8002B4D9FED2C5A27EE277A2B46BEEEE07A68
:1019C80081ED017A91ED027AB8EEC77A27EE267A90
:1019D80017EE100A43F80809D1ED027AF8EEE77A13
:1019E80067EEA67AC3ED007AD4EDDE4AD4EDDE5A6E
:1019F80094ED337AD4ED156AD4ED337A75EE855AC1
:101A0800F0EEE66A84EEA56A37EE667AE6EE477A85
:101A1800C4ED337AD4EDDE4A94EDDE6A94ED357A7E
:101A2800D4ED1D6A22E000BF3C080020A807002072
:101A3800A0070020DB0F49C0000C024000F887FF18
:101A480083F9A23E000000300000003A000080390F
:101A58003ACD933F3ACD133FABAAAA3E24060020C5
:101A680018060020CDCC4C3DDB0FC940D4ED357AAB
:101A780036EE056AF0EEE66AC4EE865A37EE667A06
:101A8800E5EEC77AC4ED357AD4ED336A94ED357A4C
:101A9800C6EE877AC4ED2F7A94ED2F7AD4ED2F7A9B
:101AA800D4ED2B6A94ED2B0A20EE660AA7EE270ADE
:101AB800B5EE400AF1EE10FAB1EEC08A04F1EB82FD
:101AC80084ED308AD4ED306A1FED197AD2ED007AB0
:101AD80067EE877A86EEA77A84ED2C7A94ED057AFC
:101AE800D4ED077A94EDDE6AD4ED5C6AB4EEE67A5A
:101AF800F1EE10FA67EE867A05DDD4ED5C6A77EED2
:101B0800A66AC4ED5C6AD4ED5C6AB4EEE67AF1EEDE
:101B180010FA05D594ED5C7A77EE677AC4ED5C7AB5
:101B2800A369C4F8B431D4ED1A6A94ED2A7AD4EDD5
:101B38001B7A94ED296A494867EE867A0346E6EEF1
:101B4800877A8646844600F11C08C4ED1C7AD4EDD9
:101B58001A6A94ED297AD4ED1B7A94ED2A6A67EE15
:101B6800867AE6EEC77AC4ED1D7A226F43F80C2B0D
:101B7800626F4EF8102FD4F818234CF8202FD3EDAD
:101B8800006A90ED007AD0ED027A37EE677AD0EDF0
:101B9800027AE6EE877A03462833C0ED027AD8ED5A
:101BA800006A9EED007AD0ED067A37EE677AD0EDBE
:101BB800067AE6EE877AC0ED067AD0ED0B6A9CEDE0
:101BC800007AD0ED0A7A37EE677AD0ED0A7AE6EE37
:101BD800877AC0ED0A7A1B68C4F8183394F8483439
:101BE800012B09D1A0F5E673D4F8B4211A60A0F549
:101BF800FA70D4F80C37984794F80C36012B09D1B1
:101C0800D4F82C313360D4F8E0312B601448D4F880
:101C18001037984794F86333032B04F25182DFE8B6
:101C280013F084122D0D200D5D0A0E490E48D1F8CF
:101C3800982342F0F302C1F898234FF400528261CE
:101C480094F8A423013A042A01F22C82DFE812F066
:101C5800911274121B0A86121B0A00BF3C06002050
:101C68007C0400200068014000080048CDCC4C3EB0
:101C7800E2782ABB94EDD97A5FED047AD54AD64941
:101C880027EE277A002084ED057AC4ED497AC4ED61
:101C9800487AC4ED477AC4F82C01E1611168013132
:101CA8001160D4EDDD7A126877EEA77AFCEEE77A58
:101CB80017EE901A91428ABFE2780122D2B2E270FE
:101CC800E278012A02F02083E278022A02F01C83DB
:101CD800E278062A02F01883E278042A02F0D38414
:101CE800BE4A0192E278052A02F0EB86BC4DBD4956
:101CF80094ED4B7A0A6802F00F02012A07D00868AF
:101D0800B94A024042F4002242F061020A60DFED63
:101D1800B77AB44ADFEDB66A27EE277ABEEEE07AE4
:101D280082ED017A92ED027AB8EEC77A27EE267A2A
:101D380084ED297AD2ED027AF8EEE77A67EEA67A90
:101D4800C4ED2A7A94F86223012A02F09B8694F85B
:101D58006223002A03F06083DFF8C492A54B216F49
:101D68001A461E4642F80C1B616F46F8101F1846AB
:101D7800D4F8181340F8201F03F1080BD2ED006ABD
:101D880093ED007ADBED007A37EE677ADBED007AC7
:101D9800E6EE877A03F1180ACBED007AD3ED076AED
:101DA80096ED007ADAED007A37EE677ADAED007AA6
:101DB800E6EE877ACAED007AD3ED0B6A90ED007AE9
:101DC800D3ED0A7A37EE677AD3ED0A7AE6EE877AA8
:101DD800C3ED0A7A9B6AC4F81833D4ED1A6A94EDF5
:101DE8002A7AD4ED1B7A94ED296A67EE867AE6EEB4
:101DF800877AC4ED1C7AD4ED1A6A94ED297AD4ED69
:101E08001B7A94ED2A6A67EE867AE6EEC77AC4ED05
:101E18001D7A94ED057AD4ED077A94EDDE6AD4ED57
:101E28005C6AB4EEE67AF1EE10FA67EE867A05DDC2
:101E3800D4ED5C6A77EEA66AC4ED5C6AD4ED5C6AA0
:101E4800B4EEE67AF1EE10FA05D594ED5C7A77EE09
:101E5800677AC4ED5C7AA369C4F8B431236FC4F817
:101E68007431636FC4F8B8316348D4F8EC369847D6
:101E7800D4F8EC3661489847D4F89C31C4F840331C
:101E8800D4F8E031C4F844335D4BDFED5E7AD3ED2E
:101E9800006AD4EDD05A93ED007A9FED5B6A76EE36
:101EA800E56AA6EEE77A83ED007AD4EDD47A94ED6C
:101EB800C67A67EE867A67EE877AC4EDD27A94EDB1
:101EC800D27AD4EDD27AD4EDD06A94EDD00A20EE4D
:101ED800660AA7EE270AB5EE400AF1EE10FAB1EE4F
:101EE800C08A04F1E2804949494E081F4FF00908A9
:101EF80084EDD38A94EDD20A04F01EF9D4F8543153
:101F0800C4F81C33D4F85831C4F82033D4F85C3101
:101F1800C4F824333F48D4F8F8369847D4EDD06A4B
:101F280094ED2A7A94EDD16AD4ED297A3A4867EE8D
:101F3800C67AE6EE877AC4ED527AD4EDD16A94ED8A
:101F48002A7AD4EDD07A94ED296A67EE867AE6EE9D
:101F5800877AC4ED537AD4F81833C4F85031D4F8DA
:101F6800F0369847002084468646316932693369DD
:101F7800C1F3C011C2F30022C3F34023B8F1010832
:101F88008E4494441844F0D1BEF1040FD4BF4FF0EE
:101F9800000E4FF0010EBCF1040F204ED4BF4FF0DD
:101FA800000C4FF0010C0428D4BF0020012086F853
:101FB80000E086F801C0B07033781BB97378012B44
:101FC80003F0CE8633787BBB7378012B03F00C8744
:101FD8002AE000BFA40700200000A041100600204E
:101FE80064080020000C024000F887FF83F9A23E35
:101FF800000000303C06002070010020B4010020E1
:10200800140600206F12833AD7B35D3F44030020C3
:10201800000400481803002048010020AC070020F5
:10202800D448002062DCC84033782BB973781BB9D8
:10203800B378012B03F071873378012B03F00B84FD
:102048003378012B03F043843378012B03F0708439
:10205800237A03F0FF0293B9F1783379994205D9CD
:10206800F378052B02D0012332732372F278337987
:102078009A4204D2F37813B1012333732372F278AE
:1020880033799A4226D0337BDBB9E378012B03F00E
:10209800C586F378103306EB83035A68F378103358
:1020A80006EB83035A60E378022B03F0B386F378D8
:1020B800163306EB83035A68F378163306EB83036B
:1020C8005A60337B012B03F05784D4F82C213261FA
:1020D8000123F373F3781FED2D7ADBB2337194ED9E
:1020E8004A6AD4ED476AD6ED0A7AE6EE267AC6ED54
:1020F8000A7AD6ED0A7AF4EEC77AF1EE10FA0CDD18
:10210800E378012B09D1D4ED477A714AF1EE677A69
:102118000223C4ED477AB262E37096ED0A7ADFEDE6
:102128006D7AB4EEE77AF1EE10FA07D5E378022B70
:1021380004D100220323C4F81C21E370E378032BA5
:1021480002F05784E378052B02F01284E378062B1B
:1021580002F03283604ED4F810333360D4F8083775
:1021680030469847A26EC4F8B823E26EC4F8BC2380
:10217800D4F81823594BC4F8C0231B69C4F8C433D6
:10218800D4F8FC36A6F18800984794F8C833002B99
:1021980042F0B3812378DBB22370D4F85431C9F804
:1021A8001C30D4F85831C9F82030D4F85C31C9F85B
:1021B800243094ED557A94ED566AD4ED576AD4EDEF
:1021C8004C7A4FF4003393FAA3F3F0EE675AB3FA5C
:1021D80083F3E7EE275A103BDBB24148414A30F817
:1021E80013C0DFF80CE15CF80260BCEEE57A06EAA1
:1021F8000E0617EE101A31434FF400234CF8021064
:1022080093FAA3F3B0EE677AB3FA83F3A6EE277ACC
:10221800103BDBB230F81360BCEEC77AB35817EE48
:10222800101A03EA0E031943B1504FF4801393FABE
:10223800A3F3B3FA83F3103BE6EEA77ADBB230F8E8
:102248001300FCEEE77A835817EE901A03EA0E03A0
:1022580019438150D4ED057AF5EE407AF1EE10FA83
:1022680009D1D4ED067AF5EE407AF1EE10FA02D1F2
:1022780094F8C8330BB101232B7094F80D361A4E1D
:1022880007EE903AF8EE677A3146C6ED007A94F890
:102298000D3603F58F7304EB83043046636841F809
:1022A800043F019B1B6840F8083F104B32461B68EF
:1022B80042F80C3F2B78002B3EF4E7ACAB6834684F
:1022C8000A3305EB83031C60AB68096800F0F1BCB6
:1022D800DB0FC9406F12833A2C040020AC48002061
:1022E80008F200081C6801409C48002014060020E1
:1022F8000000FFFFDB0FC940DB0F49C0D4ED475A90
:102308005FED046A94EDDE7AD4ED4B7A1FED066A30
:1023180027EE267AE5EE877AC4ED4B7AD4ED4B7A30
:10232800F4EEC67AF1EE10FA42F13D81D4ED4B7A23
:1023380077EEA66AC4ED4B6A94F86223012A02F08C
:10234800288494F86223002A03F0D881DFF85C928D
:1023580094ED1A7ADFED8E7AD4ED1B6A8D4BA6EEDA
:10236800A77A19461D46184684ED1C7AD4ED1A6AD8
:1023780094ED1B7AA6EEE77A03F1080B84ED1D7A3B
:1023880094ED127AD4ED136AA6EEA77A84ED147A46
:10239800D4ED126A94ED137AA6EEE77A84ED157AF5
:1023A800D4F870E041F80CEBD4F874E045F810EF7D
:1023B800D4F818E340F820EFD1ED006A93ED007AE5
:1023C800DBED007A37EE677ADBED007AE6EE877AA6
:1023D80019462831CBED007AD3ED076A95ED007ADE
:1023E800D3ED067A37EE677AD3ED067AE6EE877A8A
:1023F800C3ED067AD3ED0B6A90ED007AD1ED007A41
:1024080037EE677AD1ED007AE6EE877AC1ED007A89
:1024180094F86233012B0CBFD9F848300B68C4F824
:102428001833A37803F0FF02002B02F08C805A4D7A
:10243800A378012B02F09C85A378022B02F0E3839A
:10244800A378DEB2032E03F03183A378042B03F0C4
:10245800B18294ED557A94ED566AD4ED576AD4ED6D
:102468004C7A4FF4003393FAA3F3F0EE675AB3FAB9
:1024780083F3E7EE275A103BDBB24848484A30F866
:1024880013C0DFF82CE15CF80260BCEEE57A06EADE
:102498000E0617EE101A31434FF400234CF80210C1
:1024A80093FAA3F3B0EE677AB3FA83F3A6EE277A2A
:1024B800103BDBB230F81360BCEEC77AB35817EEA6
:1024C800101A03EA0E031943B1504FF4801393FA1C
:1024D800A3F3B3FA83F3E6EEA77A103BDBB2DFF897
:1024E800D4C030F813602F48B358FCEEE77A03EAFB
:1024F8000E0317EE901A1943B150A36EC4F8B833FF
:10250800E36EC4F8BC33D4F81833C4F8C033DCF82D
:102518001030C4F8C433D4F8FC36984794F8C8335C
:10252800002B41F0C8872378DBB22370D4F85431EC
:10253800C9F81C30D4F85831C9F82030D4F85C31C7
:10254800C9F8243003F0E8FDA37807EE903A164B5B
:10255800F8EE677A1846C3ED007A226D40F8042F2A
:102568001946226F41F8082F1A46D4F82C4142F830
:102578000C4F2C78002C3EF488ABAC681E6804F134
:102588000A0305EB83031E60AB680068FEF75DBBBA
:10259800000000003C0600206408002008F2000843
:1025A8001C680140A40300209C480020D448002057
:1025B8000000FFFFAC480020914994ED4B7A0A686F
:1025C80002F00F02012A07D008688E4A024042F43E
:1025D800002242F061020A60DFED8B7A884ADFED63
:1025E8008B6A27EE277ABEEEE07A82ED017A92EDC9
:1025F800027AB8EEC77A27EE267A84ED297AD2EDE8
:10260800027AF8EEE77A67EEA67AC4ED2A7A94F8A9
:102618006223012A02F08D8194F86223002A02F0D5
:10262800A887DFF800927A4994ED084A91ED007A7C
:10263800D4ED0A7AD4EDDE3AB4EE474AF7EE086AEA
:10264800F1EE10FA67EEA67A41F0C786714B724A2E
:1026580093ED007AD4ED7E6A94ED7E5AF5EE005A39
:1026680067EE255A76EEC46AC5EEA74AB4EEC54AA7
:1026780087EEA46AF1EE10FAF6EE004A26EE246A16
:10268800F0EEE66A01F3178694ED7E5AB4EEC54A79
:10269800F1EE10FA01F10F86D2ED007A94ED7E7A10
:1026A800B4EEC74AF0EEE77AF1EE10FA67EEA37AD5
:1026B80005DD94ED7E7A37EE877A84ED7E7A94EDA7
:1026C8007E7AB4EEC74AF1EE10FA05D594ED7E7A1B
:1026D80077EE677AC4ED7E7A94F8003181ED004A8E
:1026E8000133DBB284F8003194F80031092B01F290
:1026F800BE86DFF834816369C4F8703194F86133B9
:102708000BB9637A1BB1D4F82432C4F8B431D4EDD0
:102718001A6A94ED2A7AD4ED1B7A94ED296A3F4817
:1027280067EE867A0346E6EE877A06460546C4EDE6
:102738001C7AD4ED1A6A94ED297AD4ED1B7A94EDBB
:102748002A6A67EE867AE6EEC77AC4ED1D7A226FAA
:1027580043F80C2B626F46F8102FD4F8182345F86D
:10276800202FD3ED006A90ED007AD0ED027A37EE93
:10277800677AD0ED027AE6EE877A03462833C0ED11
:10278800027AD0ED076A96ED007AD0ED067A37EE38
:10279800677AD0ED067AE6EE877AC0ED067AD0ED54
:1027A8000B6A95ED007AD0ED0A7A37EE677AD0EDAC
:1027B8000A7AE6EE877AC0ED0A7A1B68C4F81833FD
:1027C80094F84834012B09D1A0F5E673D4F8B42164
:1027D8001A60A0F5FA70D4F80C37984794F80C36BC
:1027E800012B02F0CF840E4D94F86333032B01F2D2
:1027F800A781DFE813F0960C7D0C720C8B0900BFE3
:10280800000C024000F887FF83F9A23E0000003068
:102818003C080020A8070020A00700203C06002054
:1028280018060020D448002038040020DB0F49C0D7
:10283800DB0FC94094ED487AD4ED497A94EDDE6A0D
:10284800D4ED476AB4EEE67AF1EE10FA67EE867ACE
:1028580005DDD4ED476A77EEA66AC4ED476AD4ED84
:10286800476AB4EEE67AF1EE10FA05D594ED477AA8
:1028780077EE677AC4ED477A94ED4A6AD4ED476AF1
:10288800D4ED4B7A1FED177AE6EE267AC4ED4B7A33
:10289800D4ED4B7AF4EEC77AF1EE10FA41F13F86A7
:1028A800D4ED4B7A1FED1E7A77EE877AC4ED4B7A1A
:1028B800E64994ED4B7A0A6802F00F02012A07D024
:1028C8000868E34A024042F4002242F061020A60CA
:1028D800DFEDE07ADD4ADFEDE06A27EE277ABEEE2B
:1028E800E07A82ED017A92ED027AB8EEC77A27EEA5
:1028F800267A84ED297AD2ED027AF8EEE77A67EE45
:10290800A67AC4ED2A7A94F86223012A01F0F287A4
:1029180094F86223002A02F05384DFF87093D4ED10
:102928001A6A94ED2A7AD4ED1B7A94ED296ACB4B76
:1029380067EE867A1A46E6EE877A1E461D46C4ED8D
:102948001C7AD4ED1B6A94ED2A7A94ED1A6AD4EDB8
:10295800297A67EEC67AE6EE877AC4ED1D7AD4ED59
:10296800126A94ED2A7AD4ED137A94ED296A67EE07
:10297800867AE6EE877AC4ED147AD4ED136A94ED7C
:102988002A7A94ED126AD4ED297A67EEC67AE6EED1
:10299800877AC4ED157AD4F870E042F80CEBD4F8D5
:1029A80074E046F810EFD4F818E345F820EFD2EDBC
:1029B800006A93ED007AD3ED027A37EE677AD3EDA9
:1029C800027AE6EE877A1A462832C3ED027AD3ED08
:1029D800076A96ED007AD3ED067A37EE677AD3ED7B
:1029E800067AE6EE877AC3ED067AD3ED0B6A95EDA3
:1029F800007AD3ED0A7A37EE677AD3ED0A7AE6EEF3
:102A0800877AC3ED0A7A94F86233002B41F078850F
:102A18001368C4F81833D4F85431C4F81C33D4F804
:102A28005831C4F82033D4F85C31C4F824338C48C6
:102A3800D4F8F836984794EDCE6A94ED2A7AD4ED16
:102A4800CF7AD4ED295ADFED876A67EEA57AE6EEEC
:102A5800077AC4EDD07A94EDCE6A94ED297AD4ED54
:102A6800CF7AD4ED2A5A67EEA57AE6EE477AC4ED16
:102A7800D17A94ED036A94ED2A7AD4ED045AD4ED10
:102A8800297A67EEE57AE6EE077AC4ED527A94ED94
:102A9800046A94ED2A7AD4ED037AD4ED295A67EEC4
:102AA800A57AE6EE077AC4ED537A94EDD06A94EDF0
:102AB800C67A27EE267AC6EE077AC4EDD67A94ED62
:102AC800D16AD4EDC67A67EEA67A86EE277A84EDC7
:102AD800D57A94EDD67AD4EDD67A94EDD50AD4ED9C
:102AE800D56A20EE260AA7EE270AB5EE400AF1EECF
:102AF80010FAB1EEC08A03F1CA825B4884ED4F8AAE
:102B0800D4ED477A9FED597AD4EDE76A67EE877A74
:102B180087EEA67A84ED0B7AD4F81833C4F85031CE
:102B2800D4F8F036984794ED557A94ED566AD4ED7A
:102B3800576AD4ED4C7A4FF4003393FAA3F3F0EECE
:102B4800675AB3FA83F3E7EE275A103BDBB24848DB
:102B5800484A30F813604849B558BCEEE57A0D404C
:102B680017EE103A2B434FF4002CB3509CFAACF3F9
:102B7800B0EE677AB3FA83F3A6EE277A103BDBB29E
:102B880030F81350BCEEC77AAB5817EE106A0B40FA
:102B98001E43AE504FF4801393FAA3F3B3FA83F3B2
:102BA800103BDBB2E6EEA77A30F81350334EAB5841
:102BB8003348FCEEE77A0B4017EE901A1943A950F8
:102BC800A36EC4F8B833E36EC4F8BC33D4F8183332
:102BD800C4F8C0333369C4F8C433D4F8FC36984712
:102BE80094F8C833002B41F097842378DBB2237024
:102BF800D4F85431C9F81C30D4F85831C9F8203009
:102C0800204DD4F85C31C9F8243003F085FA94EDEE
:102C1800037AD5ED097AB4EE677AF1EE10FA02D1AB
:102C280094F8C8330BB101232B70E2686A62164B23
:102C3800226D1A601E46A26C46F8042F1846D4F876
:102C4800542140F8082F1A4622E000BF000C024029
:102C580000F887FF83F9A23E000000303C06002000
:102C6800180300203ACD933F48010020000070422D
:102C780008F200081C6801400000FFFFAC48002073
:102C8800A4030020640800209C480020D4480020A9
:102C9800D4F8381342F80C1F297800293DF4F5AF11
:102CA800A9681C6801F10A0305EB83031C60AB6883
:102CB800316803F20A4305EB83031960AB680168C6
:102CC800FDF7CABF94F8F123042A3DF690AD94F8B5
:102CD800F1330133DBB2FDF78ABDDE49D1F8980341
:102CE80040F0C000C1F89803D1F8940340F03300D5
:102CF800C1F894034FF4003191FAA1F1B1FA81F1CE
:102D08001039C9B2D44ED54836F811E0D44D5EF822
:102D180000C099180CEA050C41EA0C014EF80010A5
:102D28004FF40021FDF763BFCA49D1F8980340F07A
:102D38000300C1F89803D1F8940340F0F000C1F8FB
:102D480094034FF4002191FAA1F1B1FA81F11039FD
:102D5800C9B2C14DC14835F811C0C14C5CF800601A
:102D6800991A264031434CF800104FF4801191FA1B
:102D7800A1F1B1FA81F11039C9B21344FDF7B4BA1F
:102D8800B449D1F8980340F03000C1F89803D1F85D
:102D9800940340F0C300C1F894034FF40031FEF7E8
:102DA80010B8AC49D1F8980340F0C000C1F89803B6
:102DB800D1F8940340F03300C1F894034FF4003184
:102DC80091FAA1F1B1FA81F11039C9B2A24EA34822
:102DD80036F811E0A24D5EF800C0991A0CEA050C0D
:102DE80041EA0C014EF800104FF40021FDF7FFBF37
:102DF8009849D1F8980340F00300C1F89803D1F836
:102E0800940340F0F000C1F894034FF4002191FAC4
:102E1800A1F1B1FA81F11039C9B28F4E8F4836F855
:102E280011E08F4D5EF800C099180CEA050C41EAD4
:102E38000C014EF800104FF4801191FAA1F1B1FA8B
:102E480081F11039C9B29B1AFDF7D8BF8149D1F871
:102E5800980340F03000C1F89803D1F8940340F08B
:102E6800C300C1F894034FF40031D0E77949D1F891
:102E7800980340F0C000C1F89803D1F8940340F0DB
:102E88003300C1F894034FF4003191FAA1F1B1FA7B
:102E980081F11039C9B2704E704836F811E0704DA2
:102EA8005EF800C099180CEA050C41EA0C014EF8CE
:102EB80000104FF40021C0E76649D1F8980340F0AC
:102EC8003000C1F89803D1F8940340F0C300C1F86A
:102ED80094034FF4003136E75E49D1F8980340F087
:102EE800C000C1F89803D1F8940340F03300C1F84A
:102EF80094034FF4003191FAA1F1B1FA81F110393C
:102F0800C9B2554D554835F811C0554C5CF80060AC
:102F1800991A264031434CF800104FF4002126E757
:102F28004C49D1F8980340F00300C1F89803D1F850
:102F3800940340F0F000C1F894034FF4002191FA93
:102F4800A1F1B1FA81F11039C9B2434D434835F8BE
:102F580011C0434C5CF800609918264031434CF886
:102F680000104FF48011FDF7B8B93A49D1F8980329
:102F780040F03000C1F89803D1F8940340F0C30042
:102F8800C1F894034FF40031D9E73249D1F89803D6
:102F980040F00300C1F89803D1F8940340F0F00022
:102FA800C1F894034FF4002191FAA1F1B1FA81F12B
:102FB8001039C9B2284E294836F811E0284D5EF874
:102FC80000C0991A0CEA050C41EA0C014EF80010F1
:102FD8004FF4801191FAA1F1B1FA81F11039C9B217
:102FE8001344FDF70BBE1B49D1F8980340F030009D
:102FF800C1F89803D1F8940340F0C300C1F89403D2
:103008004FF40031D0E71349D1F8980340F0C000DD
:10301800C1F89803D1F8940340F03300C1F8940341
:103028004FF4003191FAA1F1B1FA81F11039C9B226
:10303800094E0A4836F811E0094D5EF800C0991AA1
:103048000CEA050C41EA0C014EF800104FF400217F
:10305800C0E700BF0068014008F200081C68014092
:103068000000FFFF1949D1F8980340F00300C1F8A8
:103078009803D1F8940340F0F000C1F894034FF49A
:103088000021FDF79EBD124BD4F8480111491A469C
:1030980042F8040BD4F84C011060D4F81803986077
:1030A8000A68DA600C4D2B78002B3DF4EEADAB6866
:1030B80007490A3305EB8303086818600A1DAB68E3
:1030C800106808310832FDF7C0BD00BF0068014034
:1030D8009C4800203406002064080020DFF8B083F4
:1030E800D4ED1D7AD8ED006A94EDE57A67EEA67AFC
:1030F80067EE877AC4ED1E7A98ED007A94ED1C6A23
:10310800D4EDE46AD4EDBB7AE6EE267A67EE877AE8
:10311800C4ED1F7A94F84834002B01F05682CF4B47
:103128001B68C4F8B43194F84834002B01F051827C
:10313800CB4B1B68C4F87031236FC4F87431636FCC
:10314800C4F8B831D4ED1E7AC64EF1EE677AC4EDF4
:103158005E7AD4ED1F7AD6ED006A95ED007AE6EE38
:10316800877AA6F2AC40C4ED6F7AD4F84833C4F835
:103178009431D4ED657AF1EE677AC4ED667AD4F8C5
:103188004C33C4F8D831D4ED767AF1EE677AC4EDD1
:10319800777AD4F8EC369847D4F8EC36A6F58D60F3
:1031A8009847D4F89C31C4F84033D4F8E031C4F8D7
:1031B8004433D4EDD47ADFEDAC6A94EDC67A67EE89
:1031C800A67A67EE877AC4EDD27A94EDD27AD4EDF6
:1031D800D27AD4EDD06A94EDD00A20EE660AA7EE32
:1031E800270AB5EE400AF1EE10FAB1EEC08A02F1F4
:1031F80058879E49081F84EDD38A94EDD20A02F0BD
:103208009BFFD4EDD06A94ED2A7A94EDD16AD4ED7F
:10321800297A974867EEC67AE6EE877AC4ED527A3D
:10322800D4EDD16A94ED2A7AD4EDD07A94ED296A56
:1032380067EE867AE6EE877AC4ED537AD4F854318D
:10324800C4F81C33D4F85831C4F82033D4F85C31AE
:10325800C4F82433D4F8F8369847D4F81833C4F8A7
:103268005031D4F8F0368348984794ED557A94ED68
:10327800566AD4ED576AD4ED4C7A4FF4003393FA7A
:10328800A3F3F0EE675AB3FA83F3E7EE275A103B3D
:10329800DBB27948794A30F813607949B558BCEE01
:1032A800E57A0D4017EE103A2B434FF4002CB3503B
:1032B8009CFAACF3B0EE677AB3FA83F3A6EE277AFA
:1032C800103BDBB230F81350BCEEC77AAB5817EEA0
:1032D800106A0B401E43AE504FF4801393FAA3F3C9
:1032E800B3FA83F3103BDBB2E6EEA77A30F81300AB
:1032F800644E8358FCEEE77A0B4017EE901A0025CF
:1033080019438150AC46AE460920316932693369A8
:10331800C1F3C011C2F30022C3F3402301388E4425
:1033280094441D44F1D1BEF1040FD4BF4FF0000EF8
:103338004FF0010EBCF1040F534ED4BF4FF0000CF8
:103348004FF0010C042DD4BF0025012586F800E0BC
:1033580086F801C0B570D8F800303363B36801331C
:10336800B360D6ED107A96ED087A77EE877AC6EDD7
:10337800087A33781BB97378012B02F00885337803
:103388001BB97378012B02F0278533782BB9737832
:103398001BB9B378012B02F0B8853378012B02F002
:1033A80066823378012B02F07A823378012B02F09F
:1033B800CB82F3781C3306EB83035B68F361F27806
:1033C80033799A4241D033791C3306EB830393ED6A
:1033D800010AF3781C3306EB8303D3ED010A02F0EC
:1033E8009FFEB0EEC00A86ED0E0A96ED0E6A96EDC7
:1033F800087ADFED266AC6EE077A00220023C6EDBA
:103408000B7A96ED0D7A96ED0B6AD6ED0D7A37EEBE
:10341800467AE7EE667AC6ED0D7AB360726232627A
:10342800F1783279914205D9F278052A04BF337BC5
:10343800DBB23373F27833799A4206D2F378002BF1
:1034480042F0E584337BDBB23373337B002B40F0EF
:10345800E587F3780133DBB222E000BF780400206F
:10346800740400201C0600203ACD133F44030020BA
:10347800180300204801002008F200081C680140D9
:103488000000FFFF00040048AC0700200AD7233CD7
:1034980038040020DB0F49C0DB0FC9400000484258
:1034A8007371327B02F0FF0312B9F278052A01D05A
:1034B8007379DBB27371337B012B01F0328173793D
:1034C800DBB27371F3781C3306EB830393ED010AC7
:1034D80073791C3306EB8303D3ED010A02F020FE57
:1034E800B0EEC00A86ED0F0A96ED0D7AD6ED027A97
:1034F800D6ED106AF8EE677A67EEA67A67EE877AF5
:10350800F0EEE77AC6ED097A96ED097AD6ED097AF2
:10351800B4EE677AF1EE10FA0CBF736A0023736297
:1035280096ED097AD6ED0F7AB4EEE77AF1EE10FA55
:1035380040F37987F36B7362337BD6ED077A96EDA8
:10354800097A002B40F0CE8777EE877AC6ED057AA8
:10355800F3785FED307ADBB2337196ED057AB4EE2D
:10356800E77AF1EE10FA40F1A987D6ED057A1FED5A
:10357800367A77EE877AC6ED057AD6ED0C7A1FEDA6
:10358800397A4C48F0EEE77AF4EEC77AF1EE10FAA1
:1035980094BFF36973697361A36EC4F8DC32E36E98
:1035A800C4F8E032D4F84831C4F8E432D4F84C31E5
:1035B800C4F8E832D4F80437984794ED477ADFED39
:1035C8003E7A9FED3E6A3E4B3E4827EE277A88EDCD
:1035D800007AD8ED007AD4EDE76A67EE867A87EE4E
:1035E800A67A84ED0B7AA26EC4F8B823E26EC4F80A
:1035F800BC23D4F81823C4F8C0231B69C4F8C43307
:10360800D4F8FC36984794F8C833002B40F0038769
:103618002378DBB22C4D237094ED067AD5ED097A28
:10362800B4EE677AF1EE10FA02D194F8C8330BB110
:1036380001232B70A2696A62244BA26E1A601E468F
:10364800E26E46F8042F1846626F40F8082F1A46B3
:10365800A16942F80C1F297800293DF416ABFFF741
:103668001FBB0023DFF86880A367D8ED007A94EDCC
:10367800BB7A67EE877AC4ED1F7A4BE5DFF8508096
:10368800D4ED1D7AD8ED006A94EDE57A67EEA67A56
:1036980067EE877AC4ED1E7AD4ED1C7AD8ED006AFD
:1036A80094EDE47A67EEA67A67EE877AC4ED1F7A1E
:1036B80030E500BFDC020020DB0FC940EBC9184130
:1036C800AC480020A4030020640800209C48002087
:1036D80038040020DFF8E883D4ED1D7AD8ED006ABD
:1036E80094EDE57A67EEA67A67EE877AC4ED1E7ADE
:1036F80098ED007A94ED1C6AD4EDE46AD4EDBB7AB7
:10370800E6EE267A67EE877AC4ED1F7A94F8483495
:10371800002B00F05E86D74B1B68C4F8B43194F8D0
:103728004834002B00F05186D34B1B68C4F8703125
:10373800236FC4F87431636FC4F8B831D4ED1E7ABE
:10374800CE4EF1EE677AC4ED5E7AD4ED1F7AD6EDEF
:10375800006A95ED007AE6EE877AA6F2AC40C4EDF1
:103768006F7AD4F84833C4F89431D4ED657AF1EE21
:10377800677AC4ED667AD4F84C33C4F8D831D4EDFE
:10378800767AF1EE677AC4ED777AD4F8EC36984712
:10379800D4F8EC36A6F58D609847D4F89C31C4F877
:1037A8004033D4F8E031C4F84433D4EDD47ADFEDB3
:1037B800B46A94EDC67A67EEA67A67EE877AC4EDA6
:1037C800D27A94EDD27AD4EDD27AD4EDD06A94ED4F
:1037D800D00A20EE660AA7EE270AB5EE400AF1EEF7
:1037E80010FAB1EEC08A02F16784A649081F84ED79
:1037F800D38A94EDD20A02F09FFCD4EDD06A94EDFE
:103808002A7A94EDD16AD4ED297A9F4867EEC67A70
:10381800E6EE877AC4ED527AD4EDD16A94ED2A7A2D
:10382800D4EDD07A94ED296A67EE867AE6EE877A47
:10383800C4ED537AD4F85431C4F81C33D4F8583151
:10384800C4F82033D4F85C31C4F82433D4F8F836FB
:103858009847D4F81833C4F85031D4F8F0368B4868
:10386800984794ED557A94ED566AD4ED576AD4ED9D
:103878004C7A4FF4003393FAA3F3F0EE675AB3FA95
:1038880083F3E7EE275A103BDBB28148814A30F8D0
:1038980013608149B558BCEEE57A0D4017EE103A31
:1038A8002B434FF4002CB3509CFAACF3B0EE677A7C
:1038B800B3FA83F3A6EE277A103BDBB230F8135045
:1038C800BCEEC77AAB5817EE106A0B401E43AE50D9
:1038D8004FF4801393FAA3F3B3FA83F3103BDBB2EC
:1038E800E6EEA77A30F813006C4D8358FCEEE77AC1
:1038F8000B4017EE901A002619438150B446B6467D
:10390800092029692A692B69C1F3C011C2F3002271
:10391800C3F3402301388E4494441E44F1D1BEF1D0
:10392800040FD4BF4FF0000E4FF0010EBCF1040F8E
:103938005B4DD4BF4FF0000C4FF0010C042ED4BFE8
:103948000026012685F800E085F801C0AE70D8F899
:1039580000302B6302F0D4FBEB69C4F8F03094F824
:103968006133012B01F0F58394F86133002B41F0AA
:10397800018501236372A36EC4F8DC32E36EC4F8D8
:10398800E032D4F83833C4F8E432D4F83C33C4F81D
:10399800E8324448D4F804379847434BD4F8102306
:1039A8001A60637A4048012B0CBFD4F81033D4F85E
:1039B8002C31C4F82C31D4F808379847D8ED007A60
:1039C8009FED3A7AD4EDE76A394B3A4867EE877A41
:1039D80087EEA67A84ED0B7AA26EC4F8B823E26E5D
:1039E800C4F8BC23D4F81823C4F8C0231B69C4F84E
:1039F800C433D4F8FC36984794F8C833002B40F009
:103A0800E1842378DBB22C4D237094ED067AD5ED52
:103A1800097AB4EE677AF1EE10FA02D194F8C83355
:103A28000BB101232B70A2696A62244BD4F83823A6
:103A38001A601E46D4F83C2346F8042F1846A26C98
:103A480040F8082F1A46E16C42F80C1F2978002923
:103A58003DF41BA9FFF724B90023DFF86480A367AE
:103A6800D8ED007A94EDBB7A67EE877AC4ED1F7AB9
:103A78004CE600BF78040020740400201C060020D7
:103A88003ACD133F440300201803002048010020CA
:103A980008F200081C6801400000FFFF000400480D
:103AA800AC070020DC0200202C040020EBC91841E0
:103AB800AC480020A4030020640800209C48002093
:103AC80038040020DFF84080D4ED1D7AD8ED006A74
:103AD80094EDE57A67EEA67A67EE877AC4ED1E7AEA
:103AE800D4ED1C7AD8ED006A94EDE47A67EEA67AF4
:103AF80067EE877AC4ED1F7A08E60023A367DFF82C
:103B08000880E36702E600BF38040020D4ED1D7A80
:103B1800D8ED006A94EDE57A67EEA67A67EE877AC3
:103B2800C4ED1E7A98ED007A94ED1C6AD4EDE46A2F
:103B3800D4EDBB7AE6EE267A67EE877AC4ED1F7A73
:103B480094F84834002B00F0E384CF4B1B68C4F88A
:103B5800B43194F84834002B00F0D684CB4B1B6862
:103B6800C4F87031236FC4F87431636FC4F8B83186
:103B7800D4ED1E7AC64EF1EE677AC4ED5E7AD4EDC6
:103B88001F7AD6ED006A95ED007AE6EE877AA6F2FE
:103B9800AC40C4ED6F7AD4F84833C4F89431D4ED0E
:103BA800657AF1EE677AC4ED667AD4F84C33C4F8D6
:103BB800D831D4ED767AF1EE677AC4ED777AD4F815
:103BC800EC369847D4F8EC36A6F58D609847D4F8CB
:103BD8009C31C4F84033D4F8E031C4F84433D4ED10
:103BE800D47ADFEDAC6A94EDC67A67EEA67A67EE12
:103BF800877AC4EDD27A94EDD27AD4EDD27AD4ED24
:103C0800D06A94EDD00A20EE660AA7EE270AB5EE30
:103C1800400AF1EE10FAB1EEC08A02F134829E49F0
:103C2800081F84EDD38A94EDD20A02F085FAD4ED08
:103C3800D06A94ED2A7A94EDD16AD4ED297A97481E
:103C480067EEC67AE6EE877AC4ED527AD4EDD16A89
:103C580094ED2A7AD4EDD07A94ED296A67EE867AC3
:103C6800E6EE877AC4ED537AD4F85431C4F81C339D
:103C7800D4F85831C4F82033D4F85C31C4F824336C
:103C8800D4F8F8369847D4F81833C4F85031D4F833
:103C9800F0368348984794ED557A94ED566AD4EDFA
:103CA800576AD4ED4C7A4FF4003393FAA3F3F0EE4D
:103CB800675AB3FA83F3E7EE275A103BDBB2794829
:103CC800794A30F813607949B558BCEEE57A0D4069
:103CD80017EE103A2B434FF4002CB3509CFAACF378
:103CE800B0EE677AB3FA83F3A6EE277A103BDBB21D
:103CF80030F81350BCEEC77AAB5817EE106A0B4079
:103D08001E43AE504FF4801393FAA3F3B3FA83F330
:103D1800103BDBB2E6EEA77A30F81300644E835806
:103D2800FCEEE77A0B4017EE901A002519438150F4
:103D3800AC46AE460920316932693369C1F3C01116
:103D4800C2F30022C3F3402301388E4494441D4437
:103D5800F1D1BEF1040FD4BF4FF0000E4FF0010EA9
:103D6800BCF1040F534ED4BF4FF0000C4FF0010CC0
:103D7800042DD4BF0025012586F800E086F801C08F
:103D8800B570D8F800303363B3680133B360D6ED4B
:103D9800107A96ED087A77EE877AC6ED087A337846
:103DA8001BB97378012B01F0E38733781BB973785B
:103DB800012B02F0218033782BB973781BB9B378C3
:103DC800012B02F0A6803378012B01F05C85337853
:103DD800012B01F070853378012B01F0C185F37850
:103DE8001C3306EB83035B68F361F27833799A42FC
:103DF80041D033791C3306EB830393ED010AF37842
:103E08001C3306EB8303D3ED010A02F089F9B0EE07
:103E1800C00A86ED0E0A96ED0E6A96ED087ADFED79
:103E2800266AC6EE077A00220023C6ED0B7A96EDC5
:103E38000D7A96ED0B6AD6ED0D7A37EE467AE7EEF7
:103E4800667AC6ED0D7AB36072623262F1783279C1
:103E5800914205D9F278052A04BF337BDBB233736C
:103E6800F27833799A4206D2F378002B41F0CC8766
:103E7800337BDBB23373337B002B40F0F482F3786F
:103E88000133DBB220E000BF780400207404002076
:103E98001C0600203ACD133F4403002018030020DD
:103EA8004801002008F200081C6801400000FFFFDC
:103EB80000040048AC0700200AD7233CDB0F49C0A8
:103EC800DB0FC940000048427371327B02F0FF03E8
:103ED80012B9F278052A01D07379DBB27371337B9A
:103EE800012B00F04F867379DBB27371F3781C33C2
:103EF80006EB830393ED010A73791C3306EB830306
:103F0800D3ED010A02F00CF9B0EEC00A86ED0F0AF3
:103F180096ED0D7AD6ED027AD6ED106AF8EE677A4C
:103F280067EEA67A67EE877AF0EEE77AC6ED097A49
:103F380096ED097AD6ED097AB4EE677AF1EE10FAC1
:103F48000CBF736A0023736296ED097AD6ED0F7A77
:103F5800B4EEE77AF1EE10FA40F3FB81F36B73628B
:103F6800337BD6ED077A96ED097A002B40F0EE8187
:103F780077EE877AC6ED057AF3785FED307ADBB2B3
:103F8800337196ED057AB4EEE77AF1EE10FA40F166
:103F98005782D6ED057A1FED367A77EE877AC6ED29
:103FA800057AD6ED0C7A1FED397AF0EEE77AF4EE61
:103FB800C77AF1EE10FA94BFF36973697361F36914
:103FC800C4F8F03094F86133012B00F0B18394F811
:103FD8006133002B41F0A18101236372A36EC4F801
:103FE800DC32E36EC4F8E032D4F83833C4F8E43293
:103FF800D4F83C33C4F8E832DB48D4F8043798479F
:10400800DA4BD4F810231A60637AD848012B0CBF16
:10401800D4F81033D4F82C31C4F82C31D4F808373C
:1040280000F1100A9847D8ED007A9FEDD17AD4EDC7
:10403800E76AD04BD04867EE877A87EEA67A84ED98
:104048000B7AA26EC4F8B823E26EC4F8BC23D4F885
:104058001823C4F8C0231B69C4F8C433D4F8FC3649
:10406800984794F8C833002B40F0E8812378DBB2F6
:104078002370D4F85431C9F81C30D4F85831C9F831
:104088002030D4F85C31BD4DC9F8243094ED087A5D
:10409800D5ED097AB4EE677AF1EE10FA02D194F808
:1040A800C8330BB101232B70226A6A62B44B726960
:1040B8001A60F2691E46184646F8042FDAF80020FE
:1040C80040F8082F1A46D4F8101342F80C1F297824
:1040D80000293CF4DAADFEF7E3BD0023A367D8ED71
:1040E800007A94EDBB7A67EE877AC4ED1F7A27E5EC
:1040F800D4ED1D7AD8ED006A94EDE57A67EEA67ADC
:1041080067EE877AC4ED1E7AD4ED1C7AD8ED006A82
:1041180094EDE47A67EEA67A67EE877AC4ED1F7AA3
:104128000EE50023A367E3670AE50023A367DFF82A
:104138006882E367FEF7EEBFD3ED017A904BF8EEA5
:10414800E77A1A46E2EC017AD4F808111160E16EB8
:104158009960D4F85821DA60FEF7A4BF884BD4F8E8
:104168003C0184491A4642F8040B08698549FEF760
:1041780093BFD3ED007A824BF8EEE77A1A46E2EC69
:10418800017AD4F804111160A16E9960D4F8542111
:10419800DA60FEF787BF94ED507AD4EDDE7AD4ED7D
:1041A8004F6AB4EEE67AB6EE006AF1EE10FA67EE00
:1041B800867A05DDD4ED4F6A77EEA66AC4ED4F6ABC
:1041C800D4ED4F6AB4EEE67AF1EE10FA7CF579ACEC
:1041D80094ED4F7A77EE677AC4ED4F7AFCF771BCAD
:1041E80094ED087AD4EDDE7AD4ED7E6A9FED666AA6
:1041F800B4EEE67AF1EE10FA67EE867A05DDD4EDD4
:104208007E6A77EEA66AC4ED7E6AD4ED7E6AB4EE65
:10421800E67AF1EE10FA05D594ED7E7A77EE677AB4
:10422800C4ED7E7AD8ED007A5848F0EEE77AC4ED0E
:104238007F7AD4F8EC369847D4F82432C4F83C3165
:10424800FCF73BBC01F064FFAB6800220133AB60B4
:1042580085F82220FCF786BD0523FCF78CBC0523D6
:10426800FCF7C5BAF6EE084A27EE247AF4EEC76AD8
:10427800F1EE10FA40F3B18192ED007AF4EEC77ACC
:10428800F1EE10FA23EE866A05DD92ED007A36EE3D
:10429800077A82ED007A92ED007AF4EEC77AF1EEB1
:1042A80010FAD2ED007A7DF516AA37EEC66A82EDCD
:1042B800006AFDF70EBAB6EE085A27EE057AF4EE54
:1042C800C76AF1EE10FA40F3A98192ED007AF4EE94
:1042D800C77AF1EE10FA23EE866A05DD92ED007AD0
:1042E80036EE077A82ED007A92ED007AF4EEC77A1C
:1042F800F1EE10FAD2ED007A7EF5D0A937EEC66A53
:1043080082ED006AFEF7C8B9E278062A01F0EB826E
:1043180094ED4A6AD4ED476AD4ED4B7A9FED1C7A46
:10432800E6EE267AC4ED4B7AD4ED4B7AF4EEC77AF2
:10433800F1EE10FA40F19381D4ED4B7A9FED157AA6
:1043480077EE877AC4ED4B7AFDF7C6BC77EEC77A6D
:1043580010E6D6ED097AF5EEC07AF1EE10FA54BF00
:10436800736A0023FBE500BFDC0200202C04002058
:10437800EBC91841AC480020A403002064080020C1
:104388009C480020340600200000FA43F801002071
:10439800DB0F49C0DB0FC94038040020DB0F494060
:1043A80094ED4B7A5FED037AB4EEE77AF1EE10FA0A
:1043B8007DF7CFA9D4ED4B7A77EEE66AC4ED4B6A68
:1043C800FDF7C7B90723FFF71EBBD4F87031FFF715
:1043D800ADB9D4F8B431FFF7A0B934EE477AE34861
:1043E800E34A0023B0EEC77A80ED007A1360FEF747
:1043F80031B996ED007ADFEDDF7AB4EEE77AF1EEC7
:1044080010FA7DF7C0AAD6ED007A77EEE66AC6ED17
:10441800006AFDF7B8BA0723FFF7FCB8F378013B49
:10442800DBB2FFF73DB8D6ED097AF5EEC07AF1EECA
:1044380010FA54BF736A0023FFF77DB8072317E605
:1044480096ED057ADFEDCB7AB4EEE77AF1EE10FA65
:104458007FF7A7ADD6ED057A9FEDC77A77EEC77AD5
:10446800C6ED057A9DE5F378013BDBB22CE5002328
:1044780084F8003194F86233C048012B16BFDFF886
:104488003483D9F85030D8F80030C4F8FC31D4F867
:10449800EC3608BFDFF81C839847FEF72CB935EED9
:1044A800477AB24DB24A0020B0EEC77A85ED007A5D
:1044B8001060FDF7ECB80723FEF737B896ED057ADC
:1044C800DFEDAC7AB4EEE77AF1EE10FA7FF755A893
:1044D800D6ED057A9FEDA87A77EEC77AC6ED057A0C
:1044E800FFF74BB877EEC77AFFF730B80723FCF72A
:1044F800D1BEA34A926CFCF714BE0723FDF74CBE4D
:10450800D9F84830FEF785BAD4F87031FFF728BBE0
:10451800D4F8B431FFF71BBB0723FEF768BB94ED53
:104528004B7ADFED947AB4EEE77AF1EE10FA7EF783
:10453800BFA9D4ED4B7A9FED907A77EEC77AC4ED98
:104548004B7AFEF7B5B9C4F8FC2094EDD97ADFEDC3
:104558008D6ADFED8D7A8D4D8D498E4827EE267A4E
:10456800002384ED057AC4F8D430C4F8CC3094ED37
:10457800DC7A27EE277A012284ED477AC4F8C41141
:10458800C4F88011C4ED7A7AC4ED697AC4F8EC31C4
:10459800C4F8A831C4F8EC31C4F8AC312A70A27060
:1045A8003060FDF745BF94ED4B7ADFED727AB4EEDB
:1045B800E77AF1EE10FA7DF7BFAED4ED4B7A77EEDD
:1045C800E66AC4ED4B6AFDF7B7BED4F8B431FEF71E
:1045D800A8BDD4F87031FEF7ADBDF4EEE65AF1EEA1
:1045E80010FA41F3B983D2ED007AF5EEC07AF1EE14
:1045F80010FA23EE866A05D5D2ED007A76EE277A90
:10460800C2ED007AD2ED007AF5EEC07AF1EE10FA3A
:10461800D2ED007A3FF749AEFDF75DB8F4EEE65A01
:10462800F1EE10FA41F39483D2ED007AF5EEC07AF8
:10463800F1EE10FA23EE866A05D5D2ED007A76EE11
:10464800277AC2ED007AD2ED007AF5EEC07AF1EE63
:1046580010FAD2ED007A3FF751AEFEF71FB894ED8D
:104668004B7ADFED447AB4EEE77AF1EE10FA7DF793
:1046780033ABD4ED4B7A9FED407A77EEC77AC4ED31
:104688004B7AFDF729BBD4EDD97A9FED3E7A4248A3
:10469800DFED426A424A019067EE877A0021C4ED55
:1046A800057AC4F82C1190ED007A94ED676AD0ED84
:1046B800007A37EE467AE7EE667AC0ED007A11683E
:1046C80001311160D4EDDD7A116877EEA77AFCEE3E
:1046D800E77A17EE900A88423DF604AB00210520E0
:1046E800E070116084F80D16FDF7FCBA244B9FEDBD
:1046F8002D6AD3F8B020A266D3ED2C6AD3ED2D7ABB
:104708009FED297A67EE867AE6EE877AC4ED1B7A02
:104718009A6BA264DA6BE2649B6CC4F81833FDF7F9
:10472800F6B8F378002B7EF4CAAE0523FEF7C9BEAF
:104738001E4DD4F8F0302B60D4F808372846984737
:10474800D8ED007A9FED1A7AF0EEE77AF4EEC77AA0
:10475800F1EE10FACBBFAA46D4F8F0305AF8103F61
:1047680005F1100AC4F82C315DE400BFA807002049
:10477800A0070020DB0F4940DB0FC940F8010020EB
:10478800D4480020CDCC4C3ECDCCCC3D6408002094
:104798006F12833ACDCC4C3D100600200AD7A33BBC
:1047A800A40700203ACD933F3ACD133F2C040020B4
:1047B8000000484238040020D4EDDD7ADD4EFCEEDE
:1047C800E77A336817EE902A9A4207D933680022AD
:1047D80001333360C4F82021C4F81C21D4EDDD7AFC
:1047E8003368FCEEE77A17EE902A9A420BD8D4ED9C
:1047F800DB7A9FEDD17ADFEDD16A67EE877A87EEB3
:10480800A67A84ED487A94ED477ADFEDCD6AD4ED47
:10481800487A67EEA67AB4EEE77AF1EE10FA44DD4C
:10482800336801333360A379002B01F09783D4ED0B
:10483800DD7A3368B0EE087A67EE877AFCEEE77ABD
:1048480017EE902A9A4230D8A37903F0FF0263BB8F
:10485800D4EDE67ADFEDBB6A94EDE77ADFEDBA5A7C
:104868009FEDBA6A67EEA67AF6EE006A67EE877A77
:10487800002385EEA77A012184EDBB7A94EDBB7AFB
:10488800D4EDBB7A27EE277AC6EE077A67EEA67ACA
:10489800C4EDC57AD4F82001C4F824016069E06148
:1048A800C4F820316361A1713260A379012B7DF4D2
:1048B80051AC00220023A6493360C4F81C21626170
:1048C800C4F82021C4F82411D4EDDB7A9FEDA17A35
:1048D800A14967EE877A0222C4ED087AA162E371E2
:1048E800072184F86323052284F86133E17022707C
:1048F800FDF730BCDFF888929FED986AD9F8B030A0
:10490800A366D9ED2C6AD9ED2D7A9FED957A67EEDD
:10491800867AE6EE877AC4ED1B7AD9F83830A36434
:10492800D9F83C30E364D9F84830C4F81833FDF7B7
:10493800F6BFDFF84C929FED896AD9F8B030A366CC
:10494800D9ED2C6AD9ED2D7A9FED857A67EE867AB6
:10495800E6EE877AC4ED1B7AD9F83830A364D9F823
:104968003C30E364D9F84830C4F81833FDF75BBE2F
:104978007C4B93ED007A019BD3ED007AD4ED056A68
:1049880094F80D3637EE677A03F58F73C7EE267AFB
:1049980004EB8303F1EE677AC3ED017A94F80D36E0
:1049A800622B7DF6D3AB0023C4F87031C4F81C31F8
:1049B800D4EDD97A6C4B9FED607ADFED606A5D4982
:1049C8006348B5EE006A67EE867A0622C4ED057A7A
:1049D800E361D4EDDB7A67EE877A002387EEA67A67
:1049E80084ED487AC4F82401A3710B60E270FDF7E6
:1049F800ADBB9FED5E8A9FED5E9ADFED508A08E0C1
:104A080077EEA87AC3ED017A08F10108B8F1060F2C
:104A180028D008F1100208F1160306EB830306EB11
:104A2800820292ED010AD3ED010A01F06DFB08F153
:104A38001C0306EB830383ED010AD3ED017AF4EE40
:104A4800C87AF1EE10FAD3ED017AD9D4F4EEC97A26
:104A5800F1EE10FAD8DDD3ED017A77EEE87AC3EDFE
:104A6800017AD1E70023334A63610021C4F8703129
:104A7800A361C4F82031C4F81C3104231160E37029
:104A8800FDF760BBDFF8F8909FED346AD9F8B030D5
:104A9800A366D9ED2C6AD9ED2D7A9FED317A67EEB0
:104AA800867AE6EE877AC4ED1B7AD9F83830A364A3
:104AB800D9F83C30E364D9F84830C4F81833FDF726
:104AC8004DB91C4E9FED2B7A326801323260D4ED1D
:104AD800DD7A326867EE877AFCEEE77A17EE901A8D
:104AE80091423DF603A9D4ED4B7ADFED236A9FEDA1
:104AF8001F7A77EEA67AC4ED4B7AD4ED4B7AF4EEB2
:104B0800C77AF1EE10FA41F1DF81D4ED4B7A9FEDCF
:104B18000B7A77EE877AC4ED4B7A0022326094F8EC
:104B28000D26164D0132D2B2012184F80D262970C6
:104B3800FDF7DDB8A4070020CDCCCC3DDB0FC94084
:104B48003333733FEF1F2E410000704200007A4458
:104B5800000020419A99993E000096433ACD933F30
:104B68003ACD133F140600200000A041DB0F49C0D6
:104B7800DB0F4940CDCC4C3DFDAD803D64080020A5
:104B8800D4480020F378002B7FF4ADA90523FFF764
:104B9800ACB9DFF8A4939FEDE66AD9F8B030A36604
:104BA800D9ED2C6AD9ED2D7A9FEDE27A67EE867AF7
:104BB800E6EE877AC4ED1B7AD9F83830A364D9F8C1
:104BC8003C30E364D9F84830C4F81833FDF7C0BB6B
:104BD800D94B9FEDD76AD3F8B020A266D3ED2C6AE3
:104BE800D3ED2D7A9FEDD37A67EE867AE6EE877A53
:104BF800C4ED1B7A9A6BA264DA6BE2649B6CC4F80E
:104C08001833FCF774BCE37AD4ED057A002B41F035
:104C1800B68094ED2B7A67EE877AC4ED037AC74A9B
:104C2800D4ED4B7A136803F00F03012B07D01168FA
:104C3800C34B0B4043F4002343F061031360DFEDE3
:104C4800C16ABE4B9FEDC07AC04967EEA67AF6EE00
:104C5800006AFEEEE07A081FC3ED017AD3ED027A0E
:104C6800F8EEE77A67EE877AC4ED297AD3ED027A0F
:104C7800F8EEE77A67EE877AC4ED2A7AD4F8FC3042
:104C8800D4EDDD7A67EEA67ADFEDB16AFCEEE77A5D
:104C980017EE902A934225BFD4ED297A94ED037A32
:104CA800DFEDAC7A67EE877A0023C4ED317AC4F879
:104CB800C830D4F8C430C4F84033D4F8C830C4F885
:104CC8004433D4EDD47A94EDC67A67EEA67A67EECB
:104CD800877AC4EDD27A94EDD20A01F02DFA94EDD8
:104CE800037AD4EDD27AB4EEE77AF1EE10FA0ADD5F
:104CF800994BC4F8B4300122C4F8B830072384F8BB
:104D0800C82384F8A433D4F85431C4F81C33D4F835
:104D18005831C4F82033D4F85C31C4F824338F48B0
:104D2800D4F8F8369FED8B8A9847D4EDD07A94ED75
:104D3800D17A8B48E7EE487AC4ED527AD4EDD17A2D
:104D480094EDD07AE7EE087AC4ED537AD4F81833A4
:104D5800C4F85031D4F8F0369847D4F8FC30D4ED84
:104D6800DD7AFCEEE77A17EE902A9342C0F0B9801C
:104D7800D4EDDE4ADFED7B5A94EDDE6A94ED337AAA
:104D8800D4ED146AD4ED337A36EE256AF0EEE66A8D
:104D980084EE865A37EE667AE5EE477AC4ED337AC2
:104DA80094EDDE5A94EDDE6A94ED357AD4ED1C6A02
:104DB800D4ED357A36EE256AF0EEE66AC5EE065A87
:104DC80037EE667ADFED686AE5EEC77AC4ED357AC4
:104DD80094ED337AD4ED337AB4EE677AF1EE10FAC3
:104DE80008BF94ED338A84ED338A94ED357AD4ED97
:104DF800357AB4EE677AF1EE10FA0CBFD4F8D430F5
:104E08000023C4F8D430D4F8FC3094EDDC7AD4ED27
:104E1800E87A27EE267AF8EE677A67EE277AFCEECC
:104E2800E77A17EE902A93421DD394ED337AD4EDA6
:104E3800377AB4EEE77AF1EE10FACCBFD4F8CC307A
:104E4800D4F8DC30C4F8DC3094ED357AD4ED387A17
:104E5800B4EEE77AF1EE10FACCBFD4F8D430D4F837
:104E6800E030C4F8E03001232B70D4ED376A94EDBC
:104E7800387AC6EE877AC4ED2F7A94ED2F7AD4ED7E
:104E88002F7AD4ED2B6A94ED2B0A20EE660AA7EE52
:104E9800270AB5EE400AF1EE10FAB1EEC08A01F128
:104EA800EB8084ED308AD4ED306A9FED307AD4ED12
:104EB800477A67EE877A86EEA77A84ED2C7AD4F85B
:104EC800B030C4F8B43094ED2D7AD4ED2D7AB4EE28
:104ED800677AF1EE10FA0CBFD4F8B4300023C4F8A6
:104EE800B430D4F8FC30D4EDDD7AB7EE087A67EE4A
:104EF800877AFCEEE77A17EE902A93427DF6A0AA0D
:104F0800E37A03F0FF02002B40F0F2870221A17040
:104F180001210023E172C4F8FC20C4F8CC30C4F8A5
:104F2800D430C4F8DC30C4F8E030FDF789BA00BFEB
:104F38003ACD933F3ACD133FD4480020000C0240AD
:104F480000F887FF83F9A23E0000003044030020E8
:104F5800ABAA2A3F00000000000080BF1803002011
:104F680048010020CDCC4C3D3333B33FDB0FC94063
:104F780094ED057AD4ED057A94EDDE6AD4ED5C6A99
:104F8800F2EE045A67EEA57AB4EEE67AF1EE10FA7C
:104F980067EE867A05DDD4ED5C6A77EEA66AC4ED25
:104FA8005C6AD4ED5C6AB4EEE67AF1EE10FA05D5E7
:104FB80094ED5C7A77EE677AC4ED5C7A0026C4F8E3
:104FC800B461236FC4F87431636FC4F8B831D4F88E
:104FD8004833C4F89431D4ED657AD448F1EE677A51
:104FE800C4ED667AD4F84833C4F8D831D4ED767A6B
:104FF800F1EE677AC4ED777AD4F8EC369847D4F8AE
:10500800EC36CB489847D4F89C31C4F84033D4F8F0
:10501800E031C4F84433D4EDD47A94EDC67AC54966
:1050280067EE877A081FC4EDD27A94EDD20A01F0B0
:1050380083F8D4F85431C4F81C33D4F85831C4F880
:105048002033D4F85C31C4F82433BB48D4F8F8369C
:105058009847D4EDD06A94ED2A7A94EDD16AD4EDCC
:10506800297AB64867EEC67AE6EE877AC4ED527AB0
:10507800D4EDD16A94ED2A7AD4EDD07A94ED296AE8
:1050880067EE867AE6EE877AC4ED537AD4F8183359
:10509800C4F85031D4F8F0369847D4F8FC30D4ED41
:1050A800DD7AB6EE007A67EE877AFCEEE77A17EEDD
:1050B800902A9342FDF4C0A9D4ED146A94ED1C7AA9
:1050C8009FED9F5AC6EE877AC4ED3A7AD4EDDE5A40
:1050D800D4EDDE6A94ED2B7A94ED3A6AD4ED2B7A0E
:1050E80076EE856A37EE467A85EEA66AE6EE477A68
:1050F800C4ED2B7AD4F8FC30D4EDDD7AFCEEE77AF7
:1051080017EE902A934220D300230222C4F870613C
:10511800C4F8FC30C4F85C61C4F85861C4F8546140
:10512800A2709BED007ADFED877AB4EEE77AF1EEB4
:1051380010FA0AD5062284F8A4230121824A84F8A9
:10514800C813C4F8AC20C4F8FC3001232B70FDF759
:1051580073B97E4DD4F8F0302B60D4F80837284660
:105168009847D8ED007A9FED7A7AF0EEE77AF4EE78
:10517800C77AF1EE10FA40F34C812B69C4F82C3150
:10518800FEF71CBC734DD4F82C312B60D4F8E031F9
:10519800A5F5D27045F8083DD4F810379847FDF7C3
:1051A80023BB6C4DD4F82C312B60D4F8E031A5F535
:1051B800D27045F8083DD4F810379847FCF72EBA56
:1051C800D3ED007A9FED644A94ED416AD4EDDF4A4D
:1051D8009FED625ADFED625A9FED627ADFED626AF7
:1051E800DFF88891F8EEE77A64EE844A77EEC67ABB
:1051F800B0EE006A67EEA47AC4ED0C7AD3ED017ABA
:10520800D4ED423AD4EDDF4AF8EEE77A64EE844A08
:1052180077EEE37A67EEA47AC4ED0D7AD3ED027ADD
:10522800D4ED433AD4EDDF4AF8EEE77A64EE844AE7
:1052380077EEE37A67EEA47AC4ED0E7AD3ED067AB8
:10524800D4EDE04AF8EEE77A67EE857A67EEA47A5D
:10525800C4EDC67A93ED034AD4EDE04AD4ED443A5E
:10526800D4EDC67A64EE854A67EEE37AB8EEC44AAE
:10527800E4EE247AF1EE677AC4ED0F7A93ED044AEE
:10528800D4EDE04AD4ED453AD4EDC67A64EE854AC9
:10529800B8EEC44A67EEE37AE4EE247AF1EE677A70
:1052A800C4ED107A5B69D4EDE04A94ED464AD4ED3A
:1052B800C67A24EE855A04EE903A67EEC47AF8EE80
:1052C800E44AE4EE857AF1EE677AC4ED117A236B4D
:1052D800A36694ED0C5AD4ED0D7A67EEA57AE5EE47
:1052E800077AC4ED1B7AD4ED0F5AD4ED107A94EDF9
:1052F800115A77EE857AD5EE867A67EEA67AC4EDEE
:10530800127AD4ED107AD4ED116A77EEE67A27EEA8
:10531800877A84ED137AFDF702BB94F86133022B88
:1053280000F08085DFF848A0FEF77DBE7001002000
:10533800B401002044030020180300204801002085
:10534800CDCC4C3DCDCCCC3D000080BF2C04002002
:1053580000004842200600200000003A0000803982
:105368003ACD933F3ACD133FABAAAA3ED44800208A
:105378003C04002094F86133022B7EF41FABA36E2B
:10538800C4F8DC32E36EC4F8E032D4F83833C4F839
:10539800E432D4F83C33C4F8E832D4F80437CB48C4
:1053A8009847D8ED007A9FEDCA7ACA4BF0EEE77AB3
:1053B800CDED047ADDED047AF4EEC77AF1EE10FA59
:1053C800D8BF1A78DFEDC47AD4BFD2B201221A70DE
:1053D8009DED047AB4EEE77AF1EE10FA56BF1A782A
:1053E8000022D2B21A701B78002B40F0AA85BB4D60
:1053F800D4F8F0302B60D4F80837284698479DED4C
:10540800047ADFEDB77AB4EEE77AF1EE10FA3FF7F7
:10541800B4AED4F8F030B1E6D3ED007A9FEDB24ADD
:1054280094ED416AD4EDDF4A9FEDB05ADFEDB05AF2
:105438009FEDB17ADFEDAF6ADFF8A892F8EEE77A70
:1054480064EE844A77EEC67AB0EE006A67EEA47A14
:10545800C4ED0C7AD3ED017AD4ED423AD4EDDF4AAB
:10546800F8EEE77A64EE844A77EEE37A67EEA47A98
:10547800C4ED0D7AD3ED027AD4ED433AD4EDDF4A88
:10548800F8EEE77A64EE844A77EEE37A67EEA47A78
:10549800C4ED0E7AD3ED067AD4EDE04AF8EEE77A59
:1054A80067EE857A67EEA47AC4EDC67A93ED034A6F
:1054B800D4EDE04AD4ED443AD4EDC67A64EE854A98
:1054C80067EEE37AB8EEC44AE4EE247AF1EE677A3E
:1054D800C4ED0F7A93ED044AD4EDE04AD4ED453A91
:1054E800D4EDC67A64EE854AB8EEC44A67EEE37A2C
:1054F800E4EE247AF1EE677AC4ED107A5B69D4EDB4
:10550800E04A94ED464AD4EDC67A24EE855A04EE74
:10551800903A67EEC47AF8EEE44AE4EE857AF1EE62
:10552800677AC4ED117A236BA36694ED0C5AD4ED17
:105538000D7A67EEA57AE5EE077AC4ED1B7AD4ED0D
:105548000F5AD4ED107A94ED115A77EE857AD5EE8C
:10555800867A67EEA67AC4ED127AD4ED107AD4ED85
:10556800116A77EEE67A27EE877A84ED137AFCF7EC
:10557800F5BBD3ED007A9FED5C4A94ED416AD4ED1A
:10558800DF4A9FED5A5ADFED5A5A9FED5B7ADFEDFD
:10559800596ADFF85091F8EEE77A64EE844A77EEBC
:1055A800C67AB0EE006A67EEA47AC4ED0C7AD3ED41
:1055B800017AD4ED423AD4EDDF4AF8EEE77A64EEA8
:1055C800844A77EEE37A67EEA47AC4ED0D7AD3EDD8
:1055D800027AD4ED433AD4EDDF4AF8EEE77A64EE86
:1055E800844A77EEE37A67EEA47AC4ED0E7AD3EDB7
:1055F800067AD4EDE04AF8EEE77A67EE857A67EE48
:10560800A47AC4EDC67A93ED034AD4EDE04AD4ED0A
:10561800443AD4EDC67A64EE854A67EEE37AB8EE8A
:10562800C44AE4EE247AF1EE677AC4ED0F7A93ED7A
:10563800044AD4EDE04AD4ED453AD4EDC67A64EE96
:10564800854AB8EEC44A67EEE37AE4EE247AF1EECE
:10565800677AC4ED107A5B69D4EDE04A94ED464A66
:10566800D4EDC67A24EE855A04EE903A67EEC47AF1
:10567800F8EEE44AE4EE857AF1EE677AC4ED117A41
:10568800236BA36694ED0C5AD4ED0D7A67EEA57AD8
:10569800E5EE077AC4ED1B7AD4ED0F5AD4ED107AF3
:1056A80094ED115A77EE857AD5EE867A67EEA67A6A
:1056B800C4ED127AD4ED107AD4ED116A77EEE67A59
:1056C80027EE877A84ED137AFCF7ADBFDC02002061
:1056D80000009B4338080020000091432C04002060
:1056E80000004842D44800200000003A00008039F9
:1056F8003ACD933FABAAAA3E3ACD133FD3ED007AF9
:105708001FED074A94ED416AD4EDDF4A1FED095AAF
:105718005FED095A1FED087A5FED0A6ADFF8B49663
:10572800F8EEE77A64EE844A77EEC67AB0EE006A5D
:1057380067EEA47AC4ED0C7AD3ED017AD4ED423A3F
:10574800D4EDDF4AF8EEE77A64EE844A77EEE37A3E
:1057580067EEA47AC4ED0D7AD3ED027AD4ED433A1C
:10576800D4EDDF4AF8EEE77A64EE844A77EEE37A1E
:1057780067EEA47AC4ED0E7AD3ED067AD4EDE04A4A
:10578800F8EEE77A67EE857A67EEA47AC4EDC67A12
:1057980093ED034AD4EDE04AD4ED443AD4EDC67A09
:1057A80064EE854A67EEE37AB8EEC44AE4EE247AFA
:1057B800F1EE677AC4ED0F7A93ED044AD4EDE04A2E
:1057C800D4ED453AD4EDC67A64EE854AB8EEC44ABB
:1057D80067EEE37AE4EE247AF1EE677AC4ED107AA4
:1057E8005B69D4EDE04A94ED464AD4EDC67A24EEDE
:1057F800855A04EE903A67EEC47AF8EEE44AE4EE8D
:10580800857AF1EE677AC4ED117A236BA36694ED7D
:105818000C5AD4ED0D7A67EEA57AE5EE077AC4ED59
:105828001B7AD4ED0F5AD4ED107A94ED115A77EE15
:10583800857AD5EE867A67EEA67AC4ED127AD4ED2B
:10584800107AD4ED116A77EEE67A27EE877A84ED3E
:10585800137AFCF77DBD7378002B7CF4F1ABB37839
:10586800012B7CF4EDAB0323F370FCF7F1BB7378E9
:10587800002B7DF496ADB378012B7DF492AD032314
:10588800F370FDF796BD7378002B7EF4A0AAB37869
:10589800012B7EF49CAA0323F370FEF7A0BA737859
:1058A800002B7DF482ADB378002B7DF47EAD04230C
:1058B800F370FDF77EBD7378002B7EF48CAAB37865
:1058C800002B7EF488AA0423F370FEF788BA737855
:1058D800002B7CF4B9ABB378002B7CF4B5AB042374
:1058E800F370FCF7B5BB94ED487AD4ED497A94EDA2
:1058F800DE6AD4ED476AB4EEE67AF1EE10FA67EEA6
:10590800867A05DDD4ED476A77EEA66AC4ED476A64
:10591800D4ED476AB4EEE67AF1EE10FA7EF5F8AC0B
:1059280094ED477A77EE677AC4ED477AFEF7F0BCD4
:105938007378012B7CF48CABB378002B7CF488ABA8
:105948000523F370FCF784BB7378012B7DF431AD2C
:10595800B378002B7DF42DAD0523F370FDF729BD39
:105968007378012B7EF43BAAB378002B7EF437AA18
:105978000523F370FEF733BAE378012B00F0C282F7
:10598800F378163306EB83035A68F378163306EB7D
:1059980083035A60E378022B00F0B182F378103366
:1059A80006EB83035A68F378103306EB83035A60D7
:1059B800FCF78BBB00230026C4F85431C4F85831D7
:1059C800C4F85C316361C4F81C31C4F82031C4F8F0
:1059D8002431E360C4F8FC60D4EDDE5A9FEDEF6A31
:1059E8009FEDEF7AD4ED2D6AB7EE008AC8EE257ADE
:1059F80067EE867A27EE877A66EE877AC4ED717A43
:105A0800C4ED607AD4ED2B7AD4EDDE6A67EE877A3E
:105A180067EEA67AC4ED7A7AC4ED697A94ED607A75
:105A2800C8EE077AC4ED6A7A94ED717AC8EE077AFF
:105A3800C4ED7B7AD4ED2B7AD4ED2D6A94EDDE7A21
:105A4800F1EE677A87EEA60A20EE070A00F070FBEF
:105A580084ED940AD4ED2B6A94ED947AD14BC8EE78
:105A6800267A38EE478AB7EE087A27EE888A84EDD8
:105A7800928AC4F86C32D4ED2B7A67EE877AC4ED3B
:105A8800BC7AD4ED2D7A67EE877AC4EDBD7AD4F866
:105A9800AC30C4F88C33D4F8B430C4F89033D4F8AC
:105AA800B830C4F894332670FCF7D3BCD4ED057A2B
:105AB80094ED2F7ABC4A67EE877AC4ED037AD4ED69
:105AC8004B7A136803F00F03012B07D01168B74B0B
