:020000040800F2
:1000000000000220690B010891FB000893FB000827
:1000100095FB000897FB000899FB00080000000012
:100020000000000000000000000000009BFB000832
:100030009DFB0008000000009FFB0008A1FB0008DA
:10004000B90B0108B90B0108B90B0108B90B01087C
:10005000B90B0108B90B0108B90B0108B90B01086C
:10006000B90B0108B90B0108B90B0108B90B01085C
:10007000B90B0108B90B0108B90B0108B90B01084C
:10008000DDFB0008B90B0108112B0008B90B0108B2
:10009000B90B0108B90B0108B90B0108A3FB000853
:1000A000B90B0108B90B0108B90B0108B90B01081C
:1000B00029B00008B90B0108B90B0108B90B0108F8
:1000C000B90B0108B90B0108B90B0108B90B0108FC
:1000D000B90B0108B90B010815FC0008B90B0108A0
:1000E000B90B0108B90B0108B90B0108B90B0108DC
:1000F000B90B0108B90B0108B90B0108B90B0108CC
:10010000B90B0108B90B0108B90B0108B90B0108BB
:10011000B90B0108B90B0108B90B0108A5FB0008D0
:10012000B90B0108B90B0108B90B0108B90B01089B
:10013000B90B0108B90B0108B90B0108B90B01088B
:10014000B90B0108B90B0108B90B0108B90B01087B
:10015000B90B0108B90B0108B90B0108B90B01086B
:10016000B90B0108C5FB0008B90B0108B90B010860
:10017000B90B0108B90B0108B90B0108B90B01084B
:10018000B90B0108B90B0108B90B0108B90B01083B
:10019000B90B010800000000B90B0108B90B0108F8
:1001A000B90B0108B90B0108B90B0108B90B01081B
:1001B000B90B0108B90B0108B90B0108B90B01080B
:1001C000B90B0108B90B0108B90B0108B90B0108FB
:0801D000B90B0108B90B01088D
:1001D80081F0004102E000BF83F0004330B54FEAF0
:1001E80041044FEA430594EA050F08BF90EA020F5D
:1001F8001FBF54EA000C55EA020C7FEA645C7FEAF0
:10020800655C00F0E2804FEA5454D4EB5555B8BF12
:100218006D420CDD2C4480EA020281EA030382EA83
:10022800000083EA010180EA020281EA0303362D15
:1002380088BF30BD11F0004F4FEA01314FF4801CE8
:100248004CEA113102D0404261EB410113F0004FFA
:100258004FEA03334CEA133302D0524263EB4303B1
:1002680094EA050F00F0A780A4F10104D5F1200E4F
:100278000DDB02FA0EFC22FA05F2801841F10001AA
:1002880003FA0EF2801843FA05F359410EE0A5F17E
:1002980020050EF1200E012A03FA0EFC28BF4CF0AF
:1002A800020C43FA05F3C01851EBE37101F0004565
:1002B80007D54FF0000EDCF1000C7EEB00006EEB72
:1002C8000101B1F5801F1BD3B1F5001F0CD34908FC
:1002D8005FEA30004FEA3C0C04F101044FEA445253
:1002E80012F5800F80F09A80BCF1004F08BF5FEADA
:1002F800500C50F1000041EB045141EA050130BDBA
:100308005FEA4C0C404141EB010111F4801FA4F15C
:100318000104E9D191F0000F04BF01460020B1FAB1
:1003280081F308BF2033A3F10B03B3F120020CDAE9
:100338000C3208DD02F1140CC2F10C0201FA0CF0C7
:1003480021FA02F10CE002F11402D8BFC2F1200C2C
:1003580001FA02F120FA0CFCDCBF41EA0C019040E2
:10036800E41AA2BF01EB0451294330BD6FEA04042B
:100378001F3C1CDA0C340EDC04F11404C4F1200216
:1003880020FA04F001FA02F340EA030021FA04F328
:1003980045EA030130BDC4F10C04C4F1200220FA7F
:1003A80002F001FA04F340EA0300294630BD21FABD
:1003B80004F0294630BD94F0000F83F4801306BF83
:1003C80081F480110134013D4EE77FEA645C18BF77
:1003D8007FEA655C29D094EA050F08BF90EA020F0E
:1003E80005D054EA000C04BF1946104630BD91EA06
:1003F800030F1EBF0021002030BD5FEA545C05D109
:100408004000494128BF41F0004130BD14F5800447
:100418003CBF01F5801130BD01F0004545F0FE41BB
:1004280041F470014FF0000030BD7FEA645C1ABFF0
:10043800194610467FEA655C1CBF0B46024650EA27
:10044800013406BF52EA033591EA030F41F4002153
:1004580030BD00BF90F0000F04BF0021704730B5D9
:100468004FF4806404F132044FF000054FF00001AE
:1004780050E700BF90F0000F04BF0021704730B56F
:100488004FF4806404F1320410F0004548BF404244
:100498004FF000013EE700BF42004FEAE2014FEA99
:1004A80031014FEA02701FBF12F07F4393F07F4F74
:1004B80081F06051704732F07F4208BF704793F077
:1004C8007F4F04BF41F40021704730B54FF460748A
:1004D80001F0004521F000411CE700BF50EA01028D
:1004E80008BF704730B54FF000050AE050EA010236
:1004F80008BF704730B511F0004502D5404261EBA6
:1005080041014FF4806404F132045FEA915C3FF4E6
:10051800D8AE4FF003025FEADC0C18BF03325FEA83
:10052800DC0C18BF033202EBDC02C2F1200300FA34
:1005380003FC20FA02F001FA03FE40EA0E0021FA59
:1005480002F11444BDE600BF70B54FF0FF0C4CF447
:10055800E06C1CEA11541DBF1CEA135594EA0C0FF9
:1005680095EA0C0F00F0DEF82C4481EA030621EA34
:100578004C5123EA4C5350EA013518BF52EA03356F
:1005880041F4801143F4801338D0A0FB02CE4FF021
:100598000005E1FB02E506F00042E0FB03E54FF051
:1005A8000006E1FB03569CF0000F18BF4EF0010E49
:1005B800A4F1FF04B6F5007F64F5407404D25FEA45
:1005C8004E0E6D4146EB060642EAC62141EA5551F8
:1005D8004FEAC52040EA5E504FEACE2EB4F1FD0C3A
:1005E80088BFBCF5E06F1ED8BEF1004F08BF5FEAB8
:1005F800500E50F1000041EB045170BD06F000466A
:1006080046EA010140EA020081EA0301B4EB5C0416
:10061800C2BFD4EB0C0541EA045170BD41F480110E
:100628004FF0000E013C00F3AB8014F1360FDEBF33
:10063800002001F0004170BDC4F10004203C35DA0F
:100648000C341BDC04F11404C4F1200500FA05F392
:1006580020FA04F001FA05F240EA020001F0004233
:1006680021F0004110EBD37021FA04F642EB0601A9
:100678005EEA430E08BF20EAD37070BDC4F10C04D3
:10068800C4F1200500FA04F320FA05F001FA04F297
:1006980040EA020001F0004110EBD37041F1000183
:1006A8005EEA430E08BF20EAD37070BDC4F120058E
:1006B80000FA05F24EEA020E20FA04F301FA05F2F6
:1006C80043EA020321FA04F001F0004121FA04F29E
:1006D80020EA020000EBD3705EEA430E08BF20EA6E
:1006E800D37070BD94F0000F0FD101F000464000A8
:1006F80041EB010111F4801F08BF013CF7D041EA2A
:10070800060195F0000F18BF704703F0004652002D
:1007180043EB030313F4801F08BF013DF7D043EAFE
:100728000603704794EA0C0F0CEA135518BF95EAB4
:100738000C0F0CD050EA410618BF52EA4306D1D13B
:1007480081EA030101F000414FF0000070BD50EA5A
:10075800410606BF1046194652EA430619D094EAE4
:100768000C0F02D150EA013613D195EA0C0F05D1CE
:1007780052EA03361CBF104619460AD181EA030122
:1007880001F0004141F0FE4141F470014FF00000DA
:1007980070BD41F0FE4141F4780170BD70B54FF075
:1007A800FF0C4CF4E06C1CEA11541DBF1CEA1355F5
:1007B80094EA0C0F95EA0C0F00F0A7F8A4EB0504D7
:1007C80081EA030E52EA03354FEA013100F08880CE
:1007D8004FEA03334FF0805545EA131343EA126397
:1007E8004FEA022245EA111545EA10654FEA00264C
:1007F8000EF000419D4208BF964244F1FD0404F505
:10080800407402D25B084FEA3202B61A65EB030560
:100818005B084FEA32024FF480104FF4002CB6EB1D
:10082800020E75EB030E22BFB61A754640EA0C009D
:100838005B084FEA3202B6EB020E75EB030E22BFDD
:10084800B61A754640EA5C005B084FEA3202B6EB1E
:10085800020E75EB030E22BFB61A754640EA9C00DD
:100868005B084FEA3202B6EB020E75EB030E22BFAD
:10087800B61A754640EADC0055EA060E18D04FEA6B
:10088800051545EA16754FEA06164FEAC30343EA0B
:1008980052734FEAC2025FEA1C1CC0D111F4801FD8
:1008A8000BD141EA00014FF000004FF0004CB6E7D1
:1008B80011F4801F04BF01430020B4F1FD0C88BF70
:1008C800BCF5E06F3FF6AFAEB5EB030C04BFB6EB7B
:1008D800020C5FEA500C50F1000041EB045170BD6E
:1008E8000EF0004E4EEA113114EB5C04C2BFD4EB9B
:1008F8000C0541EA045170BD41F480114FF0000E1F
:10090800013C90E645EA060E8DE60CEA135594EA9A
:100918000C0F08BF95EA0C0F3FF43BAF94EA0C0F9D
:100928000AD150EA01347FF434AF95EA0C0F7FF412
:1009380025AF104619462CE795EA0C0F06D152EA66
:1009480003353FF4FDAE1046194622E750EA41064A
:1009580018BF52EA43067FF4C5AE50EA41047FF45B
:100968000DAF52EA43057FF4EBAE12E74FEA4102BE
:10097800B2F1E04324BFB3F5001CDCF1FE5C0DD9F5
:1009880001F0004C4FEAC0024CEA5070B2F1004F3F
:1009980040EB830008BF20F00100704711F0804F42
:1009A80021D113F13872BCBF01F00040704741F407
:1009B80080114FEA5252C2F11802C2F1200C10FA0B
:1009C8000CF320FA02F018BF40F001004FEAC123EF
:1009D8004FEAD32303FA0CFC40EA0C0023FA02F393
:1009E8004FEA4303CCE77FEA625307D150EA013369
:1009F8001EBF4FF0FE4040F44000704701F0004039
:100A080040F0FE4040F40000704700BF0348044B2C
:100A1800834202D0034B03B1184770477807002080
:100A2800780700200000000005480649091A8910C7
:100A380001EBD171491002D0034B03B1184770473D
:100A480078070020780700200000000010B5064C49
:100A5800237843B9FFF7DAFF044B13B10448AFF327
:100A680000800123237010BD7807002000000000DB
:100A7800F812010808B5054B1BB105490548AFF345
:100A88000080BDE80840FFF7CFBF00BF00000000AE
:100A98007C070020F81201082DE93008D0ED127A01
:100AA80090ED077A67EE877AC0ED037AD0ED127A77
:100AB80090ED087A67EE877AC0ED047AD0ED127A65
:100AC80090ED097A67EE877AC0ED057AD0ED037A62
:100AD80090ED047A77EE877A90ED057A77EE877A4B
:100AE8009FEDFA7A67EE877AC0ED067AD0ED037A41
:100AF80090ED067A77EEC77AC0ED007AD0ED047AE9
:100B080090ED067A77EEC77AC0ED017AD0ED057AD6
:100B180090ED067A77EEC77AC0ED027A03688363B0
:100B2800D0ED007A9FEDEA7A67EE877A90ED017A48
:100B3800DFEDE86A27EE267A77EE877AC0ED0F7A3E
:100B4800D0ED197AB0EE677ABEEEC47A17EE102AA5
:100B5800D517E149A2FB01BC01FB05CC4FEA1B629A
:100B680042EA0C2202F580025112A1F5005343F328
:100B78000D0303FB03F31A1340F6BC5303FB02F403
:100B880044F6BC53A3EBA43303FB02F31B14C3F5D5
:100B980080531B0311F4804F40F02C8207EE903AEB
:100BA800F8EEE77A9FEDCD7A67EE877AC0ED1B7A8B
:100BB800D0ED197AB0EE677ABEEEC47A17EE102A35
:100BC800D517C549A2FB01BC01FB05CC4FEA1B6246
:100BD80042EA0C225112A1F5005343F30D0303FB23
:100BE80003F31A1340F6BC5303FB02F444F6BC5358
:100BF800A3EBA43303FB02F31B14C3F580531B03BD
:100C080011F4804F40F0F88107EE903AF8EEE77A59
:100C18009FEDB27A67EE877AC0ED1C7AD0ED0E7A36
:100C280090ED1B7A67EE877A90ED0F7AD0ED1C6A0B
:100C380027EE267A77EE877AC0ED107AD0ED0E7A15
:100C480090ED1C7A67EEC77A90ED0F7AD0ED1B6AAB
:100C580027EE267A77EE877AC0ED117AD0ED107AF2
:100C680090ED0C7AD0ED206A27EE267A77EEC77AD7
:100C780090ED227AD0ED136A27EE267A77EE877AFE
:100C8800C0ED257AD0ED117A90ED0D7AD0ED206A7D
:100C980027EE267A77EEC77A90ED217AD0ED136A9F
:100CA80027EE267A77EEC77AC0ED267AD0ED217A3C
:100CB80090ED257AD0ED276A27EE267A77EE877AA7
:100CC800C0ED237AD0ED227A90ED267AD0ED276A0E
:100CD80027EE267A77EE877AC0ED247AD0ED237A4C
:100CE80090ED297A77EEC77A90ED2A7A67EE877ABF
:100CF800C0ED0C7AD0ED247A90ED2B7A67EE877AE6
:100D0800C0ED0D7A90ED217AD0ED286A90ED256A34
:100D1800D0ED107AD0ED0C5A90ED205A65EE855A38
:100D280077EEE57AD0ED225A90ED135A65EE855AA2
:100D380077EEA57A76EE277A66EEA77A77EE277AA7
:100D4800C0ED217A90ED227AD0ED286A90ED266ADE
:100D5800D0ED117AD0ED0D5A90ED205A65EE855AF6
:100D680077EEE57AD0ED215A90ED135A65EE855A63
:100D780077EEE57A76EE277A66EEA77A77EE277A27
:100D8800C0ED227AD0ED217A90ED297A77EEC77AF4
:100D980090ED2A7A67EE877AC0ED0C7AD0ED227A48
:100DA80090ED2B7A67EE877AC0ED0D7AD0ED0C7A4C
:100DB80090ED1B7A67EE877A90ED0D7AD0ED1C6A7C
:100DC80027EE267A77EEC77AC0ED0A7AD0ED0C7A4C
:100DD80090ED1C7A67EE877A90ED0D7AD0ED1B6A5C
:100DE80027EE267A77EE877AC0ED0B7AD0ED187A5F
:100DF800B7EE087A67EE877A90ED217AD0ED0D6A22
:100E080027EE267AD0ED226A90ED0C6A66EE866AA5
:100E180037EE667A67EE877AC0ED157A0023C0F858
:100E2800C430D0ED137AF5EEC07AF1EE10FA07DD92
:100E3800D0ED307A90ED177A77EE877AC0ED317A77
:100E4800D0ED137AF5EEC07AF1EE10FA00F1D68003
:100E5800D0ED276A90ED167AC6EE877A90ED157A6E
:100E6800D0ED316A37EE667A67EE877AF0EEE76A98
:100E780090ED137AB0EEC77AF4EEC76AF1EE10FA85
:100E88000EDD90ED157AB0EEC77AD0ED306AB4EE8B
:100E9800E67AF1EE10FA03D5DFED117AC0ED137A98
:100EA80090ED137A77EE277AC0ED137AD0ED137AA6
:100EB8009FED0C7A67EE877AC0ED147AD0ED137A3D
:100EC80090ED157A67EE877A18E000BFAAAAAA3EC5
:100ED8003ACD133F3ACD933F60BE280000008033DF
:100EE80000000000EBC91841D7B35D3FDA0F494055
:100EF800DA0FC9C0DA0F49C0DA0FC940C0ED2F7A3E
:100F0800836AC0F8B03090ED0A7AFEEE005A27EEF8
:100F1800257AD0ED0B6A1FED0C6A66EE866A37EE0D
:100F2800267A80ED2D7AD0ED0A7A67EEA57A90EDD3
:100F38000B7A27EE067A77EEC77AC0ED2E7AD0EDD7
:100F48001A7A90ED277AD0ED136A27EE267A77EE93
:100F5800877AC0ED1A7A90ED1A7A5FED1C7AB4EEB2
:100F6800E77AF1EE10FA07DD90ED1A7A5FED207A54
:100F780077EEC77AC0ED1A7A90ED1A7A5FED237A88
:100F8800B4EEE77AF1EE10FA07D5D0ED1A7A1FED34
:100F9800267A77EE877AC0ED1A7AD0ED1A7A90ED34
:100FA800187A67EE877AC0ED197A90ED197A5FEDB5
:100FB800317AB4EEE77AF1EE10FA07DD90ED197A9E
:100FC8005FED357A77EEC77AC0ED197A90ED197A28
:100FD8005FED387AB4EEE77AF1EE10FA07D5D0ED86
:100FE800197A1FED3B7A77EE877AC0ED197ABDE85A
:100FF800300870475B42D1E55B4205E6D0ED307AB8
:10100800F1EE677A90ED177A77EEC77AC0ED317A0C
:101018001EE700BF90ED027AF7EE006AC6EE877A07
:10102800D0ED006A66EEA76A90ED017A27EE277A7E
:10103800F6EE007A66EEE77A9FED1B6A27EE067AEF
:1010480037EE876A77EEC77AF4EEC66AF1EE10FAE1
:1010580010DDF0EE465AB0EE667AB4EEE77AF1EEBD
:1010680010FA0CD4F4EEE75AF1EE10FA09DDF0EEBE
:10107800675A06E0F0EE665AB0EE467AEDE7B0EE53
:10108800677A37EE257AF6EE005A27EE257A76EE5D
:10109800C76AC0ED036A36EE476A80ED046A77EEE8
:1010A800C77AC0ED057A7047D7B35D3FD0ED007AB7
:1010B80090ED017A77EEC77AC0ED037AD0ED047A25
:1010C80090ED037A67EE877AC0ED057A90ED067A9F
:1010D800D0ED067AB4EE677AF1EE10FA01D18369A1
:1010E80000E000238361D0ED0D7A90ED037A27EEBE
:1010F800877AD0ED067A77EE877AC0ED067AD0ED5A
:101108000F7A90ED037AD0ED106A37EE667A67EEC3
:10111800877AC0ED077A90ED097AD0ED057AF0EE7E
:10112800E77AD0ED076AF0EEE66A77EEA67A77EE10
:10113800677AC0ED0C7A90ED067AD0ED0C7AB4EEB1
:10114800E77AF1EE10FA21DDD0ED0C7AC0ED067ADF
:10115800D0ED057A90ED067A77EE877A90ED077AEA
:1011680077EE877A90ED027A77EE877AC0ED087A83
:1011780090ED087AD0ED097AB4EEE77AF1EE10FA3C
:1011880017DD436AC362C3680364704790ED067A4B
:10119800D0ED0C7AF1EE677AB4EEE77AF1EE10FA58
:1011A80004D5D0ED0C7AF1EE677ACFE7D0ED067A68
:1011B800CCE790ED087AD0ED0A7AB4EEE77AF1EE52
:1011C80010FA01D5836ADDE7036ADBE7D0ED007A20
:1011D8009FED2E7A67EE877AC0ED117A90ED117A3D
:1011E800D0ED017A77EEA77AD0ED026A77EEE67A4B
:1011F800D0ED036A77EEE67A67EE277AC0ED057AD6
:1012080090ED117AD0ED027A77EEA77AD0ED016AE7
:1012180077EEE67AD0ED036A77EEE67A67EE277A1C
:10122800C0ED067A90ED117AD0ED037A77EEA77AC1
:10123800D0ED026A77EEE67AD0ED016A77EEE67ACB
:1012480067EE277AC0ED077A037C5BB1D0ED057AAB
:10125800F1EE677AC0ED057AD0ED067AF1EE677A9D
:10126800C0ED067A43690362D0ED057A9FED087AEE
:1012780067EE877A90ED067ADFED066A27EE267A22
:1012880077EE877AC0ED097A704700BFAAAAAA3E0E
:101298003ACD133F3ACD933F90F82630002B60D0DB
:1012A80090ED057AD0ED017AB4EEE77AF1EE10FA16
:1012B8000ADA90ED057AD0ED017AF1EE677AB4EEAC
:1012C800E77AF1EE10FA03D80123037080F824308E
:1012D80090ED067AD0ED017AB4EEE77AF1EE10FAE5
:1012E8000ADA90ED067AD0ED017AF1EE677AB4EE7B
:1012F800E77AF1EE10FA04D802230370012380F88C
:10130800243090ED077AD0ED027AB4EEE77AF1EE68
:1013180010FA04DB03230370012380F8243090EDD6
:10132800077AD0ED037AB4EEE77AF1EE10FA07D82F
:1013380090F8253023B105230370012380F8243069
:1013480090ED087AD0ED047AB4EEE77AF1EE10FA6F
:1013580007DB90F8253023B104230370012380F8BC
:101368002430704790ED047AD0ED047AB4EE677AB1
:10137800F1EE10FA01D1036900E000230361D0ED1A
:10138800007A90ED047A77EEC77AC0ED027A90ED94
:10139800027ADFED3B7AB4EEE77AF1EE10FA12D575
:1013A800D0ED027A9FED377A77EE877AC0ED027A30
:1013B80090ED037AD0ED037AB4EE677AF1EE10FA85
:1013C80013D1C36812E090ED027ADFED2F7AB4EE04
:1013D800E77AF1EE10FAEBDDD0ED027A9FED297A8B
:1013E80077EEC77AC0ED027AE2E70023C360D0ED5A
:1013F800037A90ED027AD0ED056A27EE267A77EE29
:10140800877A90ED017A67EE877A90ED047A77EE25
:10141800277AC0ED047A90ED047ADFED197AB4EEFC
:10142800E77AF1EE10FA18D5D0ED047A9FED157A27
:1014380077EE877AC0ED047AD0ED027A90ED067ADD
:1014480067EE877A90ED017A67EE877A90ED037AF6
:1014580077EE277AC0ED037A704790ED047ADFEDD6
:101468000A7AB4EEE77AF1EE10FAE5DDD0ED047A07
:101478009FED047A77EEC77AC0ED047ADCE700BF07
:10148800DB0F49C0DB0FC940DB0F494082B0D0ED0C
:10149800697A9FED157A77EE877A90ED6B7A67EE29
:1014A800877AFCEEE77ACDED017A9DF8043080F872
:1014B800913190F89031DBB2012B05D0DFED0B7A3A
:1014C800C0ED687A02B07047D0ED677A90F8913134
:1014D80000EB830393ED007A67EE877A90ED6A7AE2
:1014E80067EE877AECE700BFDB0F49400000000099
:1014F80000230370D0ED037A90ED047A77EE877AB3
:1015080090ED057A77EE877A9FEDCF7A67EE877A46
:10151800C0ED0B7AD0ED037A90ED0B7A77EEC77AAF
:10152800C0ED067AD0ED047A90ED0B7A77EEC77AA3
:10153800C0ED077AD0ED057A90ED0B7A77EEC77A91
:10154800C0ED087A90F82430DBB2012B12D090F865
:101558002430002B40F0288190F82530DBB2052B91
:1015680000F22281DFE813F01901450172019D01A3
:10157800CA01F70190F82530DBB2052BE7D8DFE880
:1015880003F0032E5985B2DFD0ED087AF5EEC07A64
:10159800F1EE10FADBDD90ED087AD0ED017A77EE06
:1015A800877AC0ED017AD0ED017AF5EEC07AF1EED6
:1015B80010FA0DD4D0ED017A90ED027AB4EEE77A04
:1015C800F1EE10FAC3D50023436001230370BEE790
:1015D800D0ED017AF1EE677AC0ED017AECE7D0ED53
:1015E800077AF5EEC07AF1EE10FAB0D590ED077AE9
:1015F800D0ED017A77EE877AC0ED017AD0ED017AE5
:10160800F5EEC07AF1EE10FA0DD4D0ED017A90ED36
:10161800027AB4EEE77AF1EE10FA98D50023436027
:101628000123037093E7D0ED017AF1EE677AC0EDFC
:10163800017AECE7D0ED067AF5EEC07AF1EE10FA11
:1016480085DD90ED067AD0ED017A77EE877AC0EDE8
:10165800017AD0ED017AF5EEC07AF1EE10FA0ED4E7
:10166800D0ED017A90ED027AB4EEE77AF1EE10FA55
:101678007FF56DAF002343600123037067E7D0ED6A
:10168800017AF1EE677AC0ED017AEBE7D0ED087ADE
:10169800F5EEC07AF1EE10FA7FF559AF90ED087AC1
:1016A800D0ED017A77EE877AC0ED017AD0ED017A34
:1016B800F5EEC07AF1EE10FA0ED4D0ED017A90ED85
:1016C800027AB4EEE77AF1EE10FA7FF540AF002324
:1016D8004360012303703AE7D0ED017AF1EE677AAF
:1016E800C0ED017AEBE7D0ED077AF5EEC07AF1EEBE
:1016F80010FA7FF72CAF90ED077AD0ED017A77EEEC
:10170800877AC0ED017AD0ED017AF5EEC07AF1EE74
:1017180010FA0ED4D0ED017A90ED027AB4EEE77AA1
:10172800F1EE10FA7FF513AF002343600123037035
:101738000DE7D0ED017AF1EE677AC0ED017AEBE7BB
:10174800D0ED067AF5EEC07AF1EE10FA7FF5FFAE2D
:1017580090ED067AD0ED017A77EE877AC0ED017ABE
:10176800D0ED017AF5EEC07AF1EE10FA0ED4D0ED94
:10177800017A90ED027AB4EEE77AF1EE10FA7FF58D
:10178800E6AE0023436001230370E0E6D0ED017A62
:10179800F1EE677AC0ED017AEBE7D0ED087AF5EE65
:1017A800C07AF1EE10FA00D4704790ED087AD0EDC7
:1017B800017A77EE877AC0ED017AD0ED017AF5EEFD
:1017C800C07AF1EE10FA0DD4D0ED017A90ED027ADC
:1017D800B4EEE77AF1EE10FAE6D500234360012370
:1017E80003707047D0ED017AF1EE677AC0ED017AA7
:1017F800ECE7D0ED077AF5EEC07AF1EE10FAD3DD1A
:1018080090ED077AD0ED017A77EE877AC0ED017A0C
:10181800D0ED017AF5EEC07AF1EE10FA0DD4D0EDE4
:10182800017A90ED027AB4EEE77AF1EE10FABBD5C0
:1018380000234360012303707047D0ED017AF1EE75
:10184800677AC0ED017AECE79FAAAA3ED0ED067A46
:10185800F5EEC07AF1EE10FAA6D590ED067AD0ED45
:10186800017A77EE877AC0ED017AD0ED017AF5EE4C
:10187800C07AF1EE10FA0DD4D0ED017A90ED027A2B
:10188800B4EEE77AF1EE10FA8ED500234360012317
:1018980003707047D0ED017AF1EE677AC0ED017AF6
:1018A800ECE7D0ED087AF5EEC07AF1EE10FA7FF7A2
:1018B8007BAF90ED087AD0ED017A77EE877AC0EDAC
:1018C800017AD0ED017AF5EEC07AF1EE10FA0ED475
:1018D800D0ED017A90ED027AB4EEE77AF1EE10FAE3
:1018E8007FF562AF00234360012303707047D0ED9A
:1018F800017AF1EE677AC0ED017AEBE7D0ED077A6D
:10190800F5EEC07AF1EE10FA7FF54EAF90ED077A5A
:10191800D0ED017A77EE877AC0ED017AD0ED017AC1
:10192800F5EEC07AF1EE10FA0ED4D0ED017A90ED12
:10193800027AB4EEE77AF1EE10FA7FF535AF0023BC
:101948004360012303707047D0ED017AF1EE677AA6
:10195800C0ED017AEBE7D0ED067AF5EEC07AF1EE4C
:1019680010FA7FF721AF90ED067AD0ED017A77EE85
:10197800877AC0ED017AD0ED017AF5EEC07AF1EE02
:1019880010FA0ED4D0ED017A90ED027AB4EEE77A2F
:10199800F1EE10FA7FF508AF0023436001230370CE
:1019A80002E7D0ED017AF1EE677AC0ED017AEBE754
:1019B80010B52DED028B044690ED098A90ED090AC9
:1019C800D0ED097A20EE270AD0ED087A90ED087A52
:1019D80067EE877AB2EE007A67EE877A90ED0A7A38
:1019E800D0ED0A6A27EE267A67EE877A30EE270A64
:1019F8000FF014FA38EE400AD4ED087AB1EE007A06
:101A080067EE877A80EE277A84ED0B7A94ED0B7A6D
:101A1800D4ED0B7AB4EE677AF1EE10FA01D1E36AED
:101A280000E00023E362D4ED0A7AF5EEC07AF1EE25
:101A380010FA4FD4B7EE008A94ED0A0AD4ED0A7A68
:101A480020EE270AD4ED0B7A94ED0B7A67EE877AAD
:101A580030EE670A0FF0E2F920EE080A84ED0C0A6E
:101A680094ED0C7AD4ED0C7AB4EE677AF1EE10FAB4
:101A780033D1236B236394ED038A94ED030AD4EDE9
:101A8800037A20EE270AD4ED0A7A94ED0A7A67EEF3
:101A9800877AB6EE007A67EE877A30EE270A0FF07B
:101AA800BDF938EE400A84ED0B0A94ED0A0AD4ED2C
:101AB8000A7A20EE270AD4ED0B7A94ED0B7A67EEBA
:101AC800877A30EE670A0FF0A9F984ED0C0ABDECAD
:101AD800028B10BDBFEE008AAEE70023CAE710B53F
:101AE8000446D0ED066AD0ED000A66EEA06A90EDD5
:101AF800067A90ED010A27EE007A90ED056A90EDDE
:101B0800004A26EE044AD0ED057AD0ED014A67EE88
:101B1800A44AD0ED047AD0ED045A67EEA55AD0ED68
:101B2800077A77EEE67A90ED076A36EE666A67EE30
:101B3800867A90ED095A35EE475A90ED096A36EEE5
:101B4800476A25EE065A77EE857A75EEE77AC0ED94
:101B58000B7A90ED026A36EE446AD0ED0E5AD0ED5B
:101B6800077A77EEE67A65EEA75AD0ED0B7A65EE3E
:101B7800A75A36EE256AD0ED037A77EEE47AD0EDEF
:101B88000E5A90ED095A35EE475A65EE855A90ED92
:101B98000B5A65EE855A77EEA57AD0ED0C5A65EEAC
:101BA800865A90ED076A36EE256A80ED076A90ED51
:101BB8000C6A26EE276AD0ED097A77EE867AC0EDB0
:101BC800097A90ED076AD0ED077AB4EE676AF1EE0C
:101BD80010FA01D1C36900E00023E36194ED096ABA
:101BE800D4ED097AB4EE676AF1EE10FA01D1636AAE
:101BF80000E00023636294ED090AD4ED070A70EE51
:101C0800E60A30EE470A0EF001FE84ED0D0A10BD1B
:101C180010B50446D0ED057A90ED047A67EE877A20
:101C2800D0ED036A90ED007A90ED016A37EE467ABE
:101C380090ED026A37EE467A26EE877A77EE877A53
:101C4800C0ED047AD0ED057A90ED097A67EE877ACF
:101C5800D0ED036A90ED067A90ED076A37EE467A82
:101C680090ED086A37EE467A26EE877A77EE877A1D
:101C7800C0ED097AD0ED047A90ED0A7A77EEC77A4A
:101C8800C0ED0B7AD0ED097A90ED0D7A77EEC77A30
:101C9800C0ED0E7A90ED0B7AD0ED117AB4EEE77ABA
:101CA800F1EE10FA40F3D48090ED117AD4ED0C7A6D
:101CB80077EEA77A67EE877AC4ED027A94ED0E7A0A
:101CC800D4ED117AB4EEE77AF1EE10FA40F3D3804E
:101CD80094ED117AD4ED0C7A77EEA77A67EE877ACD
:101CE800C4ED087A94ED127AF7EE006AC6EE877AA8
:101CF800C4ED137AA3682366D4ED176AD4ED137A7A
:101D080094ED177A77EE877A86EEA77A84ED1B7AB8
:101D1800D4ED1B7A94ED187AD4ED1A6A37EE667A08
:101D280067EE877A94ED1A7A77EE877AC4ED1A7A95
:101D3800D4ED136AD4ED137A94ED177A77EE877A97
:101D480086EEA77A84ED1F7A94ED1A7ADFED535A5E
:101D580037EE257A84ED1C7A94ED1F7AD4ED1E6A4D
:101D680094ED1C6AD4ED1D7A36EE676A76EE866AC3
:101D780027EE267A84ED1E7A236F6367D4ED1E7AE8
:101D880077EEA77AC4ED147A236AC4F88030E36E3C
:101D9800C4F88C30D4ED237A94ED207AD4ED226AFD
:101DA80037EE667A67EE877A94ED227A77EE877A4D
:101DB800C4ED227AE36FC4F89C30D4ED227A77EE32
:101DC800A57AC4ED247AD4ED277A94ED267AD4ED59
:101DD800246A94ED256A76EEC66A37EE267A67EEAF
:101DE800877AC4ED267AD4F89030C4F89430D4EDCC
:101DF800267A77EEA77AC4ED157AD4ED017A94EDB8
:101E08000F7AD4ED026A94ED016A76EEC66A27EE7F
:101E1800267A77EE877AC4ED017AD4ED077A94EDC5
:101E28000F7AD4ED086A94ED076A76EEC66A27EE53
:101E3800267A77EE877AC4ED077A94ED140AD4ED02
:101E4800150AB1EE400A0EF0E1FC84ED100A10BD4F
:101E580090ED0B7AD0ED117AF1EE677AB4EEE77A6D
:101E6800F1EE10FA04D5D0ED117AB1EE677A1DE7DC
:101E780090ED0B7A1AE794ED0E7AD4ED117AF1EE23
:101E8800677AB4EEE77AF1EE10FA04D5D4ED117A58
:101E9800B1EE677A1EE794ED0E7A1BE708E53C1E63
:101EA80010B5044683680133836090ED107AD0ED55
:101EB800087A77EE877AC0ED087A03781BB94378F9
:101EC800DBB2012B6ED023781BB96378DBB2012B10
:101ED8006DD023782BB963781BB9A378DBB2012BBB
:101EE8006BD02378DBB2012B6AD02378DBB2012BCD
:101EF80070D02378DBB2012B75D0E3781C3304EB68
:101F080083035B68E361E278D2B22379DBB29A4259
:101F180073D1237B002B40F0BD80E3780133DBB223
:101F28006371227B02F0FF031AB9E278D2B2052A64
:101F380001D06379DBB26371237BDBB2012B00F044
:101F4800AD806379DBB26371E3781C3304EB830300
:101F580093ED010A63791C3304EB8303D3ED010A83
:101F68000EF034FCB0EEC00A84ED0F0A94ED0D7A41
:101F7800D4ED027AF8EE677AD4ED106A67EEA67AA5
:101F880067EE277AF0EEE77AC4ED097A94ED097ADC
:101F9800D4ED097AB4EE677AF1EE10FA40F0848055
:101FA800636A82E08378002B8DD1C370A5E7A3789C
:101FB800DBB2012B8DD1E3709FE70223E3709CE72E
:101FC8006378002B91D1A378DBB2012B8DD1032349
:101FD800E37092E76378002B8BD1A378002B88D12C
:101FE8000423E37089E76378DBB2012B85D1A378FA
:101FF800002B82D10523E3707FE723791C3304EBA0
:10200800830393ED010AE3781C3304EB8303D3EDD8
:10201800010A0EF0DBFBB0EEC00A84ED0E0AD4ED27
:102028000E6A94ED087AC6EE877AC4ED0B7AD4ED81
:102038000D7A94ED0B7A77EEC77A9FED4B7A67EEBF
:10204800877A94ED0D7A77EE677AC4ED0D7A0023DE
:10205800A360002363622362E278D2B22379DBB201
:102068009A4205D9E378DBB2052B0ED000232373FF
:10207800E278D2B22379DBB29A42BFF44AAFE3786E
:1020880033B9237BDBB2237343E7237BDBB2EEE771
:102098000123F8E7E378013BDBB241E7E378002B63
:1020A8007FF44FAF05234EE70023636294ED097A6E
:1020B800D4ED0F7AB4EEE77AF1EE10FA2DDDE36B8A
:1020C8006362237BA3BBD4ED077A94ED097A77EE9C
:1020D800877AC4ED057AE378DBB2237194ED057A4B
:1020E800DFED227AB4EEE77AF1EE10FA27D5D4EDD7
:1020F800057A9FED1F7A77EE877AC4ED057AD4EDDD
:102108000C7AF0EEE77A9FED1B7AF4EEC77AF1EEDF
:1021180010FA26D8E369636110BDD4ED097AF5EEAB
:10212800C07AF1EE10FA01D4636AC9E70023C7E761
:10213800D4ED077A94ED097A77EEC77AC9E794ED7A
:10214800057ADFED0D7AB4EEE77AF1EE10FAD6DD16
:10215800D4ED057A9FED067A77EEC77AC4ED057A55
:10216800CDE76369D7E700BF0AD7233CDB0F49C037
:10217800DB0FC94000004842DB0F494030B583B04F
:10218800584B1A6E42F001021A661A6E02F00102EA
:102198000192019A9A6D42F080529A659A6D02F006
:1021A80080520092009A5048C16821F4E061090405
:1021B800090C4E4A0A43C2604D498A6822F480429B
:1021C8008A604C48026822F00F0242F0080202605E
:1021D800D1F8802022F48072C1F880201A6842F475
:1021E80080321A603F4B1B6813F4003FFAD03D4B16
:1021F800D968414A0A4042F4884242F01302DA6040
:10220800DA683E4911403E4A0A43DA60DA6842F029
:102218008072DA60DA6842F48032DA601A6842F072
:1022280080721A602F4B1B6813F0007FFAD02D4A7A
:10223800936843F003039360936823F0F00343F03B
:1022480080039360274B9B6803F00C030C2BF9D198
:102258002C4AD36843F08073D3602B4B1A6842F042
:1022680001021A6000225A60274B5B68632BFBD976
:102278001C4CA36823F0F003A360A36823F4E06375
:10228800A360A36823F46053A360204D28460DF093
:10229800BFFC1F4A136843F00403136028460DF07F
:1022A800DDFCD4F8883023F00C0343F00403C4F8B1
:1022B8008830D4F8883023F44023C4F88830D4F820
:1022C800883023F0405343F08053C4F88830D4F862
:1022D800883023F0404343F08043C4F8883003B08B
:1022E80030BD00BF0010024000ED00E00003FA0519
:1022F80000700040002002400C80FFF90C80FF07AE
:1023080013440018F0ED00E0001000E080FE210A00
:1023180010E000E008B52E4B93F85433DBB2012BE4
:1023280004D02B4B93F854335BB308BD08F096FEEA
:1023380009F026F809F04CF909F0DCFD0DF0BCF8BD
:102348000EF04AF90EF0A0F90EF08CF80DF0D4F961
:102358000DF054FA0DF09AFA0DF014FB0DF070FB25
:102368000DF0C0FB09F070FC0EF054F80EF066F8A2
:102378000EF070F80DF0DCF90DF0D4FA08F09CFFBF
:10238800CFE708F06BFE09F04DFA09F05DFB0BF0A2
:102398003DFA0DF091F80EF01FF90EF063F80DF00C
:1023A800ABF90DF02BFA0DF071FA0DF0EBFA0DF018
:1023B80047FB0DF097FB09F047FC0EF02BF80EF0E9
:1023C8003DF80DF0B5F90DF0ADFA08F0F5FEACE703
:1023D800000000200000000008B5FFF7CFFEDC4B2E
:1023E800DC4AC3F89C20D3ED277AF6EE008A67EE24
:1023F800A87AC3ED287AD84A9A64D84AC3F88020C4
:10240800D74A9A67D74ADA674FF081421A66D6499F
:102418009965D649C3F8A410D549D96593ED1E7AB4
:10242800B7EE008AC8EE077AC3ED2A7A93ED1F7AD1
:10243800C8EE077AC3ED2B7AD3F8A410C3F884103A
:102448000025C3F888505D669D66DD649D62DD6287
:10245800C84C012184F85413002384F8563384F8B7
:102468005513C549C4F86413C44EC4F87063C4490D
:10247800C4F87413C349C4F87813C349C4F87C1367
:10248800C4F89023C14AC4F88023C14AC4F88423FD
:10249800D4F88423C4F88823BE4AC4F88C230222C3
:1024A80084F8572384F8BE33C4F89C63BA4BC4F845
:1024B800A033BA4BC4F8A433B94BC4F8A833B94B0A
:1024C800B94A1A60B94A5A60B94A9A60B94ADA6090
:1024D800B94920460CF086FFD4EDD96A9FEDB77A4A
:1024E800C6EE877AFCEEE77AC4EDE57AD4EDD96AD0
:1024F800D4F89433013307EE903AF8EE677A86EE13
:10250800A77A84EDDA7A94EDDA7AC8EE077AC4ED20
:10251800DB7AD4EDDB7A9FEDAA7A67EE877AC4ED91
:10252800477AA84BC4F84433A74BC4F81831A661BE
:10253800A64B63624FF07853C4F87431A44BC4F8C7
:102548009831C4ED678AC4F8A05194F85433DBB2CB
:10255800012B00F05E82DFED9F7A864BC3ED637A34
:1025680093F85433DBB2012B00F058824FF07E52BF
:10257800804BC3F888214FF07852C3F8B821944AA9
:10258800C3F8DC214FF07C52C3F8E0210022C3F8E5
:10259800E42193F85433DBB2012B00F04382DFEDE2
:1025A8008D7A744BC3ED747A93F85433DBB2012BF4
:1025B80000F03E824FF07E526E4BC3F8CC2193ED73
:1025C800DB7AF7EE006AC6EE877A9FED837A67EECC
:1025D800877A9FED7B7A67EE877A93EDE17A27EE2B
:1025E800877A83ED6E7A83ED5D7A93EDE07A67EE14
:1025F800877A93EDDB7A67EE877AC3ED777AC3ED56
:10260800667A93ED5D7AC6EE877AC3ED677A93EDC5
:102618006E7AC6EE877AC3ED787A6D4AC3F8FC21E4
:102628004C4AC3F820224FF07C52C3F8282293F872
:102638005433DBB2012B00F0FF81DFED667A4D4B9E
:10264800C3ED857A93F85433DBB2012B00F0FC819B
:10265800DFED627A474CC4ED847AD4EDE07AF1EE8E
:10266800677A94EDE17A87EE870AD4EDDB7A20EE7B
:10267800270A0EF0CBFA84ED910AD4EDE06AF7EE62
:10268800007A87EEA67AD4ED916A77EEE67A67EE5D
:10269800277AC4ED8F7A524BC4F8603294EDE07A11
:1026A800F7EE086A27EE267A84EDB97AD4EDE17A56
:1026B80067EEA67AC4EDBA7AD4EDE37A9FED497A4B
:1026C80067EE877A94EDE47A67EE877ADFED466AFB
:1026D80086EEA77A84EDB87AD4F86C33C4F8003360
:1026E80094EDB87AD4EDB87A27EE277ADFED3F6A11
:1026F800C6EE877AB6EE007A67EE877AC4EDC27ABC
:10270800002384F83C34D4F8842304F254431A6038
:10271800D4F8882304F58B631A60D4EDE27A94ED3B
:10272800E17A77EEC77AF0EEE77A04F25C43C3ED1C
:10273800007AD4F8E01204F58C621160D4EDE77ADF
:102748009FED2B7A67EE877A04F5886152E000BF27
:10275800BC48002017B751380000C0419A99993DEC
:10276800DE214538931A5A389C534936E71DA73B52
:1027780083A8FB370000002000401C4700004842A7
:102788009A998A420000F0426C09F93A7B14AE3DEE
:1027980062BE3C3800008743000082420AD71F41CE
:1027A8000000B4429848002000401C4600E09245D2
:1027B8000000C84100E07645A407002000429C467E
:1027C800DB0FC9409A99793F0000A04100409C4521
:1027D800CDCCCC3C00000000CDCC4C3DA4707D3F5E
:1027E80014AE073FEF1F2E410000704200007A44EC
:1027F8006666663FC1ED007AD2ED006A93ED007A15
:10280800C6EE877AB5EE007A67EE877A04F58963B3
:10281800C3ED007AD4F86C2304F224431A6004F25E
:102828003443A74A1A6004F58763A64A1A6094EDF0
:10283800E77AD4EDDC7AB4EEE77AF1EE10FA40F3F9
:102848000B81D4F87023A04BC3F89C2393EDE87A4E
:10285800D3EDDD7AB4EEE77AF1EE10FA40F30081B9
:10286800D3F87423984BC3F8A02393F85633DBB2FC
:10287800012B00F0F980944B93F8BE33DBB2924CF5
:1028880084F8BE33D4F89C03FDF706FE8AA3D3E987
:102898000023FDF759FEFEF769F8A06594F8543354
:1028A800ABB9D4EDDB6AD4EDDB7A9FED887A77EEAD
:1028B800877A86EEA77A84EDFF7AD4F8FC1304F2BF
:1028C8000C421160D4F8FC2304F21C431A607E4BBE
:1028D80093F85433DBB2012B00F0C8807A4B7C4A62
:1028E800C3F8C8237B4AC3F82C219FED7B6A83ED8C
:1028F8004E6AD3EDDB5AD3EDDB6ADFED787A76EEFC
:10290800A76A85EEA67A03F23C6282ED007AD3EDDF
:10291800DB6A93EDDB7A37EE277AC6EE877A03F225
:102928004C62C2ED007AD3EDDB6AD3EDDB7A77EE49
:10293800867A86EEA77A03F25C6282ED007A93EDDE
:10294800DB6A93EDDB7ADFED667A37EE277AC6EE3F
:10295800076A03F28C62C2ED006A93EDDB6A93EDBD
:10296800DB7A37EE277AC6EE076A03F29C62C2ED7D
:10297800006A93EDDB6A93EDDB7A37EE277AC6EED1
:10298800076A03F2AC62C2ED006A93EDDB6A93ED6D
:10299800DB7A37EE277AC6EE076A03F2BC62C2ED2D
:1029A800006A93EDDB6A93EDDB7A37EE277AC6EEA1
:1029B800076A03F2CC62C2ED006AD3EDDB6A93EDDD
:1029C800DB7A77EE277A86EEA77A03F2DC6282ED6D
:1029D800007A03F22C61434A0A6003F26C610A60D0
:1029E80003F27C63404A1A60FFF794FC3F4B1B7864
:1029F800002B53D1344B9B78DBB2042BF6D1324BEE
:102A0800DB78DBB2082BF1D139492F480CF072FC86
:102A1800ECE7D4EDDD7AF1EE677A9EE52A4BD3F840
:102A28007423A5E5284BD3EDDD7AF1EE677AB8E596
:102A3800254BD3F87423BFE5234BD3EDE77A9FEDFD
:102A48002D7A67EEC77AFAE51F4BD3EDE77A9FED4B
:102A5800297A67EE877AFDE51B4BD3F89C23F2E6CB
:102A6800194BD3F8A023FDE6002308E7164BD3ED56
:102A7800DB6AD3EDDB7A9FED207A77EE877A86EEF4
:102A8800A77A83EDFF7AD3F8FC1303F20C421160A6
:102A9800D3F8FC2303F21C431A601FE7BFF34F8FE0
:102AA8001649CA6802F4E062154B1343CB60BFF3C2
:102AB8004F8F00BFFDE700BF666666666666EE3F3D
:102AC8000000FA440060EA4600000020899BD03AE2
:102AD80017B7D1380000AF43CDCCCC3D0AD7A33BC4
:102AE800CDCC4C3E320C433D8C2EBA3D40080020E4
:102AF800A40700206666663FD4E2A63900ED00E030
:102B08000400FA0500000000F0B52DED028B83B03B
:102B1800C14B5A68C14B1A6040234FF0A042136062
:102B280002F580721360BE4BD3F8E8200132C3F877
:102B3800E820D3F8EC200132C3F8EC20D3F8F020D9
:102B48000132C3F8F020D3F8E820D3EDDA7AB54B98
:102B580093ED007A67EE877AFCEEE77A17EE903A03
:102B68009A4208D3B04A536983F480435361AC4B0B
:102B78000022C3F8E820AA4B93F85433002B42F004
:102B880064814FF0A042D2F88810A84B1960D2F89F
:102B980080105960D2F884109960D2F88C209A611C
:102BA800A34AD2F88810D960D2F880101961D2F8F7
:102BB80084105961D2F88C20DA61994B5B78DBB2CA
:102BC800052B02F24881DFE813F0060041020706F0
:102BD80089092B0D3511934B964A1A60934AD3688D
:102BE800A3F2FF7307EE903AF8EEE77A9FED927A38
:102BF80067EE877A8A4CD4EDDD6A67EEA67AC4ED73
:102C0800FC7A1369A3F2FF7307EE903AF8EEE77ABD
:102C180067EE877AD4EDDD6A67EEA67A04F5806000
:102C2800C0ED007A5369A3F2FF7307EE903AF8EE0D
:102C3800E77A67EE877AD4EDDD6A67EEA67A04F55F
:102C48008261C1ED007AD2ED067AF8EEE77A67EE96
:102C5800877AD4EDDD6A67EEA67AC4EDC37AD2ED41
:102C6800007AF8EEE77A67EE877AD4EDDC6A67EEE9
:102C7800A67AC4ED3E7AD2ED017AF8EEE77A67EEED
:102C8800877AD4EDDC6A67EEA67AC4ED3F7AD2ED96
:102C9800027AF8EEE77A67EE877A94EDDC7A67EEE7
:102CA800877AC4ED407AD4EDFF7A94EDFC7AD4EDBE
:102CB800FE6A37EE667A67EE877A94EDFE7A77EEEB
:102CC800877AC4EDFE7A04F20C43D3ED007A90EDD6
:102CD800007A04F58163D3ED006A37EE667A67EE11
:102CE800877A93ED007A77EE877AC3ED007A04F25B
:102CF8001C43D3ED007A91ED007A04F58363D3ED9C
:102D0800006A37EE667A67EE877A93ED007A77EE97
:102D1800877AC3ED007A0023C4F828310122227192
:102D2800C4F8EC31C4F80432C4F80C32C4F83031B9
:102D380094F8E533DBB207EE903AF8EE677A9FED48
:102D48003F7A67EE877A77EE877A9FED3D7A77EE5E
:102D5800677AC4ED487AD4F8203104F584600360BA
:102D6800D4F8FC36984704F22C43D3ED007A9FED53
:102D7800357A67EE877AD4EDE46A87EEA67A84ED31
:102D88000A7AD4ED497AFCEEE77A17EE903AD4ED58
:102D9800497AFCEEE77A17EE901A94F8E523D2B256
:102DA800052A02F25880DFE812F006005500860076
:102DB800B700E8001901244AD2F8980340F0C0008F
:102DC800C2F89803D2F8940340F03300C2F8940391
:102DD8005D184FF4003292FAA2F2B2FA82F2103A77
:102DE800D2B21A481A4C34F812608259120C1204E2
:102DF8002A4382515B1A4FF4002292FAA2F2B2FAE5
:102E080082F2103AD2B234F812104258120C12045C
:102E18001343435002F01FB8001000E0B8480020E8
:102E28000000002038080020000800488C490020D5
:102E3800000100500AD7233CF8078039920A863FE0
:102E4800DB0F4940EBC91841006801401C6801408C
:102E5800101301087A4AD2F8980340F03000C2F8FB
:102E68009803D2F8940340F0C300C2F894035D18A5
:102E78004FF4003292FAA2F2B2FA82F2103AD2B2C7
:102E88007048714C34F812608259120C12042A43AB
:102E980082515B1A4FF4801292FAA2F2B2FA82F2CD
:102EA800103AD2B234F812104258120C12041343DA
:102EB800435001F0D0BF624AD2F8980340F00300B3
:102EC800C2F89803D2F8940340F0F000C2F89403D3
:102ED8005D184FF4002292FAA2F2B2FA82F2103A86
:102EE800D2B25848584C34F812608259120C120465
:102EF8002A4382515B1A4FF4801292FAA2F2B2FA74
:102F080082F2103AD2B234F812104258120C12045B
:102F18001343435001F09FBF494AD2F8980340F049
:102F2800C000C2F89803D2F8940340F03300C2F806
:102F380094035D1A4FF4003292FAA2F2B2FA82F2C6
:102F4800103AD2B23F48404C34F812608259120C01
:102F580012042A4382510B444FF4002292FAA2F23F
:102F6800B2FA82F2103AD2B234F812104258120C65
:102F780012041343435001F06EBF314AD2F898034C
:102F880040F03000C2F89803D2F8940340F0C30030
:102F9800C2F894035D1A4FF4003292FAA2F2B2FA20
:102FA80082F2103AD2B22748274C34F8126082597C
:102FB800120C12042A4382510B444FF4801292FAE5
:102FC800A2F2B2FA82F2103AD2B234F8121042588F
:102FD800120C12041343435001F03DBF184AD2F8B3
:102FE800980340F00300C2F89803D2F8940340F025
:102FF800F000C2F894035D1A4FF4002292FAA2F28C
:10300800B2FA82F2103AD2B20E480F4C34F812607B
:103018008259120C12042A4382510B444FF4801235
:1030280092FAA2F2B2FA82F2103AD2B234F812103C
:103038004258120C12041343435001F00CBF00BF56
:10304800006801401C68014010130108D54C00239A
:10305800C4F8EC306371D44AD368A3F2FF7307EE67
:10306800103AB8EEC77ADFEDD16A27EE267AD4EDAA
:10307800DD7A27EE277A84EDFC7A1369A3F2FF73D1
:1030880007EE103AB8EEC77A27EE267AD4EDDD7A45
:1030980027EE277A04F5806585ED007A5369A3F257
:1030A800FF7307EE103AB8EEC77A27EE267AD4ED0A
:1030B800DD7A27EE277A04F5826686ED007AD2ED6E
:1030C800067AF8EEE77A67EEA67A94EDDD7A67EE8F
:1030D800877AC4EDC37A92ED007AB8EEC77A27EE04
:1030E800267AD4EDDC7A27EE277AD4ED3E7A37EECD
:1030F800677A84ED0B7A92ED017AB8EEC77A27EEFB
:10310800267AD4EDDC7A27EE277AD4ED3F7A37EEAB
:10311800677A84ED0C7AD2ED027AF8EEE77A67EEF8
:10312800A67A94EDDC7A67EE877A94ED407A77EEAA
:10313800C77AC4ED0D7AD4ED0B7A94ED0B0A67EEDD
:10314800807A94ED0C0A94ED0C7A20EE070A77EE5B
:10315800807A94ED0D0A94ED0D7A20EE070A37EE89
:10316800800A0DF05BFEDFED927A20EE270A84EDEF
:10317800130AE26C04F5C4631A6004F22C62D2EDFF
:10318800007A93ED007A04F5C563D3ED006A37EE53
:10319800667A67EE877A93ED007A77EE877AC3EDE1
:1031A800007A1B682365D4EDFF7A94EDFC7AD4EDA0
:1031B800FE6A37EE667A67EE877A94EDFE7A77EEE6
:1031C800877AC4EDFE7A04F20C43D3ED007A95EDCC
:1031D800007A04F58162D2ED006A37EE667A67EE0E
:1031E800877A92ED007A77EE877AC2ED007A04F258
:1031F8001C43D3ED007A96ED007A04F58363D3ED92
:10320800006A37EE667A67EE877A93ED007A77EE92
:10321800877AC3ED007AD4F8F813C4F8CC1312688F
:10322800C4F8D0231B68C4F8D433D4F8F43604F5B2
:103238007070984794F8E533DBB207EE903AF8EEF1
:10324800677A9FED5C7A67EE877A77EE877A9FEDEB
:103258005A7A77EE677AC4ED487AD4F8203104F5C3
:1032680084600360D4F8FC36984794ED147ADFED57
:10327800537AB4EEE77AF1EE10FA0ADC04F22C4342
:1032880093ED007AF2EE047AB4EEE77AF1EE10FAF2
:1032980003D54B4B4FF07C521A604A4B93ED007AA2
:1032A800F2EE047AB4EEE77AF1EE10FA71DD444BEF
:1032B800454A1A603B4B1B79DBB2012B6ED0394B68
:1032C800D3F83021374BC3F8302193ED4C7AD3ED46
:1032D8004D7AD3EDDB6A77EEE67AB4EEE77AF1EE73
:1032E80010FA0BD5D3EDDB7AB5EE007A27EE877AA4
:1032F800D3ED4C7A77EE877AC3ED4C7A294B93ED70
:103308004C7AD3ED4D7AD3EDDB6A77EEA67AB4EE3C
:10331800E77AF1EE10FA0BDDD3EDDB7AB5EE007A41
:1033280027EE877AD3ED4C7A77EEC77AC3ED4C7ADD
:103338001C4BD3F8EC20D3EDD97A9FED247A67EEB5
:10334800877AFCEEE77A17EE903A9A4205D9154B40
:103358000022C3F8EC2004225A70124B93F8C033B1
:1033680023B9104B1B79DBB2012B46D10D4B002240
:103378001A7193F8E433DBB2012B29D0094B93F887
:10338800E533002B35D0074B93F8E533013BDBB22F
:1033980030E00B4B4FF07E521A608BE7014BD3F8AD
:1033A80038218FE7000000208C490020F807803979
:1033B8009FAA2A3F920A863FDB0F4940CDCC4C3E5C
:1033C800380800202C040020CDCC4C3ECDCCCC3D80
:1033D800B14B93F8E533DBB2042B08D8AE4B93F826
:1033E800E5330133DBB2AC4A82F8E53305E000236C
:1033F800F9E70523A84A82F8E533A749D1ED497AC8
:10340800FCEEE77A17EE903AD1ED497A91ED4C7AD5
:1034180067EE877AFCEEE77A17EE902A91F8E513C3
:10342800C9B2052936D8DFE811F00600D600060132
:1034380041017101A1019949D1F8980340F0C000F8
:10344800C1F89803D1F8940340F03300C1F894030D
:103458009D184FF4003191FAA1F1B1FA81F11039B8
:10346800C9B28F488F4C34F811608159090C09048E
:10347800294381519B1A4FF4002292FAA2F2B2FA20
:1034880082F2103AD2B234F812104258120C1204D6
:10349800134343508049D1F8CC03834B03F5804252
:1034A800906391F8C023D2B207EE902AF8EE677ABB
:1034B80003F58042C2ED0F7AD1F8EC0303F58042A0
:1034C8001064D1F8C41303F5804251641B78002BB3
:1034D80035D0754B9A6803F58041383109680A324E
:1034E80003EB820211609A6803F580413C31096858
:1034F80002F20A4203EB820211609A6803F58041E6
:103508004031096802F60A0203EB820211609A68E8
:1035180003F580414431096802F60A4203EB82024E
:1035280011609A6801329A609A6840F2FE339A42B2
:1035380005D95D4B01225A7000221A709A605A4BC5
:103548005B78002B01F08784574BDA689B889BB225
:103558009A4228D3544B9A680A3203EB82021168C4
:1035680003F5804291629A6802F20A4203EB8202F2
:10357800116803F58042D1629A6802F60A0203EBE9
:103588008202116803F5804211639A6802F60A42C2
:1035980003EB8202116803F5804251630022DA606E
:1035A8009A6801329A60404BDA680132DA609A68A8
:1035B80040F2FE339A4241F24E843B4B00225A704D
:1035C8009A60DA609B78002B01F04584364B012223
:1035D8001A7001F040BC3149D1F8980340F030002E
:1035E800C1F89803D1F8940340F0C300C1F89403DC
:1035F8009D184FF4003191FAA1F1B1FA81F1103917
:10360800C9B22748274C34F811608159090C0904BC
:10361800294381519B1A4FF4801292FAA2F2B2FA0E
:1036280082F2103AD2B234F812104258120C120434
:10363800134343502EE71949D1F8980340F003008B
:10364800C1F89803D1F8940340F0F000C1F894034E
:103658009D184FF4002191FAA1F1B1FA81F11039C6
:10366800C9B20F480F4C34F811608159090C09048C
:10367800294381519B1A4FF4801292FAA2F2B2FAAE
:1036880082F2103AD2B234F812104258120C1204D4
:1036980013434350FEE600BF0000002000680140CD
:1036A8001C68014010130108500800204749D1F850
:1036B800980340F0C000C1F89803D1F8940340F093
:1036C8003300C1F894039D1A4FF4003191FAA1F127
:1036D800B1FA81F11039C9B23D483E4C34F8116055
:1036E8008159090C09042943815113444FF40022DC
:1036F80092FAA2F2B2FA82F2103AD2B234F8121066
:103708004258120C120413434350C3E62F49D1F810
:10371800980340F03000C1F89803D1F8940340F0C2
:10372800C300C1F894039D1A4FF4003191FAA1F136
:10373800B1FA81F11039C9B22548264C34F8116024
:103748008159090C09042943815113444FF480120B
:1037580092FAA2F2B2FA82F2103AD2B234F8121005
:103768004258120C12041343435093E61749D1F8F8
:10377800980340F00300C1F89803D1F8940340F08F
:10378800F000C1F894039D1A4FF4002191FAA1F1B9
:10379800B1FA81F11039C9B20D480E4C34F81160F4
:1037A8008159090C09042943815113444FF48012AB
:1037B80092FAA2F2B2FA82F2103AD2B234F81210A5
:1037C8004258120C12041343435063E60068014048
:1037D8001C68014010130108CD4AD368A3F2FF7397
:1037E80007EE103AB8EEC77ADFEDCA6A27EE267AF6
:1037F800C94CD4EDDD7A27EE277A84EDFC7A13697B
:10380800A3F2FF7307EE103AB8EEC77A27EE267ACE
:10381800D4EDDD7A27EE277A04F5806585ED007A08
:103828005369A3F2FF7307EE103AB8EEC77A27EE92
:10383800267AD4EDDD7A27EE277A04F5826686EDBE
:10384800007AD2ED067AF8EEE77A67EEA67A94ED7A
:10385800DD7A67EE877AC4EDC37A92ED007AB8EE26
:10386800C77A27EE267AD4EDDC7A27EE277AD4EDCC
:103878003E7A37EE677A84ED0B7A92ED017AB8EEEC
:10388800C77A27EE267AD4EDDC7A27EE277AD4EDAC
:103898003F7A37EE677A84ED0C7AD2ED027AF8EE49
:1038A800E77A67EEA67A94EDDC7A67EE877A94ED8C
:1038B800407A77EEC77AC4ED0D7AD4ED0B7A94EDA1
:1038C8000B0A67EE807A94ED0C0A94ED0C7A20EEE0
:1038D800070A77EE807A94ED0D0A94ED0D7A20EEC2
:1038E800070A37EE800A0DF099FADFED8C7A20EEA0
:1038F800270A84ED130AE26C04F5C4631A6004F223
:103908002C62D2ED007A93ED007A04F5C563D3ED0D
:10391800006A37EE667A67EE877A93ED007A77EE7B
:10392800877AC3ED007A1B682365D4EDFF7A94ED9E
:10393800FC7AD4EDFE6A37EE667A67EE877A94ED04
:10394800FE7A77EE877AC4EDFE7A04F20C43D3ED63
:10395800007A95ED007A04F58162D2ED006A37EEBF
:10396800667A67EE877A92ED007A77EE877AC2ED0B
:10397800007A04F21C43D3ED007A96ED007A04F540
:103988008363D3ED006A37EE667A67EE877A93ED44
:10399800007A77EE877AC3ED007AD4F8F813C4F882
:1039A800CC131268C4F8D0231B68C4F8D433D4F8F5
:1039B800F43604F57070984794F8E533DBB207EEF7
:1039C800903AF8EE677A9FED567A67EE877A77EE47
:1039D800877A9FED547A77EE677AC4ED487AD4F8FF
:1039E800203104F584600360D4F8FC36984794EDE0
:1039F800147ADFED4D7AB4EEE77AF1EE10FA0ADCCC
:103A080004F22C4393ED007AF2EE047AB4EEE77AEE
:103A1800F1EE10FA03D5454B4FF07C521A60444B37
:103A280093ED007AF2EE047AB4EEE77AF1EE10FA4A
:103A380036DD3E4B3F4A1A60374B93ED4A7AD3ED59
:103A48004B7AB4EEE77AF1EE10FA0BDBD3EDDB7AC2
:103A58009FED397A27EE877AD3ED4A7A77EEC77ADF
:103A6800C3ED4A7A2C4BD3F8EC20D3ED4A7AFCEE1E
:103A7800E77A17EE903A9A422CD3274B0022C3F8E4
:103A8800EC2093F8E433DBB2012B0ED0224B93F8F1
:103A9800E533DBB1204B93F8E533013BDBB216E0AD
:103AA800224B4FF07E521A60C6E71B4B93F8E53362
:103AB800DBB2042B08D8184B93F8E5330133DBB29B
:103AC800154A82F8E53305E00023F9E70523124A91
:103AD80082F8E5331049D1ED497AFCEEE77A17EE22
:103AE800903AD1ED497A91ED4C7A67EE877AFCEEFF
:103AF800E77A17EE902A91F8E513C9B205294CD850
:103B0800DFE811F01C00EC001C014C018601B60135
:103B18008C490020F8078039000000209FAA2A3F1E
:103B2800920A863FDB0F4940CDCC4C3E3808002036
:103B38002C040020CDCC4C3E0000FA43AF49D1F80C
:103B4800980340F0C000C1F89803D1F8940340F0FE
:103B58003300C1F894039D184FF4003191FAA1F194
:103B6800B1FA81F11039C9B2A548A64C34F81160F0
:103B78008159090C0904294381519B1A4FF40022E9
:103B880092FAA2F2B2FA82F2103AD2B234F81210D1
:103B98004258120C1204134343509B49D1F8CC03EA
:103BA8009A4B03F58042906391F8C023D2B207EE96
:103BB800902AF8EE677A03F58042C2ED0F7AD1F8C1
:103BC800EC0303F580421064D1F8C41303F5804276
:103BD80051641B78002B35D08C4B9A6803F58041D3
:103BE800383109680A3203EB820211609A6803F5DA
:103BF80080413C31096802F20A4203EB82021160FB
:103C08009A6803F580414031096802F60A0203EB1D
:103C1800820211609A6803F580414431096802F60E
:103C28000A4203EB820211609A6801329A609A682C
:103C380040F2FE339A4205D9744B01225A70002291
:103C48001A709A60714B5B78002B01F004816F4BFE
:103C5800DA689B889BB29A4228D36C4B9A680A32DE
:103C680003EB8202116803F5804291629A6802F2BE
:103C78000A4203EB8202116803F58042D1629A6816
:103C880002F60A0203EB8202116803F5804211630F
:103C98009A6802F60A4203EB8202116803F5804231
:103CA80051630022DA609A6801329A60574BDA68E9
:103CB8000132DA609A6840F2FE339A4241F2CB80D0
:103CC800524B00225A709A60DA609B78002B01F000
:103CD800C2804E4B01221A7001F0BDB84749D1F895
:103CE800980340F03000C1F89803D1F8940340F0ED
:103CF800C300C1F894039D184FF4003191FAA1F163
:103D0800B1FA81F11039C9B23D483E4C34F811601E
:103D18008159090C0904294381519B1A4FF48012D7
:103D280092FAA2F2B2FA82F2103AD2B234F812102F
:103D38004258120C1204134343502EE72F49D1F86E
:103D4800980340F00300C1F89803D1F8940340F0B9
:103D5800F000C1F894039D184FF4002191FAA1F1E5
:103D6800B1FA81F11039C9B22548264C34F81160EE
:103D78008159090C0904294381519B1A4FF4801277
:103D880092FAA2F2B2FA82F2103AD2B234F81210CF
:103D98004258120C120413434350FEE61749D1F857
:103DA800980340F0C000C1F89803D1F8940340F09C
:103DB8003300C1F894039D1A4FF4003191FAA1F130
:103DC800B1FA81F11039C9B20D480E4C34F81160BE
:103DD8008159090C09042943815113444FF40022E5
:103DE80092FAA2F2B2FA82F2103AD2B234F812106F
:103DF8004258120C120413434350CEE600680140A7
:103E08001C68014010130108000000205008002021
:103E18002F49D1F8980340F03000C1F89803D1F841
:103E2800940340F0C300C1F894039D1A4FF4003185
:103E380091FAA1F1B1FA81F11039C9B22548264C9D
:103E480034F811608159090C09042943815113443C
:103E58004FF4801292FAA2F2B2FA82F2103AD2B277
:103E680034F812104258120C12041343435094E6CB
:103E78001749D1F8980340F00300C1F89803D1F826
:103E8800940340F0F000C1F894039D1A4FF4002108
:103E980091FAA1F1B1FA81F11039C9B20D480E4C6D
:103EA80034F811608159090C0904294381511344DC
:103EB8004FF4801292FAA2F2B2FA82F2103AD2B217
:103EC80034F812104258120C12041343435064E69B
:103ED800006801401C68014010130108CF4AD368EC
:103EE800A3F2FF7307EE103AB8EEC77ADFEDCC6A9B
:103EF80027EE267ACB4CD4EDDD7A27EE277A84EDAF
:103F0800FC7A1369A3F2FF7307EE103AB8EEC77A8A
:103F180027EE267AD4EDDD7A27EE277A04F5806538
:103F280085ED007A5369A3F2FF7307EE103AB8EEF5
:103F3800C77A27EE267AD4EDDD7A27EE277A04F5BC
:103F4800826686ED007AD2ED067AF8EEE77A67EEB9
:103F5800A67A94EDDD7A67EE877AC4EDC37A92ED9E
:103F6800007AB8EEC77A27EE267AD4EDDC7A27EE07
:103F7800277AD4ED3E7A37EE677A84ED0B7A92EDA4
:103F8800017AB8EEC77A27EE267AD4EDDC7A27EEE6
:103F9800277AD4ED3F7A37EE677A84ED0C7AD2ED42
:103FA800027AF8EEE77A67EEA67A94EDDC7A67EEA5
:103FB800877A94ED407A77EEC77AC4ED0D7AD4ED1E
:103FC8000B7A94ED0B0A67EE807A94ED0C0A94ED67
:103FD8000C7A20EE070A77EE807A94ED0D0A94EDBC
:103FE8000D7A20EE070A37EE800A0CF017FFDFED96
:103FF8008E7A20EE270A84ED130AE26C04F5C46376
:104008001A6004F22C62D2ED007A93ED007A04F57E
:10401800C563D3ED006A37EE667A67EE877A93ED6B
:10402800007A77EE877AC3ED007A1B682365D4EDB2
:10403800FF7A94EDFC7AD4EDFE6A37EE667A67EE85
:10404800877A94EDFE7A77EE877AC4EDFE7A04F2E9
:104058000C43D3ED007A95ED007A04F58162D2ED38
:10406800006A37EE667A67EE877A92ED007A77EE25
:10407800877AC2ED007A04F21C43D3ED007A96EDFC
:10408800007A04F58363D3ED006A37EE667A67EE4B
:10409800877A93ED007A77EE877AC3ED007AD4F8C1
:1040A800F813C4F8CC131268C4F8D0231B68C4F8FA
:1040B800D433D4F8F43604F57070984794F8E5339F
:1040C800DBB207EE903AF8EE677A9FED587A67EE22
:1040D800877A77EE877A9FED567A77EE677AC4ED1E
:1040E800487AD4F8203104F584600360D4F8FC36AB
:1040F800984704F22C43D3ED007A9FED4E7A67EE91
:10410800877AD4EDE46A87EEA67A84ED0A7A94ED8C
:10411800147ADFED497AB4EEE77AF1EE10FA08DCAA
:1041280093ED007AF2EE047AB4EEE77AF1EE10FA43
:1041380003D5424B4FF07C521A60414B93ED007A05
:10414800F2EE047AB4EEE77AF1EE10FA4CDD3B4B6E
:104158003C4A1A60334B93ED4D7AD3EDDB7AF6EE99
:10416800006A67EEA67AD3ED4C6AB4EEE67AF1EE11
:1041780010FA05DDD3ED4C6A77EEA66AC3ED4C6AFA
:10418800284BD3ED4C6AB4EEE67AF1EE10FA05D579
:1041980093ED4C7A77EE677AC3ED4C7A214B1B7915
:1041A800DBB2012B25D01F4BD3F830211D4BC3F8B0
:1041B800302193F8C03323B91A4B1B79DBB2012B9A
:1041C80046D1184B00221A7193F8E433DBB2012B65
:1041D80013D0144B93F8E533002B35D0114B93F8DB
:1041E800E533013BDBB230E0144B4FF07E521A60EE
:1041F800B0E70C4BD3F83821D8E70A4B93F8E533EE
:10420800DBB2042B08D8074B93F8E5330133DBB254
:10421800044A82F8E5331BE00023F9E78C490020C3
:10422800F8078039000000209FAA2A3F920A863F9B
:10423800DB0F4940EBC91841CDCC4C3E3808002073
:104248002C040020CDCC4C3E0523BD4A82F8E53332
:10425800BB49D1ED497AFCEEE77A17EE903AD1EDF9
:10426800497A91ED4C7A67EE877AFCEEE77A17EE99
:10427800902A91F8E513C9B2052936D8DFE811F07C
:104288000600D000000130016A019A01AD49D1F859
:10429800980340F0C000C1F89803D1F8940340F0A7
:1042A8003300C1F894039D184FF4003191FAA1F13D
:1042B800B1FA81F11039C9B2A348A44C34F811609D
:1042C8008159090C0904294381519B1A4FF4002292
:1042D80092FAA2F2B2FA82F2103AD2B234F812107A
:1042E8004258120C120413434350954AD2F8CC0397
:1042F800974B03F580418863D2F8D00303F58041DA
:10430800C863D2F8EC0303F580410864D2F8C413FB
:1043180003F5804251641B78002B35D08C4B9A688A
:1043280003F58041383109680A3203EB82021160D3
:104338009A6803F580413C31096802F20A4203EBAE
:10434800820211609A6803F580414031096802F6DB
:104358000A0203EB820211609A6803F58041443136
:10436800096802F60A4203EB820211609A68013278
:104378009A609A6840F2FE339A4205D9744B01223A
:104388005A7000221A709A60714B5B78002B00F00B
:1043980062856F4BDA689B889BB29A4228D36C4B34
:1043A8009A680A3203EB8202116803F5804291622F
:1043B8009A6802F20A4203EB8202116803F580420E
:1043C800D1629A6802F60A0203EB8202116803F5C9
:1043D800804211639A6802F60A4203EB820211686E
:1043E80003F5804251630022DA609A6801329A60CC
:1043F800574BDA680132DA609A6840F2FE339A4223
:1044080040F22985524B00225A709A60DA609B78F4
:10441800002B00F020854E4B01221A7000F01BBDC6
:104428004849D1F8980340F03000C1F89803D1F812
:10443800940340F0C300C1F894039D184FF4003171
:1044480091FAA1F1B1FA81F11039C9B23E483F4C55
:1044580034F811608159090C0904294381519B1AC8
:104468004FF4801292FAA2F2B2FA82F2103AD2B261
:1044780034F812104258120C12041343435034E714
:104488003049D1F8980340F00300C1F89803D1F8F7
:10449800940340F0F000C1F894039D184FF40021F4
:1044A80091FAA1F1B1FA81F11039C9B22648274C25
:1044B80034F811608159090C0904294381519B1A68
:1044C8004FF4801292FAA2F2B2FA82F2103AD2B201
:1044D80034F812104258120C12041343435004E7E4
:1044E8001849D1F8980340F0C000C1F89803D1F8F2
:1044F800940340F03300C1F894039D1A4FF400313F
:1045080091FAA1F1B1FA81F11039C9B20E480F4CF4
:1045180034F811608159090C090429438151134465
:104528004FF4002292FAA2F2B2FA82F2103AD2B210
:1045380034F812104258120C120413434350D4E6B4
:1045480000000020006801401C68014010130108A9
:10455800500800202F49D1F8980340F03000C1F8E6
:104568009803D1F8940340F0C300C1F894039D1A4E
:104578004FF4003191FAA1F1B1FA81F11039C9B2C1
:104588002548264C34F811608159090C090429433F
:10459800815113444FF4801292FAA2F2B2FA82F2D5
:1045A800103AD2B234F812104258120C12041343C3
:1045B80043509AE61749D1F8980340F00300C1F830
:1045C8009803D1F8940340F0F000C1F894039D1AC1
:1045D8004FF4002191FAA1F1B1FA81F11039C9B271
:1045E8000D480E4C34F811608159090C090429430F
:1045F800815113444FF4801292FAA2F2B2FA82F275
:10460800103AD2B234F812104258120C1204134362
:1046180043506AE6006801401C6801401013010815
:10462800D64AD368A3F2FF7307EE103AB8EEC77AFA
:10463800DFEDD36A27EE267AD24CD4EDDD7A27EE69
:10464800277A84EDFC7A1369A3F2FF7307EE103A18
:10465800B8EEC77A27EE267AD4EDDD7A27EE277AE8
:1046680004F5806585ED007A5369A3F2FF7307EEC0
:10467800103AB8EEC77A27EE267AD4EDDD7A27EE1F
:10468800277A04F5826686ED007AD2ED067AF8EE8E
:10469800E77A67EEA67A94EDDD7A67EE877AC4ED5D
:1046A800C37A92ED007AB8EEC77A27EE267AD4ED6F
:1046B800DC7A27EE277AD4ED3E7A37EE677A84EDF6
:1046C8000B7A92ED017AB8EEC77A27EE267AD4ED06
:1046D800DC7A27EE277AD4ED3F7A37EE677A84EDD5
:1046E8000C7AD2ED027AF8EEE77A67EEA67A94EDC4
:1046F800DC7A67EE877A94ED407A77EEC77AC4ED74
:104708000D7AD4ED0B7A94ED0B0A67EE807A94ED6E
:104718000C0A94ED0C7A20EE070A77EE807A94ED75
:104728000D0A94ED0D7A20EE070A37EE800A0CF098
:1047380075FBDFED957A20EE270A84ED130AE26C0B
:1047480004F5C4631A6004F22C62D2ED007A93ED8A
:10475800007A04F5C563D3ED006A37EE667A67EE32
:10476800877A93ED007A77EE877AC3ED007A1B6833
:104778002365D4EDFF7A94EDFC7AD4EDFE6A37EE2A
:10478800667A67EE877A94EDFE7A77EE877AC4EDDB
:10479800FE7A04F20C43D3ED007A95ED007A04F525
:1047A8008162D2ED006A37EE667A67EE877A92ED1B
:1047B800007A77EE877AC2ED007A04F21C43D3EDD3
:1047C800007A96ED007A04F58363D3ED006A37EE3C
:1047D800667A67EE877A93ED007A77EE877AC3ED8B
:1047E800007AD4F8F813C4F8CC131268C4F8D023AC
:1047F8001B68C4F8D433D4F8F43604F570709847BD
:1048080094F8E533DBB207EE903AF8EE677A9FED5D
:104818005F7A67EE877A77EE877A9FED5D7A77EE33
:10482800677AC4ED487A04F587635A4A1A60D4F85F
:10483800203104F584600360D4F8FC36984704F20C
:104848002C43D3ED007A9FED547A67EE877AD4ED46
:10485800E46A87EEA67A84ED0A7A94ED147ADFED9D
:104868004F7AB4EEE77AF1EE10FA08DC93ED007AAD
:10487800F2EE047AB4EEE77AF1EE10FA03D5484B7B
:104888004FF07C521A60474B93ED007AF2EE047AAF
:10489800B4EEE77AF1EE10FA67DD414B424A1A604E
:1048A800384B93ED077AD3EDDB7ADFED406A67EE9C
:1048B800A67AD3ED7B6AB4EEE67AF1EE10FA05DD5E
:1048C800D3ED7B6A77EEA66AC3ED7B6A2D4BD3EDF9
:1048D8007B6AB4EEE67AF1EE10FA05D593ED7B7AB1
:1048E80077EE677AC3ED7B7A264C04F22C43D3ED3E
:1048F800007AF0EEE77AC4ED7C7AD4F8E03604F575
:10490800F6709847D4F81832C4F830312379DBB2FE
:10491800012B2FD01B4BD3F830211A4BC3F8302171
:1049280093F8C03323B9174B1B79DBB2012B54D151
:10493800144B00221A71D3ED077AF5EEC07AF1EE26
:1049480010FA48BF012283F8E42393F8E433DBB27A
:10495800012B2DD00B4B93F8E533002B39D0094BA5
:1049680093F8E533013BDBB234E00D4B4FF07E5258
:104978001A6095E7D4F83821CFE700BF8C490020AA
:10498800F8078039000000209FAA2A3F920A863F34
:10499800DB0F494000401C46EBC91841CDCC4C3ECA
:1049A800380800202C040020CDCC4C3E0000FA43EF
:1049B800B64B93F8E533DBB2042B08D8B34B93F826
:1049C800E5330133DBB2B14A82F8E53305E0002371
:1049D800F9E70523AD4A82F8E533AC49D1ED497AC8
:1049E800FCEEE77A17EE903AD1ED497A91ED4C7AE0
:1049F80067EE877AFCEEE77A17EE902A91F8E513CE
:104A0800C9B2052936D8DFE811F0060010014B01BC
:104A18007B01AB01DB019E49D1F8980340F0C0004F
:104A2800C1F89803D1F8940340F03300C1F8940317
:104A38009D184FF4003191FAA1F1B1FA81F11039C2
:104A4800C9B29448944C34F811608159090C09048E
:104A5800294381519B1A4FF4002292FAA2F2B2FA2A
:104A680082F2103AD2B234F812104258120C1204E0
:104A780013434350854AD2F8F003884B03F580412D
:104A8800886302F58061086803F58041C86302F510
:104A98008261086803F58041086492F8E523D2B280
:104AA80007EE902AF8EE677A03F58042C2ED117A94
:104AB8001B78002B35D0794B9A6803F58041383143
:104AC80009680A3203EB820211609A6803F5804193
:104AD8003C31096802F20A4203EB820211609A68CB
:104AE80003F580414031096802F60A0203EB8202AD
:104AF80011609A6803F580414431096802F60A4258
:104B080003EB820211609A6801329A609A6840F257
:104B1800FE339A4205D9614B01225A7000221A705D
:104B28009A605E4B5B78002B00F095815B4B9A682E
:104B38000A3203EB8202116844F228041A19116040
:104B48009A6802F20A4203EB8202116844F22C00CE
:104B58001A1811609A6802F60A0203EB82021568B5
:104B680044F230015A1815609A6802F60A4203EBBB
:104B78008202166844F234029D182E6045251D7481
:104B88005A255D741C5D9C7444F229041C5DDC7418
:104B980044F22A041C5D1C7544F22B041C5D5C75F0
:104BA800185C987544F22D00185CD87544F22E00F4
:104BB800185C187644F22F00185C5876595C997680
:104BC80044F23101595CD97644F23201595C1977C3
:104BD80044F23301595C59779A5C9A7744F235026A
:104BE8009A5CDA7744F236029A5C83F8202044F221
:104BF80037029A5C83F8212093F82230DBB2012B2C
:104C080000F00E81254B9A6840F2FE339A4240F23A
:104C18002281224B00225A709A609B78002B00F068
:104C28001A811E4B01221A7015E11949D1F898030F
:104C380040F03000C1F89803D1F8940340F0C30065
:104C4800C1F894039D184FF4003191FAA1F1B1FA1B
:104C580081F11039C9B20F480F4C34F811608159ED
:104C6800090C0904294381519B1A4FF4801292FAC6
:104C7800A2F2B2FA82F2103AD2B234F812104258C2
:104C8800120C120413434350F4E600BF0000002046
:104C9800006801401C6801401013010850080020FA
:104CA8008949D1F8980340F00300C1F89803D1F876
:104CB800940340F0F000C1F894039D184FF40021CC
:104CC80091FAA1F1B1FA81F11039C9B27F48804C4B
:104CD80034F811608159090C0904294381519B1A40
:104CE8004FF4801292FAA2F2B2FA82F2103AD2B2D9
:104CF80034F812104258120C120413434350B9E608
:104D08007149D1F8980340F0C000C1F89803D1F870
:104D1800940340F03300C1F894039D1A4FF4003116
:104D280091FAA1F1B1FA81F11039C9B26748684C1A
:104D380034F811608159090C09042943815113443D
:104D48004FF4002292FAA2F2B2FA82F2103AD2B2E8
:104D580034F812104258120C12041343435089E6D7
:104D68005949D1F8980340F03000C1F89803D1F8B8
:104D7800940340F0C300C1F894039D1A4FF4003126
:104D880091FAA1F1B1FA81F11039C9B24F48504CEA
:104D980034F811608159090C0904294381511344DD
:104DA8004FF4801292FAA2F2B2FA82F2103AD2B218
:104DB80034F812104258120C12041343435059E6A7
:104DC8004149D1F8980340F00300C1F89803D1F89D
:104DD800940340F0F000C1F894039D1A4FF40021A9
:104DE80091FAA1F1B1FA81F11039C9B23748384CBA
:104DF80034F811608159090C09042943815113447D
:104E08004FF4801292FAA2F2B2FA82F2103AD2B2B7
:104E180034F812104258120C12041343435029E676
:104E28000AF02EFB2B4B9A6801329A60002283F815
:104E38002220E7E6284BD3F8E830012B0BD1274A8C
:104E4800536983F40053536105E0234B93F85433BB
:104E5800DBB2012B0DD0224B5A68224B1A601B681B
:104E6800214A12689B1A214A136003B0BDEC028BD9
:104E7800F0BD4FF0A042D2F888101D4B1960D2F84F
:104E880080105960D2F884109960D2F88C209A6109
:104E9800184AD2F88810D960D2F880101961D2F86F
:104EA80084105961D2F88C20DA610B4B1B78DBB285
:104EB800072BD0D8DFE813F02000F402E406C20E76
:104EC8009216E01DA324AD2C006801401C68014027
:104ED80010130108500800200000002000080048B6
:104EE800001000E04C080020B848002044080020CA
:104EF8008C49002000010050DD4B4FF400529A62AB
:104F0800DC4B00221A615A61C3F87C21C3F8842162
:104F1800C3F8C021C3F8C821C3F80422C3F80C227F
:104F2800C3F82021D4498A620879C0B2C870D3482E
:104F38000260D3F86C030864D149D1ED067AF8EE23
:104F4800E77A9FEDD07A67EE877A93EDDD7A67EEA0
:104F5800877A03F5CA6CCCED007AD1ED007AF8EEC9
:104F6800E77A03F5D067C7ED007AD1ED017AF8EE5C
:104F7800E77A03F5D266C6ED007AD1ED027AF8EE4B
:104F8800E77A03F5D465C5ED007AD1ED037AF8EE3A
:104F9800E77A03F5D664C4ED007AD1ED047AF8EE29
:104FA800E77A03F5D860C0ED007AD1ED057AF8EE1E
:104FB800E77A03F5DA61C1ED007AC3F898204FF07B
:104FC8007E52C3F89C2003F25C62D2ED007A9CED1D
:104FD800007A03F5CB62D2ED006A37EE667A67EEA7
:104FE800877A92ED007A77EE877AC2ED007A03F23B
:104FF8008C62D2ED007A97ED007A03F5D162D2ED9A
:10500800006A37EE667A67EE877A92ED007A77EE75
:10501800877AC2ED007A03F29C62D2ED007A96EDAF
:10502800007A03F5D362D2ED006A37EE667A67EE4E
:10503800877A92ED007A77EE877AC2ED007A03F2EA
:10504800AC62D2ED007A95ED007A03F5D562D2ED27
:10505800006A37EE667A67EE877A92ED007A77EE25
:10506800877AC2ED007A03F2BC62D2ED007A94ED41
:10507800007A03F5D762D2ED006A37EE667A67EEFA
:10508800877A92ED007A77EE877AC2ED007A03F29A
:10509800CC62D2ED007A90ED007A03F5D962D2EDB8
:1050A800006A37EE667A67EE877A92ED007A77EED5
:1050B800877AC2ED007A03F2DC62D2ED007A91EDD4
:1050C800007A03F5DB62D2ED006A37EE667A67EEA6
:1050D800877A92ED007A77EE877AC2ED007A93F8B4
:1050E8005633002B40F0C080A0F168031B68614C68
:1050F800C4F80C3304F5D1631B68C4F8F83004F520
:10510800D3631B68C4F8FC3004F5D5631B68C4F886
:10511800003104F5D7631B68C4F8043104F5D9637A
:105128001B68C4F8083104F5DB631B68C4F80C314C
:10513800D4F84831C4F81033D4F84C31C4F81433D7
:10514800D4F85031C4F81833D4F8EC3604F5437069
:105158009847D4EDCB7A94ED277A67EE877A94ED69
:10516800CC7AD4ED266A27EE267A77EE877AC4EDD4
:10517800CD7AD4EDCB7A94ED267A67EEC77A94EDA2
:10518800CC7AD4ED276A27EE267A77EE877AC4EDB3
:10519800CE7AD4ED497A9FED3C7A27EE877A77EE7E
:1051A800877AFCEEE77A17EE903A4FF4003292FADB
:1051B800A2F2B2FA82F2103AD2B23449344830F844
:1051C80012504A59120C12041A434A514FF4002241
:1051D80092FAA2F2B2FA82F2103AD2B230F812502F
:1051E8004A59120C12041A434A514FF4801292FA87
:1051F800A2F2B2FA82F2103AD2B230F812000A5889
:10520800120C120413430B50224AD2F8943343F081
:10521800F303C2F894332048FBF73EFC94EDC37ABD
:10522800F3EE047AB4EEE77AF1EE10FAACBF01239C
:10523800002384F8BD33E36DC4F8AC33236EC4F89F
:10524800B033D4F80C33C4F8B433144B1B69C4F826
:10525800B833D4F8F03604F56670984794F8BC3340
:10526800F3B92378DBB21CE00B4B9B6C3FE700BF24
:105278000008004800000020A4070020380800208B
:105288008C49002000008039000000001C680140A3
:105298001013010800680140BC480020984800200D
:1052A80007237D4A137092F801360133DBB282F886
:1052B800013692F80136DBB2622B03D892F8012648
:1052C800D2B200E00022744B83F8012693F801263D
:1052D800D2B207EE902AF8EE677A704A02F580415A
:1052E800C1ED0E7A93F8011601F58E7103EB810179
:1052F800086802F58041C863D3F8640102F580416B
:105308000864D3F8A81102F5804359641378002B78
:1053180035D01346926803F58041383109680A325E
:1053280003EB820211609A6803F580413C310968F9
:1053380002F20A4203EB820211609A6803F5804187
:105348004031096802F60A0203EB820211609A688A
:1053580003F580414431096802F60A4203EB8202F0
:1053680011609A6801329A609A6840F2FE339A4254
:1053780005D94A4B01225A7000221A709A60474B8D
:105388005B78002B3FF467AD444B9A680A3203EB15
:105398008202116844F228041A1911609A6802F20C
:1053A8000A4203EB8202116844F22C001A181160B9
:1053B8009A6802F60A0203EB8202156844F2300189
:1053C8005A1815609A6802F60A4203EB82021668B8
:1053D80044F234029D182E6045251D745A255D74CB
:1053E8001C5D9C7444F229041C5DDC7444F22A049C
:1053F8001C5D1C7544F22B041C5D5C75185C98756B
:1054080044F22D00185CD87544F22E00185C18760A
:1054180044F22F00185C5876595C997644F23101B1
:10542800595CD97644F23201595C197744F2330158
:10543800595C59779A5C9A7744F235029A5CDA7724
:1054480044F236029A5C83F8202044F237029A5CD0
:1054580083F8212093F82230DBB2012B12D00F4BB6
:105468009A6840F2FE339A427FF6F5AC0B4B002265
:105478005A709A609B78002B3FF4EDAC074B0122E1
:105488001A70E8E409F0FCFF044B9A6801329A604C
:10549800002283F82220E2E70000002050080020C4
:1054A8009B4B93ED457AD3ED467AD3EDDB6A67EEF5
:1054B800A67AD3ED446AB4EEE67AF1EE10FA05DD89
:1054C800D3ED446A77EEA66AC3ED446A904BD3EDF8
:1054D800446AB4EEE67AF1EE10FA05D593ED447A13
:1054E80077EE677AC3ED447A894BD3ED477A93ED2B
:1054F800447A27EE877AD3ED487A77EE877AC3ED38
:10550800487A93ED487ADFED837AB4EEE77AF1EEE4
:1055180010FA40F1E980D3ED487A9FED7F7A77EE73
:10552800877AC3ED487A7A4BD3ED487A7B4B1B6870
:1055380003F00F03012B08D0784A1168784B0B4011
:1055480043F4002343F0610313609FED767A67EE1E
:10555800877AFEEEE07A714AC2ED017A92ED027A1C
:10556800B8EEC77ADFED706A27EE267A684B83EDCE
:10557800267AD2ED027AF8EEE77A67EEA67AC3EDDC
:10558800277A93F85633DBB2012B00F0DF80604BAB
:1055980093F85633002B40F0F480644AD2ED007A39
:1055A800F8EEE77A5A4B93ED3E7A77EEC77A93EDA9
:1055B800DC7ADFED5F6A27EE267A67EE877AC3ED3D
:1055C8000B7AD2ED017AF8EEE77A93ED3F7A77EE2F
:1055D800C77A93EDDC7A27EE267A67EE877AC3EDF1
:1055E8000C7AD2ED027AF8EEE77A93ED407A77EE0C
:1055F800C77A93EDDC7A27EE267A67EE877AC3EDD1
:105608000D7AD2ED067AF8EEE77A9FED4A7A67EEE0
:10561800877AD3EDDD6A67EEA67AC3EDC37AD2ED59
:10562800037AF8EEE77AD3ED416A77EEE67AD3EDBE
:10563800DD6A66EE876A67EEA67AC3ED0E7AD2ED6A
:10564800047AF8EEE77AD3ED426A77EEE67AD3ED9C
:10565800DD6A66EE876A67EEA67AC3ED0F7AD2ED49
:10566800057AF8EEE77AD3ED436A77EEE67AD3ED7A
:10567800DD6A26EE877A67EE877AC3ED107ADA6AF2
:10568800DA65D3ED0B7ADFED2C6A67EEA67A93ED37
:105698000C7A9FED2A6A27EE067A77EE877AC3EDB1
:1056A800187AD3EDFE7A9FED267A67EE877A03F5AE
:1056B800816191ED007A03F5836292ED006A37EE1D
:1056C800467A9FED206A27EE067A77EEC77AC3ED11
:1056D800117AD1ED007A92ED007A77EEC77A67EE0B
:1056E800A67AC3ED127A4CE0094B93ED487ADFEDC8
:1056F800167AB4EEE77AF1EE10FA7FF714AFD3ED2D
:10570800487A9FED057A77EEC77AC3ED487A0AE7BB
:1057180000000020DB0F49C0DB0FC940000C02402D
:1057280000F887FF83F9A23E000000308C49002072
:105738000000003A000080393ACD133F3ACD933F3C
:10574800ABAA2A3FABAAAA3EDB0F4940C34B596E0E
:10575800C34AC2F82011D3F8B010D165D3ED2C7A22
:105768009FEDC07A67EE877A93ED2D7ADFEDBE6AFA
:1057780027EE267A77EE877AC2ED187A9B6CC2F804
:105788000C33B74BD3ED177A93ED277A67EE877A08
:1057980093ED187AD3ED266A27EE267A77EE877A84
:1057A800C3ED197AD3ED187A93ED277A67EE877AE5
:1057B80093ED177AD3ED266A27EE267A77EEC77A25
:1057C800C3ED1A7A596E03F5C6621160996E03F536
:1057D800C8600160D3F80C4303F5CA610C6003F29A
:1057E8003C64D4ED007A92ED007A03F5C762D2EDFD
:1057F800006A37EE667A67EE877A92ED007A77EE7E
:10580800877AC2ED007A03F24C62D2ED007A90ED0D
:10581800007A03F5C962D2ED006A37EE667A67EE60
:10582800877A92ED007A77EE877AC2ED007A03F2F2
:105838005C62D2ED007A91ED007A03F5CB62D2ED8D
:10584800006A37EE667A67EE877A92ED007A77EE2D
:10585800877AC2ED007A93F85633002B40F0FA802D
:1058680013687F4CC4F80C33D4F84831C4F81033AB
:10587800D4F84C31C4F81433D4F85031C4F8183380
:10588800D4F8EC3604F543709847D4EDCB7A94ED10
:10589800277A67EE877A94EDCC7AD4ED266A27EEDC
:1058A800267A77EE877AC4EDCD7AD4EDCB7A94ED6B
:1058B800267A67EEC77A94EDCC7AD4ED276A27EE7C
:1058C800267A77EE877AC4EDCE7AD4ED027A94ED13
:1058D800277A67EE877A94ED037AD4ED266A27EE65
:1058E800267A77EEC77AC4ED4F7AD4ED037A94ED31
:1058F800277A67EE877A94ED027AD4ED266A27EE46
:10590800267A77EE877AC4ED507A94EDCD6A94EDD5
:10591800C37ADFED556A27EE267AC6EE077AC4ED1C
:10592800D37A94EDCE6AD4EDC37A67EEA67A86EE82
:10593800277A84EDD27A94EDD30AD4EDD37A20EE87
:10594800270AD4EDD27A94EDD27A67EE877A30EED0
:10595800270A0BF063FA84ED4C0AD4ED447A9FEDE4
:10596800437A67EE877AD4EDE46A87EEA67A84ED07
:105978000A7AD4F80C33C4F84431D4F8E43604F580
:105988009E709847D4ED526A94ED537A94ED546A18
:10599800D4ED497A66EEA76A77EEA66AFCEEE66A67
:1059A8004FF4003393FAA3F3B3FA83F3103BDBB25B
:1059B8002F4A304931F8130013581B0C1B0416EEFC
:1059C800905A1D43155027EE277A37EE877ABCEE9A
:1059D800C77A4FF4002393FAA3F3B3FA83F3103B87
:1059E800DBB231F8130013581B0C1B0417EE105AC6
:1059F8001D43155026EE277A77EE877AFCEEE77A74
:105A08004FF4801393FAA3F3B3FA83F3103BDBB29A
:105A180031F8131053581B0C1B0417EE900A184347
:105A28005050E36DC4F8AC33236EC4F8B033D4F8E7
:105A38000C33C4F8B433104B1B69C4F8B833D4F82A
:105A4800F03604F56670984794F8BC33B3B92378F8
:105A5800DBB214E0014B9B6C03E700BFBC4800209D
:105A6800000000203ACD133F3ACD933F000070422A
:105A78001C680140101301089848002007237D4C3A
:105A88002370D4F848317C48C361D4F84C310362A0
:105A9800D4F850314362FAF7FFFF94ED027A774B5E
:105AA800D3ED097AB4EE677AF1EE10FA02D194F8E0
:105AB800BC3313B1714B01221A706E4A91686F4B57
:105AC8005962D06D03F580418863106E03F58041FB
