:020000040800F2
:100000000000022035ED00083DDE00083FDE00085C
:1000100041DE000843DE000845DE00080000000065
:1000200000000000000000000000000047DE0008A3
:1000300049DE0008000000004BDE00084DDE00082D
:1000400085ED000885ED000885ED000885ED0008C8
:1000500085ED000885ED000885ED000885ED0008B8
:1000600085ED000885ED000885ED000885ED0008A8
:1000700085ED000885ED000885ED000885ED000898
:1000800089DE000885ED0008591F000885ED00088D
:1000900085ED000885ED000885ED00084FDE0008BD
:1000A00085ED000885ED000885ED000885ED000868
:1000B000119B000885ED000885ED000885ED00081E
:1000C00085ED000885ED000885ED000885ED000848
:1000D00085ED000885ED0008C1DE000885ED00080B
:1000E00085ED000885ED000885ED000885ED000828
:1000F00085ED000885ED000885ED000885ED000818
:1001000085ED000885ED000885ED000885ED000807
:1001100085ED000885ED000885ED000851DE00083A
:1001200085ED000885ED000885ED000885ED0008E7
:1001300085ED000885ED000885ED000885ED0008D7
:1001400085ED000885ED000885ED000885ED0008C7
:1001500085ED000885ED000885ED000885ED0008B7
:1001600085ED000871DE000885ED000885ED0008CA
:1001700085ED000885ED000885ED000885ED000897
:1001800085ED000885ED000885ED000885ED000887
:1001900085ED00080000000085ED000885ED0008F1
:1001A00085ED000885ED000885ED000885ED000867
:1001B00085ED000885ED000885ED000885ED000857
:1001C00085ED000885ED000885ED000885ED000847
:0801D00085ED000885ED000833
:1001D80081F0004102E000BF83F0004330B54FEAF0
:1001E80041044FEA430594EA050F08BF90EA020F5D
:1001F8001FBF54EA000C55EA020C7FEA645C7FEAF0
:10020800655C00F0E2804FEA5454D4EB5555B8BF12
:100218006D420CDD2C4480EA020281EA030382EA83
:10022800000083EA010180EA020281EA0303362D15
:1002380088BF30BD11F0004F4FEA01314FF4801CE8
:100248004CEA113102D0404261EB410113F0004FFA
:100258004FEA03334CEA133302D0524263EB4303B1
:1002680094EA050F00F0A780A4F10104D5F1200E4F
:100278000DDB02FA0EFC22FA05F2801841F10001AA
:1002880003FA0EF2801843FA05F359410EE0A5F17E
:1002980020050EF1200E012A03FA0EFC28BF4CF0AF
:1002A800020C43FA05F3C01851EBE37101F0004565
:1002B80007D54FF0000EDCF1000C7EEB00006EEB72
:1002C8000101B1F5801F1BD3B1F5001F0CD34908FC
:1002D8005FEA30004FEA3C0C04F101044FEA445253
:1002E80012F5800F80F09A80BCF1004F08BF5FEADA
:1002F800500C50F1000041EB045141EA050130BDBA
:100308005FEA4C0C404141EB010111F4801FA4F15C
:100318000104E9D191F0000F04BF01460020B1FAB1
:1003280081F308BF2033A3F10B03B3F120020CDAE9
:100338000C3208DD02F1140CC2F10C0201FA0CF0C7
:1003480021FA02F10CE002F11402D8BFC2F1200C2C
:1003580001FA02F120FA0CFCDCBF41EA0C019040E2
:10036800E41AA2BF01EB0451294330BD6FEA04042B
:100378001F3C1CDA0C340EDC04F11404C4F1200216
:1003880020FA04F001FA02F340EA030021FA04F328
:1003980045EA030130BDC4F10C04C4F1200220FA7F
:1003A80002F001FA04F340EA0300294630BD21FABD
:1003B80004F0294630BD94F0000F83F4801306BF83
:1003C80081F480110134013D4EE77FEA645C18BF77
:1003D8007FEA655C29D094EA050F08BF90EA020F0E
:1003E80005D054EA000C04BF1946104630BD91EA06
:1003F800030F1EBF0021002030BD5FEA545C05D109
:100408004000494128BF41F0004130BD14F5800447
:100418003CBF01F5801130BD01F0004545F0FE41BB
:1004280041F470014FF0000030BD7FEA645C1ABFF0
:10043800194610467FEA655C1CBF0B46024650EA27
:10044800013406BF52EA033591EA030F41F4002153
:1004580030BD00BF90F0000F04BF0021704730B5D9
:100468004FF4806404F132044FF000054FF00001AE
:1004780050E700BF90F0000F04BF0021704730B56F
:100488004FF4806404F1320410F0004548BF404244
:100498004FF000013EE700BF42004FEAE2014FEA99
:1004A80031014FEA02701FBF12F07F4393F07F4F74
:1004B80081F06051704732F07F4208BF704793F077
:1004C8007F4F04BF41F40021704730B54FF460748A
:1004D80001F0004521F000411CE700BF50EA01028D
:1004E80008BF704730B54FF000050AE050EA010236
:1004F80008BF704730B511F0004502D5404261EBA6
:1005080041014FF4806404F132045FEA915C3FF4E6
:10051800D8AE4FF003025FEADC0C18BF03325FEA83
:10052800DC0C18BF033202EBDC02C2F1200300FA34
:1005380003FC20FA02F001FA03FE40EA0E0021FA59
:1005480002F11444BDE600BF70B54FF0FF0C4CF447
:10055800E06C1CEA11541DBF1CEA135594EA0C0FF9
:1005680095EA0C0F00F0DEF82C4481EA030621EA34
:100578004C5123EA4C5350EA013518BF52EA03356F
:1005880041F4801143F4801338D0A0FB02CE4FF021
:100598000005E1FB02E506F00042E0FB03E54FF051
:1005A8000006E1FB03569CF0000F18BF4EF0010E49
:1005B800A4F1FF04B6F5007F64F5407404D25FEA45
:1005C8004E0E6D4146EB060642EAC62141EA5551F8
:1005D8004FEAC52040EA5E504FEACE2EB4F1FD0C3A
:1005E80088BFBCF5E06F1ED8BEF1004F08BF5FEAB8
:1005F800500E50F1000041EB045170BD06F000466A
:1006080046EA010140EA020081EA0301B4EB5C0416
:10061800C2BFD4EB0C0541EA045170BD41F480110E
:100628004FF0000E013C00F3AB8014F1360FDEBF33
:10063800002001F0004170BDC4F10004203C35DA0F
:100648000C341BDC04F11404C4F1200500FA05F392
:1006580020FA04F001FA05F240EA020001F0004233
:1006680021F0004110EBD37021FA04F642EB0601A9
:100678005EEA430E08BF20EAD37070BDC4F10C04D3
:10068800C4F1200500FA04F320FA05F001FA04F297
:1006980040EA020001F0004110EBD37041F1000183
:1006A8005EEA430E08BF20EAD37070BDC4F120058E
:1006B80000FA05F24EEA020E20FA04F301FA05F2F6
:1006C80043EA020321FA04F001F0004121FA04F29E
:1006D80020EA020000EBD3705EEA430E08BF20EA6E
:1006E800D37070BD94F0000F0FD101F000464000A8
:1006F80041EB010111F4801F08BF013CF7D041EA2A
:10070800060195F0000F18BF704703F0004652002D
:1007180043EB030313F4801F08BF013DF7D043EAFE
:100728000603704794EA0C0F0CEA135518BF95EAB4
:100738000C0F0CD050EA410618BF52EA4306D1D13B
:1007480081EA030101F000414FF0000070BD50EA5A
:10075800410606BF1046194652EA430619D094EAE4
:100768000C0F02D150EA013613D195EA0C0F05D1CE
:1007780052EA03361CBF104619460AD181EA030122
:1007880001F0004141F0FE4141F470014FF00000DA
:1007980070BD41F0FE4141F4780170BD70B54FF075
:1007A800FF0C4CF4E06C1CEA11541DBF1CEA1355F5
:1007B80094EA0C0F95EA0C0F00F0A7F8A4EB0504D7
:1007C80081EA030E52EA03354FEA013100F08880CE
:1007D8004FEA03334FF0805545EA131343EA126397
:1007E8004FEA022245EA111545EA10654FEA00264C
:1007F8000EF000419D4208BF964244F1FD0404F505
:10080800407402D25B084FEA3202B61A65EB030560
:100818005B084FEA32024FF480104FF4002CB6EB1D
:10082800020E75EB030E22BFB61A754640EA0C009D
:100838005B084FEA3202B6EB020E75EB030E22BFDD
:10084800B61A754640EA5C005B084FEA3202B6EB1E
:10085800020E75EB030E22BFB61A754640EA9C00DD
:100868005B084FEA3202B6EB020E75EB030E22BFAD
:10087800B61A754640EADC0055EA060E18D04FEA6B
:10088800051545EA16754FEA06164FEAC30343EA0B
:1008980052734FEAC2025FEA1C1CC0D111F4801FD8
:1008A8000BD141EA00014FF000004FF0004CB6E7D1
:1008B80011F4801F04BF01430020B4F1FD0C88BF70
:1008C800BCF5E06F3FF6AFAEB5EB030C04BFB6EB7B
:1008D800020C5FEA500C50F1000041EB045170BD6E
:1008E8000EF0004E4EEA113114EB5C04C2BFD4EB9B
:1008F8000C0541EA045170BD41F480114FF0000E1F
:10090800013C90E645EA060E8DE60CEA135594EA9A
:100918000C0F08BF95EA0C0F3FF43BAF94EA0C0F9D
:100928000AD150EA01347FF434AF95EA0C0F7FF412
:1009380025AF104619462CE795EA0C0F06D152EA66
:1009480003353FF4FDAE1046194622E750EA41064A
:1009580018BF52EA43067FF4C5AE50EA41047FF45B
:100968000DAF52EA43057FF4EBAE12E74FEA4102BE
:10097800B2F1E04324BFB3F5001CDCF1FE5C0DD9F5
:1009880001F0004C4FEAC0024CEA5070B2F1004F3F
:1009980040EB830008BF20F00100704711F0804F42
:1009A80021D113F13872BCBF01F00040704741F407
:1009B80080114FEA5252C2F11802C2F1200C10FA0B
:1009C8000CF320FA02F018BF40F001004FEAC123EF
:1009D8004FEAD32303FA0CFC40EA0C0023FA02F393
:1009E8004FEA4303CCE77FEA625307D150EA013369
:1009F8001EBF4FF0FE4040F44000704701F0004039
:100A080040F0FE4040F40000704700BF0348044B2C
:100A1800834202D0034B03B11847704704050020F6
:100A2800040500200000000005480649091A89103D
:100A380001EBD171491002D0034B03B1184770473D
:100A480004050020040500200000000010B5064C35
:100A5800237843B9FFF7DAFF044B13B10448AFF327
:100A680000800123237010BD040500200000000051
:100A7800C0F4000808B5054B1BB105490548AFF39C
:100A88000080BDE80840FFF7CFBF00BF00000000AE
:100A980008050020C0F4000890ED027AF7EE006A1D
:100AA800C6EE877AD0ED006A66EEA76A90ED017A05
:100AB80027EE277AF6EE007A66EEE77A9FED1B6A54
:100AC80027EE067A37EE876A77EEC77AF4EEC66ABB
:100AD800F1EE10FA10DDF0EE465AB0EE667AB4EE9A
:100AE800E77AF1EE10FA0CD4F4EEE75AF1EE10FAC8
:100AF80009DDF0EE675A06E0F0EE665AB0EE467A87
:100B0800EDE7B0EE677A37EE257AF6EE005A27EE73
:100B1800257A76EEC76AC0ED036A36EE476A80ED3D
:100B2800046A77EEC77AC0ED057A7047D7B35D3FA0
:100B3800D0ED007A90ED017A77EEC77AC0ED027AAF
:100B4800D0ED037A90ED027A67EE877AC0ED047AE9
:100B580090ED057AD0ED057AB4EE677AF1EE10FAE9
:100B680001D1436900E000234361D0ED0C7A90ED98
:100B7800027A27EE877AD0ED057A77EE877AC0ED8C
:100B8800057AD0ED0E7A90ED027AD0ED0F6A37EE45
:100B9800667A67EE877AC0ED067A90ED087AD0ED2E
:100BA800047AF0EEE77AD0ED066AF0EEE66A77EEC0
:100BB800A67A77EE677AC0ED0B7A90ED057AD0EDDC
:100BC8000B7AB4EEE77AF1EE10FA1DDDD0ED0B7A70
:100BD800C0ED057AD0ED047A90ED057A77EE877A44
:100BE80090ED067A77EE877AC0ED077A90ED077A6E
:100BF800D0ED087AB4EEE77AF1EE10FA17DD036A61
:100C080083628368C363704790ED057AD0ED0B7AF1
:100C1800F1EE677AB4EEE77AF1EE10FA04D5D0ED8A
:100C28000B7AF1EE677AD3E7D0ED057AD0E790ED4D
:100C3800077AD0ED097AB4EEE77AF1EE10FA01D529
:100C4800436ADDE7C369DBE7D0ED007A9FED257ADB
:100C580067EE877AC0ED117A90ED117AD0ED017ABE
:100C680077EEA77AD0ED026A77EEE67AD0ED036ADE
:100C780077EEE67A67EE277AC0ED057A90ED117A7D
:100C8800D0ED027A77EEA77AD0ED016A77EEE67AB0
:100C9800D0ED036A77EEE67A67EE277AC0ED067A3A
:100CA800037C5BB1D0ED057AF1EE677AC0ED057A89
:100CB800D0ED067AF1EE677AC0ED067A43690362F1
:100CC800D0ED057A9FED087A67EE877A90ED067A7F
:100CD800DFED066A27EE267A77EE877AC0ED097A85
:100CE800704700BFAAAAAA3E3ACD133F3ACD933F18
:100CF80090F82630002B60D090ED057AD0ED017A7F
:100D0800B4EEE77AF1EE10FA0ADA90ED057AD0ED52
:100D1800017AF1EE677AB4EEE77AF1EE10FA03D8C9
:100D28000123037080F8243090ED067AD0ED017A23
:100D3800B4EEE77AF1EE10FA0ADA90ED067AD0ED21
:100D4800017AF1EE677AB4EEE77AF1EE10FA04D898
:100D580002230370012380F8243090ED077AD0ED48
:100D6800027AB4EEE77AF1EE10FA04DB032303709B
:100D7800012380F8243090ED077AD0ED037AB4EEA1
:100D8800E77AF1EE10FA07D890F8253023B1052359
:100D98000370012380F8243090ED087AD0ED047AAE
:100DA800B4EEE77AF1EE10FA07DB90F8253023B1BC
:100DB80004230370012380F82430704790ED047AEF
:100DC800D0ED047AB4EE677AF1EE10FA01D1036936
:100DD80000E000230361D0ED007A90ED047A77EE0D
:100DE800C77AC0ED027A90ED027ADFED3B7AB4EE75
:100DF800E77AF1EE10FA12D5D0ED027A9FED377A44
:100E080077EE877AC0ED027A90ED037AD0ED037A17
:100E1800B4EE677AF1EE10FA13D1C36812E090EDE0
:100E2800027ADFED2F7AB4EEE77AF1EE10FAEBDD15
:100E3800D0ED027A9FED297A77EEC77AC0ED027A73
:100E4800E2E70023C360D0ED037A90ED027AD0ED9B
:100E5800056A27EE267A77EE877A90ED017A67EEB3
:100E6800877A90ED047A77EE277AC0ED047A90EDD0
:100E7800047ADFED197AB4EEE77AF1EE10FA18D5B4
:100E8800D0ED047A9FED157A77EE877AC0ED047A73
:100E9800D0ED027A90ED067A67EE877A90ED017AC6
:100EA80067EE877A90ED037A77EE277AC0ED037ABA
:100EB800704790ED047ADFED0A7AB4EEE77AF1EE46
:100EC80010FAE5DDD0ED047A9FED047A77EEC77A63
:100ED800C0ED047ADCE700BFDB0F49C0DB0FC94077
:100EE800DB0F494000230370D0ED037A90ED047ABC
:100EF80077EE877A90ED057A77EE877A9FEDCF7A4D
:100F080067EE877AC0ED0B7AD0ED037A90ED0B7A15
:100F180077EEC77AC0ED067AD0ED047A90ED0B7AB9
:100F280077EEC77AC0ED077AD0ED057A90ED0B7AA7
:100F380077EEC77AC0ED087A90F82430DBB2012B3F
:100F480012D090F82430002B40F0288190F82530FA
:100F5800DBB2052B00F22281DFE813F0190145010D
:100F680072019D01CA01F70190F82530DBB2052B0B
:100F7800E7D8DFE803F0032E5985B2DFD0ED087A11
:100F8800F5EEC07AF1EE10FADBDD90ED087AD0EDDF
:100F9800017A77EE877AC0ED017AD0ED017AF5EE25
:100FA800C07AF1EE10FA0DD4D0ED017A90ED027A04
:100FB800B4EEE77AF1EE10FAC3D5002343600123BB
:100FC8000370BEE7D0ED017AF1EE677AC0ED017AE1
:100FD800ECE7D0ED077AF5EEC07AF1EE10FAB0D56D
:100FE80090ED077AD0ED017A77EE877AC0ED017A35
:100FF800D0ED017AF5EEC07AF1EE10FA0DD4D0ED0D
:10100800017A90ED027AB4EEE77AF1EE10FA98D50B
:10101800002343600123037093E7D0ED017AF1EEDA
:10102800677AC0ED017AECE7D0ED067AF5EEC07A82
:10103800F1EE10FA85DD90ED067AD0ED017A77EEC3
:10104800877AC0ED017AD0ED017AF5EEC07AF1EE3B
:1010580010FA0ED4D0ED017A90ED027AB4EEE77A68
:10106800F1EE10FA7FF56DAF0023436001230370A2
:1010780067E7D0ED017AF1EE677AC0ED017AEBE728
:10108800D0ED087AF5EEC07AF1EE10FA7FF559AF97
:1010980090ED087AD0ED017A77EE877AC0ED017A83
:1010A800D0ED017AF5EEC07AF1EE10FA0ED4D0ED5B
:1010B800017A90ED027AB4EEE77AF1EE10FA7FF554
:1010C80040AF00234360012303703AE7D0ED017A73
:1010D800F1EE677AC0ED017AEBE7D0ED077AF5EE2D
:1010E800C07AF1EE10FA7FF72CAF90ED077AD0EDC9
:1010F800017A77EE877AC0ED017AD0ED017AF5EEC4
:10110800C07AF1EE10FA0ED4D0ED017A90ED027AA1
:10111800B4EEE77AF1EE10FA7FF513AF00234360DF
:10112800012303700DE7D0ED017AF1EE677AC0ED87
:10113800017AEBE7D0ED067AF5EEC07AF1EE10FA17
:101148007FF5FFAE90ED067AD0ED017A77EE877ADB
:10115800C0ED017AD0ED017AF5EEC07AF1EE10FA21
:101168000ED4D0ED017A90ED027AB4EEE77AF1EE82
:1011780010FA7FF5E6AE0023436001230370E0E632
:10118800D0ED017AF1EE677AC0ED017AEBE7D0EDA8
:10119800087AF5EEC07AF1EE10FA00D4704790EDB7
:1011A800087AD0ED017A77EE877AC0ED017AD0ED32
:1011B800017AF5EEC07AF1EE10FA0DD4D0ED017A8D
:1011C80090ED027AB4EEE77AF1EE10FAE6D5002354
:1011D8004360012303707047D0ED017AF1EE677A1E
:1011E800C0ED017AECE7D0ED077AF5EEC07AF1EEC2
:1011F80010FAD3DD90ED077AD0ED017A77EE877A91
:10120800C0ED017AD0ED017AF5EEC07AF1EE10FA70
:101218000DD4D0ED017A90ED027AB4EEE77AF1EED2
:1012280010FABBD500234360012303707047D0ED4B
:10123800017AF1EE677AC0ED017AECE79FAAAA3E3F
:10124800D0ED067AF5EEC07AF1EE10FAA6D590ED5B
:10125800067AD0ED017A77EE877AC0ED017AD0ED83
:10126800017AF5EEC07AF1EE10FA0DD4D0ED017ADC
:1012780090ED027AB4EEE77AF1EE10FA8ED50023FB
:101288004360012303707047D0ED017AF1EE677A6D
:10129800C0ED017AECE7D0ED087AF5EEC07AF1EE10
:1012A80010FA7FF77BAF90ED087AD0ED017A77EEF0
:1012B800877AC0ED017AD0ED017AF5EEC07AF1EEC9
:1012C80010FA0ED4D0ED017A90ED027AB4EEE77AF6
:1012D800F1EE10FA7FF562AF00234360012303703B
:1012E8007047D0ED017AF1EE677AC0ED017AEBE74D
:1012F800D0ED077AF5EEC07AF1EE10FA7FF54EAF31
:1013080090ED077AD0ED017A77EE877AC0ED017A11
:10131800D0ED017AF5EEC07AF1EE10FA0ED4D0EDE8
:10132800017A90ED027AB4EEE77AF1EE10FA7FF5E1
:1013380035AF00234360012303707047D0ED017A75
:10134800F1EE677AC0ED017AEBE7D0ED067AF5EEBB
:10135800C07AF1EE10FA7FF721AF90ED067AD0ED62
:10136800017A77EE877AC0ED017AD0ED017AF5EE51
:10137800C07AF1EE10FA0ED4D0ED017A90ED027A2F
:10138800B4EEE77AF1EE10FA7FF508AF0023436078
:101398000123037002E7D0ED017AF1EE677AC0ED20
:1013A800017AEBE710B50446D0ED066AD0ED000AE5
:1013B80066EEA06A90ED067A90ED010A27EE007AB3
:1013C80090ED056A90ED004A26EE044AD0ED057AC4
:1013D800D0ED014A67EEA44AD0ED047AD0ED045A64
:1013E80067EEA55AD0ED077A77EEE67A90ED076AB0
:1013F80036EE666A67EE867A90ED095A35EE475AF8
:1014080090ED096A36EE476A25EE065A77EE857A38
:1014180075EEE77AC0ED0B7A90ED026A36EE446A13
:10142800D0ED0E5AD0ED077A77EEE67A65EEA75A38
:10143800D0ED0B7A65EEA75A36EE256AD0ED037A21
:1014480077EEE47AD0ED0E5A90ED095A35EE475A08
:1014580065EE855A90ED0B5A65EE855A77EEA57ABA
:10146800D0ED0C5A65EE865A90ED076A36EE256A7D
:1014780080ED076A90ED0C6A26EE276AD0ED097AAE
:1014880077EE867AC0ED097A90ED076AD0ED077A93
:10149800B4EE676AF1EE10FA01D1C36900E00023E7
:1014A800E36194ED096AD4ED097AB4EE676AF1EE66
:1014B80010FA01D1636A00E00023636294ED090A1F
:1014C800D4ED070A70EEE60A30EE470A0DF084FA0A
:1014D80084ED0D0A10BD000010B50446D0ED057A64
:1014E80090ED047A67EE877AD0ED036A90ED007A82
:1014F80090ED016A37EE467A90ED026A37EE467A49
:1015080026EE877A77EE877AC0ED047AD0ED057AF1
:1015180090ED097A67EE877AD0ED036A90ED067A46
:1015280090ED076A37EE467A90ED086A37EE467A0C
:1015380026EE877A77EE877AC0ED097AD0ED047ABD
:1015480090ED0A7A77EEC77AC0ED0B7AD0ED097A7A
:1015580090ED0D7A77EEC77AC0ED0E7A90ED0B7AA2
:10156800D0ED117AB4EEE77AF1EE10FA40F3D480B8
:1015780090ED117AD4ED0C7A77EEA77A67EE877A38
:10158800C4ED027A94ED0E7AD4ED117AB4EEE77ACE
:10159800F1EE10FA40F3D38094ED117AD4ED0C7A81
:1015A80077EEA77A67EE877AC4ED087A94ED127A17
:1015B800F7EE006AC6EE877AC4ED137AA36823664D
:1015C800D4ED176AD4ED137A94ED177A77EE877A0B
:1015D80086EEA77A84ED1B7AD4ED1B7A94ED187AFF
:1015E800D4ED1A6A37EE667A67EE877A94ED1A7A3E
:1015F80077EE877AC4ED1A7AD4ED136AD4ED137AAC
:1016080094ED177A77EE877A86EEA77A84ED1F7ABB
:1016180094ED1A7ADFED535A37EE257A84ED1C7A69
:1016280094ED1F7AD4ED1E6A94ED1C6AD4ED1D7AF0
:1016380036EE676A76EE866A27EE267A84ED1E7A9B
:10164800236F6367D4ED1E7A77EEA77AC4ED147A18
:10165800236AC4F88030E36EC4F88C30D4ED237A62
:1016680094ED207AD4ED226A37EE667A67EE877AAF
:1016780094ED227A77EE877AC4ED227AE36FC4F884
:101688009C30D4ED227A77EEA57AC4ED247AD4ED95
:10169800277A94ED267AD4ED246A94ED256A76EEBD
:1016A800C66A37EE267A67EE877AC4ED267AD4F8CA
:1016B8009030C4F89430D4ED267A77EEA77AC4ED4A
:1016C800157AD4ED017A94ED0F7AD4ED026A94ED8F
:1016D800016A76EEC66A27EE267A77EE877AC4ED37
:1016E800017AD4ED077A94ED0F7AD4ED086A94ED77
:1016F800076A76EEC66A27EE267A77EE877AC4ED11
:10170800077A94ED140AD4ED150AB1EE400A0DF0EB
:1017180063F984ED100A10BD90ED0B7AD0ED117AC3
:10172800F1EE677AB4EEE77AF1EE10FA04D5D0ED6F
:10173800117AB1EE677A1DE790ED0B7A1AE794ED0E
:101748000E7AD4ED117AF1EE677AB4EEE77AF1EE1B
:1017580010FA04D5D4ED117AB1EE677A1EE794ED4C
:101768000E7A1BE708E53C1E30B583B0584B1A6E5D
:1017780042F001021A661A6E02F001020192019A01
:101788009A6D42F080529A659A6D02F080520092EA
:10179800009A5048C16821F4E0610904090C4E4AD6
:1017A8000A43C2604D498A6822F480428A604C48E4
:1017B800026822F00F0242F008020260D1F880208D
:1017C80022F48072C1F880201A6842F480321A60CC
:1017D8003F4B1B6813F4003FFAD03D4BD968414A90
:1017E8000A4042F4884242F01302DA60DA683E495D
:1017F80011403E4A0A43DA60DA6842F08072DA60E1
:10180800DA6842F48032DA601A6842F080721A604C
:101818002F4B1B6813F0007FFAD02D4A936843F0D2
:1018280003039360936823F0F00343F0800393600D
:10183800274B9B6803F00C030C2BF9D12C4AD36877
:1018480043F08073D3602B4B1A6842F001021A6090
:1018580000225A60274B5B68632BFBD91C4CA3689A
:1018680023F0F003A360A36823F4E063A360A368F4
:1018780023F46053A360204D28460CF01FFB1F4A39
:10188800136843F00403136028460CF03DFBD4F8BA
:10189800883023F00C0343F00403C4F88830D4F8EC
:1018A800883023F44023C4F88830D4F8883023F0F3
:1018B800405343F08053C4F88830D4F8883023F07C
:1018C800404343F08043C4F8883003B030BD00BFC4
:1018D8000010024000ED00E00003FA05007000402F
:1018E800002002400C80FFF90C80FF071344001809
:1018F800F0ED00E0001000E080FE210A10E000E0BA
:1019080008B5204B93F81033DBB2012B04D01D4BE4
:1019180093F81033EBB108BD08F014F908F0C0FAD9
:1019280008F0B8FB08F0FEFF0CF048F90CF03AFF9D
:101938000CF090FF0CF07CFE0CF060FA08F09CFEB6
:101948000CF04EFE0CF060FE0CF06AFE08F028FA6F
:10195800DDE708F0F7F808F07DFC08F08DFD0AF0E7
:10196800E7FB0CF02BF90CF01DFF0CF061FE0CF0FE
:1019780045FA08F081FE0CF033FE0CF045FE08F045
:101988008FF9C8E70000002008B5FFF7EDFEDC4B33
:10199800DC4AC3F89C20D3ED277AF6EE008A67EE7E
:1019A800A87AC3ED287AD84A9A64D84AC3F880201E
:1019B800D74A9A67D74ADA67B7EE008A83ED188A5A
:1019C800D54A9A65D54AC3F8A420D54ADA6593ED75
:1019D8001E7AC8EE077AC3ED2A7A93ED1F7AC8EE0D
:1019E800077AC3ED2B7AD3F8A420C3F88420002506
:1019F800C3F888505D669D66DD649D62DD62C94CF2
:101A0800012384F81033002284F8122384F8113358
:101A1800C54AC4F82023C54AC4F82823C449C4F8D1
:101A28002C13C449C4F83013C349C4F834134FF015
:101A38008141C4F84813C149C4F83813C049C4F8EF
:101A48003C13D4F83C13C4F84013BE49C4F84413FB
:101A5800022184F8131384F87633C4F85423BA4B5C
:101A6800C4F85833B94BC4F85C33B94BC4F8603385
:101A7800B84BB94A1A60B94A5A60B94A9A60B94A21
:101A8800DA60B94920460CF037F8D4EDC86A9FED02
:101A9800B77AC6EE877AFCEEE77AC4EDD37AD4ED4E
:101AA800C87A88EE277AD4F84C33013307EE903A97
:101AB800F8EE677A67EE277AC4EDC97AD4EDC97A69
:101AC8009FEDAB7A67EE877AC4ED397AA94BC4F8F3
:101AD8000033A94BC4F8E030A84BA361A84B63625C
:101AE8004FF07853C4F83831A64BC4F85C31C4EDD4
:101AF800588AC4F8645194F81033DBB2012B00F013
:101B0800D581DFEDA17A874BC3ED547A93F8103372
:101B1800DBB2012B00F0CF814FF07E52814BC3F82E
:101B28004C214FF07852C3F87821964AC3F89C218B
:101B38004FF07C52C3F8A0210022C3F8A42193F8E7
:101B48001033DBB2012B00F0BA81DFED8F7A754BD1
:101B5800C3ED647A93F81033DBB2012B00F0B58142
:101B68004FF07E526F4BC3F88C2193EDC97AF7EE94
:101B7800006AC6EE877A9FED857A67EE877A9FEDD1
:101B88007C7A67EE877A93EDCF7A27EE877A83EDB2
:101B98005E7A83ED4E7A93EDCE7A67EE877A93ED8F
:101BA800C97A67EE877AC3ED677AC3ED577A93ED02
:101BB8004E7AC6EE877AC3ED587A93ED5E7AC6EE12
:101BC800877AC3ED687A6F4AC3F8B8214D4AC3F8DB
:101BD800DC214FF07C52C3F8E42193F81033DBB2D8
:101BE800012B00F07681DFED687A4E4BC3ED747AF5
:101BF80093F81033DBB2012B00F07381DFED647AC8
:101C0800484CC4ED737AD4EDCE7AF1EE677A94ED50
:101C1800CF7A87EE870AD4EDC97A20EE270A0DF02D
:101C2800DBF884ED800AD4EDCE6AF7EE007A87EE11
:101C3800A67AD4ED806A77EEE67A67EE277AC4ED65
:101C48007E7A544BC4F81C3294EDCE7AF7EE086ACB
:101C580027EE267A84EDA87AD4EDCF7A67EEA67AB5
:101C6800C4EDA97AD4EDD17A9FED4B7A67EE877AE5
:101C780094EDD27A67EE877ADFED486A86EEA77A26
:101C880084EDA77AD4F82433C4F8BC3294EDA77A4B
:101C9800D4EDA77A27EE277ADFED416AC6EE877A78
:101CA800B6EE007A67EE877AC4EDB17AD4F82433B9
:101CB800C4F8DC333B4BC4F8EC333B4BC4F8F0338B
:101CC80094EDD57AD4EDCA7AB4EEE77AF1EE10FA4B
:101CD80040F30F81D4F82823124BC3F8542393ED13
:101CE800D67AD3EDCB7AB4EEE77AF1EE10FA40F378
:101CF8000481D3F82C230B4BC3F8582358E000BFBA
:101D08002C46002017B751380000C04148E1BA3FBF
:101D1800E71DA73BCA54C13B9C534936B1BFAC3DF4
:101D280083A8FB370000002000401C470000484201
:101D38009A998A420000F0426C09F93AB81EC53FE8
:101D48006F12033B00008743000082420AD71F41FD
:101D58000000B4420846002000401C4600E09245BE
:101D68000000C84100E076452005002033409C462D
:101D7800DB0FC9409A99793F0000A041000020413B
:101D880000803B45CDCCCC3C00000000B81E853D12
:101D9800A4707D3F14AE073FEF1F2E410000704234
:101DA80000007A440000FA440060EA46899BD03A71
:101DB800D3EDC96AD3EDC97A1FED047A77EE877A35
:101DC80086EEA77A83EDED7AD3F8B423C3F8C4235B
:101DD800D3F8B423C3F8D423504AC3F88023504A15
:101DE800C3F8F4209FED4F6A83ED406AD3EDC95ADA
:101DF800D3EDC96ADFED4C7A76EEA76A85EEA67A4E
:101E080003F5826282ED007AD3EDC96A93EDC97A4F
:101E180037EE277AC6EE877A03F58462C2ED007A38
:101E2800D3EDC96AD3EDC97A77EE867A86EEA77ABA
:101E380003F5866282ED007A93EDC96A93EDC97A5B
:101E4800DFED3A6A37EE267AC6EE077A03F58C623A
:101E5800C2ED007A93EDC96AD3EDC97A77EEA67A16
:101E680086EE277A03F58E6282ED007A03F58061AB
:101E78002F4A0A6003F588610A6003F58A632D4AD0
:101E88001A60FFF73DFD2C4B1B78002B39D12B4BEB
:101E98009B78DBB2042BF6D1294B5B7BDBB2022BA0
:101EA800F1D1274925480BF0BDFDECE7D4EDCB7AFD
:101EB800F1EE677A27E6214BD3F82C232EE61F4B49
:101EC800D3EDCB7AF1EE677A41E61C4BD3F82C239D
:101ED80048E61A4BD3EDD57A9FED1A7A67EEC77AA2
:101EE80083E6164BD3EDD57A9FED167A67EE877A9F
:101EF80086E6124BD3F85423EEE6104BD3F858235A
:101F0800F9E6BFF34F8F1049CA6802F4E0620F4B3D
:101F18001343CB60BFF34F8F00BFFDE717B7D1382E
:101F28000000AF43CDCCCC3D0AD7A33BCDCC4C3E33
:101F3800320C433D8C2EBA3DB00500200000002035
:101F4800200500206666663F00ED00E00400FA0503
:101F5800F8B52DED028BBE4B5A68BE4B1A60402374
:101F68004FF0A042136002F580721360BA4BD3F8A9
:101F7800BC200132C3F8BC20D3F8C0200132C3F81A
:101F8800C020D3F8C4200132C3F8C420D3F8BC2041
:101F9800D3EDC87AB14991ED007A27EE877AD3ED6F
:101FA800D37AF8EE677A67EE877AFCEEE77A17EE6F
:101FB800903A9A4208D3AA4A536983F480435361FA
:101FC800A54B0022C3F8BC20A34B93F81033002B79
:101FD80042F023814FF0A042D2F88010A14B596003
:101FE800D2F884109960D2F888101960D2F88C2041
:101FF8009A619D4AD2F88810D960D2F88010196188
:10200800D2F884105961D2F88C20DA61924B5B784F
:10201800DBB2052B02F20781DFE813F00600340279
:10202800E4056009FA0CF4108C4B904A1A608D4A4A
:10203800D368A3F2FF7307EE903AF8EEE77A9FEDC4
:102048008C7A67EE877A844CD4EDCB6A67EEA67AF1
:10205800C4EDEA7A1369A3F2FF7307EE903AF8EE3B
:10206800E77A67EE877AD4EDCB6A67EEA67AC4ED95
:10207800EE7A5369A3F2FF7307EE903AF8EEE77A27
:1020880067EE877AD4EDCB6A67EEA67AC4EDF27A6A
:10209800D2ED067AF8EEE77A67EE877AD4EDCB6A66
:1020A80067EEA67AC4EDB27AD2ED007AF8EEE77A56
:1020B80067EE877AD4EDCA6A67EEA67AC4ED337AFA
:1020C800D2ED017AF8EEE77A67EE877AD4EDCA6A3C
:1020D80067EEA67AC4ED347AD2ED027AF8EEE77AA2
:1020E80067EE877A94EDCA7A67EE877AC4ED357A17
:1020F800D4EDED7A94EDEA7AD4EDEC6A37EE667AAF
:1021080067EE877A94EDEC7A77EE877AC4EDEC7A0D
:10211800D4EDF17A94EDEE7AD4EDF06A37EE667A82
:1021280067EE877A94EDF07A77EE877AC4EDF07AE5
:10213800D4EDF57A94EDF27AD4EDF46A37EE667A56
:1021480067EE877A94EDF47A77EE877AC4EDF47ABD
:102158000023C4F8F0300122E270C4F8AC31C4F8AE
:10216800C031C4F8C831C4F8F83094F89D33DBB2F4
:1021780007EE903AF8EE677A9FED3E7A67EE877A37
:1021880077EE877A9FED3C7A77EE677AC4ED3A7AF4
:10219800D4F8E830C4F8D833D4F8903404F576701D
:1021A8009847D4EDF97A9FED357A67EE877AD4EDC2
:1021B800D26A87EEA67A84ED0A7AD4ED3B7AFCEEF1
:1021C800E77A17EE903AD4ED3B7AFCEEE77A17EE11
:1021D800901A94F89D23D2B2052A02F22480DFE8EF
:1021E80012F0060055008600B700E8001901244ADD
:1021F800D2F8980340F0C000C2F89803D2F89403CC
:1022080040F03300C2F894035D184FF4003292FA9C
:10221800A2F2B2FA82F2103AD2B21A481A4C34F840
:1022280012608259120C12042A4382515B1A4FF42D
:10223800002292FAA2F2B2FA82F2103AD2B234F83A
:1022480012104258120C12041343435001F0EBBF12
:10225800001000E02846002000000020AC05002007
:1022680000080048F8460020000100500AD7233C27
:10227800F8078039920A863FDB0F4940EBC91841BD
:10228800006801401C680140D8F400087A4AD2F876
:10229800980340F03000C2F89803D2F8940340F055
:1022A800C300C2F894035D184FF4003292FAA2F208
:1022B800B2FA82F2103AD2B27048714C34F8126015
:1022C8008259120C12042A4382515B1A4FF480126D
:1022D80092FAA2F2B2FA82F2103AD2B234F812109A
:1022E8004258120C12041343435001F09CBF624A37
:1022F800D2F8980340F00300C2F89803D2F8940388
:1023080040F0F000C2F894035D184FF4002292FAEE
:10231800A2F2B2FA82F2103AD2B25848584C34F8C3
:1023280012608259120C12042A4382515B1A4FF42C
:10233800801292FAA2F2B2FA82F2103AD2B234F8C9
:1023480012104258120C12041343435001F06BBF91
:10235800494AD2F8980340F0C000C2F89803D2F86E
:10236800940340F03300C2F894035D1A4FF400322E
:1023780092FAA2F2B2FA82F2103AD2B23F48404C34
:1023880034F812608259120C12042A4382510B4409
:102398004FF4002292FAA2F2B2FA82F2103AD2B2C2
:1023A80034F812104258120C12041343435001F02F
:1023B8003ABF314AD2F8980340F03000C2F8980387
:1023C800D2F8940340F0C300C2F894035D1A4FF4A6
:1023D800003292FAA2F2B2FA82F2103AD2B2274846
:1023E800274C34F812608259120C12042A43825185
:1023F8000B444FF4801292FAA2F2B2FA82F2103A27
:10240800D2B234F812104258120C1204134343503B
:1024180001F009BF184AD2F8980340F00300C2F847
:102428009803D2F8940340F0F000C2F894035D1AC0
:102438004FF4002292FAA2F2B2FA82F2103AD2B221
:102448000E480F4C34F812608259120C12042A43B9
:1024580082510B444FF4801292FAA2F2B2FA82F23D
:10246800103AD2B234F812104258120C1204134324
:10247800435001F0D8BE00BF006801401C6801400D
:10248800D8F40008D74C0023C4F8C0302371D64ACA
:10249800D368A3F2FF7307EE103AB8EEC77ADFED00
:1024A800D36A27EE267AD4EDCB7A27EE277A84ED05
:1024B800EA7A1369A3F2FF7307EE103AB8EEC77A07
:1024C80027EE267AD4EDCB7A27EE277A84EDEE7ABA
:1024D8005369A3F2FF7307EE103AB8EEC77A27EEF6
:1024E800267AD4EDCB7A27EE277A84EDF27AD2EDEC
:1024F800067AF8EEE77A67EEA67A94EDCB7A67EE7D
:10250800877AC4EDB27A92ED007AB8EEC77A27EEF0
:10251800267AD4EDCA7A27EE277AD4ED337A37EEC5
:10252800677A84ED0B7A92ED017AB8EEC77A27EED6
:10253800267AD4EDCA7A27EE277AD4ED347A37EEA4
:10254800677A84ED0C7AD2ED027AF8EEE77A67EED4
:10255800A67A94EDCA7A67EE877A94ED357A77EEA3
:10256800C77AC4ED0D7AD4ED0B7A94ED0B0A67EEB9
:10257800807A94ED0C0A94ED0C7A20EE070A77EE37
:10258800807A94ED0D0A94ED0D7A20EE070A37EE65
:10259800800A0CF029FDDFED967A20EE270A84EDFB
:1025A8000E0AA36BC4F8F43304F58063D3ED007A04
:1025B80094EDFD7AD4EDFF6A37EE667A67EE877A96
:1025C80094EDFF7A77EE877AC4EDFF7AD4F8FC337E
:1025D800E363D4EDED7A94EDEA7AD4EDEC6A37EE64
:1025E800667A67EE877A94EDEC7A77EE877AC4EDAF
:1025F800EC7AD4EDF17A94EDEE7AD4EDF06A37EE18
:10260800667A67EE877A94EDF07A77EE877AC4ED8A
:10261800F07AD4EDF57A94EDF27AD4EDF46A37EEE7
:10262800667A67EE877A94EDF47A77EE877AC4ED66
:10263800F47AD4F8B033C4F88433D4F8C033C4F887
:102648008833D4F8D033C4F88C33D4F8883404F5FC
:102658005E70984794F89D33DBB207EE903AF8EE37
:10266800677A9FED647A67EE877A77EE877A9FEDCF
:10267800627A77EE677AC4ED3A7AD4F8E830C4F82B
:10268800D833D4F8903404F57670984794ED0F7ADF
:10269800DFED5A7AB4EEE77AF1EE10FA08DC94ED41
:1026A800F97AF2EE047AB4EEE77AF1EE10FA03D58D
:1026B800534B4FF07C521A604A4B93EDF97AF2EE85
:1026C800047AB4EEE77AF1EE10FA71DD4C4B4D4A1C
:1026D8001A60444BDB78DBB2012B6ED0414BD3F848
:1026E800F820404BC3F8F82093ED3E7AD3ED3F7ABB
:1026F800D3EDC96A77EEE67AB4EEE77AF1EE10FA2E
:102708000BD5D3EDC97AB5EE007A27EE877AD3EDEB
:102718003E7A77EE877AC3ED3E7A324B93ED3E7A76
:10272800D3ED3F7AD3EDC96A77EEA67AB4EEE77AAD
:10273800F1EE10FA0BDDD3EDC97AB5EE007A27EE8B
:10274800877AD3ED3E7A77EEC77AC3ED3E7A254B8A
:10275800D3F8C020D3EDC87A9FED2B7A67EE877A3D
:10276800FCEEE77A17EE903A9A4205D91D4B002203
:10277800C3F8C02004225A701A4B93F8783323B94F
:10278800184BDB78DBB2012B44D1164B0022DA70F0
:1027980093F89C33DBB2012B13D0124B93F89D3383
:1027A800002B33D00F4B93F89D33013BDBB22EE067
:1027B800134B4FF07E521A608BE70A4BD3F8002177
:1027C8008FE7084B93F89D33DBB2042B08D8054BF1
:1027D80093F89D330133DBB2024A82F89D3319E046
:1027E8000023F9E700000020F8460020F8078039A8
:1027F8009FAA2A3F920A863FDB0F4940CDCC4C3E28
:10280800AC050020CDCC4C3ECDCCCC3D0523C04AF8
:1028180082F89D33BE49D1ED3B7AFCEEE77A17EE9C
:10282800903AD1ED3B7A91ED3E7A67EE877AFCEEED
:10283800E77A17EE902A91F89D13C9B2052936D880
:10284800DFE811F00600D600060136017001A0018C
:10285800B049D1F8980340F0C000C1F89803D1F806
:10286800940340F03300C1F894039D184FF40031ED
:1028780091FAA1F1B1FA81F11039C9B2A648A74C71
:1028880034F811608159090C0904294381519B1AB4
:102898004FF4002292FAA2F2B2FA82F2103AD2B2BD
:1028A80034F812104258120C12041343435098493A
:1028B800D1F884039A4B03F58042906391F878230A
:1028C800D2B207EE902AF8EE677A03F58042C2ED9D
:1028D8000F7AD1F8A40303F580421064D1F87C1371
:1028E80003F5804251641B78002B35D08C4B9A68D5
:1028F80003F58041383109680A3203EB820211601E
:102908009A6803F580413C31096802F20A4203EBF8
:10291800820211609A6803F580414031096802F625
:102928000A0203EB820211609A6803F58041443180
:10293800096802F60A4203EB820211609A680132C2
:102948009A609A6840F2FE339A4205D9744B012284
:102958005A7000221A709A60714B5B78002B01F054
:1029680062846F4BDA689B889BB29A4228D36C4B7F
:102978009A680A3203EB8202116803F58042916279
:102988009A6802F20A4203EB8202116803F5804258
:10299800D1629A6802F60A0203EB8202116803F513
:1029A800804211639A6802F60A4203EB82021168B8
:1029B80003F5804251630022DA609A6801329A6016
:1029C800574BDA680132DA609A6840F2FE339A426D
:1029D80041F22984524B00225A709A60DA609B783F
:1029E800002B01F020844E4B01221A7001F01BBC11
:1029F8004849D1F8980340F03000C1F89803D1F85D
:102A0800940340F0C300C1F894039D184FF40031BB
:102A180091FAA1F1B1FA81F11039C9B23E483F4C9F
:102A280034F811608159090C0904294381519B1A12
:102A38004FF4801292FAA2F2B2FA82F2103AD2B2AB
:102A480034F812104258120C1204134343502EE764
:102A58003049D1F8980340F00300C1F89803D1F841
:102A6800940340F0F000C1F894039D184FF400213E
:102A780091FAA1F1B1FA81F11039C9B22648274C6F
:102A880034F811608159090C0904294381519B1AB2
:102A98004FF4801292FAA2F2B2FA82F2103AD2B24B
:102AA80034F812104258120C120413434350FEE635
:102AB8001849D1F8980340F0C000C1F89803D1F83C
:102AC800940340F03300C1F894039D1A4FF4003189
:102AD80091FAA1F1B1FA81F11039C9B20E480F4C3F
:102AE80034F811608159090C0904294381511344B0
:102AF8004FF4002292FAA2F2B2FA82F2103AD2B25B
:102B080034F812104258120C120413434350CEE604
:102B180000000020006801401C680140D8F400084B
:102B2800C0050020DE49D1F8980340F03000C1F814
:102B38009803D1F8940340F0C300C1F894039D1A98
:102B48004FF4003191FAA1F1B1FA81F11039C9B20B
:102B5800D448D54C34F811608159090C090429432B
:102B6800815113444FF4801292FAA2F2B2FA82F21F
:102B7800103AD2B234F812104258120C120413430D
:102B8800435094E6C649D1F8980340F00300C1F8D1
:102B98009803D1F8940340F0F000C1F894039D1A0B
:102BA8004FF4002191FAA1F1B1FA81F11039C9B2BB
:102BB800BC48BD4C34F811608159090C09042943FB
:102BC800815113444FF4801292FAA2F2B2FA82F2BF
:102BD800103AD2B234F812104258120C12041343AD
:102BE800435064E6B14AD368A3F2FF7307EE103A84
:102BF800B8EEC77ADFEDAE6A27EE267AAD4CD4ED93
:102C0800CB7A27EE277A84EDEA7A1369A3F2FF7369
:102C180007EE103AB8EEC77A27EE267AD4EDCB7ACB
:102C280027EE277A84EDEE7A5369A3F2FF7307EE55
:102C3800103AB8EEC77A27EE267AD4EDCB7A27EE8B
:102C4800277A84EDF27AD2ED067AF8EEE77A67EE23
:102C5800A67A94EDCB7A67EE877AC4EDB27A92EDD4
:102C6800007AB8EEC77A27EE267AD4EDCA7A27EE2C
:102C7800277AD4ED337A37EE677A84ED0B7A92EDC2
:102C8800017AB8EEC77A27EE267AD4EDCA7A27EE0B
:102C9800277AD4ED347A37EE677A84ED0C7AD2ED60
:102CA800027AF8EEE77A67EEA67A94EDCA7A67EECA
:102CB800877A94ED357A77EEC77AC4ED0D7AD4ED3C
:102CC8000B7A94ED0B0A67EE807A94ED0C0A94ED7A
:102CD8000C7A20EE070A77EE807A94ED0D0A94EDCF
:102CE8000D7A20EE070A37EE800A0CF07DF9DFED49
:102CF800727A20EE270A84ED0E0AA36BC4F8F43327
:102D080004F58063D3ED007A94EDFD7AD4EDFF6A83
:102D180037EE667A67EE877A94EDFF7A77EE877AF0
:102D2800C4EDFF7AD4F8FC33E363D4EDED7A94ED87
:102D3800EA7AD4EDEC6A37EE667A67EE877A94ED34
:102D4800EC7A77EE877AC4EDEC7AD4EDF17A94EDEB
:102D5800EE7AD4EDF06A37EE667A67EE877A94ED0C
:102D6800F07A77EE877AC4EDF07AD4EDF57A94EDBF
:102D7800F27AD4EDF46A37EE667A67EE877A94EDE4
:102D8800F47A77EE877AC4EDF47AD4F8B033C4F8DD
:102D98008433D4F8C033C4F88833D4F8D033C4F8B3
:102DA8008C33D4F8883404F55E70984794F89D33D2
:102DB800DBB207EE903AF8EE677A9FED407A67EE5D
:102DC800877A77EE877A9FED3E7A77EE677AC4ED59
:102DD8003A7AD4F8E830C4F8D833D4F8903404F503
:102DE8007670984794ED0F7ADFED367AB4EEE77A8D
:102DF800F1EE10FA08DC94EDF97AF2EE047AB4EE0A
:102E0800E77AF1EE10FA03D52F4B4FF07C521A6097
:102E1800284B93EDF97AF2EE047AB4EEE77AF1EE04
:102E280010FA37DD284B294A1A60224B93ED3C7A79
:102E3800D3ED3D7AB4EEE77AF1EE10FA0BDBD3ED81
:102E4800C97A9FED237A27EE877AD3ED3C7A77EE1D
:102E5800C77AC3ED3C7A174BD3F8C020D3ED3C7A40
:102E6800FCEEE77A17EE903A9A4248D3114B0022CB
:102E7800C3F8C02093F89C33DBB2012B2AD00D4B4A
:102E880093F89D33002B36D00A4B93F89D33013BC2
:102E9800DBB231E00C4B4FF07E521A60C5E700BF41
:102EA800006801401C680140D8F40008F84600207A
:102EB800F8078039000000209FAA2A3F920A863F1F
:102EC800DB0F4940CDCC4C3EAC050020CDCC4C3E70
:102ED8000000FA43B14B93F89D33DBB2042B08D8BA
:102EE800AE4B93F89D330133DBB2AC4A82F89D3385
:102EF80005E00023F9E70523A84A82F89D33A7498E
:102F0800D1ED3B7AFCEEE77A17EE903AD1ED3B7AB9
:102F180091ED3E7A67EE877AFCEEE77A17EE902A13
:102F280091F89D13C9B2052936D8DFE811F00600DB
:102F3800D600060141017101A1019949D1F8980310
:102F480040F0C000C1F89803D1F8940340F0330072
:102F5800C1F894039D184FF4003191FAA1F1B1FA28
:102F680081F11039C9B28F488F4C34F811608159FA
:102F7800090C0904294381519B1A4FF4002292FA43
:102F8800A2F2B2FA82F2103AD2B234F812104258CF
:102F9800120C1204134343508049D1F88403834B25
:102FA80003F58042906391F87823D2B207EE902A15
:102FB800F8EE677A03F58042C2ED0F7AD1F8A403E0
:102FC80003F580421064D1F87C1303F58042516404
:102FD8001B78002B35D0754B9A6803F58041383142
:102FE80009680A3203EB820211609A6803F580418E
:102FF8003C31096802F20A4203EB820211609A68C6
:1030080003F580414031096802F60A0203EB8202A7
:1030180011609A6803F580414431096802F60A4252
:1030280003EB820211609A6801329A609A6840F252
:10303800FE339A4205D95D4B01225A7000221A705C
:103048009A605A4B5B78002B01F0ED80574BDA6899
:103058009B889BB29A4228D3544B9A680A3203EB56
:103068008202116803F5804291629A6802F20A426C
:1030780003EB8202116803F58042D1629A6802F676
:103088000A0203EB8202116803F5804211639A6811
:1030980002F60A4203EB8202116803F5804251638B
:1030A8000022DA609A6801329A60404BDA6801328D
:1030B800DA609A6840F2FE339A4241F2B4803B4BA0
:1030C80000225A709A60DA609B78002B01F0AB807E
:1030D800364B01221A7001F0A6B83149D1F898038D
:1030E80040F03000C1F89803D1F8940340F0C300D1
:1030F800C1F894039D184FF4003191FAA1F1B1FA87
:1031080081F11039C9B22748274C34F81160815928
:10311800090C0904294381519B1A4FF4801292FA31
:10312800A2F2B2FA82F2103AD2B234F8121042582D
:10313800120C1204134343502EE71949D1F898038F
:1031480040F00300C1F89803D1F8940340F0F00070
:10315800C1F894039D184FF4002191FAA1F1B1FA36
:1031680081F11039C9B20F480F4C34F811608159F8
:10317800090C0904294381519B1A4FF4801292FAD1
:10318800A2F2B2FA82F2103AD2B234F812104258CD
:10319800120C120413434350FEE600BF0000002047
:1031A800006801401C680140D8F40008C0050020F0
:1031B8004749D1F8980340F0C000C1F89803D1F806
:1031C800940340F03300C1F894039D1A4FF4003182
:1031D80091FAA1F1B1FA81F11039C9B23D483E4CDA
:1031E80034F811608159090C0904294381511344A9
:1031F8004FF4002292FAA2F2B2FA82F2103AD2B254
:1032080034F812104258120C120413434350C3E608
:103218002F49D1F8980340F03000C1F89803D1F84D
:10322800940340F0C300C1F894039D1A4FF4003191
:1032380091FAA1F1B1FA81F11039C9B22548264CA9
:1032480034F811608159090C090429438151134448
:103258004FF4801292FAA2F2B2FA82F2103AD2B283
:1032680034F812104258120C12041343435093E6D8
:103278001749D1F8980340F00300C1F89803D1F832
:10328800940340F0F000C1F894039D1A4FF4002114
:1032980091FAA1F1B1FA81F11039C9B20D480E4C79
:1032A80034F811608159090C0904294381511344E8
:1032B8004FF4801292FAA2F2B2FA82F2103AD2B223
:1032C80034F812104258120C12041343435063E6A8
:1032D800006801401C680140D8F40008CC4AD36853
:1032E800A3F2FF7307EE103AB8EEC77ADFEDC96AAA
:1032F80027EE267AC84CD4EDCB7A27EE277A84EDD0
:10330800EA7A1369A3F2FF7307EE103AB8EEC77AA8
:1033180027EE267AD4EDCB7A27EE277A84EDEE7A5B
:103328005369A3F2FF7307EE103AB8EEC77A27EE97
:10333800267AD4EDCB7A27EE277A84EDF27AD2ED8D
:10334800067AF8EEE77A67EEA67A94EDCB7A67EE1E
:10335800877AC4EDB27A92ED007AB8EEC77A27EE92
:10336800267AD4EDCA7A27EE277AD4ED337A37EE67
:10337800677A84ED0B7A92ED017AB8EEC77A27EE78
:10338800267AD4EDCA7A27EE277AD4ED347A37EE46
:10339800677A84ED0C7AD2ED027AF8EEE77A67EE76
:1033A800A67A94EDCA7A67EE877A94ED357A77EE45
:1033B800C77AC4ED0D7AD4ED0B7A94ED0B0A67EE5B
:1033C800807A94ED0C0A94ED0C7A20EE070A77EED9
:1033D800807A94ED0D0A94ED0D7A20EE070A37EE07
:1033E800800A0BF001FEDFED8D7A20EE270A84EDCE
:1033F8000E0AA36BC4F8F43304F58063D3ED007AA6
:1034080094EDFD7AD4EDFF6A37EE667A67EE877A37
:1034180094EDFF7A77EE877AC4EDFF7AD4F8FC331F
:10342800E363D4EDED7A94EDEA7AD4EDEC6A37EE05
:10343800667A67EE877A94EDEC7A77EE877AC4ED50
:10344800EC7AD4EDF17A94EDEE7AD4EDF06A37EEB9
:10345800667A67EE877A94EDF07A77EE877AC4ED2C
:10346800F07AD4EDF57A94EDF27AD4EDF46A37EE89
:10347800667A67EE877A94EDF47A77EE877AC4ED08
:10348800F47AD4F8B033C4F88433D4F8C033C4F829
:103498008833D4F8D033C4F88C33D4F8883404F59E
:1034A8005E70984794F89D33DBB207EE903AF8EED9
:1034B800677A9FED5B7A67EE877A77EE877A9FED7A
:1034C800597A77EE677AC4ED3A7AD4F8E830C4F8D6
:1034D800D833D4F8903404F576709847D4EDF97A57
:1034E8009FED517A67EE877AD4EDD26A87EEA67A95
:1034F80084ED0A7A94ED0F7ADFED4C7AB4EEE77A30
:10350800F1EE10FA08DC94EDF97AF2EE047AB4EEF2
:10351800E77AF1EE10FA03D5454B4FF07C521A606A
:103528003D4B93EDF97AF2EE047AB4EEE77AF1EED8
:1035380010FA52DD3E4B3F4A1A60374BD3EDC97A39
:10354800B6EE007A67EE877AD3ED3E6A93ED3F7A5E
:1035580037EE677AF4EEC76AF1EE10FA05D593ED07
:103568003E7A37EE877A83ED3E7A2B4BD3ED3E6A6F
:1035780093ED3F7A37EE877AF4EEC76AF1EE10FAE8
:1035880005DD93ED3E7A77EE677AC3ED3E7A224BFE
:10359800DB78DBB2012B25D01F4BD3F8F8201E4B6C
:1035A800C3F8F82093F8783323B91B4BDB78DBB2E8
:1035B800012B45D1184B0022DA7093F89C33DBB20B
:1035C800012B13D0144B93F89D33002B34D0124B9E
:1035D80093F89D33013BDBB22FE0154B4FF07E5241
:1035E8001A60AAE70C4BD3F80021D8E70A4B93F8E6
:1035F8009D33DBB2042B08D8074B93F89D33013376
:10360800DBB2054A82F89D331AE00023F9E700BFD0
:10361800F8460020F8078039000000209FAA2A3FBA
:10362800920A863FDB0F4940EBC91841CDCC4C3E8E
:10363800AC050020CDCC4C3E0523BD4A82F89D3315
:10364800BB49D1ED3B7AFCEEE77A17EE903AD1ED23
:103658003B7A91ED3E7A67EE877AFCEEE77A17EED1
:10366800902A91F89D13C9B2052936D8DFE811F0E0
:103678000600D000000130016A019A01AD49D1F875
:10368800980340F0C000C1F89803D1F8940340F0C3
:103698003300C1F894039D184FF4003191FAA1F159
:1036A800B1FA81F11039C9B2A348A44C34F81160B9
:1036B8008159090C0904294381519B1A4FF40022AE
:1036C80092FAA2F2B2FA82F2103AD2B234F8121096
:1036D8004258120C120413434350954AD2F88403FB
:1036E800974B03F580418863D2F8880303F580413E
:1036F800C863D2F8A40303F580410864D2F87C13A8
:1037080003F5804251641B78002B35D08C4B9A68A6
:1037180003F58041383109680A3203EB82021160EF
:103728009A6803F580413C31096802F20A4203EBCA
:10373800820211609A6803F580414031096802F6F7
:103748000A0203EB820211609A6803F58041443152
:10375800096802F60A4203EB820211609A68013294
:103768009A609A6840F2FE339A4205D9744B012256
:103778005A7000221A709A60714B5B78002B00F027
:1037880052856F4BDA689B889BB29A4228D36C4B60
:103798009A680A3203EB8202116803F5804291624B
:1037A8009A6802F20A4203EB8202116803F580422A
:1037B800D1629A6802F60A0203EB8202116803F5E5
:1037C800804211639A6802F60A4203EB820211688A
:1037D80003F5804251630022DA609A6801329A60E8
:1037E800574BDA680132DA609A6840F2FE339A423F
:1037F80040F21985524B00225A709A60DA609B7821
:10380800002B00F010854E4B01221A7000F00BBD02
:103818004849D1F8980340F03000C1F89803D1F82E
:10382800940340F0C300C1F894039D184FF400318D
:1038380091FAA1F1B1FA81F11039C9B23E483F4C71
:1038480034F811608159090C0904294381519B1AE4
:103858004FF4801292FAA2F2B2FA82F2103AD2B27D
:1038680034F812104258120C12041343435034E730
:103878003049D1F8980340F00300C1F89803D1F813
:10388800940340F0F000C1F894039D184FF4002110
:1038980091FAA1F1B1FA81F11039C9B22648274C41
:1038A80034F811608159090C0904294381519B1A84
:1038B8004FF4801292FAA2F2B2FA82F2103AD2B21D
:1038C80034F812104258120C12041343435004E700
:1038D8001849D1F8980340F0C000C1F89803D1F80E
:1038E800940340F03300C1F894039D1A4FF400315B
:1038F80091FAA1F1B1FA81F11039C9B20E480F4C11
:1039080034F811608159090C090429438151134481
:103918004FF4002292FAA2F2B2FA82F2103AD2B22C
:1039280034F812104258120C120413434350D4E6D0
:1039380000000020006801401C680140D8F400081D
:10394800C00500202F49D1F8980340F03000C1F895
:103958009803D1F8940340F0C300C1F894039D1A6A
:103968004FF4003191FAA1F1B1FA81F11039C9B2DD
:103978002548264C34F811608159090C090429435B
:10398800815113444FF4801292FAA2F2B2FA82F2F1
:10399800103AD2B234F812104258120C12041343DF
:1039A80043509AE61749D1F8980340F00300C1F84C
:1039B8009803D1F8940340F0F000C1F894039D1ADD
:1039C8004FF4002191FAA1F1B1FA81F11039C9B28D
:1039D8000D480E4C34F811608159090C090429432B
:1039E800815113444FF4801292FAA2F2B2FA82F291
:1039F800103AD2B234F812104258120C120413437F
:103A080043506AE6006801401C680140D8F4000889
:103A1800D94AD368A3F2FF7307EE103AB8EEC77A13
:103A2800DFEDD66A27EE267AD54CD4EDCB7A27EE91
:103A3800277A84EDEA7A1369A3F2FF7307EE103A46
:103A4800B8EEC77A27EE267AD4EDCB7A27EE277A16
:103A580084EDEE7A5369A3F2FF7307EE103AB8EEDD
:103A6800C77A27EE267AD4EDCB7A27EE277A84ED2B
:103A7800F27AD2ED067AF8EEE77A67EEA67A94ED56
:103A8800CB7A67EE877AC4EDB27A92ED007AB8EE17
:103A9800C77A27EE267AD4EDCA7A27EE277AD4EDAC
:103AA800337A37EE677A84ED0B7A92ED017AB8EEC5
:103AB800C77A27EE267AD4EDCA7A27EE277AD4ED8C
:103AC800347A37EE677A84ED0C7AD2ED027AF8EE22
:103AD800E77A67EEA67A94EDCA7A67EE877A94ED6C
:103AE800357A77EEC77AC4ED0D7AD4ED0B7A94ED7A
:103AF8000B0A67EE807A94ED0C0A94ED0C7A20EEAE
:103B0800070A77EE807A94ED0D0A94ED0D7A20EE8F
:103B1800070A37EE800A0BF067FADFED9A7A20EE93
:103B2800270A84ED0E0AA36BC4F8F43304F5806306
:103B3800D3ED007A94EDFD7AD4EDFF6A37EE667A1C
:103B480067EE877A94EDFF7A77EE877AC4EDFF7A8D
:103B5800D4F8FC33E363D4EDED7A94EDEA7AD4ED4E
:103B6800EC6A37EE667A67EE877A94EDEC7A77EE50
:103B7800877AC4EDEC7AD4EDF17A94EDEE7AD4ED4F
:103B8800F06A37EE667A67EE877A94EDF07A77EE28
:103B9800877AC4EDF07AD4EDF57A94EDF27AD4ED23
:103BA800F46A37EE667A67EE877A94EDF47A77EE00
:103BB800877AC4EDF47AD4F8B033C4F88433D4F8EF
:103BC800C033C4F88833D4F8D033C4F88C33D4F86D
:103BD800883404F55E70984794F89D33DBB207EE9D
:103BE800903AF8EE677A9FED687A67EE877A77EE13
:103BF800877A9FED667A77EE677AC4ED3A7A644BF6
:103C0800C4F8F033D4F8E830C4F8D833D4F8903492
:103C180004F576709847D4EDF97A9FED5E7A67EEF1
:103C2800877AD4EDD26A87EEA67A84ED0A7A94ED83
:103C38000F7ADFED597AB4EEE77AF1EE10FA08DC84
:103C480094EDF97AF2EE047AB4EEE77AF1EE10FA2E
:103C580003D5524B4FF07C521A60494B93EDF97AD9
:103C6800F2EE047AB4EEE77AF1EE10FA6BDD4B4B24
:103C78004B4A1A60424BD3EDC97A9FED4A7A67EEF8
:103C8800877AD3ED6B6A93ED077A37EE677AF4EEAD
:103C9800C76AF1EE10FA05D593ED6B7A37EE877A9D
:103CA80083ED6B7A364BD3ED6B6A93ED077A37EE7B
:103CB800877AF4EEC76AF1EE10FA05DD93ED6B7AB8
:103CC80077EE677AC3ED6B7A2D4CD4EDF97AF0EE86
:103CD800E77AC4ED6C7AD4F8743404F5D670984752
:103CE800D4F8D431C4F8F830E378DBB2012B2FD004
:103CF800234BD3F8F820224BC3F8F82093F87833F5
:103D080023B91F4BDB78DBB2012B51D11C4B0022AE
:103D1800DA70D3ED077AF5EEC07AF1EE10FA48BF03
:103D2800012283F89C2393F89C33DBB2012B12D039
:103D3800134B93F89D33002B36D0114B93F89D33DA
:103D4800013BDBB231E0154B4FF07E521A6091E730
:103D5800D4F80021CFE70A4B93F89D33DBB2042B4C
:103D680008D8074B93F89D330133DBB2044A82F835
:103D78009D331DE00023F9E7F8460020F807803955
:103D8800000000209FAA2A3F920A863FDB0F494085
:103D980000401C46EBC91841CDCC4C3EAC05002078
:103DA800CDCC4C3E0000FA430523C44A82F89D332B
:103DB800C249D1ED3B7AFCEEE77A17EE903AD1EDA5
:103DC8003B7A91ED3E7A67EE877AFCEEE77A17EE5A
:103DD800902A91F89D13C9B2052936D8DFE811F069
:103DE80006000E013E017801A801D801B449D1F8B6
:103DF800980340F0C000C1F89803D1F8940340F04C
:103E08003300C1F894039D184FF4003191FAA1F1E1
:103E1800B1FA81F11039C9B2AA48AB4C34F8116033
:103E28008159090C0904294381519B1A4FF4002236
:103E380092FAA2F2B2FA82F2103AD2B234F812101E
:103E48004258120C1204134343509C4AD2F8A80358
:103E58009E4B03F580418863D2F8B80303F580418F
:103E6800C863D2F8C80303F58041086492F89D231B
:103E7800D2B207EE902AF8EE677A03F58042C2EDD7
:103E8800117A1B78002B35D0904B9A6803F5804146
:103E9800383109680A3203EB820211609A6803F527
:103EA80080413C31096802F20A4203EB8202116048
:103EB8009A6803F580414031096802F60A0203EB6B
:103EC800820211609A6803F580414431096802F65C
:103ED8000A4203EB820211609A6801329A609A687A
:103EE80040F2FE339A4205D9784B01225A700022DB
:103EF8001A709A60754B5B78002B00F09481734BB5
:103F08009A680A3203EB8202116844F228041A19EB
:103F180011609A6802F20A4203EB8202116844F2C5
:103F28002C001A1811609A6802F60A0203EB820242
:103F3800156844F230015A1815609A6802F60A4268
:103F480003EB8202166844F234029D182E60452560
:103F58001D745A255D741C5D9C7444F229041C5D13
:103F6800DC7444F22A041C5D1C7544F22B041C5DAD
:103F78005C75185C987544F22D00185CD87544F28D
:103F88002E00185C187644F22F00185C5876595C9D
:103F9800997644F23101595CD97644F23201595C80
:103FA800197744F23301595C59779A5C9A7744F24D
:103FB80035029A5CDA7744F236029A5C83F820205C
:103FC80044F237029A5C83F8212093F82230DBB25E
:103FD800012B00F00D813D4B9A6840F2FE339A4266
:103FE80040F22181394B00225A709A609B78002B4D
:103FF80000F01981354B01221A7014E13049D1F8CB
:10400800980340F03000C1F89803D1F8940340F0C9
:10401800C300C1F894039D184FF4003191FAA1F13F
:10402800B1FA81F11039C9B22648274C34F8116029
:104038008159090C0904294381519B1A4FF48012B4
:1040480092FAA2F2B2FA82F2103AD2B234F812100C
:104058004258120C120413434350F6E61849D1F89B
:10406800980340F00300C1F89803D1F8940340F096
:10407800F000C1F894039D184FF4002191FAA1F1C2
:10408800B1FA81F11039C9B20E480F4C34F81160F9
:104098008159090C0904294381519B1A4FF4801254
:1040A80092FAA2F2B2FA82F2103AD2B234F81210AC
:1040B8004258120C120413434350C6E60000002075
:1040C800006801401C680140D8F40008C0050020C1
:1040D8006F49D1F8980340F0C000C1F89803D1F8AF
:1040E800940340F03300C1F894039D1A4FF4003153
:1040F80091FAA1F1B1FA81F11039C9B26548664C5B
:1041080034F811608159090C090429438151134479
:104118004FF4002292FAA2F2B2FA82F2103AD2B224
:1041280034F812104258120C1204134343508CE610
:104138005749D1F8980340F03000C1F89803D1F8F6
:10414800940340F0C300C1F894039D1A4FF4003162
:1041580091FAA1F1B1FA81F11039C9B24D484E4C2A
:1041680034F811608159090C090429438151134419
:104178004FF4801292FAA2F2B2FA82F2103AD2B254
:1041880034F812104258120C1204134343505CE6E0
:104198003F49D1F8980340F00300C1F89803D1F8DB
:1041A800940340F0F000C1F894039D1A4FF40021E5
:1041B80091FAA1F1B1FA81F11039C9B23548364CFA
:1041C80034F811608159090C0904294381511344B9
:1041D8004FF4801292FAA2F2B2FA82F2103AD2B2F4
:1041E80034F812104258120C1204134343502CE6B0
:1041F80009F0C8FC294B9A6801329A60002283F8BA
:104208002220E8E6264BD3F8BC30012B0BD1254AF7
:10421800536983F40053536105E0214B93F810333D
:10422800DBB2012B0CD0204B5A68204B1A601B685C
:104238001F4A12689B1A1F4A1360BDEC028BF8BD17
:104248004FF0A042D2F880101B4B5960D2F884106E
:104258001960D2F888209A61184AD2F88010D9617A
:10426800936823F0004323F03F0343F0080393606F
:104278000B4B1B78DBB2072BD5D8DFE813F02100F6
:104288002F055108230D011379191F20E02900BFBC
:10429800006801401C680140D8F40008C0050020EF
:1042A8000000002000080048001000E0BC050020C5
:1042B80028460020B4050020F846002000010050E0
:1042C800E84B4FF400529A62E74B00221A615A6198
:1042D800C3F84021C3F84821C3F88021C3F88821D6
:1042E800C3F8C021C3F8C821C3F8E820DF498A62AF
:1042F8000879C0B2C870DE480260D3F824030864A5
:10430800DC49D1ED067AF8EEE77A9FEDDB7A67EEC5
:10431800877A93EDCB7A67EE877A03F22440C0ED73
:10432800007AD1ED007AF8EEE77A03F25440C0ED56
:10433800007AD1ED017AF8EEE77A03F26441C1ED33
:10434800007A1A674FF07E525A6793F81233DBB23D
:10435800012B00F0C583C74BD3ED067AF8EEE77A58
:104368009FEDC57A67EE877ABF4B93EDCB7A67EE00
:10437800877AC3EDB27ABC4C04F58663D3ED007A34
:1043880004F2244393ED007A04F22C41D1ED006A43
:1043980037EE667A67EE877A91ED007A77EE877A5C
:1043A800C1ED007A04F58C63D3ED007A04F254432E
:1043B80093ED007A04F25C42D2ED006A37EE667A39
:1043C80067EE877A92ED007A77EE877AC2ED007A07
:1043D80004F58E63D3ED007A04F2644393ED007A1A
:1043E80004F26C43D3ED006A37EE667A67EE877A9B
:1043F80093ED007A77EE877AC3ED007A0968C4F8FE
:10440800C8121268C4F8CC201B68C4F8D030D4F89D
:104418001031C4F8CC32D4F81431C4F8D032D4F8FE
:104428001831C4F8D432D4F8803404F5327098477F
:10443800D4EDBA7A94ED1D7A67EE877A94EDBB7A5B
:10444800D4ED1C6A27EE267A77EE877AC4EDBC7A1B
:10445800D4EDBA7A94ED1C7A67EEC77A94EDBB7AFC
:10446800D4ED1D6A27EE267A77EE877AC4EDBD7AF9
:10447800D4ED3B7AB6EE007A27EE877A77EE877A24
:10448800FCEEE77A17EE903A4FF4003292FAA2F275
:10449800B2FA82F2103AD2B27849794830F812402A
:1044A8000A59120C12041A430A514FF4002292FAC4
:1044B800A2F2B2FA82F2103AD2B230F812400A5995
:1044C800120C12041A430A514FF4801292FAA2F203
:1044D800B2FA82F2103AD2B230F812000A58120C2C
:1044E800120413430B50674AD2F8943343F0F30392
:1044F800C2F89433644BD3ED127A93ED077A67EEE2
:10450800877AC3ED037AD3ED127A93ED087A67EED2
:10451800877AC3ED047AD3ED127A93ED097A67EEC0
:10452800877AC3ED057AD3ED037A93ED047A77EEB3
:10453800877A93ED057A77EE877A9FED547A67EE5E
:10454800877AC3ED067AD3ED037A93ED067A77EE90
:10455800C77AC3ED007AD3ED047A93ED067A77EE45
:10456800C77AC3ED017AD3ED057A93ED067A77EE33
:10457800C77AC3ED027A1A689A63D3ED007A9FED81
:10458800447A67EE877A93ED017ADFED426A27EE87
:10459800267A77EE877AC3ED0F7AD3ED197AB0EEE3
:1045A800677ABEEEC47A17EE102AD5173A49A2FBED
:1045B800016701FB0577320E42EA072202F5800205
:1045C8005112A1F5005343F30D0303FB03F31A1330
:1045D80040F6BC5303FB02F044F6BC53A3EBA033F4
:1045E80003FB02F31B14C3F580531B0311F4804F24
:1045F80040F07D8207EE903AF8EEE77A9FED277A51
:1046080067EE877A204BC3ED1B7AD3ED197AB0EEAB
:10461800677ABEEEC47A17EE102AD5171E49A2FB98
:10462800016701FB0577320E42EA07225112A1F514
:10463800005343F30D0303FB03F31A1340F6BC5373
:1046480003FB02F044F6BC53A3EBA03303FB02F3D5
:104658001B14C3F580531B0311F4804F40F04982AB
:104668001EE000BF000800480000002020050020D0
:10467800AC050020F8460020F80780391C68014086
:10468800D8F40008006801402C460020AAAAAA3ED7
:104698003ACD133F3ACD933F60BE280000008033E7
:1046A80007EE903AF8EEE77A1FED047A67EE877A1C
:1046B800F34BC3ED1C7AD3ED0E7A93ED1B7A67EEBC
:1046C800877A93ED0F7AD3ED1C6A27EE267A77EE78
:1046D800877AC3ED107AD3ED0E7A93ED1C7A67EEE4
:1046E800C77A93ED0F7AD3ED1B6A27EE267A77EE19
:1046F800877AC3ED117AD3ED107A93ED0C7AD3ED66
:10470800206A27EE267A77EEC77A93ED227AD3EDE0
:10471800136A27EE267A77EE877AC3ED257AD3EDEA
:10472800117A93ED0D7AD3ED206A27EE267A77EE8B
:10473800C77A93ED217AD3ED136A27EE267A77EEBE
:10474800C77AC3ED267AD3ED217A93ED257AD3ED96
:10475800276A27EE267A77EE877AC3ED237AD3ED98
:10476800227A93ED267AD3ED276A27EE267A77EE1A
:10477800877AC3ED247AD3ED237A93ED297A77EEFD
:10478800C77A93ED2A7A67EE877AC3ED0C7AD3ED70
:10479800247A93ED2B7A67EE877AC3ED0D7A93ED41
:1047A800217AD3ED286A93ED256AD3ED107AD3EDFB
:1047B8000C5A93ED205A65EE855A77EEE57AD3EDDB
:1047C800225A93ED135A65EE855A77EEA57A76EE5E
:1047D800277A66EEA77A77EE277AC3ED217A93EDEA
:1047E800227AD3ED286A93ED266AD3ED117AD3EDB8
:1047F8000D5A93ED205A65EE855A77EEE57AD3ED9A
:10480800215A93ED135A65EE855A77EEE57A76EEDE
:10481800277A66EEA77A77EE277AC3ED227AD3ED68
:10482800217A93ED297A77EEC77A93ED2A7A67EEA3
:10483800877AC3ED0C7AD3ED227A93ED2B7A67EE63
:10484800877AC3ED0D7AD3ED0C7A93ED1B7A67EE78
:10485800877A93ED0D7AD3ED1C6A27EE267A77EEE8
:10486800C77AC3ED0A7AD3ED0C7A93ED1C7A67EE1A
:10487800877A93ED0D7AD3ED1B6A27EE267A77EEC9
:10488800877AC3ED0B7AD3ED187AB7EE087A67EE1C
:10489800877A93ED217AD3ED0D6A27EE267AD3ED48
:1048A800226A93ED0C6A66EE866A37EE667A67EEE0
:1048B800877AC3ED157A0022C3F8C420D3ED137AA2
:1048C800F5EEC07AF1EE10FA07DDD3ED307A93ED0C
:1048D800177A77EE877AC3ED317A694BD3ED137A7D
:1048E800F5EEC07AF1EE10FA00F10581644BD3EDD4
:1048F800276A93ED167AC6EE877A93ED157AD3ED8B
:10490800316A37EE667A67EE877AF0EEE76A93EDFA
:10491800137AB0EEC77AF4EEC76AF1EE10FA0EDD3C
:1049280093ED157AB0EEC77AD3ED306AB4EEE67A35
:10493800F1EE10FA03D5DFED537AC3ED137A504C3C
:1049480094ED137A77EE277AC4ED137AE06CFBF7CF
:10495800A3FD49A3D3E90023FBF7F6FDFCF706F80E
:104968002065D4ED137A94ED157A67EE877AC4ED55
:104978002F7AA36AC4F8B03094ED0A7AFEEE005A92
:1049880027EE257AD4ED0B6A9FED3F6A66EE866ABC
:1049980037EE267A84ED2D7AD4ED0A7A67EEA57A79
:1049A80094ED0B7A27EE067A77EEC77AC4ED2E7A65
:1049B800D4ED1A7A94ED277AD4ED136A27EE267A85
:1049C80077EE877AC4ED1A7A94ED1A7ADFED2F7AAA
:1049D800B4EEE77AF1EE10FA07DD94ED1A7ADFED1E
:1049E8002C7A77EEC77AC4ED1A7A254B93ED1A7AAA
:1049F800DFED287AB4EEE77AF1EE10FA07D5D3EDB9
:104A08001A7A9FED257A77EE877AC3ED1A7A1C4BCE
:104A1800D3ED1A7A93ED187A67EE877AC3ED197A8F
:104A280093ED197ADFED197AB4EEE77AF1EE10FA20
:104A380007DD93ED197ADFED167A77EEC77AC3EDC5
:104A4800197A0F4B93ED197ADFED127AB4EEE77A03
:104A5800F1EE10FA07D5D3ED197A9FED0F7A77EEBC
:104A6800877AC3ED197A0D4C94EDB27AF3EE047A95
:104A7800B4EEE77A14E000BF529D0E643D1923405E
:104A88002C46002000000000D7B35D3FDA0F4940F4
:104A9800DA0FC9C0DA0F49C0DA0FC9400000002098
:104AA800F1EE10FAACBF0123002384F87533636C70
:104AB800C4F86433E36EC4F86833D4F8C832C4F871
:104AC8006C33824B1B69C4F87033D4F8843404F512
:104AD8005470984794F87433C3B92378DBB216E05E
:104AE8007B4B9A6CA0F25443C3F8C82243E45B4260
:104AF80080E55B42D4E5D3ED307AF1EE677A93ED49
:104B0800177A77EEC77AC3ED317AEFE60723714A51
:104B180013706F4B586E704B03F580418863D2F861
:104B28002C0203F58041C863D2F82C0103F58041BB
:104B38000864D2F86C1103F5804251641B78002B8D
:104B480035D0654B9A6803F58041383109680A32D7
:104B580003EB820211609A6803F580413C310968D1
:104B680002F20A4203EB820211609A6803F580415F
:104B78004031096802F60A0203EB820211609A6862
:104B880003F580414431096802F60A4203EB8202C8
:104B980011609A6801329A609A6840F2FE339A422C
:104BA80005D94D4B01225A7000221A709A604A4B5F
:104BB8005B78002B3FF437AB474B9A680A3203EB1C
:104BC8008202116844F228041A1911609A6802F2E4
:104BD8000A4203EB8202116844F22C001A18116091
:104BE8009A6802F60A0203EB8202156844F2300161
:104BF8005A1815609A6802F60A4203EB8202166890
:104C080044F234029D182E6045251D745A255D74A2
:104C18001C5D9C7444F229041C5DDC7444F22A0473
:104C28001C5D1C7544F22B041C5D5C75185C987542
:104C380044F22D00185CD87544F22E00185C1876E2
:104C480044F22F00185C5876595C997644F2310189
:104C5800595CD97644F23201595C197744F2330130
:104C6800595C59779A5C9A7744F235029A5CDA77FC
:104C780044F236029A5C83F8202044F237029A5CA8
:104C880083F8212093F82230DBB2012B13D0124B8A
:104C98009A6840F2FE339A427FF6C5AA0E4B00226C
:104CA8005A709A609B78002B3FF4BDAA0A4B0122E8
:104CB8001A70FFF7B8BA08F065FF074B9A68013217
:104CC8009A60002283F82220E1E700BF084600200E
:104CD8002C46002000000020C0050020D74B93ED93
:104CE800387AD3EDC97A67EE877AD3ED366A93EDD1
:104CF800377A37EE677AF4EEC76AF1EE10FA05D51F
:104D080093ED367A37EE877A83ED367ACB4BD3ED4F
:104D1800366A93ED377A37EE877AF4EEC76AF1EEA2
:104D280010FA05DD93ED367A77EE677AC3ED367AB9
:104D3800C24BD3ED397A93ED367A27EE877AD3EDE5
:104D48003A7A77EE877AC3ED3A7A93ED3A7ADFEDDD
:104D5800BC7AB4EEE77AF1EE10FA40F18380D3ED35
:104D68003A7A9FEDB87A77EE877AC3ED3A7AB34B01
:104D7800D3ED3A7AB44B1B6803F00F03012B08D02C
:104D8800B14A1168B14B0B4043F4002343F061036F
:104D980013609FEDAF7A67EE877AFEEEE07AAA4A53
:104DA800C2ED017A92ED027AB8EEC77ADFEDA96A10
:104DB80027EE267AA14B83ED1C7AD2ED027AF8EE23
:104DC800E77A67EEA67AC3ED1D7A93F81233DBB261
:104DD800012B5BD0994B93F81233002B6ED19E4A6E
:104DE800D2ED007AF8EEE77A944B93ED337A77EECA
:104DF800C77A93EDCA7ADFED996A27EE267A67EECD
:104E0800877AC3ED117AD2ED017AF8EEE77A93ED5D
:104E1800347A77EEC77A93EDCA7A27EE267A67EE68
:104E2800877AC3ED1B7AD3ED117A9FED8D7A67EE01
:104E3800877A93ED1B7ADFED8B6A27EE267A77EE79
:104E4800877AC3ED127AD2ED067AF8EEE77A9FED0B
:104E5800867A67EE877A93EDCB7A67EE877AC3ED29
:104E6800B27A2BE0754B93ED3A7ADFED807AB4EEA7
:104E7800E77AF1EE10FA7FF77AAFD3ED3A7A9FED41
:104E8800717A77EEC77AC3ED3A7A70E7784BD3F840
:104E9800B0106A4A5164D3ED2C7A9FED717A67EEAF
:104EA800877A93ED2D7ADFED6F6A27EE267A77EE13
:104EB800877AC2ED127A9B6CC2F8C8325F4CE26CFA
:104EC80004F204431A60226D04F214410A60D4F813
:104ED800C80204F22442106004F58260D0ED007A22
:104EE80093ED007A04F20C43D3ED006A37EE667A4C
:104EF80067EE877A93ED007A77EE877AC3ED007ACA
:104F080004F58463D3ED007A91ED007A04F21C4332
:104F1800D3ED006A37EE667A67EE877A93ED007A0A
:104F280077EE877AC3ED007A04F58663D3ED007ACD
:104F380092ED007A04F22C43D3ED006A37EE667ADC
:104F480067EE877A93ED007A77EE877AC3ED007A79
:104F58001B68C4F8C832D4F81031C4F8CC32D4F87D
:104F68001431C4F8D032D4F81831C4F8D432D4F893
:104F7800803404F532709847D4EDBA7A94ED1D7AEE
:104F880067EE877A94EDBB7AD4ED1C6A27EE267A11
:104F980077EE877AC4EDBC7AD4EDBA7A94ED1C7AB0
:104FA80067EEC77A94EDBB7AD4ED1D6A27EE267AB0
:104FB80077EE877AC4EDBD7AD4ED027A94ED1D7A46
:104FC80067EE877A94ED037AD4ED1C6A27EE267A89
:104FD80077EEC77AC4ED417AD4ED037A94ED1D7A61
:104FE80067EE877A94ED027AD4ED1C6A27EE267A6A
:104FF80077EE877AC4ED427AD4F8C832C4F80C3117
:10500800D4F8783404F582709847636CC4F8643334
:10501800E36EC4F86833D4F8C832C4F86C33154B5F
:105028001B69C4F87033D4F8843404F55470984775
:1050380094F8743303BB2378DBB21EE00000002031
:10504800DB0F49C0DB0FC940000C024000F887FFA6
:1050580083F9A23E00000030F8460020D5FFFF3952
:105068003ACD133F3ACD933FF8078039DB0F4940DB
:105078002C460020084600200723A44A1370D2F8C3
:105088001011A34BD961D2F814111962D2F8181172
:105098005962D2ED446A92ED457A92ED466AD2EDB4
:1050A8003B7A66EEA76A77EEA66AFCEEE66A4FF4EC
:1050B800003393FAA3F3B3FA83F3103BDBB29549B9
:1050C800954830F813400B591B0C1B0416EE905AE8
:1050D8001D430D5127EE277A37EE877ABCEEC77A43
:1050E8004FF4002393FAA3F3B3FA83F3103BDBB234
:1050F80030F813400B591B0C1B0417EE105A1D43B4
:105108000D5126EE277A77EE877AFCEEE77A4FF490
:10511800801393FAA3F3B3FA83F3103BDBB230F8AE
:1051280013000B581B0C1B0417EE904A1C430C5021
:1051380092ED027A794BD3ED097AB4EE677AF1EE03
:1051480010FA02D192F8743313B1744B01221A7019
:105158006E4A9168714B5962506C03F580418863BF
:10516800D06E03F58041C863D2F8100103F5804181
:105178000864D2F8DC1203F5804251641B78002BD6
:1051880035D0664B9A6803F58041383109680A3290
:1051980003EB820211609A6803F580413C3109688B
:1051A80002F20A4203EB820211609A6803F5804119
:1051B8004031096802F60A0203EB820211609A681C
:1051C80003F580414431096802F60A4203EB820282
:1051D80011609A6801329A609A6840F2FE339A42E6
:1051E80005D94E4B01225A7000221A709A604B4B17
:1051F8005B78002B3FF417A8484B9A680A3203EBF8
:105208008202116844F228041A1911609A6802F29D
:105218000A4203EB8202116844F22C001A1811604A
:105228009A6802F60A0203EB8202156844F230011A
:105238005A1815609A6802F60A4203EB8202166849
:1052480044F234029D182E6045251D745A255D745C
:105258001C5D9C7444F229041C5DDC7444F22A042D
:105268001C5D1C7544F22B041C5D5C75185C9875FC
:1052780044F22D00185CD87544F22E00185C18769C
:1052880044F22F00185C5876595C997644F2310143
:10529800595CD97644F23201595C197744F23301EA
:1052A800595C59779A5C9A7744F235029A5CDA77B6
:1052B80044F236029A5C83F8202044F237029A5C62
:1052C80083F8212093F82230DBB2012B13D0134B43
:1052D8009A6840F2FE339A427EF6A5AF0F4B002241
:1052E8005A709A609B78002B3EF49DAF0B4B0122BD
:1052F8001A70FEF798BF08F045FC084B9A6801320F
:105308009A60002283F82220E1E700BF0000002015
:105318002C4600201C680140D8F40008C005002075
:10532800D84BD94A1A60D94BD94A1A61D3ED397A80
:1053380093ED367A27EE877AD3ED3A7A77EE877A45
:10534800C3ED3A7A93ED3A7ADFEDD27AB4EEE77AA2
:10535800F1EE10FA40F18380D3ED3A7A9FEDCE7AE0
:1053680077EE877AC3ED3A7AC84BD3ED3A7ACB4BCE
:105378001B6803F00F03012B08D0C84A1168C84BFB
:105388000B4043F4002343F0610313609FEDC57A9B
:1053980067EE877AFEEEE07AC04AC2ED017A92EDB6
:1053A800027AB8EEC77ADFEDC06A27EE267AB74BE5
:1053B80083ED1C7AD2ED027AF8EEE77A67EEA67AE8
:1053C800C3ED1D7A93F81233DBB2012B5BD0AF4BE0
:1053D80093F81233002B6ED1B44AD2ED007AF8EE6E
:1053E800E77AAA4B93ED337A77EEC77A93EDCA7AC8
:1053F800DFEDAF6A27EE267A67EE877AC3ED117A7A
:10540800D2ED017AF8EEE77A93ED347A77EEC77A3F
:1054180093EDCA7A27EE267A67EE877AC3ED1B7A70
:10542800D3ED117A9FEDA37A67EE877A93ED1B7A15
:10543800DFEDA16A27EE267A77EE877AC3ED127A36
:10544800D2ED067AF8EEE77A9FED9C7A67EE877AD6
:1054580093EDCB7A67EE877AC3EDB27A2BE08B4B6C
:1054680093ED3A7ADFED967AB4EEE77AF1EE10FA38
:105478007FF77AAFD3ED3A7A9FED877A77EEC77ADE
:10548800C3ED3A7A70E78F4BD3F8B0107F4A516476
:10549800D3ED2C7A9FED877A67EE877A93ED2D7A94
:1054A800DFED856A27EE267A77EE877AC2ED127AE3
:1054B8009B6CC2F8C832754CE26C04F204431A6063
:1054C800226D04F214410A60D4F8C80204F224429E
:1054D800106004F58260D0ED007A93ED007A04F252
:1054E8000C43D3ED006A37EE667A67EE877A93ED60
:1054F800007A77EE877AC3ED007A04F58463D3EDFA
:10550800007A91ED007A04F21C43D3ED006A37EE7D
:10551800667A67EE877A93ED007A77EE877AC3ED3D
:10552800007A04F58663D3ED007A92ED007A04F2EE
:105538002C43D3ED006A37EE667A67EE877A93EDEF
:10554800007A77EE877AC3ED007A1B68C4F8C83210
:10555800D4ED117A94ED1D7A67EE877A94ED127A7C
:10556800D4ED1C6A27EE267A77EE877AC4ED137A93
:10557800D4ED117A94ED1C7A67EEC77A94ED127A1D
:10558800D4ED1D6A27EE267A77EE877AC4ED147A71
:105598002369C4F82C316369C4F86C31E36CC4F82E
:1055A8003031236DC4F87031D4F8743404F5967032
:1055B8009847D4F8743404F5B6709847D4F8543141
:1055C800C4F8F032D4F89431C4F8F432D4EDC07A87
:1055D8009FED3D7A67EE877A9FED3C7A67EE877A92
:1055E80094EDB27A67EE877AC4EDBE7A94EDBE0A7E
:1055F80004F53D7104F53C7009F03CFAD4F810311B
:10560800C4F8CC32D4F81431C4F8D032D4F81831F4
:10561800C4F8D432D4F8803404F532709847D4ED05
:10562800BC7A94ED1D7A67EE877A94EDBD7AD4ED55
:105638001C6A27EE267A77EEC77AC4ED417AD4ED54
:10564800BD7A94ED1D7A67EE877A94EDBC7AD4ED35
:105658001C6A27EE267A77EE877AC4ED427AD4F868
:10566800C832C4F80C31D4F8783404F582709847FD
:1056780000221146104609232DE0012333E00123BF
:1056880038E000BFAC050020CDCCCC3D00000020A8
:1056980000002041DB0F49C0DB0FC940000C02406D
:1056A80000F887FF83F9A23E00000030F84600208A
:1056B800D5FFFF393ACD133F3ACD933FF8078039EC
:1056C800DB0F49402C4600203BAA2A3FD7B35D3F59
:1056D80001231A4423465C1EA3B19B4B1B6913F09C
:1056E800800FCAD100231844974B1B6913F4807F9D
:1056F800C5D100231944944B1B6913F4007FE7D1EB
:105708000023E6E70428D4BF002001208F4B18703F
:105718000429D4BF002101215970042AD4BF0022D2
:1057280001229A701B782BB9884B5B78DBB2012B6E
:1057380000F0B380854B1B782BB9844B5B78DBB2C8
:10574800012B00F0B380814B1B7843B97F4B5B780A
:105758002BB97E4B9B78DBB2012B00F0B1807B4BE1
:105768001B78DBB2012B00F0AF80784B1B78DBB2E3
:10577800012B00F0B880754B1B78DBB2012B00F0D1
:10578800C080724BDA78D2B21B79DBB29A4224D04D
:105798006E4B5B7B002B40F0C3806D4BD3F8E81059
:1057A8006A4AD378103302EB83035960537BDBB228
:1057B800012B00F0BC80654BDA78163203EB8203CC
:1057C8005968624AD378163302EB83035960604BF9
:1057D800D3F8E83013610123D3735C4BDA78D2B283
:1057E8001A715B4AD2ED397A92ED367A27EE877ACA
:1057F800D3ED0A7A77EE877AC3ED0A7A93ED0A7ABF
:10580800DFED547AB4EEE77AF1EE10FA0CDD5B7B4B
:1058180053B9D2ED367AF1EE677AC2ED367A4B4B50
:105828004D4A9A6201225A73484B93ED0A7ADFED8A
:105838004B7AB4EEE77AF1EE10FA03D55B7BDBB274
:10584800012B78D0414B5B7BDBB2022B00F0CF8081
:105858003F4CD4F8C032C4F8D833D4F8903404F5A7
:1058680076709847636CC4F86433E36EC4F86833A1
:10587800D4F8C832C4F86C33394B1B69C4F8703398
:10588800D4F8843404F55470984794F87433002B92
:1058980040F0BA802378DBB2B7E02C4B9B78002B22
:1058A8007FF448AF294B0022DA706AE7274B9B78D0
:1058B800DBB2012B7FF447AF244B0122DA7060E79B
:1058C800224B0222DA705CE7204B5B78002B7FF4D6
:1058D8004CAF1E4B9B78DBB2012B7FF446AF1B4BC2
:1058E8000322DA704DE7194B5B78002B7FF443AF46
:1058F800164B9B78002B7FF43EAF144B0422DA70D2
:105908003FE7124B5B78DBB2012B7FF43AAF0F4BCA
:105918009B78002B7FF435AF0C4B0522DA7030E70B
:105928000A4BDA78103203EB8203596838E7084BE0
:10593800D3F8E81045E7064B0022C3F8D820034BFC
:1059480002225A737EE700BF0004004820050020A9
:105958000000002062DCC840DB0FC9406F12833AA8
:105968000846002004F11C03C84A02EB830393EDA8
:10597800017ADFEDC77AB4EEE77AF1EE10FA0ADDC4
:105988001C3602EB8606D6ED017A9FEDC27A77EED9
:10599800C77AC6ED017A0134E4B2052C29D8264627
:1059A800BA4D04F1100305EB830393ED010A04F1EA
:1059B800160305EB8303D3ED010A09F093F904F10B
:1059C8001C0305EB830585ED010A95ED017ADFEDF2
:1059D800B27AB4EEE77AF1EE10FAC3D5D5ED017AD2
:1059E8009FEDAC7A77EE877AC5ED017AD3E700248C
:1059F800D3E7AA4B00221A615A61C3F8DC20C3F826
:105A0800D82000221A7023E70723A44A1370D2F87B
:105A18001011A34BD961D2F814111962D2F81811D8
:105A28005962D2ED446A92ED457A92ED466AD2ED1A
:105A38003B7A66EEA76A77EEA66AFCEEE66A4FF452
:105A4800003393FAA3F3B3FA83F3103BDBB295491F
:105A5800954830F813400B591B0C1B0416EE905A4E
:105A68001D430D5127EE277A37EE877ABCEEC77AA9
:105A78004FF4002393FAA3F3B3FA83F3103BDBB29A
:105A880030F813400B591B0C1B0417EE105A1D431A
:105A98000D5126EE277A77EE877AFCEEE77A4FF4F7
:105AA800801393FAA3F3B3FA83F3103BDBB230F815
:105AB80013000B581B0C1B0417EE904A1C430C5088
:105AC800D2ED047AF5EE407AF1EE10FA09D1D2ED72
