:020000040800F2
:100000000000022035F100089DD60008ABD600089C
:10001000B1D60008B7D60008BDD600080000000021
:10002000000000000000000000000000C3D600082F
:10003000D1D6000800000000DFD60008EDD6000889
:1000400085F1000885F1000885F1000885F10008B8
:1000500085F1000885F1000885F1000885F10008A8
:1000600085F1000885F1000885F1000885F1000898
:1000700085F1000885F1000885F1000885F1000888
:1000800051D7000885F10008853A000885F100087D
:1000900085F1000885F1000885F10008FBD600080D
:1000A00085F1000885F1000885F1000885F1000858
:1000B000BD8B000885F1000885F1000885F1000876
:1000C00085F1000885F1000885F1000885F1000838
:1000D00085F1000885F1000881D7000885F1000846
:1000E00085F1000885F1000885F1000885F1000818
:1000F00085F1000885F1000885F1000885F1000808
:1001000085F1000885F1000885F1000885F10008F7
:1001100085F1000885F1000885F1000815D7000871
:1001200085F1000885F1000885F1000885F10008D7
:1001300085F1000885F1000885F1000885F10008C7
:1001400085F1000885F1000885F1000885F10008B7
:1001500085F1000885F1000885F1000885F10008A7
:1001600085F1000835D7000885F1000885F1000801
:1001700085F1000885F1000885F1000885F1000887
:1001800085F1000885F1000885F1000885F1000877
:1001900085F100080000000085F1000885F10008E5
:1001A00085F1000885F1000885F1000885F1000857
:1001B00085F1000885F1000885F1000885F1000847
:1001C00085F1000885F1000885F1000885F1000837
:0801D00085F1000885F100082B
:1001D80081F0004102E000BF83F0004330B54FEAF0
:1001E80041044FEA430594EA050F08BF90EA020F5D
:1001F8001FBF54EA000C55EA020C7FEA645C7FEAF0
:10020800655C00F0E2804FEA5454D4EB5555B8BF12
:100218006D420CDD2C4480EA020281EA030382EA83
:10022800000083EA010180EA020281EA0303362D15
:1002380088BF30BD11F0004F4FEA01314FF4801CE8
:100248004CEA113102D0404261EB410113F0004FFA
:100258004FEA03334CEA133302D0524263EB4303B1
:1002680094EA050F00F0A780A4F10104D5F1200E4F
:100278000DDB02FA0EFC22FA05F2801841F10001AA
:1002880003FA0EF2801843FA05F359410EE0A5F17E
:1002980020050EF1200E012A03FA0EFC28BF4CF0AF
:1002A800020C43FA05F3C01851EBE37101F0004565
:1002B80007D54FF0000EDCF1000C7EEB00006EEB72
:1002C8000101B1F5801F1BD3B1F5001F0CD34908FC
:1002D8005FEA30004FEA3C0C04F101044FEA445253
:1002E80012F5800F80F09A80BCF1004F08BF5FEADA
:1002F800500C50F1000041EB045141EA050130BDBA
:100308005FEA4C0C404141EB010111F4801FA4F15C
:100318000104E9D191F0000F04BF01460020B1FAB1
:1003280081F308BF2033A3F10B03B3F120020CDAE9
:100338000C3208DD02F1140CC2F10C0201FA0CF0C7
:1003480021FA02F10CE002F11402D8BFC2F1200C2C
:1003580001FA02F120FA0CFCDCBF41EA0C019040E2
:10036800E41AA2BF01EB0451294330BD6FEA04042B
:100378001F3C1CDA0C340EDC04F11404C4F1200216
:1003880020FA04F001FA02F340EA030021FA04F328
:1003980045EA030130BDC4F10C04C4F1200220FA7F
:1003A80002F001FA04F340EA0300294630BD21FABD
:1003B80004F0294630BD94F0000F83F4801306BF83
:1003C80081F480110134013D4EE77FEA645C18BF77
:1003D8007FEA655C29D094EA050F08BF90EA020F0E
:1003E80005D054EA000C04BF1946104630BD91EA06
:1003F800030F1EBF0021002030BD5FEA545C05D109
:100408004000494128BF41F0004130BD14F5800447
:100418003CBF01F5801130BD01F0004545F0FE41BB
:1004280041F470014FF0000030BD7FEA645C1ABFF0
:10043800194610467FEA655C1CBF0B46024650EA27
:10044800013406BF52EA033591EA030F41F4002153
:1004580030BD00BF90F0000F04BF0021704730B5D9
:100468004FF4806404F132044FF000054FF00001AE
:1004780050E700BF90F0000F04BF0021704730B56F
:100488004FF4806404F1320410F0004548BF404244
:100498004FF000013EE700BF42004FEAE2014FEA99
:1004A80031014FEA02701FBF12F07F4393F07F4F74
:1004B80081F06051704732F07F4208BF704793F077
:1004C8007F4F04BF41F40021704730B54FF460748A
:1004D80001F0004521F000411CE700BF50EA01028D
:1004E80008BF704730B54FF000050AE050EA010236
:1004F80008BF704730B511F0004502D5404261EBA6
:1005080041014FF4806404F132045FEA915C3FF4E6
:10051800D8AE4FF003025FEADC0C18BF03325FEA83
:10052800DC0C18BF033202EBDC02C2F1200300FA34
:1005380003FC20FA02F001FA03FE40EA0E0021FA59
:1005480002F11444BDE600BF70B54FF0FF0C4CF447
:10055800E06C1CEA11541DBF1CEA135594EA0C0FF9
:1005680095EA0C0F00F0DEF82C4481EA030621EA34
:100578004C5123EA4C5350EA013518BF52EA03356F
:1005880041F4801143F4801338D0A0FB02CE4FF021
:100598000005E1FB02E506F00042E0FB03E54FF051
:1005A8000006E1FB03569CF0000F18BF4EF0010E49
:1005B800A4F1FF04B6F5007F64F5407404D25FEA45
:1005C8004E0E6D4146EB060642EAC62141EA5551F8
:1005D8004FEAC52040EA5E504FEACE2EB4F1FD0C3A
:1005E80088BFBCF5E06F1ED8BEF1004F08BF5FEAB8
:1005F800500E50F1000041EB045170BD06F000466A
:1006080046EA010140EA020081EA0301B4EB5C0416
:10061800C2BFD4EB0C0541EA045170BD41F480110E
:100628004FF0000E013C00F3AB8014F1360FDEBF33
:10063800002001F0004170BDC4F10004203C35DA0F
:100648000C341BDC04F11404C4F1200500FA05F392
:1006580020FA04F001FA05F240EA020001F0004233
:1006680021F0004110EBD37021FA04F642EB0601A9
:100678005EEA430E08BF20EAD37070BDC4F10C04D3
:10068800C4F1200500FA04F320FA05F001FA04F297
:1006980040EA020001F0004110EBD37041F1000183
:1006A8005EEA430E08BF20EAD37070BDC4F120058E
:1006B80000FA05F24EEA020E20FA04F301FA05F2F6
:1006C80043EA020321FA04F001F0004121FA04F29E
:1006D80020EA020000EBD3705EEA430E08BF20EA6E
:1006E800D37070BD94F0000F0FD101F000464000A8
:1006F80041EB010111F4801F08BF013CF7D041EA2A
:10070800060195F0000F18BF704703F0004652002D
:1007180043EB030313F4801F08BF013DF7D043EAFE
:100728000603704794EA0C0F0CEA135518BF95EAB4
:100738000C0F0CD050EA410618BF52EA4306D1D13B
:1007480081EA030101F000414FF0000070BD50EA5A
:10075800410606BF1046194652EA430619D094EAE4
:100768000C0F02D150EA013613D195EA0C0F05D1CE
:1007780052EA03361CBF104619460AD181EA030122
:1007880001F0004141F0FE4141F470014FF00000DA
:1007980070BD41F0FE4141F4780170BD70B54FF075
:1007A800FF0C4CF4E06C1CEA11541DBF1CEA1355F5
:1007B80094EA0C0F95EA0C0F00F0A7F8A4EB0504D7
:1007C80081EA030E52EA03354FEA013100F08880CE
:1007D8004FEA03334FF0805545EA131343EA126397
:1007E8004FEA022245EA111545EA10654FEA00264C
:1007F8000EF000419D4208BF964244F1FD0404F505
:10080800407402D25B084FEA3202B61A65EB030560
:100818005B084FEA32024FF480104FF4002CB6EB1D
:10082800020E75EB030E22BFB61A754640EA0C009D
:100838005B084FEA3202B6EB020E75EB030E22BFDD
:10084800B61A754640EA5C005B084FEA3202B6EB1E
:10085800020E75EB030E22BFB61A754640EA9C00DD
:100868005B084FEA3202B6EB020E75EB030E22BFAD
:10087800B61A754640EADC0055EA060E18D04FEA6B
:10088800051545EA16754FEA06164FEAC30343EA0B
:1008980052734FEAC2025FEA1C1CC0D111F4801FD8
:1008A8000BD141EA00014FF000004FF0004CB6E7D1
:1008B80011F4801F04BF01430020B4F1FD0C88BF70
:1008C800BCF5E06F3FF6AFAEB5EB030C04BFB6EB7B
:1008D800020C5FEA500C50F1000041EB045170BD6E
:1008E8000EF0004E4EEA113114EB5C04C2BFD4EB9B
:1008F8000C0541EA045170BD41F480114FF0000E1F
:10090800013C90E645EA060E8DE60CEA135594EA9A
:100918000C0F08BF95EA0C0F3FF43BAF94EA0C0F9D
:100928000AD150EA01347FF434AF95EA0C0F7FF412
:1009380025AF104619462CE795EA0C0F06D152EA66
:1009480003353FF4FDAE1046194622E750EA41064A
:1009580018BF52EA43067FF4C5AE50EA41047FF45B
:100968000DAF52EA43057FF4EBAE12E74FF0FF3CC0
:1009780006E000BF4FF0010C02E000BF4FF0010C91
:100988004DF804CD4FEA410C7FEA6C5C4FEA430C0A
:1009980018BF7FEA6C5C1BD001B050EA410C0CBF59
:1009A80052EA430C91EA030F02BF90EA020F0020BB
:1009B800704710F1000F91EA030F58BF994208BF22
:1009C80090422CBFD8176FEAE37040F001007047DF
:1009D8004FEA410C7FEA6C5C02D150EA013C07D136
:1009E8004FEA430C7FEA6C5CD6D152EA033CD3D081
:1009F8005DF8040B704700BF8446104662468C467B
:100A08001946634600E000BF01B5FFF7B7FF0028AD
:100A180048BF10F1000F01BD4DF808EDFFF7F4FFD6
:100A28000CBF012000205DF808FB00BF4DF808ED61
:100A3800FFF7EAFF34BF012000205DF808FB00BF84
:100A48004DF808EDFFF7E0FF94BF012000205DF8A6
:100A580008FB00BF4DF808EDFFF7CEFF94BF01205B
:100A680000205DF808FB00BF4DF808EDFFF7C4FF54
:100A780034BF012000205DF808FB00BF4FEA4102A7
:100A880012F5001215D211D56FF47873B3EB6252D8
:100A980012D94FEAC12343F0004343EA505311F0FF
:100AA800004F23FA02F018BF404270474FF0000091
:100AB800704750EA013005D111F0004008BF6FF0CF
:100AC800004070474FF00000704700BF4FEA4102F6
:100AD800B2F1E04324BFB3F5001CDCF1FE5C0DD994
:100AE80001F0004C4FEAC0024CEA5070B2F1004FDE
:100AF80040EB830008BF20F00100704711F0804FE1
:100B080021D113F13872BCBF01F00040704741F4A5
:100B180080114FEA5252C2F11802C2F1200C10FAA9
:100B28000CF320FA02F018BF40F001004FEAC1238D
:100B38004FEAD32303FA0CFC40EA0C0023FA02F331
:100B48004FEA4303CCE77FEA625307D150EA013307
:100B58001EBF4FF0FE4040F44000704701F00040D7
:100B680040F0FE4040F40000704700BF0348044BCB
:100B7800834202D0034B03B1184770479C040020FE
:100B88009C0400200000000005480649091A891045
:100B980001EBD171491002D0034B03B118477047DC
:100BA8009C0400209C0400200000000010B5064CA6
:100BB800237843B9FFF7DAFF044B13B10448AFF3C6
:100BC80000800123237010BD9C0400200000000059
:100BD8006CFA000808B5054B1BB105490548AFF389
:100BE8000080BDE80840FFF7CFBF00BF000000004D
:100BF800A00400206CFA000880B485B000AF7860CB
:100C08007B6803F00703FB600C4BDB68BB60BA68CA
:100C18004FF6FF031340BB60FB681A02BB6813431F
:100C280043F0BF6343F40033BB60044ABB68D3603E
:100C380000BF1437BD465DF8047B704700ED00E047
:100C480080B400AFBFF34F8F054BDB6803F4E0625D
:100C58000349044B1343CB60BFF34F8F00BFFDE73D
:100C680000ED00E00400FA0580B483B000AF7860BE
:100C78007B689B6823F0004323F03F0343F008029E
:100C88007B689A6000BF0C37BD465DF8047B7047EF
:100C980080B483B000AF78607B6840221A6000BFE0
:100CA8000C37BD465DF8047B704780B483B000AF55
:100CB800786039607B68D3F894233B68C3F30B03EF
:100CC8001A437B68C3F8942300BF0C37BD465DF810
:100CD800047B704780B483B000AF786039607B686C
:100CE800D3F898233B68C3F30B031A437B68C3F814
:100CF800982300BF0C37BD465DF8047B70470000A1
:100D080090B484B000AF786039603B68FB60FB68E2
:100D180093FAA3F3BB60BB68B3FA83F3DBB2103B6F
:100D2800DBB21C467B6814331A46064B33F8143082
:100D380013441C4623689BB218461037BD4690BC26
:100D4800704700BF88FA000890B486B000AFF8601A
:100D5800B9607A60BB687B617B6993FAA3F33B61F6
:100D68003B69B3FA83F3DBB2103BDBB21C46FB688A
:100D78001C331A46074B33F8143013441C462368B7
:100D88001B0C1B047A681343236000BF1837BD4649
:100D980090BC704788FA000880B400AF054B1B6808
:100DA800044A43F48033136000BFBD465DF8047BFA
:100DB800704700BF0010024080B400AF074B1B68AB
:100DC80003F40033B3F5003F01D1012300E0002311
:100DD8001846BD465DF8047B704700BF001002400E
:100DE80080B483B000AF7860064B9B6823F00302A1
:100DF80004497B6813438B6000BF0C37BD465DF820
:100E0800047B70470010024080B400AF044B9B681D
:100E180003F00C031846BD465DF8047B704700BF1D
:100E28000010024080B483B000AF7860064B9B6826
:100E380023F0F00204497B6813438B6000BF0C3732
:100E4800BD465DF8047B70470010024080B483B053
:100E580000AF7860064B9B6823F4E06204497B6826
:100E680013438B6000BF0C37BD465DF8047B7047A9
:100E78000010024080B483B000AF7860064B9B68D6
:100E880023F4605204497B6813438B6000BF0C371E
:100E9800BD465DF8047B70470010024080B483B003
:100EA80000AF7860094BD3F888207B681B0CDB43C4
:100EB8001A407B689BB205491343C1F8883000BFCC
:100EC8000C37BD465DF8047B704700BF0010024038
:100ED80080B483B000AF7860074BD3F8883023F430
:100EE800402205497B681343C1F8883000BF0C379E
:100EF800BD465DF8047B70470010024080B483B0A3
:100F080000AF78600E4BD3F888207B681B0C03F089
:100F18001F03032101FA03F3DB431A407B68D9B2AC
:100F28007B681B0C03F01F0301FA03F30449134306
:100F3800C1F8883000BF0C37BD465DF8047B7047A8
:100F48000010024080B400AF054B1B68044A43F010
:100F58008073136000BFBD465DF8047B704700BF17
:100F68000010024080B400AF074B1B6803F0007309
:100F7800B3F1007F01D1012300E000231846BD46EC
:100F88005DF8047B704700BF0010024080B485B054
:100F980000AFF860B9607A603B600A4BDA680A4BC8
:100FA8001340F968BA6811437A68120211433A6823
:100FB8000A4304491343CB6000BF1437BD465DF8AC
:100FC800047B7047001002400C80FFF980B485B0A4
:100FD80000AFF860B9607A603B600A4BDA680A4B88
:100FE8001340F968BA6811437A68120211433A68E3
:100FF8000A4304491343CB6000BF1437BD465DF86C
:10100800047B7047001002400C80FF0780B400AFDB
:10101800054BDB68044A43F48033D36000BFBD4608
:101028005DF8047B704700BF0010024080B400AF39
:10103800054BDB68044A43F08073D36000BFBD46AC
:101048005DF8047B704700BF0010024080B485B093
:1010580000AF7860084B9A6D07497B6813438B652E
:10106800054B9A6D7B681340FB60FB6800BF143723
:10107800BD465DF8047B70470010024080B485B01F
:1010880000AF7860084B1A6E07497B6813430B66FC
:10109800054B1A6E7B681340FB60FB6800BF143772
:1010A800BD465DF8047B70470010024080B483B0F1
:1010B80000AF7860064B1B6823F00F0204497B6879
:1010C80013430B6000BF0C37BD465DF8047B7047C7
:1010D8000020024080B483B000AF78607B68042BA6
:1010E80006D1094B1B68084A43F00403136005E066
:1010F800054B1B68044A23F00403136000BF0C3738
:10110800BD465DF8047B704710E000E080B400AF96
:10111800064BD3F88030054A23F48073C2F8803038
:1011280000BFBD465DF8047B704700BF00700040FB
:1011380080B400AF054B9B68044A23F48043936056
:1011480000BFBD465DF8047B704700BF00700040DB
:1011580080B483B000AF78607B685B6B18460C374F
:10116800BD465DF8047B704780B483B000AF7860FB
:101178007B689B6B18460C37BD465DF8047B70474F
:1011880080B483B000AF78607B686FF002021A61A8
:1011980000BF0C37BD465DF8047B704780B483B050
:1011A80000AF78607B681B6903F00203022B01D152
:1011B800012300E0002318460C37BD465DF8047B88
:1011C800704780B483B000AF786039607B681A6973
:1011D8003B6813403A689A4201D1012300E000239A
:1011E80018460C37BD465DF8047B704780B483B061
:1011F80000AF786039607B683A689A6200BF0C3744
:10120800BD465DF8047B704780B483B000AF78605A
:1012180039607B685A693B685A407B685A6100BFED
:101228000C37BD465DF8047B704780B483B000AFCF
:1012380078607B6893ED037A7B68D3ED006A7B68FE
:10124800D3ED027A76EEE77A27EE277A7B68D3ED3C
:10125800027A77EE277A7B68C3ED027A00BF0C37F3
:10126800BD465DF8047B704780B483B000AF7860FA
:101278007B6893ED037A7B68D3ED026A7B6893ED14
:10128800006A7B68D3ED017A76EE677A76EEA77A04
:1012980067EE277A7B68C3ED027A7B681A687B68F9
:1012A8005A6000BF0C37BD465DF8047B70470000EC
:1012B80080B485B000AF78607B685B127B60284B98
:1012C8001B68C3F11E037A6802FA03F3FB60244B20
:1012D8001B68012202FA03F37A68D31A7B60204B59
:1012E8001B68C3F11F037A6802FA03F37B601C4B87
:1012F8001B68C3F11F037A6842FA03F37B607B68BB
:101308007A6802FB03F2164B1B68073B5B0042FA44
:1013180003F37B60134B1A68134B1B68796801FB56
:1013280003F39B13D31ABB60104B1B6801229A402E
:101338007B68B96801FB03F31B14D31ABB60BB6855
:101348001B03BB60FB68002B02DABB685B4200E052
:10135800BB6818461437BD465DF8047B704700BF6C
:1013680098FA00089CFA0008A0FA0008A4FA0008F5
:1013780090B583B000AF78607B684FEAE3740F4A9A
:1013880002FB04F1002202FB03F20A440B49A3FB0F
:101398000134224414464FF000014FF00002190EA8
:1013A80041EA042122160B467B607868FFF780FF2C
:1013B800034618460C37BD4690BD00BF60BE2800E6
:1013C80090B583B000AF78607B684FEAE374104A49
:1013D80002FB04F1002202FB03F20A440C49A3FBBE
:1013E8000134224414464FF000014FF00002190E58
:1013F80041EA042122160B467B607B6803F58003D3
:101408001846FFF755FF034618460C37BD4690BDF2
:1014180060BE280080B483B000AF78607B68304A33
:10142800C3F89C207B6893ED277AF0EE006AC7EE3C
:10143800267A7B68C3ED287A7B682A4A9A647B6897
:10144800294AC3F880207B68284A9A677B68284A1B
:10145800DA677B684FF07E521A667B68254A9A6580
:101468007B68254AC3F8A4207B68244ADA657B6830
:1014780093ED1E7AF7EE006AC6EE877A7B68C3EDB5
:101488002A7A7B6893ED1F7AF7EE006AC6EE877AB0
:101498007B68C3ED2B7A7B68D3F8A4207B68C3F8FC
:1014A80084207B684FF00002C3F888207B684FF0E7
:1014B80000025A667B684FF000029A667B684FF01C
:1014C8000002DA647B684FF000029A627B684FF092
:1014D8000002DA6200BF0C37BD465DF8047B704736
:1014E80017B751380000C04148E1BA3FE71DA73B94
:1014F800CA54C13B9C534936B1BFAC3D83A8FB37A6
:1015080090B585B000AF78607B6893ED127A7B6800
:10151800D3ED077A67EE277A7B68C3ED037A7B6899
:1015280093ED127A7B68D3ED087A67EE277A7B68A9
:10153800C3ED047A7B6893ED127A7B68D3ED097A60
:1015480067EE277A7B68C3ED057A7B6893ED037AAB
:101558007B68D3ED047A37EE277A7B68D3ED057A7A
:1015680077EE277A9FEDCF7A67EE877A7B68C3EDAF
:10157800067A7B6893ED037A7B68D3ED067A77EE7B
:10158800677A7B68C3ED007A7B6893ED047A7B68A1
:10159800D3ED067A77EE677A7B68C3ED017A7B68CC
:1015A80093ED057A7B68D3ED067A77EE677A7B68E8
:1015B800C3ED027A7B681A687B689A637B68D3ED0F
:1015C800007A9FEDB97A27EE877A7B68D3ED017AA6
:1015D800DFEDB66A67EEA67A77EE277A7B68C3ED09
:1015E8000F7A7B68D3ED197A9FEDB17A67EE877A27
:1015F800FDEEE77A17EE900AFFF7E2FE07EE900A93
:10160800F8EEE77A9FEDAB7A67EE877A7B68C3EDF1
:101618001B7A7B68D3ED197A9FEDA57A67EE877AF6
:10162800FDEEE77A17EE900AFFF7A2FE07EE900AA2
:10163800F8EEE77A9FED9F7A67EE877A7B68C3EDCD
:101648001C7A7B6893ED0E7A7B68D3ED1B7A27EEC4
:10165800277A7B68D3ED0F6A7B68D3ED1C7A66EE38
:10166800A77A77EE277A7B68C3ED107A7B68D3ED8B
:101678000E7AB1EE677A7B68D3ED1C7A27EE277A6B
:101688007B68D3ED0F6A7B68D3ED1B7A66EEA77A89
:1016980077EE277A7B68C3ED117A7B6893ED107A31
:1016A8007B68D3ED0C6A7B68D3ED207A66EEA77A67
:1016B80037EE677A7B68D3ED226A7B68D3ED137ABD
:1016C80066EEA77A77EE277A7B68C3ED257A7B6882
:1016D80093ED117A7B68D3ED0D6A7B68D3ED207AA0
:1016E80066EEA77A37EE677A7B68D3ED216A7B6866
:1016F800D3ED137A66EEA77A77EE677A7B68C3ED47
:10170800267A7B6893ED217A7B68D3ED256A7B681E
:10171800D3ED277A66EEA77A77EE277A7B68C3ED52
:10172800237A7B6893ED227A7B68D3ED266A7B68FF
:10173800D3ED277A66EEA77A77EE277A7B68C3ED32
:10174800247A7B6893ED237A7B68D3ED297A37EE88
:10175800677A7B68D3ED2A7A67EE277A7B68C3EDD0
:101768000C7A7B6893ED247A7B68D3ED2B7A67EE4D
:10177800277A7B68C3ED0D7A7B6893ED217A7B68C5
:10178800D3ED286A7B6893ED256A7B68D3ED105A00
:101798007B6893ED0C5A7B68D3ED207A65EE277A47
:1017A80075EEE75A7B6893ED225A7B68D3ED137A7E
:1017B80065EE277A75EEA77A76EE277A66EEA77A2F
:1017C80077EE277A7B68C3ED217A7B6893ED227ADE
:1017D8007B68D3ED286A7B6893ED266A7B68D3ED36
:1017E800115A7B6893ED0D5A7B68D3ED207A65EE2C
:1017F800277A75EEE75A7B6893ED215A7B68D3ED1B
:10180800137A65EE277A75EEE77A76EE277A66EE32
:10181800A77A77EE277A7B68C3ED227A7B6893ED07
:10182800217A7B68D3ED297A37EE677A7B68D3ED26
:101838002A7A67EE277A7B68C3ED0C7A7B6893ED8A
:10184800227A7B68D3ED2B7A67EE277A7B68C3ED23
:101858000D7A7B6893ED0C7A7B68D3ED1B7A27EEC3
:10186800277A7B68D3ED0D6A7B68D3ED1C7A66EE28
:10187800A77A77EE677A7B68C3ED0A7A7B6893ED7F
:101888000C7A7B68D3ED1C7A27EE277A7B68D3ED38
:101898000D6A7B68D3ED1B7A66EEA77A77EE277A16
:1018A8000AE000BFAAAAAA3E3ACD133F3ACD933F19
:1018B8000000804B000080337B68C3ED0B7A7B68A7
:1018C800D3ED187AB7EE087A27EE877A7B68D3EDDE
:1018D800216A7B68D3ED0D7A66EEA76A7B6893ED83
:1018E800226A7B68D3ED0C7A66EE277A76EEE77A81
:1018F80067EE277A7B68C3ED157A7B684FF00002A4
:10190800C3F8C4207B68D3ED137AF5EEC07AF1EE04
:1019180010FA0ADD7B6893ED307A7B68D3ED177A8D
:1019280077EE277A7B68C3ED317A7B68D3ED137A3B
:10193800F5EEC07AF1EE10FA0CD57B68D3ED307A6B
:10194800B1EE677A7B68D3ED177A77EE677A7B68B2
:10195800C3ED317A7B68D3ED276A7B68D3ED167ABD
:1019680086EEA77A7B68D3ED156A7B68D3ED317A6A
:1019780076EEE77A67EE277AC7ED037AD7ED037A32
:10198800B0EEE77A7B68D3ED137AF0EEE77AB4EE3F
:10199800E77AF1EE10FA13DD7B68D3ED157AB0EE35
:1019A800E77A7B68D3ED307AB4EEE77AF1EE10FA95
:1019B80006D57B684FF00002DA644FF00003FB6045
:1019C8007B6893ED137AD7ED037A77EE277A7B68F5
:1019D800C3ED137A7B68DB6C1846FEF75DFD5FA3E9
:1019E800D3E90023FEF7B0FD03460C46184621460E
:1019F800FFF76CF802467B681A657B6893ED137AEB
:101A08007B68D3ED157A67EE277A7B68C3ED2F7A6A
:101A18007B689A6A7B68C3F8B0207B68D3ED0A7A42
:101A2800BEEE007A27EE877A7B68D3ED0B7ADFED7E
:101A3800466A67EEA67A77EE277A7B68C3ED2D7A39
:101A48007B68D3ED0A7ABEEE007A27EE877A7B6848
:101A5800D3ED0B7ADFED3C6A67EEA67A77EE677A0C
:101A68007B68C3ED2E7A7B6893ED1A7A7B68D3ED99
:101A7800276A7B68D3ED137A66EEA77A77EE277A22
:101A88007B68C3ED1A7A7B68D3ED1A7A9FED2F7ABB
:101A9800F4EEC77AF1EE10FA09DD7B68D3ED1A7A15
:101AA8009FED2B7A77EE677A7B68C3ED1A7A7B68AD
:101AB800D3ED1A7A9FED277AF4EEC77AF1EE10FA91
:101AC80009D57B68D3ED1A7A9FED237A77EE877A6A
:101AD8007B68C3ED1A7A7B6893ED1A7A7B68D3ED3D
:101AE800187A67EE277A7B68C3ED197A7B68D3ED9D
:101AF800197A9FED167AF4EEC77AF1EE10FA09DD3D
:101B08007B68D3ED197A9FED127A77EE677A7B6856
:101B1800C3ED197A7B68D3ED197A9FED0E7AF4EE4E
:101B2800C77AF1EE10FA00D409E07B68D3ED197A90
:101B38009FED097A77EE877A7B68C3ED197A00BF43
:101B48001437BD4690BD00BFD7B35D3FDA0F49409B
:101B5800DA0FC9C0DA0F49C0DA0FC940529D0E64C6
:101B68003D19234080B584B000AFF860B9607A6051
:101B78007B68052B00F2B28001A252F823F000BF67
:101B8800A11B0008D71B00080D1C0008431C0008F7
:101B9800791C0008AF1C0008C0215348FFF79AF8C9
:101BA80033215148FFF781F8FA68BB6813441A4695
:101BB8004FF400314C48FFF7C7F8FA68BB68D31AEE
:101BC8001A464FF400214848FFF7BEF887E0302155
:101BD8004548FFF77FF8C3214348FFF766F8FA68DE
:101BE800BB6813441A464FF400313F48FFF7ACF87E
:101BF800FA68BB68D31A1A464FF480113A48FFF7BF
:101C0800A3F86CE003213848FFF764F8F021364860
:101C1800FFF74BF8FA68BB6813441A464FF40021E3
:101C28003148FFF791F8FA68BB68D31A1A464FF49F
:101C380080112D48FFF788F851E0C0212A48FFF7A6
:101C480049F833212848FFF730F8FA68BB68D31AF7
:101C58001A464FF400312448FFF776F8FA68BB6853
:101C680013441A464FF400211F48FFF76DF836E079
:101C780030211D48FFF72EF8C3211B48FFF715F840
:101C8800FA68BB68D31A1A464FF400311648FFF7B2
:101C98005BF8FA68BB6813441A464FF4801112487F
:101CA800FFF752F81BE003210F48FFF713F8F02164
:101CB8000D48FEF7FAFFFA68BB68D31A1A464FF4C4
:101CC80000210948FFF740F8FA68BB6813441A4630
:101CD8004FF480110448FFF737F800E000BF00BF59
:101CE8001037BD4680BD00BF0068014080B483B096
:101CF80000AF78607B685A687B685A617B68D3ED6F
:101D0800017AB6EE007A27EE877A7B68D3ED007AFF
:101D1800DFED606A67EEA67A77EE277A7B68C3ED17
:101D2800067A7B6893ED067A7B68D3ED057A77EEC1
:101D3800677A7B68C3ED077A7B68032283F82020E3
:101D48007B68D3ED067AF5EEC07AF1EE10FA06DD7F
:101D58007B6893F82030DBB2013BDBB203E07B68A1
:101D680093F82030DBB27A6882F820307B68D3EDB4
:101D7800077AF5EEC07AF1EE10FA06DD7B6893F883
:101D88002030DBB2013BDBB203E07B6893F8203004
:101D9800DBB27A6882F820307B68D3ED057AF5EEFD
:101DA800C07AF1EE10FA07D57B6893F82030DBB2E1
:101DB800C3F10703DBB203E07B6893F82030DBB2A2
:101DC8007A6882F820307B6893F82030DBB2012BE8
:101DD80005D07B6893F82030DBB2042B17D17B68E1
:101DE8009A697B689A607B6893ED057A7B68D3ED86
:101DF800077A77EE677A7B68C3ED037A7B68D3ED61
:101E0800067AF1EE677A7B68C3ED047A3CE07B687A
:101E180093F82030DBB2022B05D07B6893F8203092
:101E2800DBB2052B17D17B6893ED077A7B68D3ED7E
:101E3800067A77EE277A7B68C3ED027A7B685A695F
:101E48007B68DA607B68D3ED057AF1EE677A7B68A8
:101E5800C3ED047A18E07B68DA697B689A607B686E
:101E6800D3ED077AF1EE677A7B68C3ED037A7B6876
:101E780093ED057A7B68D3ED067A77EE277AF1EE53
:101E8800677A7B68C3ED047A00BF0C37BD465DF8FE
:101E9800047B7047D7B35D3F80B483B000AF7860F0
:101EA8007B6893ED007A7B68D3ED017A77EE677AE9
:101EB8007B68C3ED027A7B6893ED037A7B68D3ED88
:101EC800027A67EE277A7B68C3ED047A7B6893ED24
:101ED8000C7A7B68D3ED047A27EE277A7B68D3EDFA
:101EE8000D6A7B68D3ED0B7A66EEA77A37EE277A10
:101EF8007B68D3ED057A77EE277A7B68C3ED057AA0
:101F08007B6893ED047A7B68D3ED057A77EE277AC0
:101F18007B68C3ED077A7B6893ED077A7B68D3ED1E
:101F2800087AB4EEE77AF1EE10FA02DD7B681B6AF4
:101F38000FE07B6893ED077A7B68D3ED097AB4EEFE
:101F4800E77AF1EE10FA02D57B685B6A01E07B68FC
:101F5800DB697A6893627B6893ED0A7A7B68D3EDD4
:101F6800077A77EE677A7B68C3ED0B7A7B681A6924
:101F78007B68DA6300BF0C37BD465DF8047B7047A9
:101F880080B483B000AF78607B68D3ED007A9FEDB2
:101F9800337A67EE877A7B68C3ED0E7A7B6893EDB8
:101FA8000E7A7B68D3ED017A77EEA76A7B68D3ED6A
:101FB800027A76EEE76A7B68D3ED037A76EEE77A03
:101FC80067EE277A7B68C3ED057A7B6893ED0E7A16
:101FD8007B68D3ED027A77EEA76A7B68D3ED017A46
:101FE80076EEE76A7B68D3ED037A76EEE77A67EEFA
:101FF800277A7B68C3ED067A7B681B7CDBB2002BF3
:102008000FD07B68D3ED057AF1EE677A7B68C3ED74
:10201800057A7B68D3ED067AF1EE677A7B68C3EDC3
:10202800067A7B685A697B681A627B68D3ED057A01
:102038009FED0B7A27EE877A7B68D3ED067ADFED82
:10204800096A67EEA67A77EE277A7B68C3ED097A84
:1020580000BF0C37BD465DF8047B7047AAAAAA3EAC
:102068003ACD133F3ACD933F80B58AB000AF786040
:102078007B6893ED067A7B68D3ED007A67EE277A62
:10208800C7ED097A7B6893ED067A7B68D3ED017A10
:1020980067EE277AC7ED087A7B6893ED057A7B6847
:1020A800D3ED007A67EE277AC7ED077A7B6893ED60
:1020B800057A7B68D3ED017A67EE277AC7ED067A51
:1020C8007B6893ED047A7B68D3ED047A67EE277A10
:1020D800C7ED057A7B6893ED077AD7ED097A37EE75
:1020E800677A7B68D3ED076AD7ED097A76EEE77AE7
:1020F80027EE277A7B68D3ED086AD7ED087A76EE63
:10210800E76A7B6893ED086AD7ED087A76EE677A16
:1021180066EEA77A77EE277A97ED057A77EE677AF3
:10212800C7ED047A7B6893ED027AD7ED077A37EE2C
:10213800677A7B68D3ED0B6A7B6893ED076AD7ED06
:10214800097A76EE677A66EEA76AD7ED047A66EEC4
:10215800A77A77EE277AC7ED037A7B6893ED037A3F
:10216800D7ED067A37EE677A7B68D3ED0B6A7B6822
:1021780093ED086AD7ED087A76EE677A66EEA76A75
:10218800D7ED047A66EEA77A77EE277AC7ED027A5A
:102198007B6893ED097AD7ED037A27EE277A7B6877
:1021A800D3ED077A77EE277A7B68C3ED077A7B68E9
:1021B80093ED097AD7ED027A27EE277A7B68D3ED7B
:1021C800087A77EE277A7B68C3ED087A7B6893ED07
:1021D800087AD7ED087A77EE676A7B6893ED077A15
:1021E800D7ED097A77EE677AF0EE670AB0EE660AFD
:1021F8000CF0AAFEF0EE407A7B68C3ED0A7A00BFC5
:102208002837BD4680BD000080B582B000AF786039
:102218007B6893ED057A7B68D3ED047A27EE277AFD
:102228007B68D3ED036A7B6893ED006A7B68D3ED26
:10223800017A36EE676A7B68D3ED027A76EE677AC2
:1022480066EEA77A77EE277A7B68C3ED047A7B6817
:1022580093ED057A7B68D3ED097A27EE277A7B68B8
:10226800D3ED036A7B6893ED066A7B68D3ED077A42
:1022780036EE676A7B68D3ED087A76EE677A66EEA3
:10228800A77A77EE277A7B68C3ED097A7B6893EDA6
:10229800047A7B68D3ED0A7A77EE677A7B68C3EDB8
:1022A8000B7A7B6893ED097A7B68D3ED0D7A77EE2C
:1022B800677A7B68C3ED0E7A7B6893ED0B7A7B684F
:1022C800D3ED117AB4EEE77AF1EE10FA03DD7B680C
:1022D800D3ED117A15E07B6893ED0B7A7B68D3ED2B
:1022E800117AF1EE677AB4EEE77AF1EE10FA05D5D5
:1022F8007B68D3ED117AF1EE677A02E07B68D3ED63
:102308000B7A7B6893ED0C7A37EE077A67EE877A5B
:102318007B68C3ED027A7B6893ED0E7A7B68D3ED18
:10232800117AB4EEE77AF1EE10FA03DD7B68D3EDAB
:10233800117A15E07B6893ED0E7A7B68D3ED117AFC
:10234800F1EE677AB4EEE77AF1EE10FA05D57B681C
:10235800D3ED117AF1EE677A02E07B68D3ED0E7A5D
:102368007B6893ED0C7A37EE077A67EE877A7B689D
:10237800C3ED087A7B6893ED127AF7EE006AC6EE31
:10238800877A7B68C3ED137A7B689A687B68DA651D
:102398007B68D3ED137A9FED5C7A37EE877ADFEDB1
:1023A8005A6AC6EE877A7B68C3ED1A7A7B685C3313
:1023B8001846FEF73AFF7B68D3ED197A9FED537AFA
:1023C80067EE877A7B68C3ED147A7B68D3ED136A6E
:1023D8007B68D3ED137A9FED4C7A37EE877AC6EE99
:1023E800877A7B68C3ED1E7A7B68D3ED147A9FEDFC
:1023F800487A77EE877A7B68C3ED1B7A7B686C3303
:102408001846FEF731FF7B68D3ED1D7A9FED3F7AC2
:1024180067EE877A7B68C3ED147A7B681A6A7B68F3
:10242800DA677B689A6E7B68C3F888207B687C33A0
:102438001846FEF7FAFE7B68D3ED217A9FED337AD2
:1024480067EE877A7B68C3ED157A7B689A6F7B683D
:10245800C3F898207B68D3ED157A9FED2D7A77EE37
:10246800877A7B68C3ED237A7B688C331846FEF73E
:10247800FBFE7B68D3ED257A9FED247A67EE877A99
:102488007B68C3ED157A7B6893ED017A7B68D3EDA1
:102498000F6A7B6893ED026A7B68D3ED017A76EE6A
:1024A800677A66EEA77A77EE277A7B68C3ED017ABA
:1024B8007B6893ED077A7B68D3ED0F6A7B6893EDB1
:1024C800086A7B68D3ED077A76EE677A66EEA77AB4
:1024D80077EE277A7B68C3ED077A7B68D3ED147AA9
:1024E800F1EE677A7B6893ED157AF0EE470AB0EE65
:1024F800670A0CF029FDF0EE407A7B68C3ED107A8C
:1025080000BF0837BD4680BD17B751380805B53F2D
:1025180008E53C1E80B483B000AF78607B6893F810
:102528002630DBB2002B00F081807B6893ED057AC2
:102538007B68D3ED017AB4EEE77AF1EE10FA0CDAA3
:102548007B6893ED057A7B68D3ED017AF1EE677AC3
:10255800B4EEE77AF1EE10FA06D87B6801221A7019
:102568007B68012283F824207B6893ED067A7B68D8
:10257800D3ED017AB4EEE77AF1EE10FA0CDA7B6863
:1025880093ED067A7B68D3ED017AF1EE677AB4EEC3
:10259800E77AF1EE10FA06D87B6802221A707B6897
:1025A800012283F824207B6893ED077A7B68D3EDBA
:1025B800027AB4EEE77AF1EE10FA06DB7B680322C2
:1025C8001A707B68012283F824207B6893ED077AD0
:1025D8007B68D3ED037AB4EEE77AF1EE10FA0CD803
:1025E8007B6893F82530DBB2002B06D07B68052288
:1025F8001A707B68012283F824207B6893ED087A9F
:102608007B68D3ED047AB4EEE77AF1EE10FA00DADB
:102618000CE07B6893F82530DBB2002B06D07B6892
:1026280004221A707B68012283F8242000BF0C372B
:10263800BD465DF8047B704780B483B000AF786016
:102648007B6893ED007A7B68D3ED047A77EE677A3E
:102658009FED467A77EE877A7B68C3ED027A7B68CE
:10266800D3ED027A9FED427AF4EEC77AF1EE10FAD2
:102678000AD57B68D3ED027A9FED3E7A77EE877AAA
:102688007B68C3ED027A13E07B68D3ED027A9FED95
:102698003A7AF4EEC77AF1EE10FA09DD7B68D3EDE9
:1026A800027A9FED347A77EEC77A7B68C3ED027AB7
:1026B8007B6893ED037A7B68D3ED026A7B68D3ED80
:1026C800057A66EEA77A37EE277A7B68D3ED017A2A
:1026D80027EE277A7B68D3ED047A77EE277A7B6832
:1026E800C3ED047A7B68D3ED047A9FED217AF4EE8A
:1026F800C77AF1EE10FA0AD57B68D3ED047A9FED1C
:102708001D7A77EE877A7B68C3ED047A13E07B68DD
:10271800D3ED047A9FED187AF4EEC77AF1EE10FA49
:1027280009DD7B68D3ED047A9FED127A77EEC77ADC
:102738007B68C3ED047A7B6893ED027A7B68D3EDFE
:10274800067A27EE277A7B68D3ED017A27EE277A77
:102758007B68D3ED037A77EE277A7B68C3ED037A3B
:1027680000BF0C37BD465DF8047B704708E53C1E8A
:10277800DB0F49C0DB0FC940DB0F494080B483B091
:1027880000AF78607B6800221A707B6893ED037A4B
:102798007B68D3ED047A37EE277A7B68D3ED057A28
:1027A80077EE277A9FEDB57A67EE877A7B68C3ED77
:1027B8000B7A7B6893ED037A7B68D3ED0B7A77EE1F
:1027C800677A7B68C3ED067A7B6893ED047A7B6849
:1027D800D3ED0B7A77EE677A7B68C3ED077A7B686F
:1027E80093ED057A7B68D3ED0B7A77EE677A7B6891
:1027F800C3ED087A7B6893F82430DBB2012B40F0F4
:102808006F817B6893F82530DBB2052B00F2698174
:1028180001A252F823F000BF39280008AB280008AD
:102828001D2900088F290008012A0008732A0008BA
:102838007B68D3ED087AF5EEC07AF1EE10FA00DC89
:102848004FE17B6893ED087A7B68D3ED017A77EEE8
:10285800277A7B68C3ED017A7B68D3ED017AF5EEC0
:10286800C07AF1EE10FA08D57B68D3ED017AF1EE63
:10287800677A7B68C3ED017A02E07B68D3ED017A61
:102888007B6893ED027AF4EEC77AF1EE10FA00DC79
:1028980027E17B684FF000025A607B6801221A70BA
:1028A8001FE17B68D3ED077AF5EEC07AF1EE10FAF6
:1028B80000D416E17B6893ED077A7B68D3ED017A43
:1028C80077EE277A7B68C3ED017A7B68D3ED017ACE
:1028D800F5EEC07AF1EE10FA08D57B68D3ED017AEF
:1028E800F1EE677A7B68C3ED017A02E07B68D3ED8D
:1028F800017A7B6893ED027AF4EEC77AF1EE10FA6A
:1029080000DCEEE07B684FF000025A607B68012231
:102918001A70E6E07B68D3ED067AF5EEC07AF1EE40
:1029280010FA00DCDDE07B6893ED067A7B68D3ED76
:10293800017A77EE277A7B68C3ED017A7B68D3ED5D
:10294800017AF5EEC07AF1EE10FA08D57B68D3ED7E
:10295800017AF1EE677A7B68C3ED017A02E07B6861
:10296800D3ED017A7B6893ED027AF4EEC77AF1EE43
:1029780010FA00DCB5E07B684FF000025A607B6813
:1029880001221A70ADE07B68D3ED087AF5EEC07AC3
:10299800F1EE10FA00D4A4E07B6893ED087A7B6826
:1029A800D3ED017A77EE277A7B68C3ED017A7B68ED
:1029B800D3ED017AF5EEC07AF1EE10FA08D57B680E
:1029C800D3ED017AF1EE677A7B68C3ED017A02E014
:1029D8007B68D3ED017A7B6893ED027AF4EEC77ACF
:1029E800F1EE10FA00DC7CE07B684FF000025A60E0
:1029F8007B6801221A7074E07B68D3ED077AF5EEE4
:102A0800C07AF1EE10FA00DC6BE07B6893ED077A90
:102A18007B68D3ED017A77EE277A7B68C3ED017A7C
:102A28007B68D3ED017AF5EEC07AF1EE10FA08D59D
:102A38007B68D3ED017AF1EE677A7B68C3ED017AA2
:102A480002E07B68D3ED017A7B6893ED027AF4EEBD
:102A5800C77AF1EE10FA00DC43E07B684FF0000221
:102A68005A607B6801221A703BE07B68D3ED067AD6
:102A7800F5EEC07AF1EE10FA02D432E09FAAAA3E2F
:102A88007B6893ED067A7B68D3ED017A77EE277A37
:102A98007B68C3ED017A7B68D3ED017AF5EEC07AE5
:102AA800F1EE10FA08D57B68D3ED017AF1EE677A7A
:102AB8007B68C3ED017A02E07B68D3ED017A7B681D
:102AC80093ED027AF4EEC77AF1EE10FA00DC08E032
:102AD8007B684FF000025A607B6801221A7000E0A0
:102AE80000BF7B6893F82430DBB2002B40F06C8188
:102AF8007B6893F82530DBB2052B00F2668101A2D2
:102B080052F823F0252B0008972B0008092C000801
:102B18007B2C0008ED2C00085F2D00087B68D3EDA6
:102B2800087AF5EEC07AF1EE10FA00D44DE17B6830
:102B380093ED087A7B68D3ED017A77EE277A7B6884
:102B4800C3ED017A7B68D3ED017AF5EEC07AF1EE38
:102B580010FA08D57B68D3ED017AF1EE677A7B68C5
:102B6800C3ED017A02E07B68D3ED017A7B6893EDCF
:102B7800027AF4EEC77AF1EE10FA00DC25E17B6800
:102B88004FF000025A607B6801221A701DE17B68D1
:102B9800D3ED077AF5EEC07AF1EE10FA00DC14E115
:102BA8007B6893ED077A7B68D3ED017A77EE277A15
:102BB8007B68C3ED017A7B68D3ED017AF5EEC07AC4
:102BC800F1EE10FA08D57B68D3ED017AF1EE677A59
:102BD8007B68C3ED017A02E07B68D3ED017A7B68FC
:102BE80093ED027AF4EEC77AF1EE10FA00DCECE02D
:102BF8007B684FF000025A607B6801221A70E4E09B
:102C08007B68D3ED067AF5EEC07AF1EE10FA00D4BF
:102C1800DBE07B6893ED067A7B68D3ED017A77EE8B
:102C2800277A7B68C3ED017A7B68D3ED017AF5EEEC
:102C3800C07AF1EE10FA08D57B68D3ED017AF1EE8F
:102C4800677A7B68C3ED017A02E07B68D3ED017A8D
:102C58007B6893ED027AF4EEC77AF1EE10FA00DCA5
:102C6800B3E07B684FF000025A607B6801221A705B
:102C7800ABE07B68D3ED087AF5EEC07AF1EE10FA96
:102C880000DCA2E07B6893ED087A7B68D3ED017ADB
:102C980077EE277A7B68C3ED017A7B68D3ED017AFA
:102CA800F5EEC07AF1EE10FA08D57B68D3ED017A1B
:102CB800F1EE677A7B68C3ED017A02E07B68D3EDB9
:102CC800017A7B6893ED027AF4EEC77AF1EE10FA96
:102CD80000DC7AE07B684FF000025A607B680122D2
:102CE8001A7072E07B68D3ED077AF5EEC07AF1EEE0
:102CF80010FA00D469E07B6893ED077A7B68D3ED1E
:102D0800017A77EE277A7B68C3ED017A7B68D3ED89
:102D1800017AF5EEC07AF1EE10FA08D57B68D3EDAA
:102D2800017AF1EE677A7B68C3ED017A02E07B688D
:102D3800D3ED017A7B6893ED027AF4EEC77AF1EE6F
:102D480010FA00DC41E07B684FF000025A607B68B3
:102D580001221A7039E07B68D3ED067AF5EEC07A65
:102D6800F1EE10FA00DC30E07B6893ED067A7B68C0
:102D7800D3ED017A77EE277A7B68C3ED017A7B6819
:102D8800D3ED017AF5EEC07AF1EE10FA08D57B683A
:102D9800D3ED017AF1EE677A7B68C3ED017A02E040
:102DA8007B68D3ED017A7B6893ED027AF4EEC77AFB
:102DB800F1EE10FA00DC08E07B684FF000025A6080
:102DC8007B6801221A7000E000BF00BF0C37BD46C7
:102DD8005DF8047B704700BF90B585B000AF7860A0
:102DE8007B6893EDBC7AF7EE006AC6EE877A77EED9
:102DF800A77A7B68C3EDBD7A7B68D3EDBD7A9FED7A
:102E0800C07A67EE877A7B68C3ED357A7B68BD4AFE
:102E1800C3F8D8227B684FF07852C3F824217B6826
:102E2800B94AC3F848217B684FF07C52C3F84C215B
:102E38007B6893F8E032DBB2012B05D17B68D3EDD8
:102E4800BF7AF1EE677A01E0DFEDB07A7B68C3ED17
:102E58004F7A7B6893F8E032DBB2012B03D17B68B1
:102E6800D3F8FC3201E04FF07E537A68C2F838316B
:102E78007B684FF07852C3F864217B68A24AC3F894
:102E880088217B684FF07C52C3F88C217B6893F8CB
:102E9800E032DBB2012B05D17B68D3EDBF7AF1EECE
:102EA800677A01E0DFED997A7B68C3ED5F7A7B682A
:102EB80093F8E032DBB2012B03D17B68D3F8FC3204
:102EC80001E04FF07E537A68C2F878317B68D3ED21
:102ED800BC7A9FED8F7A67EE877A9FED8E7A67EEE0
:102EE800877A77EEA77AC7ED037A7B6893EDC37A82
:102EF800D7ED037A67EE277AB6EE007A67EE877A1F
:102F08007B68C3ED597A7B68C3ED497A7B6893ED9A
:102F1800C27AD7ED037A27EE277A7B68D3EDBD7A9C
:102F280067EE277AB6EE007A67EE877A7B68C3ED9C
:102F3800627A7B68C3ED527A7B6893ED497AF7EE43
:102F4800006AC6EE877A7B68C3ED537A7B6893ED97
:102F5800597AF7EE006AC6EE877A7B68C3ED637A22
:102F68007B686D4A9A617B6893F8E032DBB2012B8B
:102F780001D16A4A00E06A4A7B68C3F8A4217B68E9
:102F880093F8E032DBB2012B01D1664A00E0664AD1
:102F98007B68C3F8C8217B6893ED697AF7EE006A0D
:102FA800C6EE877A7B68C3ED737A7B6893F8E03264
:102FB800DBB2012B05D17B68D3EDBE7AF1EE677ADF
:102FC80001E0DFED527A7B68C3ED6F7A7B6893F896
:102FD800E032DBB2012B03D17B68D3F8F83200E092
:102FE800524B7A68C2F8B8317B68514A5A627B689A
:102FF800D3EDC27AF1EE676A7B68D3EDC37A86EEC9
:10300800A77A7B68D3EDBD7A67EE277A17EE900A28
:10301800FDF742FA03460C4644EC103B0CF0DCF892
:1030280054EC103B18462146FDF750FD02467B68DC
:10303800C3F8EC217B68D3EDC27AF7EE006A86EE1E
:10304800A77A7B68D3ED7B7AF7EE006A76EEE77AAB
:1030580067EE277A7B68C3ED797A7B68354AC3F8CF
:1030680008227B68D3EDC27AB7EE087A67EE877AD2
:103078007B68C3EDA27A7B68D3EDC37AB7EE087A92
:1030880067EE877A7B68C3EDA37A7B68D3EDC57A50
:103098009FED297A27EE877A7B68D3EDC67A27EEEB
:1030A800277ADFED266AC6EE877A7B68C3EDA17AB8
:1030B8007B68D3F8F4227B68C3F898227B68164AA9
:1030C800C3F8A0227B68D3F8F4227B68C3F8A8234E
:1030D8007B68174AC3F8B8237B68194AC3F8BC232E
:1030E8007B6893EDC87A7B68D3EDBE7AB4EEE77A55
:1030F800F1EE10FA28DD7B68D3F8F83227E000BF3C
:10310800DB0FC9409A99793FCDCCCC3C0000000038
:10311800CDCC4C3DDB0F494000002041CDCCCC3D0F
:103128000AD7233C6F12833A6F12033AA4707D3F8B
:103138000000FA441FE7073FEF1F2E4100007042CE
:103148000060EA46899BD03A7B68D3F820337A68D6
:10315800C2F820337B6893EDC97A7B68D3EDBF7AD8
:10316800B4EEE77AF1EE10FA03DD7B68D3F8FC32AF
:1031780002E07B68D3F824337A68C2F824337B688A
:10318800D3EDBD6A7B68D3EDBD7A1FED127A37EEB9
:10319800877AC6EE877A7B68C3EDE07A7B68D3F8D6
:1031A80080237B68C3F890237B68D3F880237B68EF
:1031B800C3F8A0237B68204AC3F84C237B681F4AC6
:1031C800C3F8E4207B681E4AC3F8F0207B681D4AD8
:1031D800C3F8CC237B68D3EDBD6A7B68D3EDBD7A99
:1031E8009FED197A37EE877AC6EE877A7B68C3ED4A
:1031F800F77A7B68D3EDBD6A7B68D3EDBD7A9FED26
:10320800127A37EE877AC6EE877A7B68C3EDFB7A47
:103218007B68D3EDBD6A7B68D3EDBD7A9FED0B7AF1
:1032280037EE877AC6EE877A7B68C3EDFF7A00BFF0
:103238001437BD4690BD00BF17B7D1380000AF4363
:10324800CDCCCC3D6F12833A0AD7A33CCDCC4C3EB3
:1032580080B483B000AF78607B681B78DBB2002B4A
:1032680043D07B689B687A6802F581521268796856
:1032780004339B000B441A607B6898687B6803F5ED
:10328800815304331A68796800F582739B000B44F4
:103298001A607B6898687B6803F5815308331A685D
:1032A800796800F501739B000B441A607B68986885
:1032B8007B6803F581530C331A68796800F541730C
:1032C8009B000B441A607B689B685A1C7B689A6059
:1032D8007B689B68FE2B08D97B6801225A707B6843
:1032E80000221A707B6800229A607B685B78DBB2E8
:1032F800002B5BD07B68DB687A68928892B2934235
:103308003AD37B689B687A6804339B0013441A6835
:103318007B6803F5805310331A607B689B687A6872
:1033280003F582739B0013441A687B6803F5805386
:1033380014331A607B689B687A6803F501739B00F5
:1033480013441A687B6803F5805318331A607B6846
:103358009B687A6803F541739B0013441A687B687D
:1033680003F580531C331A607B680022DA607B689F
:103378009B685A1C7B689A607B68DB685A1C7B6870
:10338800DA607B689B68FE2B10D97B6800225A7034
:103398007B6800229A607B680022DA607B689B78F1
:1033A800DBB2002B02D07B6801221A7000BF0C37F9
:1033B800BD465DF8047B704780B52DED028B82B069
:1033C80000AF78607B6893ED007A7B68D3ED066A7E
:1033D8007B68D3ED007A66EEA77A77EE676A7B683A
:1033E80093ED067AC6EE877A7B68C3ED057A7B682B
:1033F800D3ED027A9FED167A77EE877AB7EE007AE8
:1034080087EE278A7B6893ED057A7B68D3ED017A8E
:10341800C7EE276AB0EE660A0BF062FFF0EE406A6C
:103428007B6893ED037AC6EE877A38EE277AF7EE53
:10343800006AC6EE877A9FED067A77EEC77A7B68D0
:10344800C3ED047A00BF0837BD46BDEC028B80BDD2
:103458000080884380B483B000AF78607B681B78B5
:10346800DBB2002B0DD17B685B78DBB2012B08D176
:103478007B689B78DBB2002B03D17B680022DA7073
:103488005DE07B681B78DBB2002B0DD17B685B7835
:10349800DBB2012B08D17B689B78DBB2012B03D10F
:1034A8007B680122DA704AE07B681B78DBB2002B6C
:1034B8000DD17B685B78DBB2002B08D17B689B78E9
:1034C800DBB2012B03D17B680222DA7037E07B681C
:1034D8001B78DBB2012B0DD17B685B78DBB2002B4C
:1034E80008D17B689B78DBB2012B03D17B68032270
:1034F800DA7024E07B681B78DBB2012B0DD17B6886
:103508005B78DBB2002B08D17B689B78DBB2002BA1
:1035180003D17B680422DA7011E07B681B78DBB288
:10352800012B0CD17B685B78DBB2012B07D17B6860
:103538009B78DBB2002B02D17B680522DA707B68AE
:10354800DB78DBB27A6818339B0013441A687B680F
:10355800DA617B68D3ED077A9FED797AF4EEC77A62
:10356800F1EE10FA0AD57B68D3ED077A9FED757AEC
:1035780077EE877A7B68C3ED077A13E07B68D3ED33
:10358800077A9FED717AF4EEC77AF1EE10FA09DD49
:103598007B68D3ED077A9FED6B7A77EEC77A7B6805
:1035A800C3ED077A7B68DB78DAB27B681B79DBB21C
:1035B8009A4237D07B689B6807EE903AF8EE677AB4
:1035C8007B68C3ED087A7B68DA697B685A617B6837
:1035D80000229A607B68DB78DAB27B681B79DBB201
:1035E8009A420BD97B68DB78DBB2052B03D17B6869
:1035F8001B7BDAB200E000227B681A737B68DB78F9
:10360800DAB27B681B79DBB29A420BD27B68DB7833
:10361800DBB2002B03D17B681B7BDAB200E001220E
:103628007B681A737B68DB78DAB27B681A717B680F
:103638009B6807EE903AF8EE676A7B6893ED087A24
:10364800C6EE877A9FED417A67EE877A7B68C3ED8D
:10365800097A7B68D3ED097A9FED3C7AF4EEC77A54
:10366800F1EE10FA01DD3A4B0CE07B68D3ED097AF4
:10367800F5EEC07AF1EE10FA02D54FF0000301E042
:103688007B685B6A7A6853627B681B7BDBB2002BC2
:1036980008D17B6893ED077A7B68D3ED097A77EEDA
:1036A800277A07E07B6893ED077A7B68D3ED097A80
:1036B80077EE677A7B68C3ED057A7B68D3ED057A88
:1036C8009FED1F7AF4EEC77AF1EE10FA0AD57B68FF
:1036D800D3ED057A9FED1B7A77EE877A7B68C3ED89
:1036E800057A13E07B68D3ED057A9FED177AF4EE3F
:1036F800C77AF1EE10FA09DD7B68D3ED057A9FED04
:10370800117A77EEC77A7B68C3ED057A7B68D3EDCB
:103718000B7AF0EEE77AB3EE097AF4EEC77AF1EEB7
:1037280010FA02D87B68DB6901E07B685B697A681C
:10373800536100BF0C37BD465DF8047B704700BF7E
:10374800DB0F49C0DB0FC940DB0F4940920A863FB7
:10375800920A863F80B500AF00F0D4F84E48FDF7D6
:1037680059FE4E4B012283F8E0224C4B002283F88D
:10377800E1224A4B4A4AC3F8F022484B494AC3F867
:10378800F822464B484AC3F8FC22444B474AC3F840
:103798000023424B464AC3F80423404B4FF0814272
:1037A800C3F818233D4B434AC3F808233B4B424A0E
:1037B800C3F80C23394BD3F80C33384AC2F810330A
:1037C800364B3E4AC3F81423344B012283F8E222D5
:1037D800324B012283F84223304B394AC3F8202365
:1037E8002E4B384AC3F824232C4B374AC3F82823D6
:1037F8002A4B364AC3F82C23354B364A1A60344BC9
:10380800354A5A60324B354A9A60314B344ADA604D
:103818003449224809F0A6F92048FFF7DDFA00F0FC
:10382800F1F8314B1B78DBB2002B01D0FDF708FA19
:103838001A4B9B78DBB2042B08D12A4B5B7BDBB29B
:10384800022B03D12749154809F0DEF8274B1B68DE
:1038580007EE903AF8EE676A254B1B6807EE903A38
:10386800B8EE677AC6EE877A9FED227A67EE877A96
:10387800214BC3ED007A214BDB6907EE903AF8EE55
:10388800E77A9FED1F7A67EE877A114BC3ED067AC8
:103898000F48FFF791FDC4E79C15002000000020A9
:1038A8000060EA46000048429A998A420000344380
:1038B8006C09F93AB81EC53F6F12033B00000C446F
:1038C80000002042000082420AD71F410000B44293
:1038D8007815002000401C4600E092450000C841D1
:1038E80000E07645B80400203105002038050020A6
:1038F8003C0500200000C842400500206816002052
:10390800F807803980B500AF0120FDF7B7FB4FF00D
:103918008050FDF79BFB0320FDF76EF9FDF708FCCF
:103928000820FDF7C3FBFDF7F1FBFDF735FA00BFF3
:10393800FDF742FA0346012BFAD100234422102155
:103948000320FDF723FB4FF0C0534422102103202E
:10395800FDF73CFBFDF76AFBFDF758FBFDF7F2FAB4
:1039680000BFFDF7FFFA0346012BFAD10320FDF74C
:1039780037FA8020FDF756FA00BFFDF745FA0346EF
:103988000C2BFAD11A4BDB68194A43F08073D360C9
:10399800184B1B68174A43F001031360154B0022AC
:1039A8005A6000BF134B5B68632BFBD90020FDF7FF
:1039B80039FA0020FDF74AFA0020FDF75BFA0E48B5
:1039C80009F0FCFE0420FDF785FB0B4809F02AFFEF
:1039D8004FF44020FDF762FA0020FDF779FA074816
:1039E800FDF78CFA0648FDF789FA00BF80BD00BFD5
:1039F800F0ED00E0001000E080FE210A01001C004C
:103A080001001E0080B500AF1B4B93F8E032DBB21B
:103A1800012B15D105F01EF905F036FD05F062FE03
:103A280005F038FF07F082FE09F0A6FC0BF032F92A
:103A38000BF087F807F09AFD0BF06DF805F0C4FC61
:103A48000D4B93F8E032DBB2002B13D105F002F9ED
:103A580005F0C6FF06F0FAF808F0BAFA09F08CFC8F
:103A68000BF018F90BF06DF807F080FD0BF053F828
:103A780005F04AFC00BF80BD0000002090B585B06D
:103A880000AF4FF0A040FDF703F95248FDF700F9E9
:103A9800514B1B78DBB2002B0AD14F4B01221A7015
:103AA8004E4B00225A604D4B5B684D4A13600DE047
:103AB800494B00221A70494B5B684A4A1360494BCC
:103AC8001A68474B1B68D31A474A1360474BD3F809
:103AD800B4300133454AC2F8B430444BD3F8B83057
:103AE8000133424AC2F8B830404BD3F8BC300133F6
:103AF8003E4AC2F8BC303D4BD3F8B4303B4A92ED55
:103B0800BC7A3B4AD2ED007A67EE277AFCEEE77A78
:103B180017EE902A934208D34FF480413548FDF7B9
:103B280073FB324B0022C3F8B4202C4B5B682C4A41
:103B380013602E4B93F8E032DBB2002B41F0678222
:103B48004FF0A043D3F880301A462B4B5A604FF001
:103B5800A043D3F884301A46274B9A604FF0A0430D
:103B6800D3F888301A46244B1A604FF0A043D3F894
:103B78008C301A46204B9A61164BD3F888301A4677
:103B88001D4BDA60134BD3F880301A461A4B1A6172
:103B9800104BD3F884301A46174B5A610D4BD3F8A3
:103BA8008C301A46144BDA61104B5B78DBB2052B6C
:103BB80004F2D58701A252F823F000BF053C0008A3
:103BC800053E00088D4200086D460008654B000858
:103BD800FD4F00080001005030050020001000E0F3
:103BE80098150020440500203C0500200000002016
:103BF800340500200008004868160020744B754AF8
:103C08001A60754BDB68A3F2FF7307EE903AF8EE83
:103C1800E77A9FED727A27EE877A714BD3EDBF7AF8
:103C280067EE277A6E4BC3EDDD7A6B4B1B69A3F207
:103C3800FF7307EE903AF8EEE77A9FED687A27EE81
:103C4800877A674BD3EDBF7A67EE277A644BC3ED6B
:103C5800E17A614B5B69A3F2FF7307EE903AF8EEE5
:103C6800E77A9FED5E7A27EE877A5D4BD3EDBF7AD0
:103C780067EE277A5A4BC3EDE57A574B9B6907EEF7
:103C8800903AF8EEE77A9FED557A27EE877A544B0B
:103C9800D3EDBF7A67EE277A514BC3EDA97A4E4B25
:103CA8001B6807EE903AF8EEE77A9FED4C7A27EE1C
:103CB800877A4B4BD3EDBE7A67EE277A484BC3ED34
:103CC800317A454B5B6807EE903AF8EEE77A9FED5C
:103CD800437A27EE877A424BD3EDBE7A67EE277A8E
:103CE8003F4BC3ED327A3C4B9B6807EE903AF8EEB7
:103CF800E77A9FED3A7A27EE877A394BD3EDBE7A89
:103D080067EE277A364BC3ED337A3648FDF78DFADE
:103D18003548FDF78AFA3548FDF787FA304B4FF0FA
:103D28000002C3F8E0202E4B0122DA702C4B4FF032
:103D38000002C3F898212A4B4FF00002C3F8AC21C7
:103D4800274B4FF00002C3F8B421254B4FF0000277
:103D5800C3F8E820224B93F86933DBB207EE903AB8
:103D6800F8EE677A9FED227A27EE877AF0EE086AF6
:103D7800C7EE267A9FED1F7A77EE877A9FED1C7A39
:103D880077EE677A164BC3ED367A154BD3F8D830F1
:103D9800134AC2F8A433124BD3F81C341648984778
:103DA8000F4BD3ED377ABCEEE77A0D4BD3ED377A6C
:103DB800FCEEE77A0A4B93F86933DBB21A4617EE42
:103DC800901A17EE100AFDF7CDFE04F0D1BE00BF21
:103DD800340500200AD7233C68160020F8078039EC
:103DE80000000020740300208403002094030020B6
:103DF800DB0F4940920A863FA4030020A44B00220F
:103E0800C3F8B820A24B00221A71A24BDB68A3F2B8
:103E1800FF7307EE903AF8EEE77A9FED9F7A27EE68
:103E2800877A9B4BD3EDBF7A67EE277A984BC3ED21
:103E3800DD7A984B1B69A3F2FF7307EE903AF8EE10
:103E4800E77A9FED957A27EE877A914BD3EDBF7A83
:103E580067EE277A8E4BC3EDE17A8E4B5B69A3F24E
:103E6800FF7307EE903AF8EEE77A9FED8B7A27EE2C
:103E7800877A874BD3EDBF7A67EE277A844BC3EDF9
:103E8800E57A844B9B6907EE903AF8EEE77A9FED66
:103E9800827A27EE877A7E4BD3EDBF7A67EE277A50
:103EA8007B4BC3EDA97A7B4B1B6807EE903AF8EE83
:103EB800E77A9FED797A27EE877A754BD3EDBE7A4C
:103EC80027EE277A724BD3ED317A77EE677A704B0B
:103ED800C3ED0B7A6F4B5B6807EE903AF8EEE77A22
:103EE8009FED6D7A27EE877A694BD3EDBE7A27EE80
:103EF800277A674BD3ED327A77EE677A644BC3ED56
:103F08000C7A644B9B6807EE903AF8EEE77A9FEDDF
:103F1800627A27EE877A5E4BD3EDBE7A27EE277A50
:103F28005B4BD3ED337A77EE677A594BC3ED0D7A55
:103F3800574B93ED0B7A564BD3ED0B7A27EE277A36
:103F4800534BD3ED0C6A524BD3ED0C7A66EEA77A3D
:103F580037EE277A4E4BD3ED0D6A4D4BD3ED0D7AE4
:103F680066EEA77A77EE277AB0EE670A0BF03AFA90
:103F7800B0EE407ADFED497A67EE277A444BC3ED1D
:103F88000E7A434B9B6B424AC2F8C0334448FDF754
:103F98004CF93F4BD3F8C8333D4AD3634148FDF74A
:103FA80044F94148FDF741F94048FDF73EF9384BDF
:103FB800D3F87C33364AC2F85033354BD3F88C33B8
:103FC800334AC2F85433324BD3F89C33304AC2F8E0
:103FD80058332F4BD3F81434354898472C4B93F863
:103FE8006933DBB207EE903AF8EE677A9FED317AE3
:103FF80027EE877AF0EE086AC7EE267A9FED2E7ACA
:1040080077EE877A9FED2B7A77EE677A204BC3EDB0
:10401800367A1F4BD3F8D8301D4AC2F8A4331C4B4C
:10402800D3F81C3425489847194BD3ED0F7A9FEDE8
:10403800247AF4EEC77AF1EE10FA09DC144BD3EDCA
:10404800EC7AB2EE047AF4EEC77AF1EE10FA03D500
:104058001C4B4FF07C521A600D4BD3EDEC7AB2EE4C
:10406800047AF4EEC77AF1EE10FA03DD154B164A1E
:104078001A6003E0134B4FF07E521A60044BDB7852
:10408800DBB2012B22D1024BD3F8F03021E000BF84
:104098000000002068160020F80780399FAA2A3FF0
:1040A800C003002074030020840300209403002030
:1040B80044030020DB0F4940920A863FA4030020F6
:1040C800CDCC4C3E34050020CDCC4C3E6A4BD3F8C9
:1040D800E830694AC2F8E830674B93ED3A7A664BA4
:1040E800D3ED3B6A644BD3EDBD7A76EEE77AB4EE56
:1040F800E77AF1EE10FA0ED55F4BD3EDBD7AB5EE47
:10410800007A27EE877A5C4BD3ED3A7A77EE277AF6
:10411800594BC3ED3A7A584B93ED3A7A564BD3ED57
:104128003B6A554BD3EDBD7A76EEA77AB4EEE77AC3
:10413800F1EE10FA0EDD504BD3EDBD7AB5EE007AF4
:1041480067EE877A4C4B93ED3A7A77EE677A4A4B6B
:10415800C3ED3A7A484BD3F8B830474AD2EDBC7A27
:104168009FED467A67EE877AFCEEE77A17EE902A9B
:10417800934206D9404B0022C3F8B8203E4B042294
:104188005A703D4B93F84433DBB2002B04D13A4BC1
:10419800DB78DBB2012B2BD1374B0022DA70364BA0
:1041A80093F86833DBB2012B11D1334B93F86933A1
:1041B800DBB2042B06D8304B93F86933DBB20133FA
:1041C800DBB200E000232C4A82F8693310E02A4B66
:1041D80093F86933DBB2002B06D0274B93F8693389
:1041E800DBB2013BDBB200E00523234A82F86933E6
:1041F800214BD3ED377AFCEEE76A1F4B93ED377A04
:104208001D4BD3ED3A7A67EE277AFCEEE77A1A4B24
:1042180093F86933DBB21A4617EE901A16EE900A35
:10422800FDF7A0FC144BD3F85023154B03F581532D
:104238001A60114B93F84433DBB207EE903AF8EE6C
:10424800677A0F4B03F581530433C3ED007A0A4BA9
:10425800D3F870230A4B03F5815308331A60064BD1
:10426800D3F84823064B03F581530C331A600448EE
:10427800FEF7EEFF04F07CBC00000020CDCCCC3D66
:1042880048050020C34BDB68A3F2FF7307EE903AA2
:10429800F8EEE77A9FEDC07A27EE877ABF4BD3ED29
:1042A800BF7A67EE277ABD4BC3EDDD7AB94B1B6940
:1042B800A3F2FF7307EE903AF8EEE77A9FEDB67A2D
:1042C80027EE877AB54BD3EDBF7A67EE277AB34BE3
:1042D800C3EDE17AAF4B5B69A3F2FF7307EE903A47
:1042E800F8EEE77A9FEDAC7A27EE877AAB4BD3ED01
:1042F800BF7A67EE277AA94BC3EDE57AA54B9B6990
:1043080007EE903AF8EEE77A9FEDA37A27EE877AE0
:10431800A24BD3EDBF7A67EE277AA04BC3EDA97AFB
:104328009C4B1B6807EE903AF8EEE77A9FED9A7A75
:1043380027EE877A994BD3EDBE7A27EE277A974BEB
:10434800D3ED317A77EE677A944BC3ED0B7A914BC4
:104358005B6807EE903AF8EEE77A9FED8F7A27EEE2
:10436800877A8E4BD3EDBE7A27EE277A8B4BD3ED27
:10437800327A77EE677A894BC3ED0C7A854B9B6866
:1043880007EE903AF8EEE77A9FED837A27EE877A80
:10439800824BD3EDBE7A27EE277A804BD3ED337A62
:1043A80077EE677A7D4BC3ED0D7A7C4B93ED0B7AF4
:1043B8007A4BD3ED0B7A27EE277A784BD3ED0C6A3C
:1043C800764BD3ED0C7A66EEA77A37EE277A734BE5
:1043D800D3ED0D6A714BD3ED0D7A66EEA77A77EEC1
:1043E800277AB0EE670A0AF0FDFFB0EE407ADFEDFB
:1043F8006C7A67EE277A694BC3ED0E7A674B9B6B35
:10440800664AC2F8C0336748FCF70FFF634BD3F81E
:10441800C833624AD3636448FCF707FF6348FCF774
:1044280004FF6348FCF701FF5C4BD3F87C335B4A1D
:10443800C2F85033594BD3F88C33584AC2F8543326
:10444800564BD3F89C33554AC2F85833534BD3F8DC
:10445800143458489847514B93F86933DBB207EE48
:10446800903AF8EE677A9FED547A27EE877AF0EE65
:10447800086AC7EE267A9FED517A77EE877A9FED24
:104488004E7A77EE677A454BC3ED367A434BD3F8CD
:10449800D830424AC2F8A433404BD3F81C344848B9
:1044A80098473E4BD3ED0F7A9FED467AF4EEC77AE4
:1044B800F1EE10FA09DC394BD3EDEC7AB2EE047A5E
:1044C800F4EEC77AF1EE10FA03D53F4B4FF07C5269
:1044D8001A60324BD3EDEC7AB2EE047AF4EEC77A76
:1044E800F1EE10FA03DD384B384A1A6003E0364B18
:1044F8004FF07E521A60294B93ED387A274BD3ED53
:10450800397AB4EEE77AF1EE10FA0EDB234BD3EDED
:10451800BD7A9FED2F7A67EE877A204B93ED387A34
:1045280077EE677A1D4BC3ED387A1C4BD3F8B83059
:104538001A4AD2ED387AFCEEE77A17EE902A9342BF
:104548004CD3164B0022C3F8B820144B93F86833A9
:10455800DBB2012B11D1114B93F86933DBB2042B79
:1045680006D80E4B93F86933DBB20133DBB200E0B7
:1045780000230A4A82F8693330E0084B93F869331C
:10458800DBB2002B26D0054B93F86933DBB2013B35
:10459800DBB220E068160020F80780390000002010
:1045A8009FAA2A3FC0030020740300208403002030
:1045B8009403002044030020DB0F4940920A863F01
:1045C800A4030020CDCC4C3E34050020CDCC4C3E7D
:1045D8000000FA430523C44A82F86933C24BD3ED7D
:1045E800377AFCEEE76AC04B93ED377ABE4BD3EDD2
:1045F8003A7A67EE277AFCEEE77ABB4B93F8693391
:10460800DBB21A4617EE901A16EE900AFDF7AAFAD0
:10461800B54BD3F85023B54B03F581531A60B24B11
:1046280093F84433DBB207EE903AF8EE677AAF4B73
:1046380003F581530433C3ED007AAB4BD3F87023F1
:10464800AA4B03F5815308331A60A74BD3F84823C4
:10465800A64B03F581530C331A60A448FEF7F8FD06
:1046680004F086BAA24BDB68A3F2FF7307EE903A18
:10467800F8EEE77A9FED9F7A27EE877A9A4BD3ED8B
:10468800BF7A67EE277A984BC3EDDD7A984B1B69A2
:10469800A3F2FF7307EE903AF8EEE77A9FED957A6A
:1046A80027EE877A904BD3EDBF7A67EE277A8E4B49
:1046B800C3EDE17A8E4B5B69A3F2FF7307EE903A84
:1046C800F8EEE77A9FED8B7A27EE877A864BD3ED63
:1046D800BF7A67EE277A844BC3EDE57A844B9B69F2
:1046E80007EE903AF8EEE77A9FED827A27EE877A1E
:1046F8007D4BD3EDBF7A67EE277A7B4BC3EDA97A62
:104708007B4B1B6807EE903AF8EEE77A9FED797AD3
:1047180027EE877A744BD3EDBE7A27EE277A724B51
:10472800D3ED317A77EE677A6F4BC3ED0B7A704B26
:104738005B6807EE903AF8EEE77A9FED6E7A27EE1F
:10474800877A694BD3EDBE7A27EE277A664BD3ED8D
:10475800327A77EE677A644BC3ED0C7A644B9B68C8
:1047680007EE903AF8EEE77A9FED627A27EE877ABD
:104778005D4BD3EDBE7A27EE277A5B4BD3ED337AC8
:1047880077EE677A584BC3ED0D7A574B93ED0B7A5A
:10479800554BD3ED0B7A27EE277A534BD3ED0C6AA2
:1047A800514BD3ED0C7A66EEA77A37EE277A4E4B4B
:1047B800D3ED0D6A4C4BD3ED0D7A66EEA77A77EE02
:1047C800277AB0EE670A0AF00DFEB0EE407ADFED08
:1047D8004A7A67EE277A444BC3ED0E7A424B9B6BBD
:1047E800414AC2F8C0334548FCF71FFD3E4BD3F899
:1047F800C8333D4AD3634248FCF717FD4148FCF7EC
:1048080014FD4148FCF711FD374BD3F87C33364A89
:10481800C2F85033344BD3F88C33334AC2F854338C
:10482800314BD3F89C33304AC2F858332E4BD3F867
:104838001434364898472C4B93F86933DBB207EEAB
:10484800903AF8EE677A9FED327A27EE877AF0EEA3
:10485800086AC7EE267A9FED2F7A77EE877A9FED62
:104868002C7A77EE677A204BC3ED367A1E4BD3F855
:10487800D8301D4AC2F8A4331B4BD3F81C34264841
:104888009847194BD3ED0F7A9FED247AF4EEC77A47
:10489800F1EE10FA09DC144BD3EDEC7AB2EE047A9F
:1048A800F4EEC77AF1EE10FA03D51D4B4FF07C52A7
:1048B8001A600D4BD3EDEC7AB2EE047AF4EEC77AB7
:1048C800F1EE10FA03DD164B164A1A6003E0144B9A
:1048D8004FF07E521A60044BDB78DBB2012B23D1F8
:1048E800014BD3F8F03022E00000002048050020FA
:1048F80068160020F80780399FAA2A3FC0030020C5
:104908007403002084030020940300204403002043
:10491800DB0F4940920A863FA4030020CDCC4C3ED1
:1049280034050020CDCC4C3E884BD3F8E830874A7C
:10493800C2F8E830854BDB78DBB2012B08D1834B1A
:1049480093ED3C7A814BD3ED467A77EE277A02E0F5
:104958007E4BD3ED467A7D4BC3ED467A7B4BDB6BC2
:104968007A4AC2F81C31794BD3F800347848984712
:10497800764BD3F84031754AC2F8E830734BDB7890
:10498800DBB2012B03D1714BD3F8F03002E06F4B4F
:10499800D3F8E8306D4AC2F8E8306C4B93ED3A7AB8
:1049A8006A4BD3ED3B6A694BD3EDBD7A76EEE77A75
:1049B800B4EEE77AF1EE10FA0ED5644BD3EDBD7A7A
:1049C800B6EE007A27EE877A604BD3ED3A7A77EE27
:1049D800277A5E4BC3ED3A7A5C4B93ED3A7A5B4BA0
:1049E800D3ED3B6A594BD3EDBD7A76EEA77AB4EE98
:1049F800E77AF1EE10FA0EDD544BD3EDBD7AB6EE40
:104A0800007A67EE877A514B93ED3A7A77EE677AB8
:104A18004E4BC3ED3A7A4D4BD3F8B8304B4AD2EDF2
:104A2800BC7A9FED4C7A67EE877AFCEEE77A17EE50
:104A3800902A93420ED9454B1B79DBB2002B09D142
:104A4800424B0122DA70414B0022C3F8B8203F4B99
:104A580001221A713D4B93F84433DBB2002B04D189
:104A68003A4BDB78DBB2012B2BD1384B0022DA70C2
:104A7800364B93F86833DBB2012B11D1334B93F8E3
:104A88006933DBB2042B06D8304B93F86933DBB2B9
:104A98000133DBB200E000232C4A82F8693310E0CE
:104AA8002A4B93F86933DBB2002B06D0274B93F8D7
:104AB8006933DBB2013BDBB200E00523234A82F80D
:104AC8006933224BD3ED377AFCEEE76A1F4B93ED3F
:104AD800377A1E4BD3ED3A7A67EE277AFCEEE77AFF
:104AE8001A4B93F86933DBB21A4617EE901A16EE92
:104AF800900AFDF737F8154BD3F85023164B03F5FA
:104B080081531A60114B93F84433DBB207EE903AA5
:104B1800F8EE677A104B03F581530433C3ED007A3E
:104B28000A4BD3F870230C4B03F5815308331A60F2
:104B3800064BD3F84823084B03F581530C331A600E
:104B48000548FEF785FB04F013B800BF00000020FD
:104B5800180100209A99993E480500209C4BDB6873
:104B6800A3F2FF7307EE903AF8EEE77A9FED997A91
:104B780027EE877A984BD3EDBF7A67EE277A964B64
:104B8800C3EDDD7A924B1B69A3F2FF7307EE903AEF
:104B9800F8EEE77A9FED8F7A27EE877A8E4BD3ED82
:104BA800BF7A67EE277A8C4BC3EDE17A884B5B6955
:104BB800A3F2FF7307EE903AF8EEE77A9FED857A55
:104BC80027EE877A844BD3EDBF7A67EE277A824B3C
:104BD800C3EDE57A7E4B9B6907EE903AF8EEE77AEB
:104BE8009FED7C7A27EE877A7B4BD3EDBF7A67EE11
:104BF800277A794BC3EDA97A754B1B6807EE903A73
:104C0800F8EEE77A9FED737A27EE877A724BD3ED49
:104C1800BE7A27EE277A704BD3ED317A77EE677A32
:104C28006D4BC3ED0B7A6A4B5B6807EE903AF8EE72
:104C3800E77A9FED687A27EE877A674BD3EDBE7ADD
:104C480027EE277A644BD3ED327A77EE677A624B98
:104C5800C3ED0C7A5E4B9B6807EE903AF8EEE77A64
:104C68009FED5C7A27EE877A5B4BD3EDBE7A27EE11
:104C7800277A594BD3ED337A77EE677A564BC3EDE3
:104C88000D7A554B93ED0B7A534BD3ED0B7A27EEF8
:104C9800277A514BD3ED0C6A4F4BD3ED0C7A66EE65
:104CA800A77A37EE277A4C4BD3ED0D6A4A4BD3EDF2
:104CB8000D7A66EEA77A77EE277AB0EE670A0AF0E1
:104CC80091FBB0EE407ADFED457A67EE277A424BEA
:104CD800C3ED0E7A404B9B6B3F4AC2F8C033404845
:104CE800FCF7A3FA3C4BD3F8C8333B4AD3633D489F
:104CF800FCF79BFA3C48FCF798FA3C48FCF795FA15
:104D0800354BD3F87C33344AC2F85033324BD3F89E
:104D18008C33314AC2F854332F4BD3F89C332E4A84
:104D2800C2F858332C4BD3F81434314898472A4BDF
:104D380093F86933DBB207EE903AF8EE677A9FEDA5
:104D48002D7A27EE877AF0EE086AC7EE267A9FED6D
:104D58002A7A77EE877A9FED277A77EE677A1E4B65
:104D6800C3ED367A1C4B254AC3F8BC231A4BD3F83B
:104D7800D830194AC2F8A433174BD3F81C3420484A
:104D88009847154BD3ED0F7A9FED1E7AF4EEC77A4C
:104D9800F1EE10FA09DC104BD3EDEC7AB2EE047A9E
:104DA800F4EEC77AF1EE10FA03D5174B4FF07C52A8
:104DB8001A60094BD3EDEC7AB2EE047AF4EEC77AB6
:104DC800F1EE10FA24DD104B104A1A6024E000BFFF
:104DD80068160020F8078039000000209FAA2A3FA3
:104DE800C0030020740300208403002094030020E3
:104DF80044030020DB0F4940920A863F00401C46CE
:104E0800A4030020CDCC4C3E34050020CDCC4C3E34
:104E1800A14B4FF07E521A60A04B93ED667A9F4BE0
:104E2800D3ED077AF0EEE76A9C4BD3EDBD7A76EEC8
:104E3800E77AB4EEE77AF1EE10FA0ED5974BD3ED98
:104E4800BD7A9FED977A27EE877A944BD3ED667AF1
:104E580077EE277A914BC3ED667A904B93ED667A9D
:104E68008E4BD3ED077AF0EEE76A8C4BD3EDBD7A23
:104E780076EEA77AB4EEE77AF1EE10FA0EDD874BFC
:104E8800D3EDBD7A9FED867A67EE877A834B93EDF3
:104E9800667A77EE677A814BC3ED667A7F4BD3EDFE
:104EA800EC7AF0EEE77A7D4BC3ED677A7B4BD3F86B
:104EB80000347C489847794BD3F8C031774AC2F818
:104EC800E830764BDB78DBB2012B03D1734BD3F898
:104ED800F03002E0714BD3F8E830704AC2F8E8309D
:104EE8006E4B93F84433DBB2002B04D16B4BDB7869
:104EF800DBB2012B3AD1694B0022DA70674BD3ED54
:104F0800077AF5EEC07AF1EE10FA4CBF01230023C0
:104F1800DBB21A46614B83F86823604B93F8683319
:104F2800DBB2012B11D15D4B93F86933DBB2042B53
:104F380006D85A4B93F86933DBB20133DBB200E091
:104F48000023564A82F8693310E0544B93F86933CA
:104F5800DBB2002B06D0514B93F86933DBB2013B2F
:104F6800DBB200E005234D4A82F869334B4BD3EDA1
:104F7800377AFCEEE76A494B93ED377A474BD3ED26
:104F88003A7A67EE277AFCEEE77A444B93F869336E
:104F9800DBB21A4617EE901A16EE900AFCF7E2FDFD
:104FA8003E4BD3F85023404B03F581531A603B4BDB
:104FB80093F84433DBB207EE903AF8EE677A3A4B4F
:104FC80003F581530433C3ED007A344BD3F87023CF
:104FD800354B03F5815308331A60304BD3F8482317
:104FE800314B03F581530C331A602F48FEF730F923
:104FF80003F0BEBD294BD3F8B430012B43F0B18583
:105008004FF400512948FCF7FFF803F0AABD234BE1
:1050180093F8E032DBB2012B43F0A5854FF0A043B3
:10502800D3F880301A46224B5A604FF0A043D3F889
:1050380084301A461E4B9A604FF0A043D3F888304C
:105048001A461B4B1A604FF0A043D3F88C301A460F
:10505800174B9A61174BD3F880301A46144BDA6114
:105068001448FBF701FE0D4B1B78DBB2072B03F24C
:105078007C8501A252F823F0C150000809540008A9
:1050880083580008D9610008B968000867710008EA
:10509800337A0008498B00083405002000000020FE
:1050A80000409C4498010020480500200008004862
:1050B80068160020000100504FF40051C248FCF768
:1050C80095F8C24B4FF000021A61C04B4FF0000236
:1050D8005A61BE4B4FF00002C3F82C21BB4B4FF076
:1050E8000002C3F83421B94B4FF00002C3F86C2119
:1050F800B64B4FF00002C3F87421B44B4FF00002D6
:10510800C3F8AC21B14B4FF00002C3F8B421AF4B48
:105118004FF00002C3F8D820AD4B4FF000029A625E
:10512800AB4B1B79DAB2AA4BDA70AA4B4FF00002EC
:105138001A60A94B1B6807EE903AF8EEE77A9FEDE4
:10514800A77A27EE877AA14BD3EDBE7A67EE277A46
:105158009E4BC3ED317AA04B5B6807EE903AF8EEB0
:10516800E77A9FED9E7A27EE877A984BD3EDBE7A41
:1051780067EE277A954BC3ED327A974B9B6907EE1A
:10518800903AF8EEE77A9FED957A27EE877A8F4B7B
:10519800D3EDBF7A67EE277A8C4BC3EDA97A00204E
:1051A800FCF7E6F807EE900AF8EEE77A9FED8C7ABE
:1051B80067EE877A854BC3ED1A7A0020FCF700F971
:1051C80007EE900AF8EEE77A9FED857A67EE877A20
:1051D8007E4BC3ED1B7A7D4B93F8E132DBB2012B9A
:1051E80005D1804B9B6C794AC2F8A43211E07A4B06
:1051F8009B6907EE903AF8EEE77A9FED787A27EE0A
:10520800877A724BD3EDBF7A67EE277A6F4BC3ED7F
:10521800A97A6E4BD3F8A4326C4AC2F8F0337248BC
:10522800FCF703F8694BD3F8F833684AC2F8A4329C
:10523800664BD3F8FC30654AC2F8A832634BD3F802
:105248000031624AC2F8AC32604BD3F804315F4A8D
:10525800C2F8B0325D4BD3F80C34644898475B4BC6
:1052680093EDB17A594BD3ED1B7A27EE277A574B3A
:10527800D3EDB26A554BD3ED1A7A66EEA77A77EE7C
:10528800277A524BC3EDB37A504BD3EDB17AB1EED6
:10529800677A4E4BD3ED1A7A27EE277A4B4BD3ED2C
:1052A800B26A4A4BD3ED1B7A66EEA77A77EE277A75
:1052B800464BC3EDB47AF3214D48FBF7F6FC4FF4A7
:1052C80000314B48FBF71CFD03465B081A464FF4B8
:1052D80000314748FBF738FD4FF400214448FBF7FD
:1052E8000FFD03465B081A464FF400214048FBF7C0
:1052F8002BFD4FF480113E48FBF702FD03465B0887
:105308001A464FF480113A48FBF71EFD3548FCF762
:10531800F7F82E4BD3EDA97AB3EE047AF4EEC77AF8
:10532800F1EE10FAACBF01230023DBB21A46274B7B
:1053380083F84123254B5B6C244AC2F83033234B56
:105348005B6E224AC2F83433204BD3F8A4321F4A8A
:10535800C2F83833274B1B691C4AC2F83C331B4B35
:10536800D3F8103424489847184B93F84033DBB2ED
:10537800002B03D1154B1B78DBB200E00723134A3F
:105388001370184B5A6E1D4B03F581531A600F4B5F
:10539800D3F81822194B03F5815304331A600B4BC9
:1053A800D3F81821154B03F5815308331A60074BBE
:1053B800D3F85821114B03F581530C331A600F4869
:1053C800FDF746FF03F0D4BB0008004800000020AA
:1053D800B80400203405002068160020F80780393A
:1053E800000080339C150020F0030020A402002058
:1053F80000680140781500201C03002048050020A3
:10540800464B93ED357A454BD3ED347A27EE277A20
:10541800424BD3ED367A77EE277A404BC3ED367A96
:105428003E4BD3ED367A9FED3E7AF4EEC77AF1EE35
:1054380010FA0AD5394BD3ED367A9FED3A7A77EEE2
:10544800877A364BC3ED367A13E0344BD3ED367A90
:105458009FED357AF4EEC77AF1EE10FA09DD2F4B9D
:10546800D3ED367A9FED2F7A77EEC77A2B4BC3EDC3
:10547800367A2A4BD3ED367A9FED2C7A67EE877A07
:10548800FDEEE77A17EE900AFBF772FF07EE900A37
:10549800F8EEE77A9FED267A67EE877A1F4BC3ED21
:1054A8001A7A1E4BD3ED367A9FED207A67EE877A0B
:1054B800FDEEE77A17EE900AFBF782FF07EE900AF7
:1054C800F8EEE77A9FED1A7A67EE877A134BC3ED09
:1054D8001B7A124B93F8E132DBB2012B30D1154B1A
:1054E800D3F8B0300D4A5364124BD3ED2C7A9FEDAC
:1054F800127A27EE877A0F4BD3ED2D7ADFED0F6AFC
:1055080067EEA67A77EE277A044BC3ED127A094B39
:105518009B6C024AC2F8A4326BE000BF0000002076
:10552800DB0F49C0DB0FC940DB0F49400000804B4F
:10553800000080339C1500203ACD133F3ACD933FAD
:10554800864B93F8E132DBB2002B52D1844B1B68B7
:1055580007EE903AF8EEE77A9FED827A27EE877A9F
:105568007E4BD3EDBE7A27EE277A7C4BD3ED317A8A
:1055780077EE677A794BC3ED117A794B5B6807EE62
:10558800903AF8EEE77A9FED777A27EE877A734BB1
:10559800D3EDBE7A27EE277A704BD3ED327A77EEC9
:1055A800677A6E4BC3ED197A6C4BD3ED117A9FED88
:1055B8006E7A27EE877A694BD3ED197ADFED6B6A3D
:1055C80067EEA67A77EE277A644BC3ED127A644BBE
:1055D8009B6907EE903AF8EEE77A9FED627A27EE3C
:1055E800877A5E4BD3EDBF7A67EE277A5B4BC3EDC4
:1055F800A97A5A4BDB6C594AC2F8D033574B1B6D0A
:10560800564AC2F8E033554BD3F8A432534AC2F88D
:10561800F0335748FBF709FE5648FBF706FE564895
:10562800FBF703FE4D4BD3F8F8334C4AC2F8A432CB
:105638004A4BD3F8FC30494AC2F8A832474BD3F852
:105648000031464AC2F8AC32444BD3F80431434ADD
:10565800C2F8B032414BD3F80C34484898473F4B16
:1056680093EDB17A3D4BD3ED1B7A27EE277A3B4B6E
:10567800D3EDB26A394BD3ED1A7A66EEA77A77EE94
:10568800277A364BC3EDB37A344BD3EDB17AB1EE0A
:10569800677A324BD3ED1A7A27EE277A2F4BD3ED60
:1056A800B26A2E4BD3ED1B7A66EEA77A77EE277A8D
:1056B8002A4BC3EDB47A294B93ED027A274BD3EDED
:1056C8001B7A27EE277A254BD3ED036A234BD3EDBC
:1056D8001A7A66EEA77A77EE677A204BC3ED3D7AA1
:1056E8001E4B93ED037A1D4BD3ED1B7A27EE277AD9
:1056F8001A4BD3ED026A194BD3ED1A7A66EEA77AE4
:1057080077EE277A154BC3ED3E7A144BD3F8043461
:105718001B489847114B5B6C104AC2F830330F4B4B
:105728005B6E0E4AC2F834330C4BD3F8A4320B4AE2
:10573800C2F83833134B1B69084AC2F83C33074B8D
:10574800D3F8103410489847044B93F84033DBB231
:10575800002B1BD1014B1B78DBB218E000000020A6
:1057680068160020F80780393ACD133F3ACD933FA9
:10577800D0030020E0030020F0030020A402002052
:10578800F4000020781500201C0300200723844A19
:105798001370834BD3F8FC30824AD361804BD3F823
:1057A8000031804A13627E4BD3F804317D4A53623C
:1057B8007B4B93ED3F7A7A4BD3ED377A27EE277AF6
:1057C800774BD3ED377A77EE277AFCEEE77A17EE48
:1057D800902A4FF400317448FBF7B6FA704B93EDFA
:1057E800407A6F4BD3ED377A27EE277A6C4BD3ED9F
:1057F800377A77EE277AFCEEE77A17EE902A4FF49D
:1058080000216948FBF7A0FA654B93ED417A644B98
:10581800D3ED377A27EE277A614BD3ED377A77EED7
:10582800277AFCEEE77A17EE902A4FF480115E484B
:10583800FBF78AFA5B4B5A6E5C4B03F581531A608F
:10584800574BD3F81822594B03F5815304331A6088
:10585800534BD3F81821554B03F5815308331A607D
:105868004F4BD3F85821514B03F581530C331A6031
:105878004E48FDF7EDFC03F07BB94D4B4D4A1A60DD
:10588800474B4D4A1A61464B93ED357A444BD3ED5D
:10589800347A27EE277A424BD3ED367A77EE277A99
:1058A8003F4BC3ED367A3E4BD3ED367A9FED437AC4
:1058B800F4EEC77AF1EE10FA0AD5394BD3ED367A01
:1058C8009FED3F7A77EE877A354BC3ED367A13E052
:1058D800334BD3ED367A9FED3B7AF4EEC77AF1EE8F
:1058E80010FA09DD2E4BD3ED367A9FED357A77EE37
:1058F800C77A2B4BC3ED367A294BD3ED367A9FED19
:10590800327A67EE877AFDEEE77A17EE900AFBF7B0
:105918002FFD07EE900AF8EEE77A9FED2C7A67EEF6
:10592800877A1F4BC3ED1A7A1D4BD3ED367A9FED5C
:10593800267A67EE877AFDEEE77A17EE900AFBF78C
:105948003FFD07EE900AF8EEE77A9FED207A67EEC2
:10595800877A134BC3ED1B7A114B93F8E132DBB214
:10596800012B39D10F4BD3F8B0300D4A53640D4B8E
:10597800D3ED2C7A9FED167A27EE877A094BD3ED73
:105988002D7ADFED146A67EEA67A77EE277A044B54
:10599800C3ED127A034B9B6C014AC2F8A43274E03F
:1059A800000000209C1500200068014048050020E8
:1059B80034050020CDCCCC3D0000A040DB0F49C011
:1059C800DB0FC940DB0F49400000804B00008033EB
:1059D8003ACD133F3ACD933FBD4B93F8E132DBB25A
:1059E800002B52D1BB4B1B6807EE903AF8EEE77AD2
:1059F8009FEDB97A27EE877AB54BD3EDBE7A27EEBD
:105A0800277AB34BD3ED317A77EE677AB04BC3ED93
:105A1800117AB04B5B6807EE903AF8EEE77A9FEDA3
:105A2800AE7A27EE877AAA4BD3EDBE7A27EE277A8D
:105A3800A74BD3ED327A77EE677AA54BC3ED197A87
:105A4800A34BD3ED117A9FEDA57A27EE877AA04B69
:105A5800D3ED197ADFEDA26A67EEA67A77EE277A98
:105A68009B4BC3ED127A9B4B9B6907EE903AF8EE7D
:105A7800E77A9FED997A27EE877A954BD3EDBF7A2F
:105A880067EE277A924BC3EDA97A914BDB6C904A6B
:105A9800C2F8D0338E4B1B6D8D4AC2F8E0338C4B65
:105AA800D3F8A4328A4AC2F8F0338E48FBF7BDFB1C
:105AB8008D48FBF7BAFB8D48FBF7B7FB844BD3F84F
:105AC800F833834AC2F8A432814B93ED117A804BA4
